{
	"schemaVersion": "2.0.0",
	"contractName": "DDAI",
	"compilerOutput": {
		"abi": [
			{
				"inputs": [
					{
						"internalType": "address",
						"name": "_moneyMarket",
						"type": "address"
					},
					{
						"internalType": "address",
						"name": "_token",
						"type": "address"
					},
					{
						"internalType": "string",
						"name": "_name",
						"type": "string"
					},
					{
						"internalType": "string",
						"name": "_symbol",
						"type": "string"
					},
					{
						"internalType": "address[]",
						"name": "_operators",
						"type": "address[]"
					}
				],
				"payable": false,
				"stateMutability": "nonpayable",
				"type": "constructor"
			},
			{
				"anonymous": false,
				"inputs": [
					{
						"indexed": true,
						"internalType": "address",
						"name": "owner",
						"type": "address"
					},
					{
						"indexed": true,
						"internalType": "address",
						"name": "spender",
						"type": "address"
					},
					{
						"indexed": false,
						"internalType": "uint256",
						"name": "value",
						"type": "uint256"
					}
				],
				"name": "Approval",
				"type": "event"
			},
			{
				"anonymous": false,
				"inputs": [
					{
						"indexed": true,
						"internalType": "address",
						"name": "operator",
						"type": "address"
					},
					{
						"indexed": true,
						"internalType": "address",
						"name": "tokenHolder",
						"type": "address"
					}
				],
				"name": "AuthorizedOperator",
				"type": "event"
			},
			{
				"anonymous": false,
				"inputs": [
					{
						"indexed": true,
						"internalType": "address",
						"name": "operator",
						"type": "address"
					},
					{
						"indexed": true,
						"internalType": "address",
						"name": "from",
						"type": "address"
					},
					{
						"indexed": false,
						"internalType": "uint256",
						"name": "amount",
						"type": "uint256"
					},
					{
						"indexed": false,
						"internalType": "bytes",
						"name": "data",
						"type": "bytes"
					},
					{
						"indexed": false,
						"internalType": "bytes",
						"name": "operatorData",
						"type": "bytes"
					}
				],
				"name": "Burned",
				"type": "event"
			},
			{
				"anonymous": false,
				"inputs": [
					{
						"indexed": true,
						"internalType": "address",
						"name": "_receiver",
						"type": "address"
					},
					{
						"indexed": false,
						"internalType": "uint256",
						"name": "_amount",
						"type": "uint256"
					},
					{
						"indexed": true,
						"internalType": "address",
						"name": "_operator",
						"type": "address"
					}
				],
				"name": "DDAIMinted",
				"type": "event"
			},
			{
				"anonymous": false,
				"inputs": [
					{
						"indexed": true,
						"internalType": "address",
						"name": "_receiver",
						"type": "address"
					},
					{
						"indexed": false,
						"internalType": "uint256",
						"name": "_amount",
						"type": "uint256"
					},
					{
						"indexed": true,
						"internalType": "address",
						"name": "_operator",
						"type": "address"
					}
				],
				"name": "DDAIRedeemed",
				"type": "event"
			},
			{
				"anonymous": false,
				"inputs": [
					{
						"indexed": true,
						"internalType": "address",
						"name": "_receiver",
						"type": "address"
					},
					{
						"indexed": false,
						"internalType": "uint256",
						"name": "_interestEarned",
						"type": "uint256"
					}
				],
				"name": "InterestClaimed",
				"type": "event"
			},
			{
				"anonymous": false,
				"inputs": [
					{
						"indexed": true,
						"internalType": "address",
						"name": "operator",
						"type": "address"
					},
					{
						"indexed": true,
						"internalType": "address",
						"name": "to",
						"type": "address"
					},
					{
						"indexed": false,
						"internalType": "uint256",
						"name": "amount",
						"type": "uint256"
					},
					{
						"indexed": false,
						"internalType": "bytes",
						"name": "data",
						"type": "bytes"
					},
					{
						"indexed": false,
						"internalType": "bytes",
						"name": "operatorData",
						"type": "bytes"
					}
				],
				"name": "Minted",
				"type": "event"
			},
			{
				"anonymous": false,
				"inputs": [
					{
						"indexed": true,
						"internalType": "address",
						"name": "_account",
						"type": "address"
					},
					{
						"indexed": true,
						"internalType": "address",
						"name": "_receiver",
						"type": "address"
					},
					{
						"indexed": false,
						"internalType": "uint256",
						"name": "_ratio",
						"type": "uint256"
					},
					{
						"indexed": false,
						"internalType": "bytes",
						"name": "_data",
						"type": "bytes"
					},
					{
						"indexed": false,
						"internalType": "uint256",
						"name": "_index",
						"type": "uint256"
					}
				],
				"name": "RecipeAdded",
				"type": "event"
			},
			{
				"anonymous": false,
				"inputs": [
					{
						"indexed": true,
						"internalType": "address",
						"name": "_account",
						"type": "address"
					},
					{
						"indexed": true,
						"internalType": "address",
						"name": "_receiver",
						"type": "address"
					},
					{
						"indexed": false,
						"internalType": "uint256",
						"name": "_ratio",
						"type": "uint256"
					},
					{
						"indexed": false,
						"internalType": "bytes",
						"name": "_data",
						"type": "bytes"
					},
					{
						"indexed": false,
						"internalType": "uint256",
						"name": "_index",
						"type": "uint256"
					}
				],
				"name": "RecipeRemoved",
				"type": "event"
			},
			{
				"anonymous": false,
				"inputs": [
					{
						"indexed": true,
						"internalType": "address",
						"name": "operator",
						"type": "address"
					},
					{
						"indexed": true,
						"internalType": "address",
						"name": "tokenHolder",
						"type": "address"
					}
				],
				"name": "RevokedOperator",
				"type": "event"
			},
			{
				"anonymous": false,
				"inputs": [
					{
						"indexed": true,
						"internalType": "address",
						"name": "operator",
						"type": "address"
					},
					{
						"indexed": true,
						"internalType": "address",
						"name": "from",
						"type": "address"
					},
					{
						"indexed": true,
						"internalType": "address",
						"name": "to",
						"type": "address"
					},
					{
						"indexed": false,
						"internalType": "uint256",
						"name": "amount",
						"type": "uint256"
					},
					{
						"indexed": false,
						"internalType": "bytes",
						"name": "data",
						"type": "bytes"
					},
					{
						"indexed": false,
						"internalType": "bytes",
						"name": "operatorData",
						"type": "bytes"
					}
				],
				"name": "Sent",
				"type": "event"
			},
			{
				"anonymous": false,
				"inputs": [
					{
						"indexed": true,
						"internalType": "address",
						"name": "_receiver",
						"type": "address"
					},
					{
						"indexed": false,
						"internalType": "uint256",
						"name": "_amount",
						"type": "uint256"
					}
				],
				"name": "StackDistributed",
				"type": "event"
			},
			{
				"anonymous": false,
				"inputs": [
					{
						"indexed": true,
						"internalType": "address",
						"name": "from",
						"type": "address"
					},
					{
						"indexed": true,
						"internalType": "address",
						"name": "to",
						"type": "address"
					},
					{
						"indexed": false,
						"internalType": "uint256",
						"name": "value",
						"type": "uint256"
					}
				],
				"name": "Transfer",
				"type": "event"
			},
			{
				"constant": true,
				"inputs": [
					{
						"internalType": "address",
						"name": "",
						"type": "address"
					}
				],
				"name": "accountDataOf",
				"outputs": [
					{
						"internalType": "uint256",
						"name": "lastTokenPrice",
						"type": "uint256"
					},
					{
						"internalType": "uint256",
						"name": "stack",
						"type": "uint256"
					},
					{
						"internalType": "uint256",
						"name": "totalRatio",
						"type": "uint256"
					},
					{
						"internalType": "bool",
						"name": "receiveToStack",
						"type": "bool"
					},
					{
						"internalType": "bool",
						"name": "notStackInterest",
						"type": "bool"
					}
				],
				"payable": false,
				"stateMutability": "view",
				"type": "function"
			},
			{
				"constant": false,
				"inputs": [
					{
						"internalType": "address",
						"name": "_receiver",
						"type": "address"
					},
					{
						"internalType": "uint256",
						"name": "_ratio",
						"type": "uint256"
					},
					{
						"internalType": "bytes",
						"name": "_data",
						"type": "bytes"
					}
				],
				"name": "addRecipe",
				"outputs": [
					{
						"internalType": "bool",
						"name": "",
						"type": "bool"
					}
				],
				"payable": false,
				"stateMutability": "nonpayable",
				"type": "function"
			},
			{
				"constant": true,
				"inputs": [
					{
						"internalType": "address",
						"name": "holder",
						"type": "address"
					},
					{
						"internalType": "address",
						"name": "spender",
						"type": "address"
					}
				],
				"name": "allowance",
				"outputs": [
					{
						"internalType": "uint256",
						"name": "",
						"type": "uint256"
					}
				],
				"payable": false,
				"stateMutability": "view",
				"type": "function"
			},
			{
				"constant": false,
				"inputs": [
					{
						"internalType": "address",
						"name": "spender",
						"type": "address"
					},
					{
						"internalType": "uint256",
						"name": "value",
						"type": "uint256"
					}
				],
				"name": "approve",
				"outputs": [
					{
						"internalType": "bool",
						"name": "",
						"type": "bool"
					}
				],
				"payable": false,
				"stateMutability": "nonpayable",
				"type": "function"
			},
			{
				"constant": false,
				"inputs": [
					{
						"internalType": "address",
						"name": "operator",
						"type": "address"
					}
				],
				"name": "authorizeOperator",
				"outputs": [],
				"payable": false,
				"stateMutability": "nonpayable",
				"type": "function"
			},
			{
				"constant": true,
				"inputs": [
					{
						"internalType": "address",
						"name": "_account",
						"type": "address"
					}
				],
				"name": "balanceOf",
				"outputs": [
					{
						"internalType": "uint256",
						"name": "",
						"type": "uint256"
					}
				],
				"payable": false,
				"stateMutability": "view",
				"type": "function"
			},
			{
				"constant": false,
				"inputs": [
					{
						"internalType": "uint256",
						"name": "amount",
						"type": "uint256"
					},
					{
						"internalType": "bytes",
						"name": "data",
						"type": "bytes"
					}
				],
				"name": "burn",
				"outputs": [],
				"payable": false,
				"stateMutability": "nonpayable",
				"type": "function"
			},
			{
				"constant": false,
				"inputs": [
					{
						"internalType": "address",
						"name": "_receiver",
						"type": "address"
					}
				],
				"name": "claimInterest",
				"outputs": [],
				"payable": false,
				"stateMutability": "nonpayable",
				"type": "function"
			},
			{
				"constant": false,
				"inputs": [],
				"name": "clearRecipes",
				"outputs": [],
				"payable": false,
				"stateMutability": "nonpayable",
				"type": "function"
			},
			{
				"constant": true,
				"inputs": [],
				"name": "decimals",
				"outputs": [
					{
						"internalType": "uint8",
						"name": "",
						"type": "uint8"
					}
				],
				"payable": false,
				"stateMutability": "pure",
				"type": "function"
			},
			{
				"constant": true,
				"inputs": [],
				"name": "defaultOperators",
				"outputs": [
					{
						"internalType": "address[]",
						"name": "",
						"type": "address[]"
					}
				],
				"payable": false,
				"stateMutability": "view",
				"type": "function"
			},
			{
				"constant": false,
				"inputs": [
					{
						"internalType": "address",
						"name": "_account",
						"type": "address"
					}
				],
				"name": "distributeStack",
				"outputs": [],
				"payable": false,
				"stateMutability": "nonpayable",
				"type": "function"
			},
			{
				"constant": true,
				"inputs": [
					{
						"internalType": "address",
						"name": "_account",
						"type": "address"
					}
				],
				"name": "getOutStandingInterest",
				"outputs": [
					{
						"internalType": "uint256",
						"name": "",
						"type": "uint256"
					}
				],
				"payable": false,
				"stateMutability": "view",
				"type": "function"
			},
			{
				"constant": true,
				"inputs": [
					{
						"internalType": "address",
						"name": "_account",
						"type": "address"
					}
				],
				"name": "getRecipesOf",
				"outputs": [
					{
						"components": [
							{
								"internalType": "address",
								"name": "receiver",
								"type": "address"
							},
							{
								"internalType": "uint256",
								"name": "ratio",
								"type": "uint256"
							},
							{
								"internalType": "bytes",
								"name": "data",
								"type": "bytes"
							}
						],
						"internalType": "struct DDAI.Recipe[]",
						"name": "recipes",
						"type": "tuple[]"
					},
					{
						"internalType": "uint256",
						"name": "totalRatio",
						"type": "uint256"
					}
				],
				"payable": false,
				"stateMutability": "view",
				"type": "function"
			},
			{
				"constant": true,
				"inputs": [
					{
						"internalType": "address",
						"name": "_account",
						"type": "address"
					}
				],
				"name": "getStack",
				"outputs": [
					{
						"internalType": "uint256",
						"name": "",
						"type": "uint256"
					}
				],
				"payable": false,
				"stateMutability": "view",
				"type": "function"
			},
			{
				"constant": true,
				"inputs": [
					{
						"internalType": "address",
						"name": "_account",
						"type": "address"
					}
				],
				"name": "getTotalBalance",
				"outputs": [
					{
						"internalType": "uint256",
						"name": "",
						"type": "uint256"
					}
				],
				"payable": false,
				"stateMutability": "view",
				"type": "function"
			},
			{
				"constant": true,
				"inputs": [],
				"name": "granularity",
				"outputs": [
					{
						"internalType": "uint256",
						"name": "",
						"type": "uint256"
					}
				],
				"payable": false,
				"stateMutability": "view",
				"type": "function"
			},
			{
				"constant": true,
				"inputs": [
					{
						"internalType": "address",
						"name": "operator",
						"type": "address"
					},
					{
						"internalType": "address",
						"name": "tokenHolder",
						"type": "address"
					}
				],
				"name": "isOperatorFor",
				"outputs": [
					{
						"internalType": "bool",
						"name": "",
						"type": "bool"
					}
				],
				"payable": false,
				"stateMutability": "view",
				"type": "function"
			},
			{
				"constant": false,
				"inputs": [
					{
						"internalType": "address",
						"name": "_receiver",
						"type": "address"
					},
					{
						"internalType": "uint256",
						"name": "_amount",
						"type": "uint256"
					}
				],
				"name": "mint",
				"outputs": [],
				"payable": false,
				"stateMutability": "nonpayable",
				"type": "function"
			},
			{
				"constant": false,
				"inputs": [
					{
						"internalType": "uint256",
						"name": "_amount",
						"type": "uint256"
					},
					{
						"internalType": "address[]",
						"name": "_receivers",
						"type": "address[]"
					},
					{
						"internalType": "uint256[]",
						"name": "_ratios",
						"type": "uint256[]"
					},
					{
						"internalType": "bytes[]",
						"name": "_data",
						"type": "bytes[]"
					}
				],
				"name": "mintAndSetRecipes",
				"outputs": [],
				"payable": false,
				"stateMutability": "nonpayable",
				"type": "function"
			},
			{
				"constant": true,
				"inputs": [],
				"name": "moneyMarket",
				"outputs": [
					{
						"internalType": "contract IMoneyMarket",
						"name": "",
						"type": "address"
					}
				],
				"payable": false,
				"stateMutability": "view",
				"type": "function"
			},
			{
				"constant": true,
				"inputs": [],
				"name": "name",
				"outputs": [
					{
						"internalType": "string",
						"name": "",
						"type": "string"
					}
				],
				"payable": false,
				"stateMutability": "view",
				"type": "function"
			},
			{
				"constant": false,
				"inputs": [
					{
						"internalType": "address",
						"name": "account",
						"type": "address"
					},
					{
						"internalType": "uint256",
						"name": "amount",
						"type": "uint256"
					},
					{
						"internalType": "bytes",
						"name": "data",
						"type": "bytes"
					},
					{
						"internalType": "bytes",
						"name": "operatorData",
						"type": "bytes"
					}
				],
				"name": "operatorBurn",
				"outputs": [],
				"payable": false,
				"stateMutability": "nonpayable",
				"type": "function"
			},
			{
				"constant": false,
				"inputs": [
					{
						"internalType": "address",
						"name": "sender",
						"type": "address"
					},
					{
						"internalType": "address",
						"name": "recipient",
						"type": "address"
					},
					{
						"internalType": "uint256",
						"name": "amount",
						"type": "uint256"
					},
					{
						"internalType": "bytes",
						"name": "data",
						"type": "bytes"
					},
					{
						"internalType": "bytes",
						"name": "operatorData",
						"type": "bytes"
					}
				],
				"name": "operatorSend",
				"outputs": [],
				"payable": false,
				"stateMutability": "nonpayable",
				"type": "function"
			},
			{
				"constant": false,
				"inputs": [
					{
						"internalType": "address",
						"name": "_receiver",
						"type": "address"
					},
					{
						"internalType": "uint256",
						"name": "_amount",
						"type": "uint256"
					}
				],
				"name": "redeem",
				"outputs": [
					{
						"internalType": "uint256",
						"name": "",
						"type": "uint256"
					}
				],
				"payable": false,
				"stateMutability": "nonpayable",
				"type": "function"
			},
			{
				"constant": false,
				"inputs": [
					{
						"internalType": "uint256",
						"name": "_index",
						"type": "uint256"
					}
				],
				"name": "removeRecipe",
				"outputs": [
					{
						"internalType": "bool",
						"name": "",
						"type": "bool"
					}
				],
				"payable": false,
				"stateMutability": "nonpayable",
				"type": "function"
			},
			{
				"constant": false,
				"inputs": [
					{
						"internalType": "address",
						"name": "operator",
						"type": "address"
					}
				],
				"name": "revokeOperator",
				"outputs": [],
				"payable": false,
				"stateMutability": "nonpayable",
				"type": "function"
			},
			{
				"constant": false,
				"inputs": [
					{
						"internalType": "address",
						"name": "recipient",
						"type": "address"
					},
					{
						"internalType": "uint256",
						"name": "amount",
						"type": "uint256"
					},
					{
						"internalType": "bytes",
						"name": "data",
						"type": "bytes"
					}
				],
				"name": "send",
				"outputs": [],
				"payable": false,
				"stateMutability": "nonpayable",
				"type": "function"
			},
			{
				"constant": false,
				"inputs": [
					{
						"internalType": "bool",
						"name": "_value",
						"type": "bool"
					}
				],
				"name": "setReceiveToStack",
				"outputs": [],
				"payable": false,
				"stateMutability": "nonpayable",
				"type": "function"
			},
			{
				"constant": false,
				"inputs": [
					{
						"internalType": "address[]",
						"name": "_receivers",
						"type": "address[]"
					},
					{
						"internalType": "uint256[]",
						"name": "_ratios",
						"type": "uint256[]"
					},
					{
						"internalType": "bytes[]",
						"name": "_data",
						"type": "bytes[]"
					}
				],
				"name": "setRecipes",
				"outputs": [],
				"payable": false,
				"stateMutability": "nonpayable",
				"type": "function"
			},
			{
				"constant": false,
				"inputs": [
					{
						"internalType": "address",
						"name": "_account",
						"type": "address"
					},
					{
						"internalType": "uint256",
						"name": "_amount",
						"type": "uint256"
					}
				],
				"name": "setStack",
				"outputs": [],
				"payable": false,
				"stateMutability": "nonpayable",
				"type": "function"
			},
			{
				"constant": false,
				"inputs": [
					{
						"internalType": "address",
						"name": "_account",
						"type": "address"
					},
					{
						"internalType": "bool",
						"name": "_allowed",
						"type": "bool"
					}
				],
				"name": "setStackApproved",
				"outputs": [],
				"payable": false,
				"stateMutability": "nonpayable",
				"type": "function"
			},
			{
				"constant": false,
				"inputs": [
					{
						"internalType": "bool",
						"name": "_value",
						"type": "bool"
					}
				],
				"name": "setStackInterest",
				"outputs": [],
				"payable": false,
				"stateMutability": "nonpayable",
				"type": "function"
			},
			{
				"constant": true,
				"inputs": [],
				"name": "supplyInterestRate",
				"outputs": [
					{
						"internalType": "uint256",
						"name": "",
						"type": "uint256"
					}
				],
				"payable": false,
				"stateMutability": "view",
				"type": "function"
			},
			{
				"constant": true,
				"inputs": [],
				"name": "symbol",
				"outputs": [
					{
						"internalType": "string",
						"name": "",
						"type": "string"
					}
				],
				"payable": false,
				"stateMutability": "view",
				"type": "function"
			},
			{
				"constant": true,
				"inputs": [],
				"name": "token",
				"outputs": [
					{
						"internalType": "contract IERC20",
						"name": "",
						"type": "address"
					}
				],
				"payable": false,
				"stateMutability": "view",
				"type": "function"
			},
			{
				"constant": true,
				"inputs": [],
				"name": "totalSupply",
				"outputs": [
					{
						"internalType": "uint256",
						"name": "",
						"type": "uint256"
					}
				],
				"payable": false,
				"stateMutability": "view",
				"type": "function"
			},
			{
				"constant": false,
				"inputs": [
					{
						"internalType": "address",
						"name": "recipient",
						"type": "address"
					},
					{
						"internalType": "uint256",
						"name": "amount",
						"type": "uint256"
					}
				],
				"name": "transfer",
				"outputs": [
					{
						"internalType": "bool",
						"name": "",
						"type": "bool"
					}
				],
				"payable": false,
				"stateMutability": "nonpayable",
				"type": "function"
			},
			{
				"constant": false,
				"inputs": [
					{
						"internalType": "address",
						"name": "holder",
						"type": "address"
					},
					{
						"internalType": "address",
						"name": "recipient",
						"type": "address"
					},
					{
						"internalType": "uint256",
						"name": "amount",
						"type": "uint256"
					}
				],
				"name": "transferFrom",
				"outputs": [
					{
						"internalType": "bool",
						"name": "",
						"type": "bool"
					}
				],
				"payable": false,
				"stateMutability": "nonpayable",
				"type": "function"
			}
		],
		"evm": {
			"bytecode": {
				"linkReferences": {},
				"object": "0x6080604052731820a4b7618bde71dce8cdc73aab6c95905fad246000806101000a81548173ffffffffffffffffffffffffffffffffffffffff021916908373ffffffffffffffffffffffffffffffffffffffff1602179055503480156200006557600080fd5b50604051620063bc380380620063bc83398181016040526200008b9190810190620005f2565b8282828260039080519060200190620000a69291906200036e565b508160049080519060200190620000bf9291906200036e565b508060059080519060200190620000d8929190620003f5565b5060008090505b6005805490508110156200018b57600160066000600584815481106200010157fe5b9060005260206000200160009054906101000a900473ffffffffffffffffffffffffffffffffffffffff1673ffffffffffffffffffffffffffffffffffffffff1673ffffffffffffffffffffffffffffffffffffffff16815260200190815260200160002060006101000a81548160ff0219169083151502179055508080600101915050620000df565b506000809054906101000a900473ffffffffffffffffffffffffffffffffffffffff1673ffffffffffffffffffffffffffffffffffffffff166329965a1d30604051620001d89062000765565b6040518091039020306040518463ffffffff1660e01b8152600401620002019392919062000793565b600060405180830381600087803b1580156200021c57600080fd5b505af115801562000231573d6000803e3d6000fd5b505050506000809054906101000a900473ffffffffffffffffffffffffffffffffffffffff1673ffffffffffffffffffffffffffffffffffffffff166329965a1d3060405162000281906200077c565b6040518091039020306040518463ffffffff1660e01b8152600401620002aa9392919062000793565b600060405180830381600087803b158015620002c557600080fd5b505af1158015620002da573d6000803e3d6000fd5b5050505050505083600a60006101000a81548173ffffffffffffffffffffffffffffffffffffffff021916908373ffffffffffffffffffffffffffffffffffffffff16021790555084600b60006101000a81548173ffffffffffffffffffffffffffffffffffffffff021916908373ffffffffffffffffffffffffffffffffffffffff1602179055505050505050620008ed565b828054600181600116156101000203166002900490600052602060002090601f016020900481019282601f10620003b157805160ff1916838001178555620003e2565b82800160010185558215620003e2579182015b82811115620003e1578251825591602001919060010190620003c4565b5b509050620003f1919062000484565b5090565b82805482825590600052602060002090810192821562000471579160200282015b82811115620004705782518260006101000a81548173ffffffffffffffffffffffffffffffffffffffff021916908373ffffffffffffffffffffffffffffffffffffffff1602179055509160200191906001019062000416565b5b509050620004809190620004ac565b5090565b620004a991905b80821115620004a55760008160009055506001016200048b565b5090565b90565b620004ef91905b80821115620004eb57600081816101000a81549073ffffffffffffffffffffffffffffffffffffffff021916905550600101620004b3565b5090565b90565b6000815190506200050381620008d3565b92915050565b600082601f8301126200051b57600080fd5b8151620005326200052c82620007fe565b620007d0565b915081818352602084019350602081019050838560208402820111156200055857600080fd5b60005b838110156200058c5781620005718882620004f2565b8452602084019350602083019250506001810190506200055b565b5050505092915050565b600082601f830112620005a857600080fd5b8151620005bf620005b98262000827565b620007d0565b91508082526020830160208301858383011115620005dc57600080fd5b620005e98382846200089d565b50505092915050565b600080600080600060a086880312156200060b57600080fd5b60006200061b88828901620004f2565b95505060206200062e88828901620004f2565b945050604086015167ffffffffffffffff8111156200064c57600080fd5b6200065a8882890162000596565b935050606086015167ffffffffffffffff8111156200067857600080fd5b620006868882890162000596565b925050608086015167ffffffffffffffff811115620006a457600080fd5b620006b28882890162000509565b9150509295509295909350565b620006ca816200085f565b82525050565b620006db8162000873565b82525050565b6000620006f0600b8362000854565b91507f455243373737546f6b656e0000000000000000000000000000000000000000006000830152600b82019050919050565b600062000732600a8362000854565b91507f4552433230546f6b656e000000000000000000000000000000000000000000006000830152600a82019050919050565b60006200077282620006e1565b9150819050919050565b6000620007898262000723565b9150819050919050565b6000606082019050620007aa6000830186620006bf565b620007b96020830185620006d0565b620007c86040830184620006bf565b949350505050565b6000604051905081810181811067ffffffffffffffff82111715620007f457600080fd5b8060405250919050565b600067ffffffffffffffff8211156200081657600080fd5b602082029050602081019050919050565b600067ffffffffffffffff8211156200083f57600080fd5b601f19601f8301169050602081019050919050565b600081905092915050565b60006200086c826200087d565b9050919050565b6000819050919050565b600073ffffffffffffffffffffffffffffffffffffffff82169050919050565b60005b83811015620008bd578082015181840152602081019050620008a0565b83811115620008cd576000848401525b50505050565b620008de816200085f565b8114620008ea57600080fd5b50565b615abf80620008fd6000396000f3fe608060405234801561001057600080fd5b506004361061023d5760003560e01c80638314b4e31161013b578063c35450ec116100b8578063dd62ed3e1161007c578063dd62ed3e14610701578063fad8b32a14610731578063fc0c546a1461074d578063fc673c4f1461076b578063fe9d9303146107875761023d565b8063c35450ec14610636578063d240a00814610652578063d3d3819314610683578063d6d75f51146106b3578063d95b6371146106d15761023d565b8063959b8c3f116100ff578063959b8c3f1461059457806395d89b41146105b05780639bd9bbc6146105ce5780639e729549146105ea578063a9059cbb146106065761023d565b80638314b4e3146104e057806388d742c2146105105780638cc872281461052c578063920c060714610548578063925067f4146105785761023d565b80632f8035b4116101c95780635b38539e1161018d5780635b38539e146104145780635ffd9f291461044457806362ad1b831461046057806370a082311461047c5780637a26b414146104ac5761023d565b80632f8035b414610370578063313ce567146103a057806337e63d07146103be57806340c10f19146103da578063556f0dc7146103f65761023d565b806318160ddd1161021057806318160ddd146102cc5780631ab113b9146102ea5780631e9a6950146102f457806321edf2661461032457806323b872dd146103405761023d565b806306e485381461024257806306fdde0314610260578063095ea7b31461027e57806309ec6b6b146102ae575b600080fd5b61024a6107a3565b60405161025791906152e3565b60405180910390f35b610268610831565b6040516102759190615386565b60405180910390f35b6102986004803603610293919081019061452b565b6108d3565b6040516102a59190615335565b60405180910390f35b6102b66108f6565b6040516102c391906155a8565b60405180910390f35b6102d461099d565b6040516102e191906155a8565b60405180910390f35b6102f26109a7565b005b61030e6004803603610309919081019061452b565b610a10565b60405161031b91906155a8565b60405180910390f35b61033e60048036036103399190810190614362565b610cbc565b005b61035a600480360361035591908101906143f0565b610d6d565b6040516103679190615335565b60405180910390f35b61038a60048036036103859190810190614362565b610f9f565b60405161039791906155a8565b60405180910390f35b6103a8610feb565b6040516103b591906156d7565b60405180910390f35b6103d860048036036103d391908101906144ef565b610ff4565b005b6103f460048036036103ef919081019061452b565b611093565b005b6103fe6113b7565b60405161040b91906155a8565b60405180910390f35b61042e6004803603610429919081019061466e565b6113c0565b60405161043b9190615335565b60405180910390f35b61045e6004803603610459919081019061476c565b61157d565b005b61047a6004803603610475919081019061443f565b6115e2565b005b61049660048036036104919190810190614362565b6116da565b6040516104a391906155a8565b60405180910390f35b6104c660048036036104c19190810190614362565b611798565b6040516104d7959493929190615684565b60405180910390f35b6104fa60048036036104f591908101906147be565b6117e8565b6040516105079190615335565b60405180910390f35b61052a60048036036105259190810190614362565b611a5a565b005b6105466004803603610541919081019061452b565b611c49565b005b610562600480360361055d9190810190614362565b611da7565b60405161056f91906155a8565b60405180910390f35b610592600480360361058d919081019061476c565b611ecd565b005b6105ae60048036036105a99190810190614362565b611f31565b005b6105b8612192565b6040516105c59190615386565b60405180910390f35b6105e860048036036105e39190810190614567565b612234565b005b61060460048036036105ff91908101906146d5565b6122ab565b005b610620600480360361061b919081019061452b565b61231a565b60405161062d9190615335565b60405180910390f35b610650600480360361064b9190810190614810565b612428565b005b61066c60048036036106679190810190614362565b61244a565b60405161067a929190615305565b60405180910390f35b61069d60048036036106989190810190614362565b6125fb565b6040516106aa91906155a8565b60405180910390f35b6106bb61260d565b6040516106c8919061536b565b60405180910390f35b6106eb60048036036106e691908101906143b4565b612633565b6040516106f89190615335565b60405180910390f35b61071b600480360361071691908101906143b4565b6127e4565b60405161072891906155a8565b60405180910390f35b61074b60048036036107469190810190614362565b61286b565b005b610755612acc565b6040516107629190615350565b60405180910390f35b610785600480360361078091908101906145d3565b612af2565b005b6107a1600480360361079c91908101906148bb565b612be6565b005b6060600580548060200260200160405190810160405280929190818152602001828054801561082757602002820191906000526020600020905b8160009054906101000a900473ffffffffffffffffffffffffffffffffffffffff1673ffffffffffffffffffffffffffffffffffffffff16815260200190600101908083116107dd575b5050505050905090565b606060038054600181600116156101000203166002900480601f0160208091040260200160405190810160405280929190818152602001828054600181600116156101000203166002900480156108c95780601f1061089e576101008083540402835291602001916108c9565b820191906000526020600020905b8154815290600101906020018083116108ac57829003601f168201915b5050505050905090565b6000806108de612c59565b90506108eb818585612c61565b600191505092915050565b6000600b60009054906101000a900473ffffffffffffffffffffffffffffffffffffffff1673ffffffffffffffffffffffffffffffffffffffff166309ec6b6b6040518163ffffffff1660e01b815260040160206040518083038186803b15801561096057600080fd5b505afa158015610974573d6000803e3d6000fd5b505050506040513d601f19601f8201168201806040525061099891908101906147e7565b905090565b6000600254905090565b6000600c60006109b5612c59565b73ffffffffffffffffffffffffffffffffffffffff1673ffffffffffffffffffffffffffffffffffffffff168152602001908152602001600020905060008160020181610a029190613e3d565b506000816003018190555050565b6000610a22610a1d612c59565b611a5a565b6000610a46610a37610a32612c59565b612dbc565b84612dce90919063ffffffff16565b9050610a81610a53612c59565b610a5b612c59565b836040518060200160405280600081525060405180602001604052806000815250612de7565b6000610b4f600b60009054906101000a900473ffffffffffffffffffffffffffffffffffffffff1673ffffffffffffffffffffffffffffffffffffffff16637ff9b5966040518163ffffffff1660e01b815260040160206040518083038186803b158015610aee57600080fd5b505afa158015610b02573d6000803e3d6000fd5b505050506040513d601f19601f82011682018060405250610b2691908101906147e7565b610b41670de0b6b3a76400008561300690919063ffffffff16565b61307690919063ffffffff16565b905060018203600b60009054906101000a900473ffffffffffffffffffffffffffffffffffffffff1673ffffffffffffffffffffffffffffffffffffffff16639dc29fac87846040518363ffffffff1660e01b8152600401610bb29291906152ba565b602060405180830381600087803b158015610bcc57600080fd5b505af1158015610be0573d6000803e3d6000fd5b505050506040513d601f19601f82011682018060405250610c0491908101906147e7565b1015610c45576040517f08c379a0000000000000000000000000000000000000000000000000000000008152600401610c3c90615508565b60405180910390fd5b610c4d612c59565b73ffffffffffffffffffffffffffffffffffffffff168573ffffffffffffffffffffffffffffffffffffffff167f98e2ef558343683d81148487f9e3adc59ab8b7f4038427844dfa588f409f3ddc84604051610ca991906155a8565b60405180910390a3819250505092915050565b610cc581611a5a565b6000600c60008373ffffffffffffffffffffffffffffffffffffffff1673ffffffffffffffffffffffffffffffffffffffff16815260200190815260200160002090508173ffffffffffffffffffffffffffffffffffffffff167f85438fa7c52fd8fc942f2ddee2033aa0efd3b75027316b7f1ecbe7738333807e8260010154604051610d5291906155a8565b60405180910390a2610d688282600101546130c0565b505050565b60008073ffffffffffffffffffffffffffffffffffffffff168373ffffffffffffffffffffffffffffffffffffffff161415610dde576040517f08c379a0000000000000000000000000000000000000000000000000000000008152600401610dd5906154e8565b60405180910390fd5b600073ffffffffffffffffffffffffffffffffffffffff168473ffffffffffffffffffffffffffffffffffffffff161415610e4e576040517f08c379a0000000000000000000000000000000000000000000000000000000008152600401610e4590615548565b60405180910390fd5b6000610e58612c59565b9050610e868186868660405180602001604052806000815250604051806020016040528060008152506132e1565b610eb2818686866040518060200160405280600081525060405180602001604052806000815250613467565b610f658582610f6086604051806060016040528060298152602001615a3160299139600960008c73ffffffffffffffffffffffffffffffffffffffff1673ffffffffffffffffffffffffffffffffffffffff16815260200190815260200160002060008873ffffffffffffffffffffffffffffffffffffffff1673ffffffffffffffffffffffffffffffffffffffff168152602001908152602001600020546135119092919063ffffffff16565b612c61565b610f93818686866040518060200160405280600081525060405180602001604052806000815250600061356c565b60019150509392505050565b6000600c60008373ffffffffffffffffffffffffffffffffffffffff1673ffffffffffffffffffffffffffffffffffffffff168152602001908152602001600020600101549050919050565b60006012905090565b80600d6000611001612c59565b73ffffffffffffffffffffffffffffffffffffffff1673ffffffffffffffffffffffffffffffffffffffff16815260200190815260200160002060008473ffffffffffffffffffffffffffffffffffffffff1673ffffffffffffffffffffffffffffffffffffffff16815260200190815260200160002060006101000a81548160ff0219169083151502179055505050565b61109c82611a5a565b600a60009054906101000a900473ffffffffffffffffffffffffffffffffffffffff1673ffffffffffffffffffffffffffffffffffffffff166323b872dd6110e2612c59565b30846040518463ffffffff1660e01b81526004016111029392919061525a565b602060405180830381600087803b15801561111c57600080fd5b505af1158015611130573d6000803e3d6000fd5b505050506040513d601f19601f820116820180604052506111549190810190614795565b611193576040517f08c379a000000000000000000000000000000000000000000000000000000000815260040161118a906153c8565b60405180910390fd5b600a60009054906101000a900473ffffffffffffffffffffffffffffffffffffffff1673ffffffffffffffffffffffffffffffffffffffff1663095ea7b3600b60009054906101000a900473ffffffffffffffffffffffffffffffffffffffff16836040518363ffffffff1660e01b81526004016112129291906152ba565b602060405180830381600087803b15801561122c57600080fd5b505af1158015611240573d6000803e3d6000fd5b505050506040513d601f19601f820116820180604052506112649190810190614795565b50600b60009054906101000a900473ffffffffffffffffffffffffffffffffffffffff1673ffffffffffffffffffffffffffffffffffffffff166340c10f1930836040518363ffffffff1660e01b81526004016112c29291906152ba565b602060405180830381600087803b1580156112dc57600080fd5b505af11580156112f0573d6000803e3d6000fd5b505050506040513d601f19601f8201168201806040525061131491908101906147e7565b50611347611320612c59565b8383604051806020016040528060008152506040518060200160405280600081525061375d565b61134f612c59565b73ffffffffffffffffffffffffffffffffffffffff168273ffffffffffffffffffffffffffffffffffffffff167f790acd49f79fd738bf072d1f334b7defc021d1a0dfdc5799f5087a37e61930b5836040516113ab91906155a8565b60405180910390a35050565b60006001905090565b600080600c60006113cf612c59565b73ffffffffffffffffffffffffffffffffffffffff1673ffffffffffffffffffffffffffffffffffffffff16815260200190815260200160002090508060020160405180606001604052808773ffffffffffffffffffffffffffffffffffffffff168152602001868152602001858152509080600181540180825580915050906001820390600052602060002090600302016000909192909190915060008201518160000160006101000a81548173ffffffffffffffffffffffffffffffffffffffff021916908373ffffffffffffffffffffffffffffffffffffffff1602179055506020820151816001015560408201518160020190805190602001906114d8929190613e6f565b505050506114f384826003015461396490919063ffffffff16565b81600301819055508473ffffffffffffffffffffffffffffffffffffffff1661151a612c59565b73ffffffffffffffffffffffffffffffffffffffff167f37cacddb5cbff122a21ad5f5643384a5929ed0a67f74be15a1bd13f17245c4218686600186600201805490500360405161156d93929190615608565b60405180910390a3509392505050565b8015600c600061158b612c59565b73ffffffffffffffffffffffffffffffffffffffff1673ffffffffffffffffffffffffffffffffffffffff16815260200190815260200160002060040160016101000a81548160ff02191690831515021790555050565b6115f36115ed612c59565b88612633565b611632576040517f08c379a000000000000000000000000000000000000000000000000000000000815260040161162990615528565b60405180910390fd5b6116d161163d612c59565b88888888888080601f016020809104026020016040519081016040528093929190818152602001838380828437600081840152601f19601f8201169050808301925050505050505087878080601f016020809104026020016040519081016040528093929190818152602001838380828437600081840152601f19601f8201169050808301925050505050505060016139b9565b50505050505050565b600080600c60008473ffffffffffffffffffffffffffffffffffffffff1673ffffffffffffffffffffffffffffffffffffffff1681526020019081526020016000209050600061172984612dbc565b90508082600101541061174157600092505050611793565b600c60008573ffffffffffffffffffffffffffffffffffffffff1673ffffffffffffffffffffffffffffffffffffffff1681526020019081526020016000206001015461178d85612dbc565b03925050505b919050565b600c6020528060005260406000206000915090508060000154908060010154908060030154908060040160009054906101000a900460ff16908060040160019054906101000a900460ff16905085565b600080600c60006117f7612c59565b73ffffffffffffffffffffffffffffffffffffffff1673ffffffffffffffffffffffffffffffffffffffff1681526020019081526020016000209050600081600201848154811061184457fe5b906000526020600020906003020190508060000160009054906101000a900473ffffffffffffffffffffffffffffffffffffffff1673ffffffffffffffffffffffffffffffffffffffff16611897612c59565b73ffffffffffffffffffffffffffffffffffffffff167f9b691786d8e66ef436af4d05f895ee1c9f3b4aa32a9a6854438f82b08c223045836001015484600201886040516118e793929190615646565b60405180910390a361192682600201858154811061190157fe5b9060005260206000209060030201600101548360030154613acd90919063ffffffff16565b826003018190555060018260020180549050038414611a20578160020160018360020180549050038154811061195857fe5b906000526020600020906003020182600201858154811061197557fe5b90600052602060002090600302016000820160009054906101000a900473ffffffffffffffffffffffffffffffffffffffff168160000160006101000a81548173ffffffffffffffffffffffffffffffffffffffff021916908373ffffffffffffffffffffffffffffffffffffffff1602179055506001820154816001015560028201816002019080546001816001161561010002031660029004611a1b929190613eef565b509050505b81600201805480919060019003611a379190613e3d565b50600082600201805490501415611a5357600082600101819055505b5050919050565b6000600c60008373ffffffffffffffffffffffffffffffffffffffff1673ffffffffffffffffffffffffffffffffffffffff16815260200190815260200160002090506000600b60009054906101000a900473ffffffffffffffffffffffffffffffffffffffff1673ffffffffffffffffffffffffffffffffffffffff16637ff9b5966040518163ffffffff1660e01b815260040160206040518083038186803b158015611b0757600080fd5b505afa158015611b1b573d6000803e3d6000fd5b505050506040513d601f19601f82011682018060405250611b3f91908101906147e7565b9050600082600001541415611b58578082600001819055505b6000611b6384611da7565b90506000811415611b7657505050611c46565b8260040160019054906101000a900460ff1680611b9b57506000836002018054905014155b15611bc057611bb781846001015461396490919063ffffffff16565b83600101819055505b818360000181905550611bf4308583604051806020016040528060008152506040518060200160405280600081525061375d565b8373ffffffffffffffffffffffffffffffffffffffff167ff9984c8173c4b4ff9cc454f76ed19c053f4490ccb224fd9ddffeb4ef4bea353082604051611c3a91906155a8565b60405180910390a25050505b50565b8173ffffffffffffffffffffffffffffffffffffffff16611c68612c59565b73ffffffffffffffffffffffffffffffffffffffff161480611d175750600d60008373ffffffffffffffffffffffffffffffffffffffff1673ffffffffffffffffffffffffffffffffffffffff1681526020019081526020016000206000611cce612c59565b73ffffffffffffffffffffffffffffffffffffffff1673ffffffffffffffffffffffffffffffffffffffff16815260200190815260200160002060009054906101000a900460ff165b611d56576040517f08c379a0000000000000000000000000000000000000000000000000000000008152600401611d4d90615428565b60405180910390fd5b6000600c60008473ffffffffffffffffffffffffffffffffffffffff1673ffffffffffffffffffffffffffffffffffffffff1681526020019081526020016000209050818160010181905550505050565b600080600c60008473ffffffffffffffffffffffffffffffffffffffff1673ffffffffffffffffffffffffffffffffffffffff1681526020019081526020016000209050611ec5670de0b6b3a7640000611eb78360000154600b60009054906101000a900473ffffffffffffffffffffffffffffffffffffffff1673ffffffffffffffffffffffffffffffffffffffff16637ff9b5966040518163ffffffff1660e01b815260040160206040518083038186803b158015611e6757600080fd5b505afa158015611e7b573d6000803e3d6000fd5b505050506040513d601f19601f82011682018060405250611e9f91908101906147e7565b03611ea987612dbc565b61300690919063ffffffff16565b61307690919063ffffffff16565b915050919050565b80600c6000611eda612c59565b73ffffffffffffffffffffffffffffffffffffffff1673ffffffffffffffffffffffffffffffffffffffff16815260200190815260200160002060040160006101000a81548160ff02191690831515021790555050565b8073ffffffffffffffffffffffffffffffffffffffff16611f50612c59565b73ffffffffffffffffffffffffffffffffffffffff161415611fa7576040517f08c379a0000000000000000000000000000000000000000000000000000000008152600401611f9e90615448565b60405180910390fd5b600660008273ffffffffffffffffffffffffffffffffffffffff1673ffffffffffffffffffffffffffffffffffffffff16815260200190815260200160002060009054906101000a900460ff16156120915760086000612005612c59565b73ffffffffffffffffffffffffffffffffffffffff1673ffffffffffffffffffffffffffffffffffffffff16815260200190815260200160002060008273ffffffffffffffffffffffffffffffffffffffff1673ffffffffffffffffffffffffffffffffffffffff16815260200190815260200160002060006101000a81549060ff021916905561212e565b60016007600061209f612c59565b73ffffffffffffffffffffffffffffffffffffffff1673ffffffffffffffffffffffffffffffffffffffff16815260200190815260200160002060008373ffffffffffffffffffffffffffffffffffffffff1673ffffffffffffffffffffffffffffffffffffffff16815260200190815260200160002060006101000a81548160ff0219169083151502179055505b612136612c59565b73ffffffffffffffffffffffffffffffffffffffff168173ffffffffffffffffffffffffffffffffffffffff167ff4caeb2d6ca8932a215a353d0703c326ec2d81fc68170f320eb2ab49e9df61f960405160405180910390a350565b606060048054600181600116156101000203166002900480601f01602080910402602001604051908101604052809291908181526020018280546001816001161561010002031660029004801561222a5780601f106121ff5761010080835404028352916020019161222a565b820191906000526020600020905b81548152906001019060200180831161220d57829003601f168201915b5050505050905090565b6122a561223f612c59565b612247612c59565b868686868080601f016020809104026020016040519081016040528093929190818152602001838380828437600081840152601f19601f820116905080830192505050505050506040518060200160405280600081525060016139b9565b50505050565b6122b36109a7565b60008090505b8351811015612314576123068482815181106122d157fe5b60200260200101518483815181106122e557fe5b60200260200101518484815181106122f957fe5b60200260200101516113c0565b5080806001019150506122b9565b50505050565b60008073ffffffffffffffffffffffffffffffffffffffff168373ffffffffffffffffffffffffffffffffffffffff16141561238b576040517f08c379a0000000000000000000000000000000000000000000000000000000008152600401612382906154e8565b60405180910390fd5b6000612395612c59565b90506123c38182868660405180602001604052806000815250604051806020016040528060008152506132e1565b6123ef818286866040518060200160405280600081525060405180602001604052806000815250613467565b61241d818286866040518060200160405280600081525060405180602001604052806000815250600061356c565b600191505092915050565b612439612433612c59565b85611093565b6124448383836122ab565b50505050565b6060600080600c60008573ffffffffffffffffffffffffffffffffffffffff1673ffffffffffffffffffffffffffffffffffffffff168152602001908152602001600020905080600201805480602002602001604051908101604052809291908181526020016000905b828210156125e857838290600052602060002090600302016040518060600160405290816000820160009054906101000a900473ffffffffffffffffffffffffffffffffffffffff1673ffffffffffffffffffffffffffffffffffffffff1673ffffffffffffffffffffffffffffffffffffffff16815260200160018201548152602001600282018054600181600116156101000203166002900480601f0160208091040260200160405190810160405280929190818152602001828054600181600116156101000203166002900480156125d05780601f106125a5576101008083540402835291602001916125d0565b820191906000526020600020905b8154815290600101906020018083116125b357829003601f168201915b505050505081525050815260200190600101906124b4565b5050505092508060030154915050915091565b600061260682612dbc565b9050919050565b600b60009054906101000a900473ffffffffffffffffffffffffffffffffffffffff1681565b60008173ffffffffffffffffffffffffffffffffffffffff168373ffffffffffffffffffffffffffffffffffffffff16148061274b5750600660008473ffffffffffffffffffffffffffffffffffffffff1673ffffffffffffffffffffffffffffffffffffffff16815260200190815260200160002060009054906101000a900460ff16801561274a5750600860008373ffffffffffffffffffffffffffffffffffffffff1673ffffffffffffffffffffffffffffffffffffffff16815260200190815260200160002060008473ffffffffffffffffffffffffffffffffffffffff1673ffffffffffffffffffffffffffffffffffffffff16815260200190815260200160002060009054906101000a900460ff16155b5b806127dc5750600760008373ffffffffffffffffffffffffffffffffffffffff1673ffffffffffffffffffffffffffffffffffffffff16815260200190815260200160002060008473ffffffffffffffffffffffffffffffffffffffff1673ffffffffffffffffffffffffffffffffffffffff16815260200190815260200160002060009054906101000a900460ff165b905092915050565b6000600960008473ffffffffffffffffffffffffffffffffffffffff1673ffffffffffffffffffffffffffffffffffffffff16815260200190815260200160002060008373ffffffffffffffffffffffffffffffffffffffff1673ffffffffffffffffffffffffffffffffffffffff16815260200190815260200160002054905092915050565b612873612c59565b73ffffffffffffffffffffffffffffffffffffffff168173ffffffffffffffffffffffffffffffffffffffff1614156128e1576040517f08c379a00000000000000000000000000000000000000000000000000000000081526004016128d890615468565b60405180910390fd5b600660008273ffffffffffffffffffffffffffffffffffffffff1673ffffffffffffffffffffffffffffffffffffffff16815260200190815260200160002060009054906101000a900460ff16156129d457600160086000612941612c59565b73ffffffffffffffffffffffffffffffffffffffff1673ffffffffffffffffffffffffffffffffffffffff16815260200190815260200160002060008373ffffffffffffffffffffffffffffffffffffffff1673ffffffffffffffffffffffffffffffffffffffff16815260200190815260200160002060006101000a81548160ff021916908315150217905550612a68565b600760006129e0612c59565b73ffffffffffffffffffffffffffffffffffffffff1673ffffffffffffffffffffffffffffffffffffffff16815260200190815260200160002060008273ffffffffffffffffffffffffffffffffffffffff1673ffffffffffffffffffffffffffffffffffffffff16815260200190815260200160002060006101000a81549060ff02191690555b612a70612c59565b73ffffffffffffffffffffffffffffffffffffffff168173ffffffffffffffffffffffffffffffffffffffff167f50546e66e5f44d728365dc3908c63bc5cfeeab470722c1677e3073a6ac294aa160405160405180910390a350565b600a60009054906101000a900473ffffffffffffffffffffffffffffffffffffffff1681565b612b03612afd612c59565b87612633565b612b42576040517f08c379a0000000000000000000000000000000000000000000000000000000008152600401612b3990615528565b60405180910390fd5b612bde612b4d612c59565b878787878080601f016020809104026020016040519081016040528093929190818152602001838380828437600081840152601f19601f8201169050808301925050505050505086868080601f016020809104026020016040519081016040528093929190818152602001838380828437600081840152601f19601f82011690508083019250505050505050612de7565b505050505050565b612c54612bf1612c59565b612bf9612c59565b8585858080601f016020809104026020016040519081016040528093929190818152602001838380828437600081840152601f19601f8201169050808301925050505050505060405180602001604052806000815250612de7565b505050565b600033905090565b600073ffffffffffffffffffffffffffffffffffffffff168273ffffffffffffffffffffffffffffffffffffffff161415612cd1576040517f08c379a0000000000000000000000000000000000000000000000000000000008152600401612cc890615588565b60405180910390fd5b80600960008573ffffffffffffffffffffffffffffffffffffffff1673ffffffffffffffffffffffffffffffffffffffff16815260200190815260200160002060008473ffffffffffffffffffffffffffffffffffffffff1673ffffffffffffffffffffffffffffffffffffffff168152602001908152602001600020819055508173ffffffffffffffffffffffffffffffffffffffff168373ffffffffffffffffffffffffffffffffffffffff167f8c5be1e5ebec7d5bd14f71427d1e84f3dd0314c0f7b2291e5b200ac8c7c3b92583604051612daf91906155a8565b60405180910390a3505050565b6000612dc782613b17565b9050919050565b6000818310612ddd5781612ddf565b825b905092915050565b600073ffffffffffffffffffffffffffffffffffffffff168473ffffffffffffffffffffffffffffffffffffffff161415612e57576040517f08c379a0000000000000000000000000000000000000000000000000000000008152600401612e4e90615408565b60405180910390fd5b612e66858560008686866132e1565b612ed283604051806060016040528060238152602001615a5a60239139600160008873ffffffffffffffffffffffffffffffffffffffff1673ffffffffffffffffffffffffffffffffffffffff168152602001908152602001600020546135119092919063ffffffff16565b600160008673ffffffffffffffffffffffffffffffffffffffff1673ffffffffffffffffffffffffffffffffffffffff16815260200190815260200160002081905550612f2a83600254613acd90919063ffffffff16565b6002819055508373ffffffffffffffffffffffffffffffffffffffff168573ffffffffffffffffffffffffffffffffffffffff167fa78a9be3a7b862d26933ad85fb11d80ef66b8f972d7cbba06621d583943a4098858585604051612f91939291906155c3565b60405180910390a3600073ffffffffffffffffffffffffffffffffffffffff168473ffffffffffffffffffffffffffffffffffffffff167fddf252ad1be2c89b69c2b068fc378daa952ba7f163c4a11628f55a4df523b3ef85604051612ff791906155a8565b60405180910390a35050505050565b6000808314156130195760009050613070565b600082840290508284828161302a57fe5b041461306b576040517f08c379a0000000000000000000000000000000000000000000000000000000008152600401613062906154a8565b60405180910390fd5b809150505b92915050565b60006130b883836040518060400160405280601a81526020017f536166654d6174683a206469766973696f6e206279207a65726f000000000000815250613b60565b905092915050565b600080600c60008573ffffffffffffffffffffffffffffffffffffffff1673ffffffffffffffffffffffffffffffffffffffff168152602001908152602001600020905061311b838260010154613acd90919063ffffffff16565b816001018190555060008160020180549050141561313d5760019150506132db565b60008090505b81600201805490508110156132d45761315a613f76565b82600201828154811061316957fe5b90600052602060002090600302016040518060600160405290816000820160009054906101000a900473ffffffffffffffffffffffffffffffffffffffff1673ffffffffffffffffffffffffffffffffffffffff1673ffffffffffffffffffffffffffffffffffffffff16815260200160018201548152602001600282018054600181600116156101000203166002900480601f01602080910402602001604051908101604052809291908181526020018280546001816001161561010002031660029004801561327b5780601f106132505761010080835404028352916020019161327b565b820191906000526020600020905b81548152906001019060200180831161325e57829003601f168201915b505050505081525050905060008360030154826020015187028161329b57fe5b0490506132c5308884600001518486604001516040518060200160405280600081525060006139b9565b50508080600101915050613143565b5060019150505b92915050565b60008060009054906101000a900473ffffffffffffffffffffffffffffffffffffffff1673ffffffffffffffffffffffffffffffffffffffff1663aabbb8ca877f29ddb589b1fb5fc7cf394961c1adf5f8c6454761adf795e67fe149f658abe89560001b6040518363ffffffff1660e01b8152600401613362929190615291565b60206040518083038186803b15801561337a57600080fd5b505afa15801561338e573d6000803e3d6000fd5b505050506040513d601f19601f820116820180604052506133b2919081019061438b565b9050600073ffffffffffffffffffffffffffffffffffffffff168173ffffffffffffffffffffffffffffffffffffffff161461345e578073ffffffffffffffffffffffffffffffffffffffff166375ab97828888888888886040518763ffffffff1660e01b815260040161342b969594939291906151eb565b600060405180830381600087803b15801561344557600080fd5b505af1158015613459573d6000803e3d6000fd5b505050505b50505050505050565b61347085611a5a565b61347984611a5a565b6000600c60008673ffffffffffffffffffffffffffffffffffffffff1673ffffffffffffffffffffffffffffffffffffffff1681526020019081526020016000209050600115158160040160009054906101000a900460ff16151514156134fa576134f184826001015461396490919063ffffffff16565b81600101819055505b613508878787878787613bc1565b50505050505050565b6000838311158290613559576040517f08c379a00000000000000000000000000000000000000000000000000000000081526004016135509190615386565b60405180910390fd5b5060008385039050809150509392505050565b60008060009054906101000a900473ffffffffffffffffffffffffffffffffffffffff1673ffffffffffffffffffffffffffffffffffffffff1663aabbb8ca877fb281fc8c12954d22544db45de3159a39272895b169a852b314f9cc762e44c53b60001b6040518363ffffffff1660e01b81526004016135ed929190615291565b60206040518083038186803b15801561360557600080fd5b505afa158015613619573d6000803e3d6000fd5b505050506040513d601f19601f8201168201806040525061363d919081019061438b565b9050600073ffffffffffffffffffffffffffffffffffffffff168173ffffffffffffffffffffffffffffffffffffffff16146136ec578073ffffffffffffffffffffffffffffffffffffffff166223de298989898989896040518763ffffffff1660e01b81526004016136b5969594939291906151eb565b600060405180830381600087803b1580156136cf57600080fd5b505af11580156136e3573d6000803e3d6000fd5b50505050613753565b8115613752576137118673ffffffffffffffffffffffffffffffffffffffff16613df2565b15613751576040517f08c379a0000000000000000000000000000000000000000000000000000000008152600401613748906154c8565b60405180910390fd5b5b5b5050505050505050565b600073ffffffffffffffffffffffffffffffffffffffff168473ffffffffffffffffffffffffffffffffffffffff1614156137cd576040517f08c379a00000000000000000000000000000000000000000000000000000000081526004016137c490615488565b60405180910390fd5b6137e28360025461396490919063ffffffff16565b60028190555061383a83600160008773ffffffffffffffffffffffffffffffffffffffff1673ffffffffffffffffffffffffffffffffffffffff1681526020019081526020016000205461396490919063ffffffff16565b600160008673ffffffffffffffffffffffffffffffffffffffff1673ffffffffffffffffffffffffffffffffffffffff1681526020019081526020016000208190555061388e85600086868686600161356c565b8373ffffffffffffffffffffffffffffffffffffffff168573ffffffffffffffffffffffffffffffffffffffff167f2fe5be0146f74c5bce36c0b80911af6c7d86ff27e89d5cfa61fc681327954e5d8585856040516138ef939291906155c3565b60405180910390a38373ffffffffffffffffffffffffffffffffffffffff16600073ffffffffffffffffffffffffffffffffffffffff167fddf252ad1be2c89b69c2b068fc378daa952ba7f163c4a11628f55a4df523b3ef8560405161395591906155a8565b60405180910390a35050505050565b6000808284019050838110156139af576040517f08c379a00000000000000000000000000000000000000000000000000000000081526004016139a6906153e8565b60405180910390fd5b8091505092915050565b600073ffffffffffffffffffffffffffffffffffffffff168673ffffffffffffffffffffffffffffffffffffffff161415613a29576040517f08c379a0000000000000000000000000000000000000000000000000000000008152600401613a20906153a8565b60405180910390fd5b600073ffffffffffffffffffffffffffffffffffffffff168573ffffffffffffffffffffffffffffffffffffffff161415613a99576040517f08c379a0000000000000000000000000000000000000000000000000000000008152600401613a9090615568565b60405180910390fd5b613aa78787878787876132e1565b613ab5878787878787613467565b613ac48787878787878761356c565b50505050505050565b6000613b0f83836040518060400160405280601e81526020017f536166654d6174683a207375627472616374696f6e206f766572666c6f770000815250613511565b905092915050565b6000600160008373ffffffffffffffffffffffffffffffffffffffff1673ffffffffffffffffffffffffffffffffffffffff168152602001908152602001600020549050919050565b60008083118290613ba7576040517f08c379a0000000000000000000000000000000000000000000000000000000008152600401613b9e9190615386565b60405180910390fd5b506000838581613bb357fe5b049050809150509392505050565b613c2d83604051806060016040528060278152602001615a0a60279139600160008973ffffffffffffffffffffffffffffffffffffffff1673ffffffffffffffffffffffffffffffffffffffff168152602001908152602001600020546135119092919063ffffffff16565b600160008773ffffffffffffffffffffffffffffffffffffffff1673ffffffffffffffffffffffffffffffffffffffff16815260200190815260200160002081905550613cc283600160008773ffffffffffffffffffffffffffffffffffffffff1673ffffffffffffffffffffffffffffffffffffffff1681526020019081526020016000205461396490919063ffffffff16565b600160008673ffffffffffffffffffffffffffffffffffffffff1673ffffffffffffffffffffffffffffffffffffffff168152602001908152602001600020819055508373ffffffffffffffffffffffffffffffffffffffff168573ffffffffffffffffffffffffffffffffffffffff168773ffffffffffffffffffffffffffffffffffffffff167f06b541ddaa720db2b10a4d0cdac39b8d360425fc073085fac19bc82614677987868686604051613d7d939291906155c3565b60405180910390a48373ffffffffffffffffffffffffffffffffffffffff168573ffffffffffffffffffffffffffffffffffffffff167fddf252ad1be2c89b69c2b068fc378daa952ba7f163c4a11628f55a4df523b3ef85604051613de291906155a8565b60405180910390a3505050505050565b60008060007fc5d2460186f7233c927e7db2dcc703c0e500b653ca82273b7bfad8045d85a47060001b9050833f91506000801b8214158015613e345750808214155b92505050919050565b815481835581811115613e6a57600302816003028360005260206000209182019101613e699190613fad565b5b505050565b828054600181600116156101000203166002900490600052602060002090601f016020900481019282601f10613eb057805160ff1916838001178555613ede565b82800160010185558215613ede579182015b82811115613edd578251825591602001919060010190613ec2565b5b509050613eeb919061400b565b5090565b828054600181600116156101000203166002900490600052602060002090601f016020900481019282601f10613f285780548555613f65565b82800160010185558215613f6557600052602060002091601f016020900482015b82811115613f64578254825591600101919060010190613f49565b5b509050613f72919061400b565b5090565b6040518060600160405280600073ffffffffffffffffffffffffffffffffffffffff16815260200160008152602001606081525090565b61400891905b8082111561400457600080820160006101000a81549073ffffffffffffffffffffffffffffffffffffffff02191690556001820160009055600282016000613ffb9190614030565b50600301613fb3565b5090565b90565b61402d91905b80821115614029576000816000905550600101614011565b5090565b90565b50805460018160011615610100020316600290046000825580601f106140565750614075565b601f016020900490600052602060002090810190614074919061400b565b5b50565b600081359050614087816159c4565b92915050565b60008151905061409c816159c4565b92915050565b600082601f8301126140b357600080fd5b81356140c66140c18261571f565b6156f2565b915081818352602084019350602081019050838560208402820111156140eb57600080fd5b60005b8381101561411b57816141018882614078565b8452602084019350602083019250506001810190506140ee565b5050505092915050565b600082601f83011261413657600080fd5b813561414961414482615747565b6156f2565b9150818183526020840193506020810190508360005b8381101561418f57813586016141758882614290565b84526020840193506020830192505060018101905061415f565b5050505092915050565b600082601f8301126141aa57600080fd5b81356141bd6141b88261576f565b6156f2565b915081818352602084019350602081019050838560208402820111156141e257600080fd5b60005b8381101561421257816141f88882614338565b8452602084019350602083019250506001810190506141e5565b5050505092915050565b60008135905061422b816159db565b92915050565b600081519050614240816159db565b92915050565b60008083601f84011261425857600080fd5b8235905067ffffffffffffffff81111561427157600080fd5b60208301915083600182028301111561428957600080fd5b9250929050565b600082601f8301126142a157600080fd5b81356142b46142af82615797565b6156f2565b915080825260208301602083018583830111156142d057600080fd5b6142db838284615971565b50505092915050565b600082601f8301126142f557600080fd5b8135614308614303826157c3565b6156f2565b9150808252602083016020830185838301111561432457600080fd5b61432f838284615971565b50505092915050565b600081359050614347816159f2565b92915050565b60008151905061435c816159f2565b92915050565b60006020828403121561437457600080fd5b600061438284828501614078565b91505092915050565b60006020828403121561439d57600080fd5b60006143ab8482850161408d565b91505092915050565b600080604083850312156143c757600080fd5b60006143d585828601614078565b92505060206143e685828601614078565b9150509250929050565b60008060006060848603121561440557600080fd5b600061441386828701614078565b935050602061442486828701614078565b925050604061443586828701614338565b9150509250925092565b600080600080600080600060a0888a03121561445a57600080fd5b60006144688a828b01614078565b97505060206144798a828b01614078565b965050604061448a8a828b01614338565b955050606088013567ffffffffffffffff8111156144a757600080fd5b6144b38a828b01614246565b9450945050608088013567ffffffffffffffff8111156144d257600080fd5b6144de8a828b01614246565b925092505092959891949750929550565b6000806040838503121561450257600080fd5b600061451085828601614078565b92505060206145218582860161421c565b9150509250929050565b6000806040838503121561453e57600080fd5b600061454c85828601614078565b925050602061455d85828601614338565b9150509250929050565b6000806000806060858703121561457d57600080fd5b600061458b87828801614078565b945050602061459c87828801614338565b935050604085013567ffffffffffffffff8111156145b957600080fd5b6145c587828801614246565b925092505092959194509250565b600080600080600080608087890312156145ec57600080fd5b60006145fa89828a01614078565b965050602061460b89828a01614338565b955050604087013567ffffffffffffffff81111561462857600080fd5b61463489828a01614246565b9450945050606087013567ffffffffffffffff81111561465357600080fd5b61465f89828a01614246565b92509250509295509295509295565b60008060006060848603121561468357600080fd5b600061469186828701614078565b93505060206146a286828701614338565b925050604084013567ffffffffffffffff8111156146bf57600080fd5b6146cb868287016142e4565b9150509250925092565b6000806000606084860312156146ea57600080fd5b600084013567ffffffffffffffff81111561470457600080fd5b614710868287016140a2565b935050602084013567ffffffffffffffff81111561472d57600080fd5b61473986828701614199565b925050604084013567ffffffffffffffff81111561475657600080fd5b61476286828701614125565b9150509250925092565b60006020828403121561477e57600080fd5b600061478c8482850161421c565b91505092915050565b6000602082840312156147a757600080fd5b60006147b584828501614231565b91505092915050565b6000602082840312156147d057600080fd5b60006147de84828501614338565b91505092915050565b6000602082840312156147f957600080fd5b60006148078482850161434d565b91505092915050565b6000806000806080858703121561482657600080fd5b600061483487828801614338565b945050602085013567ffffffffffffffff81111561485157600080fd5b61485d878288016140a2565b935050604085013567ffffffffffffffff81111561487a57600080fd5b61488687828801614199565b925050606085013567ffffffffffffffff8111156148a357600080fd5b6148af87828801614125565b91505092959194509250565b6000806000604084860312156148d057600080fd5b60006148de86828701614338565b935050602084013567ffffffffffffffff8111156148fb57600080fd5b61490786828701614246565b92509250509250925092565b600061491f838361493f565b60208301905092915050565b6000614937838361516e565b905092915050565b614948816158ca565b82525050565b614957816158ca565b82525050565b600061496882615824565b6149728185615875565b935061497d836157ef565b8060005b838110156149ae5781516149958882614913565b97506149a08361585b565b925050600181019050614981565b5085935050505092915050565b60006149c68261582f565b6149d08185615886565b9350836020820285016149e2856157ff565b8060005b85811015614a1e57848403895281516149ff858261492b565b9450614a0a83615868565b925060208a019950506001810190506149e6565b50829750879550505050505092915050565b614a39816158dc565b82525050565b614a48816158e8565b82525050565b6000614a5982615845565b614a6381856158a8565b9350614a73818560208601615980565b614a7c816159b3565b840191505092915050565b6000614a928261583a565b614a9c8185615897565b9350614aac818560208601615980565b614ab5816159b3565b840191505092915050565b600081546001811660008114614add5760018114614b0357614b47565b607f6002830416614aee81876158a8565b955060ff198316865260208601935050614b47565b60028204614b1181876158a8565b9550614b1c8561580f565b60005b82811015614b3e57815481890152600182019150602081019050614b1f565b80880195505050505b505092915050565b614b5881615929565b82525050565b614b678161594d565b82525050565b6000614b7882615850565b614b8281856158b9565b9350614b92818560208601615980565b614b9b816159b3565b840191505092915050565b6000614bb36022836158b9565b91507f4552433737373a2073656e642066726f6d20746865207a65726f20616464726560008301527f73730000000000000000000000000000000000000000000000000000000000006020830152604082019050919050565b6000614c19601a836158b9565b91507f444441492e6d696e743a205452414e534645525f4641494c45440000000000006000830152602082019050919050565b6000614c59601b836158b9565b91507f536166654d6174683a206164646974696f6e206f766572666c6f7700000000006000830152602082019050919050565b6000614c996022836158b9565b91507f4552433737373a206275726e2066726f6d20746865207a65726f20616464726560008301527f73730000000000000000000000000000000000000000000000000000000000006020830152604082019050919050565b6000614cff601d836158b9565b91507f444441492e70757368546f537461636b3a204e4f545f414c4c4f5745440000006000830152602082019050919050565b6000614d3f6024836158b9565b91507f4552433737373a20617574686f72697a696e672073656c66206173206f70657260008301527f61746f72000000000000000000000000000000000000000000000000000000006020830152604082019050919050565b6000614da56021836158b9565b91507f4552433737373a207265766f6b696e672073656c66206173206f70657261746f60008301527f72000000000000000000000000000000000000000000000000000000000000006020830152604082019050919050565b6000614e0b6020836158b9565b91507f4552433737373a206d696e7420746f20746865207a65726f20616464726573736000830152602082019050919050565b6000614e4b6021836158b9565b91507f536166654d6174683a206d756c7469706c69636174696f6e206f766572666c6f60008301527f77000000000000000000000000000000000000000000000000000000000000006020830152604082019050919050565b6000614eb1604d836158b9565b91507f4552433737373a20746f6b656e20726563697069656e7420636f6e747261637460008301527f20686173206e6f20696d706c656d656e74657220666f7220455243373737546f60208301527f6b656e73526563697069656e74000000000000000000000000000000000000006040830152606082019050919050565b6000614f3d6024836158b9565b91507f4552433737373a207472616e7366657220746f20746865207a65726f2061646460008301527f72657373000000000000000000000000000000000000000000000000000000006020830152604082019050919050565b6000614fa36024836158b9565b91507f444441492e72656465656d3a204d4f4e45595f4d41524b45545f4e4f545f4c4960008301527f51554944000000000000000000000000000000000000000000000000000000006020830152604082019050919050565b6000615009602c836158b9565b91507f4552433737373a2063616c6c6572206973206e6f7420616e206f70657261746f60008301527f7220666f7220686f6c64657200000000000000000000000000000000000000006020830152604082019050919050565b600061506f6026836158b9565b91507f4552433737373a207472616e736665722066726f6d20746865207a65726f206160008301527f64647265737300000000000000000000000000000000000000000000000000006020830152604082019050919050565b60006150d56020836158b9565b91507f4552433737373a2073656e6420746f20746865207a65726f20616464726573736000830152602082019050919050565b60006151156023836158b9565b91507f4552433737373a20617070726f766520746f20746865207a65726f206164647260008301527f65737300000000000000000000000000000000000000000000000000000000006020830152604082019050919050565b6000606083016000830151615186600086018261493f565b50602083015161519960208601826151be565b50604083015184820360408601526151b18282614a87565b9150508091505092915050565b6151c781615912565b82525050565b6151d681615912565b82525050565b6151e58161591c565b82525050565b600060c082019050615200600083018961494e565b61520d602083018861494e565b61521a604083018761494e565b61522760608301866151cd565b81810360808301526152398185614a4e565b905081810360a083015261524d8184614a4e565b9050979650505050505050565b600060608201905061526f600083018661494e565b61527c602083018561494e565b61528960408301846151cd565b949350505050565b60006040820190506152a6600083018561494e565b6152b36020830184614a3f565b9392505050565b60006040820190506152cf600083018561494e565b6152dc60208301846151cd565b9392505050565b600060208201905081810360008301526152fd818461495d565b905092915050565b6000604082019050818103600083015261531f81856149bb565b905061532e60208301846151cd565b9392505050565b600060208201905061534a6000830184614a30565b92915050565b60006020820190506153656000830184614b4f565b92915050565b60006020820190506153806000830184614b5e565b92915050565b600060208201905081810360008301526153a08184614b6d565b905092915050565b600060208201905081810360008301526153c181614ba6565b9050919050565b600060208201905081810360008301526153e181614c0c565b9050919050565b6000602082019050818103600083015261540181614c4c565b9050919050565b6000602082019050818103600083015261542181614c8c565b9050919050565b6000602082019050818103600083015261544181614cf2565b9050919050565b6000602082019050818103600083015261546181614d32565b9050919050565b6000602082019050818103600083015261548181614d98565b9050919050565b600060208201905081810360008301526154a181614dfe565b9050919050565b600060208201905081810360008301526154c181614e3e565b9050919050565b600060208201905081810360008301526154e181614ea4565b9050919050565b6000602082019050818103600083015261550181614f30565b9050919050565b6000602082019050818103600083015261552181614f96565b9050919050565b6000602082019050818103600083015261554181614ffc565b9050919050565b6000602082019050818103600083015261556181615062565b9050919050565b60006020820190508181036000830152615581816150c8565b9050919050565b600060208201905081810360008301526155a181615108565b9050919050565b60006020820190506155bd60008301846151cd565b92915050565b60006060820190506155d860008301866151cd565b81810360208301526155ea8185614a4e565b905081810360408301526155fe8184614a4e565b9050949350505050565b600060608201905061561d60008301866151cd565b818103602083015261562f8185614a4e565b905061563e60408301846151cd565b949350505050565b600060608201905061565b60008301866151cd565b818103602083015261566d8185614ac0565b905061567c60408301846151cd565b949350505050565b600060a08201905061569960008301886151cd565b6156a660208301876151cd565b6156b360408301866151cd565b6156c06060830185614a30565b6156cd6080830184614a30565b9695505050505050565b60006020820190506156ec60008301846151dc565b92915050565b6000604051905081810181811067ffffffffffffffff8211171561571557600080fd5b8060405250919050565b600067ffffffffffffffff82111561573657600080fd5b602082029050602081019050919050565b600067ffffffffffffffff82111561575e57600080fd5b602082029050602081019050919050565b600067ffffffffffffffff82111561578657600080fd5b602082029050602081019050919050565b600067ffffffffffffffff8211156157ae57600080fd5b601f19601f8301169050602081019050919050565b600067ffffffffffffffff8211156157da57600080fd5b601f19601f8301169050602081019050919050565b6000819050602082019050919050565b6000819050602082019050919050565b60008190508160005260206000209050919050565b600081519050919050565b600081519050919050565b600081519050919050565b600081519050919050565b600081519050919050565b6000602082019050919050565b6000602082019050919050565b600082825260208201905092915050565b600082825260208201905092915050565b600082825260208201905092915050565b600082825260208201905092915050565b600082825260208201905092915050565b60006158d5826158f2565b9050919050565b60008115159050919050565b6000819050919050565b600073ffffffffffffffffffffffffffffffffffffffff82169050919050565b6000819050919050565b600060ff82169050919050565b60006159348261593b565b9050919050565b6000615946826158f2565b9050919050565b60006159588261595f565b9050919050565b600061596a826158f2565b9050919050565b82818337600083830152505050565b60005b8381101561599e578082015181840152602081019050615983565b838111156159ad576000848401525b50505050565b6000601f19601f8301169050919050565b6159cd816158ca565b81146159d857600080fd5b50565b6159e4816158dc565b81146159ef57600080fd5b50565b6159fb81615912565b8114615a0657600080fd5b5056fe4552433737373a207472616e7366657220616d6f756e7420657863656564732062616c616e63654552433737373a207472616e7366657220616d6f756e74206578636565647320616c6c6f77616e63654552433737373a206275726e20616d6f756e7420657863656564732062616c616e6365a365627a7a72315820f49706511c4c38e2a4679cd56478c2e4fb4838635fa47f92fe7a67b659196db26c6578706572696d656e74616cf564736f6c634300050c0040",
				"opcodes": "PUSH1 0x80 PUSH1 0x40 MSTORE PUSH20 0x1820A4B7618BDE71DCE8CDC73AAB6C95905FAD24 PUSH1 0x0 DUP1 PUSH2 0x100 EXP DUP2 SLOAD DUP2 PUSH20 0xFFFFFFFFFFFFFFFFFFFFFFFFFFFFFFFFFFFFFFFF MUL NOT AND SWAP1 DUP4 PUSH20 0xFFFFFFFFFFFFFFFFFFFFFFFFFFFFFFFFFFFFFFFF AND MUL OR SWAP1 SSTORE POP CALLVALUE DUP1 ISZERO PUSH3 0x65 JUMPI PUSH1 0x0 DUP1 REVERT JUMPDEST POP PUSH1 0x40 MLOAD PUSH3 0x63BC CODESIZE SUB DUP1 PUSH3 0x63BC DUP4 CODECOPY DUP2 DUP2 ADD PUSH1 0x40 MSTORE PUSH3 0x8B SWAP2 SWAP1 DUP2 ADD SWAP1 PUSH3 0x5F2 JUMP JUMPDEST DUP3 DUP3 DUP3 DUP3 PUSH1 0x3 SWAP1 DUP1 MLOAD SWAP1 PUSH1 0x20 ADD SWAP1 PUSH3 0xA6 SWAP3 SWAP2 SWAP1 PUSH3 0x36E JUMP JUMPDEST POP DUP2 PUSH1 0x4 SWAP1 DUP1 MLOAD SWAP1 PUSH1 0x20 ADD SWAP1 PUSH3 0xBF SWAP3 SWAP2 SWAP1 PUSH3 0x36E JUMP JUMPDEST POP DUP1 PUSH1 0x5 SWAP1 DUP1 MLOAD SWAP1 PUSH1 0x20 ADD SWAP1 PUSH3 0xD8 SWAP3 SWAP2 SWAP1 PUSH3 0x3F5 JUMP JUMPDEST POP PUSH1 0x0 DUP1 SWAP1 POP JUMPDEST PUSH1 0x5 DUP1 SLOAD SWAP1 POP DUP2 LT ISZERO PUSH3 0x18B JUMPI PUSH1 0x1 PUSH1 0x6 PUSH1 0x0 PUSH1 0x5 DUP5 DUP2 SLOAD DUP2 LT PUSH3 0x101 JUMPI INVALID JUMPDEST SWAP1 PUSH1 0x0 MSTORE PUSH1 0x20 PUSH1 0x0 KECCAK256 ADD PUSH1 0x0 SWAP1 SLOAD SWAP1 PUSH2 0x100 EXP SWAP1 DIV PUSH20 0xFFFFFFFFFFFFFFFFFFFFFFFFFFFFFFFFFFFFFFFF AND PUSH20 0xFFFFFFFFFFFFFFFFFFFFFFFFFFFFFFFFFFFFFFFF AND PUSH20 0xFFFFFFFFFFFFFFFFFFFFFFFFFFFFFFFFFFFFFFFF AND DUP2 MSTORE PUSH1 0x20 ADD SWAP1 DUP2 MSTORE PUSH1 0x20 ADD PUSH1 0x0 KECCAK256 PUSH1 0x0 PUSH2 0x100 EXP DUP2 SLOAD DUP2 PUSH1 0xFF MUL NOT AND SWAP1 DUP4 ISZERO ISZERO MUL OR SWAP1 SSTORE POP DUP1 DUP1 PUSH1 0x1 ADD SWAP2 POP POP PUSH3 0xDF JUMP JUMPDEST POP PUSH1 0x0 DUP1 SWAP1 SLOAD SWAP1 PUSH2 0x100 EXP SWAP1 DIV PUSH20 0xFFFFFFFFFFFFFFFFFFFFFFFFFFFFFFFFFFFFFFFF AND PUSH20 0xFFFFFFFFFFFFFFFFFFFFFFFFFFFFFFFFFFFFFFFF AND PUSH4 0x29965A1D ADDRESS PUSH1 0x40 MLOAD PUSH3 0x1D8 SWAP1 PUSH3 0x765 JUMP JUMPDEST PUSH1 0x40 MLOAD DUP1 SWAP2 SUB SWAP1 KECCAK256 ADDRESS PUSH1 0x40 MLOAD DUP5 PUSH4 0xFFFFFFFF AND PUSH1 0xE0 SHL DUP2 MSTORE PUSH1 0x4 ADD PUSH3 0x201 SWAP4 SWAP3 SWAP2 SWAP1 PUSH3 0x793 JUMP JUMPDEST PUSH1 0x0 PUSH1 0x40 MLOAD DUP1 DUP4 SUB DUP2 PUSH1 0x0 DUP8 DUP1 EXTCODESIZE ISZERO DUP1 ISZERO PUSH3 0x21C JUMPI PUSH1 0x0 DUP1 REVERT JUMPDEST POP GAS CALL ISZERO DUP1 ISZERO PUSH3 0x231 JUMPI RETURNDATASIZE PUSH1 0x0 DUP1 RETURNDATACOPY RETURNDATASIZE PUSH1 0x0 REVERT JUMPDEST POP POP POP POP PUSH1 0x0 DUP1 SWAP1 SLOAD SWAP1 PUSH2 0x100 EXP SWAP1 DIV PUSH20 0xFFFFFFFFFFFFFFFFFFFFFFFFFFFFFFFFFFFFFFFF AND PUSH20 0xFFFFFFFFFFFFFFFFFFFFFFFFFFFFFFFFFFFFFFFF AND PUSH4 0x29965A1D ADDRESS PUSH1 0x40 MLOAD PUSH3 0x281 SWAP1 PUSH3 0x77C JUMP JUMPDEST PUSH1 0x40 MLOAD DUP1 SWAP2 SUB SWAP1 KECCAK256 ADDRESS PUSH1 0x40 MLOAD DUP5 PUSH4 0xFFFFFFFF AND PUSH1 0xE0 SHL DUP2 MSTORE PUSH1 0x4 ADD PUSH3 0x2AA SWAP4 SWAP3 SWAP2 SWAP1 PUSH3 0x793 JUMP JUMPDEST PUSH1 0x0 PUSH1 0x40 MLOAD DUP1 DUP4 SUB DUP2 PUSH1 0x0 DUP8 DUP1 EXTCODESIZE ISZERO DUP1 ISZERO PUSH3 0x2C5 JUMPI PUSH1 0x0 DUP1 REVERT JUMPDEST POP GAS CALL ISZERO DUP1 ISZERO PUSH3 0x2DA JUMPI RETURNDATASIZE PUSH1 0x0 DUP1 RETURNDATACOPY RETURNDATASIZE PUSH1 0x0 REVERT JUMPDEST POP POP POP POP POP POP POP DUP4 PUSH1 0xA PUSH1 0x0 PUSH2 0x100 EXP DUP2 SLOAD DUP2 PUSH20 0xFFFFFFFFFFFFFFFFFFFFFFFFFFFFFFFFFFFFFFFF MUL NOT AND SWAP1 DUP4 PUSH20 0xFFFFFFFFFFFFFFFFFFFFFFFFFFFFFFFFFFFFFFFF AND MUL OR SWAP1 SSTORE POP DUP5 PUSH1 0xB PUSH1 0x0 PUSH2 0x100 EXP DUP2 SLOAD DUP2 PUSH20 0xFFFFFFFFFFFFFFFFFFFFFFFFFFFFFFFFFFFFFFFF MUL NOT AND SWAP1 DUP4 PUSH20 0xFFFFFFFFFFFFFFFFFFFFFFFFFFFFFFFFFFFFFFFF AND MUL OR SWAP1 SSTORE POP POP POP POP POP POP PUSH3 0x8ED JUMP JUMPDEST DUP3 DUP1 SLOAD PUSH1 0x1 DUP2 PUSH1 0x1 AND ISZERO PUSH2 0x100 MUL SUB AND PUSH1 0x2 SWAP1 DIV SWAP1 PUSH1 0x0 MSTORE PUSH1 0x20 PUSH1 0x0 KECCAK256 SWAP1 PUSH1 0x1F ADD PUSH1 0x20 SWAP1 DIV DUP2 ADD SWAP3 DUP3 PUSH1 0x1F LT PUSH3 0x3B1 JUMPI DUP1 MLOAD PUSH1 0xFF NOT AND DUP4 DUP1 ADD OR DUP6 SSTORE PUSH3 0x3E2 JUMP JUMPDEST DUP3 DUP1 ADD PUSH1 0x1 ADD DUP6 SSTORE DUP3 ISZERO PUSH3 0x3E2 JUMPI SWAP2 DUP3 ADD JUMPDEST DUP3 DUP2 GT ISZERO PUSH3 0x3E1 JUMPI DUP3 MLOAD DUP3 SSTORE SWAP2 PUSH1 0x20 ADD SWAP2 SWAP1 PUSH1 0x1 ADD SWAP1 PUSH3 0x3C4 JUMP JUMPDEST JUMPDEST POP SWAP1 POP PUSH3 0x3F1 SWAP2 SWAP1 PUSH3 0x484 JUMP JUMPDEST POP SWAP1 JUMP JUMPDEST DUP3 DUP1 SLOAD DUP3 DUP3 SSTORE SWAP1 PUSH1 0x0 MSTORE PUSH1 0x20 PUSH1 0x0 KECCAK256 SWAP1 DUP2 ADD SWAP3 DUP3 ISZERO PUSH3 0x471 JUMPI SWAP2 PUSH1 0x20 MUL DUP3 ADD JUMPDEST DUP3 DUP2 GT ISZERO PUSH3 0x470 JUMPI DUP3 MLOAD DUP3 PUSH1 0x0 PUSH2 0x100 EXP DUP2 SLOAD DUP2 PUSH20 0xFFFFFFFFFFFFFFFFFFFFFFFFFFFFFFFFFFFFFFFF MUL NOT AND SWAP1 DUP4 PUSH20 0xFFFFFFFFFFFFFFFFFFFFFFFFFFFFFFFFFFFFFFFF AND MUL OR SWAP1 SSTORE POP SWAP2 PUSH1 0x20 ADD SWAP2 SWAP1 PUSH1 0x1 ADD SWAP1 PUSH3 0x416 JUMP JUMPDEST JUMPDEST POP SWAP1 POP PUSH3 0x480 SWAP2 SWAP1 PUSH3 0x4AC JUMP JUMPDEST POP SWAP1 JUMP JUMPDEST PUSH3 0x4A9 SWAP2 SWAP1 JUMPDEST DUP1 DUP3 GT ISZERO PUSH3 0x4A5 JUMPI PUSH1 0x0 DUP2 PUSH1 0x0 SWAP1 SSTORE POP PUSH1 0x1 ADD PUSH3 0x48B JUMP JUMPDEST POP SWAP1 JUMP JUMPDEST SWAP1 JUMP JUMPDEST PUSH3 0x4EF SWAP2 SWAP1 JUMPDEST DUP1 DUP3 GT ISZERO PUSH3 0x4EB JUMPI PUSH1 0x0 DUP2 DUP2 PUSH2 0x100 EXP DUP2 SLOAD SWAP1 PUSH20 0xFFFFFFFFFFFFFFFFFFFFFFFFFFFFFFFFFFFFFFFF MUL NOT AND SWAP1 SSTORE POP PUSH1 0x1 ADD PUSH3 0x4B3 JUMP JUMPDEST POP SWAP1 JUMP JUMPDEST SWAP1 JUMP JUMPDEST PUSH1 0x0 DUP2 MLOAD SWAP1 POP PUSH3 0x503 DUP2 PUSH3 0x8D3 JUMP JUMPDEST SWAP3 SWAP2 POP POP JUMP JUMPDEST PUSH1 0x0 DUP3 PUSH1 0x1F DUP4 ADD SLT PUSH3 0x51B JUMPI PUSH1 0x0 DUP1 REVERT JUMPDEST DUP2 MLOAD PUSH3 0x532 PUSH3 0x52C DUP3 PUSH3 0x7FE JUMP JUMPDEST PUSH3 0x7D0 JUMP JUMPDEST SWAP2 POP DUP2 DUP2 DUP4 MSTORE PUSH1 0x20 DUP5 ADD SWAP4 POP PUSH1 0x20 DUP2 ADD SWAP1 POP DUP4 DUP6 PUSH1 0x20 DUP5 MUL DUP3 ADD GT ISZERO PUSH3 0x558 JUMPI PUSH1 0x0 DUP1 REVERT JUMPDEST PUSH1 0x0 JUMPDEST DUP4 DUP2 LT ISZERO PUSH3 0x58C JUMPI DUP2 PUSH3 0x571 DUP9 DUP3 PUSH3 0x4F2 JUMP JUMPDEST DUP5 MSTORE PUSH1 0x20 DUP5 ADD SWAP4 POP PUSH1 0x20 DUP4 ADD SWAP3 POP POP PUSH1 0x1 DUP2 ADD SWAP1 POP PUSH3 0x55B JUMP JUMPDEST POP POP POP POP SWAP3 SWAP2 POP POP JUMP JUMPDEST PUSH1 0x0 DUP3 PUSH1 0x1F DUP4 ADD SLT PUSH3 0x5A8 JUMPI PUSH1 0x0 DUP1 REVERT JUMPDEST DUP2 MLOAD PUSH3 0x5BF PUSH3 0x5B9 DUP3 PUSH3 0x827 JUMP JUMPDEST PUSH3 0x7D0 JUMP JUMPDEST SWAP2 POP DUP1 DUP3 MSTORE PUSH1 0x20 DUP4 ADD PUSH1 0x20 DUP4 ADD DUP6 DUP4 DUP4 ADD GT ISZERO PUSH3 0x5DC JUMPI PUSH1 0x0 DUP1 REVERT JUMPDEST PUSH3 0x5E9 DUP4 DUP3 DUP5 PUSH3 0x89D JUMP JUMPDEST POP POP POP SWAP3 SWAP2 POP POP JUMP JUMPDEST PUSH1 0x0 DUP1 PUSH1 0x0 DUP1 PUSH1 0x0 PUSH1 0xA0 DUP7 DUP9 SUB SLT ISZERO PUSH3 0x60B JUMPI PUSH1 0x0 DUP1 REVERT JUMPDEST PUSH1 0x0 PUSH3 0x61B DUP9 DUP3 DUP10 ADD PUSH3 0x4F2 JUMP JUMPDEST SWAP6 POP POP PUSH1 0x20 PUSH3 0x62E DUP9 DUP3 DUP10 ADD PUSH3 0x4F2 JUMP JUMPDEST SWAP5 POP POP PUSH1 0x40 DUP7 ADD MLOAD PUSH8 0xFFFFFFFFFFFFFFFF DUP2 GT ISZERO PUSH3 0x64C JUMPI PUSH1 0x0 DUP1 REVERT JUMPDEST PUSH3 0x65A DUP9 DUP3 DUP10 ADD PUSH3 0x596 JUMP JUMPDEST SWAP4 POP POP PUSH1 0x60 DUP7 ADD MLOAD PUSH8 0xFFFFFFFFFFFFFFFF DUP2 GT ISZERO PUSH3 0x678 JUMPI PUSH1 0x0 DUP1 REVERT JUMPDEST PUSH3 0x686 DUP9 DUP3 DUP10 ADD PUSH3 0x596 JUMP JUMPDEST SWAP3 POP POP PUSH1 0x80 DUP7 ADD MLOAD PUSH8 0xFFFFFFFFFFFFFFFF DUP2 GT ISZERO PUSH3 0x6A4 JUMPI PUSH1 0x0 DUP1 REVERT JUMPDEST PUSH3 0x6B2 DUP9 DUP3 DUP10 ADD PUSH3 0x509 JUMP JUMPDEST SWAP2 POP POP SWAP3 SWAP6 POP SWAP3 SWAP6 SWAP1 SWAP4 POP JUMP JUMPDEST PUSH3 0x6CA DUP2 PUSH3 0x85F JUMP JUMPDEST DUP3 MSTORE POP POP JUMP JUMPDEST PUSH3 0x6DB DUP2 PUSH3 0x873 JUMP JUMPDEST DUP3 MSTORE POP POP JUMP JUMPDEST PUSH1 0x0 PUSH3 0x6F0 PUSH1 0xB DUP4 PUSH3 0x854 JUMP JUMPDEST SWAP2 POP PUSH32 0x455243373737546F6B656E000000000000000000000000000000000000000000 PUSH1 0x0 DUP4 ADD MSTORE PUSH1 0xB DUP3 ADD SWAP1 POP SWAP2 SWAP1 POP JUMP JUMPDEST PUSH1 0x0 PUSH3 0x732 PUSH1 0xA DUP4 PUSH3 0x854 JUMP JUMPDEST SWAP2 POP PUSH32 0x4552433230546F6B656E00000000000000000000000000000000000000000000 PUSH1 0x0 DUP4 ADD MSTORE PUSH1 0xA DUP3 ADD SWAP1 POP SWAP2 SWAP1 POP JUMP JUMPDEST PUSH1 0x0 PUSH3 0x772 DUP3 PUSH3 0x6E1 JUMP JUMPDEST SWAP2 POP DUP2 SWAP1 POP SWAP2 SWAP1 POP JUMP JUMPDEST PUSH1 0x0 PUSH3 0x789 DUP3 PUSH3 0x723 JUMP JUMPDEST SWAP2 POP DUP2 SWAP1 POP SWAP2 SWAP1 POP JUMP JUMPDEST PUSH1 0x0 PUSH1 0x60 DUP3 ADD SWAP1 POP PUSH3 0x7AA PUSH1 0x0 DUP4 ADD DUP7 PUSH3 0x6BF JUMP JUMPDEST PUSH3 0x7B9 PUSH1 0x20 DUP4 ADD DUP6 PUSH3 0x6D0 JUMP JUMPDEST PUSH3 0x7C8 PUSH1 0x40 DUP4 ADD DUP5 PUSH3 0x6BF JUMP JUMPDEST SWAP5 SWAP4 POP POP POP POP JUMP JUMPDEST PUSH1 0x0 PUSH1 0x40 MLOAD SWAP1 POP DUP2 DUP2 ADD DUP2 DUP2 LT PUSH8 0xFFFFFFFFFFFFFFFF DUP3 GT OR ISZERO PUSH3 0x7F4 JUMPI PUSH1 0x0 DUP1 REVERT JUMPDEST DUP1 PUSH1 0x40 MSTORE POP SWAP2 SWAP1 POP JUMP JUMPDEST PUSH1 0x0 PUSH8 0xFFFFFFFFFFFFFFFF DUP3 GT ISZERO PUSH3 0x816 JUMPI PUSH1 0x0 DUP1 REVERT JUMPDEST PUSH1 0x20 DUP3 MUL SWAP1 POP PUSH1 0x20 DUP2 ADD SWAP1 POP SWAP2 SWAP1 POP JUMP JUMPDEST PUSH1 0x0 PUSH8 0xFFFFFFFFFFFFFFFF DUP3 GT ISZERO PUSH3 0x83F JUMPI PUSH1 0x0 DUP1 REVERT JUMPDEST PUSH1 0x1F NOT PUSH1 0x1F DUP4 ADD AND SWAP1 POP PUSH1 0x20 DUP2 ADD SWAP1 POP SWAP2 SWAP1 POP JUMP JUMPDEST PUSH1 0x0 DUP2 SWAP1 POP SWAP3 SWAP2 POP POP JUMP JUMPDEST PUSH1 0x0 PUSH3 0x86C DUP3 PUSH3 0x87D JUMP JUMPDEST SWAP1 POP SWAP2 SWAP1 POP JUMP JUMPDEST PUSH1 0x0 DUP2 SWAP1 POP SWAP2 SWAP1 POP JUMP JUMPDEST PUSH1 0x0 PUSH20 0xFFFFFFFFFFFFFFFFFFFFFFFFFFFFFFFFFFFFFFFF DUP3 AND SWAP1 POP SWAP2 SWAP1 POP JUMP JUMPDEST PUSH1 0x0 JUMPDEST DUP4 DUP2 LT ISZERO PUSH3 0x8BD JUMPI DUP1 DUP3 ADD MLOAD DUP2 DUP5 ADD MSTORE PUSH1 0x20 DUP2 ADD SWAP1 POP PUSH3 0x8A0 JUMP JUMPDEST DUP4 DUP2 GT ISZERO PUSH3 0x8CD JUMPI PUSH1 0x0 DUP5 DUP5 ADD MSTORE JUMPDEST POP POP POP POP JUMP JUMPDEST PUSH3 0x8DE DUP2 PUSH3 0x85F JUMP JUMPDEST DUP2 EQ PUSH3 0x8EA JUMPI PUSH1 0x0 DUP1 REVERT JUMPDEST POP JUMP JUMPDEST PUSH2 0x5ABF DUP1 PUSH3 0x8FD PUSH1 0x0 CODECOPY PUSH1 0x0 RETURN INVALID PUSH1 0x80 PUSH1 0x40 MSTORE CALLVALUE DUP1 ISZERO PUSH2 0x10 JUMPI PUSH1 0x0 DUP1 REVERT JUMPDEST POP PUSH1 0x4 CALLDATASIZE LT PUSH2 0x23D JUMPI PUSH1 0x0 CALLDATALOAD PUSH1 0xE0 SHR DUP1 PUSH4 0x8314B4E3 GT PUSH2 0x13B JUMPI DUP1 PUSH4 0xC35450EC GT PUSH2 0xB8 JUMPI DUP1 PUSH4 0xDD62ED3E GT PUSH2 0x7C JUMPI DUP1 PUSH4 0xDD62ED3E EQ PUSH2 0x701 JUMPI DUP1 PUSH4 0xFAD8B32A EQ PUSH2 0x731 JUMPI DUP1 PUSH4 0xFC0C546A EQ PUSH2 0x74D JUMPI DUP1 PUSH4 0xFC673C4F EQ PUSH2 0x76B JUMPI DUP1 PUSH4 0xFE9D9303 EQ PUSH2 0x787 JUMPI PUSH2 0x23D JUMP JUMPDEST DUP1 PUSH4 0xC35450EC EQ PUSH2 0x636 JUMPI DUP1 PUSH4 0xD240A008 EQ PUSH2 0x652 JUMPI DUP1 PUSH4 0xD3D38193 EQ PUSH2 0x683 JUMPI DUP1 PUSH4 0xD6D75F51 EQ PUSH2 0x6B3 JUMPI DUP1 PUSH4 0xD95B6371 EQ PUSH2 0x6D1 JUMPI PUSH2 0x23D JUMP JUMPDEST DUP1 PUSH4 0x959B8C3F GT PUSH2 0xFF JUMPI DUP1 PUSH4 0x959B8C3F EQ PUSH2 0x594 JUMPI DUP1 PUSH4 0x95D89B41 EQ PUSH2 0x5B0 JUMPI DUP1 PUSH4 0x9BD9BBC6 EQ PUSH2 0x5CE JUMPI DUP1 PUSH4 0x9E729549 EQ PUSH2 0x5EA JUMPI DUP1 PUSH4 0xA9059CBB EQ PUSH2 0x606 JUMPI PUSH2 0x23D JUMP JUMPDEST DUP1 PUSH4 0x8314B4E3 EQ PUSH2 0x4E0 JUMPI DUP1 PUSH4 0x88D742C2 EQ PUSH2 0x510 JUMPI DUP1 PUSH4 0x8CC87228 EQ PUSH2 0x52C JUMPI DUP1 PUSH4 0x920C0607 EQ PUSH2 0x548 JUMPI DUP1 PUSH4 0x925067F4 EQ PUSH2 0x578 JUMPI PUSH2 0x23D JUMP JUMPDEST DUP1 PUSH4 0x2F8035B4 GT PUSH2 0x1C9 JUMPI DUP1 PUSH4 0x5B38539E GT PUSH2 0x18D JUMPI DUP1 PUSH4 0x5B38539E EQ PUSH2 0x414 JUMPI DUP1 PUSH4 0x5FFD9F29 EQ PUSH2 0x444 JUMPI DUP1 PUSH4 0x62AD1B83 EQ PUSH2 0x460 JUMPI DUP1 PUSH4 0x70A08231 EQ PUSH2 0x47C JUMPI DUP1 PUSH4 0x7A26B414 EQ PUSH2 0x4AC JUMPI PUSH2 0x23D JUMP JUMPDEST DUP1 PUSH4 0x2F8035B4 EQ PUSH2 0x370 JUMPI DUP1 PUSH4 0x313CE567 EQ PUSH2 0x3A0 JUMPI DUP1 PUSH4 0x37E63D07 EQ PUSH2 0x3BE JUMPI DUP1 PUSH4 0x40C10F19 EQ PUSH2 0x3DA JUMPI DUP1 PUSH4 0x556F0DC7 EQ PUSH2 0x3F6 JUMPI PUSH2 0x23D JUMP JUMPDEST DUP1 PUSH4 0x18160DDD GT PUSH2 0x210 JUMPI DUP1 PUSH4 0x18160DDD EQ PUSH2 0x2CC JUMPI DUP1 PUSH4 0x1AB113B9 EQ PUSH2 0x2EA JUMPI DUP1 PUSH4 0x1E9A6950 EQ PUSH2 0x2F4 JUMPI DUP1 PUSH4 0x21EDF266 EQ PUSH2 0x324 JUMPI DUP1 PUSH4 0x23B872DD EQ PUSH2 0x340 JUMPI PUSH2 0x23D JUMP JUMPDEST DUP1 PUSH4 0x6E48538 EQ PUSH2 0x242 JUMPI DUP1 PUSH4 0x6FDDE03 EQ PUSH2 0x260 JUMPI DUP1 PUSH4 0x95EA7B3 EQ PUSH2 0x27E JUMPI DUP1 PUSH4 0x9EC6B6B EQ PUSH2 0x2AE JUMPI JUMPDEST PUSH1 0x0 DUP1 REVERT JUMPDEST PUSH2 0x24A PUSH2 0x7A3 JUMP JUMPDEST PUSH1 0x40 MLOAD PUSH2 0x257 SWAP2 SWAP1 PUSH2 0x52E3 JUMP JUMPDEST PUSH1 0x40 MLOAD DUP1 SWAP2 SUB SWAP1 RETURN JUMPDEST PUSH2 0x268 PUSH2 0x831 JUMP JUMPDEST PUSH1 0x40 MLOAD PUSH2 0x275 SWAP2 SWAP1 PUSH2 0x5386 JUMP JUMPDEST PUSH1 0x40 MLOAD DUP1 SWAP2 SUB SWAP1 RETURN JUMPDEST PUSH2 0x298 PUSH1 0x4 DUP1 CALLDATASIZE SUB PUSH2 0x293 SWAP2 SWAP1 DUP2 ADD SWAP1 PUSH2 0x452B JUMP JUMPDEST PUSH2 0x8D3 JUMP JUMPDEST PUSH1 0x40 MLOAD PUSH2 0x2A5 SWAP2 SWAP1 PUSH2 0x5335 JUMP JUMPDEST PUSH1 0x40 MLOAD DUP1 SWAP2 SUB SWAP1 RETURN JUMPDEST PUSH2 0x2B6 PUSH2 0x8F6 JUMP JUMPDEST PUSH1 0x40 MLOAD PUSH2 0x2C3 SWAP2 SWAP1 PUSH2 0x55A8 JUMP JUMPDEST PUSH1 0x40 MLOAD DUP1 SWAP2 SUB SWAP1 RETURN JUMPDEST PUSH2 0x2D4 PUSH2 0x99D JUMP JUMPDEST PUSH1 0x40 MLOAD PUSH2 0x2E1 SWAP2 SWAP1 PUSH2 0x55A8 JUMP JUMPDEST PUSH1 0x40 MLOAD DUP1 SWAP2 SUB SWAP1 RETURN JUMPDEST PUSH2 0x2F2 PUSH2 0x9A7 JUMP JUMPDEST STOP JUMPDEST PUSH2 0x30E PUSH1 0x4 DUP1 CALLDATASIZE SUB PUSH2 0x309 SWAP2 SWAP1 DUP2 ADD SWAP1 PUSH2 0x452B JUMP JUMPDEST PUSH2 0xA10 JUMP JUMPDEST PUSH1 0x40 MLOAD PUSH2 0x31B SWAP2 SWAP1 PUSH2 0x55A8 JUMP JUMPDEST PUSH1 0x40 MLOAD DUP1 SWAP2 SUB SWAP1 RETURN JUMPDEST PUSH2 0x33E PUSH1 0x4 DUP1 CALLDATASIZE SUB PUSH2 0x339 SWAP2 SWAP1 DUP2 ADD SWAP1 PUSH2 0x4362 JUMP JUMPDEST PUSH2 0xCBC JUMP JUMPDEST STOP JUMPDEST PUSH2 0x35A PUSH1 0x4 DUP1 CALLDATASIZE SUB PUSH2 0x355 SWAP2 SWAP1 DUP2 ADD SWAP1 PUSH2 0x43F0 JUMP JUMPDEST PUSH2 0xD6D JUMP JUMPDEST PUSH1 0x40 MLOAD PUSH2 0x367 SWAP2 SWAP1 PUSH2 0x5335 JUMP JUMPDEST PUSH1 0x40 MLOAD DUP1 SWAP2 SUB SWAP1 RETURN JUMPDEST PUSH2 0x38A PUSH1 0x4 DUP1 CALLDATASIZE SUB PUSH2 0x385 SWAP2 SWAP1 DUP2 ADD SWAP1 PUSH2 0x4362 JUMP JUMPDEST PUSH2 0xF9F JUMP JUMPDEST PUSH1 0x40 MLOAD PUSH2 0x397 SWAP2 SWAP1 PUSH2 0x55A8 JUMP JUMPDEST PUSH1 0x40 MLOAD DUP1 SWAP2 SUB SWAP1 RETURN JUMPDEST PUSH2 0x3A8 PUSH2 0xFEB JUMP JUMPDEST PUSH1 0x40 MLOAD PUSH2 0x3B5 SWAP2 SWAP1 PUSH2 0x56D7 JUMP JUMPDEST PUSH1 0x40 MLOAD DUP1 SWAP2 SUB SWAP1 RETURN JUMPDEST PUSH2 0x3D8 PUSH1 0x4 DUP1 CALLDATASIZE SUB PUSH2 0x3D3 SWAP2 SWAP1 DUP2 ADD SWAP1 PUSH2 0x44EF JUMP JUMPDEST PUSH2 0xFF4 JUMP JUMPDEST STOP JUMPDEST PUSH2 0x3F4 PUSH1 0x4 DUP1 CALLDATASIZE SUB PUSH2 0x3EF SWAP2 SWAP1 DUP2 ADD SWAP1 PUSH2 0x452B JUMP JUMPDEST PUSH2 0x1093 JUMP JUMPDEST STOP JUMPDEST PUSH2 0x3FE PUSH2 0x13B7 JUMP JUMPDEST PUSH1 0x40 MLOAD PUSH2 0x40B SWAP2 SWAP1 PUSH2 0x55A8 JUMP JUMPDEST PUSH1 0x40 MLOAD DUP1 SWAP2 SUB SWAP1 RETURN JUMPDEST PUSH2 0x42E PUSH1 0x4 DUP1 CALLDATASIZE SUB PUSH2 0x429 SWAP2 SWAP1 DUP2 ADD SWAP1 PUSH2 0x466E JUMP JUMPDEST PUSH2 0x13C0 JUMP JUMPDEST PUSH1 0x40 MLOAD PUSH2 0x43B SWAP2 SWAP1 PUSH2 0x5335 JUMP JUMPDEST PUSH1 0x40 MLOAD DUP1 SWAP2 SUB SWAP1 RETURN JUMPDEST PUSH2 0x45E PUSH1 0x4 DUP1 CALLDATASIZE SUB PUSH2 0x459 SWAP2 SWAP1 DUP2 ADD SWAP1 PUSH2 0x476C JUMP JUMPDEST PUSH2 0x157D JUMP JUMPDEST STOP JUMPDEST PUSH2 0x47A PUSH1 0x4 DUP1 CALLDATASIZE SUB PUSH2 0x475 SWAP2 SWAP1 DUP2 ADD SWAP1 PUSH2 0x443F JUMP JUMPDEST PUSH2 0x15E2 JUMP JUMPDEST STOP JUMPDEST PUSH2 0x496 PUSH1 0x4 DUP1 CALLDATASIZE SUB PUSH2 0x491 SWAP2 SWAP1 DUP2 ADD SWAP1 PUSH2 0x4362 JUMP JUMPDEST PUSH2 0x16DA JUMP JUMPDEST PUSH1 0x40 MLOAD PUSH2 0x4A3 SWAP2 SWAP1 PUSH2 0x55A8 JUMP JUMPDEST PUSH1 0x40 MLOAD DUP1 SWAP2 SUB SWAP1 RETURN JUMPDEST PUSH2 0x4C6 PUSH1 0x4 DUP1 CALLDATASIZE SUB PUSH2 0x4C1 SWAP2 SWAP1 DUP2 ADD SWAP1 PUSH2 0x4362 JUMP JUMPDEST PUSH2 0x1798 JUMP JUMPDEST PUSH1 0x40 MLOAD PUSH2 0x4D7 SWAP6 SWAP5 SWAP4 SWAP3 SWAP2 SWAP1 PUSH2 0x5684 JUMP JUMPDEST PUSH1 0x40 MLOAD DUP1 SWAP2 SUB SWAP1 RETURN JUMPDEST PUSH2 0x4FA PUSH1 0x4 DUP1 CALLDATASIZE SUB PUSH2 0x4F5 SWAP2 SWAP1 DUP2 ADD SWAP1 PUSH2 0x47BE JUMP JUMPDEST PUSH2 0x17E8 JUMP JUMPDEST PUSH1 0x40 MLOAD PUSH2 0x507 SWAP2 SWAP1 PUSH2 0x5335 JUMP JUMPDEST PUSH1 0x40 MLOAD DUP1 SWAP2 SUB SWAP1 RETURN JUMPDEST PUSH2 0x52A PUSH1 0x4 DUP1 CALLDATASIZE SUB PUSH2 0x525 SWAP2 SWAP1 DUP2 ADD SWAP1 PUSH2 0x4362 JUMP JUMPDEST PUSH2 0x1A5A JUMP JUMPDEST STOP JUMPDEST PUSH2 0x546 PUSH1 0x4 DUP1 CALLDATASIZE SUB PUSH2 0x541 SWAP2 SWAP1 DUP2 ADD SWAP1 PUSH2 0x452B JUMP JUMPDEST PUSH2 0x1C49 JUMP JUMPDEST STOP JUMPDEST PUSH2 0x562 PUSH1 0x4 DUP1 CALLDATASIZE SUB PUSH2 0x55D SWAP2 SWAP1 DUP2 ADD SWAP1 PUSH2 0x4362 JUMP JUMPDEST PUSH2 0x1DA7 JUMP JUMPDEST PUSH1 0x40 MLOAD PUSH2 0x56F SWAP2 SWAP1 PUSH2 0x55A8 JUMP JUMPDEST PUSH1 0x40 MLOAD DUP1 SWAP2 SUB SWAP1 RETURN JUMPDEST PUSH2 0x592 PUSH1 0x4 DUP1 CALLDATASIZE SUB PUSH2 0x58D SWAP2 SWAP1 DUP2 ADD SWAP1 PUSH2 0x476C JUMP JUMPDEST PUSH2 0x1ECD JUMP JUMPDEST STOP JUMPDEST PUSH2 0x5AE PUSH1 0x4 DUP1 CALLDATASIZE SUB PUSH2 0x5A9 SWAP2 SWAP1 DUP2 ADD SWAP1 PUSH2 0x4362 JUMP JUMPDEST PUSH2 0x1F31 JUMP JUMPDEST STOP JUMPDEST PUSH2 0x5B8 PUSH2 0x2192 JUMP JUMPDEST PUSH1 0x40 MLOAD PUSH2 0x5C5 SWAP2 SWAP1 PUSH2 0x5386 JUMP JUMPDEST PUSH1 0x40 MLOAD DUP1 SWAP2 SUB SWAP1 RETURN JUMPDEST PUSH2 0x5E8 PUSH1 0x4 DUP1 CALLDATASIZE SUB PUSH2 0x5E3 SWAP2 SWAP1 DUP2 ADD SWAP1 PUSH2 0x4567 JUMP JUMPDEST PUSH2 0x2234 JUMP JUMPDEST STOP JUMPDEST PUSH2 0x604 PUSH1 0x4 DUP1 CALLDATASIZE SUB PUSH2 0x5FF SWAP2 SWAP1 DUP2 ADD SWAP1 PUSH2 0x46D5 JUMP JUMPDEST PUSH2 0x22AB JUMP JUMPDEST STOP JUMPDEST PUSH2 0x620 PUSH1 0x4 DUP1 CALLDATASIZE SUB PUSH2 0x61B SWAP2 SWAP1 DUP2 ADD SWAP1 PUSH2 0x452B JUMP JUMPDEST PUSH2 0x231A JUMP JUMPDEST PUSH1 0x40 MLOAD PUSH2 0x62D SWAP2 SWAP1 PUSH2 0x5335 JUMP JUMPDEST PUSH1 0x40 MLOAD DUP1 SWAP2 SUB SWAP1 RETURN JUMPDEST PUSH2 0x650 PUSH1 0x4 DUP1 CALLDATASIZE SUB PUSH2 0x64B SWAP2 SWAP1 DUP2 ADD SWAP1 PUSH2 0x4810 JUMP JUMPDEST PUSH2 0x2428 JUMP JUMPDEST STOP JUMPDEST PUSH2 0x66C PUSH1 0x4 DUP1 CALLDATASIZE SUB PUSH2 0x667 SWAP2 SWAP1 DUP2 ADD SWAP1 PUSH2 0x4362 JUMP JUMPDEST PUSH2 0x244A JUMP JUMPDEST PUSH1 0x40 MLOAD PUSH2 0x67A SWAP3 SWAP2 SWAP1 PUSH2 0x5305 JUMP JUMPDEST PUSH1 0x40 MLOAD DUP1 SWAP2 SUB SWAP1 RETURN JUMPDEST PUSH2 0x69D PUSH1 0x4 DUP1 CALLDATASIZE SUB PUSH2 0x698 SWAP2 SWAP1 DUP2 ADD SWAP1 PUSH2 0x4362 JUMP JUMPDEST PUSH2 0x25FB JUMP JUMPDEST PUSH1 0x40 MLOAD PUSH2 0x6AA SWAP2 SWAP1 PUSH2 0x55A8 JUMP JUMPDEST PUSH1 0x40 MLOAD DUP1 SWAP2 SUB SWAP1 RETURN JUMPDEST PUSH2 0x6BB PUSH2 0x260D JUMP JUMPDEST PUSH1 0x40 MLOAD PUSH2 0x6C8 SWAP2 SWAP1 PUSH2 0x536B JUMP JUMPDEST PUSH1 0x40 MLOAD DUP1 SWAP2 SUB SWAP1 RETURN JUMPDEST PUSH2 0x6EB PUSH1 0x4 DUP1 CALLDATASIZE SUB PUSH2 0x6E6 SWAP2 SWAP1 DUP2 ADD SWAP1 PUSH2 0x43B4 JUMP JUMPDEST PUSH2 0x2633 JUMP JUMPDEST PUSH1 0x40 MLOAD PUSH2 0x6F8 SWAP2 SWAP1 PUSH2 0x5335 JUMP JUMPDEST PUSH1 0x40 MLOAD DUP1 SWAP2 SUB SWAP1 RETURN JUMPDEST PUSH2 0x71B PUSH1 0x4 DUP1 CALLDATASIZE SUB PUSH2 0x716 SWAP2 SWAP1 DUP2 ADD SWAP1 PUSH2 0x43B4 JUMP JUMPDEST PUSH2 0x27E4 JUMP JUMPDEST PUSH1 0x40 MLOAD PUSH2 0x728 SWAP2 SWAP1 PUSH2 0x55A8 JUMP JUMPDEST PUSH1 0x40 MLOAD DUP1 SWAP2 SUB SWAP1 RETURN JUMPDEST PUSH2 0x74B PUSH1 0x4 DUP1 CALLDATASIZE SUB PUSH2 0x746 SWAP2 SWAP1 DUP2 ADD SWAP1 PUSH2 0x4362 JUMP JUMPDEST PUSH2 0x286B JUMP JUMPDEST STOP JUMPDEST PUSH2 0x755 PUSH2 0x2ACC JUMP JUMPDEST PUSH1 0x40 MLOAD PUSH2 0x762 SWAP2 SWAP1 PUSH2 0x5350 JUMP JUMPDEST PUSH1 0x40 MLOAD DUP1 SWAP2 SUB SWAP1 RETURN JUMPDEST PUSH2 0x785 PUSH1 0x4 DUP1 CALLDATASIZE SUB PUSH2 0x780 SWAP2 SWAP1 DUP2 ADD SWAP1 PUSH2 0x45D3 JUMP JUMPDEST PUSH2 0x2AF2 JUMP JUMPDEST STOP JUMPDEST PUSH2 0x7A1 PUSH1 0x4 DUP1 CALLDATASIZE SUB PUSH2 0x79C SWAP2 SWAP1 DUP2 ADD SWAP1 PUSH2 0x48BB JUMP JUMPDEST PUSH2 0x2BE6 JUMP JUMPDEST STOP JUMPDEST PUSH1 0x60 PUSH1 0x5 DUP1 SLOAD DUP1 PUSH1 0x20 MUL PUSH1 0x20 ADD PUSH1 0x40 MLOAD SWAP1 DUP2 ADD PUSH1 0x40 MSTORE DUP1 SWAP3 SWAP2 SWAP1 DUP2 DUP2 MSTORE PUSH1 0x20 ADD DUP3 DUP1 SLOAD DUP1 ISZERO PUSH2 0x827 JUMPI PUSH1 0x20 MUL DUP3 ADD SWAP2 SWAP1 PUSH1 0x0 MSTORE PUSH1 0x20 PUSH1 0x0 KECCAK256 SWAP1 JUMPDEST DUP2 PUSH1 0x0 SWAP1 SLOAD SWAP1 PUSH2 0x100 EXP SWAP1 DIV PUSH20 0xFFFFFFFFFFFFFFFFFFFFFFFFFFFFFFFFFFFFFFFF AND PUSH20 0xFFFFFFFFFFFFFFFFFFFFFFFFFFFFFFFFFFFFFFFF AND DUP2 MSTORE PUSH1 0x20 ADD SWAP1 PUSH1 0x1 ADD SWAP1 DUP1 DUP4 GT PUSH2 0x7DD JUMPI JUMPDEST POP POP POP POP POP SWAP1 POP SWAP1 JUMP JUMPDEST PUSH1 0x60 PUSH1 0x3 DUP1 SLOAD PUSH1 0x1 DUP2 PUSH1 0x1 AND ISZERO PUSH2 0x100 MUL SUB AND PUSH1 0x2 SWAP1 DIV DUP1 PUSH1 0x1F ADD PUSH1 0x20 DUP1 SWAP2 DIV MUL PUSH1 0x20 ADD PUSH1 0x40 MLOAD SWAP1 DUP2 ADD PUSH1 0x40 MSTORE DUP1 SWAP3 SWAP2 SWAP1 DUP2 DUP2 MSTORE PUSH1 0x20 ADD DUP3 DUP1 SLOAD PUSH1 0x1 DUP2 PUSH1 0x1 AND ISZERO PUSH2 0x100 MUL SUB AND PUSH1 0x2 SWAP1 DIV DUP1 ISZERO PUSH2 0x8C9 JUMPI DUP1 PUSH1 0x1F LT PUSH2 0x89E JUMPI PUSH2 0x100 DUP1 DUP4 SLOAD DIV MUL DUP4 MSTORE SWAP2 PUSH1 0x20 ADD SWAP2 PUSH2 0x8C9 JUMP JUMPDEST DUP3 ADD SWAP2 SWAP1 PUSH1 0x0 MSTORE PUSH1 0x20 PUSH1 0x0 KECCAK256 SWAP1 JUMPDEST DUP2 SLOAD DUP2 MSTORE SWAP1 PUSH1 0x1 ADD SWAP1 PUSH1 0x20 ADD DUP1 DUP4 GT PUSH2 0x8AC JUMPI DUP3 SWAP1 SUB PUSH1 0x1F AND DUP3 ADD SWAP2 JUMPDEST POP POP POP POP POP SWAP1 POP SWAP1 JUMP JUMPDEST PUSH1 0x0 DUP1 PUSH2 0x8DE PUSH2 0x2C59 JUMP JUMPDEST SWAP1 POP PUSH2 0x8EB DUP2 DUP6 DUP6 PUSH2 0x2C61 JUMP JUMPDEST PUSH1 0x1 SWAP2 POP POP SWAP3 SWAP2 POP POP JUMP JUMPDEST PUSH1 0x0 PUSH1 0xB PUSH1 0x0 SWAP1 SLOAD SWAP1 PUSH2 0x100 EXP SWAP1 DIV PUSH20 0xFFFFFFFFFFFFFFFFFFFFFFFFFFFFFFFFFFFFFFFF AND PUSH20 0xFFFFFFFFFFFFFFFFFFFFFFFFFFFFFFFFFFFFFFFF AND PUSH4 0x9EC6B6B PUSH1 0x40 MLOAD DUP2 PUSH4 0xFFFFFFFF AND PUSH1 0xE0 SHL DUP2 MSTORE PUSH1 0x4 ADD PUSH1 0x20 PUSH1 0x40 MLOAD DUP1 DUP4 SUB DUP2 DUP7 DUP1 EXTCODESIZE ISZERO DUP1 ISZERO PUSH2 0x960 JUMPI PUSH1 0x0 DUP1 REVERT JUMPDEST POP GAS STATICCALL ISZERO DUP1 ISZERO PUSH2 0x974 JUMPI RETURNDATASIZE PUSH1 0x0 DUP1 RETURNDATACOPY RETURNDATASIZE PUSH1 0x0 REVERT JUMPDEST POP POP POP POP PUSH1 0x40 MLOAD RETURNDATASIZE PUSH1 0x1F NOT PUSH1 0x1F DUP3 ADD AND DUP3 ADD DUP1 PUSH1 0x40 MSTORE POP PUSH2 0x998 SWAP2 SWAP1 DUP2 ADD SWAP1 PUSH2 0x47E7 JUMP JUMPDEST SWAP1 POP SWAP1 JUMP JUMPDEST PUSH1 0x0 PUSH1 0x2 SLOAD SWAP1 POP SWAP1 JUMP JUMPDEST PUSH1 0x0 PUSH1 0xC PUSH1 0x0 PUSH2 0x9B5 PUSH2 0x2C59 JUMP JUMPDEST PUSH20 0xFFFFFFFFFFFFFFFFFFFFFFFFFFFFFFFFFFFFFFFF AND PUSH20 0xFFFFFFFFFFFFFFFFFFFFFFFFFFFFFFFFFFFFFFFF AND DUP2 MSTORE PUSH1 0x20 ADD SWAP1 DUP2 MSTORE PUSH1 0x20 ADD PUSH1 0x0 KECCAK256 SWAP1 POP PUSH1 0x0 DUP2 PUSH1 0x2 ADD DUP2 PUSH2 0xA02 SWAP2 SWAP1 PUSH2 0x3E3D JUMP JUMPDEST POP PUSH1 0x0 DUP2 PUSH1 0x3 ADD DUP2 SWAP1 SSTORE POP POP JUMP JUMPDEST PUSH1 0x0 PUSH2 0xA22 PUSH2 0xA1D PUSH2 0x2C59 JUMP JUMPDEST PUSH2 0x1A5A JUMP JUMPDEST PUSH1 0x0 PUSH2 0xA46 PUSH2 0xA37 PUSH2 0xA32 PUSH2 0x2C59 JUMP JUMPDEST PUSH2 0x2DBC JUMP JUMPDEST DUP5 PUSH2 0x2DCE SWAP1 SWAP2 SWAP1 PUSH4 0xFFFFFFFF AND JUMP JUMPDEST SWAP1 POP PUSH2 0xA81 PUSH2 0xA53 PUSH2 0x2C59 JUMP JUMPDEST PUSH2 0xA5B PUSH2 0x2C59 JUMP JUMPDEST DUP4 PUSH1 0x40 MLOAD DUP1 PUSH1 0x20 ADD PUSH1 0x40 MSTORE DUP1 PUSH1 0x0 DUP2 MSTORE POP PUSH1 0x40 MLOAD DUP1 PUSH1 0x20 ADD PUSH1 0x40 MSTORE DUP1 PUSH1 0x0 DUP2 MSTORE POP PUSH2 0x2DE7 JUMP JUMPDEST PUSH1 0x0 PUSH2 0xB4F PUSH1 0xB PUSH1 0x0 SWAP1 SLOAD SWAP1 PUSH2 0x100 EXP SWAP1 DIV PUSH20 0xFFFFFFFFFFFFFFFFFFFFFFFFFFFFFFFFFFFFFFFF AND PUSH20 0xFFFFFFFFFFFFFFFFFFFFFFFFFFFFFFFFFFFFFFFF AND PUSH4 0x7FF9B596 PUSH1 0x40 MLOAD DUP2 PUSH4 0xFFFFFFFF AND PUSH1 0xE0 SHL DUP2 MSTORE PUSH1 0x4 ADD PUSH1 0x20 PUSH1 0x40 MLOAD DUP1 DUP4 SUB DUP2 DUP7 DUP1 EXTCODESIZE ISZERO DUP1 ISZERO PUSH2 0xAEE JUMPI PUSH1 0x0 DUP1 REVERT JUMPDEST POP GAS STATICCALL ISZERO DUP1 ISZERO PUSH2 0xB02 JUMPI RETURNDATASIZE PUSH1 0x0 DUP1 RETURNDATACOPY RETURNDATASIZE PUSH1 0x0 REVERT JUMPDEST POP POP POP POP PUSH1 0x40 MLOAD RETURNDATASIZE PUSH1 0x1F NOT PUSH1 0x1F DUP3 ADD AND DUP3 ADD DUP1 PUSH1 0x40 MSTORE POP PUSH2 0xB26 SWAP2 SWAP1 DUP2 ADD SWAP1 PUSH2 0x47E7 JUMP JUMPDEST PUSH2 0xB41 PUSH8 0xDE0B6B3A7640000 DUP6 PUSH2 0x3006 SWAP1 SWAP2 SWAP1 PUSH4 0xFFFFFFFF AND JUMP JUMPDEST PUSH2 0x3076 SWAP1 SWAP2 SWAP1 PUSH4 0xFFFFFFFF AND JUMP JUMPDEST SWAP1 POP PUSH1 0x1 DUP3 SUB PUSH1 0xB PUSH1 0x0 SWAP1 SLOAD SWAP1 PUSH2 0x100 EXP SWAP1 DIV PUSH20 0xFFFFFFFFFFFFFFFFFFFFFFFFFFFFFFFFFFFFFFFF AND PUSH20 0xFFFFFFFFFFFFFFFFFFFFFFFFFFFFFFFFFFFFFFFF AND PUSH4 0x9DC29FAC DUP8 DUP5 PUSH1 0x40 MLOAD DUP4 PUSH4 0xFFFFFFFF AND PUSH1 0xE0 SHL DUP2 MSTORE PUSH1 0x4 ADD PUSH2 0xBB2 SWAP3 SWAP2 SWAP1 PUSH2 0x52BA JUMP JUMPDEST PUSH1 0x20 PUSH1 0x40 MLOAD DUP1 DUP4 SUB DUP2 PUSH1 0x0 DUP8 DUP1 EXTCODESIZE ISZERO DUP1 ISZERO PUSH2 0xBCC JUMPI PUSH1 0x0 DUP1 REVERT JUMPDEST POP GAS CALL ISZERO DUP1 ISZERO PUSH2 0xBE0 JUMPI RETURNDATASIZE PUSH1 0x0 DUP1 RETURNDATACOPY RETURNDATASIZE PUSH1 0x0 REVERT JUMPDEST POP POP POP POP PUSH1 0x40 MLOAD RETURNDATASIZE PUSH1 0x1F NOT PUSH1 0x1F DUP3 ADD AND DUP3 ADD DUP1 PUSH1 0x40 MSTORE POP PUSH2 0xC04 SWAP2 SWAP1 DUP2 ADD SWAP1 PUSH2 0x47E7 JUMP JUMPDEST LT ISZERO PUSH2 0xC45 JUMPI PUSH1 0x40 MLOAD PUSH32 0x8C379A000000000000000000000000000000000000000000000000000000000 DUP2 MSTORE PUSH1 0x4 ADD PUSH2 0xC3C SWAP1 PUSH2 0x5508 JUMP JUMPDEST PUSH1 0x40 MLOAD DUP1 SWAP2 SUB SWAP1 REVERT JUMPDEST PUSH2 0xC4D PUSH2 0x2C59 JUMP JUMPDEST PUSH20 0xFFFFFFFFFFFFFFFFFFFFFFFFFFFFFFFFFFFFFFFF AND DUP6 PUSH20 0xFFFFFFFFFFFFFFFFFFFFFFFFFFFFFFFFFFFFFFFF AND PUSH32 0x98E2EF558343683D81148487F9E3ADC59AB8B7F4038427844DFA588F409F3DDC DUP5 PUSH1 0x40 MLOAD PUSH2 0xCA9 SWAP2 SWAP1 PUSH2 0x55A8 JUMP JUMPDEST PUSH1 0x40 MLOAD DUP1 SWAP2 SUB SWAP1 LOG3 DUP2 SWAP3 POP POP POP SWAP3 SWAP2 POP POP JUMP JUMPDEST PUSH2 0xCC5 DUP2 PUSH2 0x1A5A JUMP JUMPDEST PUSH1 0x0 PUSH1 0xC PUSH1 0x0 DUP4 PUSH20 0xFFFFFFFFFFFFFFFFFFFFFFFFFFFFFFFFFFFFFFFF AND PUSH20 0xFFFFFFFFFFFFFFFFFFFFFFFFFFFFFFFFFFFFFFFF AND DUP2 MSTORE PUSH1 0x20 ADD SWAP1 DUP2 MSTORE PUSH1 0x20 ADD PUSH1 0x0 KECCAK256 SWAP1 POP DUP2 PUSH20 0xFFFFFFFFFFFFFFFFFFFFFFFFFFFFFFFFFFFFFFFF AND PUSH32 0x85438FA7C52FD8FC942F2DDEE2033AA0EFD3B75027316B7F1ECBE7738333807E DUP3 PUSH1 0x1 ADD SLOAD PUSH1 0x40 MLOAD PUSH2 0xD52 SWAP2 SWAP1 PUSH2 0x55A8 JUMP JUMPDEST PUSH1 0x40 MLOAD DUP1 SWAP2 SUB SWAP1 LOG2 PUSH2 0xD68 DUP3 DUP3 PUSH1 0x1 ADD SLOAD PUSH2 0x30C0 JUMP JUMPDEST POP POP POP JUMP JUMPDEST PUSH1 0x0 DUP1 PUSH20 0xFFFFFFFFFFFFFFFFFFFFFFFFFFFFFFFFFFFFFFFF AND DUP4 PUSH20 0xFFFFFFFFFFFFFFFFFFFFFFFFFFFFFFFFFFFFFFFF AND EQ ISZERO PUSH2 0xDDE JUMPI PUSH1 0x40 MLOAD PUSH32 0x8C379A000000000000000000000000000000000000000000000000000000000 DUP2 MSTORE PUSH1 0x4 ADD PUSH2 0xDD5 SWAP1 PUSH2 0x54E8 JUMP JUMPDEST PUSH1 0x40 MLOAD DUP1 SWAP2 SUB SWAP1 REVERT JUMPDEST PUSH1 0x0 PUSH20 0xFFFFFFFFFFFFFFFFFFFFFFFFFFFFFFFFFFFFFFFF AND DUP5 PUSH20 0xFFFFFFFFFFFFFFFFFFFFFFFFFFFFFFFFFFFFFFFF AND EQ ISZERO PUSH2 0xE4E JUMPI PUSH1 0x40 MLOAD PUSH32 0x8C379A000000000000000000000000000000000000000000000000000000000 DUP2 MSTORE PUSH1 0x4 ADD PUSH2 0xE45 SWAP1 PUSH2 0x5548 JUMP JUMPDEST PUSH1 0x40 MLOAD DUP1 SWAP2 SUB SWAP1 REVERT JUMPDEST PUSH1 0x0 PUSH2 0xE58 PUSH2 0x2C59 JUMP JUMPDEST SWAP1 POP PUSH2 0xE86 DUP2 DUP7 DUP7 DUP7 PUSH1 0x40 MLOAD DUP1 PUSH1 0x20 ADD PUSH1 0x40 MSTORE DUP1 PUSH1 0x0 DUP2 MSTORE POP PUSH1 0x40 MLOAD DUP1 PUSH1 0x20 ADD PUSH1 0x40 MSTORE DUP1 PUSH1 0x0 DUP2 MSTORE POP PUSH2 0x32E1 JUMP JUMPDEST PUSH2 0xEB2 DUP2 DUP7 DUP7 DUP7 PUSH1 0x40 MLOAD DUP1 PUSH1 0x20 ADD PUSH1 0x40 MSTORE DUP1 PUSH1 0x0 DUP2 MSTORE POP PUSH1 0x40 MLOAD DUP1 PUSH1 0x20 ADD PUSH1 0x40 MSTORE DUP1 PUSH1 0x0 DUP2 MSTORE POP PUSH2 0x3467 JUMP JUMPDEST PUSH2 0xF65 DUP6 DUP3 PUSH2 0xF60 DUP7 PUSH1 0x40 MLOAD DUP1 PUSH1 0x60 ADD PUSH1 0x40 MSTORE DUP1 PUSH1 0x29 DUP2 MSTORE PUSH1 0x20 ADD PUSH2 0x5A31 PUSH1 0x29 SWAP2 CODECOPY PUSH1 0x9 PUSH1 0x0 DUP13 PUSH20 0xFFFFFFFFFFFFFFFFFFFFFFFFFFFFFFFFFFFFFFFF AND PUSH20 0xFFFFFFFFFFFFFFFFFFFFFFFFFFFFFFFFFFFFFFFF AND DUP2 MSTORE PUSH1 0x20 ADD SWAP1 DUP2 MSTORE PUSH1 0x20 ADD PUSH1 0x0 KECCAK256 PUSH1 0x0 DUP9 PUSH20 0xFFFFFFFFFFFFFFFFFFFFFFFFFFFFFFFFFFFFFFFF AND PUSH20 0xFFFFFFFFFFFFFFFFFFFFFFFFFFFFFFFFFFFFFFFF AND DUP2 MSTORE PUSH1 0x20 ADD SWAP1 DUP2 MSTORE PUSH1 0x20 ADD PUSH1 0x0 KECCAK256 SLOAD PUSH2 0x3511 SWAP1 SWAP3 SWAP2 SWAP1 PUSH4 0xFFFFFFFF AND JUMP JUMPDEST PUSH2 0x2C61 JUMP JUMPDEST PUSH2 0xF93 DUP2 DUP7 DUP7 DUP7 PUSH1 0x40 MLOAD DUP1 PUSH1 0x20 ADD PUSH1 0x40 MSTORE DUP1 PUSH1 0x0 DUP2 MSTORE POP PUSH1 0x40 MLOAD DUP1 PUSH1 0x20 ADD PUSH1 0x40 MSTORE DUP1 PUSH1 0x0 DUP2 MSTORE POP PUSH1 0x0 PUSH2 0x356C JUMP JUMPDEST PUSH1 0x1 SWAP2 POP POP SWAP4 SWAP3 POP POP POP JUMP JUMPDEST PUSH1 0x0 PUSH1 0xC PUSH1 0x0 DUP4 PUSH20 0xFFFFFFFFFFFFFFFFFFFFFFFFFFFFFFFFFFFFFFFF AND PUSH20 0xFFFFFFFFFFFFFFFFFFFFFFFFFFFFFFFFFFFFFFFF AND DUP2 MSTORE PUSH1 0x20 ADD SWAP1 DUP2 MSTORE PUSH1 0x20 ADD PUSH1 0x0 KECCAK256 PUSH1 0x1 ADD SLOAD SWAP1 POP SWAP2 SWAP1 POP JUMP JUMPDEST PUSH1 0x0 PUSH1 0x12 SWAP1 POP SWAP1 JUMP JUMPDEST DUP1 PUSH1 0xD PUSH1 0x0 PUSH2 0x1001 PUSH2 0x2C59 JUMP JUMPDEST PUSH20 0xFFFFFFFFFFFFFFFFFFFFFFFFFFFFFFFFFFFFFFFF AND PUSH20 0xFFFFFFFFFFFFFFFFFFFFFFFFFFFFFFFFFFFFFFFF AND DUP2 MSTORE PUSH1 0x20 ADD SWAP1 DUP2 MSTORE PUSH1 0x20 ADD PUSH1 0x0 KECCAK256 PUSH1 0x0 DUP5 PUSH20 0xFFFFFFFFFFFFFFFFFFFFFFFFFFFFFFFFFFFFFFFF AND PUSH20 0xFFFFFFFFFFFFFFFFFFFFFFFFFFFFFFFFFFFFFFFF AND DUP2 MSTORE PUSH1 0x20 ADD SWAP1 DUP2 MSTORE PUSH1 0x20 ADD PUSH1 0x0 KECCAK256 PUSH1 0x0 PUSH2 0x100 EXP DUP2 SLOAD DUP2 PUSH1 0xFF MUL NOT AND SWAP1 DUP4 ISZERO ISZERO MUL OR SWAP1 SSTORE POP POP POP JUMP JUMPDEST PUSH2 0x109C DUP3 PUSH2 0x1A5A JUMP JUMPDEST PUSH1 0xA PUSH1 0x0 SWAP1 SLOAD SWAP1 PUSH2 0x100 EXP SWAP1 DIV PUSH20 0xFFFFFFFFFFFFFFFFFFFFFFFFFFFFFFFFFFFFFFFF AND PUSH20 0xFFFFFFFFFFFFFFFFFFFFFFFFFFFFFFFFFFFFFFFF AND PUSH4 0x23B872DD PUSH2 0x10E2 PUSH2 0x2C59 JUMP JUMPDEST ADDRESS DUP5 PUSH1 0x40 MLOAD DUP5 PUSH4 0xFFFFFFFF AND PUSH1 0xE0 SHL DUP2 MSTORE PUSH1 0x4 ADD PUSH2 0x1102 SWAP4 SWAP3 SWAP2 SWAP1 PUSH2 0x525A JUMP JUMPDEST PUSH1 0x20 PUSH1 0x40 MLOAD DUP1 DUP4 SUB DUP2 PUSH1 0x0 DUP8 DUP1 EXTCODESIZE ISZERO DUP1 ISZERO PUSH2 0x111C JUMPI PUSH1 0x0 DUP1 REVERT JUMPDEST POP GAS CALL ISZERO DUP1 ISZERO PUSH2 0x1130 JUMPI RETURNDATASIZE PUSH1 0x0 DUP1 RETURNDATACOPY RETURNDATASIZE PUSH1 0x0 REVERT JUMPDEST POP POP POP POP PUSH1 0x40 MLOAD RETURNDATASIZE PUSH1 0x1F NOT PUSH1 0x1F DUP3 ADD AND DUP3 ADD DUP1 PUSH1 0x40 MSTORE POP PUSH2 0x1154 SWAP2 SWAP1 DUP2 ADD SWAP1 PUSH2 0x4795 JUMP JUMPDEST PUSH2 0x1193 JUMPI PUSH1 0x40 MLOAD PUSH32 0x8C379A000000000000000000000000000000000000000000000000000000000 DUP2 MSTORE PUSH1 0x4 ADD PUSH2 0x118A SWAP1 PUSH2 0x53C8 JUMP JUMPDEST PUSH1 0x40 MLOAD DUP1 SWAP2 SUB SWAP1 REVERT JUMPDEST PUSH1 0xA PUSH1 0x0 SWAP1 SLOAD SWAP1 PUSH2 0x100 EXP SWAP1 DIV PUSH20 0xFFFFFFFFFFFFFFFFFFFFFFFFFFFFFFFFFFFFFFFF AND PUSH20 0xFFFFFFFFFFFFFFFFFFFFFFFFFFFFFFFFFFFFFFFF AND PUSH4 0x95EA7B3 PUSH1 0xB PUSH1 0x0 SWAP1 SLOAD SWAP1 PUSH2 0x100 EXP SWAP1 DIV PUSH20 0xFFFFFFFFFFFFFFFFFFFFFFFFFFFFFFFFFFFFFFFF AND DUP4 PUSH1 0x40 MLOAD DUP4 PUSH4 0xFFFFFFFF AND PUSH1 0xE0 SHL DUP2 MSTORE PUSH1 0x4 ADD PUSH2 0x1212 SWAP3 SWAP2 SWAP1 PUSH2 0x52BA JUMP JUMPDEST PUSH1 0x20 PUSH1 0x40 MLOAD DUP1 DUP4 SUB DUP2 PUSH1 0x0 DUP8 DUP1 EXTCODESIZE ISZERO DUP1 ISZERO PUSH2 0x122C JUMPI PUSH1 0x0 DUP1 REVERT JUMPDEST POP GAS CALL ISZERO DUP1 ISZERO PUSH2 0x1240 JUMPI RETURNDATASIZE PUSH1 0x0 DUP1 RETURNDATACOPY RETURNDATASIZE PUSH1 0x0 REVERT JUMPDEST POP POP POP POP PUSH1 0x40 MLOAD RETURNDATASIZE PUSH1 0x1F NOT PUSH1 0x1F DUP3 ADD AND DUP3 ADD DUP1 PUSH1 0x40 MSTORE POP PUSH2 0x1264 SWAP2 SWAP1 DUP2 ADD SWAP1 PUSH2 0x4795 JUMP JUMPDEST POP PUSH1 0xB PUSH1 0x0 SWAP1 SLOAD SWAP1 PUSH2 0x100 EXP SWAP1 DIV PUSH20 0xFFFFFFFFFFFFFFFFFFFFFFFFFFFFFFFFFFFFFFFF AND PUSH20 0xFFFFFFFFFFFFFFFFFFFFFFFFFFFFFFFFFFFFFFFF AND PUSH4 0x40C10F19 ADDRESS DUP4 PUSH1 0x40 MLOAD DUP4 PUSH4 0xFFFFFFFF AND PUSH1 0xE0 SHL DUP2 MSTORE PUSH1 0x4 ADD PUSH2 0x12C2 SWAP3 SWAP2 SWAP1 PUSH2 0x52BA JUMP JUMPDEST PUSH1 0x20 PUSH1 0x40 MLOAD DUP1 DUP4 SUB DUP2 PUSH1 0x0 DUP8 DUP1 EXTCODESIZE ISZERO DUP1 ISZERO PUSH2 0x12DC JUMPI PUSH1 0x0 DUP1 REVERT JUMPDEST POP GAS CALL ISZERO DUP1 ISZERO PUSH2 0x12F0 JUMPI RETURNDATASIZE PUSH1 0x0 DUP1 RETURNDATACOPY RETURNDATASIZE PUSH1 0x0 REVERT JUMPDEST POP POP POP POP PUSH1 0x40 MLOAD RETURNDATASIZE PUSH1 0x1F NOT PUSH1 0x1F DUP3 ADD AND DUP3 ADD DUP1 PUSH1 0x40 MSTORE POP PUSH2 0x1314 SWAP2 SWAP1 DUP2 ADD SWAP1 PUSH2 0x47E7 JUMP JUMPDEST POP PUSH2 0x1347 PUSH2 0x1320 PUSH2 0x2C59 JUMP JUMPDEST DUP4 DUP4 PUSH1 0x40 MLOAD DUP1 PUSH1 0x20 ADD PUSH1 0x40 MSTORE DUP1 PUSH1 0x0 DUP2 MSTORE POP PUSH1 0x40 MLOAD DUP1 PUSH1 0x20 ADD PUSH1 0x40 MSTORE DUP1 PUSH1 0x0 DUP2 MSTORE POP PUSH2 0x375D JUMP JUMPDEST PUSH2 0x134F PUSH2 0x2C59 JUMP JUMPDEST PUSH20 0xFFFFFFFFFFFFFFFFFFFFFFFFFFFFFFFFFFFFFFFF AND DUP3 PUSH20 0xFFFFFFFFFFFFFFFFFFFFFFFFFFFFFFFFFFFFFFFF AND PUSH32 0x790ACD49F79FD738BF072D1F334B7DEFC021D1A0DFDC5799F5087A37E61930B5 DUP4 PUSH1 0x40 MLOAD PUSH2 0x13AB SWAP2 SWAP1 PUSH2 0x55A8 JUMP JUMPDEST PUSH1 0x40 MLOAD DUP1 SWAP2 SUB SWAP1 LOG3 POP POP JUMP JUMPDEST PUSH1 0x0 PUSH1 0x1 SWAP1 POP SWAP1 JUMP JUMPDEST PUSH1 0x0 DUP1 PUSH1 0xC PUSH1 0x0 PUSH2 0x13CF PUSH2 0x2C59 JUMP JUMPDEST PUSH20 0xFFFFFFFFFFFFFFFFFFFFFFFFFFFFFFFFFFFFFFFF AND PUSH20 0xFFFFFFFFFFFFFFFFFFFFFFFFFFFFFFFFFFFFFFFF AND DUP2 MSTORE PUSH1 0x20 ADD SWAP1 DUP2 MSTORE PUSH1 0x20 ADD PUSH1 0x0 KECCAK256 SWAP1 POP DUP1 PUSH1 0x2 ADD PUSH1 0x40 MLOAD DUP1 PUSH1 0x60 ADD PUSH1 0x40 MSTORE DUP1 DUP8 PUSH20 0xFFFFFFFFFFFFFFFFFFFFFFFFFFFFFFFFFFFFFFFF AND DUP2 MSTORE PUSH1 0x20 ADD DUP7 DUP2 MSTORE PUSH1 0x20 ADD DUP6 DUP2 MSTORE POP SWAP1 DUP1 PUSH1 0x1 DUP2 SLOAD ADD DUP1 DUP3 SSTORE DUP1 SWAP2 POP POP SWAP1 PUSH1 0x1 DUP3 SUB SWAP1 PUSH1 0x0 MSTORE PUSH1 0x20 PUSH1 0x0 KECCAK256 SWAP1 PUSH1 0x3 MUL ADD PUSH1 0x0 SWAP1 SWAP2 SWAP3 SWAP1 SWAP2 SWAP1 SWAP2 POP PUSH1 0x0 DUP3 ADD MLOAD DUP2 PUSH1 0x0 ADD PUSH1 0x0 PUSH2 0x100 EXP DUP2 SLOAD DUP2 PUSH20 0xFFFFFFFFFFFFFFFFFFFFFFFFFFFFFFFFFFFFFFFF MUL NOT AND SWAP1 DUP4 PUSH20 0xFFFFFFFFFFFFFFFFFFFFFFFFFFFFFFFFFFFFFFFF AND MUL OR SWAP1 SSTORE POP PUSH1 0x20 DUP3 ADD MLOAD DUP2 PUSH1 0x1 ADD SSTORE PUSH1 0x40 DUP3 ADD MLOAD DUP2 PUSH1 0x2 ADD SWAP1 DUP1 MLOAD SWAP1 PUSH1 0x20 ADD SWAP1 PUSH2 0x14D8 SWAP3 SWAP2 SWAP1 PUSH2 0x3E6F JUMP JUMPDEST POP POP POP POP PUSH2 0x14F3 DUP5 DUP3 PUSH1 0x3 ADD SLOAD PUSH2 0x3964 SWAP1 SWAP2 SWAP1 PUSH4 0xFFFFFFFF AND JUMP JUMPDEST DUP2 PUSH1 0x3 ADD DUP2 SWAP1 SSTORE POP DUP5 PUSH20 0xFFFFFFFFFFFFFFFFFFFFFFFFFFFFFFFFFFFFFFFF AND PUSH2 0x151A PUSH2 0x2C59 JUMP JUMPDEST PUSH20 0xFFFFFFFFFFFFFFFFFFFFFFFFFFFFFFFFFFFFFFFF AND PUSH32 0x37CACDDB5CBFF122A21AD5F5643384A5929ED0A67F74BE15A1BD13F17245C421 DUP7 DUP7 PUSH1 0x1 DUP7 PUSH1 0x2 ADD DUP1 SLOAD SWAP1 POP SUB PUSH1 0x40 MLOAD PUSH2 0x156D SWAP4 SWAP3 SWAP2 SWAP1 PUSH2 0x5608 JUMP JUMPDEST PUSH1 0x40 MLOAD DUP1 SWAP2 SUB SWAP1 LOG3 POP SWAP4 SWAP3 POP POP POP JUMP JUMPDEST DUP1 ISZERO PUSH1 0xC PUSH1 0x0 PUSH2 0x158B PUSH2 0x2C59 JUMP JUMPDEST PUSH20 0xFFFFFFFFFFFFFFFFFFFFFFFFFFFFFFFFFFFFFFFF AND PUSH20 0xFFFFFFFFFFFFFFFFFFFFFFFFFFFFFFFFFFFFFFFF AND DUP2 MSTORE PUSH1 0x20 ADD SWAP1 DUP2 MSTORE PUSH1 0x20 ADD PUSH1 0x0 KECCAK256 PUSH1 0x4 ADD PUSH1 0x1 PUSH2 0x100 EXP DUP2 SLOAD DUP2 PUSH1 0xFF MUL NOT AND SWAP1 DUP4 ISZERO ISZERO MUL OR SWAP1 SSTORE POP POP JUMP JUMPDEST PUSH2 0x15F3 PUSH2 0x15ED PUSH2 0x2C59 JUMP JUMPDEST DUP9 PUSH2 0x2633 JUMP JUMPDEST PUSH2 0x1632 JUMPI PUSH1 0x40 MLOAD PUSH32 0x8C379A000000000000000000000000000000000000000000000000000000000 DUP2 MSTORE PUSH1 0x4 ADD PUSH2 0x1629 SWAP1 PUSH2 0x5528 JUMP JUMPDEST PUSH1 0x40 MLOAD DUP1 SWAP2 SUB SWAP1 REVERT JUMPDEST PUSH2 0x16D1 PUSH2 0x163D PUSH2 0x2C59 JUMP JUMPDEST DUP9 DUP9 DUP9 DUP9 DUP9 DUP1 DUP1 PUSH1 0x1F ADD PUSH1 0x20 DUP1 SWAP2 DIV MUL PUSH1 0x20 ADD PUSH1 0x40 MLOAD SWAP1 DUP2 ADD PUSH1 0x40 MSTORE DUP1 SWAP4 SWAP3 SWAP2 SWAP1 DUP2 DUP2 MSTORE PUSH1 0x20 ADD DUP4 DUP4 DUP1 DUP3 DUP5 CALLDATACOPY PUSH1 0x0 DUP2 DUP5 ADD MSTORE PUSH1 0x1F NOT PUSH1 0x1F DUP3 ADD AND SWAP1 POP DUP1 DUP4 ADD SWAP3 POP POP POP POP POP POP POP DUP8 DUP8 DUP1 DUP1 PUSH1 0x1F ADD PUSH1 0x20 DUP1 SWAP2 DIV MUL PUSH1 0x20 ADD PUSH1 0x40 MLOAD SWAP1 DUP2 ADD PUSH1 0x40 MSTORE DUP1 SWAP4 SWAP3 SWAP2 SWAP1 DUP2 DUP2 MSTORE PUSH1 0x20 ADD DUP4 DUP4 DUP1 DUP3 DUP5 CALLDATACOPY PUSH1 0x0 DUP2 DUP5 ADD MSTORE PUSH1 0x1F NOT PUSH1 0x1F DUP3 ADD AND SWAP1 POP DUP1 DUP4 ADD SWAP3 POP POP POP POP POP POP POP PUSH1 0x1 PUSH2 0x39B9 JUMP JUMPDEST POP POP POP POP POP POP POP JUMP JUMPDEST PUSH1 0x0 DUP1 PUSH1 0xC PUSH1 0x0 DUP5 PUSH20 0xFFFFFFFFFFFFFFFFFFFFFFFFFFFFFFFFFFFFFFFF AND PUSH20 0xFFFFFFFFFFFFFFFFFFFFFFFFFFFFFFFFFFFFFFFF AND DUP2 MSTORE PUSH1 0x20 ADD SWAP1 DUP2 MSTORE PUSH1 0x20 ADD PUSH1 0x0 KECCAK256 SWAP1 POP PUSH1 0x0 PUSH2 0x1729 DUP5 PUSH2 0x2DBC JUMP JUMPDEST SWAP1 POP DUP1 DUP3 PUSH1 0x1 ADD SLOAD LT PUSH2 0x1741 JUMPI PUSH1 0x0 SWAP3 POP POP POP PUSH2 0x1793 JUMP JUMPDEST PUSH1 0xC PUSH1 0x0 DUP6 PUSH20 0xFFFFFFFFFFFFFFFFFFFFFFFFFFFFFFFFFFFFFFFF AND PUSH20 0xFFFFFFFFFFFFFFFFFFFFFFFFFFFFFFFFFFFFFFFF AND DUP2 MSTORE PUSH1 0x20 ADD SWAP1 DUP2 MSTORE PUSH1 0x20 ADD PUSH1 0x0 KECCAK256 PUSH1 0x1 ADD SLOAD PUSH2 0x178D DUP6 PUSH2 0x2DBC JUMP JUMPDEST SUB SWAP3 POP POP POP JUMPDEST SWAP2 SWAP1 POP JUMP JUMPDEST PUSH1 0xC PUSH1 0x20 MSTORE DUP1 PUSH1 0x0 MSTORE PUSH1 0x40 PUSH1 0x0 KECCAK256 PUSH1 0x0 SWAP2 POP SWAP1 POP DUP1 PUSH1 0x0 ADD SLOAD SWAP1 DUP1 PUSH1 0x1 ADD SLOAD SWAP1 DUP1 PUSH1 0x3 ADD SLOAD SWAP1 DUP1 PUSH1 0x4 ADD PUSH1 0x0 SWAP1 SLOAD SWAP1 PUSH2 0x100 EXP SWAP1 DIV PUSH1 0xFF AND SWAP1 DUP1 PUSH1 0x4 ADD PUSH1 0x1 SWAP1 SLOAD SWAP1 PUSH2 0x100 EXP SWAP1 DIV PUSH1 0xFF AND SWAP1 POP DUP6 JUMP JUMPDEST PUSH1 0x0 DUP1 PUSH1 0xC PUSH1 0x0 PUSH2 0x17F7 PUSH2 0x2C59 JUMP JUMPDEST PUSH20 0xFFFFFFFFFFFFFFFFFFFFFFFFFFFFFFFFFFFFFFFF AND PUSH20 0xFFFFFFFFFFFFFFFFFFFFFFFFFFFFFFFFFFFFFFFF AND DUP2 MSTORE PUSH1 0x20 ADD SWAP1 DUP2 MSTORE PUSH1 0x20 ADD PUSH1 0x0 KECCAK256 SWAP1 POP PUSH1 0x0 DUP2 PUSH1 0x2 ADD DUP5 DUP2 SLOAD DUP2 LT PUSH2 0x1844 JUMPI INVALID JUMPDEST SWAP1 PUSH1 0x0 MSTORE PUSH1 0x20 PUSH1 0x0 KECCAK256 SWAP1 PUSH1 0x3 MUL ADD SWAP1 POP DUP1 PUSH1 0x0 ADD PUSH1 0x0 SWAP1 SLOAD SWAP1 PUSH2 0x100 EXP SWAP1 DIV PUSH20 0xFFFFFFFFFFFFFFFFFFFFFFFFFFFFFFFFFFFFFFFF AND PUSH20 0xFFFFFFFFFFFFFFFFFFFFFFFFFFFFFFFFFFFFFFFF AND PUSH2 0x1897 PUSH2 0x2C59 JUMP JUMPDEST PUSH20 0xFFFFFFFFFFFFFFFFFFFFFFFFFFFFFFFFFFFFFFFF AND PUSH32 0x9B691786D8E66EF436AF4D05F895EE1C9F3B4AA32A9A6854438F82B08C223045 DUP4 PUSH1 0x1 ADD SLOAD DUP5 PUSH1 0x2 ADD DUP9 PUSH1 0x40 MLOAD PUSH2 0x18E7 SWAP4 SWAP3 SWAP2 SWAP1 PUSH2 0x5646 JUMP JUMPDEST PUSH1 0x40 MLOAD DUP1 SWAP2 SUB SWAP1 LOG3 PUSH2 0x1926 DUP3 PUSH1 0x2 ADD DUP6 DUP2 SLOAD DUP2 LT PUSH2 0x1901 JUMPI INVALID JUMPDEST SWAP1 PUSH1 0x0 MSTORE PUSH1 0x20 PUSH1 0x0 KECCAK256 SWAP1 PUSH1 0x3 MUL ADD PUSH1 0x1 ADD SLOAD DUP4 PUSH1 0x3 ADD SLOAD PUSH2 0x3ACD SWAP1 SWAP2 SWAP1 PUSH4 0xFFFFFFFF AND JUMP JUMPDEST DUP3 PUSH1 0x3 ADD DUP2 SWAP1 SSTORE POP PUSH1 0x1 DUP3 PUSH1 0x2 ADD DUP1 SLOAD SWAP1 POP SUB DUP5 EQ PUSH2 0x1A20 JUMPI DUP2 PUSH1 0x2 ADD PUSH1 0x1 DUP4 PUSH1 0x2 ADD DUP1 SLOAD SWAP1 POP SUB DUP2 SLOAD DUP2 LT PUSH2 0x1958 JUMPI INVALID JUMPDEST SWAP1 PUSH1 0x0 MSTORE PUSH1 0x20 PUSH1 0x0 KECCAK256 SWAP1 PUSH1 0x3 MUL ADD DUP3 PUSH1 0x2 ADD DUP6 DUP2 SLOAD DUP2 LT PUSH2 0x1975 JUMPI INVALID JUMPDEST SWAP1 PUSH1 0x0 MSTORE PUSH1 0x20 PUSH1 0x0 KECCAK256 SWAP1 PUSH1 0x3 MUL ADD PUSH1 0x0 DUP3 ADD PUSH1 0x0 SWAP1 SLOAD SWAP1 PUSH2 0x100 EXP SWAP1 DIV PUSH20 0xFFFFFFFFFFFFFFFFFFFFFFFFFFFFFFFFFFFFFFFF AND DUP2 PUSH1 0x0 ADD PUSH1 0x0 PUSH2 0x100 EXP DUP2 SLOAD DUP2 PUSH20 0xFFFFFFFFFFFFFFFFFFFFFFFFFFFFFFFFFFFFFFFF MUL NOT AND SWAP1 DUP4 PUSH20 0xFFFFFFFFFFFFFFFFFFFFFFFFFFFFFFFFFFFFFFFF AND MUL OR SWAP1 SSTORE POP PUSH1 0x1 DUP3 ADD SLOAD DUP2 PUSH1 0x1 ADD SSTORE PUSH1 0x2 DUP3 ADD DUP2 PUSH1 0x2 ADD SWAP1 DUP1 SLOAD PUSH1 0x1 DUP2 PUSH1 0x1 AND ISZERO PUSH2 0x100 MUL SUB AND PUSH1 0x2 SWAP1 DIV PUSH2 0x1A1B SWAP3 SWAP2 SWAP1 PUSH2 0x3EEF JUMP JUMPDEST POP SWAP1 POP POP JUMPDEST DUP2 PUSH1 0x2 ADD DUP1 SLOAD DUP1 SWAP2 SWAP1 PUSH1 0x1 SWAP1 SUB PUSH2 0x1A37 SWAP2 SWAP1 PUSH2 0x3E3D JUMP JUMPDEST POP PUSH1 0x0 DUP3 PUSH1 0x2 ADD DUP1 SLOAD SWAP1 POP EQ ISZERO PUSH2 0x1A53 JUMPI PUSH1 0x0 DUP3 PUSH1 0x1 ADD DUP2 SWAP1 SSTORE POP JUMPDEST POP POP SWAP2 SWAP1 POP JUMP JUMPDEST PUSH1 0x0 PUSH1 0xC PUSH1 0x0 DUP4 PUSH20 0xFFFFFFFFFFFFFFFFFFFFFFFFFFFFFFFFFFFFFFFF AND PUSH20 0xFFFFFFFFFFFFFFFFFFFFFFFFFFFFFFFFFFFFFFFF AND DUP2 MSTORE PUSH1 0x20 ADD SWAP1 DUP2 MSTORE PUSH1 0x20 ADD PUSH1 0x0 KECCAK256 SWAP1 POP PUSH1 0x0 PUSH1 0xB PUSH1 0x0 SWAP1 SLOAD SWAP1 PUSH2 0x100 EXP SWAP1 DIV PUSH20 0xFFFFFFFFFFFFFFFFFFFFFFFFFFFFFFFFFFFFFFFF AND PUSH20 0xFFFFFFFFFFFFFFFFFFFFFFFFFFFFFFFFFFFFFFFF AND PUSH4 0x7FF9B596 PUSH1 0x40 MLOAD DUP2 PUSH4 0xFFFFFFFF AND PUSH1 0xE0 SHL DUP2 MSTORE PUSH1 0x4 ADD PUSH1 0x20 PUSH1 0x40 MLOAD DUP1 DUP4 SUB DUP2 DUP7 DUP1 EXTCODESIZE ISZERO DUP1 ISZERO PUSH2 0x1B07 JUMPI PUSH1 0x0 DUP1 REVERT JUMPDEST POP GAS STATICCALL ISZERO DUP1 ISZERO PUSH2 0x1B1B JUMPI RETURNDATASIZE PUSH1 0x0 DUP1 RETURNDATACOPY RETURNDATASIZE PUSH1 0x0 REVERT JUMPDEST POP POP POP POP PUSH1 0x40 MLOAD RETURNDATASIZE PUSH1 0x1F NOT PUSH1 0x1F DUP3 ADD AND DUP3 ADD DUP1 PUSH1 0x40 MSTORE POP PUSH2 0x1B3F SWAP2 SWAP1 DUP2 ADD SWAP1 PUSH2 0x47E7 JUMP JUMPDEST SWAP1 POP PUSH1 0x0 DUP3 PUSH1 0x0 ADD SLOAD EQ ISZERO PUSH2 0x1B58 JUMPI DUP1 DUP3 PUSH1 0x0 ADD DUP2 SWAP1 SSTORE POP JUMPDEST PUSH1 0x0 PUSH2 0x1B63 DUP5 PUSH2 0x1DA7 JUMP JUMPDEST SWAP1 POP PUSH1 0x0 DUP2 EQ ISZERO PUSH2 0x1B76 JUMPI POP POP POP PUSH2 0x1C46 JUMP JUMPDEST DUP3 PUSH1 0x4 ADD PUSH1 0x1 SWAP1 SLOAD SWAP1 PUSH2 0x100 EXP SWAP1 DIV PUSH1 0xFF AND DUP1 PUSH2 0x1B9B JUMPI POP PUSH1 0x0 DUP4 PUSH1 0x2 ADD DUP1 SLOAD SWAP1 POP EQ ISZERO JUMPDEST ISZERO PUSH2 0x1BC0 JUMPI PUSH2 0x1BB7 DUP2 DUP5 PUSH1 0x1 ADD SLOAD PUSH2 0x3964 SWAP1 SWAP2 SWAP1 PUSH4 0xFFFFFFFF AND JUMP JUMPDEST DUP4 PUSH1 0x1 ADD DUP2 SWAP1 SSTORE POP JUMPDEST DUP2 DUP4 PUSH1 0x0 ADD DUP2 SWAP1 SSTORE POP PUSH2 0x1BF4 ADDRESS DUP6 DUP4 PUSH1 0x40 MLOAD DUP1 PUSH1 0x20 ADD PUSH1 0x40 MSTORE DUP1 PUSH1 0x0 DUP2 MSTORE POP PUSH1 0x40 MLOAD DUP1 PUSH1 0x20 ADD PUSH1 0x40 MSTORE DUP1 PUSH1 0x0 DUP2 MSTORE POP PUSH2 0x375D JUMP JUMPDEST DUP4 PUSH20 0xFFFFFFFFFFFFFFFFFFFFFFFFFFFFFFFFFFFFFFFF AND PUSH32 0xF9984C8173C4B4FF9CC454F76ED19C053F4490CCB224FD9DDFFEB4EF4BEA3530 DUP3 PUSH1 0x40 MLOAD PUSH2 0x1C3A SWAP2 SWAP1 PUSH2 0x55A8 JUMP JUMPDEST PUSH1 0x40 MLOAD DUP1 SWAP2 SUB SWAP1 LOG2 POP POP POP JUMPDEST POP JUMP JUMPDEST DUP2 PUSH20 0xFFFFFFFFFFFFFFFFFFFFFFFFFFFFFFFFFFFFFFFF AND PUSH2 0x1C68 PUSH2 0x2C59 JUMP JUMPDEST PUSH20 0xFFFFFFFFFFFFFFFFFFFFFFFFFFFFFFFFFFFFFFFF AND EQ DUP1 PUSH2 0x1D17 JUMPI POP PUSH1 0xD PUSH1 0x0 DUP4 PUSH20 0xFFFFFFFFFFFFFFFFFFFFFFFFFFFFFFFFFFFFFFFF AND PUSH20 0xFFFFFFFFFFFFFFFFFFFFFFFFFFFFFFFFFFFFFFFF AND DUP2 MSTORE PUSH1 0x20 ADD SWAP1 DUP2 MSTORE PUSH1 0x20 ADD PUSH1 0x0 KECCAK256 PUSH1 0x0 PUSH2 0x1CCE PUSH2 0x2C59 JUMP JUMPDEST PUSH20 0xFFFFFFFFFFFFFFFFFFFFFFFFFFFFFFFFFFFFFFFF AND PUSH20 0xFFFFFFFFFFFFFFFFFFFFFFFFFFFFFFFFFFFFFFFF AND DUP2 MSTORE PUSH1 0x20 ADD SWAP1 DUP2 MSTORE PUSH1 0x20 ADD PUSH1 0x0 KECCAK256 PUSH1 0x0 SWAP1 SLOAD SWAP1 PUSH2 0x100 EXP SWAP1 DIV PUSH1 0xFF AND JUMPDEST PUSH2 0x1D56 JUMPI PUSH1 0x40 MLOAD PUSH32 0x8C379A000000000000000000000000000000000000000000000000000000000 DUP2 MSTORE PUSH1 0x4 ADD PUSH2 0x1D4D SWAP1 PUSH2 0x5428 JUMP JUMPDEST PUSH1 0x40 MLOAD DUP1 SWAP2 SUB SWAP1 REVERT JUMPDEST PUSH1 0x0 PUSH1 0xC PUSH1 0x0 DUP5 PUSH20 0xFFFFFFFFFFFFFFFFFFFFFFFFFFFFFFFFFFFFFFFF AND PUSH20 0xFFFFFFFFFFFFFFFFFFFFFFFFFFFFFFFFFFFFFFFF AND DUP2 MSTORE PUSH1 0x20 ADD SWAP1 DUP2 MSTORE PUSH1 0x20 ADD PUSH1 0x0 KECCAK256 SWAP1 POP DUP2 DUP2 PUSH1 0x1 ADD DUP2 SWAP1 SSTORE POP POP POP POP JUMP JUMPDEST PUSH1 0x0 DUP1 PUSH1 0xC PUSH1 0x0 DUP5 PUSH20 0xFFFFFFFFFFFFFFFFFFFFFFFFFFFFFFFFFFFFFFFF AND PUSH20 0xFFFFFFFFFFFFFFFFFFFFFFFFFFFFFFFFFFFFFFFF AND DUP2 MSTORE PUSH1 0x20 ADD SWAP1 DUP2 MSTORE PUSH1 0x20 ADD PUSH1 0x0 KECCAK256 SWAP1 POP PUSH2 0x1EC5 PUSH8 0xDE0B6B3A7640000 PUSH2 0x1EB7 DUP4 PUSH1 0x0 ADD SLOAD PUSH1 0xB PUSH1 0x0 SWAP1 SLOAD SWAP1 PUSH2 0x100 EXP SWAP1 DIV PUSH20 0xFFFFFFFFFFFFFFFFFFFFFFFFFFFFFFFFFFFFFFFF AND PUSH20 0xFFFFFFFFFFFFFFFFFFFFFFFFFFFFFFFFFFFFFFFF AND PUSH4 0x7FF9B596 PUSH1 0x40 MLOAD DUP2 PUSH4 0xFFFFFFFF AND PUSH1 0xE0 SHL DUP2 MSTORE PUSH1 0x4 ADD PUSH1 0x20 PUSH1 0x40 MLOAD DUP1 DUP4 SUB DUP2 DUP7 DUP1 EXTCODESIZE ISZERO DUP1 ISZERO PUSH2 0x1E67 JUMPI PUSH1 0x0 DUP1 REVERT JUMPDEST POP GAS STATICCALL ISZERO DUP1 ISZERO PUSH2 0x1E7B JUMPI RETURNDATASIZE PUSH1 0x0 DUP1 RETURNDATACOPY RETURNDATASIZE PUSH1 0x0 REVERT JUMPDEST POP POP POP POP PUSH1 0x40 MLOAD RETURNDATASIZE PUSH1 0x1F NOT PUSH1 0x1F DUP3 ADD AND DUP3 ADD DUP1 PUSH1 0x40 MSTORE POP PUSH2 0x1E9F SWAP2 SWAP1 DUP2 ADD SWAP1 PUSH2 0x47E7 JUMP JUMPDEST SUB PUSH2 0x1EA9 DUP8 PUSH2 0x2DBC JUMP JUMPDEST PUSH2 0x3006 SWAP1 SWAP2 SWAP1 PUSH4 0xFFFFFFFF AND JUMP JUMPDEST PUSH2 0x3076 SWAP1 SWAP2 SWAP1 PUSH4 0xFFFFFFFF AND JUMP JUMPDEST SWAP2 POP POP SWAP2 SWAP1 POP JUMP JUMPDEST DUP1 PUSH1 0xC PUSH1 0x0 PUSH2 0x1EDA PUSH2 0x2C59 JUMP JUMPDEST PUSH20 0xFFFFFFFFFFFFFFFFFFFFFFFFFFFFFFFFFFFFFFFF AND PUSH20 0xFFFFFFFFFFFFFFFFFFFFFFFFFFFFFFFFFFFFFFFF AND DUP2 MSTORE PUSH1 0x20 ADD SWAP1 DUP2 MSTORE PUSH1 0x20 ADD PUSH1 0x0 KECCAK256 PUSH1 0x4 ADD PUSH1 0x0 PUSH2 0x100 EXP DUP2 SLOAD DUP2 PUSH1 0xFF MUL NOT AND SWAP1 DUP4 ISZERO ISZERO MUL OR SWAP1 SSTORE POP POP JUMP JUMPDEST DUP1 PUSH20 0xFFFFFFFFFFFFFFFFFFFFFFFFFFFFFFFFFFFFFFFF AND PUSH2 0x1F50 PUSH2 0x2C59 JUMP JUMPDEST PUSH20 0xFFFFFFFFFFFFFFFFFFFFFFFFFFFFFFFFFFFFFFFF AND EQ ISZERO PUSH2 0x1FA7 JUMPI PUSH1 0x40 MLOAD PUSH32 0x8C379A000000000000000000000000000000000000000000000000000000000 DUP2 MSTORE PUSH1 0x4 ADD PUSH2 0x1F9E SWAP1 PUSH2 0x5448 JUMP JUMPDEST PUSH1 0x40 MLOAD DUP1 SWAP2 SUB SWAP1 REVERT JUMPDEST PUSH1 0x6 PUSH1 0x0 DUP3 PUSH20 0xFFFFFFFFFFFFFFFFFFFFFFFFFFFFFFFFFFFFFFFF AND PUSH20 0xFFFFFFFFFFFFFFFFFFFFFFFFFFFFFFFFFFFFFFFF AND DUP2 MSTORE PUSH1 0x20 ADD SWAP1 DUP2 MSTORE PUSH1 0x20 ADD PUSH1 0x0 KECCAK256 PUSH1 0x0 SWAP1 SLOAD SWAP1 PUSH2 0x100 EXP SWAP1 DIV PUSH1 0xFF AND ISZERO PUSH2 0x2091 JUMPI PUSH1 0x8 PUSH1 0x0 PUSH2 0x2005 PUSH2 0x2C59 JUMP JUMPDEST PUSH20 0xFFFFFFFFFFFFFFFFFFFFFFFFFFFFFFFFFFFFFFFF AND PUSH20 0xFFFFFFFFFFFFFFFFFFFFFFFFFFFFFFFFFFFFFFFF AND DUP2 MSTORE PUSH1 0x20 ADD SWAP1 DUP2 MSTORE PUSH1 0x20 ADD PUSH1 0x0 KECCAK256 PUSH1 0x0 DUP3 PUSH20 0xFFFFFFFFFFFFFFFFFFFFFFFFFFFFFFFFFFFFFFFF AND PUSH20 0xFFFFFFFFFFFFFFFFFFFFFFFFFFFFFFFFFFFFFFFF AND DUP2 MSTORE PUSH1 0x20 ADD SWAP1 DUP2 MSTORE PUSH1 0x20 ADD PUSH1 0x0 KECCAK256 PUSH1 0x0 PUSH2 0x100 EXP DUP2 SLOAD SWAP1 PUSH1 0xFF MUL NOT AND SWAP1 SSTORE PUSH2 0x212E JUMP JUMPDEST PUSH1 0x1 PUSH1 0x7 PUSH1 0x0 PUSH2 0x209F PUSH2 0x2C59 JUMP JUMPDEST PUSH20 0xFFFFFFFFFFFFFFFFFFFFFFFFFFFFFFFFFFFFFFFF AND PUSH20 0xFFFFFFFFFFFFFFFFFFFFFFFFFFFFFFFFFFFFFFFF AND DUP2 MSTORE PUSH1 0x20 ADD SWAP1 DUP2 MSTORE PUSH1 0x20 ADD PUSH1 0x0 KECCAK256 PUSH1 0x0 DUP4 PUSH20 0xFFFFFFFFFFFFFFFFFFFFFFFFFFFFFFFFFFFFFFFF AND PUSH20 0xFFFFFFFFFFFFFFFFFFFFFFFFFFFFFFFFFFFFFFFF AND DUP2 MSTORE PUSH1 0x20 ADD SWAP1 DUP2 MSTORE PUSH1 0x20 ADD PUSH1 0x0 KECCAK256 PUSH1 0x0 PUSH2 0x100 EXP DUP2 SLOAD DUP2 PUSH1 0xFF MUL NOT AND SWAP1 DUP4 ISZERO ISZERO MUL OR SWAP1 SSTORE POP JUMPDEST PUSH2 0x2136 PUSH2 0x2C59 JUMP JUMPDEST PUSH20 0xFFFFFFFFFFFFFFFFFFFFFFFFFFFFFFFFFFFFFFFF AND DUP2 PUSH20 0xFFFFFFFFFFFFFFFFFFFFFFFFFFFFFFFFFFFFFFFF AND PUSH32 0xF4CAEB2D6CA8932A215A353D0703C326EC2D81FC68170F320EB2AB49E9DF61F9 PUSH1 0x40 MLOAD PUSH1 0x40 MLOAD DUP1 SWAP2 SUB SWAP1 LOG3 POP JUMP JUMPDEST PUSH1 0x60 PUSH1 0x4 DUP1 SLOAD PUSH1 0x1 DUP2 PUSH1 0x1 AND ISZERO PUSH2 0x100 MUL SUB AND PUSH1 0x2 SWAP1 DIV DUP1 PUSH1 0x1F ADD PUSH1 0x20 DUP1 SWAP2 DIV MUL PUSH1 0x20 ADD PUSH1 0x40 MLOAD SWAP1 DUP2 ADD PUSH1 0x40 MSTORE DUP1 SWAP3 SWAP2 SWAP1 DUP2 DUP2 MSTORE PUSH1 0x20 ADD DUP3 DUP1 SLOAD PUSH1 0x1 DUP2 PUSH1 0x1 AND ISZERO PUSH2 0x100 MUL SUB AND PUSH1 0x2 SWAP1 DIV DUP1 ISZERO PUSH2 0x222A JUMPI DUP1 PUSH1 0x1F LT PUSH2 0x21FF JUMPI PUSH2 0x100 DUP1 DUP4 SLOAD DIV MUL DUP4 MSTORE SWAP2 PUSH1 0x20 ADD SWAP2 PUSH2 0x222A JUMP JUMPDEST DUP3 ADD SWAP2 SWAP1 PUSH1 0x0 MSTORE PUSH1 0x20 PUSH1 0x0 KECCAK256 SWAP1 JUMPDEST DUP2 SLOAD DUP2 MSTORE SWAP1 PUSH1 0x1 ADD SWAP1 PUSH1 0x20 ADD DUP1 DUP4 GT PUSH2 0x220D JUMPI DUP3 SWAP1 SUB PUSH1 0x1F AND DUP3 ADD SWAP2 JUMPDEST POP POP POP POP POP SWAP1 POP SWAP1 JUMP JUMPDEST PUSH2 0x22A5 PUSH2 0x223F PUSH2 0x2C59 JUMP JUMPDEST PUSH2 0x2247 PUSH2 0x2C59 JUMP JUMPDEST DUP7 DUP7 DUP7 DUP7 DUP1 DUP1 PUSH1 0x1F ADD PUSH1 0x20 DUP1 SWAP2 DIV MUL PUSH1 0x20 ADD PUSH1 0x40 MLOAD SWAP1 DUP2 ADD PUSH1 0x40 MSTORE DUP1 SWAP4 SWAP3 SWAP2 SWAP1 DUP2 DUP2 MSTORE PUSH1 0x20 ADD DUP4 DUP4 DUP1 DUP3 DUP5 CALLDATACOPY PUSH1 0x0 DUP2 DUP5 ADD MSTORE PUSH1 0x1F NOT PUSH1 0x1F DUP3 ADD AND SWAP1 POP DUP1 DUP4 ADD SWAP3 POP POP POP POP POP POP POP PUSH1 0x40 MLOAD DUP1 PUSH1 0x20 ADD PUSH1 0x40 MSTORE DUP1 PUSH1 0x0 DUP2 MSTORE POP PUSH1 0x1 PUSH2 0x39B9 JUMP JUMPDEST POP POP POP POP JUMP JUMPDEST PUSH2 0x22B3 PUSH2 0x9A7 JUMP JUMPDEST PUSH1 0x0 DUP1 SWAP1 POP JUMPDEST DUP4 MLOAD DUP2 LT ISZERO PUSH2 0x2314 JUMPI PUSH2 0x2306 DUP5 DUP3 DUP2 MLOAD DUP2 LT PUSH2 0x22D1 JUMPI INVALID JUMPDEST PUSH1 0x20 MUL PUSH1 0x20 ADD ADD MLOAD DUP5 DUP4 DUP2 MLOAD DUP2 LT PUSH2 0x22E5 JUMPI INVALID JUMPDEST PUSH1 0x20 MUL PUSH1 0x20 ADD ADD MLOAD DUP5 DUP5 DUP2 MLOAD DUP2 LT PUSH2 0x22F9 JUMPI INVALID JUMPDEST PUSH1 0x20 MUL PUSH1 0x20 ADD ADD MLOAD PUSH2 0x13C0 JUMP JUMPDEST POP DUP1 DUP1 PUSH1 0x1 ADD SWAP2 POP POP PUSH2 0x22B9 JUMP JUMPDEST POP POP POP POP JUMP JUMPDEST PUSH1 0x0 DUP1 PUSH20 0xFFFFFFFFFFFFFFFFFFFFFFFFFFFFFFFFFFFFFFFF AND DUP4 PUSH20 0xFFFFFFFFFFFFFFFFFFFFFFFFFFFFFFFFFFFFFFFF AND EQ ISZERO PUSH2 0x238B JUMPI PUSH1 0x40 MLOAD PUSH32 0x8C379A000000000000000000000000000000000000000000000000000000000 DUP2 MSTORE PUSH1 0x4 ADD PUSH2 0x2382 SWAP1 PUSH2 0x54E8 JUMP JUMPDEST PUSH1 0x40 MLOAD DUP1 SWAP2 SUB SWAP1 REVERT JUMPDEST PUSH1 0x0 PUSH2 0x2395 PUSH2 0x2C59 JUMP JUMPDEST SWAP1 POP PUSH2 0x23C3 DUP2 DUP3 DUP7 DUP7 PUSH1 0x40 MLOAD DUP1 PUSH1 0x20 ADD PUSH1 0x40 MSTORE DUP1 PUSH1 0x0 DUP2 MSTORE POP PUSH1 0x40 MLOAD DUP1 PUSH1 0x20 ADD PUSH1 0x40 MSTORE DUP1 PUSH1 0x0 DUP2 MSTORE POP PUSH2 0x32E1 JUMP JUMPDEST PUSH2 0x23EF DUP2 DUP3 DUP7 DUP7 PUSH1 0x40 MLOAD DUP1 PUSH1 0x20 ADD PUSH1 0x40 MSTORE DUP1 PUSH1 0x0 DUP2 MSTORE POP PUSH1 0x40 MLOAD DUP1 PUSH1 0x20 ADD PUSH1 0x40 MSTORE DUP1 PUSH1 0x0 DUP2 MSTORE POP PUSH2 0x3467 JUMP JUMPDEST PUSH2 0x241D DUP2 DUP3 DUP7 DUP7 PUSH1 0x40 MLOAD DUP1 PUSH1 0x20 ADD PUSH1 0x40 MSTORE DUP1 PUSH1 0x0 DUP2 MSTORE POP PUSH1 0x40 MLOAD DUP1 PUSH1 0x20 ADD PUSH1 0x40 MSTORE DUP1 PUSH1 0x0 DUP2 MSTORE POP PUSH1 0x0 PUSH2 0x356C JUMP JUMPDEST PUSH1 0x1 SWAP2 POP POP SWAP3 SWAP2 POP POP JUMP JUMPDEST PUSH2 0x2439 PUSH2 0x2433 PUSH2 0x2C59 JUMP JUMPDEST DUP6 PUSH2 0x1093 JUMP JUMPDEST PUSH2 0x2444 DUP4 DUP4 DUP4 PUSH2 0x22AB JUMP JUMPDEST POP POP POP POP JUMP JUMPDEST PUSH1 0x60 PUSH1 0x0 DUP1 PUSH1 0xC PUSH1 0x0 DUP6 PUSH20 0xFFFFFFFFFFFFFFFFFFFFFFFFFFFFFFFFFFFFFFFF AND PUSH20 0xFFFFFFFFFFFFFFFFFFFFFFFFFFFFFFFFFFFFFFFF AND DUP2 MSTORE PUSH1 0x20 ADD SWAP1 DUP2 MSTORE PUSH1 0x20 ADD PUSH1 0x0 KECCAK256 SWAP1 POP DUP1 PUSH1 0x2 ADD DUP1 SLOAD DUP1 PUSH1 0x20 MUL PUSH1 0x20 ADD PUSH1 0x40 MLOAD SWAP1 DUP2 ADD PUSH1 0x40 MSTORE DUP1 SWAP3 SWAP2 SWAP1 DUP2 DUP2 MSTORE PUSH1 0x20 ADD PUSH1 0x0 SWAP1 JUMPDEST DUP3 DUP3 LT ISZERO PUSH2 0x25E8 JUMPI DUP4 DUP3 SWAP1 PUSH1 0x0 MSTORE PUSH1 0x20 PUSH1 0x0 KECCAK256 SWAP1 PUSH1 0x3 MUL ADD PUSH1 0x40 MLOAD DUP1 PUSH1 0x60 ADD PUSH1 0x40 MSTORE SWAP1 DUP2 PUSH1 0x0 DUP3 ADD PUSH1 0x0 SWAP1 SLOAD SWAP1 PUSH2 0x100 EXP SWAP1 DIV PUSH20 0xFFFFFFFFFFFFFFFFFFFFFFFFFFFFFFFFFFFFFFFF AND PUSH20 0xFFFFFFFFFFFFFFFFFFFFFFFFFFFFFFFFFFFFFFFF AND PUSH20 0xFFFFFFFFFFFFFFFFFFFFFFFFFFFFFFFFFFFFFFFF AND DUP2 MSTORE PUSH1 0x20 ADD PUSH1 0x1 DUP3 ADD SLOAD DUP2 MSTORE PUSH1 0x20 ADD PUSH1 0x2 DUP3 ADD DUP1 SLOAD PUSH1 0x1 DUP2 PUSH1 0x1 AND ISZERO PUSH2 0x100 MUL SUB AND PUSH1 0x2 SWAP1 DIV DUP1 PUSH1 0x1F ADD PUSH1 0x20 DUP1 SWAP2 DIV MUL PUSH1 0x20 ADD PUSH1 0x40 MLOAD SWAP1 DUP2 ADD PUSH1 0x40 MSTORE DUP1 SWAP3 SWAP2 SWAP1 DUP2 DUP2 MSTORE PUSH1 0x20 ADD DUP3 DUP1 SLOAD PUSH1 0x1 DUP2 PUSH1 0x1 AND ISZERO PUSH2 0x100 MUL SUB AND PUSH1 0x2 SWAP1 DIV DUP1 ISZERO PUSH2 0x25D0 JUMPI DUP1 PUSH1 0x1F LT PUSH2 0x25A5 JUMPI PUSH2 0x100 DUP1 DUP4 SLOAD DIV MUL DUP4 MSTORE SWAP2 PUSH1 0x20 ADD SWAP2 PUSH2 0x25D0 JUMP JUMPDEST DUP3 ADD SWAP2 SWAP1 PUSH1 0x0 MSTORE PUSH1 0x20 PUSH1 0x0 KECCAK256 SWAP1 JUMPDEST DUP2 SLOAD DUP2 MSTORE SWAP1 PUSH1 0x1 ADD SWAP1 PUSH1 0x20 ADD DUP1 DUP4 GT PUSH2 0x25B3 JUMPI DUP3 SWAP1 SUB PUSH1 0x1F AND DUP3 ADD SWAP2 JUMPDEST POP POP POP POP POP DUP2 MSTORE POP POP DUP2 MSTORE PUSH1 0x20 ADD SWAP1 PUSH1 0x1 ADD SWAP1 PUSH2 0x24B4 JUMP JUMPDEST POP POP POP POP SWAP3 POP DUP1 PUSH1 0x3 ADD SLOAD SWAP2 POP POP SWAP2 POP SWAP2 JUMP JUMPDEST PUSH1 0x0 PUSH2 0x2606 DUP3 PUSH2 0x2DBC JUMP JUMPDEST SWAP1 POP SWAP2 SWAP1 POP JUMP JUMPDEST PUSH1 0xB PUSH1 0x0 SWAP1 SLOAD SWAP1 PUSH2 0x100 EXP SWAP1 DIV PUSH20 0xFFFFFFFFFFFFFFFFFFFFFFFFFFFFFFFFFFFFFFFF AND DUP2 JUMP JUMPDEST PUSH1 0x0 DUP2 PUSH20 0xFFFFFFFFFFFFFFFFFFFFFFFFFFFFFFFFFFFFFFFF AND DUP4 PUSH20 0xFFFFFFFFFFFFFFFFFFFFFFFFFFFFFFFFFFFFFFFF AND EQ DUP1 PUSH2 0x274B JUMPI POP PUSH1 0x6 PUSH1 0x0 DUP5 PUSH20 0xFFFFFFFFFFFFFFFFFFFFFFFFFFFFFFFFFFFFFFFF AND PUSH20 0xFFFFFFFFFFFFFFFFFFFFFFFFFFFFFFFFFFFFFFFF AND DUP2 MSTORE PUSH1 0x20 ADD SWAP1 DUP2 MSTORE PUSH1 0x20 ADD PUSH1 0x0 KECCAK256 PUSH1 0x0 SWAP1 SLOAD SWAP1 PUSH2 0x100 EXP SWAP1 DIV PUSH1 0xFF AND DUP1 ISZERO PUSH2 0x274A JUMPI POP PUSH1 0x8 PUSH1 0x0 DUP4 PUSH20 0xFFFFFFFFFFFFFFFFFFFFFFFFFFFFFFFFFFFFFFFF AND PUSH20 0xFFFFFFFFFFFFFFFFFFFFFFFFFFFFFFFFFFFFFFFF AND DUP2 MSTORE PUSH1 0x20 ADD SWAP1 DUP2 MSTORE PUSH1 0x20 ADD PUSH1 0x0 KECCAK256 PUSH1 0x0 DUP5 PUSH20 0xFFFFFFFFFFFFFFFFFFFFFFFFFFFFFFFFFFFFFFFF AND PUSH20 0xFFFFFFFFFFFFFFFFFFFFFFFFFFFFFFFFFFFFFFFF AND DUP2 MSTORE PUSH1 0x20 ADD SWAP1 DUP2 MSTORE PUSH1 0x20 ADD PUSH1 0x0 KECCAK256 PUSH1 0x0 SWAP1 SLOAD SWAP1 PUSH2 0x100 EXP SWAP1 DIV PUSH1 0xFF AND ISZERO JUMPDEST JUMPDEST DUP1 PUSH2 0x27DC JUMPI POP PUSH1 0x7 PUSH1 0x0 DUP4 PUSH20 0xFFFFFFFFFFFFFFFFFFFFFFFFFFFFFFFFFFFFFFFF AND PUSH20 0xFFFFFFFFFFFFFFFFFFFFFFFFFFFFFFFFFFFFFFFF AND DUP2 MSTORE PUSH1 0x20 ADD SWAP1 DUP2 MSTORE PUSH1 0x20 ADD PUSH1 0x0 KECCAK256 PUSH1 0x0 DUP5 PUSH20 0xFFFFFFFFFFFFFFFFFFFFFFFFFFFFFFFFFFFFFFFF AND PUSH20 0xFFFFFFFFFFFFFFFFFFFFFFFFFFFFFFFFFFFFFFFF AND DUP2 MSTORE PUSH1 0x20 ADD SWAP1 DUP2 MSTORE PUSH1 0x20 ADD PUSH1 0x0 KECCAK256 PUSH1 0x0 SWAP1 SLOAD SWAP1 PUSH2 0x100 EXP SWAP1 DIV PUSH1 0xFF AND JUMPDEST SWAP1 POP SWAP3 SWAP2 POP POP JUMP JUMPDEST PUSH1 0x0 PUSH1 0x9 PUSH1 0x0 DUP5 PUSH20 0xFFFFFFFFFFFFFFFFFFFFFFFFFFFFFFFFFFFFFFFF AND PUSH20 0xFFFFFFFFFFFFFFFFFFFFFFFFFFFFFFFFFFFFFFFF AND DUP2 MSTORE PUSH1 0x20 ADD SWAP1 DUP2 MSTORE PUSH1 0x20 ADD PUSH1 0x0 KECCAK256 PUSH1 0x0 DUP4 PUSH20 0xFFFFFFFFFFFFFFFFFFFFFFFFFFFFFFFFFFFFFFFF AND PUSH20 0xFFFFFFFFFFFFFFFFFFFFFFFFFFFFFFFFFFFFFFFF AND DUP2 MSTORE PUSH1 0x20 ADD SWAP1 DUP2 MSTORE PUSH1 0x20 ADD PUSH1 0x0 KECCAK256 SLOAD SWAP1 POP SWAP3 SWAP2 POP POP JUMP JUMPDEST PUSH2 0x2873 PUSH2 0x2C59 JUMP JUMPDEST PUSH20 0xFFFFFFFFFFFFFFFFFFFFFFFFFFFFFFFFFFFFFFFF AND DUP2 PUSH20 0xFFFFFFFFFFFFFFFFFFFFFFFFFFFFFFFFFFFFFFFF AND EQ ISZERO PUSH2 0x28E1 JUMPI PUSH1 0x40 MLOAD PUSH32 0x8C379A000000000000000000000000000000000000000000000000000000000 DUP2 MSTORE PUSH1 0x4 ADD PUSH2 0x28D8 SWAP1 PUSH2 0x5468 JUMP JUMPDEST PUSH1 0x40 MLOAD DUP1 SWAP2 SUB SWAP1 REVERT JUMPDEST PUSH1 0x6 PUSH1 0x0 DUP3 PUSH20 0xFFFFFFFFFFFFFFFFFFFFFFFFFFFFFFFFFFFFFFFF AND PUSH20 0xFFFFFFFFFFFFFFFFFFFFFFFFFFFFFFFFFFFFFFFF AND DUP2 MSTORE PUSH1 0x20 ADD SWAP1 DUP2 MSTORE PUSH1 0x20 ADD PUSH1 0x0 KECCAK256 PUSH1 0x0 SWAP1 SLOAD SWAP1 PUSH2 0x100 EXP SWAP1 DIV PUSH1 0xFF AND ISZERO PUSH2 0x29D4 JUMPI PUSH1 0x1 PUSH1 0x8 PUSH1 0x0 PUSH2 0x2941 PUSH2 0x2C59 JUMP JUMPDEST PUSH20 0xFFFFFFFFFFFFFFFFFFFFFFFFFFFFFFFFFFFFFFFF AND PUSH20 0xFFFFFFFFFFFFFFFFFFFFFFFFFFFFFFFFFFFFFFFF AND DUP2 MSTORE PUSH1 0x20 ADD SWAP1 DUP2 MSTORE PUSH1 0x20 ADD PUSH1 0x0 KECCAK256 PUSH1 0x0 DUP4 PUSH20 0xFFFFFFFFFFFFFFFFFFFFFFFFFFFFFFFFFFFFFFFF AND PUSH20 0xFFFFFFFFFFFFFFFFFFFFFFFFFFFFFFFFFFFFFFFF AND DUP2 MSTORE PUSH1 0x20 ADD SWAP1 DUP2 MSTORE PUSH1 0x20 ADD PUSH1 0x0 KECCAK256 PUSH1 0x0 PUSH2 0x100 EXP DUP2 SLOAD DUP2 PUSH1 0xFF MUL NOT AND SWAP1 DUP4 ISZERO ISZERO MUL OR SWAP1 SSTORE POP PUSH2 0x2A68 JUMP JUMPDEST PUSH1 0x7 PUSH1 0x0 PUSH2 0x29E0 PUSH2 0x2C59 JUMP JUMPDEST PUSH20 0xFFFFFFFFFFFFFFFFFFFFFFFFFFFFFFFFFFFFFFFF AND PUSH20 0xFFFFFFFFFFFFFFFFFFFFFFFFFFFFFFFFFFFFFFFF AND DUP2 MSTORE PUSH1 0x20 ADD SWAP1 DUP2 MSTORE PUSH1 0x20 ADD PUSH1 0x0 KECCAK256 PUSH1 0x0 DUP3 PUSH20 0xFFFFFFFFFFFFFFFFFFFFFFFFFFFFFFFFFFFFFFFF AND PUSH20 0xFFFFFFFFFFFFFFFFFFFFFFFFFFFFFFFFFFFFFFFF AND DUP2 MSTORE PUSH1 0x20 ADD SWAP1 DUP2 MSTORE PUSH1 0x20 ADD PUSH1 0x0 KECCAK256 PUSH1 0x0 PUSH2 0x100 EXP DUP2 SLOAD SWAP1 PUSH1 0xFF MUL NOT AND SWAP1 SSTORE JUMPDEST PUSH2 0x2A70 PUSH2 0x2C59 JUMP JUMPDEST PUSH20 0xFFFFFFFFFFFFFFFFFFFFFFFFFFFFFFFFFFFFFFFF AND DUP2 PUSH20 0xFFFFFFFFFFFFFFFFFFFFFFFFFFFFFFFFFFFFFFFF AND PUSH32 0x50546E66E5F44D728365DC3908C63BC5CFEEAB470722C1677E3073A6AC294AA1 PUSH1 0x40 MLOAD PUSH1 0x40 MLOAD DUP1 SWAP2 SUB SWAP1 LOG3 POP JUMP JUMPDEST PUSH1 0xA PUSH1 0x0 SWAP1 SLOAD SWAP1 PUSH2 0x100 EXP SWAP1 DIV PUSH20 0xFFFFFFFFFFFFFFFFFFFFFFFFFFFFFFFFFFFFFFFF AND DUP2 JUMP JUMPDEST PUSH2 0x2B03 PUSH2 0x2AFD PUSH2 0x2C59 JUMP JUMPDEST DUP8 PUSH2 0x2633 JUMP JUMPDEST PUSH2 0x2B42 JUMPI PUSH1 0x40 MLOAD PUSH32 0x8C379A000000000000000000000000000000000000000000000000000000000 DUP2 MSTORE PUSH1 0x4 ADD PUSH2 0x2B39 SWAP1 PUSH2 0x5528 JUMP JUMPDEST PUSH1 0x40 MLOAD DUP1 SWAP2 SUB SWAP1 REVERT JUMPDEST PUSH2 0x2BDE PUSH2 0x2B4D PUSH2 0x2C59 JUMP JUMPDEST DUP8 DUP8 DUP8 DUP8 DUP1 DUP1 PUSH1 0x1F ADD PUSH1 0x20 DUP1 SWAP2 DIV MUL PUSH1 0x20 ADD PUSH1 0x40 MLOAD SWAP1 DUP2 ADD PUSH1 0x40 MSTORE DUP1 SWAP4 SWAP3 SWAP2 SWAP1 DUP2 DUP2 MSTORE PUSH1 0x20 ADD DUP4 DUP4 DUP1 DUP3 DUP5 CALLDATACOPY PUSH1 0x0 DUP2 DUP5 ADD MSTORE PUSH1 0x1F NOT PUSH1 0x1F DUP3 ADD AND SWAP1 POP DUP1 DUP4 ADD SWAP3 POP POP POP POP POP POP POP DUP7 DUP7 DUP1 DUP1 PUSH1 0x1F ADD PUSH1 0x20 DUP1 SWAP2 DIV MUL PUSH1 0x20 ADD PUSH1 0x40 MLOAD SWAP1 DUP2 ADD PUSH1 0x40 MSTORE DUP1 SWAP4 SWAP3 SWAP2 SWAP1 DUP2 DUP2 MSTORE PUSH1 0x20 ADD DUP4 DUP4 DUP1 DUP3 DUP5 CALLDATACOPY PUSH1 0x0 DUP2 DUP5 ADD MSTORE PUSH1 0x1F NOT PUSH1 0x1F DUP3 ADD AND SWAP1 POP DUP1 DUP4 ADD SWAP3 POP POP POP POP POP POP POP PUSH2 0x2DE7 JUMP JUMPDEST POP POP POP POP POP POP JUMP JUMPDEST PUSH2 0x2C54 PUSH2 0x2BF1 PUSH2 0x2C59 JUMP JUMPDEST PUSH2 0x2BF9 PUSH2 0x2C59 JUMP JUMPDEST DUP6 DUP6 DUP6 DUP1 DUP1 PUSH1 0x1F ADD PUSH1 0x20 DUP1 SWAP2 DIV MUL PUSH1 0x20 ADD PUSH1 0x40 MLOAD SWAP1 DUP2 ADD PUSH1 0x40 MSTORE DUP1 SWAP4 SWAP3 SWAP2 SWAP1 DUP2 DUP2 MSTORE PUSH1 0x20 ADD DUP4 DUP4 DUP1 DUP3 DUP5 CALLDATACOPY PUSH1 0x0 DUP2 DUP5 ADD MSTORE PUSH1 0x1F NOT PUSH1 0x1F DUP3 ADD AND SWAP1 POP DUP1 DUP4 ADD SWAP3 POP POP POP POP POP POP POP PUSH1 0x40 MLOAD DUP1 PUSH1 0x20 ADD PUSH1 0x40 MSTORE DUP1 PUSH1 0x0 DUP2 MSTORE POP PUSH2 0x2DE7 JUMP JUMPDEST POP POP POP JUMP JUMPDEST PUSH1 0x0 CALLER SWAP1 POP SWAP1 JUMP JUMPDEST PUSH1 0x0 PUSH20 0xFFFFFFFFFFFFFFFFFFFFFFFFFFFFFFFFFFFFFFFF AND DUP3 PUSH20 0xFFFFFFFFFFFFFFFFFFFFFFFFFFFFFFFFFFFFFFFF AND EQ ISZERO PUSH2 0x2CD1 JUMPI PUSH1 0x40 MLOAD PUSH32 0x8C379A000000000000000000000000000000000000000000000000000000000 DUP2 MSTORE PUSH1 0x4 ADD PUSH2 0x2CC8 SWAP1 PUSH2 0x5588 JUMP JUMPDEST PUSH1 0x40 MLOAD DUP1 SWAP2 SUB SWAP1 REVERT JUMPDEST DUP1 PUSH1 0x9 PUSH1 0x0 DUP6 PUSH20 0xFFFFFFFFFFFFFFFFFFFFFFFFFFFFFFFFFFFFFFFF AND PUSH20 0xFFFFFFFFFFFFFFFFFFFFFFFFFFFFFFFFFFFFFFFF AND DUP2 MSTORE PUSH1 0x20 ADD SWAP1 DUP2 MSTORE PUSH1 0x20 ADD PUSH1 0x0 KECCAK256 PUSH1 0x0 DUP5 PUSH20 0xFFFFFFFFFFFFFFFFFFFFFFFFFFFFFFFFFFFFFFFF AND PUSH20 0xFFFFFFFFFFFFFFFFFFFFFFFFFFFFFFFFFFFFFFFF AND DUP2 MSTORE PUSH1 0x20 ADD SWAP1 DUP2 MSTORE PUSH1 0x20 ADD PUSH1 0x0 KECCAK256 DUP2 SWAP1 SSTORE POP DUP2 PUSH20 0xFFFFFFFFFFFFFFFFFFFFFFFFFFFFFFFFFFFFFFFF AND DUP4 PUSH20 0xFFFFFFFFFFFFFFFFFFFFFFFFFFFFFFFFFFFFFFFF AND PUSH32 0x8C5BE1E5EBEC7D5BD14F71427D1E84F3DD0314C0F7B2291E5B200AC8C7C3B925 DUP4 PUSH1 0x40 MLOAD PUSH2 0x2DAF SWAP2 SWAP1 PUSH2 0x55A8 JUMP JUMPDEST PUSH1 0x40 MLOAD DUP1 SWAP2 SUB SWAP1 LOG3 POP POP POP JUMP JUMPDEST PUSH1 0x0 PUSH2 0x2DC7 DUP3 PUSH2 0x3B17 JUMP JUMPDEST SWAP1 POP SWAP2 SWAP1 POP JUMP JUMPDEST PUSH1 0x0 DUP2 DUP4 LT PUSH2 0x2DDD JUMPI DUP2 PUSH2 0x2DDF JUMP JUMPDEST DUP3 JUMPDEST SWAP1 POP SWAP3 SWAP2 POP POP JUMP JUMPDEST PUSH1 0x0 PUSH20 0xFFFFFFFFFFFFFFFFFFFFFFFFFFFFFFFFFFFFFFFF AND DUP5 PUSH20 0xFFFFFFFFFFFFFFFFFFFFFFFFFFFFFFFFFFFFFFFF AND EQ ISZERO PUSH2 0x2E57 JUMPI PUSH1 0x40 MLOAD PUSH32 0x8C379A000000000000000000000000000000000000000000000000000000000 DUP2 MSTORE PUSH1 0x4 ADD PUSH2 0x2E4E SWAP1 PUSH2 0x5408 JUMP JUMPDEST PUSH1 0x40 MLOAD DUP1 SWAP2 SUB SWAP1 REVERT JUMPDEST PUSH2 0x2E66 DUP6 DUP6 PUSH1 0x0 DUP7 DUP7 DUP7 PUSH2 0x32E1 JUMP JUMPDEST PUSH2 0x2ED2 DUP4 PUSH1 0x40 MLOAD DUP1 PUSH1 0x60 ADD PUSH1 0x40 MSTORE DUP1 PUSH1 0x23 DUP2 MSTORE PUSH1 0x20 ADD PUSH2 0x5A5A PUSH1 0x23 SWAP2 CODECOPY PUSH1 0x1 PUSH1 0x0 DUP9 PUSH20 0xFFFFFFFFFFFFFFFFFFFFFFFFFFFFFFFFFFFFFFFF AND PUSH20 0xFFFFFFFFFFFFFFFFFFFFFFFFFFFFFFFFFFFFFFFF AND DUP2 MSTORE PUSH1 0x20 ADD SWAP1 DUP2 MSTORE PUSH1 0x20 ADD PUSH1 0x0 KECCAK256 SLOAD PUSH2 0x3511 SWAP1 SWAP3 SWAP2 SWAP1 PUSH4 0xFFFFFFFF AND JUMP JUMPDEST PUSH1 0x1 PUSH1 0x0 DUP7 PUSH20 0xFFFFFFFFFFFFFFFFFFFFFFFFFFFFFFFFFFFFFFFF AND PUSH20 0xFFFFFFFFFFFFFFFFFFFFFFFFFFFFFFFFFFFFFFFF AND DUP2 MSTORE PUSH1 0x20 ADD SWAP1 DUP2 MSTORE PUSH1 0x20 ADD PUSH1 0x0 KECCAK256 DUP2 SWAP1 SSTORE POP PUSH2 0x2F2A DUP4 PUSH1 0x2 SLOAD PUSH2 0x3ACD SWAP1 SWAP2 SWAP1 PUSH4 0xFFFFFFFF AND JUMP JUMPDEST PUSH1 0x2 DUP2 SWAP1 SSTORE POP DUP4 PUSH20 0xFFFFFFFFFFFFFFFFFFFFFFFFFFFFFFFFFFFFFFFF AND DUP6 PUSH20 0xFFFFFFFFFFFFFFFFFFFFFFFFFFFFFFFFFFFFFFFF AND PUSH32 0xA78A9BE3A7B862D26933AD85FB11D80EF66B8F972D7CBBA06621D583943A4098 DUP6 DUP6 DUP6 PUSH1 0x40 MLOAD PUSH2 0x2F91 SWAP4 SWAP3 SWAP2 SWAP1 PUSH2 0x55C3 JUMP JUMPDEST PUSH1 0x40 MLOAD DUP1 SWAP2 SUB SWAP1 LOG3 PUSH1 0x0 PUSH20 0xFFFFFFFFFFFFFFFFFFFFFFFFFFFFFFFFFFFFFFFF AND DUP5 PUSH20 0xFFFFFFFFFFFFFFFFFFFFFFFFFFFFFFFFFFFFFFFF AND PUSH32 0xDDF252AD1BE2C89B69C2B068FC378DAA952BA7F163C4A11628F55A4DF523B3EF DUP6 PUSH1 0x40 MLOAD PUSH2 0x2FF7 SWAP2 SWAP1 PUSH2 0x55A8 JUMP JUMPDEST PUSH1 0x40 MLOAD DUP1 SWAP2 SUB SWAP1 LOG3 POP POP POP POP POP JUMP JUMPDEST PUSH1 0x0 DUP1 DUP4 EQ ISZERO PUSH2 0x3019 JUMPI PUSH1 0x0 SWAP1 POP PUSH2 0x3070 JUMP JUMPDEST PUSH1 0x0 DUP3 DUP5 MUL SWAP1 POP DUP3 DUP5 DUP3 DUP2 PUSH2 0x302A JUMPI INVALID JUMPDEST DIV EQ PUSH2 0x306B JUMPI PUSH1 0x40 MLOAD PUSH32 0x8C379A000000000000000000000000000000000000000000000000000000000 DUP2 MSTORE PUSH1 0x4 ADD PUSH2 0x3062 SWAP1 PUSH2 0x54A8 JUMP JUMPDEST PUSH1 0x40 MLOAD DUP1 SWAP2 SUB SWAP1 REVERT JUMPDEST DUP1 SWAP2 POP POP JUMPDEST SWAP3 SWAP2 POP POP JUMP JUMPDEST PUSH1 0x0 PUSH2 0x30B8 DUP4 DUP4 PUSH1 0x40 MLOAD DUP1 PUSH1 0x40 ADD PUSH1 0x40 MSTORE DUP1 PUSH1 0x1A DUP2 MSTORE PUSH1 0x20 ADD PUSH32 0x536166654D6174683A206469766973696F6E206279207A65726F000000000000 DUP2 MSTORE POP PUSH2 0x3B60 JUMP JUMPDEST SWAP1 POP SWAP3 SWAP2 POP POP JUMP JUMPDEST PUSH1 0x0 DUP1 PUSH1 0xC PUSH1 0x0 DUP6 PUSH20 0xFFFFFFFFFFFFFFFFFFFFFFFFFFFFFFFFFFFFFFFF AND PUSH20 0xFFFFFFFFFFFFFFFFFFFFFFFFFFFFFFFFFFFFFFFF AND DUP2 MSTORE PUSH1 0x20 ADD SWAP1 DUP2 MSTORE PUSH1 0x20 ADD PUSH1 0x0 KECCAK256 SWAP1 POP PUSH2 0x311B DUP4 DUP3 PUSH1 0x1 ADD SLOAD PUSH2 0x3ACD SWAP1 SWAP2 SWAP1 PUSH4 0xFFFFFFFF AND JUMP JUMPDEST DUP2 PUSH1 0x1 ADD DUP2 SWAP1 SSTORE POP PUSH1 0x0 DUP2 PUSH1 0x2 ADD DUP1 SLOAD SWAP1 POP EQ ISZERO PUSH2 0x313D JUMPI PUSH1 0x1 SWAP2 POP POP PUSH2 0x32DB JUMP JUMPDEST PUSH1 0x0 DUP1 SWAP1 POP JUMPDEST DUP2 PUSH1 0x2 ADD DUP1 SLOAD SWAP1 POP DUP2 LT ISZERO PUSH2 0x32D4 JUMPI PUSH2 0x315A PUSH2 0x3F76 JUMP JUMPDEST DUP3 PUSH1 0x2 ADD DUP3 DUP2 SLOAD DUP2 LT PUSH2 0x3169 JUMPI INVALID JUMPDEST SWAP1 PUSH1 0x0 MSTORE PUSH1 0x20 PUSH1 0x0 KECCAK256 SWAP1 PUSH1 0x3 MUL ADD PUSH1 0x40 MLOAD DUP1 PUSH1 0x60 ADD PUSH1 0x40 MSTORE SWAP1 DUP2 PUSH1 0x0 DUP3 ADD PUSH1 0x0 SWAP1 SLOAD SWAP1 PUSH2 0x100 EXP SWAP1 DIV PUSH20 0xFFFFFFFFFFFFFFFFFFFFFFFFFFFFFFFFFFFFFFFF AND PUSH20 0xFFFFFFFFFFFFFFFFFFFFFFFFFFFFFFFFFFFFFFFF AND PUSH20 0xFFFFFFFFFFFFFFFFFFFFFFFFFFFFFFFFFFFFFFFF AND DUP2 MSTORE PUSH1 0x20 ADD PUSH1 0x1 DUP3 ADD SLOAD DUP2 MSTORE PUSH1 0x20 ADD PUSH1 0x2 DUP3 ADD DUP1 SLOAD PUSH1 0x1 DUP2 PUSH1 0x1 AND ISZERO PUSH2 0x100 MUL SUB AND PUSH1 0x2 SWAP1 DIV DUP1 PUSH1 0x1F ADD PUSH1 0x20 DUP1 SWAP2 DIV MUL PUSH1 0x20 ADD PUSH1 0x40 MLOAD SWAP1 DUP2 ADD PUSH1 0x40 MSTORE DUP1 SWAP3 SWAP2 SWAP1 DUP2 DUP2 MSTORE PUSH1 0x20 ADD DUP3 DUP1 SLOAD PUSH1 0x1 DUP2 PUSH1 0x1 AND ISZERO PUSH2 0x100 MUL SUB AND PUSH1 0x2 SWAP1 DIV DUP1 ISZERO PUSH2 0x327B JUMPI DUP1 PUSH1 0x1F LT PUSH2 0x3250 JUMPI PUSH2 0x100 DUP1 DUP4 SLOAD DIV MUL DUP4 MSTORE SWAP2 PUSH1 0x20 ADD SWAP2 PUSH2 0x327B JUMP JUMPDEST DUP3 ADD SWAP2 SWAP1 PUSH1 0x0 MSTORE PUSH1 0x20 PUSH1 0x0 KECCAK256 SWAP1 JUMPDEST DUP2 SLOAD DUP2 MSTORE SWAP1 PUSH1 0x1 ADD SWAP1 PUSH1 0x20 ADD DUP1 DUP4 GT PUSH2 0x325E JUMPI DUP3 SWAP1 SUB PUSH1 0x1F AND DUP3 ADD SWAP2 JUMPDEST POP POP POP POP POP DUP2 MSTORE POP POP SWAP1 POP PUSH1 0x0 DUP4 PUSH1 0x3 ADD SLOAD DUP3 PUSH1 0x20 ADD MLOAD DUP8 MUL DUP2 PUSH2 0x329B JUMPI INVALID JUMPDEST DIV SWAP1 POP PUSH2 0x32C5 ADDRESS DUP9 DUP5 PUSH1 0x0 ADD MLOAD DUP5 DUP7 PUSH1 0x40 ADD MLOAD PUSH1 0x40 MLOAD DUP1 PUSH1 0x20 ADD PUSH1 0x40 MSTORE DUP1 PUSH1 0x0 DUP2 MSTORE POP PUSH1 0x0 PUSH2 0x39B9 JUMP JUMPDEST POP POP DUP1 DUP1 PUSH1 0x1 ADD SWAP2 POP POP PUSH2 0x3143 JUMP JUMPDEST POP PUSH1 0x1 SWAP2 POP POP JUMPDEST SWAP3 SWAP2 POP POP JUMP JUMPDEST PUSH1 0x0 DUP1 PUSH1 0x0 SWAP1 SLOAD SWAP1 PUSH2 0x100 EXP SWAP1 DIV PUSH20 0xFFFFFFFFFFFFFFFFFFFFFFFFFFFFFFFFFFFFFFFF AND PUSH20 0xFFFFFFFFFFFFFFFFFFFFFFFFFFFFFFFFFFFFFFFF AND PUSH4 0xAABBB8CA DUP8 PUSH32 0x29DDB589B1FB5FC7CF394961C1ADF5F8C6454761ADF795E67FE149F658ABE895 PUSH1 0x0 SHL PUSH1 0x40 MLOAD DUP4 PUSH4 0xFFFFFFFF AND PUSH1 0xE0 SHL DUP2 MSTORE PUSH1 0x4 ADD PUSH2 0x3362 SWAP3 SWAP2 SWAP1 PUSH2 0x5291 JUMP JUMPDEST PUSH1 0x20 PUSH1 0x40 MLOAD DUP1 DUP4 SUB DUP2 DUP7 DUP1 EXTCODESIZE ISZERO DUP1 ISZERO PUSH2 0x337A JUMPI PUSH1 0x0 DUP1 REVERT JUMPDEST POP GAS STATICCALL ISZERO DUP1 ISZERO PUSH2 0x338E JUMPI RETURNDATASIZE PUSH1 0x0 DUP1 RETURNDATACOPY RETURNDATASIZE PUSH1 0x0 REVERT JUMPDEST POP POP POP POP PUSH1 0x40 MLOAD RETURNDATASIZE PUSH1 0x1F NOT PUSH1 0x1F DUP3 ADD AND DUP3 ADD DUP1 PUSH1 0x40 MSTORE POP PUSH2 0x33B2 SWAP2 SWAP1 DUP2 ADD SWAP1 PUSH2 0x438B JUMP JUMPDEST SWAP1 POP PUSH1 0x0 PUSH20 0xFFFFFFFFFFFFFFFFFFFFFFFFFFFFFFFFFFFFFFFF AND DUP2 PUSH20 0xFFFFFFFFFFFFFFFFFFFFFFFFFFFFFFFFFFFFFFFF AND EQ PUSH2 0x345E JUMPI DUP1 PUSH20 0xFFFFFFFFFFFFFFFFFFFFFFFFFFFFFFFFFFFFFFFF AND PUSH4 0x75AB9782 DUP9 DUP9 DUP9 DUP9 DUP9 DUP9 PUSH1 0x40 MLOAD DUP8 PUSH4 0xFFFFFFFF AND PUSH1 0xE0 SHL DUP2 MSTORE PUSH1 0x4 ADD PUSH2 0x342B SWAP7 SWAP6 SWAP5 SWAP4 SWAP3 SWAP2 SWAP1 PUSH2 0x51EB JUMP JUMPDEST PUSH1 0x0 PUSH1 0x40 MLOAD DUP1 DUP4 SUB DUP2 PUSH1 0x0 DUP8 DUP1 EXTCODESIZE ISZERO DUP1 ISZERO PUSH2 0x3445 JUMPI PUSH1 0x0 DUP1 REVERT JUMPDEST POP GAS CALL ISZERO DUP1 ISZERO PUSH2 0x3459 JUMPI RETURNDATASIZE PUSH1 0x0 DUP1 RETURNDATACOPY RETURNDATASIZE PUSH1 0x0 REVERT JUMPDEST POP POP POP POP JUMPDEST POP POP POP POP POP POP POP JUMP JUMPDEST PUSH2 0x3470 DUP6 PUSH2 0x1A5A JUMP JUMPDEST PUSH2 0x3479 DUP5 PUSH2 0x1A5A JUMP JUMPDEST PUSH1 0x0 PUSH1 0xC PUSH1 0x0 DUP7 PUSH20 0xFFFFFFFFFFFFFFFFFFFFFFFFFFFFFFFFFFFFFFFF AND PUSH20 0xFFFFFFFFFFFFFFFFFFFFFFFFFFFFFFFFFFFFFFFF AND DUP2 MSTORE PUSH1 0x20 ADD SWAP1 DUP2 MSTORE PUSH1 0x20 ADD PUSH1 0x0 KECCAK256 SWAP1 POP PUSH1 0x1 ISZERO ISZERO DUP2 PUSH1 0x4 ADD PUSH1 0x0 SWAP1 SLOAD SWAP1 PUSH2 0x100 EXP SWAP1 DIV PUSH1 0xFF AND ISZERO ISZERO EQ ISZERO PUSH2 0x34FA JUMPI PUSH2 0x34F1 DUP5 DUP3 PUSH1 0x1 ADD SLOAD PUSH2 0x3964 SWAP1 SWAP2 SWAP1 PUSH4 0xFFFFFFFF AND JUMP JUMPDEST DUP2 PUSH1 0x1 ADD DUP2 SWAP1 SSTORE POP JUMPDEST PUSH2 0x3508 DUP8 DUP8 DUP8 DUP8 DUP8 DUP8 PUSH2 0x3BC1 JUMP JUMPDEST POP POP POP POP POP POP POP JUMP JUMPDEST PUSH1 0x0 DUP4 DUP4 GT ISZERO DUP3 SWAP1 PUSH2 0x3559 JUMPI PUSH1 0x40 MLOAD PUSH32 0x8C379A000000000000000000000000000000000000000000000000000000000 DUP2 MSTORE PUSH1 0x4 ADD PUSH2 0x3550 SWAP2 SWAP1 PUSH2 0x5386 JUMP JUMPDEST PUSH1 0x40 MLOAD DUP1 SWAP2 SUB SWAP1 REVERT JUMPDEST POP PUSH1 0x0 DUP4 DUP6 SUB SWAP1 POP DUP1 SWAP2 POP POP SWAP4 SWAP3 POP POP POP JUMP JUMPDEST PUSH1 0x0 DUP1 PUSH1 0x0 SWAP1 SLOAD SWAP1 PUSH2 0x100 EXP SWAP1 DIV PUSH20 0xFFFFFFFFFFFFFFFFFFFFFFFFFFFFFFFFFFFFFFFF AND PUSH20 0xFFFFFFFFFFFFFFFFFFFFFFFFFFFFFFFFFFFFFFFF AND PUSH4 0xAABBB8CA DUP8 PUSH32 0xB281FC8C12954D22544DB45DE3159A39272895B169A852B314F9CC762E44C53B PUSH1 0x0 SHL PUSH1 0x40 MLOAD DUP4 PUSH4 0xFFFFFFFF AND PUSH1 0xE0 SHL DUP2 MSTORE PUSH1 0x4 ADD PUSH2 0x35ED SWAP3 SWAP2 SWAP1 PUSH2 0x5291 JUMP JUMPDEST PUSH1 0x20 PUSH1 0x40 MLOAD DUP1 DUP4 SUB DUP2 DUP7 DUP1 EXTCODESIZE ISZERO DUP1 ISZERO PUSH2 0x3605 JUMPI PUSH1 0x0 DUP1 REVERT JUMPDEST POP GAS STATICCALL ISZERO DUP1 ISZERO PUSH2 0x3619 JUMPI RETURNDATASIZE PUSH1 0x0 DUP1 RETURNDATACOPY RETURNDATASIZE PUSH1 0x0 REVERT JUMPDEST POP POP POP POP PUSH1 0x40 MLOAD RETURNDATASIZE PUSH1 0x1F NOT PUSH1 0x1F DUP3 ADD AND DUP3 ADD DUP1 PUSH1 0x40 MSTORE POP PUSH2 0x363D SWAP2 SWAP1 DUP2 ADD SWAP1 PUSH2 0x438B JUMP JUMPDEST SWAP1 POP PUSH1 0x0 PUSH20 0xFFFFFFFFFFFFFFFFFFFFFFFFFFFFFFFFFFFFFFFF AND DUP2 PUSH20 0xFFFFFFFFFFFFFFFFFFFFFFFFFFFFFFFFFFFFFFFF AND EQ PUSH2 0x36EC JUMPI DUP1 PUSH20 0xFFFFFFFFFFFFFFFFFFFFFFFFFFFFFFFFFFFFFFFF AND PUSH3 0x23DE29 DUP10 DUP10 DUP10 DUP10 DUP10 DUP10 PUSH1 0x40 MLOAD DUP8 PUSH4 0xFFFFFFFF AND PUSH1 0xE0 SHL DUP2 MSTORE PUSH1 0x4 ADD PUSH2 0x36B5 SWAP7 SWAP6 SWAP5 SWAP4 SWAP3 SWAP2 SWAP1 PUSH2 0x51EB JUMP JUMPDEST PUSH1 0x0 PUSH1 0x40 MLOAD DUP1 DUP4 SUB DUP2 PUSH1 0x0 DUP8 DUP1 EXTCODESIZE ISZERO DUP1 ISZERO PUSH2 0x36CF JUMPI PUSH1 0x0 DUP1 REVERT JUMPDEST POP GAS CALL ISZERO DUP1 ISZERO PUSH2 0x36E3 JUMPI RETURNDATASIZE PUSH1 0x0 DUP1 RETURNDATACOPY RETURNDATASIZE PUSH1 0x0 REVERT JUMPDEST POP POP POP POP PUSH2 0x3753 JUMP JUMPDEST DUP2 ISZERO PUSH2 0x3752 JUMPI PUSH2 0x3711 DUP7 PUSH20 0xFFFFFFFFFFFFFFFFFFFFFFFFFFFFFFFFFFFFFFFF AND PUSH2 0x3DF2 JUMP JUMPDEST ISZERO PUSH2 0x3751 JUMPI PUSH1 0x40 MLOAD PUSH32 0x8C379A000000000000000000000000000000000000000000000000000000000 DUP2 MSTORE PUSH1 0x4 ADD PUSH2 0x3748 SWAP1 PUSH2 0x54C8 JUMP JUMPDEST PUSH1 0x40 MLOAD DUP1 SWAP2 SUB SWAP1 REVERT JUMPDEST JUMPDEST JUMPDEST POP POP POP POP POP POP POP POP JUMP JUMPDEST PUSH1 0x0 PUSH20 0xFFFFFFFFFFFFFFFFFFFFFFFFFFFFFFFFFFFFFFFF AND DUP5 PUSH20 0xFFFFFFFFFFFFFFFFFFFFFFFFFFFFFFFFFFFFFFFF AND EQ ISZERO PUSH2 0x37CD JUMPI PUSH1 0x40 MLOAD PUSH32 0x8C379A000000000000000000000000000000000000000000000000000000000 DUP2 MSTORE PUSH1 0x4 ADD PUSH2 0x37C4 SWAP1 PUSH2 0x5488 JUMP JUMPDEST PUSH1 0x40 MLOAD DUP1 SWAP2 SUB SWAP1 REVERT JUMPDEST PUSH2 0x37E2 DUP4 PUSH1 0x2 SLOAD PUSH2 0x3964 SWAP1 SWAP2 SWAP1 PUSH4 0xFFFFFFFF AND JUMP JUMPDEST PUSH1 0x2 DUP2 SWAP1 SSTORE POP PUSH2 0x383A DUP4 PUSH1 0x1 PUSH1 0x0 DUP8 PUSH20 0xFFFFFFFFFFFFFFFFFFFFFFFFFFFFFFFFFFFFFFFF AND PUSH20 0xFFFFFFFFFFFFFFFFFFFFFFFFFFFFFFFFFFFFFFFF AND DUP2 MSTORE PUSH1 0x20 ADD SWAP1 DUP2 MSTORE PUSH1 0x20 ADD PUSH1 0x0 KECCAK256 SLOAD PUSH2 0x3964 SWAP1 SWAP2 SWAP1 PUSH4 0xFFFFFFFF AND JUMP JUMPDEST PUSH1 0x1 PUSH1 0x0 DUP7 PUSH20 0xFFFFFFFFFFFFFFFFFFFFFFFFFFFFFFFFFFFFFFFF AND PUSH20 0xFFFFFFFFFFFFFFFFFFFFFFFFFFFFFFFFFFFFFFFF AND DUP2 MSTORE PUSH1 0x20 ADD SWAP1 DUP2 MSTORE PUSH1 0x20 ADD PUSH1 0x0 KECCAK256 DUP2 SWAP1 SSTORE POP PUSH2 0x388E DUP6 PUSH1 0x0 DUP7 DUP7 DUP7 DUP7 PUSH1 0x1 PUSH2 0x356C JUMP JUMPDEST DUP4 PUSH20 0xFFFFFFFFFFFFFFFFFFFFFFFFFFFFFFFFFFFFFFFF AND DUP6 PUSH20 0xFFFFFFFFFFFFFFFFFFFFFFFFFFFFFFFFFFFFFFFF AND PUSH32 0x2FE5BE0146F74C5BCE36C0B80911AF6C7D86FF27E89D5CFA61FC681327954E5D DUP6 DUP6 DUP6 PUSH1 0x40 MLOAD PUSH2 0x38EF SWAP4 SWAP3 SWAP2 SWAP1 PUSH2 0x55C3 JUMP JUMPDEST PUSH1 0x40 MLOAD DUP1 SWAP2 SUB SWAP1 LOG3 DUP4 PUSH20 0xFFFFFFFFFFFFFFFFFFFFFFFFFFFFFFFFFFFFFFFF AND PUSH1 0x0 PUSH20 0xFFFFFFFFFFFFFFFFFFFFFFFFFFFFFFFFFFFFFFFF AND PUSH32 0xDDF252AD1BE2C89B69C2B068FC378DAA952BA7F163C4A11628F55A4DF523B3EF DUP6 PUSH1 0x40 MLOAD PUSH2 0x3955 SWAP2 SWAP1 PUSH2 0x55A8 JUMP JUMPDEST PUSH1 0x40 MLOAD DUP1 SWAP2 SUB SWAP1 LOG3 POP POP POP POP POP JUMP JUMPDEST PUSH1 0x0 DUP1 DUP3 DUP5 ADD SWAP1 POP DUP4 DUP2 LT ISZERO PUSH2 0x39AF JUMPI PUSH1 0x40 MLOAD PUSH32 0x8C379A000000000000000000000000000000000000000000000000000000000 DUP2 MSTORE PUSH1 0x4 ADD PUSH2 0x39A6 SWAP1 PUSH2 0x53E8 JUMP JUMPDEST PUSH1 0x40 MLOAD DUP1 SWAP2 SUB SWAP1 REVERT JUMPDEST DUP1 SWAP2 POP POP SWAP3 SWAP2 POP POP JUMP JUMPDEST PUSH1 0x0 PUSH20 0xFFFFFFFFFFFFFFFFFFFFFFFFFFFFFFFFFFFFFFFF AND DUP7 PUSH20 0xFFFFFFFFFFFFFFFFFFFFFFFFFFFFFFFFFFFFFFFF AND EQ ISZERO PUSH2 0x3A29 JUMPI PUSH1 0x40 MLOAD PUSH32 0x8C379A000000000000000000000000000000000000000000000000000000000 DUP2 MSTORE PUSH1 0x4 ADD PUSH2 0x3A20 SWAP1 PUSH2 0x53A8 JUMP JUMPDEST PUSH1 0x40 MLOAD DUP1 SWAP2 SUB SWAP1 REVERT JUMPDEST PUSH1 0x0 PUSH20 0xFFFFFFFFFFFFFFFFFFFFFFFFFFFFFFFFFFFFFFFF AND DUP6 PUSH20 0xFFFFFFFFFFFFFFFFFFFFFFFFFFFFFFFFFFFFFFFF AND EQ ISZERO PUSH2 0x3A99 JUMPI PUSH1 0x40 MLOAD PUSH32 0x8C379A000000000000000000000000000000000000000000000000000000000 DUP2 MSTORE PUSH1 0x4 ADD PUSH2 0x3A90 SWAP1 PUSH2 0x5568 JUMP JUMPDEST PUSH1 0x40 MLOAD DUP1 SWAP2 SUB SWAP1 REVERT JUMPDEST PUSH2 0x3AA7 DUP8 DUP8 DUP8 DUP8 DUP8 DUP8 PUSH2 0x32E1 JUMP JUMPDEST PUSH2 0x3AB5 DUP8 DUP8 DUP8 DUP8 DUP8 DUP8 PUSH2 0x3467 JUMP JUMPDEST PUSH2 0x3AC4 DUP8 DUP8 DUP8 DUP8 DUP8 DUP8 DUP8 PUSH2 0x356C JUMP JUMPDEST POP POP POP POP POP POP POP JUMP JUMPDEST PUSH1 0x0 PUSH2 0x3B0F DUP4 DUP4 PUSH1 0x40 MLOAD DUP1 PUSH1 0x40 ADD PUSH1 0x40 MSTORE DUP1 PUSH1 0x1E DUP2 MSTORE PUSH1 0x20 ADD PUSH32 0x536166654D6174683A207375627472616374696F6E206F766572666C6F770000 DUP2 MSTORE POP PUSH2 0x3511 JUMP JUMPDEST SWAP1 POP SWAP3 SWAP2 POP POP JUMP JUMPDEST PUSH1 0x0 PUSH1 0x1 PUSH1 0x0 DUP4 PUSH20 0xFFFFFFFFFFFFFFFFFFFFFFFFFFFFFFFFFFFFFFFF AND PUSH20 0xFFFFFFFFFFFFFFFFFFFFFFFFFFFFFFFFFFFFFFFF AND DUP2 MSTORE PUSH1 0x20 ADD SWAP1 DUP2 MSTORE PUSH1 0x20 ADD PUSH1 0x0 KECCAK256 SLOAD SWAP1 POP SWAP2 SWAP1 POP JUMP JUMPDEST PUSH1 0x0 DUP1 DUP4 GT DUP3 SWAP1 PUSH2 0x3BA7 JUMPI PUSH1 0x40 MLOAD PUSH32 0x8C379A000000000000000000000000000000000000000000000000000000000 DUP2 MSTORE PUSH1 0x4 ADD PUSH2 0x3B9E SWAP2 SWAP1 PUSH2 0x5386 JUMP JUMPDEST PUSH1 0x40 MLOAD DUP1 SWAP2 SUB SWAP1 REVERT JUMPDEST POP PUSH1 0x0 DUP4 DUP6 DUP2 PUSH2 0x3BB3 JUMPI INVALID JUMPDEST DIV SWAP1 POP DUP1 SWAP2 POP POP SWAP4 SWAP3 POP POP POP JUMP JUMPDEST PUSH2 0x3C2D DUP4 PUSH1 0x40 MLOAD DUP1 PUSH1 0x60 ADD PUSH1 0x40 MSTORE DUP1 PUSH1 0x27 DUP2 MSTORE PUSH1 0x20 ADD PUSH2 0x5A0A PUSH1 0x27 SWAP2 CODECOPY PUSH1 0x1 PUSH1 0x0 DUP10 PUSH20 0xFFFFFFFFFFFFFFFFFFFFFFFFFFFFFFFFFFFFFFFF AND PUSH20 0xFFFFFFFFFFFFFFFFFFFFFFFFFFFFFFFFFFFFFFFF AND DUP2 MSTORE PUSH1 0x20 ADD SWAP1 DUP2 MSTORE PUSH1 0x20 ADD PUSH1 0x0 KECCAK256 SLOAD PUSH2 0x3511 SWAP1 SWAP3 SWAP2 SWAP1 PUSH4 0xFFFFFFFF AND JUMP JUMPDEST PUSH1 0x1 PUSH1 0x0 DUP8 PUSH20 0xFFFFFFFFFFFFFFFFFFFFFFFFFFFFFFFFFFFFFFFF AND PUSH20 0xFFFFFFFFFFFFFFFFFFFFFFFFFFFFFFFFFFFFFFFF AND DUP2 MSTORE PUSH1 0x20 ADD SWAP1 DUP2 MSTORE PUSH1 0x20 ADD PUSH1 0x0 KECCAK256 DUP2 SWAP1 SSTORE POP PUSH2 0x3CC2 DUP4 PUSH1 0x1 PUSH1 0x0 DUP8 PUSH20 0xFFFFFFFFFFFFFFFFFFFFFFFFFFFFFFFFFFFFFFFF AND PUSH20 0xFFFFFFFFFFFFFFFFFFFFFFFFFFFFFFFFFFFFFFFF AND DUP2 MSTORE PUSH1 0x20 ADD SWAP1 DUP2 MSTORE PUSH1 0x20 ADD PUSH1 0x0 KECCAK256 SLOAD PUSH2 0x3964 SWAP1 SWAP2 SWAP1 PUSH4 0xFFFFFFFF AND JUMP JUMPDEST PUSH1 0x1 PUSH1 0x0 DUP7 PUSH20 0xFFFFFFFFFFFFFFFFFFFFFFFFFFFFFFFFFFFFFFFF AND PUSH20 0xFFFFFFFFFFFFFFFFFFFFFFFFFFFFFFFFFFFFFFFF AND DUP2 MSTORE PUSH1 0x20 ADD SWAP1 DUP2 MSTORE PUSH1 0x20 ADD PUSH1 0x0 KECCAK256 DUP2 SWAP1 SSTORE POP DUP4 PUSH20 0xFFFFFFFFFFFFFFFFFFFFFFFFFFFFFFFFFFFFFFFF AND DUP6 PUSH20 0xFFFFFFFFFFFFFFFFFFFFFFFFFFFFFFFFFFFFFFFF AND DUP8 PUSH20 0xFFFFFFFFFFFFFFFFFFFFFFFFFFFFFFFFFFFFFFFF AND PUSH32 0x6B541DDAA720DB2B10A4D0CDAC39B8D360425FC073085FAC19BC82614677987 DUP7 DUP7 DUP7 PUSH1 0x40 MLOAD PUSH2 0x3D7D SWAP4 SWAP3 SWAP2 SWAP1 PUSH2 0x55C3 JUMP JUMPDEST PUSH1 0x40 MLOAD DUP1 SWAP2 SUB SWAP1 LOG4 DUP4 PUSH20 0xFFFFFFFFFFFFFFFFFFFFFFFFFFFFFFFFFFFFFFFF AND DUP6 PUSH20 0xFFFFFFFFFFFFFFFFFFFFFFFFFFFFFFFFFFFFFFFF AND PUSH32 0xDDF252AD1BE2C89B69C2B068FC378DAA952BA7F163C4A11628F55A4DF523B3EF DUP6 PUSH1 0x40 MLOAD PUSH2 0x3DE2 SWAP2 SWAP1 PUSH2 0x55A8 JUMP JUMPDEST PUSH1 0x40 MLOAD DUP1 SWAP2 SUB SWAP1 LOG3 POP POP POP POP POP POP JUMP JUMPDEST PUSH1 0x0 DUP1 PUSH1 0x0 PUSH32 0xC5D2460186F7233C927E7DB2DCC703C0E500B653CA82273B7BFAD8045D85A470 PUSH1 0x0 SHL SWAP1 POP DUP4 EXTCODEHASH SWAP2 POP PUSH1 0x0 DUP1 SHL DUP3 EQ ISZERO DUP1 ISZERO PUSH2 0x3E34 JUMPI POP DUP1 DUP3 EQ ISZERO JUMPDEST SWAP3 POP POP POP SWAP2 SWAP1 POP JUMP JUMPDEST DUP2 SLOAD DUP2 DUP4 SSTORE DUP2 DUP2 GT ISZERO PUSH2 0x3E6A JUMPI PUSH1 0x3 MUL DUP2 PUSH1 0x3 MUL DUP4 PUSH1 0x0 MSTORE PUSH1 0x20 PUSH1 0x0 KECCAK256 SWAP2 DUP3 ADD SWAP2 ADD PUSH2 0x3E69 SWAP2 SWAP1 PUSH2 0x3FAD JUMP JUMPDEST JUMPDEST POP POP POP JUMP JUMPDEST DUP3 DUP1 SLOAD PUSH1 0x1 DUP2 PUSH1 0x1 AND ISZERO PUSH2 0x100 MUL SUB AND PUSH1 0x2 SWAP1 DIV SWAP1 PUSH1 0x0 MSTORE PUSH1 0x20 PUSH1 0x0 KECCAK256 SWAP1 PUSH1 0x1F ADD PUSH1 0x20 SWAP1 DIV DUP2 ADD SWAP3 DUP3 PUSH1 0x1F LT PUSH2 0x3EB0 JUMPI DUP1 MLOAD PUSH1 0xFF NOT AND DUP4 DUP1 ADD OR DUP6 SSTORE PUSH2 0x3EDE JUMP JUMPDEST DUP3 DUP1 ADD PUSH1 0x1 ADD DUP6 SSTORE DUP3 ISZERO PUSH2 0x3EDE JUMPI SWAP2 DUP3 ADD JUMPDEST DUP3 DUP2 GT ISZERO PUSH2 0x3EDD JUMPI DUP3 MLOAD DUP3 SSTORE SWAP2 PUSH1 0x20 ADD SWAP2 SWAP1 PUSH1 0x1 ADD SWAP1 PUSH2 0x3EC2 JUMP JUMPDEST JUMPDEST POP SWAP1 POP PUSH2 0x3EEB SWAP2 SWAP1 PUSH2 0x400B JUMP JUMPDEST POP SWAP1 JUMP JUMPDEST DUP3 DUP1 SLOAD PUSH1 0x1 DUP2 PUSH1 0x1 AND ISZERO PUSH2 0x100 MUL SUB AND PUSH1 0x2 SWAP1 DIV SWAP1 PUSH1 0x0 MSTORE PUSH1 0x20 PUSH1 0x0 KECCAK256 SWAP1 PUSH1 0x1F ADD PUSH1 0x20 SWAP1 DIV DUP2 ADD SWAP3 DUP3 PUSH1 0x1F LT PUSH2 0x3F28 JUMPI DUP1 SLOAD DUP6 SSTORE PUSH2 0x3F65 JUMP JUMPDEST DUP3 DUP1 ADD PUSH1 0x1 ADD DUP6 SSTORE DUP3 ISZERO PUSH2 0x3F65 JUMPI PUSH1 0x0 MSTORE PUSH1 0x20 PUSH1 0x0 KECCAK256 SWAP2 PUSH1 0x1F ADD PUSH1 0x20 SWAP1 DIV DUP3 ADD JUMPDEST DUP3 DUP2 GT ISZERO PUSH2 0x3F64 JUMPI DUP3 SLOAD DUP3 SSTORE SWAP2 PUSH1 0x1 ADD SWAP2 SWAP1 PUSH1 0x1 ADD SWAP1 PUSH2 0x3F49 JUMP JUMPDEST JUMPDEST POP SWAP1 POP PUSH2 0x3F72 SWAP2 SWAP1 PUSH2 0x400B JUMP JUMPDEST POP SWAP1 JUMP JUMPDEST PUSH1 0x40 MLOAD DUP1 PUSH1 0x60 ADD PUSH1 0x40 MSTORE DUP1 PUSH1 0x0 PUSH20 0xFFFFFFFFFFFFFFFFFFFFFFFFFFFFFFFFFFFFFFFF AND DUP2 MSTORE PUSH1 0x20 ADD PUSH1 0x0 DUP2 MSTORE PUSH1 0x20 ADD PUSH1 0x60 DUP2 MSTORE POP SWAP1 JUMP JUMPDEST PUSH2 0x4008 SWAP2 SWAP1 JUMPDEST DUP1 DUP3 GT ISZERO PUSH2 0x4004 JUMPI PUSH1 0x0 DUP1 DUP3 ADD PUSH1 0x0 PUSH2 0x100 EXP DUP2 SLOAD SWAP1 PUSH20 0xFFFFFFFFFFFFFFFFFFFFFFFFFFFFFFFFFFFFFFFF MUL NOT AND SWAP1 SSTORE PUSH1 0x1 DUP3 ADD PUSH1 0x0 SWAP1 SSTORE PUSH1 0x2 DUP3 ADD PUSH1 0x0 PUSH2 0x3FFB SWAP2 SWAP1 PUSH2 0x4030 JUMP JUMPDEST POP PUSH1 0x3 ADD PUSH2 0x3FB3 JUMP JUMPDEST POP SWAP1 JUMP JUMPDEST SWAP1 JUMP JUMPDEST PUSH2 0x402D SWAP2 SWAP1 JUMPDEST DUP1 DUP3 GT ISZERO PUSH2 0x4029 JUMPI PUSH1 0x0 DUP2 PUSH1 0x0 SWAP1 SSTORE POP PUSH1 0x1 ADD PUSH2 0x4011 JUMP JUMPDEST POP SWAP1 JUMP JUMPDEST SWAP1 JUMP JUMPDEST POP DUP1 SLOAD PUSH1 0x1 DUP2 PUSH1 0x1 AND ISZERO PUSH2 0x100 MUL SUB AND PUSH1 0x2 SWAP1 DIV PUSH1 0x0 DUP3 SSTORE DUP1 PUSH1 0x1F LT PUSH2 0x4056 JUMPI POP PUSH2 0x4075 JUMP JUMPDEST PUSH1 0x1F ADD PUSH1 0x20 SWAP1 DIV SWAP1 PUSH1 0x0 MSTORE PUSH1 0x20 PUSH1 0x0 KECCAK256 SWAP1 DUP2 ADD SWAP1 PUSH2 0x4074 SWAP2 SWAP1 PUSH2 0x400B JUMP JUMPDEST JUMPDEST POP JUMP JUMPDEST PUSH1 0x0 DUP2 CALLDATALOAD SWAP1 POP PUSH2 0x4087 DUP2 PUSH2 0x59C4 JUMP JUMPDEST SWAP3 SWAP2 POP POP JUMP JUMPDEST PUSH1 0x0 DUP2 MLOAD SWAP1 POP PUSH2 0x409C DUP2 PUSH2 0x59C4 JUMP JUMPDEST SWAP3 SWAP2 POP POP JUMP JUMPDEST PUSH1 0x0 DUP3 PUSH1 0x1F DUP4 ADD SLT PUSH2 0x40B3 JUMPI PUSH1 0x0 DUP1 REVERT JUMPDEST DUP2 CALLDATALOAD PUSH2 0x40C6 PUSH2 0x40C1 DUP3 PUSH2 0x571F JUMP JUMPDEST PUSH2 0x56F2 JUMP JUMPDEST SWAP2 POP DUP2 DUP2 DUP4 MSTORE PUSH1 0x20 DUP5 ADD SWAP4 POP PUSH1 0x20 DUP2 ADD SWAP1 POP DUP4 DUP6 PUSH1 0x20 DUP5 MUL DUP3 ADD GT ISZERO PUSH2 0x40EB JUMPI PUSH1 0x0 DUP1 REVERT JUMPDEST PUSH1 0x0 JUMPDEST DUP4 DUP2 LT ISZERO PUSH2 0x411B JUMPI DUP2 PUSH2 0x4101 DUP9 DUP3 PUSH2 0x4078 JUMP JUMPDEST DUP5 MSTORE PUSH1 0x20 DUP5 ADD SWAP4 POP PUSH1 0x20 DUP4 ADD SWAP3 POP POP PUSH1 0x1 DUP2 ADD SWAP1 POP PUSH2 0x40EE JUMP JUMPDEST POP POP POP POP SWAP3 SWAP2 POP POP JUMP JUMPDEST PUSH1 0x0 DUP3 PUSH1 0x1F DUP4 ADD SLT PUSH2 0x4136 JUMPI PUSH1 0x0 DUP1 REVERT JUMPDEST DUP2 CALLDATALOAD PUSH2 0x4149 PUSH2 0x4144 DUP3 PUSH2 0x5747 JUMP JUMPDEST PUSH2 0x56F2 JUMP JUMPDEST SWAP2 POP DUP2 DUP2 DUP4 MSTORE PUSH1 0x20 DUP5 ADD SWAP4 POP PUSH1 0x20 DUP2 ADD SWAP1 POP DUP4 PUSH1 0x0 JUMPDEST DUP4 DUP2 LT ISZERO PUSH2 0x418F JUMPI DUP2 CALLDATALOAD DUP7 ADD PUSH2 0x4175 DUP9 DUP3 PUSH2 0x4290 JUMP JUMPDEST DUP5 MSTORE PUSH1 0x20 DUP5 ADD SWAP4 POP PUSH1 0x20 DUP4 ADD SWAP3 POP POP PUSH1 0x1 DUP2 ADD SWAP1 POP PUSH2 0x415F JUMP JUMPDEST POP POP POP POP SWAP3 SWAP2 POP POP JUMP JUMPDEST PUSH1 0x0 DUP3 PUSH1 0x1F DUP4 ADD SLT PUSH2 0x41AA JUMPI PUSH1 0x0 DUP1 REVERT JUMPDEST DUP2 CALLDATALOAD PUSH2 0x41BD PUSH2 0x41B8 DUP3 PUSH2 0x576F JUMP JUMPDEST PUSH2 0x56F2 JUMP JUMPDEST SWAP2 POP DUP2 DUP2 DUP4 MSTORE PUSH1 0x20 DUP5 ADD SWAP4 POP PUSH1 0x20 DUP2 ADD SWAP1 POP DUP4 DUP6 PUSH1 0x20 DUP5 MUL DUP3 ADD GT ISZERO PUSH2 0x41E2 JUMPI PUSH1 0x0 DUP1 REVERT JUMPDEST PUSH1 0x0 JUMPDEST DUP4 DUP2 LT ISZERO PUSH2 0x4212 JUMPI DUP2 PUSH2 0x41F8 DUP9 DUP3 PUSH2 0x4338 JUMP JUMPDEST DUP5 MSTORE PUSH1 0x20 DUP5 ADD SWAP4 POP PUSH1 0x20 DUP4 ADD SWAP3 POP POP PUSH1 0x1 DUP2 ADD SWAP1 POP PUSH2 0x41E5 JUMP JUMPDEST POP POP POP POP SWAP3 SWAP2 POP POP JUMP JUMPDEST PUSH1 0x0 DUP2 CALLDATALOAD SWAP1 POP PUSH2 0x422B DUP2 PUSH2 0x59DB JUMP JUMPDEST SWAP3 SWAP2 POP POP JUMP JUMPDEST PUSH1 0x0 DUP2 MLOAD SWAP1 POP PUSH2 0x4240 DUP2 PUSH2 0x59DB JUMP JUMPDEST SWAP3 SWAP2 POP POP JUMP JUMPDEST PUSH1 0x0 DUP1 DUP4 PUSH1 0x1F DUP5 ADD SLT PUSH2 0x4258 JUMPI PUSH1 0x0 DUP1 REVERT JUMPDEST DUP3 CALLDATALOAD SWAP1 POP PUSH8 0xFFFFFFFFFFFFFFFF DUP2 GT ISZERO PUSH2 0x4271 JUMPI PUSH1 0x0 DUP1 REVERT JUMPDEST PUSH1 0x20 DUP4 ADD SWAP2 POP DUP4 PUSH1 0x1 DUP3 MUL DUP4 ADD GT ISZERO PUSH2 0x4289 JUMPI PUSH1 0x0 DUP1 REVERT JUMPDEST SWAP3 POP SWAP3 SWAP1 POP JUMP JUMPDEST PUSH1 0x0 DUP3 PUSH1 0x1F DUP4 ADD SLT PUSH2 0x42A1 JUMPI PUSH1 0x0 DUP1 REVERT JUMPDEST DUP2 CALLDATALOAD PUSH2 0x42B4 PUSH2 0x42AF DUP3 PUSH2 0x5797 JUMP JUMPDEST PUSH2 0x56F2 JUMP JUMPDEST SWAP2 POP DUP1 DUP3 MSTORE PUSH1 0x20 DUP4 ADD PUSH1 0x20 DUP4 ADD DUP6 DUP4 DUP4 ADD GT ISZERO PUSH2 0x42D0 JUMPI PUSH1 0x0 DUP1 REVERT JUMPDEST PUSH2 0x42DB DUP4 DUP3 DUP5 PUSH2 0x5971 JUMP JUMPDEST POP POP POP SWAP3 SWAP2 POP POP JUMP JUMPDEST PUSH1 0x0 DUP3 PUSH1 0x1F DUP4 ADD SLT PUSH2 0x42F5 JUMPI PUSH1 0x0 DUP1 REVERT JUMPDEST DUP2 CALLDATALOAD PUSH2 0x4308 PUSH2 0x4303 DUP3 PUSH2 0x57C3 JUMP JUMPDEST PUSH2 0x56F2 JUMP JUMPDEST SWAP2 POP DUP1 DUP3 MSTORE PUSH1 0x20 DUP4 ADD PUSH1 0x20 DUP4 ADD DUP6 DUP4 DUP4 ADD GT ISZERO PUSH2 0x4324 JUMPI PUSH1 0x0 DUP1 REVERT JUMPDEST PUSH2 0x432F DUP4 DUP3 DUP5 PUSH2 0x5971 JUMP JUMPDEST POP POP POP SWAP3 SWAP2 POP POP JUMP JUMPDEST PUSH1 0x0 DUP2 CALLDATALOAD SWAP1 POP PUSH2 0x4347 DUP2 PUSH2 0x59F2 JUMP JUMPDEST SWAP3 SWAP2 POP POP JUMP JUMPDEST PUSH1 0x0 DUP2 MLOAD SWAP1 POP PUSH2 0x435C DUP2 PUSH2 0x59F2 JUMP JUMPDEST SWAP3 SWAP2 POP POP JUMP JUMPDEST PUSH1 0x0 PUSH1 0x20 DUP3 DUP5 SUB SLT ISZERO PUSH2 0x4374 JUMPI PUSH1 0x0 DUP1 REVERT JUMPDEST PUSH1 0x0 PUSH2 0x4382 DUP5 DUP3 DUP6 ADD PUSH2 0x4078 JUMP JUMPDEST SWAP2 POP POP SWAP3 SWAP2 POP POP JUMP JUMPDEST PUSH1 0x0 PUSH1 0x20 DUP3 DUP5 SUB SLT ISZERO PUSH2 0x439D JUMPI PUSH1 0x0 DUP1 REVERT JUMPDEST PUSH1 0x0 PUSH2 0x43AB DUP5 DUP3 DUP6 ADD PUSH2 0x408D JUMP JUMPDEST SWAP2 POP POP SWAP3 SWAP2 POP POP JUMP JUMPDEST PUSH1 0x0 DUP1 PUSH1 0x40 DUP4 DUP6 SUB SLT ISZERO PUSH2 0x43C7 JUMPI PUSH1 0x0 DUP1 REVERT JUMPDEST PUSH1 0x0 PUSH2 0x43D5 DUP6 DUP3 DUP7 ADD PUSH2 0x4078 JUMP JUMPDEST SWAP3 POP POP PUSH1 0x20 PUSH2 0x43E6 DUP6 DUP3 DUP7 ADD PUSH2 0x4078 JUMP JUMPDEST SWAP2 POP POP SWAP3 POP SWAP3 SWAP1 POP JUMP JUMPDEST PUSH1 0x0 DUP1 PUSH1 0x0 PUSH1 0x60 DUP5 DUP7 SUB SLT ISZERO PUSH2 0x4405 JUMPI PUSH1 0x0 DUP1 REVERT JUMPDEST PUSH1 0x0 PUSH2 0x4413 DUP7 DUP3 DUP8 ADD PUSH2 0x4078 JUMP JUMPDEST SWAP4 POP POP PUSH1 0x20 PUSH2 0x4424 DUP7 DUP3 DUP8 ADD PUSH2 0x4078 JUMP JUMPDEST SWAP3 POP POP PUSH1 0x40 PUSH2 0x4435 DUP7 DUP3 DUP8 ADD PUSH2 0x4338 JUMP JUMPDEST SWAP2 POP POP SWAP3 POP SWAP3 POP SWAP3 JUMP JUMPDEST PUSH1 0x0 DUP1 PUSH1 0x0 DUP1 PUSH1 0x0 DUP1 PUSH1 0x0 PUSH1 0xA0 DUP9 DUP11 SUB SLT ISZERO PUSH2 0x445A JUMPI PUSH1 0x0 DUP1 REVERT JUMPDEST PUSH1 0x0 PUSH2 0x4468 DUP11 DUP3 DUP12 ADD PUSH2 0x4078 JUMP JUMPDEST SWAP8 POP POP PUSH1 0x20 PUSH2 0x4479 DUP11 DUP3 DUP12 ADD PUSH2 0x4078 JUMP JUMPDEST SWAP7 POP POP PUSH1 0x40 PUSH2 0x448A DUP11 DUP3 DUP12 ADD PUSH2 0x4338 JUMP JUMPDEST SWAP6 POP POP PUSH1 0x60 DUP9 ADD CALLDATALOAD PUSH8 0xFFFFFFFFFFFFFFFF DUP2 GT ISZERO PUSH2 0x44A7 JUMPI PUSH1 0x0 DUP1 REVERT JUMPDEST PUSH2 0x44B3 DUP11 DUP3 DUP12 ADD PUSH2 0x4246 JUMP JUMPDEST SWAP5 POP SWAP5 POP POP PUSH1 0x80 DUP9 ADD CALLDATALOAD PUSH8 0xFFFFFFFFFFFFFFFF DUP2 GT ISZERO PUSH2 0x44D2 JUMPI PUSH1 0x0 DUP1 REVERT JUMPDEST PUSH2 0x44DE DUP11 DUP3 DUP12 ADD PUSH2 0x4246 JUMP JUMPDEST SWAP3 POP SWAP3 POP POP SWAP3 SWAP6 SWAP9 SWAP2 SWAP5 SWAP8 POP SWAP3 SWAP6 POP JUMP JUMPDEST PUSH1 0x0 DUP1 PUSH1 0x40 DUP4 DUP6 SUB SLT ISZERO PUSH2 0x4502 JUMPI PUSH1 0x0 DUP1 REVERT JUMPDEST PUSH1 0x0 PUSH2 0x4510 DUP6 DUP3 DUP7 ADD PUSH2 0x4078 JUMP JUMPDEST SWAP3 POP POP PUSH1 0x20 PUSH2 0x4521 DUP6 DUP3 DUP7 ADD PUSH2 0x421C JUMP JUMPDEST SWAP2 POP POP SWAP3 POP SWAP3 SWAP1 POP JUMP JUMPDEST PUSH1 0x0 DUP1 PUSH1 0x40 DUP4 DUP6 SUB SLT ISZERO PUSH2 0x453E JUMPI PUSH1 0x0 DUP1 REVERT JUMPDEST PUSH1 0x0 PUSH2 0x454C DUP6 DUP3 DUP7 ADD PUSH2 0x4078 JUMP JUMPDEST SWAP3 POP POP PUSH1 0x20 PUSH2 0x455D DUP6 DUP3 DUP7 ADD PUSH2 0x4338 JUMP JUMPDEST SWAP2 POP POP SWAP3 POP SWAP3 SWAP1 POP JUMP JUMPDEST PUSH1 0x0 DUP1 PUSH1 0x0 DUP1 PUSH1 0x60 DUP6 DUP8 SUB SLT ISZERO PUSH2 0x457D JUMPI PUSH1 0x0 DUP1 REVERT JUMPDEST PUSH1 0x0 PUSH2 0x458B DUP8 DUP3 DUP9 ADD PUSH2 0x4078 JUMP JUMPDEST SWAP5 POP POP PUSH1 0x20 PUSH2 0x459C DUP8 DUP3 DUP9 ADD PUSH2 0x4338 JUMP JUMPDEST SWAP4 POP POP PUSH1 0x40 DUP6 ADD CALLDATALOAD PUSH8 0xFFFFFFFFFFFFFFFF DUP2 GT ISZERO PUSH2 0x45B9 JUMPI PUSH1 0x0 DUP1 REVERT JUMPDEST PUSH2 0x45C5 DUP8 DUP3 DUP9 ADD PUSH2 0x4246 JUMP JUMPDEST SWAP3 POP SWAP3 POP POP SWAP3 SWAP6 SWAP2 SWAP5 POP SWAP3 POP JUMP JUMPDEST PUSH1 0x0 DUP1 PUSH1 0x0 DUP1 PUSH1 0x0 DUP1 PUSH1 0x80 DUP8 DUP10 SUB SLT ISZERO PUSH2 0x45EC JUMPI PUSH1 0x0 DUP1 REVERT JUMPDEST PUSH1 0x0 PUSH2 0x45FA DUP10 DUP3 DUP11 ADD PUSH2 0x4078 JUMP JUMPDEST SWAP7 POP POP PUSH1 0x20 PUSH2 0x460B DUP10 DUP3 DUP11 ADD PUSH2 0x4338 JUMP JUMPDEST SWAP6 POP POP PUSH1 0x40 DUP8 ADD CALLDATALOAD PUSH8 0xFFFFFFFFFFFFFFFF DUP2 GT ISZERO PUSH2 0x4628 JUMPI PUSH1 0x0 DUP1 REVERT JUMPDEST PUSH2 0x4634 DUP10 DUP3 DUP11 ADD PUSH2 0x4246 JUMP JUMPDEST SWAP5 POP SWAP5 POP POP PUSH1 0x60 DUP8 ADD CALLDATALOAD PUSH8 0xFFFFFFFFFFFFFFFF DUP2 GT ISZERO PUSH2 0x4653 JUMPI PUSH1 0x0 DUP1 REVERT JUMPDEST PUSH2 0x465F DUP10 DUP3 DUP11 ADD PUSH2 0x4246 JUMP JUMPDEST SWAP3 POP SWAP3 POP POP SWAP3 SWAP6 POP SWAP3 SWAP6 POP SWAP3 SWAP6 JUMP JUMPDEST PUSH1 0x0 DUP1 PUSH1 0x0 PUSH1 0x60 DUP5 DUP7 SUB SLT ISZERO PUSH2 0x4683 JUMPI PUSH1 0x0 DUP1 REVERT JUMPDEST PUSH1 0x0 PUSH2 0x4691 DUP7 DUP3 DUP8 ADD PUSH2 0x4078 JUMP JUMPDEST SWAP4 POP POP PUSH1 0x20 PUSH2 0x46A2 DUP7 DUP3 DUP8 ADD PUSH2 0x4338 JUMP JUMPDEST SWAP3 POP POP PUSH1 0x40 DUP5 ADD CALLDATALOAD PUSH8 0xFFFFFFFFFFFFFFFF DUP2 GT ISZERO PUSH2 0x46BF JUMPI PUSH1 0x0 DUP1 REVERT JUMPDEST PUSH2 0x46CB DUP7 DUP3 DUP8 ADD PUSH2 0x42E4 JUMP JUMPDEST SWAP2 POP POP SWAP3 POP SWAP3 POP SWAP3 JUMP JUMPDEST PUSH1 0x0 DUP1 PUSH1 0x0 PUSH1 0x60 DUP5 DUP7 SUB SLT ISZERO PUSH2 0x46EA JUMPI PUSH1 0x0 DUP1 REVERT JUMPDEST PUSH1 0x0 DUP5 ADD CALLDATALOAD PUSH8 0xFFFFFFFFFFFFFFFF DUP2 GT ISZERO PUSH2 0x4704 JUMPI PUSH1 0x0 DUP1 REVERT JUMPDEST PUSH2 0x4710 DUP7 DUP3 DUP8 ADD PUSH2 0x40A2 JUMP JUMPDEST SWAP4 POP POP PUSH1 0x20 DUP5 ADD CALLDATALOAD PUSH8 0xFFFFFFFFFFFFFFFF DUP2 GT ISZERO PUSH2 0x472D JUMPI PUSH1 0x0 DUP1 REVERT JUMPDEST PUSH2 0x4739 DUP7 DUP3 DUP8 ADD PUSH2 0x4199 JUMP JUMPDEST SWAP3 POP POP PUSH1 0x40 DUP5 ADD CALLDATALOAD PUSH8 0xFFFFFFFFFFFFFFFF DUP2 GT ISZERO PUSH2 0x4756 JUMPI PUSH1 0x0 DUP1 REVERT JUMPDEST PUSH2 0x4762 DUP7 DUP3 DUP8 ADD PUSH2 0x4125 JUMP JUMPDEST SWAP2 POP POP SWAP3 POP SWAP3 POP SWAP3 JUMP JUMPDEST PUSH1 0x0 PUSH1 0x20 DUP3 DUP5 SUB SLT ISZERO PUSH2 0x477E JUMPI PUSH1 0x0 DUP1 REVERT JUMPDEST PUSH1 0x0 PUSH2 0x478C DUP5 DUP3 DUP6 ADD PUSH2 0x421C JUMP JUMPDEST SWAP2 POP POP SWAP3 SWAP2 POP POP JUMP JUMPDEST PUSH1 0x0 PUSH1 0x20 DUP3 DUP5 SUB SLT ISZERO PUSH2 0x47A7 JUMPI PUSH1 0x0 DUP1 REVERT JUMPDEST PUSH1 0x0 PUSH2 0x47B5 DUP5 DUP3 DUP6 ADD PUSH2 0x4231 JUMP JUMPDEST SWAP2 POP POP SWAP3 SWAP2 POP POP JUMP JUMPDEST PUSH1 0x0 PUSH1 0x20 DUP3 DUP5 SUB SLT ISZERO PUSH2 0x47D0 JUMPI PUSH1 0x0 DUP1 REVERT JUMPDEST PUSH1 0x0 PUSH2 0x47DE DUP5 DUP3 DUP6 ADD PUSH2 0x4338 JUMP JUMPDEST SWAP2 POP POP SWAP3 SWAP2 POP POP JUMP JUMPDEST PUSH1 0x0 PUSH1 0x20 DUP3 DUP5 SUB SLT ISZERO PUSH2 0x47F9 JUMPI PUSH1 0x0 DUP1 REVERT JUMPDEST PUSH1 0x0 PUSH2 0x4807 DUP5 DUP3 DUP6 ADD PUSH2 0x434D JUMP JUMPDEST SWAP2 POP POP SWAP3 SWAP2 POP POP JUMP JUMPDEST PUSH1 0x0 DUP1 PUSH1 0x0 DUP1 PUSH1 0x80 DUP6 DUP8 SUB SLT ISZERO PUSH2 0x4826 JUMPI PUSH1 0x0 DUP1 REVERT JUMPDEST PUSH1 0x0 PUSH2 0x4834 DUP8 DUP3 DUP9 ADD PUSH2 0x4338 JUMP JUMPDEST SWAP5 POP POP PUSH1 0x20 DUP6 ADD CALLDATALOAD PUSH8 0xFFFFFFFFFFFFFFFF DUP2 GT ISZERO PUSH2 0x4851 JUMPI PUSH1 0x0 DUP1 REVERT JUMPDEST PUSH2 0x485D DUP8 DUP3 DUP9 ADD PUSH2 0x40A2 JUMP JUMPDEST SWAP4 POP POP PUSH1 0x40 DUP6 ADD CALLDATALOAD PUSH8 0xFFFFFFFFFFFFFFFF DUP2 GT ISZERO PUSH2 0x487A JUMPI PUSH1 0x0 DUP1 REVERT JUMPDEST PUSH2 0x4886 DUP8 DUP3 DUP9 ADD PUSH2 0x4199 JUMP JUMPDEST SWAP3 POP POP PUSH1 0x60 DUP6 ADD CALLDATALOAD PUSH8 0xFFFFFFFFFFFFFFFF DUP2 GT ISZERO PUSH2 0x48A3 JUMPI PUSH1 0x0 DUP1 REVERT JUMPDEST PUSH2 0x48AF DUP8 DUP3 DUP9 ADD PUSH2 0x4125 JUMP JUMPDEST SWAP2 POP POP SWAP3 SWAP6 SWAP2 SWAP5 POP SWAP3 POP JUMP JUMPDEST PUSH1 0x0 DUP1 PUSH1 0x0 PUSH1 0x40 DUP5 DUP7 SUB SLT ISZERO PUSH2 0x48D0 JUMPI PUSH1 0x0 DUP1 REVERT JUMPDEST PUSH1 0x0 PUSH2 0x48DE DUP7 DUP3 DUP8 ADD PUSH2 0x4338 JUMP JUMPDEST SWAP4 POP POP PUSH1 0x20 DUP5 ADD CALLDATALOAD PUSH8 0xFFFFFFFFFFFFFFFF DUP2 GT ISZERO PUSH2 0x48FB JUMPI PUSH1 0x0 DUP1 REVERT JUMPDEST PUSH2 0x4907 DUP7 DUP3 DUP8 ADD PUSH2 0x4246 JUMP JUMPDEST SWAP3 POP SWAP3 POP POP SWAP3 POP SWAP3 POP SWAP3 JUMP JUMPDEST PUSH1 0x0 PUSH2 0x491F DUP4 DUP4 PUSH2 0x493F JUMP JUMPDEST PUSH1 0x20 DUP4 ADD SWAP1 POP SWAP3 SWAP2 POP POP JUMP JUMPDEST PUSH1 0x0 PUSH2 0x4937 DUP4 DUP4 PUSH2 0x516E JUMP JUMPDEST SWAP1 POP SWAP3 SWAP2 POP POP JUMP JUMPDEST PUSH2 0x4948 DUP2 PUSH2 0x58CA JUMP JUMPDEST DUP3 MSTORE POP POP JUMP JUMPDEST PUSH2 0x4957 DUP2 PUSH2 0x58CA JUMP JUMPDEST DUP3 MSTORE POP POP JUMP JUMPDEST PUSH1 0x0 PUSH2 0x4968 DUP3 PUSH2 0x5824 JUMP JUMPDEST PUSH2 0x4972 DUP2 DUP6 PUSH2 0x5875 JUMP JUMPDEST SWAP4 POP PUSH2 0x497D DUP4 PUSH2 0x57EF JUMP JUMPDEST DUP1 PUSH1 0x0 JUMPDEST DUP4 DUP2 LT ISZERO PUSH2 0x49AE JUMPI DUP2 MLOAD PUSH2 0x4995 DUP9 DUP3 PUSH2 0x4913 JUMP JUMPDEST SWAP8 POP PUSH2 0x49A0 DUP4 PUSH2 0x585B JUMP JUMPDEST SWAP3 POP POP PUSH1 0x1 DUP2 ADD SWAP1 POP PUSH2 0x4981 JUMP JUMPDEST POP DUP6 SWAP4 POP POP POP POP SWAP3 SWAP2 POP POP JUMP JUMPDEST PUSH1 0x0 PUSH2 0x49C6 DUP3 PUSH2 0x582F JUMP JUMPDEST PUSH2 0x49D0 DUP2 DUP6 PUSH2 0x5886 JUMP JUMPDEST SWAP4 POP DUP4 PUSH1 0x20 DUP3 MUL DUP6 ADD PUSH2 0x49E2 DUP6 PUSH2 0x57FF JUMP JUMPDEST DUP1 PUSH1 0x0 JUMPDEST DUP6 DUP2 LT ISZERO PUSH2 0x4A1E JUMPI DUP5 DUP5 SUB DUP10 MSTORE DUP2 MLOAD PUSH2 0x49FF DUP6 DUP3 PUSH2 0x492B JUMP JUMPDEST SWAP5 POP PUSH2 0x4A0A DUP4 PUSH2 0x5868 JUMP JUMPDEST SWAP3 POP PUSH1 0x20 DUP11 ADD SWAP10 POP POP PUSH1 0x1 DUP2 ADD SWAP1 POP PUSH2 0x49E6 JUMP JUMPDEST POP DUP3 SWAP8 POP DUP8 SWAP6 POP POP POP POP POP POP SWAP3 SWAP2 POP POP JUMP JUMPDEST PUSH2 0x4A39 DUP2 PUSH2 0x58DC JUMP JUMPDEST DUP3 MSTORE POP POP JUMP JUMPDEST PUSH2 0x4A48 DUP2 PUSH2 0x58E8 JUMP JUMPDEST DUP3 MSTORE POP POP JUMP JUMPDEST PUSH1 0x0 PUSH2 0x4A59 DUP3 PUSH2 0x5845 JUMP JUMPDEST PUSH2 0x4A63 DUP2 DUP6 PUSH2 0x58A8 JUMP JUMPDEST SWAP4 POP PUSH2 0x4A73 DUP2 DUP6 PUSH1 0x20 DUP7 ADD PUSH2 0x5980 JUMP JUMPDEST PUSH2 0x4A7C DUP2 PUSH2 0x59B3 JUMP JUMPDEST DUP5 ADD SWAP2 POP POP SWAP3 SWAP2 POP POP JUMP JUMPDEST PUSH1 0x0 PUSH2 0x4A92 DUP3 PUSH2 0x583A JUMP JUMPDEST PUSH2 0x4A9C DUP2 DUP6 PUSH2 0x5897 JUMP JUMPDEST SWAP4 POP PUSH2 0x4AAC DUP2 DUP6 PUSH1 0x20 DUP7 ADD PUSH2 0x5980 JUMP JUMPDEST PUSH2 0x4AB5 DUP2 PUSH2 0x59B3 JUMP JUMPDEST DUP5 ADD SWAP2 POP POP SWAP3 SWAP2 POP POP JUMP JUMPDEST PUSH1 0x0 DUP2 SLOAD PUSH1 0x1 DUP2 AND PUSH1 0x0 DUP2 EQ PUSH2 0x4ADD JUMPI PUSH1 0x1 DUP2 EQ PUSH2 0x4B03 JUMPI PUSH2 0x4B47 JUMP JUMPDEST PUSH1 0x7F PUSH1 0x2 DUP4 DIV AND PUSH2 0x4AEE DUP2 DUP8 PUSH2 0x58A8 JUMP JUMPDEST SWAP6 POP PUSH1 0xFF NOT DUP4 AND DUP7 MSTORE PUSH1 0x20 DUP7 ADD SWAP4 POP POP PUSH2 0x4B47 JUMP JUMPDEST PUSH1 0x2 DUP3 DIV PUSH2 0x4B11 DUP2 DUP8 PUSH2 0x58A8 JUMP JUMPDEST SWAP6 POP PUSH2 0x4B1C DUP6 PUSH2 0x580F JUMP JUMPDEST PUSH1 0x0 JUMPDEST DUP3 DUP2 LT ISZERO PUSH2 0x4B3E JUMPI DUP2 SLOAD DUP2 DUP10 ADD MSTORE PUSH1 0x1 DUP3 ADD SWAP2 POP PUSH1 0x20 DUP2 ADD SWAP1 POP PUSH2 0x4B1F JUMP JUMPDEST DUP1 DUP9 ADD SWAP6 POP POP POP POP JUMPDEST POP POP SWAP3 SWAP2 POP POP JUMP JUMPDEST PUSH2 0x4B58 DUP2 PUSH2 0x5929 JUMP JUMPDEST DUP3 MSTORE POP POP JUMP JUMPDEST PUSH2 0x4B67 DUP2 PUSH2 0x594D JUMP JUMPDEST DUP3 MSTORE POP POP JUMP JUMPDEST PUSH1 0x0 PUSH2 0x4B78 DUP3 PUSH2 0x5850 JUMP JUMPDEST PUSH2 0x4B82 DUP2 DUP6 PUSH2 0x58B9 JUMP JUMPDEST SWAP4 POP PUSH2 0x4B92 DUP2 DUP6 PUSH1 0x20 DUP7 ADD PUSH2 0x5980 JUMP JUMPDEST PUSH2 0x4B9B DUP2 PUSH2 0x59B3 JUMP JUMPDEST DUP5 ADD SWAP2 POP POP SWAP3 SWAP2 POP POP JUMP JUMPDEST PUSH1 0x0 PUSH2 0x4BB3 PUSH1 0x22 DUP4 PUSH2 0x58B9 JUMP JUMPDEST SWAP2 POP PUSH32 0x4552433737373A2073656E642066726F6D20746865207A65726F206164647265 PUSH1 0x0 DUP4 ADD MSTORE PUSH32 0x7373000000000000000000000000000000000000000000000000000000000000 PUSH1 0x20 DUP4 ADD MSTORE PUSH1 0x40 DUP3 ADD SWAP1 POP SWAP2 SWAP1 POP JUMP JUMPDEST PUSH1 0x0 PUSH2 0x4C19 PUSH1 0x1A DUP4 PUSH2 0x58B9 JUMP JUMPDEST SWAP2 POP PUSH32 0x444441492E6D696E743A205452414E534645525F4641494C4544000000000000 PUSH1 0x0 DUP4 ADD MSTORE PUSH1 0x20 DUP3 ADD SWAP1 POP SWAP2 SWAP1 POP JUMP JUMPDEST PUSH1 0x0 PUSH2 0x4C59 PUSH1 0x1B DUP4 PUSH2 0x58B9 JUMP JUMPDEST SWAP2 POP PUSH32 0x536166654D6174683A206164646974696F6E206F766572666C6F770000000000 PUSH1 0x0 DUP4 ADD MSTORE PUSH1 0x20 DUP3 ADD SWAP1 POP SWAP2 SWAP1 POP JUMP JUMPDEST PUSH1 0x0 PUSH2 0x4C99 PUSH1 0x22 DUP4 PUSH2 0x58B9 JUMP JUMPDEST SWAP2 POP PUSH32 0x4552433737373A206275726E2066726F6D20746865207A65726F206164647265 PUSH1 0x0 DUP4 ADD MSTORE PUSH32 0x7373000000000000000000000000000000000000000000000000000000000000 PUSH1 0x20 DUP4 ADD MSTORE PUSH1 0x40 DUP3 ADD SWAP1 POP SWAP2 SWAP1 POP JUMP JUMPDEST PUSH1 0x0 PUSH2 0x4CFF PUSH1 0x1D DUP4 PUSH2 0x58B9 JUMP JUMPDEST SWAP2 POP PUSH32 0x444441492E70757368546F537461636B3A204E4F545F414C4C4F574544000000 PUSH1 0x0 DUP4 ADD MSTORE PUSH1 0x20 DUP3 ADD SWAP1 POP SWAP2 SWAP1 POP JUMP JUMPDEST PUSH1 0x0 PUSH2 0x4D3F PUSH1 0x24 DUP4 PUSH2 0x58B9 JUMP JUMPDEST SWAP2 POP PUSH32 0x4552433737373A20617574686F72697A696E672073656C66206173206F706572 PUSH1 0x0 DUP4 ADD MSTORE PUSH32 0x61746F7200000000000000000000000000000000000000000000000000000000 PUSH1 0x20 DUP4 ADD MSTORE PUSH1 0x40 DUP3 ADD SWAP1 POP SWAP2 SWAP1 POP JUMP JUMPDEST PUSH1 0x0 PUSH2 0x4DA5 PUSH1 0x21 DUP4 PUSH2 0x58B9 JUMP JUMPDEST SWAP2 POP PUSH32 0x4552433737373A207265766F6B696E672073656C66206173206F70657261746F PUSH1 0x0 DUP4 ADD MSTORE PUSH32 0x7200000000000000000000000000000000000000000000000000000000000000 PUSH1 0x20 DUP4 ADD MSTORE PUSH1 0x40 DUP3 ADD SWAP1 POP SWAP2 SWAP1 POP JUMP JUMPDEST PUSH1 0x0 PUSH2 0x4E0B PUSH1 0x20 DUP4 PUSH2 0x58B9 JUMP JUMPDEST SWAP2 POP PUSH32 0x4552433737373A206D696E7420746F20746865207A65726F2061646472657373 PUSH1 0x0 DUP4 ADD MSTORE PUSH1 0x20 DUP3 ADD SWAP1 POP SWAP2 SWAP1 POP JUMP JUMPDEST PUSH1 0x0 PUSH2 0x4E4B PUSH1 0x21 DUP4 PUSH2 0x58B9 JUMP JUMPDEST SWAP2 POP PUSH32 0x536166654D6174683A206D756C7469706C69636174696F6E206F766572666C6F PUSH1 0x0 DUP4 ADD MSTORE PUSH32 0x7700000000000000000000000000000000000000000000000000000000000000 PUSH1 0x20 DUP4 ADD MSTORE PUSH1 0x40 DUP3 ADD SWAP1 POP SWAP2 SWAP1 POP JUMP JUMPDEST PUSH1 0x0 PUSH2 0x4EB1 PUSH1 0x4D DUP4 PUSH2 0x58B9 JUMP JUMPDEST SWAP2 POP PUSH32 0x4552433737373A20746F6B656E20726563697069656E7420636F6E7472616374 PUSH1 0x0 DUP4 ADD MSTORE PUSH32 0x20686173206E6F20696D706C656D656E74657220666F7220455243373737546F PUSH1 0x20 DUP4 ADD MSTORE PUSH32 0x6B656E73526563697069656E7400000000000000000000000000000000000000 PUSH1 0x40 DUP4 ADD MSTORE PUSH1 0x60 DUP3 ADD SWAP1 POP SWAP2 SWAP1 POP JUMP JUMPDEST PUSH1 0x0 PUSH2 0x4F3D PUSH1 0x24 DUP4 PUSH2 0x58B9 JUMP JUMPDEST SWAP2 POP PUSH32 0x4552433737373A207472616E7366657220746F20746865207A65726F20616464 PUSH1 0x0 DUP4 ADD MSTORE PUSH32 0x7265737300000000000000000000000000000000000000000000000000000000 PUSH1 0x20 DUP4 ADD MSTORE PUSH1 0x40 DUP3 ADD SWAP1 POP SWAP2 SWAP1 POP JUMP JUMPDEST PUSH1 0x0 PUSH2 0x4FA3 PUSH1 0x24 DUP4 PUSH2 0x58B9 JUMP JUMPDEST SWAP2 POP PUSH32 0x444441492E72656465656D3A204D4F4E45595F4D41524B45545F4E4F545F4C49 PUSH1 0x0 DUP4 ADD MSTORE PUSH32 0x5155494400000000000000000000000000000000000000000000000000000000 PUSH1 0x20 DUP4 ADD MSTORE PUSH1 0x40 DUP3 ADD SWAP1 POP SWAP2 SWAP1 POP JUMP JUMPDEST PUSH1 0x0 PUSH2 0x5009 PUSH1 0x2C DUP4 PUSH2 0x58B9 JUMP JUMPDEST SWAP2 POP PUSH32 0x4552433737373A2063616C6C6572206973206E6F7420616E206F70657261746F PUSH1 0x0 DUP4 ADD MSTORE PUSH32 0x7220666F7220686F6C6465720000000000000000000000000000000000000000 PUSH1 0x20 DUP4 ADD MSTORE PUSH1 0x40 DUP3 ADD SWAP1 POP SWAP2 SWAP1 POP JUMP JUMPDEST PUSH1 0x0 PUSH2 0x506F PUSH1 0x26 DUP4 PUSH2 0x58B9 JUMP JUMPDEST SWAP2 POP PUSH32 0x4552433737373A207472616E736665722066726F6D20746865207A65726F2061 PUSH1 0x0 DUP4 ADD MSTORE PUSH32 0x6464726573730000000000000000000000000000000000000000000000000000 PUSH1 0x20 DUP4 ADD MSTORE PUSH1 0x40 DUP3 ADD SWAP1 POP SWAP2 SWAP1 POP JUMP JUMPDEST PUSH1 0x0 PUSH2 0x50D5 PUSH1 0x20 DUP4 PUSH2 0x58B9 JUMP JUMPDEST SWAP2 POP PUSH32 0x4552433737373A2073656E6420746F20746865207A65726F2061646472657373 PUSH1 0x0 DUP4 ADD MSTORE PUSH1 0x20 DUP3 ADD SWAP1 POP SWAP2 SWAP1 POP JUMP JUMPDEST PUSH1 0x0 PUSH2 0x5115 PUSH1 0x23 DUP4 PUSH2 0x58B9 JUMP JUMPDEST SWAP2 POP PUSH32 0x4552433737373A20617070726F766520746F20746865207A65726F2061646472 PUSH1 0x0 DUP4 ADD MSTORE PUSH32 0x6573730000000000000000000000000000000000000000000000000000000000 PUSH1 0x20 DUP4 ADD MSTORE PUSH1 0x40 DUP3 ADD SWAP1 POP SWAP2 SWAP1 POP JUMP JUMPDEST PUSH1 0x0 PUSH1 0x60 DUP4 ADD PUSH1 0x0 DUP4 ADD MLOAD PUSH2 0x5186 PUSH1 0x0 DUP7 ADD DUP3 PUSH2 0x493F JUMP JUMPDEST POP PUSH1 0x20 DUP4 ADD MLOAD PUSH2 0x5199 PUSH1 0x20 DUP7 ADD DUP3 PUSH2 0x51BE JUMP JUMPDEST POP PUSH1 0x40 DUP4 ADD MLOAD DUP5 DUP3 SUB PUSH1 0x40 DUP7 ADD MSTORE PUSH2 0x51B1 DUP3 DUP3 PUSH2 0x4A87 JUMP JUMPDEST SWAP2 POP POP DUP1 SWAP2 POP POP SWAP3 SWAP2 POP POP JUMP JUMPDEST PUSH2 0x51C7 DUP2 PUSH2 0x5912 JUMP JUMPDEST DUP3 MSTORE POP POP JUMP JUMPDEST PUSH2 0x51D6 DUP2 PUSH2 0x5912 JUMP JUMPDEST DUP3 MSTORE POP POP JUMP JUMPDEST PUSH2 0x51E5 DUP2 PUSH2 0x591C JUMP JUMPDEST DUP3 MSTORE POP POP JUMP JUMPDEST PUSH1 0x0 PUSH1 0xC0 DUP3 ADD SWAP1 POP PUSH2 0x5200 PUSH1 0x0 DUP4 ADD DUP10 PUSH2 0x494E JUMP JUMPDEST PUSH2 0x520D PUSH1 0x20 DUP4 ADD DUP9 PUSH2 0x494E JUMP JUMPDEST PUSH2 0x521A PUSH1 0x40 DUP4 ADD DUP8 PUSH2 0x494E JUMP JUMPDEST PUSH2 0x5227 PUSH1 0x60 DUP4 ADD DUP7 PUSH2 0x51CD JUMP JUMPDEST DUP2 DUP2 SUB PUSH1 0x80 DUP4 ADD MSTORE PUSH2 0x5239 DUP2 DUP6 PUSH2 0x4A4E JUMP JUMPDEST SWAP1 POP DUP2 DUP2 SUB PUSH1 0xA0 DUP4 ADD MSTORE PUSH2 0x524D DUP2 DUP5 PUSH2 0x4A4E JUMP JUMPDEST SWAP1 POP SWAP8 SWAP7 POP POP POP POP POP POP POP JUMP JUMPDEST PUSH1 0x0 PUSH1 0x60 DUP3 ADD SWAP1 POP PUSH2 0x526F PUSH1 0x0 DUP4 ADD DUP7 PUSH2 0x494E JUMP JUMPDEST PUSH2 0x527C PUSH1 0x20 DUP4 ADD DUP6 PUSH2 0x494E JUMP JUMPDEST PUSH2 0x5289 PUSH1 0x40 DUP4 ADD DUP5 PUSH2 0x51CD JUMP JUMPDEST SWAP5 SWAP4 POP POP POP POP JUMP JUMPDEST PUSH1 0x0 PUSH1 0x40 DUP3 ADD SWAP1 POP PUSH2 0x52A6 PUSH1 0x0 DUP4 ADD DUP6 PUSH2 0x494E JUMP JUMPDEST PUSH2 0x52B3 PUSH1 0x20 DUP4 ADD DUP5 PUSH2 0x4A3F JUMP JUMPDEST SWAP4 SWAP3 POP POP POP JUMP JUMPDEST PUSH1 0x0 PUSH1 0x40 DUP3 ADD SWAP1 POP PUSH2 0x52CF PUSH1 0x0 DUP4 ADD DUP6 PUSH2 0x494E JUMP JUMPDEST PUSH2 0x52DC PUSH1 0x20 DUP4 ADD DUP5 PUSH2 0x51CD JUMP JUMPDEST SWAP4 SWAP3 POP POP POP JUMP JUMPDEST PUSH1 0x0 PUSH1 0x20 DUP3 ADD SWAP1 POP DUP2 DUP2 SUB PUSH1 0x0 DUP4 ADD MSTORE PUSH2 0x52FD DUP2 DUP5 PUSH2 0x495D JUMP JUMPDEST SWAP1 POP SWAP3 SWAP2 POP POP JUMP JUMPDEST PUSH1 0x0 PUSH1 0x40 DUP3 ADD SWAP1 POP DUP2 DUP2 SUB PUSH1 0x0 DUP4 ADD MSTORE PUSH2 0x531F DUP2 DUP6 PUSH2 0x49BB JUMP JUMPDEST SWAP1 POP PUSH2 0x532E PUSH1 0x20 DUP4 ADD DUP5 PUSH2 0x51CD JUMP JUMPDEST SWAP4 SWAP3 POP POP POP JUMP JUMPDEST PUSH1 0x0 PUSH1 0x20 DUP3 ADD SWAP1 POP PUSH2 0x534A PUSH1 0x0 DUP4 ADD DUP5 PUSH2 0x4A30 JUMP JUMPDEST SWAP3 SWAP2 POP POP JUMP JUMPDEST PUSH1 0x0 PUSH1 0x20 DUP3 ADD SWAP1 POP PUSH2 0x5365 PUSH1 0x0 DUP4 ADD DUP5 PUSH2 0x4B4F JUMP JUMPDEST SWAP3 SWAP2 POP POP JUMP JUMPDEST PUSH1 0x0 PUSH1 0x20 DUP3 ADD SWAP1 POP PUSH2 0x5380 PUSH1 0x0 DUP4 ADD DUP5 PUSH2 0x4B5E JUMP JUMPDEST SWAP3 SWAP2 POP POP JUMP JUMPDEST PUSH1 0x0 PUSH1 0x20 DUP3 ADD SWAP1 POP DUP2 DUP2 SUB PUSH1 0x0 DUP4 ADD MSTORE PUSH2 0x53A0 DUP2 DUP5 PUSH2 0x4B6D JUMP JUMPDEST SWAP1 POP SWAP3 SWAP2 POP POP JUMP JUMPDEST PUSH1 0x0 PUSH1 0x20 DUP3 ADD SWAP1 POP DUP2 DUP2 SUB PUSH1 0x0 DUP4 ADD MSTORE PUSH2 0x53C1 DUP2 PUSH2 0x4BA6 JUMP JUMPDEST SWAP1 POP SWAP2 SWAP1 POP JUMP JUMPDEST PUSH1 0x0 PUSH1 0x20 DUP3 ADD SWAP1 POP DUP2 DUP2 SUB PUSH1 0x0 DUP4 ADD MSTORE PUSH2 0x53E1 DUP2 PUSH2 0x4C0C JUMP JUMPDEST SWAP1 POP SWAP2 SWAP1 POP JUMP JUMPDEST PUSH1 0x0 PUSH1 0x20 DUP3 ADD SWAP1 POP DUP2 DUP2 SUB PUSH1 0x0 DUP4 ADD MSTORE PUSH2 0x5401 DUP2 PUSH2 0x4C4C JUMP JUMPDEST SWAP1 POP SWAP2 SWAP1 POP JUMP JUMPDEST PUSH1 0x0 PUSH1 0x20 DUP3 ADD SWAP1 POP DUP2 DUP2 SUB PUSH1 0x0 DUP4 ADD MSTORE PUSH2 0x5421 DUP2 PUSH2 0x4C8C JUMP JUMPDEST SWAP1 POP SWAP2 SWAP1 POP JUMP JUMPDEST PUSH1 0x0 PUSH1 0x20 DUP3 ADD SWAP1 POP DUP2 DUP2 SUB PUSH1 0x0 DUP4 ADD MSTORE PUSH2 0x5441 DUP2 PUSH2 0x4CF2 JUMP JUMPDEST SWAP1 POP SWAP2 SWAP1 POP JUMP JUMPDEST PUSH1 0x0 PUSH1 0x20 DUP3 ADD SWAP1 POP DUP2 DUP2 SUB PUSH1 0x0 DUP4 ADD MSTORE PUSH2 0x5461 DUP2 PUSH2 0x4D32 JUMP JUMPDEST SWAP1 POP SWAP2 SWAP1 POP JUMP JUMPDEST PUSH1 0x0 PUSH1 0x20 DUP3 ADD SWAP1 POP DUP2 DUP2 SUB PUSH1 0x0 DUP4 ADD MSTORE PUSH2 0x5481 DUP2 PUSH2 0x4D98 JUMP JUMPDEST SWAP1 POP SWAP2 SWAP1 POP JUMP JUMPDEST PUSH1 0x0 PUSH1 0x20 DUP3 ADD SWAP1 POP DUP2 DUP2 SUB PUSH1 0x0 DUP4 ADD MSTORE PUSH2 0x54A1 DUP2 PUSH2 0x4DFE JUMP JUMPDEST SWAP1 POP SWAP2 SWAP1 POP JUMP JUMPDEST PUSH1 0x0 PUSH1 0x20 DUP3 ADD SWAP1 POP DUP2 DUP2 SUB PUSH1 0x0 DUP4 ADD MSTORE PUSH2 0x54C1 DUP2 PUSH2 0x4E3E JUMP JUMPDEST SWAP1 POP SWAP2 SWAP1 POP JUMP JUMPDEST PUSH1 0x0 PUSH1 0x20 DUP3 ADD SWAP1 POP DUP2 DUP2 SUB PUSH1 0x0 DUP4 ADD MSTORE PUSH2 0x54E1 DUP2 PUSH2 0x4EA4 JUMP JUMPDEST SWAP1 POP SWAP2 SWAP1 POP JUMP JUMPDEST PUSH1 0x0 PUSH1 0x20 DUP3 ADD SWAP1 POP DUP2 DUP2 SUB PUSH1 0x0 DUP4 ADD MSTORE PUSH2 0x5501 DUP2 PUSH2 0x4F30 JUMP JUMPDEST SWAP1 POP SWAP2 SWAP1 POP JUMP JUMPDEST PUSH1 0x0 PUSH1 0x20 DUP3 ADD SWAP1 POP DUP2 DUP2 SUB PUSH1 0x0 DUP4 ADD MSTORE PUSH2 0x5521 DUP2 PUSH2 0x4F96 JUMP JUMPDEST SWAP1 POP SWAP2 SWAP1 POP JUMP JUMPDEST PUSH1 0x0 PUSH1 0x20 DUP3 ADD SWAP1 POP DUP2 DUP2 SUB PUSH1 0x0 DUP4 ADD MSTORE PUSH2 0x5541 DUP2 PUSH2 0x4FFC JUMP JUMPDEST SWAP1 POP SWAP2 SWAP1 POP JUMP JUMPDEST PUSH1 0x0 PUSH1 0x20 DUP3 ADD SWAP1 POP DUP2 DUP2 SUB PUSH1 0x0 DUP4 ADD MSTORE PUSH2 0x5561 DUP2 PUSH2 0x5062 JUMP JUMPDEST SWAP1 POP SWAP2 SWAP1 POP JUMP JUMPDEST PUSH1 0x0 PUSH1 0x20 DUP3 ADD SWAP1 POP DUP2 DUP2 SUB PUSH1 0x0 DUP4 ADD MSTORE PUSH2 0x5581 DUP2 PUSH2 0x50C8 JUMP JUMPDEST SWAP1 POP SWAP2 SWAP1 POP JUMP JUMPDEST PUSH1 0x0 PUSH1 0x20 DUP3 ADD SWAP1 POP DUP2 DUP2 SUB PUSH1 0x0 DUP4 ADD MSTORE PUSH2 0x55A1 DUP2 PUSH2 0x5108 JUMP JUMPDEST SWAP1 POP SWAP2 SWAP1 POP JUMP JUMPDEST PUSH1 0x0 PUSH1 0x20 DUP3 ADD SWAP1 POP PUSH2 0x55BD PUSH1 0x0 DUP4 ADD DUP5 PUSH2 0x51CD JUMP JUMPDEST SWAP3 SWAP2 POP POP JUMP JUMPDEST PUSH1 0x0 PUSH1 0x60 DUP3 ADD SWAP1 POP PUSH2 0x55D8 PUSH1 0x0 DUP4 ADD DUP7 PUSH2 0x51CD JUMP JUMPDEST DUP2 DUP2 SUB PUSH1 0x20 DUP4 ADD MSTORE PUSH2 0x55EA DUP2 DUP6 PUSH2 0x4A4E JUMP JUMPDEST SWAP1 POP DUP2 DUP2 SUB PUSH1 0x40 DUP4 ADD MSTORE PUSH2 0x55FE DUP2 DUP5 PUSH2 0x4A4E JUMP JUMPDEST SWAP1 POP SWAP5 SWAP4 POP POP POP POP JUMP JUMPDEST PUSH1 0x0 PUSH1 0x60 DUP3 ADD SWAP1 POP PUSH2 0x561D PUSH1 0x0 DUP4 ADD DUP7 PUSH2 0x51CD JUMP JUMPDEST DUP2 DUP2 SUB PUSH1 0x20 DUP4 ADD MSTORE PUSH2 0x562F DUP2 DUP6 PUSH2 0x4A4E JUMP JUMPDEST SWAP1 POP PUSH2 0x563E PUSH1 0x40 DUP4 ADD DUP5 PUSH2 0x51CD JUMP JUMPDEST SWAP5 SWAP4 POP POP POP POP JUMP JUMPDEST PUSH1 0x0 PUSH1 0x60 DUP3 ADD SWAP1 POP PUSH2 0x565B PUSH1 0x0 DUP4 ADD DUP7 PUSH2 0x51CD JUMP JUMPDEST DUP2 DUP2 SUB PUSH1 0x20 DUP4 ADD MSTORE PUSH2 0x566D DUP2 DUP6 PUSH2 0x4AC0 JUMP JUMPDEST SWAP1 POP PUSH2 0x567C PUSH1 0x40 DUP4 ADD DUP5 PUSH2 0x51CD JUMP JUMPDEST SWAP5 SWAP4 POP POP POP POP JUMP JUMPDEST PUSH1 0x0 PUSH1 0xA0 DUP3 ADD SWAP1 POP PUSH2 0x5699 PUSH1 0x0 DUP4 ADD DUP9 PUSH2 0x51CD JUMP JUMPDEST PUSH2 0x56A6 PUSH1 0x20 DUP4 ADD DUP8 PUSH2 0x51CD JUMP JUMPDEST PUSH2 0x56B3 PUSH1 0x40 DUP4 ADD DUP7 PUSH2 0x51CD JUMP JUMPDEST PUSH2 0x56C0 PUSH1 0x60 DUP4 ADD DUP6 PUSH2 0x4A30 JUMP JUMPDEST PUSH2 0x56CD PUSH1 0x80 DUP4 ADD DUP5 PUSH2 0x4A30 JUMP JUMPDEST SWAP7 SWAP6 POP POP POP POP POP POP JUMP JUMPDEST PUSH1 0x0 PUSH1 0x20 DUP3 ADD SWAP1 POP PUSH2 0x56EC PUSH1 0x0 DUP4 ADD DUP5 PUSH2 0x51DC JUMP JUMPDEST SWAP3 SWAP2 POP POP JUMP JUMPDEST PUSH1 0x0 PUSH1 0x40 MLOAD SWAP1 POP DUP2 DUP2 ADD DUP2 DUP2 LT PUSH8 0xFFFFFFFFFFFFFFFF DUP3 GT OR ISZERO PUSH2 0x5715 JUMPI PUSH1 0x0 DUP1 REVERT JUMPDEST DUP1 PUSH1 0x40 MSTORE POP SWAP2 SWAP1 POP JUMP JUMPDEST PUSH1 0x0 PUSH8 0xFFFFFFFFFFFFFFFF DUP3 GT ISZERO PUSH2 0x5736 JUMPI PUSH1 0x0 DUP1 REVERT JUMPDEST PUSH1 0x20 DUP3 MUL SWAP1 POP PUSH1 0x20 DUP2 ADD SWAP1 POP SWAP2 SWAP1 POP JUMP JUMPDEST PUSH1 0x0 PUSH8 0xFFFFFFFFFFFFFFFF DUP3 GT ISZERO PUSH2 0x575E JUMPI PUSH1 0x0 DUP1 REVERT JUMPDEST PUSH1 0x20 DUP3 MUL SWAP1 POP PUSH1 0x20 DUP2 ADD SWAP1 POP SWAP2 SWAP1 POP JUMP JUMPDEST PUSH1 0x0 PUSH8 0xFFFFFFFFFFFFFFFF DUP3 GT ISZERO PUSH2 0x5786 JUMPI PUSH1 0x0 DUP1 REVERT JUMPDEST PUSH1 0x20 DUP3 MUL SWAP1 POP PUSH1 0x20 DUP2 ADD SWAP1 POP SWAP2 SWAP1 POP JUMP JUMPDEST PUSH1 0x0 PUSH8 0xFFFFFFFFFFFFFFFF DUP3 GT ISZERO PUSH2 0x57AE JUMPI PUSH1 0x0 DUP1 REVERT JUMPDEST PUSH1 0x1F NOT PUSH1 0x1F DUP4 ADD AND SWAP1 POP PUSH1 0x20 DUP2 ADD SWAP1 POP SWAP2 SWAP1 POP JUMP JUMPDEST PUSH1 0x0 PUSH8 0xFFFFFFFFFFFFFFFF DUP3 GT ISZERO PUSH2 0x57DA JUMPI PUSH1 0x0 DUP1 REVERT JUMPDEST PUSH1 0x1F NOT PUSH1 0x1F DUP4 ADD AND SWAP1 POP PUSH1 0x20 DUP2 ADD SWAP1 POP SWAP2 SWAP1 POP JUMP JUMPDEST PUSH1 0x0 DUP2 SWAP1 POP PUSH1 0x20 DUP3 ADD SWAP1 POP SWAP2 SWAP1 POP JUMP JUMPDEST PUSH1 0x0 DUP2 SWAP1 POP PUSH1 0x20 DUP3 ADD SWAP1 POP SWAP2 SWAP1 POP JUMP JUMPDEST PUSH1 0x0 DUP2 SWAP1 POP DUP2 PUSH1 0x0 MSTORE PUSH1 0x20 PUSH1 0x0 KECCAK256 SWAP1 POP SWAP2 SWAP1 POP JUMP JUMPDEST PUSH1 0x0 DUP2 MLOAD SWAP1 POP SWAP2 SWAP1 POP JUMP JUMPDEST PUSH1 0x0 DUP2 MLOAD SWAP1 POP SWAP2 SWAP1 POP JUMP JUMPDEST PUSH1 0x0 DUP2 MLOAD SWAP1 POP SWAP2 SWAP1 POP JUMP JUMPDEST PUSH1 0x0 DUP2 MLOAD SWAP1 POP SWAP2 SWAP1 POP JUMP JUMPDEST PUSH1 0x0 DUP2 MLOAD SWAP1 POP SWAP2 SWAP1 POP JUMP JUMPDEST PUSH1 0x0 PUSH1 0x20 DUP3 ADD SWAP1 POP SWAP2 SWAP1 POP JUMP JUMPDEST PUSH1 0x0 PUSH1 0x20 DUP3 ADD SWAP1 POP SWAP2 SWAP1 POP JUMP JUMPDEST PUSH1 0x0 DUP3 DUP3 MSTORE PUSH1 0x20 DUP3 ADD SWAP1 POP SWAP3 SWAP2 POP POP JUMP JUMPDEST PUSH1 0x0 DUP3 DUP3 MSTORE PUSH1 0x20 DUP3 ADD SWAP1 POP SWAP3 SWAP2 POP POP JUMP JUMPDEST PUSH1 0x0 DUP3 DUP3 MSTORE PUSH1 0x20 DUP3 ADD SWAP1 POP SWAP3 SWAP2 POP POP JUMP JUMPDEST PUSH1 0x0 DUP3 DUP3 MSTORE PUSH1 0x20 DUP3 ADD SWAP1 POP SWAP3 SWAP2 POP POP JUMP JUMPDEST PUSH1 0x0 DUP3 DUP3 MSTORE PUSH1 0x20 DUP3 ADD SWAP1 POP SWAP3 SWAP2 POP POP JUMP JUMPDEST PUSH1 0x0 PUSH2 0x58D5 DUP3 PUSH2 0x58F2 JUMP JUMPDEST SWAP1 POP SWAP2 SWAP1 POP JUMP JUMPDEST PUSH1 0x0 DUP2 ISZERO ISZERO SWAP1 POP SWAP2 SWAP1 POP JUMP JUMPDEST PUSH1 0x0 DUP2 SWAP1 POP SWAP2 SWAP1 POP JUMP JUMPDEST PUSH1 0x0 PUSH20 0xFFFFFFFFFFFFFFFFFFFFFFFFFFFFFFFFFFFFFFFF DUP3 AND SWAP1 POP SWAP2 SWAP1 POP JUMP JUMPDEST PUSH1 0x0 DUP2 SWAP1 POP SWAP2 SWAP1 POP JUMP JUMPDEST PUSH1 0x0 PUSH1 0xFF DUP3 AND SWAP1 POP SWAP2 SWAP1 POP JUMP JUMPDEST PUSH1 0x0 PUSH2 0x5934 DUP3 PUSH2 0x593B JUMP JUMPDEST SWAP1 POP SWAP2 SWAP1 POP JUMP JUMPDEST PUSH1 0x0 PUSH2 0x5946 DUP3 PUSH2 0x58F2 JUMP JUMPDEST SWAP1 POP SWAP2 SWAP1 POP JUMP JUMPDEST PUSH1 0x0 PUSH2 0x5958 DUP3 PUSH2 0x595F JUMP JUMPDEST SWAP1 POP SWAP2 SWAP1 POP JUMP JUMPDEST PUSH1 0x0 PUSH2 0x596A DUP3 PUSH2 0x58F2 JUMP JUMPDEST SWAP1 POP SWAP2 SWAP1 POP JUMP JUMPDEST DUP3 DUP2 DUP4 CALLDATACOPY PUSH1 0x0 DUP4 DUP4 ADD MSTORE POP POP POP JUMP JUMPDEST PUSH1 0x0 JUMPDEST DUP4 DUP2 LT ISZERO PUSH2 0x599E JUMPI DUP1 DUP3 ADD MLOAD DUP2 DUP5 ADD MSTORE PUSH1 0x20 DUP2 ADD SWAP1 POP PUSH2 0x5983 JUMP JUMPDEST DUP4 DUP2 GT ISZERO PUSH2 0x59AD JUMPI PUSH1 0x0 DUP5 DUP5 ADD MSTORE JUMPDEST POP POP POP POP JUMP JUMPDEST PUSH1 0x0 PUSH1 0x1F NOT PUSH1 0x1F DUP4 ADD AND SWAP1 POP SWAP2 SWAP1 POP JUMP JUMPDEST PUSH2 0x59CD DUP2 PUSH2 0x58CA JUMP JUMPDEST DUP2 EQ PUSH2 0x59D8 JUMPI PUSH1 0x0 DUP1 REVERT JUMPDEST POP JUMP JUMPDEST PUSH2 0x59E4 DUP2 PUSH2 0x58DC JUMP JUMPDEST DUP2 EQ PUSH2 0x59EF JUMPI PUSH1 0x0 DUP1 REVERT JUMPDEST POP JUMP JUMPDEST PUSH2 0x59FB DUP2 PUSH2 0x5912 JUMP JUMPDEST DUP2 EQ PUSH2 0x5A06 JUMPI PUSH1 0x0 DUP1 REVERT JUMPDEST POP JUMP INVALID GASLIMIT MSTORE NUMBER CALLDATACOPY CALLDATACOPY CALLDATACOPY GASPRICE KECCAK256 PUSH21 0x72616E7366657220616D6F756E7420657863656564 PUSH20 0x2062616C616E63654552433737373A207472616E PUSH20 0x66657220616D6F756E7420657863656564732061 PUSH13 0x6C6F77616E6365455243373737 GASPRICE KECCAK256 PUSH3 0x75726E KECCAK256 PUSH2 0x6D6F PUSH22 0x6E7420657863656564732062616C616E6365A365627A PUSH27 0x72315820F49706511C4C38E2A4679CD56478C2E4FB4838635FA47F SWAP3 INVALID PUSH27 0x67B659196DB26C6578706572696D656E74616CF564736F6C634300 SDIV 0xc STOP BLOCKHASH "
			}
		}
	},
	"sourceTreeHashHex": "0x7c2b1c5da7a8d5a158c85acb221bcd85326b2bbe7eb8307324d5695d7b30d5c2",
	"compiler": {
		"name": "solc",
		"version": "soljson-v0.5.12+commit.7709ece9.js",
		"settings": {
			"optimizer": {
				"enabled": false
			},
			"outputSelection": {
				"*": {
					"*": [
						"abi",
						"evm.bytecode.object",
						"evm.bytecode.sourceMap",
						"evm.deployedBytecode.object",
						"evm.deployedBytecode.sourceMap"
					]
				}
			},
			"remappings": [
				"openzeppelin-solidity=/Users/mickdegraaf/DDAI/node_modules/openzeppelin-solidity"
			]
		}
	}
}