{
	"schemaVersion": "2.0.0",
	"contractName": "DDAIGSNBouncer",
	"compilerOutput": {
		"abi": [
			{
				"inputs": [
					{
						"internalType": "address",
						"name": "_moneyMarket",
						"type": "address"
					},
					{
						"internalType": "address",
						"name": "_token",
						"type": "address"
					},
					{
						"internalType": "string",
						"name": "_name",
						"type": "string"
					},
					{
						"internalType": "string",
						"name": "_symbol",
						"type": "string"
					},
					{
						"internalType": "address[]",
						"name": "_operators",
						"type": "address[]"
					},
					{
						"internalType": "address",
						"name": "_priceFeed",
						"type": "address"
					}
				],
				"payable": false,
				"stateMutability": "nonpayable",
				"type": "constructor"
			},
			{
				"anonymous": false,
				"inputs": [
					{
						"indexed": true,
						"internalType": "address",
						"name": "owner",
						"type": "address"
					},
					{
						"indexed": true,
						"internalType": "address",
						"name": "spender",
						"type": "address"
					},
					{
						"indexed": false,
						"internalType": "uint256",
						"name": "value",
						"type": "uint256"
					}
				],
				"name": "Approval",
				"type": "event"
			},
			{
				"anonymous": false,
				"inputs": [
					{
						"indexed": true,
						"internalType": "address",
						"name": "operator",
						"type": "address"
					},
					{
						"indexed": true,
						"internalType": "address",
						"name": "tokenHolder",
						"type": "address"
					}
				],
				"name": "AuthorizedOperator",
				"type": "event"
			},
			{
				"anonymous": false,
				"inputs": [
					{
						"indexed": true,
						"internalType": "address",
						"name": "operator",
						"type": "address"
					},
					{
						"indexed": true,
						"internalType": "address",
						"name": "from",
						"type": "address"
					},
					{
						"indexed": false,
						"internalType": "uint256",
						"name": "amount",
						"type": "uint256"
					},
					{
						"indexed": false,
						"internalType": "bytes",
						"name": "data",
						"type": "bytes"
					},
					{
						"indexed": false,
						"internalType": "bytes",
						"name": "operatorData",
						"type": "bytes"
					}
				],
				"name": "Burned",
				"type": "event"
			},
			{
				"anonymous": false,
				"inputs": [
					{
						"indexed": true,
						"internalType": "address",
						"name": "_receiver",
						"type": "address"
					},
					{
						"indexed": false,
						"internalType": "uint256",
						"name": "_amount",
						"type": "uint256"
					},
					{
						"indexed": true,
						"internalType": "address",
						"name": "_operator",
						"type": "address"
					}
				],
				"name": "DDAIMinted",
				"type": "event"
			},
			{
				"anonymous": false,
				"inputs": [
					{
						"indexed": true,
						"internalType": "address",
						"name": "_receiver",
						"type": "address"
					},
					{
						"indexed": false,
						"internalType": "uint256",
						"name": "_amount",
						"type": "uint256"
					},
					{
						"indexed": true,
						"internalType": "address",
						"name": "_operator",
						"type": "address"
					}
				],
				"name": "DDAIRedeemed",
				"type": "event"
			},
			{
				"anonymous": false,
				"inputs": [
					{
						"indexed": true,
						"internalType": "address",
						"name": "_receiver",
						"type": "address"
					},
					{
						"indexed": false,
						"internalType": "uint256",
						"name": "_interestEarned",
						"type": "uint256"
					}
				],
				"name": "InterestClaimed",
				"type": "event"
			},
			{
				"anonymous": false,
				"inputs": [
					{
						"indexed": true,
						"internalType": "address",
						"name": "operator",
						"type": "address"
					},
					{
						"indexed": true,
						"internalType": "address",
						"name": "to",
						"type": "address"
					},
					{
						"indexed": false,
						"internalType": "uint256",
						"name": "amount",
						"type": "uint256"
					},
					{
						"indexed": false,
						"internalType": "bytes",
						"name": "data",
						"type": "bytes"
					},
					{
						"indexed": false,
						"internalType": "bytes",
						"name": "operatorData",
						"type": "bytes"
					}
				],
				"name": "Minted",
				"type": "event"
			},
			{
				"anonymous": false,
				"inputs": [
					{
						"indexed": true,
						"internalType": "address",
						"name": "previousOwner",
						"type": "address"
					},
					{
						"indexed": true,
						"internalType": "address",
						"name": "newOwner",
						"type": "address"
					}
				],
				"name": "OwnershipTransferred",
				"type": "event"
			},
			{
				"anonymous": false,
				"inputs": [
					{
						"indexed": true,
						"internalType": "address",
						"name": "_account",
						"type": "address"
					},
					{
						"indexed": true,
						"internalType": "address",
						"name": "_receiver",
						"type": "address"
					},
					{
						"indexed": false,
						"internalType": "uint256",
						"name": "_ratio",
						"type": "uint256"
					},
					{
						"indexed": false,
						"internalType": "bytes",
						"name": "_data",
						"type": "bytes"
					},
					{
						"indexed": false,
						"internalType": "uint256",
						"name": "_index",
						"type": "uint256"
					}
				],
				"name": "RecipeAdded",
				"type": "event"
			},
			{
				"anonymous": false,
				"inputs": [
					{
						"indexed": true,
						"internalType": "address",
						"name": "_account",
						"type": "address"
					},
					{
						"indexed": true,
						"internalType": "address",
						"name": "_receiver",
						"type": "address"
					},
					{
						"indexed": false,
						"internalType": "uint256",
						"name": "_ratio",
						"type": "uint256"
					},
					{
						"indexed": false,
						"internalType": "bytes",
						"name": "_data",
						"type": "bytes"
					},
					{
						"indexed": false,
						"internalType": "uint256",
						"name": "_index",
						"type": "uint256"
					}
				],
				"name": "RecipeRemoved",
				"type": "event"
			},
			{
				"anonymous": false,
				"inputs": [
					{
						"indexed": true,
						"internalType": "address",
						"name": "oldRelayHub",
						"type": "address"
					},
					{
						"indexed": true,
						"internalType": "address",
						"name": "newRelayHub",
						"type": "address"
					}
				],
				"name": "RelayHubChanged",
				"type": "event"
			},
			{
				"anonymous": false,
				"inputs": [
					{
						"indexed": true,
						"internalType": "address",
						"name": "operator",
						"type": "address"
					},
					{
						"indexed": true,
						"internalType": "address",
						"name": "tokenHolder",
						"type": "address"
					}
				],
				"name": "RevokedOperator",
				"type": "event"
			},
			{
				"anonymous": false,
				"inputs": [
					{
						"indexed": true,
						"internalType": "address",
						"name": "operator",
						"type": "address"
					},
					{
						"indexed": true,
						"internalType": "address",
						"name": "from",
						"type": "address"
					},
					{
						"indexed": true,
						"internalType": "address",
						"name": "to",
						"type": "address"
					},
					{
						"indexed": false,
						"internalType": "uint256",
						"name": "amount",
						"type": "uint256"
					},
					{
						"indexed": false,
						"internalType": "bytes",
						"name": "data",
						"type": "bytes"
					},
					{
						"indexed": false,
						"internalType": "bytes",
						"name": "operatorData",
						"type": "bytes"
					}
				],
				"name": "Sent",
				"type": "event"
			},
			{
				"anonymous": false,
				"inputs": [
					{
						"indexed": true,
						"internalType": "address",
						"name": "_receiver",
						"type": "address"
					},
					{
						"indexed": false,
						"internalType": "uint256",
						"name": "_amount",
						"type": "uint256"
					}
				],
				"name": "StackDistributed",
				"type": "event"
			},
			{
				"anonymous": false,
				"inputs": [
					{
						"indexed": true,
						"internalType": "address",
						"name": "from",
						"type": "address"
					},
					{
						"indexed": true,
						"internalType": "address",
						"name": "to",
						"type": "address"
					},
					{
						"indexed": false,
						"internalType": "uint256",
						"name": "value",
						"type": "uint256"
					}
				],
				"name": "Transfer",
				"type": "event"
			},
			{
				"payable": true,
				"stateMutability": "payable",
				"type": "fallback"
			},
			{
				"constant": true,
				"inputs": [],
				"name": "FEE_DIVIDER",
				"outputs": [
					{
						"internalType": "uint256",
						"name": "",
						"type": "uint256"
					}
				],
				"payable": false,
				"stateMutability": "view",
				"type": "function"
			},
			{
				"constant": true,
				"inputs": [
					{
						"internalType": "address",
						"name": "_relay",
						"type": "address"
					},
					{
						"internalType": "address",
						"name": "_from",
						"type": "address"
					},
					{
						"internalType": "bytes",
						"name": "_encodedFunction",
						"type": "bytes"
					},
					{
						"internalType": "uint256",
						"name": "_transactionFee",
						"type": "uint256"
					},
					{
						"internalType": "uint256",
						"name": "_gasPrice",
						"type": "uint256"
					},
					{
						"internalType": "uint256",
						"name": "_gasLimit",
						"type": "uint256"
					},
					{
						"internalType": "uint256",
						"name": "_nonce",
						"type": "uint256"
					},
					{
						"internalType": "bytes",
						"name": "_approvalData",
						"type": "bytes"
					},
					{
						"internalType": "uint256",
						"name": "_maxPossibleCharge",
						"type": "uint256"
					}
				],
				"name": "acceptRelayedCall",
				"outputs": [
					{
						"internalType": "uint256",
						"name": "",
						"type": "uint256"
					},
					{
						"internalType": "bytes",
						"name": "",
						"type": "bytes"
					}
				],
				"payable": false,
				"stateMutability": "view",
				"type": "function"
			},
			{
				"constant": true,
				"inputs": [
					{
						"internalType": "address",
						"name": "",
						"type": "address"
					}
				],
				"name": "accountDataOf",
				"outputs": [
					{
						"internalType": "uint256",
						"name": "lastTokenPrice",
						"type": "uint256"
					},
					{
						"internalType": "uint256",
						"name": "stack",
						"type": "uint256"
					},
					{
						"internalType": "uint256",
						"name": "totalRatio",
						"type": "uint256"
					},
					{
						"internalType": "bool",
						"name": "receiveToStack",
						"type": "bool"
					},
					{
						"internalType": "bool",
						"name": "notStackInterest",
						"type": "bool"
					}
				],
				"payable": false,
				"stateMutability": "view",
				"type": "function"
			},
			{
				"constant": false,
				"inputs": [
					{
						"internalType": "address",
						"name": "_receiver",
						"type": "address"
					},
					{
						"internalType": "uint256",
						"name": "_ratio",
						"type": "uint256"
					},
					{
						"internalType": "bytes",
						"name": "_data",
						"type": "bytes"
					}
				],
				"name": "addRecipe",
				"outputs": [
					{
						"internalType": "bool",
						"name": "",
						"type": "bool"
					}
				],
				"payable": false,
				"stateMutability": "nonpayable",
				"type": "function"
			},
			{
				"constant": true,
				"inputs": [
					{
						"internalType": "address",
						"name": "holder",
						"type": "address"
					},
					{
						"internalType": "address",
						"name": "spender",
						"type": "address"
					}
				],
				"name": "allowance",
				"outputs": [
					{
						"internalType": "uint256",
						"name": "",
						"type": "uint256"
					}
				],
				"payable": false,
				"stateMutability": "view",
				"type": "function"
			},
			{
				"constant": false,
				"inputs": [
					{
						"internalType": "address",
						"name": "spender",
						"type": "address"
					},
					{
						"internalType": "uint256",
						"name": "value",
						"type": "uint256"
					}
				],
				"name": "approve",
				"outputs": [
					{
						"internalType": "bool",
						"name": "",
						"type": "bool"
					}
				],
				"payable": false,
				"stateMutability": "nonpayable",
				"type": "function"
			},
			{
				"constant": false,
				"inputs": [
					{
						"internalType": "address",
						"name": "operator",
						"type": "address"
					}
				],
				"name": "authorizeOperator",
				"outputs": [],
				"payable": false,
				"stateMutability": "nonpayable",
				"type": "function"
			},
			{
				"constant": true,
				"inputs": [
					{
						"internalType": "address",
						"name": "_account",
						"type": "address"
					}
				],
				"name": "balanceOf",
				"outputs": [
					{
						"internalType": "uint256",
						"name": "",
						"type": "uint256"
					}
				],
				"payable": false,
				"stateMutability": "view",
				"type": "function"
			},
			{
				"constant": false,
				"inputs": [
					{
						"internalType": "uint256",
						"name": "amount",
						"type": "uint256"
					},
					{
						"internalType": "bytes",
						"name": "data",
						"type": "bytes"
					}
				],
				"name": "burn",
				"outputs": [],
				"payable": false,
				"stateMutability": "nonpayable",
				"type": "function"
			},
			{
				"constant": true,
				"inputs": [
					{
						"internalType": "uint256",
						"name": "_ethAmount",
						"type": "uint256"
					}
				],
				"name": "calcTokenAmount",
				"outputs": [
					{
						"internalType": "uint256",
						"name": "",
						"type": "uint256"
					}
				],
				"payable": false,
				"stateMutability": "view",
				"type": "function"
			},
			{
				"constant": false,
				"inputs": [
					{
						"internalType": "address",
						"name": "_receiver",
						"type": "address"
					}
				],
				"name": "claimInterest",
				"outputs": [],
				"payable": false,
				"stateMutability": "nonpayable",
				"type": "function"
			},
			{
				"constant": false,
				"inputs": [],
				"name": "clearRecipes",
				"outputs": [],
				"payable": false,
				"stateMutability": "nonpayable",
				"type": "function"
			},
			{
				"constant": true,
				"inputs": [],
				"name": "decimals",
				"outputs": [
					{
						"internalType": "uint8",
						"name": "",
						"type": "uint8"
					}
				],
				"payable": false,
				"stateMutability": "pure",
				"type": "function"
			},
			{
				"constant": true,
				"inputs": [],
				"name": "defaultOperators",
				"outputs": [
					{
						"internalType": "address[]",
						"name": "",
						"type": "address[]"
					}
				],
				"payable": false,
				"stateMutability": "view",
				"type": "function"
			},
			{
				"constant": false,
				"inputs": [
					{
						"internalType": "address",
						"name": "_account",
						"type": "address"
					}
				],
				"name": "distributeStack",
				"outputs": [],
				"payable": false,
				"stateMutability": "nonpayable",
				"type": "function"
			},
			{
				"constant": true,
				"inputs": [],
				"name": "getEthprice",
				"outputs": [
					{
						"internalType": "uint256",
						"name": "",
						"type": "uint256"
					}
				],
				"payable": false,
				"stateMutability": "view",
				"type": "function"
			},
			{
				"constant": true,
				"inputs": [],
				"name": "getHubAddr",
				"outputs": [
					{
						"internalType": "address",
						"name": "",
						"type": "address"
					}
				],
				"payable": false,
				"stateMutability": "view",
				"type": "function"
			},
			{
				"constant": true,
				"inputs": [
					{
						"internalType": "address",
						"name": "_account",
						"type": "address"
					}
				],
				"name": "getOutStandingInterest",
				"outputs": [
					{
						"internalType": "uint256",
						"name": "",
						"type": "uint256"
					}
				],
				"payable": false,
				"stateMutability": "view",
				"type": "function"
			},
			{
				"constant": true,
				"inputs": [
					{
						"internalType": "address",
						"name": "_account",
						"type": "address"
					}
				],
				"name": "getRecipesOf",
				"outputs": [
					{
						"components": [
							{
								"internalType": "address",
								"name": "receiver",
								"type": "address"
							},
							{
								"internalType": "uint256",
								"name": "ratio",
								"type": "uint256"
							},
							{
								"internalType": "bytes",
								"name": "data",
								"type": "bytes"
							}
						],
						"internalType": "struct DDAI.Recipe[]",
						"name": "recipes",
						"type": "tuple[]"
					},
					{
						"internalType": "uint256",
						"name": "totalRatio",
						"type": "uint256"
					}
				],
				"payable": false,
				"stateMutability": "view",
				"type": "function"
			},
			{
				"constant": true,
				"inputs": [
					{
						"internalType": "address",
						"name": "_account",
						"type": "address"
					}
				],
				"name": "getStack",
				"outputs": [
					{
						"internalType": "uint256",
						"name": "",
						"type": "uint256"
					}
				],
				"payable": false,
				"stateMutability": "view",
				"type": "function"
			},
			{
				"constant": true,
				"inputs": [
					{
						"internalType": "address",
						"name": "_account",
						"type": "address"
					}
				],
				"name": "getTotalBalance",
				"outputs": [
					{
						"internalType": "uint256",
						"name": "",
						"type": "uint256"
					}
				],
				"payable": false,
				"stateMutability": "view",
				"type": "function"
			},
			{
				"constant": true,
				"inputs": [],
				"name": "granularity",
				"outputs": [
					{
						"internalType": "uint256",
						"name": "",
						"type": "uint256"
					}
				],
				"payable": false,
				"stateMutability": "view",
				"type": "function"
			},
			{
				"constant": true,
				"inputs": [
					{
						"internalType": "address",
						"name": "operator",
						"type": "address"
					},
					{
						"internalType": "address",
						"name": "tokenHolder",
						"type": "address"
					}
				],
				"name": "isOperatorFor",
				"outputs": [
					{
						"internalType": "bool",
						"name": "",
						"type": "bool"
					}
				],
				"payable": false,
				"stateMutability": "view",
				"type": "function"
			},
			{
				"constant": true,
				"inputs": [],
				"name": "isOwner",
				"outputs": [
					{
						"internalType": "bool",
						"name": "",
						"type": "bool"
					}
				],
				"payable": false,
				"stateMutability": "view",
				"type": "function"
			},
			{
				"constant": false,
				"inputs": [
					{
						"internalType": "address",
						"name": "_receiver",
						"type": "address"
					},
					{
						"internalType": "uint256",
						"name": "_amount",
						"type": "uint256"
					}
				],
				"name": "mint",
				"outputs": [],
				"payable": false,
				"stateMutability": "nonpayable",
				"type": "function"
			},
			{
				"constant": false,
				"inputs": [
					{
						"internalType": "uint256",
						"name": "_amount",
						"type": "uint256"
					},
					{
						"internalType": "address[]",
						"name": "_receivers",
						"type": "address[]"
					},
					{
						"internalType": "uint256[]",
						"name": "_ratios",
						"type": "uint256[]"
					},
					{
						"internalType": "bytes[]",
						"name": "_data",
						"type": "bytes[]"
					}
				],
				"name": "mintAndSetRecipes",
				"outputs": [],
				"payable": false,
				"stateMutability": "nonpayable",
				"type": "function"
			},
			{
				"constant": true,
				"inputs": [],
				"name": "moneyMarket",
				"outputs": [
					{
						"internalType": "contract IMoneyMarket",
						"name": "",
						"type": "address"
					}
				],
				"payable": false,
				"stateMutability": "view",
				"type": "function"
			},
			{
				"constant": true,
				"inputs": [],
				"name": "name",
				"outputs": [
					{
						"internalType": "string",
						"name": "",
						"type": "string"
					}
				],
				"payable": false,
				"stateMutability": "view",
				"type": "function"
			},
			{
				"constant": false,
				"inputs": [
					{
						"internalType": "address",
						"name": "account",
						"type": "address"
					},
					{
						"internalType": "uint256",
						"name": "amount",
						"type": "uint256"
					},
					{
						"internalType": "bytes",
						"name": "data",
						"type": "bytes"
					},
					{
						"internalType": "bytes",
						"name": "operatorData",
						"type": "bytes"
					}
				],
				"name": "operatorBurn",
				"outputs": [],
				"payable": false,
				"stateMutability": "nonpayable",
				"type": "function"
			},
			{
				"constant": false,
				"inputs": [
					{
						"internalType": "address",
						"name": "sender",
						"type": "address"
					},
					{
						"internalType": "address",
						"name": "recipient",
						"type": "address"
					},
					{
						"internalType": "uint256",
						"name": "amount",
						"type": "uint256"
					},
					{
						"internalType": "bytes",
						"name": "data",
						"type": "bytes"
					},
					{
						"internalType": "bytes",
						"name": "operatorData",
						"type": "bytes"
					}
				],
				"name": "operatorSend",
				"outputs": [],
				"payable": false,
				"stateMutability": "nonpayable",
				"type": "function"
			},
			{
				"constant": true,
				"inputs": [],
				"name": "owner",
				"outputs": [
					{
						"internalType": "address",
						"name": "",
						"type": "address"
					}
				],
				"payable": false,
				"stateMutability": "view",
				"type": "function"
			},
			{
				"constant": false,
				"inputs": [
					{
						"internalType": "bytes",
						"name": "context",
						"type": "bytes"
					},
					{
						"internalType": "bool",
						"name": "success",
						"type": "bool"
					},
					{
						"internalType": "uint256",
						"name": "actualCharge",
						"type": "uint256"
					},
					{
						"internalType": "bytes32",
						"name": "preRetVal",
						"type": "bytes32"
					}
				],
				"name": "postRelayedCall",
				"outputs": [],
				"payable": false,
				"stateMutability": "nonpayable",
				"type": "function"
			},
			{
				"constant": false,
				"inputs": [
					{
						"internalType": "bytes",
						"name": "context",
						"type": "bytes"
					}
				],
				"name": "preRelayedCall",
				"outputs": [
					{
						"internalType": "bytes32",
						"name": "",
						"type": "bytes32"
					}
				],
				"payable": false,
				"stateMutability": "nonpayable",
				"type": "function"
			},
			{
				"constant": true,
				"inputs": [],
				"name": "priceFeed",
				"outputs": [
					{
						"internalType": "contract IPriceFeed",
						"name": "",
						"type": "address"
					}
				],
				"payable": false,
				"stateMutability": "view",
				"type": "function"
			},
			{
				"constant": false,
				"inputs": [
					{
						"internalType": "address",
						"name": "_receiver",
						"type": "address"
					},
					{
						"internalType": "uint256",
						"name": "_amount",
						"type": "uint256"
					}
				],
				"name": "redeem",
				"outputs": [
					{
						"internalType": "uint256",
						"name": "",
						"type": "uint256"
					}
				],
				"payable": false,
				"stateMutability": "nonpayable",
				"type": "function"
			},
			{
				"constant": true,
				"inputs": [],
				"name": "relayHubVersion",
				"outputs": [
					{
						"internalType": "string",
						"name": "",
						"type": "string"
					}
				],
				"payable": false,
				"stateMutability": "view",
				"type": "function"
			},
			{
				"constant": false,
				"inputs": [
					{
						"internalType": "uint256",
						"name": "_index",
						"type": "uint256"
					}
				],
				"name": "removeRecipe",
				"outputs": [
					{
						"internalType": "bool",
						"name": "",
						"type": "bool"
					}
				],
				"payable": false,
				"stateMutability": "nonpayable",
				"type": "function"
			},
			{
				"constant": false,
				"inputs": [],
				"name": "renounceOwnership",
				"outputs": [],
				"payable": false,
				"stateMutability": "nonpayable",
				"type": "function"
			},
			{
				"constant": false,
				"inputs": [
					{
						"internalType": "address",
						"name": "operator",
						"type": "address"
					}
				],
				"name": "revokeOperator",
				"outputs": [],
				"payable": false,
				"stateMutability": "nonpayable",
				"type": "function"
			},
			{
				"constant": false,
				"inputs": [
					{
						"internalType": "address",
						"name": "recipient",
						"type": "address"
					},
					{
						"internalType": "uint256",
						"name": "amount",
						"type": "uint256"
					},
					{
						"internalType": "bytes",
						"name": "data",
						"type": "bytes"
					}
				],
				"name": "send",
				"outputs": [],
				"payable": false,
				"stateMutability": "nonpayable",
				"type": "function"
			},
			{
				"constant": false,
				"inputs": [
					{
						"internalType": "address",
						"name": "_feed",
						"type": "address"
					}
				],
				"name": "setPriceFeed",
				"outputs": [],
				"payable": false,
				"stateMutability": "nonpayable",
				"type": "function"
			},
			{
				"constant": false,
				"inputs": [
					{
						"internalType": "bool",
						"name": "_value",
						"type": "bool"
					}
				],
				"name": "setReceiveToStack",
				"outputs": [],
				"payable": false,
				"stateMutability": "nonpayable",
				"type": "function"
			},
			{
				"constant": false,
				"inputs": [
					{
						"internalType": "address[]",
						"name": "_receivers",
						"type": "address[]"
					},
					{
						"internalType": "uint256[]",
						"name": "_ratios",
						"type": "uint256[]"
					},
					{
						"internalType": "bytes[]",
						"name": "_data",
						"type": "bytes[]"
					}
				],
				"name": "setRecipes",
				"outputs": [],
				"payable": false,
				"stateMutability": "nonpayable",
				"type": "function"
			},
			{
				"constant": false,
				"inputs": [
					{
						"internalType": "address",
						"name": "_account",
						"type": "address"
					},
					{
						"internalType": "uint256",
						"name": "_amount",
						"type": "uint256"
					}
				],
				"name": "setStack",
				"outputs": [],
				"payable": false,
				"stateMutability": "nonpayable",
				"type": "function"
			},
			{
				"constant": false,
				"inputs": [
					{
						"internalType": "address",
						"name": "_account",
						"type": "address"
					},
					{
						"internalType": "bool",
						"name": "_allowed",
						"type": "bool"
					}
				],
				"name": "setStackApproved",
				"outputs": [],
				"payable": false,
				"stateMutability": "nonpayable",
				"type": "function"
			},
			{
				"constant": false,
				"inputs": [
					{
						"internalType": "bool",
						"name": "_value",
						"type": "bool"
					}
				],
				"name": "setStackInterest",
				"outputs": [],
				"payable": false,
				"stateMutability": "nonpayable",
				"type": "function"
			},
			{
				"constant": true,
				"inputs": [],
				"name": "supplyInterestRate",
				"outputs": [
					{
						"internalType": "uint256",
						"name": "",
						"type": "uint256"
					}
				],
				"payable": false,
				"stateMutability": "view",
				"type": "function"
			},
			{
				"constant": true,
				"inputs": [],
				"name": "symbol",
				"outputs": [
					{
						"internalType": "string",
						"name": "",
						"type": "string"
					}
				],
				"payable": false,
				"stateMutability": "view",
				"type": "function"
			},
			{
				"constant": true,
				"inputs": [],
				"name": "token",
				"outputs": [
					{
						"internalType": "contract IERC20",
						"name": "",
						"type": "address"
					}
				],
				"payable": false,
				"stateMutability": "view",
				"type": "function"
			},
			{
				"constant": true,
				"inputs": [],
				"name": "totalSupply",
				"outputs": [
					{
						"internalType": "uint256",
						"name": "",
						"type": "uint256"
					}
				],
				"payable": false,
				"stateMutability": "view",
				"type": "function"
			},
			{
				"constant": false,
				"inputs": [
					{
						"internalType": "address",
						"name": "recipient",
						"type": "address"
					},
					{
						"internalType": "uint256",
						"name": "amount",
						"type": "uint256"
					}
				],
				"name": "transfer",
				"outputs": [
					{
						"internalType": "bool",
						"name": "",
						"type": "bool"
					}
				],
				"payable": false,
				"stateMutability": "nonpayable",
				"type": "function"
			},
			{
				"constant": false,
				"inputs": [
					{
						"internalType": "address",
						"name": "holder",
						"type": "address"
					},
					{
						"internalType": "address",
						"name": "recipient",
						"type": "address"
					},
					{
						"internalType": "uint256",
						"name": "amount",
						"type": "uint256"
					}
				],
				"name": "transferFrom",
				"outputs": [
					{
						"internalType": "bool",
						"name": "",
						"type": "bool"
					}
				],
				"payable": false,
				"stateMutability": "nonpayable",
				"type": "function"
			},
			{
				"constant": false,
				"inputs": [
					{
						"internalType": "address",
						"name": "newOwner",
						"type": "address"
					}
				],
				"name": "transferOwnership",
				"outputs": [],
				"payable": false,
				"stateMutability": "nonpayable",
				"type": "function"
			},
			{
				"constant": false,
				"inputs": [
					{
						"internalType": "uint256",
						"name": "_amount",
						"type": "uint256"
					}
				],
				"name": "withdrawEther",
				"outputs": [],
				"payable": false,
				"stateMutability": "nonpayable",
				"type": "function"
			},
			{
				"constant": false,
				"inputs": [
					{
						"internalType": "address",
						"name": "_token",
						"type": "address"
					}
				],
				"name": "withdrawToken",
				"outputs": [],
				"payable": false,
				"stateMutability": "nonpayable",
				"type": "function"
			}
		],
		"evm": {
			"bytecode": {
				"linkReferences": {},
				"object": "0x6080604052731820a4b7618bde71dce8cdc73aab6c95905fad246000806101000a81548173ffffffffffffffffffffffffffffffffffffffff021916908373ffffffffffffffffffffffffffffffffffffffff16021790555073d216153c06e857cd7f72665e0af1d7d82172f494600f60006101000a81548173ffffffffffffffffffffffffffffffffffffffff021916908373ffffffffffffffffffffffffffffffffffffffff1602179055506064601155348015620000bf57600080fd5b5060405162007f8f38038062007f8f8339818101604052620000e5919081019062000854565b8585858585828282826003908051906020019062000105929190620005d0565b5081600490805190602001906200011e929190620005d0565b5080600590805190602001906200013792919062000657565b5060008090505b600580549050811015620001ea57600160066000600584815481106200016057fe5b9060005260206000200160009054906101000a900473ffffffffffffffffffffffffffffffffffffffff1673ffffffffffffffffffffffffffffffffffffffff1673ffffffffffffffffffffffffffffffffffffffff16815260200190815260200160002060006101000a81548160ff02191690831515021790555080806001019150506200013e565b506000809054906101000a900473ffffffffffffffffffffffffffffffffffffffff1673ffffffffffffffffffffffffffffffffffffffff166329965a1d306040516200023790620009db565b6040518091039020306040518463ffffffff1660e01b8152600401620002609392919062000a09565b600060405180830381600087803b1580156200027b57600080fd5b505af115801562000290573d6000803e3d6000fd5b505050506000809054906101000a900473ffffffffffffffffffffffffffffffffffffffff1673ffffffffffffffffffffffffffffffffffffffff166329965a1d30604051620002e090620009f2565b6040518091039020306040518463ffffffff1660e01b8152600401620003099392919062000a09565b600060405180830381600087803b1580156200032457600080fd5b505af115801562000339573d6000803e3d6000fd5b5050505050505083600a60006101000a81548173ffffffffffffffffffffffffffffffffffffffff021916908373ffffffffffffffffffffffffffffffffffffffff16021790555084600b60006101000a81548173ffffffffffffffffffffffffffffffffffffffff021916908373ffffffffffffffffffffffffffffffffffffffff1602179055505050505050620003d7620004e160201b60201c565b600e60006101000a81548173ffffffffffffffffffffffffffffffffffffffff021916908373ffffffffffffffffffffffffffffffffffffffff160217905550600e60009054906101000a900473ffffffffffffffffffffffffffffffffffffffff1673ffffffffffffffffffffffffffffffffffffffff16600073ffffffffffffffffffffffffffffffffffffffff167f8be0079c531659141344cd1fd0a4f28419497f9722a3daafe3b4186f6b6457e060405160405180910390a380601060006101000a81548173ffffffffffffffffffffffffffffffffffffffff021916908373ffffffffffffffffffffffffffffffffffffffff16021790555050505050505062000b63565b6000600f60009054906101000a900473ffffffffffffffffffffffffffffffffffffffff1673ffffffffffffffffffffffffffffffffffffffff163373ffffffffffffffffffffffffffffffffffffffff1614620005425733905062000555565b620005526200055860201b60201c565b90505b90565b600060606000368080601f016020809104026020016040519081016040528093929190818152602001838380828437600081840152601f19601f820116905080830192505050505050509050600080369050905073ffffffffffffffffffffffffffffffffffffffff81830151169250829250505090565b828054600181600116156101000203166002900490600052602060002090601f016020900481019282601f106200061357805160ff191683800117855562000644565b8280016001018555821562000644579182015b828111156200064357825182559160200191906001019062000626565b5b509050620006539190620006e6565b5090565b828054828255906000526020600020908101928215620006d3579160200282015b82811115620006d25782518260006101000a81548173ffffffffffffffffffffffffffffffffffffffff021916908373ffffffffffffffffffffffffffffffffffffffff1602179055509160200191906001019062000678565b5b509050620006e291906200070e565b5090565b6200070b91905b8082111562000707576000816000905550600101620006ed565b5090565b90565b6200075191905b808211156200074d57600081816101000a81549073ffffffffffffffffffffffffffffffffffffffff02191690555060010162000715565b5090565b90565b600081519050620007658162000b49565b92915050565b600082601f8301126200077d57600080fd5b8151620007946200078e8262000a74565b62000a46565b91508181835260208401935060208101905083856020840282011115620007ba57600080fd5b60005b83811015620007ee5781620007d3888262000754565b845260208401935060208301925050600181019050620007bd565b5050505092915050565b600082601f8301126200080a57600080fd5b8151620008216200081b8262000a9d565b62000a46565b915080825260208301602083018583830111156200083e57600080fd5b6200084b83828462000b13565b50505092915050565b60008060008060008060c087890312156200086e57600080fd5b60006200087e89828a0162000754565b96505060206200089189828a0162000754565b955050604087015167ffffffffffffffff811115620008af57600080fd5b620008bd89828a01620007f8565b945050606087015167ffffffffffffffff811115620008db57600080fd5b620008e989828a01620007f8565b935050608087015167ffffffffffffffff8111156200090757600080fd5b6200091589828a016200076b565b92505060a06200092889828a0162000754565b9150509295509295509295565b620009408162000ad5565b82525050565b620009518162000ae9565b82525050565b600062000966600b8362000aca565b91507f455243373737546f6b656e0000000000000000000000000000000000000000006000830152600b82019050919050565b6000620009a8600a8362000aca565b91507f4552433230546f6b656e000000000000000000000000000000000000000000006000830152600a82019050919050565b6000620009e88262000957565b9150819050919050565b6000620009ff8262000999565b9150819050919050565b600060608201905062000a20600083018662000935565b62000a2f602083018562000946565b62000a3e604083018462000935565b949350505050565b6000604051905081810181811067ffffffffffffffff8211171562000a6a57600080fd5b8060405250919050565b600067ffffffffffffffff82111562000a8c57600080fd5b602082029050602081019050919050565b600067ffffffffffffffff82111562000ab557600080fd5b601f19601f8301169050602081019050919050565b600081905092915050565b600062000ae28262000af3565b9050919050565b6000819050919050565b600073ffffffffffffffffffffffffffffffffffffffff82169050919050565b60005b8381101562000b3357808201518184015260208101905062000b16565b8381111562000b43576000848401525b50505050565b62000b548162000ad5565b811462000b6057600080fd5b50565b61741c8062000b736000396000f3fe6080604052600436106103505760003560e01c806380274db7116101c6578063a9059cbb116100f7578063dd62ed3e11610095578063fad8b32a1161006f578063fad8b32a14610d52578063fc0c546a14610d7b578063fc673c4f14610da6578063fe9d930314610dcf57610350565b8063dd62ed3e14610cc3578063e06e0e2214610d00578063f2fde38b14610d2957610350565b8063d240a008116100d1578063d240a00814610be0578063d3d3819314610c1e578063d6d75f5114610c5b578063d95b637114610c8657610350565b8063a9059cbb14610b4f578063ad61ccd514610b8c578063c35450ec14610bb757610350565b80638f32d59b11610164578063959b8c3f1161013e578063959b8c3f14610aa957806395d89b4114610ad25780639bd9bbc614610afd5780639e72954914610b2657610350565b80638f32d59b14610a18578063920c060714610a43578063925067f414610a8057610350565b806388d742c2116101a057806388d742c214610972578063894760691461099b5780638cc87228146109c45780638da5cb5b146109ed57610350565b806380274db7146108ba5780638314b4e3146108f757806383947ea01461093457610350565b806340c10f19116102a0578063715018a61161023e57806374e861d61161021857806374e861d6146107e657806378d6ade4146108115780637a26b4141461083c5780637b7902dd1461087d57610350565b8063715018a61461077b578063724e78da14610792578063741bef1a146107bb57610350565b80635ffd9f291161027a5780635ffd9f29146106c157806362ad1b83146106ea57806365a0b7b71461071357806370a082311461073e57610350565b806340c10f1914610630578063556f0dc7146106595780635b38539e1461068457610350565b80631e9a69501161030d5780632f8035b4116102e75780632f8035b414610576578063313ce567146105b357806337e63d07146105de5780633bed33ce1461060757610350565b80631e9a6950146104d357806321edf2661461051057806323b872dd1461053957610350565b806306e48538146103d357806306fdde03146103fe578063095ea7b31461042957806309ec6b6b1461046657806318160ddd146104915780631ab113b9146104bc575b600034146103d057610360610df8565b73ffffffffffffffffffffffffffffffffffffffff1663aa67c91934306040518363ffffffff1660e01b81526004016103999190616955565b6000604051808303818588803b1580156103b257600080fd5b505af11580156103c6573d6000803e3d6000fd5b50505050506103d1565b5b005b3480156103df57600080fd5b506103e8610e22565b6040516103f59190616a68565b60405180910390f35b34801561040a57600080fd5b50610413610eb0565b6040516104209190616b41565b60405180910390f35b34801561043557600080fd5b50610450600480360361044b91908101906159ed565b610f52565b60405161045d9190616aba565b60405180910390f35b34801561047257600080fd5b5061047b610f75565b6040516104889190616de3565b60405180910390f35b34801561049d57600080fd5b506104a661101c565b6040516104b39190616de3565b60405180910390f35b3480156104c857600080fd5b506104d1611026565b005b3480156104df57600080fd5b506104fa60048036036104f591908101906159ed565b61108f565b6040516105079190616de3565b60405180910390f35b34801561051c57600080fd5b5061053760048036036105329190810190615685565b61133b565b005b34801561054557600080fd5b50610560600480360361055b91908101906158b2565b6113ec565b60405161056d9190616aba565b60405180910390f35b34801561058257600080fd5b5061059d60048036036105989190810190615685565b61161e565b6040516105aa9190616de3565b60405180910390f35b3480156105bf57600080fd5b506105c861166a565b6040516105d59190616f6b565b60405180910390f35b3480156105ea57600080fd5b50610605600480360361060091908101906159b1565b611673565b005b34801561061357600080fd5b5061062e60048036036106299190810190615d6e565b611712565b005b34801561063c57600080fd5b50610657600480360361065291908101906159ed565b6117f5565b005b34801561066557600080fd5b5061066e611b19565b60405161067b9190616de3565b60405180910390f35b34801561069057600080fd5b506106ab60048036036106a69190810190615b30565b611b22565b6040516106b89190616aba565b60405180910390f35b3480156106cd57600080fd5b506106e860048036036106e39190810190615c2e565b611cdf565b005b3480156106f657600080fd5b50610711600480360361070c9190810190615901565b611d44565b005b34801561071f57600080fd5b50610728611e3c565b6040516107359190616de3565b60405180910390f35b34801561074a57600080fd5b5061076560048036036107609190810190615685565b611ee6565b6040516107729190616de3565b60405180910390f35b34801561078757600080fd5b50610790611fa4565b005b34801561079e57600080fd5b506107b960048036036107b49190810190615685565b6120ac565b005b3480156107c757600080fd5b506107d0612137565b6040516107dd9190616b26565b60405180910390f35b3480156107f257600080fd5b506107fb610df8565b604051610808919061693a565b60405180910390f35b34801561081d57600080fd5b5061082661215d565b6040516108339190616de3565b60405180910390f35b34801561084857600080fd5b50610863600480360361085e9190810190615685565b612163565b604051610874959493929190616f18565b60405180910390f35b34801561088957600080fd5b506108a4600480360361089f9190810190615d6e565b6121b3565b6040516108b19190616de3565b60405180910390f35b3480156108c657600080fd5b506108e160048036036108dc9190810190615ca9565b61221d565b6040516108ee9190616ad5565b60405180910390f35b34801561090357600080fd5b5061091e60048036036109199190810190615d6e565b6122e9565b60405161092b9190616aba565b60405180910390f35b34801561094057600080fd5b5061095b600480360361095691908101906157b2565b61255b565b604051610969929190616e27565b60405180910390f35b34801561097e57600080fd5b5061099960048036036109949190810190615685565b6125cf565b005b3480156109a757600080fd5b506109c260048036036109bd9190810190615685565b612795565b005b3480156109d057600080fd5b506109eb60048036036109e691908101906159ed565b612977565b005b3480156109f957600080fd5b50610a02612ad5565b604051610a0f919061693a565b60405180910390f35b348015610a2457600080fd5b50610a2d612aff565b604051610a3a9190616aba565b60405180910390f35b348015610a4f57600080fd5b50610a6a6004803603610a659190810190615685565b612b5e565b604051610a779190616de3565b60405180910390f35b348015610a8c57600080fd5b50610aa76004803603610aa29190810190615c2e565b612c84565b005b348015610ab557600080fd5b50610ad06004803603610acb9190810190615685565b612ce8565b005b348015610ade57600080fd5b50610ae7612f49565b604051610af49190616b41565b60405180910390f35b348015610b0957600080fd5b50610b246004803603610b1f9190810190615a29565b612feb565b005b348015610b3257600080fd5b50610b4d6004803603610b489190810190615b97565b613062565b005b348015610b5b57600080fd5b50610b766004803603610b7191908101906159ed565b6130d1565b604051610b839190616aba565b60405180910390f35b348015610b9857600080fd5b50610ba16131df565b604051610bae9190616b41565b60405180910390f35b348015610bc357600080fd5b50610bde6004803603610bd99190810190615dc0565b61321c565b005b348015610bec57600080fd5b50610c076004803603610c029190810190615685565b61323e565b604051610c15929190616a8a565b60405180910390f35b348015610c2a57600080fd5b50610c456004803603610c409190810190615685565b6133ef565b604051610c529190616de3565b60405180910390f35b348015610c6757600080fd5b50610c70613401565b604051610c7d9190616b0b565b60405180910390f35b348015610c9257600080fd5b50610cad6004803603610ca89190810190615776565b613427565b604051610cba9190616aba565b60405180910390f35b348015610ccf57600080fd5b50610cea6004803603610ce59190810190615776565b6135d8565b604051610cf79190616de3565b60405180910390f35b348015610d0c57600080fd5b50610d276004803603610d229190810190615cee565b61365f565b005b348015610d3557600080fd5b50610d506004803603610d4b9190810190615685565b61372b565b005b348015610d5e57600080fd5b50610d796004803603610d749190810190615685565b61377e565b005b348015610d8757600080fd5b50610d906139df565b604051610d9d9190616af0565b60405180910390f35b348015610db257600080fd5b50610dcd6004803603610dc89190810190615a95565b613a05565b005b348015610ddb57600080fd5b50610df66004803603610df19190810190615e6b565b613af9565b005b6000600f60009054906101000a900473ffffffffffffffffffffffffffffffffffffffff16905090565b60606005805480602002602001604051908101604052809291908181526020018280548015610ea657602002820191906000526020600020905b8160009054906101000a900473ffffffffffffffffffffffffffffffffffffffff1673ffffffffffffffffffffffffffffffffffffffff1681526020019060010190808311610e5c575b5050505050905090565b606060038054600181600116156101000203166002900480601f016020809104026020016040519081016040528092919081815260200182805460018160011615610100020316600290048015610f485780601f10610f1d57610100808354040283529160200191610f48565b820191906000526020600020905b815481529060010190602001808311610f2b57829003601f168201915b5050505050905090565b600080610f5d613b6c565b9050610f6a818585613bd9565b600191505092915050565b6000600b60009054906101000a900473ffffffffffffffffffffffffffffffffffffffff1673ffffffffffffffffffffffffffffffffffffffff166309ec6b6b6040518163ffffffff1660e01b815260040160206040518083038186803b158015610fdf57600080fd5b505afa158015610ff3573d6000803e3d6000fd5b505050506040513d601f19601f820116820180604052506110179190810190615d97565b905090565b6000600254905090565b6000600c6000611034613b6c565b73ffffffffffffffffffffffffffffffffffffffff1673ffffffffffffffffffffffffffffffffffffffff1681526020019081526020016000209050600081600201816110819190615121565b506000816003018190555050565b60006110a161109c613b6c565b6125cf565b60006110c56110b66110b1613b6c565b613d34565b84613d4690919063ffffffff16565b90506111006110d2613b6c565b6110da613b6c565b836040518060200160405280600081525060405180602001604052806000815250613d5f565b60006111ce600b60009054906101000a900473ffffffffffffffffffffffffffffffffffffffff1673ffffffffffffffffffffffffffffffffffffffff16637ff9b5966040518163ffffffff1660e01b815260040160206040518083038186803b15801561116d57600080fd5b505afa158015611181573d6000803e3d6000fd5b505050506040513d601f19601f820116820180604052506111a59190810190615d97565b6111c0670de0b6b3a764000085613f7e90919063ffffffff16565b613fee90919063ffffffff16565b905060018203600b60009054906101000a900473ffffffffffffffffffffffffffffffffffffffff1673ffffffffffffffffffffffffffffffffffffffff16639dc29fac87846040518363ffffffff1660e01b8152600401611231929190616a3f565b602060405180830381600087803b15801561124b57600080fd5b505af115801561125f573d6000803e3d6000fd5b505050506040513d601f19601f820116820180604052506112839190810190615d97565b10156112c4576040517f08c379a00000000000000000000000000000000000000000000000000000000081526004016112bb90616d43565b60405180910390fd5b6112cc613b6c565b73ffffffffffffffffffffffffffffffffffffffff168573ffffffffffffffffffffffffffffffffffffffff167f98e2ef558343683d81148487f9e3adc59ab8b7f4038427844dfa588f409f3ddc846040516113289190616de3565b60405180910390a3819250505092915050565b611344816125cf565b6000600c60008373ffffffffffffffffffffffffffffffffffffffff1673ffffffffffffffffffffffffffffffffffffffff16815260200190815260200160002090508173ffffffffffffffffffffffffffffffffffffffff167f85438fa7c52fd8fc942f2ddee2033aa0efd3b75027316b7f1ecbe7738333807e82600101546040516113d19190616de3565b60405180910390a26113e7828260010154614038565b505050565b60008073ffffffffffffffffffffffffffffffffffffffff168373ffffffffffffffffffffffffffffffffffffffff16141561145d576040517f08c379a000000000000000000000000000000000000000000000000000000000815260040161145490616d23565b60405180910390fd5b600073ffffffffffffffffffffffffffffffffffffffff168473ffffffffffffffffffffffffffffffffffffffff1614156114cd576040517f08c379a00000000000000000000000000000000000000000000000000000000081526004016114c490616d83565b60405180910390fd5b60006114d7613b6c565b9050611505818686866040518060200160405280600081525060405180602001604052806000815250614259565b6115318186868660405180602001604052806000815250604051806020016040528060008152506143df565b6115e485826115df8660405180606001604052806029815260200161738e60299139600960008c73ffffffffffffffffffffffffffffffffffffffff1673ffffffffffffffffffffffffffffffffffffffff16815260200190815260200160002060008873ffffffffffffffffffffffffffffffffffffffff1673ffffffffffffffffffffffffffffffffffffffff168152602001908152602001600020546144899092919063ffffffff16565b613bd9565b61161281868686604051806020016040528060008152506040518060200160405280600081525060006144e4565b60019150509392505050565b6000600c60008373ffffffffffffffffffffffffffffffffffffffff1673ffffffffffffffffffffffffffffffffffffffff168152602001908152602001600020600101549050919050565b60006012905090565b80600d6000611680613b6c565b73ffffffffffffffffffffffffffffffffffffffff1673ffffffffffffffffffffffffffffffffffffffff16815260200190815260200160002060008473ffffffffffffffffffffffffffffffffffffffff1673ffffffffffffffffffffffffffffffffffffffff16815260200190815260200160002060006101000a81548160ff0219169083151502179055505050565b61171a612aff565b611759576040517f08c379a000000000000000000000000000000000000000000000000000000000815260040161175090616ce3565b60405180910390fd5b6117f2611764610df8565b73ffffffffffffffffffffffffffffffffffffffff166370a08231306040518263ffffffff1660e01b815260040161179c9190616955565b60206040518083038186803b1580156117b457600080fd5b505afa1580156117c8573d6000803e3d6000fd5b505050506040513d601f19601f820116820180604052506117ec9190810190615d97565b336146d5565b50565b6117fe826125cf565b600a60009054906101000a900473ffffffffffffffffffffffffffffffffffffffff1673ffffffffffffffffffffffffffffffffffffffff166323b872dd611844613b6c565b30846040518463ffffffff1660e01b8152600401611864939291906169df565b602060405180830381600087803b15801561187e57600080fd5b505af1158015611892573d6000803e3d6000fd5b505050506040513d601f19601f820116820180604052506118b69190810190615c57565b6118f5576040517f08c379a00000000000000000000000000000000000000000000000000000000081526004016118ec90616ba3565b60405180910390fd5b600a60009054906101000a900473ffffffffffffffffffffffffffffffffffffffff1673ffffffffffffffffffffffffffffffffffffffff1663095ea7b3600b60009054906101000a900473ffffffffffffffffffffffffffffffffffffffff16836040518363ffffffff1660e01b8152600401611974929190616a3f565b602060405180830381600087803b15801561198e57600080fd5b505af11580156119a2573d6000803e3d6000fd5b505050506040513d601f19601f820116820180604052506119c69190810190615c57565b50600b60009054906101000a900473ffffffffffffffffffffffffffffffffffffffff1673ffffffffffffffffffffffffffffffffffffffff166340c10f1930836040518363ffffffff1660e01b8152600401611a24929190616a3f565b602060405180830381600087803b158015611a3e57600080fd5b505af1158015611a52573d6000803e3d6000fd5b505050506040513d601f19601f82011682018060405250611a769190810190615d97565b50611aa9611a82613b6c565b83836040518060200160405280600081525060405180602001604052806000815250614767565b611ab1613b6c565b73ffffffffffffffffffffffffffffffffffffffff168273ffffffffffffffffffffffffffffffffffffffff167f790acd49f79fd738bf072d1f334b7defc021d1a0dfdc5799f5087a37e61930b583604051611b0d9190616de3565b60405180910390a35050565b60006001905090565b600080600c6000611b31613b6c565b73ffffffffffffffffffffffffffffffffffffffff1673ffffffffffffffffffffffffffffffffffffffff16815260200190815260200160002090508060020160405180606001604052808773ffffffffffffffffffffffffffffffffffffffff168152602001868152602001858152509080600181540180825580915050906001820390600052602060002090600302016000909192909190915060008201518160000160006101000a81548173ffffffffffffffffffffffffffffffffffffffff021916908373ffffffffffffffffffffffffffffffffffffffff160217905550602082015181600101556040820151816002019080519060200190611c3a929190615153565b50505050611c5584826003015461496e90919063ffffffff16565b81600301819055508473ffffffffffffffffffffffffffffffffffffffff16611c7c613b6c565b73ffffffffffffffffffffffffffffffffffffffff167f37cacddb5cbff122a21ad5f5643384a5929ed0a67f74be15a1bd13f17245c42186866001866002018054905003604051611ccf93929190616e9c565b60405180910390a3509392505050565b8015600c6000611ced613b6c565b73ffffffffffffffffffffffffffffffffffffffff1673ffffffffffffffffffffffffffffffffffffffff16815260200190815260200160002060040160016101000a81548160ff02191690831515021790555050565b611d55611d4f613b6c565b88613427565b611d94576040517f08c379a0000000000000000000000000000000000000000000000000000000008152600401611d8b90616d63565b60405180910390fd5b611e33611d9f613b6c565b88888888888080601f016020809104026020016040519081016040528093929190818152602001838380828437600081840152601f19601f8201169050808301925050505050505087878080601f016020809104026020016040519081016040528093929190818152602001838380828437600081840152601f19601f8201169050808301925050505050505060016149c3565b50505050505050565b6000601060009054906101000a900473ffffffffffffffffffffffffffffffffffffffff1673ffffffffffffffffffffffffffffffffffffffff166357de26a46040518163ffffffff1660e01b815260040160206040518083038186803b158015611ea657600080fd5b505afa158015611eba573d6000803e3d6000fd5b505050506040513d601f19601f82011682018060405250611ede9190810190615c80565b60001c905090565b600080600c60008473ffffffffffffffffffffffffffffffffffffffff1673ffffffffffffffffffffffffffffffffffffffff16815260200190815260200160002090506000611f3584613d34565b905080826001015410611f4d57600092505050611f9f565b600c60008573ffffffffffffffffffffffffffffffffffffffff1673ffffffffffffffffffffffffffffffffffffffff16815260200190815260200160002060010154611f9985613d34565b03925050505b919050565b611fac612aff565b611feb576040517f08c379a0000000000000000000000000000000000000000000000000000000008152600401611fe290616ce3565b60405180910390fd5b600073ffffffffffffffffffffffffffffffffffffffff16600e60009054906101000a900473ffffffffffffffffffffffffffffffffffffffff1673ffffffffffffffffffffffffffffffffffffffff167f8be0079c531659141344cd1fd0a4f28419497f9722a3daafe3b4186f6b6457e060405160405180910390a36000600e60006101000a81548173ffffffffffffffffffffffffffffffffffffffff021916908373ffffffffffffffffffffffffffffffffffffffff160217905550565b6120b4612aff565b6120f3576040517f08c379a00000000000000000000000000000000000000000000000000000000081526004016120ea90616ce3565b60405180910390fd5b80601060006101000a81548173ffffffffffffffffffffffffffffffffffffffff021916908373ffffffffffffffffffffffffffffffffffffffff16021790555050565b601060009054906101000a900473ffffffffffffffffffffffffffffffffffffffff1681565b6103e881565b600c6020528060005260406000206000915090508060000154908060010154908060030154908060040160009054906101000a900460ff16908060040160019054906101000a900460ff16905085565b6000806121be611e3c565b90506122156103e86122076011546121f9670de0b6b3a76400006121eb878a613f7e90919063ffffffff16565b613fee90919063ffffffff16565b613f7e90919063ffffffff16565b613fee90919063ffffffff16565b915050919050565b6000612227610df8565b73ffffffffffffffffffffffffffffffffffffffff163373ffffffffffffffffffffffffffffffffffffffff1614612294576040517f08c379a000000000000000000000000000000000000000000000000000000000815260040161228b90616b63565b60405180910390fd5b6122e183838080601f016020809104026020016040519081016040528093929190818152602001838380828437600081840152601f19601f82011690508083019250505050505050614ad7565b905092915050565b600080600c60006122f8613b6c565b73ffffffffffffffffffffffffffffffffffffffff1673ffffffffffffffffffffffffffffffffffffffff1681526020019081526020016000209050600081600201848154811061234557fe5b906000526020600020906003020190508060000160009054906101000a900473ffffffffffffffffffffffffffffffffffffffff1673ffffffffffffffffffffffffffffffffffffffff16612398613b6c565b73ffffffffffffffffffffffffffffffffffffffff167f9b691786d8e66ef436af4d05f895ee1c9f3b4aa32a9a6854438f82b08c223045836001015484600201886040516123e893929190616eda565b60405180910390a361242782600201858154811061240257fe5b9060005260206000209060030201600101548360030154614b3b90919063ffffffff16565b826003018190555060018260020180549050038414612521578160020160018360020180549050038154811061245957fe5b906000526020600020906003020182600201858154811061247657fe5b90600052602060002090600302016000820160009054906101000a900473ffffffffffffffffffffffffffffffffffffffff168160000160006101000a81548173ffffffffffffffffffffffffffffffffffffffff021916908373ffffffffffffffffffffffffffffffffffffffff160217905550600182015481600101556002820181600201908054600181600116156101000203166002900461251c9291906151d3565b509050505b816002018054809190600190036125389190615121565b5060008260020180549050141561255457600082600101819055505b5050919050565b60006060600061256a846121b3565b9050806125768e613d34565b10156125a45760018090506040518060600160405280602f815260200161735f602f913992509250506125bf565b60008090506040518060200160405280600081525092509250505b9b509b9950505050505050505050565b6000600c60008373ffffffffffffffffffffffffffffffffffffffff1673ffffffffffffffffffffffffffffffffffffffff16815260200190815260200160002090506000600b60009054906101000a900473ffffffffffffffffffffffffffffffffffffffff1673ffffffffffffffffffffffffffffffffffffffff16637ff9b5966040518163ffffffff1660e01b815260040160206040518083038186803b15801561267c57600080fd5b505afa158015612690573d6000803e3d6000fd5b505050506040513d601f19601f820116820180604052506126b49190810190615d97565b905060006126c184612b5e565b90508260040160019054906101000a900460ff16806126e857506000836002018054905014155b1561270d5761270481846001015461496e90919063ffffffff16565b83600101819055505b6127383085836040518060200160405280600081525060405180602001604052806000815250614767565b8183600001819055508373ffffffffffffffffffffffffffffffffffffffff167ff9984c8173c4b4ff9cc454f76ed19c053f4490ccb224fd9ddffeb4ef4bea3530826040516127879190616de3565b60405180910390a250505050565b600b60009054906101000a900473ffffffffffffffffffffffffffffffffffffffff1673ffffffffffffffffffffffffffffffffffffffff168173ffffffffffffffffffffffffffffffffffffffff161415612826576040517f08c379a000000000000000000000000000000000000000000000000000000000815260040161281d90616bc3565b60405180910390fd5b61282f306125cf565b6000600a60009054906101000a900473ffffffffffffffffffffffffffffffffffffffff1690508073ffffffffffffffffffffffffffffffffffffffff1663a9059cbb61287a612ad5565b8373ffffffffffffffffffffffffffffffffffffffff166370a08231306040518263ffffffff1660e01b81526004016128b39190616955565b60206040518083038186803b1580156128cb57600080fd5b505afa1580156128df573d6000803e3d6000fd5b505050506040513d601f19601f820116820180604052506129039190810190615d97565b6040518363ffffffff1660e01b8152600401612920929190616a3f565b602060405180830381600087803b15801561293a57600080fd5b505af115801561294e573d6000803e3d6000fd5b505050506040513d601f19601f820116820180604052506129729190810190615c57565b505050565b8173ffffffffffffffffffffffffffffffffffffffff16612996613b6c565b73ffffffffffffffffffffffffffffffffffffffff161480612a455750600d60008373ffffffffffffffffffffffffffffffffffffffff1673ffffffffffffffffffffffffffffffffffffffff16815260200190815260200160002060006129fc613b6c565b73ffffffffffffffffffffffffffffffffffffffff1673ffffffffffffffffffffffffffffffffffffffff16815260200190815260200160002060009054906101000a900460ff165b612a84576040517f08c379a0000000000000000000000000000000000000000000000000000000008152600401612a7b90616c43565b60405180910390fd5b6000600c60008473ffffffffffffffffffffffffffffffffffffffff1673ffffffffffffffffffffffffffffffffffffffff1681526020019081526020016000209050818160010181905550505050565b6000600e60009054906101000a900473ffffffffffffffffffffffffffffffffffffffff16905090565b6000600e60009054906101000a900473ffffffffffffffffffffffffffffffffffffffff1673ffffffffffffffffffffffffffffffffffffffff16612b42613b6c565b73ffffffffffffffffffffffffffffffffffffffff1614905090565b600080600c60008473ffffffffffffffffffffffffffffffffffffffff1673ffffffffffffffffffffffffffffffffffffffff1681526020019081526020016000209050612c7c670de0b6b3a7640000612c6e8360000154600b60009054906101000a900473ffffffffffffffffffffffffffffffffffffffff1673ffffffffffffffffffffffffffffffffffffffff16637ff9b5966040518163ffffffff1660e01b815260040160206040518083038186803b158015612c1e57600080fd5b505afa158015612c32573d6000803e3d6000fd5b505050506040513d601f19601f82011682018060405250612c569190810190615d97565b03612c6087613d34565b613f7e90919063ffffffff16565b613fee90919063ffffffff16565b915050919050565b80600c6000612c91613b6c565b73ffffffffffffffffffffffffffffffffffffffff1673ffffffffffffffffffffffffffffffffffffffff16815260200190815260200160002060040160006101000a81548160ff02191690831515021790555050565b8073ffffffffffffffffffffffffffffffffffffffff16612d07613b6c565b73ffffffffffffffffffffffffffffffffffffffff161415612d5e576040517f08c379a0000000000000000000000000000000000000000000000000000000008152600401612d5590616c63565b60405180910390fd5b600660008273ffffffffffffffffffffffffffffffffffffffff1673ffffffffffffffffffffffffffffffffffffffff16815260200190815260200160002060009054906101000a900460ff1615612e485760086000612dbc613b6c565b73ffffffffffffffffffffffffffffffffffffffff1673ffffffffffffffffffffffffffffffffffffffff16815260200190815260200160002060008273ffffffffffffffffffffffffffffffffffffffff1673ffffffffffffffffffffffffffffffffffffffff16815260200190815260200160002060006101000a81549060ff0219169055612ee5565b600160076000612e56613b6c565b73ffffffffffffffffffffffffffffffffffffffff1673ffffffffffffffffffffffffffffffffffffffff16815260200190815260200160002060008373ffffffffffffffffffffffffffffffffffffffff1673ffffffffffffffffffffffffffffffffffffffff16815260200190815260200160002060006101000a81548160ff0219169083151502179055505b612eed613b6c565b73ffffffffffffffffffffffffffffffffffffffff168173ffffffffffffffffffffffffffffffffffffffff167ff4caeb2d6ca8932a215a353d0703c326ec2d81fc68170f320eb2ab49e9df61f960405160405180910390a350565b606060048054600181600116156101000203166002900480601f016020809104026020016040519081016040528092919081815260200182805460018160011615610100020316600290048015612fe15780601f10612fb657610100808354040283529160200191612fe1565b820191906000526020600020905b815481529060010190602001808311612fc457829003601f168201915b5050505050905090565b61305c612ff6613b6c565b612ffe613b6c565b868686868080601f016020809104026020016040519081016040528093929190818152602001838380828437600081840152601f19601f820116905080830192505050505050506040518060200160405280600081525060016149c3565b50505050565b61306a611026565b60008090505b83518110156130cb576130bd84828151811061308857fe5b602002602001015184838151811061309c57fe5b60200260200101518484815181106130b057fe5b6020026020010151611b22565b508080600101915050613070565b50505050565b60008073ffffffffffffffffffffffffffffffffffffffff168373ffffffffffffffffffffffffffffffffffffffff161415613142576040517f08c379a000000000000000000000000000000000000000000000000000000000815260040161313990616d23565b60405180910390fd5b600061314c613b6c565b905061317a818286866040518060200160405280600081525060405180602001604052806000815250614259565b6131a68182868660405180602001604052806000815250604051806020016040528060008152506143df565b6131d481828686604051806020016040528060008152506040518060200160405280600081525060006144e4565b600191505092915050565b60606040518060400160405280600581526020017f312e302e30000000000000000000000000000000000000000000000000000000815250905090565b61322d613227613b6c565b856117f5565b613238838383613062565b50505050565b6060600080600c60008573ffffffffffffffffffffffffffffffffffffffff1673ffffffffffffffffffffffffffffffffffffffff168152602001908152602001600020905080600201805480602002602001604051908101604052809291908181526020016000905b828210156133dc57838290600052602060002090600302016040518060600160405290816000820160009054906101000a900473ffffffffffffffffffffffffffffffffffffffff1673ffffffffffffffffffffffffffffffffffffffff1673ffffffffffffffffffffffffffffffffffffffff16815260200160018201548152602001600282018054600181600116156101000203166002900480601f0160208091040260200160405190810160405280929190818152602001828054600181600116156101000203166002900480156133c45780601f10613399576101008083540402835291602001916133c4565b820191906000526020600020905b8154815290600101906020018083116133a757829003601f168201915b505050505081525050815260200190600101906132a8565b5050505092508060030154915050915091565b60006133fa82613d34565b9050919050565b600b60009054906101000a900473ffffffffffffffffffffffffffffffffffffffff1681565b60008173ffffffffffffffffffffffffffffffffffffffff168373ffffffffffffffffffffffffffffffffffffffff16148061353f5750600660008473ffffffffffffffffffffffffffffffffffffffff1673ffffffffffffffffffffffffffffffffffffffff16815260200190815260200160002060009054906101000a900460ff16801561353e5750600860008373ffffffffffffffffffffffffffffffffffffffff1673ffffffffffffffffffffffffffffffffffffffff16815260200190815260200160002060008473ffffffffffffffffffffffffffffffffffffffff1673ffffffffffffffffffffffffffffffffffffffff16815260200190815260200160002060009054906101000a900460ff16155b5b806135d05750600760008373ffffffffffffffffffffffffffffffffffffffff1673ffffffffffffffffffffffffffffffffffffffff16815260200190815260200160002060008473ffffffffffffffffffffffffffffffffffffffff1673ffffffffffffffffffffffffffffffffffffffff16815260200190815260200160002060009054906101000a900460ff165b905092915050565b6000600960008473ffffffffffffffffffffffffffffffffffffffff1673ffffffffffffffffffffffffffffffffffffffff16815260200190815260200160002060008373ffffffffffffffffffffffffffffffffffffffff1673ffffffffffffffffffffffffffffffffffffffff16815260200190815260200160002054905092915050565b613667610df8565b73ffffffffffffffffffffffffffffffffffffffff163373ffffffffffffffffffffffffffffffffffffffff16146136d4576040517f08c379a00000000000000000000000000000000000000000000000000000000081526004016136cb90616b63565b60405180910390fd5b61372485858080601f016020809104026020016040519081016040528093929190818152602001838380828437600081840152601f19601f82011690508083019250505050505050848484614b85565b5050505050565b613733612aff565b613772576040517f08c379a000000000000000000000000000000000000000000000000000000000815260040161376990616ce3565b60405180910390fd5b61377b81614c36565b50565b613786613b6c565b73ffffffffffffffffffffffffffffffffffffffff168173ffffffffffffffffffffffffffffffffffffffff1614156137f4576040517f08c379a00000000000000000000000000000000000000000000000000000000081526004016137eb90616c83565b60405180910390fd5b600660008273ffffffffffffffffffffffffffffffffffffffff1673ffffffffffffffffffffffffffffffffffffffff16815260200190815260200160002060009054906101000a900460ff16156138e757600160086000613854613b6c565b73ffffffffffffffffffffffffffffffffffffffff1673ffffffffffffffffffffffffffffffffffffffff16815260200190815260200160002060008373ffffffffffffffffffffffffffffffffffffffff1673ffffffffffffffffffffffffffffffffffffffff16815260200190815260200160002060006101000a81548160ff02191690831515021790555061397b565b600760006138f3613b6c565b73ffffffffffffffffffffffffffffffffffffffff1673ffffffffffffffffffffffffffffffffffffffff16815260200190815260200160002060008273ffffffffffffffffffffffffffffffffffffffff1673ffffffffffffffffffffffffffffffffffffffff16815260200190815260200160002060006101000a81549060ff02191690555b613983613b6c565b73ffffffffffffffffffffffffffffffffffffffff168173ffffffffffffffffffffffffffffffffffffffff167f50546e66e5f44d728365dc3908c63bc5cfeeab470722c1677e3073a6ac294aa160405160405180910390a350565b600a60009054906101000a900473ffffffffffffffffffffffffffffffffffffffff1681565b613a16613a10613b6c565b87613427565b613a55576040517f08c379a0000000000000000000000000000000000000000000000000000000008152600401613a4c90616d63565b60405180910390fd5b613af1613a60613b6c565b878787878080601f016020809104026020016040519081016040528093929190818152602001838380828437600081840152601f19601f8201169050808301925050505050505086868080601f016020809104026020016040519081016040528093929190818152602001838380828437600081840152601f19601f82011690508083019250505050505050613d5f565b505050505050565b613b67613b04613b6c565b613b0c613b6c565b8585858080601f016020809104026020016040519081016040528093929190818152602001838380828437600081840152601f19601f8201169050808301925050505050505060405180602001604052806000815250613d5f565b505050565b6000600f60009054906101000a900473ffffffffffffffffffffffffffffffffffffffff1673ffffffffffffffffffffffffffffffffffffffff163373ffffffffffffffffffffffffffffffffffffffff1614613bcb57339050613bd6565b613bd3614d66565b90505b90565b600073ffffffffffffffffffffffffffffffffffffffff168273ffffffffffffffffffffffffffffffffffffffff161415613c49576040517f08c379a0000000000000000000000000000000000000000000000000000000008152600401613c4090616dc3565b60405180910390fd5b80600960008573ffffffffffffffffffffffffffffffffffffffff1673ffffffffffffffffffffffffffffffffffffffff16815260200190815260200160002060008473ffffffffffffffffffffffffffffffffffffffff1673ffffffffffffffffffffffffffffffffffffffff168152602001908152602001600020819055508173ffffffffffffffffffffffffffffffffffffffff168373ffffffffffffffffffffffffffffffffffffffff167f8c5be1e5ebec7d5bd14f71427d1e84f3dd0314c0f7b2291e5b200ac8c7c3b92583604051613d279190616de3565b60405180910390a3505050565b6000613d3f82614dde565b9050919050565b6000818310613d555781613d57565b825b905092915050565b600073ffffffffffffffffffffffffffffffffffffffff168473ffffffffffffffffffffffffffffffffffffffff161415613dcf576040517f08c379a0000000000000000000000000000000000000000000000000000000008152600401613dc690616c23565b60405180910390fd5b613dde85856000868686614259565b613e4a836040518060600160405280602381526020016173b760239139600160008873ffffffffffffffffffffffffffffffffffffffff1673ffffffffffffffffffffffffffffffffffffffff168152602001908152602001600020546144899092919063ffffffff16565b600160008673ffffffffffffffffffffffffffffffffffffffff1673ffffffffffffffffffffffffffffffffffffffff16815260200190815260200160002081905550613ea283600254614b3b90919063ffffffff16565b6002819055508373ffffffffffffffffffffffffffffffffffffffff168573ffffffffffffffffffffffffffffffffffffffff167fa78a9be3a7b862d26933ad85fb11d80ef66b8f972d7cbba06621d583943a4098858585604051613f0993929190616e57565b60405180910390a3600073ffffffffffffffffffffffffffffffffffffffff168473ffffffffffffffffffffffffffffffffffffffff167fddf252ad1be2c89b69c2b068fc378daa952ba7f163c4a11628f55a4df523b3ef85604051613f6f9190616de3565b60405180910390a35050505050565b600080831415613f915760009050613fe8565b6000828402905082848281613fa257fe5b0414613fe3576040517f08c379a0000000000000000000000000000000000000000000000000000000008152600401613fda90616cc3565b60405180910390fd5b809150505b92915050565b600061403083836040518060400160405280601a81526020017f536166654d6174683a206469766973696f6e206279207a65726f000000000000815250614e27565b905092915050565b600080600c60008573ffffffffffffffffffffffffffffffffffffffff1673ffffffffffffffffffffffffffffffffffffffff1681526020019081526020016000209050614093838260010154614b3b90919063ffffffff16565b81600101819055506000816002018054905014156140b5576001915050614253565b60008090505b816002018054905081101561424c576140d261525a565b8260020182815481106140e157fe5b90600052602060002090600302016040518060600160405290816000820160009054906101000a900473ffffffffffffffffffffffffffffffffffffffff1673ffffffffffffffffffffffffffffffffffffffff1673ffffffffffffffffffffffffffffffffffffffff16815260200160018201548152602001600282018054600181600116156101000203166002900480601f0160208091040260200160405190810160405280929190818152602001828054600181600116156101000203166002900480156141f35780601f106141c8576101008083540402835291602001916141f3565b820191906000526020600020905b8154815290600101906020018083116141d657829003601f168201915b505050505081525050905060008360030154826020015187028161421357fe5b04905061423d308884600001518486604001516040518060200160405280600081525060006149c3565b505080806001019150506140bb565b5060019150505b92915050565b60008060009054906101000a900473ffffffffffffffffffffffffffffffffffffffff1673ffffffffffffffffffffffffffffffffffffffff1663aabbb8ca877f29ddb589b1fb5fc7cf394961c1adf5f8c6454761adf795e67fe149f658abe89560001b6040518363ffffffff1660e01b81526004016142da929190616a16565b60206040518083038186803b1580156142f257600080fd5b505afa158015614306573d6000803e3d6000fd5b505050506040513d601f19601f8201168201806040525061432a91908101906156ae565b9050600073ffffffffffffffffffffffffffffffffffffffff168173ffffffffffffffffffffffffffffffffffffffff16146143d6578073ffffffffffffffffffffffffffffffffffffffff166375ab97828888888888886040518763ffffffff1660e01b81526004016143a396959493929190616970565b600060405180830381600087803b1580156143bd57600080fd5b505af11580156143d1573d6000803e3d6000fd5b505050505b50505050505050565b6143e8856125cf565b6143f1846125cf565b6000600c60008673ffffffffffffffffffffffffffffffffffffffff1673ffffffffffffffffffffffffffffffffffffffff1681526020019081526020016000209050600115158160040160009054906101000a900460ff16151514156144725761446984826001015461496e90919063ffffffff16565b81600101819055505b614480878787878787614e88565b50505050505050565b60008383111582906144d1576040517f08c379a00000000000000000000000000000000000000000000000000000000081526004016144c89190616b41565b60405180910390fd5b5060008385039050809150509392505050565b60008060009054906101000a900473ffffffffffffffffffffffffffffffffffffffff1673ffffffffffffffffffffffffffffffffffffffff1663aabbb8ca877fb281fc8c12954d22544db45de3159a39272895b169a852b314f9cc762e44c53b60001b6040518363ffffffff1660e01b8152600401614565929190616a16565b60206040518083038186803b15801561457d57600080fd5b505afa158015614591573d6000803e3d6000fd5b505050506040513d601f19601f820116820180604052506145b591908101906156ae565b9050600073ffffffffffffffffffffffffffffffffffffffff168173ffffffffffffffffffffffffffffffffffffffff1614614664578073ffffffffffffffffffffffffffffffffffffffff166223de298989898989896040518763ffffffff1660e01b815260040161462d96959493929190616970565b600060405180830381600087803b15801561464757600080fd5b505af115801561465b573d6000803e3d6000fd5b505050506146cb565b81156146ca576146898673ffffffffffffffffffffffffffffffffffffffff166150b9565b156146c9576040517f08c379a00000000000000000000000000000000000000000000000000000000081526004016146c090616d03565b60405180910390fd5b5b5b5050505050505050565b600f60009054906101000a900473ffffffffffffffffffffffffffffffffffffffff1673ffffffffffffffffffffffffffffffffffffffff1662f714ce83836040518363ffffffff1660e01b8152600401614731929190616dfe565b600060405180830381600087803b15801561474b57600080fd5b505af115801561475f573d6000803e3d6000fd5b505050505050565b600073ffffffffffffffffffffffffffffffffffffffff168473ffffffffffffffffffffffffffffffffffffffff1614156147d7576040517f08c379a00000000000000000000000000000000000000000000000000000000081526004016147ce90616ca3565b60405180910390fd5b6147ec8360025461496e90919063ffffffff16565b60028190555061484483600160008773ffffffffffffffffffffffffffffffffffffffff1673ffffffffffffffffffffffffffffffffffffffff1681526020019081526020016000205461496e90919063ffffffff16565b600160008673ffffffffffffffffffffffffffffffffffffffff1673ffffffffffffffffffffffffffffffffffffffff168152602001908152602001600020819055506148988560008686868660016144e4565b8373ffffffffffffffffffffffffffffffffffffffff168573ffffffffffffffffffffffffffffffffffffffff167f2fe5be0146f74c5bce36c0b80911af6c7d86ff27e89d5cfa61fc681327954e5d8585856040516148f993929190616e57565b60405180910390a38373ffffffffffffffffffffffffffffffffffffffff16600073ffffffffffffffffffffffffffffffffffffffff167fddf252ad1be2c89b69c2b068fc378daa952ba7f163c4a11628f55a4df523b3ef8560405161495f9190616de3565b60405180910390a35050505050565b6000808284019050838110156149b9576040517f08c379a00000000000000000000000000000000000000000000000000000000081526004016149b090616c03565b60405180910390fd5b8091505092915050565b600073ffffffffffffffffffffffffffffffffffffffff168673ffffffffffffffffffffffffffffffffffffffff161415614a33576040517f08c379a0000000000000000000000000000000000000000000000000000000008152600401614a2a90616b83565b60405180910390fd5b600073ffffffffffffffffffffffffffffffffffffffff168573ffffffffffffffffffffffffffffffffffffffff161415614aa3576040517f08c379a0000000000000000000000000000000000000000000000000000000008152600401614a9a90616da3565b60405180910390fd5b614ab1878787878787614259565b614abf8787878787876143df565b614ace878787878787876144e4565b50505050505050565b600080600083806020019051614af091908101906156d7565b915091506000614aff826121b3565b9050614b2d3084308460405180602001604052806000815250604051806020016040528060008152506143df565b6000801b9350505050919050565b6000614b7d83836040518060400160405280601e81526020017f536166654d6174683a207375627472616374696f6e206f766572666c6f770000815250614489565b905092915050565b60008060008087806020019051614b9f9190810190615713565b93509350935093506000614bcb614bc4612710620186a0614b3b90919063ffffffff16565b8385615104565b90506000614be28289614b3b90919063ffffffff16565b9050614c2a303088614c05614c00868b614b3b90919063ffffffff16565b6121b3565b60405180602001604052806000815250604051806020016040528060008152506143df565b50505050505050505050565b600073ffffffffffffffffffffffffffffffffffffffff168173ffffffffffffffffffffffffffffffffffffffff161415614ca6576040517f08c379a0000000000000000000000000000000000000000000000000000000008152600401614c9d90616be3565b60405180910390fd5b8073ffffffffffffffffffffffffffffffffffffffff16600e60009054906101000a900473ffffffffffffffffffffffffffffffffffffffff1673ffffffffffffffffffffffffffffffffffffffff167f8be0079c531659141344cd1fd0a4f28419497f9722a3daafe3b4186f6b6457e060405160405180910390a380600e60006101000a81548173ffffffffffffffffffffffffffffffffffffffff021916908373ffffffffffffffffffffffffffffffffffffffff16021790555050565b600060606000368080601f016020809104026020016040519081016040528093929190818152602001838380828437600081840152601f19601f820116905080830192505050505050509050600080369050905073ffffffffffffffffffffffffffffffffffffffff81830151169250829250505090565b6000600160008373ffffffffffffffffffffffffffffffffffffffff1673ffffffffffffffffffffffffffffffffffffffff168152602001908152602001600020549050919050565b60008083118290614e6e576040517f08c379a0000000000000000000000000000000000000000000000000000000008152600401614e659190616b41565b60405180910390fd5b506000838581614e7a57fe5b049050809150509392505050565b614ef48360405180606001604052806027815260200161733860279139600160008973ffffffffffffffffffffffffffffffffffffffff1673ffffffffffffffffffffffffffffffffffffffff168152602001908152602001600020546144899092919063ffffffff16565b600160008773ffffffffffffffffffffffffffffffffffffffff1673ffffffffffffffffffffffffffffffffffffffff16815260200190815260200160002081905550614f8983600160008773ffffffffffffffffffffffffffffffffffffffff1673ffffffffffffffffffffffffffffffffffffffff1681526020019081526020016000205461496e90919063ffffffff16565b600160008673ffffffffffffffffffffffffffffffffffffffff1673ffffffffffffffffffffffffffffffffffffffff168152602001908152602001600020819055508373ffffffffffffffffffffffffffffffffffffffff168573ffffffffffffffffffffffffffffffffffffffff168773ffffffffffffffffffffffffffffffffffffffff167f06b541ddaa720db2b10a4d0cdac39b8d360425fc073085fac19bc8261467798786868660405161504493929190616e57565b60405180910390a48373ffffffffffffffffffffffffffffffffffffffff168573ffffffffffffffffffffffffffffffffffffffff167fddf252ad1be2c89b69c2b068fc378daa952ba7f163c4a11628f55a4df523b3ef856040516150a99190616de3565b60405180910390a3505050505050565b60008060007fc5d2460186f7233c927e7db2dcc703c0e500b653ca82273b7bfad8045d85a47060001b9050833f91506000801b82141580156150fb5750808214155b92505050919050565b6000606482606401848602028161511757fe5b0490509392505050565b81548183558181111561514e5760030281600302836000526020600020918201910161514d9190615291565b5b505050565b828054600181600116156101000203166002900490600052602060002090601f016020900481019282601f1061519457805160ff19168380011785556151c2565b828001600101855582156151c2579182015b828111156151c15782518255916020019190600101906151a6565b5b5090506151cf91906152ef565b5090565b828054600181600116156101000203166002900490600052602060002090601f016020900481019282601f1061520c5780548555615249565b8280016001018555821561524957600052602060002091601f016020900482015b8281111561524857825482559160010191906001019061522d565b5b50905061525691906152ef565b5090565b6040518060600160405280600073ffffffffffffffffffffffffffffffffffffffff16815260200160008152602001606081525090565b6152ec91905b808211156152e857600080820160006101000a81549073ffffffffffffffffffffffffffffffffffffffff021916905560018201600090556002820160006152df9190615314565b50600301615297565b5090565b90565b61531191905b8082111561530d5760008160009055506001016152f5565b5090565b90565b50805460018160011615610100020316600290046000825580601f1061533a5750615359565b601f01602090049060005260206000209081019061535891906152ef565b5b50565b60008135905061536b816172c4565b92915050565b600081519050615380816172c4565b92915050565b600081519050615395816172db565b92915050565b600082601f8301126153ac57600080fd5b81356153bf6153ba82616fb3565b616f86565b915081818352602084019350602081019050838560208402820111156153e457600080fd5b60005b8381101561541457816153fa888261535c565b8452602084019350602083019250506001810190506153e7565b5050505092915050565b600082601f83011261542f57600080fd5b813561544261543d82616fdb565b616f86565b9150818183526020840193506020810190508360005b83811015615488578135860161546e88826155b3565b845260208401935060208301925050600181019050615458565b5050505092915050565b600082601f8301126154a357600080fd5b81356154b66154b182617003565b616f86565b915081818352602084019350602081019050838560208402820111156154db57600080fd5b60005b8381101561550b57816154f1888261565b565b8452602084019350602083019250506001810190506154de565b5050505092915050565b600081359050615524816172f2565b92915050565b600081519050615539816172f2565b92915050565b60008135905061554e81617309565b92915050565b60008151905061556381617309565b92915050565b60008083601f84011261557b57600080fd5b8235905067ffffffffffffffff81111561559457600080fd5b6020830191508360018202830111156155ac57600080fd5b9250929050565b600082601f8301126155c457600080fd5b81356155d76155d28261702b565b616f86565b915080825260208301602083018583830111156155f357600080fd5b6155fe838284617271565b50505092915050565b600082601f83011261561857600080fd5b813561562b61562682617057565b616f86565b9150808252602083016020830185838301111561564757600080fd5b615652838284617271565b50505092915050565b60008135905061566a81617320565b92915050565b60008151905061567f81617320565b92915050565b60006020828403121561569757600080fd5b60006156a58482850161535c565b91505092915050565b6000602082840312156156c057600080fd5b60006156ce84828501615371565b91505092915050565b600080604083850312156156ea57600080fd5b60006156f885828601615386565b925050602061570985828601615670565b9150509250929050565b6000806000806080858703121561572957600080fd5b600061573787828801615386565b945050602061574887828801615670565b935050604061575987828801615670565b925050606061576a87828801615670565b91505092959194509250565b6000806040838503121561578957600080fd5b60006157978582860161535c565b92505060206157a88582860161535c565b9150509250929050565b60008060008060008060008060008060006101208c8e0312156157d457600080fd5b60006157e28e828f0161535c565b9b505060206157f38e828f0161535c565b9a505060408c013567ffffffffffffffff81111561581057600080fd5b61581c8e828f01615569565b9950995050606061582f8e828f0161565b565b97505060806158408e828f0161565b565b96505060a06158518e828f0161565b565b95505060c06158628e828f0161565b565b94505060e08c013567ffffffffffffffff81111561587f57600080fd5b61588b8e828f01615569565b935093505061010061589f8e828f0161565b565b9150509295989b509295989b9093969950565b6000806000606084860312156158c757600080fd5b60006158d58682870161535c565b93505060206158e68682870161535c565b92505060406158f78682870161565b565b9150509250925092565b600080600080600080600060a0888a03121561591c57600080fd5b600061592a8a828b0161535c565b975050602061593b8a828b0161535c565b965050604061594c8a828b0161565b565b955050606088013567ffffffffffffffff81111561596957600080fd5b6159758a828b01615569565b9450945050608088013567ffffffffffffffff81111561599457600080fd5b6159a08a828b01615569565b925092505092959891949750929550565b600080604083850312156159c457600080fd5b60006159d28582860161535c565b92505060206159e385828601615515565b9150509250929050565b60008060408385031215615a0057600080fd5b6000615a0e8582860161535c565b9250506020615a1f8582860161565b565b9150509250929050565b60008060008060608587031215615a3f57600080fd5b6000615a4d8782880161535c565b9450506020615a5e8782880161565b565b935050604085013567ffffffffffffffff811115615a7b57600080fd5b615a8787828801615569565b925092505092959194509250565b60008060008060008060808789031215615aae57600080fd5b6000615abc89828a0161535c565b9650506020615acd89828a0161565b565b955050604087013567ffffffffffffffff811115615aea57600080fd5b615af689828a01615569565b9450945050606087013567ffffffffffffffff811115615b1557600080fd5b615b2189828a01615569565b92509250509295509295509295565b600080600060608486031215615b4557600080fd5b6000615b538682870161535c565b9350506020615b648682870161565b565b925050604084013567ffffffffffffffff811115615b8157600080fd5b615b8d86828701615607565b9150509250925092565b600080600060608486031215615bac57600080fd5b600084013567ffffffffffffffff811115615bc657600080fd5b615bd28682870161539b565b935050602084013567ffffffffffffffff811115615bef57600080fd5b615bfb86828701615492565b925050604084013567ffffffffffffffff811115615c1857600080fd5b615c248682870161541e565b9150509250925092565b600060208284031215615c4057600080fd5b6000615c4e84828501615515565b91505092915050565b600060208284031215615c6957600080fd5b6000615c778482850161552a565b91505092915050565b600060208284031215615c9257600080fd5b6000615ca084828501615554565b91505092915050565b60008060208385031215615cbc57600080fd5b600083013567ffffffffffffffff811115615cd657600080fd5b615ce285828601615569565b92509250509250929050565b600080600080600060808688031215615d0657600080fd5b600086013567ffffffffffffffff811115615d2057600080fd5b615d2c88828901615569565b95509550506020615d3f88828901615515565b9350506040615d508882890161565b565b9250506060615d618882890161553f565b9150509295509295909350565b600060208284031215615d8057600080fd5b6000615d8e8482850161565b565b91505092915050565b600060208284031215615da957600080fd5b6000615db784828501615670565b91505092915050565b60008060008060808587031215615dd657600080fd5b6000615de48782880161565b565b945050602085013567ffffffffffffffff811115615e0157600080fd5b615e0d8782880161539b565b935050604085013567ffffffffffffffff811115615e2a57600080fd5b615e3687828801615492565b925050606085013567ffffffffffffffff811115615e5357600080fd5b615e5f8782880161541e565b91505092959194509250565b600080600060408486031215615e8057600080fd5b6000615e8e8682870161565b565b935050602084013567ffffffffffffffff811115615eab57600080fd5b615eb786828701615569565b92509250509250925092565b6000615ecf8383615f0d565b60208301905092915050565b6000615ee783836168bd565b905092915050565b615ef8816171cf565b82525050565b615f0781617170565b82525050565b615f168161715e565b82525050565b615f258161715e565b82525050565b6000615f36826170b8565b615f408185617109565b9350615f4b83617083565b8060005b83811015615f7c578151615f638882615ec3565b9750615f6e836170ef565b925050600181019050615f4f565b5085935050505092915050565b6000615f94826170c3565b615f9e818561711a565b935083602082028501615fb085617093565b8060005b85811015615fec5784840389528151615fcd8582615edb565b9450615fd8836170fc565b925060208a01995050600181019050615fb4565b50829750879550505050505092915050565b61600781617182565b82525050565b6160168161718e565b82525050565b6000616027826170d9565b616031818561713c565b9350616041818560208601617280565b61604a816172b3565b840191505092915050565b6000616060826170ce565b61606a818561712b565b935061607a818560208601617280565b616083816172b3565b840191505092915050565b6000815460018116600081146160ab57600181146160d157616115565b607f60028304166160bc818761713c565b955060ff198316865260208601935050616115565b600282046160df818761713c565b95506160ea856170a3565b60005b8281101561610c578154818901526001820191506020810190506160ed565b80880195505050505b505092915050565b616126816171e1565b82525050565b61613581617205565b82525050565b61614481617229565b82525050565b6000616155826170e4565b61615f818561714d565b935061616f818560208601617280565b616178816172b3565b840191505092915050565b600061619060268361714d565b91507f47534e426f756e636572426173653a2063616c6c6572206973206e6f7420526560008301527f6c617948756200000000000000000000000000000000000000000000000000006020830152604082019050919050565b60006161f660228361714d565b91507f4552433737373a2073656e642066726f6d20746865207a65726f20616464726560008301527f73730000000000000000000000000000000000000000000000000000000000006020830152604082019050919050565b600061625c601a8361714d565b91507f444441492e6d696e743a205452414e534645525f4641494c45440000000000006000830152602082019050919050565b600061629c60408361714d565b91507f4444414947534e426f756e6365722e7769746864726177546f6b656e3a20434160008301527f4e4e4f545f57495448445241575f4d4f4e45595f4d41524b45545f544f4b454e6020830152604082019050919050565b600061630260268361714d565b91507f4f776e61626c653a206e6577206f776e657220697320746865207a65726f206160008301527f64647265737300000000000000000000000000000000000000000000000000006020830152604082019050919050565b6000616368601b8361714d565b91507f536166654d6174683a206164646974696f6e206f766572666c6f7700000000006000830152602082019050919050565b60006163a860228361714d565b91507f4552433737373a206275726e2066726f6d20746865207a65726f20616464726560008301527f73730000000000000000000000000000000000000000000000000000000000006020830152604082019050919050565b600061640e601d8361714d565b91507f444441492e70757368546f537461636b3a204e4f545f414c4c4f5745440000006000830152602082019050919050565b600061644e60248361714d565b91507f4552433737373a20617574686f72697a696e672073656c66206173206f70657260008301527f61746f72000000000000000000000000000000000000000000000000000000006020830152604082019050919050565b60006164b460218361714d565b91507f4552433737373a207265766f6b696e672073656c66206173206f70657261746f60008301527f72000000000000000000000000000000000000000000000000000000000000006020830152604082019050919050565b600061651a60208361714d565b91507f4552433737373a206d696e7420746f20746865207a65726f20616464726573736000830152602082019050919050565b600061655a60218361714d565b91507f536166654d6174683a206d756c7469706c69636174696f6e206f766572666c6f60008301527f77000000000000000000000000000000000000000000000000000000000000006020830152604082019050919050565b60006165c060208361714d565b91507f4f776e61626c653a2063616c6c6572206973206e6f7420746865206f776e65726000830152602082019050919050565b6000616600604d8361714d565b91507f4552433737373a20746f6b656e20726563697069656e7420636f6e747261637460008301527f20686173206e6f20696d706c656d656e74657220666f7220455243373737546f60208301527f6b656e73526563697069656e74000000000000000000000000000000000000006040830152606082019050919050565b600061668c60248361714d565b91507f4552433737373a207472616e7366657220746f20746865207a65726f2061646460008301527f72657373000000000000000000000000000000000000000000000000000000006020830152604082019050919050565b60006166f260248361714d565b91507f444441492e72656465656d3a204d4f4e45595f4d41524b45545f4e4f545f4c4960008301527f51554944000000000000000000000000000000000000000000000000000000006020830152604082019050919050565b6000616758602c8361714d565b91507f4552433737373a2063616c6c6572206973206e6f7420616e206f70657261746f60008301527f7220666f7220686f6c64657200000000000000000000000000000000000000006020830152604082019050919050565b60006167be60268361714d565b91507f4552433737373a207472616e736665722066726f6d20746865207a65726f206160008301527f64647265737300000000000000000000000000000000000000000000000000006020830152604082019050919050565b600061682460208361714d565b91507f4552433737373a2073656e6420746f20746865207a65726f20616464726573736000830152602082019050919050565b600061686460238361714d565b91507f4552433737373a20617070726f766520746f20746865207a65726f206164647260008301527f65737300000000000000000000000000000000000000000000000000000000006020830152604082019050919050565b60006060830160008301516168d56000860182615f0d565b5060208301516168e8602086018261690d565b50604083015184820360408601526169008282616055565b9150508091505092915050565b616916816171b8565b82525050565b616925816171b8565b82525050565b616934816171c2565b82525050565b600060208201905061694f6000830184615f1c565b92915050565b600060208201905061696a6000830184615eef565b92915050565b600060c0820190506169856000830189615f1c565b6169926020830188615f1c565b61699f6040830187615f1c565b6169ac606083018661691c565b81810360808301526169be818561601c565b905081810360a08301526169d2818461601c565b9050979650505050505050565b60006060820190506169f46000830186615f1c565b616a016020830185615f1c565b616a0e604083018461691c565b949350505050565b6000604082019050616a2b6000830185615f1c565b616a38602083018461600d565b9392505050565b6000604082019050616a546000830185615f1c565b616a61602083018461691c565b9392505050565b60006020820190508181036000830152616a828184615f2b565b905092915050565b60006040820190508181036000830152616aa48185615f89565b9050616ab3602083018461691c565b9392505050565b6000602082019050616acf6000830184615ffe565b92915050565b6000602082019050616aea600083018461600d565b92915050565b6000602082019050616b05600083018461611d565b92915050565b6000602082019050616b20600083018461612c565b92915050565b6000602082019050616b3b600083018461613b565b92915050565b60006020820190508181036000830152616b5b818461614a565b905092915050565b60006020820190508181036000830152616b7c81616183565b9050919050565b60006020820190508181036000830152616b9c816161e9565b9050919050565b60006020820190508181036000830152616bbc8161624f565b9050919050565b60006020820190508181036000830152616bdc8161628f565b9050919050565b60006020820190508181036000830152616bfc816162f5565b9050919050565b60006020820190508181036000830152616c1c8161635b565b9050919050565b60006020820190508181036000830152616c3c8161639b565b9050919050565b60006020820190508181036000830152616c5c81616401565b9050919050565b60006020820190508181036000830152616c7c81616441565b9050919050565b60006020820190508181036000830152616c9c816164a7565b9050919050565b60006020820190508181036000830152616cbc8161650d565b9050919050565b60006020820190508181036000830152616cdc8161654d565b9050919050565b60006020820190508181036000830152616cfc816165b3565b9050919050565b60006020820190508181036000830152616d1c816165f3565b9050919050565b60006020820190508181036000830152616d3c8161667f565b9050919050565b60006020820190508181036000830152616d5c816166e5565b9050919050565b60006020820190508181036000830152616d7c8161674b565b9050919050565b60006020820190508181036000830152616d9c816167b1565b9050919050565b60006020820190508181036000830152616dbc81616817565b9050919050565b60006020820190508181036000830152616ddc81616857565b9050919050565b6000602082019050616df8600083018461691c565b92915050565b6000604082019050616e13600083018561691c565b616e206020830184615efe565b9392505050565b6000604082019050616e3c600083018561691c565b8181036020830152616e4e818461601c565b90509392505050565b6000606082019050616e6c600083018661691c565b8181036020830152616e7e818561601c565b90508181036040830152616e92818461601c565b9050949350505050565b6000606082019050616eb1600083018661691c565b8181036020830152616ec3818561601c565b9050616ed2604083018461691c565b949350505050565b6000606082019050616eef600083018661691c565b8181036020830152616f01818561608e565b9050616f10604083018461691c565b949350505050565b600060a082019050616f2d600083018861691c565b616f3a602083018761691c565b616f47604083018661691c565b616f546060830185615ffe565b616f616080830184615ffe565b9695505050505050565b6000602082019050616f80600083018461692b565b92915050565b6000604051905081810181811067ffffffffffffffff82111715616fa957600080fd5b8060405250919050565b600067ffffffffffffffff821115616fca57600080fd5b602082029050602081019050919050565b600067ffffffffffffffff821115616ff257600080fd5b602082029050602081019050919050565b600067ffffffffffffffff82111561701a57600080fd5b602082029050602081019050919050565b600067ffffffffffffffff82111561704257600080fd5b601f19601f8301169050602081019050919050565b600067ffffffffffffffff82111561706e57600080fd5b601f19601f8301169050602081019050919050565b6000819050602082019050919050565b6000819050602082019050919050565b60008190508160005260206000209050919050565b600081519050919050565b600081519050919050565b600081519050919050565b600081519050919050565b600081519050919050565b6000602082019050919050565b6000602082019050919050565b600082825260208201905092915050565b600082825260208201905092915050565b600082825260208201905092915050565b600082825260208201905092915050565b600082825260208201905092915050565b600061716982617198565b9050919050565b600061717b82617198565b9050919050565b60008115159050919050565b6000819050919050565b600073ffffffffffffffffffffffffffffffffffffffff82169050919050565b6000819050919050565b600060ff82169050919050565b60006171da8261724d565b9050919050565b60006171ec826171f3565b9050919050565b60006171fe82617198565b9050919050565b600061721082617217565b9050919050565b600061722282617198565b9050919050565b60006172348261723b565b9050919050565b600061724682617198565b9050919050565b60006172588261725f565b9050919050565b600061726a82617198565b9050919050565b82818337600083830152505050565b60005b8381101561729e578082015181840152602081019050617283565b838111156172ad576000848401525b50505050565b6000601f19601f8301169050919050565b6172cd8161715e565b81146172d857600080fd5b50565b6172e481617170565b81146172ef57600080fd5b50565b6172fb81617182565b811461730657600080fd5b50565b6173128161718e565b811461731d57600080fd5b50565b617329816171b8565b811461733457600080fd5b5056fe4552433737373a207472616e7366657220616d6f756e7420657863656564732062616c616e6365444441492e61636365707452656c6179656443616c6c3a204e4f545f454e4f5547485f444441495f42414c414e43454552433737373a207472616e7366657220616d6f756e74206578636565647320616c6c6f77616e63654552433737373a206275726e20616d6f756e7420657863656564732062616c616e6365a365627a7a72315820b984fd17b945647f9f14053ffc29267ea052631d4d8713c0cc16132085196db56c6578706572696d656e74616cf564736f6c634300050c0040",
				"opcodes": "PUSH1 0x80 PUSH1 0x40 MSTORE PUSH20 0x1820A4B7618BDE71DCE8CDC73AAB6C95905FAD24 PUSH1 0x0 DUP1 PUSH2 0x100 EXP DUP2 SLOAD DUP2 PUSH20 0xFFFFFFFFFFFFFFFFFFFFFFFFFFFFFFFFFFFFFFFF MUL NOT AND SWAP1 DUP4 PUSH20 0xFFFFFFFFFFFFFFFFFFFFFFFFFFFFFFFFFFFFFFFF AND MUL OR SWAP1 SSTORE POP PUSH20 0xD216153C06E857CD7F72665E0AF1D7D82172F494 PUSH1 0xF PUSH1 0x0 PUSH2 0x100 EXP DUP2 SLOAD DUP2 PUSH20 0xFFFFFFFFFFFFFFFFFFFFFFFFFFFFFFFFFFFFFFFF MUL NOT AND SWAP1 DUP4 PUSH20 0xFFFFFFFFFFFFFFFFFFFFFFFFFFFFFFFFFFFFFFFF AND MUL OR SWAP1 SSTORE POP PUSH1 0x64 PUSH1 0x11 SSTORE CALLVALUE DUP1 ISZERO PUSH3 0xBF JUMPI PUSH1 0x0 DUP1 REVERT JUMPDEST POP PUSH1 0x40 MLOAD PUSH3 0x7F8F CODESIZE SUB DUP1 PUSH3 0x7F8F DUP4 CODECOPY DUP2 DUP2 ADD PUSH1 0x40 MSTORE PUSH3 0xE5 SWAP2 SWAP1 DUP2 ADD SWAP1 PUSH3 0x854 JUMP JUMPDEST DUP6 DUP6 DUP6 DUP6 DUP6 DUP3 DUP3 DUP3 DUP3 PUSH1 0x3 SWAP1 DUP1 MLOAD SWAP1 PUSH1 0x20 ADD SWAP1 PUSH3 0x105 SWAP3 SWAP2 SWAP1 PUSH3 0x5D0 JUMP JUMPDEST POP DUP2 PUSH1 0x4 SWAP1 DUP1 MLOAD SWAP1 PUSH1 0x20 ADD SWAP1 PUSH3 0x11E SWAP3 SWAP2 SWAP1 PUSH3 0x5D0 JUMP JUMPDEST POP DUP1 PUSH1 0x5 SWAP1 DUP1 MLOAD SWAP1 PUSH1 0x20 ADD SWAP1 PUSH3 0x137 SWAP3 SWAP2 SWAP1 PUSH3 0x657 JUMP JUMPDEST POP PUSH1 0x0 DUP1 SWAP1 POP JUMPDEST PUSH1 0x5 DUP1 SLOAD SWAP1 POP DUP2 LT ISZERO PUSH3 0x1EA JUMPI PUSH1 0x1 PUSH1 0x6 PUSH1 0x0 PUSH1 0x5 DUP5 DUP2 SLOAD DUP2 LT PUSH3 0x160 JUMPI INVALID JUMPDEST SWAP1 PUSH1 0x0 MSTORE PUSH1 0x20 PUSH1 0x0 KECCAK256 ADD PUSH1 0x0 SWAP1 SLOAD SWAP1 PUSH2 0x100 EXP SWAP1 DIV PUSH20 0xFFFFFFFFFFFFFFFFFFFFFFFFFFFFFFFFFFFFFFFF AND PUSH20 0xFFFFFFFFFFFFFFFFFFFFFFFFFFFFFFFFFFFFFFFF AND PUSH20 0xFFFFFFFFFFFFFFFFFFFFFFFFFFFFFFFFFFFFFFFF AND DUP2 MSTORE PUSH1 0x20 ADD SWAP1 DUP2 MSTORE PUSH1 0x20 ADD PUSH1 0x0 KECCAK256 PUSH1 0x0 PUSH2 0x100 EXP DUP2 SLOAD DUP2 PUSH1 0xFF MUL NOT AND SWAP1 DUP4 ISZERO ISZERO MUL OR SWAP1 SSTORE POP DUP1 DUP1 PUSH1 0x1 ADD SWAP2 POP POP PUSH3 0x13E JUMP JUMPDEST POP PUSH1 0x0 DUP1 SWAP1 SLOAD SWAP1 PUSH2 0x100 EXP SWAP1 DIV PUSH20 0xFFFFFFFFFFFFFFFFFFFFFFFFFFFFFFFFFFFFFFFF AND PUSH20 0xFFFFFFFFFFFFFFFFFFFFFFFFFFFFFFFFFFFFFFFF AND PUSH4 0x29965A1D ADDRESS PUSH1 0x40 MLOAD PUSH3 0x237 SWAP1 PUSH3 0x9DB JUMP JUMPDEST PUSH1 0x40 MLOAD DUP1 SWAP2 SUB SWAP1 KECCAK256 ADDRESS PUSH1 0x40 MLOAD DUP5 PUSH4 0xFFFFFFFF AND PUSH1 0xE0 SHL DUP2 MSTORE PUSH1 0x4 ADD PUSH3 0x260 SWAP4 SWAP3 SWAP2 SWAP1 PUSH3 0xA09 JUMP JUMPDEST PUSH1 0x0 PUSH1 0x40 MLOAD DUP1 DUP4 SUB DUP2 PUSH1 0x0 DUP8 DUP1 EXTCODESIZE ISZERO DUP1 ISZERO PUSH3 0x27B JUMPI PUSH1 0x0 DUP1 REVERT JUMPDEST POP GAS CALL ISZERO DUP1 ISZERO PUSH3 0x290 JUMPI RETURNDATASIZE PUSH1 0x0 DUP1 RETURNDATACOPY RETURNDATASIZE PUSH1 0x0 REVERT JUMPDEST POP POP POP POP PUSH1 0x0 DUP1 SWAP1 SLOAD SWAP1 PUSH2 0x100 EXP SWAP1 DIV PUSH20 0xFFFFFFFFFFFFFFFFFFFFFFFFFFFFFFFFFFFFFFFF AND PUSH20 0xFFFFFFFFFFFFFFFFFFFFFFFFFFFFFFFFFFFFFFFF AND PUSH4 0x29965A1D ADDRESS PUSH1 0x40 MLOAD PUSH3 0x2E0 SWAP1 PUSH3 0x9F2 JUMP JUMPDEST PUSH1 0x40 MLOAD DUP1 SWAP2 SUB SWAP1 KECCAK256 ADDRESS PUSH1 0x40 MLOAD DUP5 PUSH4 0xFFFFFFFF AND PUSH1 0xE0 SHL DUP2 MSTORE PUSH1 0x4 ADD PUSH3 0x309 SWAP4 SWAP3 SWAP2 SWAP1 PUSH3 0xA09 JUMP JUMPDEST PUSH1 0x0 PUSH1 0x40 MLOAD DUP1 DUP4 SUB DUP2 PUSH1 0x0 DUP8 DUP1 EXTCODESIZE ISZERO DUP1 ISZERO PUSH3 0x324 JUMPI PUSH1 0x0 DUP1 REVERT JUMPDEST POP GAS CALL ISZERO DUP1 ISZERO PUSH3 0x339 JUMPI RETURNDATASIZE PUSH1 0x0 DUP1 RETURNDATACOPY RETURNDATASIZE PUSH1 0x0 REVERT JUMPDEST POP POP POP POP POP POP POP DUP4 PUSH1 0xA PUSH1 0x0 PUSH2 0x100 EXP DUP2 SLOAD DUP2 PUSH20 0xFFFFFFFFFFFFFFFFFFFFFFFFFFFFFFFFFFFFFFFF MUL NOT AND SWAP1 DUP4 PUSH20 0xFFFFFFFFFFFFFFFFFFFFFFFFFFFFFFFFFFFFFFFF AND MUL OR SWAP1 SSTORE POP DUP5 PUSH1 0xB PUSH1 0x0 PUSH2 0x100 EXP DUP2 SLOAD DUP2 PUSH20 0xFFFFFFFFFFFFFFFFFFFFFFFFFFFFFFFFFFFFFFFF MUL NOT AND SWAP1 DUP4 PUSH20 0xFFFFFFFFFFFFFFFFFFFFFFFFFFFFFFFFFFFFFFFF AND MUL OR SWAP1 SSTORE POP POP POP POP POP POP PUSH3 0x3D7 PUSH3 0x4E1 PUSH1 0x20 SHL PUSH1 0x20 SHR JUMP JUMPDEST PUSH1 0xE PUSH1 0x0 PUSH2 0x100 EXP DUP2 SLOAD DUP2 PUSH20 0xFFFFFFFFFFFFFFFFFFFFFFFFFFFFFFFFFFFFFFFF MUL NOT AND SWAP1 DUP4 PUSH20 0xFFFFFFFFFFFFFFFFFFFFFFFFFFFFFFFFFFFFFFFF AND MUL OR SWAP1 SSTORE POP PUSH1 0xE PUSH1 0x0 SWAP1 SLOAD SWAP1 PUSH2 0x100 EXP SWAP1 DIV PUSH20 0xFFFFFFFFFFFFFFFFFFFFFFFFFFFFFFFFFFFFFFFF AND PUSH20 0xFFFFFFFFFFFFFFFFFFFFFFFFFFFFFFFFFFFFFFFF AND PUSH1 0x0 PUSH20 0xFFFFFFFFFFFFFFFFFFFFFFFFFFFFFFFFFFFFFFFF AND PUSH32 0x8BE0079C531659141344CD1FD0A4F28419497F9722A3DAAFE3B4186F6B6457E0 PUSH1 0x40 MLOAD PUSH1 0x40 MLOAD DUP1 SWAP2 SUB SWAP1 LOG3 DUP1 PUSH1 0x10 PUSH1 0x0 PUSH2 0x100 EXP DUP2 SLOAD DUP2 PUSH20 0xFFFFFFFFFFFFFFFFFFFFFFFFFFFFFFFFFFFFFFFF MUL NOT AND SWAP1 DUP4 PUSH20 0xFFFFFFFFFFFFFFFFFFFFFFFFFFFFFFFFFFFFFFFF AND MUL OR SWAP1 SSTORE POP POP POP POP POP POP POP PUSH3 0xB63 JUMP JUMPDEST PUSH1 0x0 PUSH1 0xF PUSH1 0x0 SWAP1 SLOAD SWAP1 PUSH2 0x100 EXP SWAP1 DIV PUSH20 0xFFFFFFFFFFFFFFFFFFFFFFFFFFFFFFFFFFFFFFFF AND PUSH20 0xFFFFFFFFFFFFFFFFFFFFFFFFFFFFFFFFFFFFFFFF AND CALLER PUSH20 0xFFFFFFFFFFFFFFFFFFFFFFFFFFFFFFFFFFFFFFFF AND EQ PUSH3 0x542 JUMPI CALLER SWAP1 POP PUSH3 0x555 JUMP JUMPDEST PUSH3 0x552 PUSH3 0x558 PUSH1 0x20 SHL PUSH1 0x20 SHR JUMP JUMPDEST SWAP1 POP JUMPDEST SWAP1 JUMP JUMPDEST PUSH1 0x0 PUSH1 0x60 PUSH1 0x0 CALLDATASIZE DUP1 DUP1 PUSH1 0x1F ADD PUSH1 0x20 DUP1 SWAP2 DIV MUL PUSH1 0x20 ADD PUSH1 0x40 MLOAD SWAP1 DUP2 ADD PUSH1 0x40 MSTORE DUP1 SWAP4 SWAP3 SWAP2 SWAP1 DUP2 DUP2 MSTORE PUSH1 0x20 ADD DUP4 DUP4 DUP1 DUP3 DUP5 CALLDATACOPY PUSH1 0x0 DUP2 DUP5 ADD MSTORE PUSH1 0x1F NOT PUSH1 0x1F DUP3 ADD AND SWAP1 POP DUP1 DUP4 ADD SWAP3 POP POP POP POP POP POP POP SWAP1 POP PUSH1 0x0 DUP1 CALLDATASIZE SWAP1 POP SWAP1 POP PUSH20 0xFFFFFFFFFFFFFFFFFFFFFFFFFFFFFFFFFFFFFFFF DUP2 DUP4 ADD MLOAD AND SWAP3 POP DUP3 SWAP3 POP POP POP SWAP1 JUMP JUMPDEST DUP3 DUP1 SLOAD PUSH1 0x1 DUP2 PUSH1 0x1 AND ISZERO PUSH2 0x100 MUL SUB AND PUSH1 0x2 SWAP1 DIV SWAP1 PUSH1 0x0 MSTORE PUSH1 0x20 PUSH1 0x0 KECCAK256 SWAP1 PUSH1 0x1F ADD PUSH1 0x20 SWAP1 DIV DUP2 ADD SWAP3 DUP3 PUSH1 0x1F LT PUSH3 0x613 JUMPI DUP1 MLOAD PUSH1 0xFF NOT AND DUP4 DUP1 ADD OR DUP6 SSTORE PUSH3 0x644 JUMP JUMPDEST DUP3 DUP1 ADD PUSH1 0x1 ADD DUP6 SSTORE DUP3 ISZERO PUSH3 0x644 JUMPI SWAP2 DUP3 ADD JUMPDEST DUP3 DUP2 GT ISZERO PUSH3 0x643 JUMPI DUP3 MLOAD DUP3 SSTORE SWAP2 PUSH1 0x20 ADD SWAP2 SWAP1 PUSH1 0x1 ADD SWAP1 PUSH3 0x626 JUMP JUMPDEST JUMPDEST POP SWAP1 POP PUSH3 0x653 SWAP2 SWAP1 PUSH3 0x6E6 JUMP JUMPDEST POP SWAP1 JUMP JUMPDEST DUP3 DUP1 SLOAD DUP3 DUP3 SSTORE SWAP1 PUSH1 0x0 MSTORE PUSH1 0x20 PUSH1 0x0 KECCAK256 SWAP1 DUP2 ADD SWAP3 DUP3 ISZERO PUSH3 0x6D3 JUMPI SWAP2 PUSH1 0x20 MUL DUP3 ADD JUMPDEST DUP3 DUP2 GT ISZERO PUSH3 0x6D2 JUMPI DUP3 MLOAD DUP3 PUSH1 0x0 PUSH2 0x100 EXP DUP2 SLOAD DUP2 PUSH20 0xFFFFFFFFFFFFFFFFFFFFFFFFFFFFFFFFFFFFFFFF MUL NOT AND SWAP1 DUP4 PUSH20 0xFFFFFFFFFFFFFFFFFFFFFFFFFFFFFFFFFFFFFFFF AND MUL OR SWAP1 SSTORE POP SWAP2 PUSH1 0x20 ADD SWAP2 SWAP1 PUSH1 0x1 ADD SWAP1 PUSH3 0x678 JUMP JUMPDEST JUMPDEST POP SWAP1 POP PUSH3 0x6E2 SWAP2 SWAP1 PUSH3 0x70E JUMP JUMPDEST POP SWAP1 JUMP JUMPDEST PUSH3 0x70B SWAP2 SWAP1 JUMPDEST DUP1 DUP3 GT ISZERO PUSH3 0x707 JUMPI PUSH1 0x0 DUP2 PUSH1 0x0 SWAP1 SSTORE POP PUSH1 0x1 ADD PUSH3 0x6ED JUMP JUMPDEST POP SWAP1 JUMP JUMPDEST SWAP1 JUMP JUMPDEST PUSH3 0x751 SWAP2 SWAP1 JUMPDEST DUP1 DUP3 GT ISZERO PUSH3 0x74D JUMPI PUSH1 0x0 DUP2 DUP2 PUSH2 0x100 EXP DUP2 SLOAD SWAP1 PUSH20 0xFFFFFFFFFFFFFFFFFFFFFFFFFFFFFFFFFFFFFFFF MUL NOT AND SWAP1 SSTORE POP PUSH1 0x1 ADD PUSH3 0x715 JUMP JUMPDEST POP SWAP1 JUMP JUMPDEST SWAP1 JUMP JUMPDEST PUSH1 0x0 DUP2 MLOAD SWAP1 POP PUSH3 0x765 DUP2 PUSH3 0xB49 JUMP JUMPDEST SWAP3 SWAP2 POP POP JUMP JUMPDEST PUSH1 0x0 DUP3 PUSH1 0x1F DUP4 ADD SLT PUSH3 0x77D JUMPI PUSH1 0x0 DUP1 REVERT JUMPDEST DUP2 MLOAD PUSH3 0x794 PUSH3 0x78E DUP3 PUSH3 0xA74 JUMP JUMPDEST PUSH3 0xA46 JUMP JUMPDEST SWAP2 POP DUP2 DUP2 DUP4 MSTORE PUSH1 0x20 DUP5 ADD SWAP4 POP PUSH1 0x20 DUP2 ADD SWAP1 POP DUP4 DUP6 PUSH1 0x20 DUP5 MUL DUP3 ADD GT ISZERO PUSH3 0x7BA JUMPI PUSH1 0x0 DUP1 REVERT JUMPDEST PUSH1 0x0 JUMPDEST DUP4 DUP2 LT ISZERO PUSH3 0x7EE JUMPI DUP2 PUSH3 0x7D3 DUP9 DUP3 PUSH3 0x754 JUMP JUMPDEST DUP5 MSTORE PUSH1 0x20 DUP5 ADD SWAP4 POP PUSH1 0x20 DUP4 ADD SWAP3 POP POP PUSH1 0x1 DUP2 ADD SWAP1 POP PUSH3 0x7BD JUMP JUMPDEST POP POP POP POP SWAP3 SWAP2 POP POP JUMP JUMPDEST PUSH1 0x0 DUP3 PUSH1 0x1F DUP4 ADD SLT PUSH3 0x80A JUMPI PUSH1 0x0 DUP1 REVERT JUMPDEST DUP2 MLOAD PUSH3 0x821 PUSH3 0x81B DUP3 PUSH3 0xA9D JUMP JUMPDEST PUSH3 0xA46 JUMP JUMPDEST SWAP2 POP DUP1 DUP3 MSTORE PUSH1 0x20 DUP4 ADD PUSH1 0x20 DUP4 ADD DUP6 DUP4 DUP4 ADD GT ISZERO PUSH3 0x83E JUMPI PUSH1 0x0 DUP1 REVERT JUMPDEST PUSH3 0x84B DUP4 DUP3 DUP5 PUSH3 0xB13 JUMP JUMPDEST POP POP POP SWAP3 SWAP2 POP POP JUMP JUMPDEST PUSH1 0x0 DUP1 PUSH1 0x0 DUP1 PUSH1 0x0 DUP1 PUSH1 0xC0 DUP8 DUP10 SUB SLT ISZERO PUSH3 0x86E JUMPI PUSH1 0x0 DUP1 REVERT JUMPDEST PUSH1 0x0 PUSH3 0x87E DUP10 DUP3 DUP11 ADD PUSH3 0x754 JUMP JUMPDEST SWAP7 POP POP PUSH1 0x20 PUSH3 0x891 DUP10 DUP3 DUP11 ADD PUSH3 0x754 JUMP JUMPDEST SWAP6 POP POP PUSH1 0x40 DUP8 ADD MLOAD PUSH8 0xFFFFFFFFFFFFFFFF DUP2 GT ISZERO PUSH3 0x8AF JUMPI PUSH1 0x0 DUP1 REVERT JUMPDEST PUSH3 0x8BD DUP10 DUP3 DUP11 ADD PUSH3 0x7F8 JUMP JUMPDEST SWAP5 POP POP PUSH1 0x60 DUP8 ADD MLOAD PUSH8 0xFFFFFFFFFFFFFFFF DUP2 GT ISZERO PUSH3 0x8DB JUMPI PUSH1 0x0 DUP1 REVERT JUMPDEST PUSH3 0x8E9 DUP10 DUP3 DUP11 ADD PUSH3 0x7F8 JUMP JUMPDEST SWAP4 POP POP PUSH1 0x80 DUP8 ADD MLOAD PUSH8 0xFFFFFFFFFFFFFFFF DUP2 GT ISZERO PUSH3 0x907 JUMPI PUSH1 0x0 DUP1 REVERT JUMPDEST PUSH3 0x915 DUP10 DUP3 DUP11 ADD PUSH3 0x76B JUMP JUMPDEST SWAP3 POP POP PUSH1 0xA0 PUSH3 0x928 DUP10 DUP3 DUP11 ADD PUSH3 0x754 JUMP JUMPDEST SWAP2 POP POP SWAP3 SWAP6 POP SWAP3 SWAP6 POP SWAP3 SWAP6 JUMP JUMPDEST PUSH3 0x940 DUP2 PUSH3 0xAD5 JUMP JUMPDEST DUP3 MSTORE POP POP JUMP JUMPDEST PUSH3 0x951 DUP2 PUSH3 0xAE9 JUMP JUMPDEST DUP3 MSTORE POP POP JUMP JUMPDEST PUSH1 0x0 PUSH3 0x966 PUSH1 0xB DUP4 PUSH3 0xACA JUMP JUMPDEST SWAP2 POP PUSH32 0x455243373737546F6B656E000000000000000000000000000000000000000000 PUSH1 0x0 DUP4 ADD MSTORE PUSH1 0xB DUP3 ADD SWAP1 POP SWAP2 SWAP1 POP JUMP JUMPDEST PUSH1 0x0 PUSH3 0x9A8 PUSH1 0xA DUP4 PUSH3 0xACA JUMP JUMPDEST SWAP2 POP PUSH32 0x4552433230546F6B656E00000000000000000000000000000000000000000000 PUSH1 0x0 DUP4 ADD MSTORE PUSH1 0xA DUP3 ADD SWAP1 POP SWAP2 SWAP1 POP JUMP JUMPDEST PUSH1 0x0 PUSH3 0x9E8 DUP3 PUSH3 0x957 JUMP JUMPDEST SWAP2 POP DUP2 SWAP1 POP SWAP2 SWAP1 POP JUMP JUMPDEST PUSH1 0x0 PUSH3 0x9FF DUP3 PUSH3 0x999 JUMP JUMPDEST SWAP2 POP DUP2 SWAP1 POP SWAP2 SWAP1 POP JUMP JUMPDEST PUSH1 0x0 PUSH1 0x60 DUP3 ADD SWAP1 POP PUSH3 0xA20 PUSH1 0x0 DUP4 ADD DUP7 PUSH3 0x935 JUMP JUMPDEST PUSH3 0xA2F PUSH1 0x20 DUP4 ADD DUP6 PUSH3 0x946 JUMP JUMPDEST PUSH3 0xA3E PUSH1 0x40 DUP4 ADD DUP5 PUSH3 0x935 JUMP JUMPDEST SWAP5 SWAP4 POP POP POP POP JUMP JUMPDEST PUSH1 0x0 PUSH1 0x40 MLOAD SWAP1 POP DUP2 DUP2 ADD DUP2 DUP2 LT PUSH8 0xFFFFFFFFFFFFFFFF DUP3 GT OR ISZERO PUSH3 0xA6A JUMPI PUSH1 0x0 DUP1 REVERT JUMPDEST DUP1 PUSH1 0x40 MSTORE POP SWAP2 SWAP1 POP JUMP JUMPDEST PUSH1 0x0 PUSH8 0xFFFFFFFFFFFFFFFF DUP3 GT ISZERO PUSH3 0xA8C JUMPI PUSH1 0x0 DUP1 REVERT JUMPDEST PUSH1 0x20 DUP3 MUL SWAP1 POP PUSH1 0x20 DUP2 ADD SWAP1 POP SWAP2 SWAP1 POP JUMP JUMPDEST PUSH1 0x0 PUSH8 0xFFFFFFFFFFFFFFFF DUP3 GT ISZERO PUSH3 0xAB5 JUMPI PUSH1 0x0 DUP1 REVERT JUMPDEST PUSH1 0x1F NOT PUSH1 0x1F DUP4 ADD AND SWAP1 POP PUSH1 0x20 DUP2 ADD SWAP1 POP SWAP2 SWAP1 POP JUMP JUMPDEST PUSH1 0x0 DUP2 SWAP1 POP SWAP3 SWAP2 POP POP JUMP JUMPDEST PUSH1 0x0 PUSH3 0xAE2 DUP3 PUSH3 0xAF3 JUMP JUMPDEST SWAP1 POP SWAP2 SWAP1 POP JUMP JUMPDEST PUSH1 0x0 DUP2 SWAP1 POP SWAP2 SWAP1 POP JUMP JUMPDEST PUSH1 0x0 PUSH20 0xFFFFFFFFFFFFFFFFFFFFFFFFFFFFFFFFFFFFFFFF DUP3 AND SWAP1 POP SWAP2 SWAP1 POP JUMP JUMPDEST PUSH1 0x0 JUMPDEST DUP4 DUP2 LT ISZERO PUSH3 0xB33 JUMPI DUP1 DUP3 ADD MLOAD DUP2 DUP5 ADD MSTORE PUSH1 0x20 DUP2 ADD SWAP1 POP PUSH3 0xB16 JUMP JUMPDEST DUP4 DUP2 GT ISZERO PUSH3 0xB43 JUMPI PUSH1 0x0 DUP5 DUP5 ADD MSTORE JUMPDEST POP POP POP POP JUMP JUMPDEST PUSH3 0xB54 DUP2 PUSH3 0xAD5 JUMP JUMPDEST DUP2 EQ PUSH3 0xB60 JUMPI PUSH1 0x0 DUP1 REVERT JUMPDEST POP JUMP JUMPDEST PUSH2 0x741C DUP1 PUSH3 0xB73 PUSH1 0x0 CODECOPY PUSH1 0x0 RETURN INVALID PUSH1 0x80 PUSH1 0x40 MSTORE PUSH1 0x4 CALLDATASIZE LT PUSH2 0x350 JUMPI PUSH1 0x0 CALLDATALOAD PUSH1 0xE0 SHR DUP1 PUSH4 0x80274DB7 GT PUSH2 0x1C6 JUMPI DUP1 PUSH4 0xA9059CBB GT PUSH2 0xF7 JUMPI DUP1 PUSH4 0xDD62ED3E GT PUSH2 0x95 JUMPI DUP1 PUSH4 0xFAD8B32A GT PUSH2 0x6F JUMPI DUP1 PUSH4 0xFAD8B32A EQ PUSH2 0xD52 JUMPI DUP1 PUSH4 0xFC0C546A EQ PUSH2 0xD7B JUMPI DUP1 PUSH4 0xFC673C4F EQ PUSH2 0xDA6 JUMPI DUP1 PUSH4 0xFE9D9303 EQ PUSH2 0xDCF JUMPI PUSH2 0x350 JUMP JUMPDEST DUP1 PUSH4 0xDD62ED3E EQ PUSH2 0xCC3 JUMPI DUP1 PUSH4 0xE06E0E22 EQ PUSH2 0xD00 JUMPI DUP1 PUSH4 0xF2FDE38B EQ PUSH2 0xD29 JUMPI PUSH2 0x350 JUMP JUMPDEST DUP1 PUSH4 0xD240A008 GT PUSH2 0xD1 JUMPI DUP1 PUSH4 0xD240A008 EQ PUSH2 0xBE0 JUMPI DUP1 PUSH4 0xD3D38193 EQ PUSH2 0xC1E JUMPI DUP1 PUSH4 0xD6D75F51 EQ PUSH2 0xC5B JUMPI DUP1 PUSH4 0xD95B6371 EQ PUSH2 0xC86 JUMPI PUSH2 0x350 JUMP JUMPDEST DUP1 PUSH4 0xA9059CBB EQ PUSH2 0xB4F JUMPI DUP1 PUSH4 0xAD61CCD5 EQ PUSH2 0xB8C JUMPI DUP1 PUSH4 0xC35450EC EQ PUSH2 0xBB7 JUMPI PUSH2 0x350 JUMP JUMPDEST DUP1 PUSH4 0x8F32D59B GT PUSH2 0x164 JUMPI DUP1 PUSH4 0x959B8C3F GT PUSH2 0x13E JUMPI DUP1 PUSH4 0x959B8C3F EQ PUSH2 0xAA9 JUMPI DUP1 PUSH4 0x95D89B41 EQ PUSH2 0xAD2 JUMPI DUP1 PUSH4 0x9BD9BBC6 EQ PUSH2 0xAFD JUMPI DUP1 PUSH4 0x9E729549 EQ PUSH2 0xB26 JUMPI PUSH2 0x350 JUMP JUMPDEST DUP1 PUSH4 0x8F32D59B EQ PUSH2 0xA18 JUMPI DUP1 PUSH4 0x920C0607 EQ PUSH2 0xA43 JUMPI DUP1 PUSH4 0x925067F4 EQ PUSH2 0xA80 JUMPI PUSH2 0x350 JUMP JUMPDEST DUP1 PUSH4 0x88D742C2 GT PUSH2 0x1A0 JUMPI DUP1 PUSH4 0x88D742C2 EQ PUSH2 0x972 JUMPI DUP1 PUSH4 0x89476069 EQ PUSH2 0x99B JUMPI DUP1 PUSH4 0x8CC87228 EQ PUSH2 0x9C4 JUMPI DUP1 PUSH4 0x8DA5CB5B EQ PUSH2 0x9ED JUMPI PUSH2 0x350 JUMP JUMPDEST DUP1 PUSH4 0x80274DB7 EQ PUSH2 0x8BA JUMPI DUP1 PUSH4 0x8314B4E3 EQ PUSH2 0x8F7 JUMPI DUP1 PUSH4 0x83947EA0 EQ PUSH2 0x934 JUMPI PUSH2 0x350 JUMP JUMPDEST DUP1 PUSH4 0x40C10F19 GT PUSH2 0x2A0 JUMPI DUP1 PUSH4 0x715018A6 GT PUSH2 0x23E JUMPI DUP1 PUSH4 0x74E861D6 GT PUSH2 0x218 JUMPI DUP1 PUSH4 0x74E861D6 EQ PUSH2 0x7E6 JUMPI DUP1 PUSH4 0x78D6ADE4 EQ PUSH2 0x811 JUMPI DUP1 PUSH4 0x7A26B414 EQ PUSH2 0x83C JUMPI DUP1 PUSH4 0x7B7902DD EQ PUSH2 0x87D JUMPI PUSH2 0x350 JUMP JUMPDEST DUP1 PUSH4 0x715018A6 EQ PUSH2 0x77B JUMPI DUP1 PUSH4 0x724E78DA EQ PUSH2 0x792 JUMPI DUP1 PUSH4 0x741BEF1A EQ PUSH2 0x7BB JUMPI PUSH2 0x350 JUMP JUMPDEST DUP1 PUSH4 0x5FFD9F29 GT PUSH2 0x27A JUMPI DUP1 PUSH4 0x5FFD9F29 EQ PUSH2 0x6C1 JUMPI DUP1 PUSH4 0x62AD1B83 EQ PUSH2 0x6EA JUMPI DUP1 PUSH4 0x65A0B7B7 EQ PUSH2 0x713 JUMPI DUP1 PUSH4 0x70A08231 EQ PUSH2 0x73E JUMPI PUSH2 0x350 JUMP JUMPDEST DUP1 PUSH4 0x40C10F19 EQ PUSH2 0x630 JUMPI DUP1 PUSH4 0x556F0DC7 EQ PUSH2 0x659 JUMPI DUP1 PUSH4 0x5B38539E EQ PUSH2 0x684 JUMPI PUSH2 0x350 JUMP JUMPDEST DUP1 PUSH4 0x1E9A6950 GT PUSH2 0x30D JUMPI DUP1 PUSH4 0x2F8035B4 GT PUSH2 0x2E7 JUMPI DUP1 PUSH4 0x2F8035B4 EQ PUSH2 0x576 JUMPI DUP1 PUSH4 0x313CE567 EQ PUSH2 0x5B3 JUMPI DUP1 PUSH4 0x37E63D07 EQ PUSH2 0x5DE JUMPI DUP1 PUSH4 0x3BED33CE EQ PUSH2 0x607 JUMPI PUSH2 0x350 JUMP JUMPDEST DUP1 PUSH4 0x1E9A6950 EQ PUSH2 0x4D3 JUMPI DUP1 PUSH4 0x21EDF266 EQ PUSH2 0x510 JUMPI DUP1 PUSH4 0x23B872DD EQ PUSH2 0x539 JUMPI PUSH2 0x350 JUMP JUMPDEST DUP1 PUSH4 0x6E48538 EQ PUSH2 0x3D3 JUMPI DUP1 PUSH4 0x6FDDE03 EQ PUSH2 0x3FE JUMPI DUP1 PUSH4 0x95EA7B3 EQ PUSH2 0x429 JUMPI DUP1 PUSH4 0x9EC6B6B EQ PUSH2 0x466 JUMPI DUP1 PUSH4 0x18160DDD EQ PUSH2 0x491 JUMPI DUP1 PUSH4 0x1AB113B9 EQ PUSH2 0x4BC JUMPI JUMPDEST PUSH1 0x0 CALLVALUE EQ PUSH2 0x3D0 JUMPI PUSH2 0x360 PUSH2 0xDF8 JUMP JUMPDEST PUSH20 0xFFFFFFFFFFFFFFFFFFFFFFFFFFFFFFFFFFFFFFFF AND PUSH4 0xAA67C919 CALLVALUE ADDRESS PUSH1 0x40 MLOAD DUP4 PUSH4 0xFFFFFFFF AND PUSH1 0xE0 SHL DUP2 MSTORE PUSH1 0x4 ADD PUSH2 0x399 SWAP2 SWAP1 PUSH2 0x6955 JUMP JUMPDEST PUSH1 0x0 PUSH1 0x40 MLOAD DUP1 DUP4 SUB DUP2 DUP6 DUP9 DUP1 EXTCODESIZE ISZERO DUP1 ISZERO PUSH2 0x3B2 JUMPI PUSH1 0x0 DUP1 REVERT JUMPDEST POP GAS CALL ISZERO DUP1 ISZERO PUSH2 0x3C6 JUMPI RETURNDATASIZE PUSH1 0x0 DUP1 RETURNDATACOPY RETURNDATASIZE PUSH1 0x0 REVERT JUMPDEST POP POP POP POP POP PUSH2 0x3D1 JUMP JUMPDEST JUMPDEST STOP JUMPDEST CALLVALUE DUP1 ISZERO PUSH2 0x3DF JUMPI PUSH1 0x0 DUP1 REVERT JUMPDEST POP PUSH2 0x3E8 PUSH2 0xE22 JUMP JUMPDEST PUSH1 0x40 MLOAD PUSH2 0x3F5 SWAP2 SWAP1 PUSH2 0x6A68 JUMP JUMPDEST PUSH1 0x40 MLOAD DUP1 SWAP2 SUB SWAP1 RETURN JUMPDEST CALLVALUE DUP1 ISZERO PUSH2 0x40A JUMPI PUSH1 0x0 DUP1 REVERT JUMPDEST POP PUSH2 0x413 PUSH2 0xEB0 JUMP JUMPDEST PUSH1 0x40 MLOAD PUSH2 0x420 SWAP2 SWAP1 PUSH2 0x6B41 JUMP JUMPDEST PUSH1 0x40 MLOAD DUP1 SWAP2 SUB SWAP1 RETURN JUMPDEST CALLVALUE DUP1 ISZERO PUSH2 0x435 JUMPI PUSH1 0x0 DUP1 REVERT JUMPDEST POP PUSH2 0x450 PUSH1 0x4 DUP1 CALLDATASIZE SUB PUSH2 0x44B SWAP2 SWAP1 DUP2 ADD SWAP1 PUSH2 0x59ED JUMP JUMPDEST PUSH2 0xF52 JUMP JUMPDEST PUSH1 0x40 MLOAD PUSH2 0x45D SWAP2 SWAP1 PUSH2 0x6ABA JUMP JUMPDEST PUSH1 0x40 MLOAD DUP1 SWAP2 SUB SWAP1 RETURN JUMPDEST CALLVALUE DUP1 ISZERO PUSH2 0x472 JUMPI PUSH1 0x0 DUP1 REVERT JUMPDEST POP PUSH2 0x47B PUSH2 0xF75 JUMP JUMPDEST PUSH1 0x40 MLOAD PUSH2 0x488 SWAP2 SWAP1 PUSH2 0x6DE3 JUMP JUMPDEST PUSH1 0x40 MLOAD DUP1 SWAP2 SUB SWAP1 RETURN JUMPDEST CALLVALUE DUP1 ISZERO PUSH2 0x49D JUMPI PUSH1 0x0 DUP1 REVERT JUMPDEST POP PUSH2 0x4A6 PUSH2 0x101C JUMP JUMPDEST PUSH1 0x40 MLOAD PUSH2 0x4B3 SWAP2 SWAP1 PUSH2 0x6DE3 JUMP JUMPDEST PUSH1 0x40 MLOAD DUP1 SWAP2 SUB SWAP1 RETURN JUMPDEST CALLVALUE DUP1 ISZERO PUSH2 0x4C8 JUMPI PUSH1 0x0 DUP1 REVERT JUMPDEST POP PUSH2 0x4D1 PUSH2 0x1026 JUMP JUMPDEST STOP JUMPDEST CALLVALUE DUP1 ISZERO PUSH2 0x4DF JUMPI PUSH1 0x0 DUP1 REVERT JUMPDEST POP PUSH2 0x4FA PUSH1 0x4 DUP1 CALLDATASIZE SUB PUSH2 0x4F5 SWAP2 SWAP1 DUP2 ADD SWAP1 PUSH2 0x59ED JUMP JUMPDEST PUSH2 0x108F JUMP JUMPDEST PUSH1 0x40 MLOAD PUSH2 0x507 SWAP2 SWAP1 PUSH2 0x6DE3 JUMP JUMPDEST PUSH1 0x40 MLOAD DUP1 SWAP2 SUB SWAP1 RETURN JUMPDEST CALLVALUE DUP1 ISZERO PUSH2 0x51C JUMPI PUSH1 0x0 DUP1 REVERT JUMPDEST POP PUSH2 0x537 PUSH1 0x4 DUP1 CALLDATASIZE SUB PUSH2 0x532 SWAP2 SWAP1 DUP2 ADD SWAP1 PUSH2 0x5685 JUMP JUMPDEST PUSH2 0x133B JUMP JUMPDEST STOP JUMPDEST CALLVALUE DUP1 ISZERO PUSH2 0x545 JUMPI PUSH1 0x0 DUP1 REVERT JUMPDEST POP PUSH2 0x560 PUSH1 0x4 DUP1 CALLDATASIZE SUB PUSH2 0x55B SWAP2 SWAP1 DUP2 ADD SWAP1 PUSH2 0x58B2 JUMP JUMPDEST PUSH2 0x13EC JUMP JUMPDEST PUSH1 0x40 MLOAD PUSH2 0x56D SWAP2 SWAP1 PUSH2 0x6ABA JUMP JUMPDEST PUSH1 0x40 MLOAD DUP1 SWAP2 SUB SWAP1 RETURN JUMPDEST CALLVALUE DUP1 ISZERO PUSH2 0x582 JUMPI PUSH1 0x0 DUP1 REVERT JUMPDEST POP PUSH2 0x59D PUSH1 0x4 DUP1 CALLDATASIZE SUB PUSH2 0x598 SWAP2 SWAP1 DUP2 ADD SWAP1 PUSH2 0x5685 JUMP JUMPDEST PUSH2 0x161E JUMP JUMPDEST PUSH1 0x40 MLOAD PUSH2 0x5AA SWAP2 SWAP1 PUSH2 0x6DE3 JUMP JUMPDEST PUSH1 0x40 MLOAD DUP1 SWAP2 SUB SWAP1 RETURN JUMPDEST CALLVALUE DUP1 ISZERO PUSH2 0x5BF JUMPI PUSH1 0x0 DUP1 REVERT JUMPDEST POP PUSH2 0x5C8 PUSH2 0x166A JUMP JUMPDEST PUSH1 0x40 MLOAD PUSH2 0x5D5 SWAP2 SWAP1 PUSH2 0x6F6B JUMP JUMPDEST PUSH1 0x40 MLOAD DUP1 SWAP2 SUB SWAP1 RETURN JUMPDEST CALLVALUE DUP1 ISZERO PUSH2 0x5EA JUMPI PUSH1 0x0 DUP1 REVERT JUMPDEST POP PUSH2 0x605 PUSH1 0x4 DUP1 CALLDATASIZE SUB PUSH2 0x600 SWAP2 SWAP1 DUP2 ADD SWAP1 PUSH2 0x59B1 JUMP JUMPDEST PUSH2 0x1673 JUMP JUMPDEST STOP JUMPDEST CALLVALUE DUP1 ISZERO PUSH2 0x613 JUMPI PUSH1 0x0 DUP1 REVERT JUMPDEST POP PUSH2 0x62E PUSH1 0x4 DUP1 CALLDATASIZE SUB PUSH2 0x629 SWAP2 SWAP1 DUP2 ADD SWAP1 PUSH2 0x5D6E JUMP JUMPDEST PUSH2 0x1712 JUMP JUMPDEST STOP JUMPDEST CALLVALUE DUP1 ISZERO PUSH2 0x63C JUMPI PUSH1 0x0 DUP1 REVERT JUMPDEST POP PUSH2 0x657 PUSH1 0x4 DUP1 CALLDATASIZE SUB PUSH2 0x652 SWAP2 SWAP1 DUP2 ADD SWAP1 PUSH2 0x59ED JUMP JUMPDEST PUSH2 0x17F5 JUMP JUMPDEST STOP JUMPDEST CALLVALUE DUP1 ISZERO PUSH2 0x665 JUMPI PUSH1 0x0 DUP1 REVERT JUMPDEST POP PUSH2 0x66E PUSH2 0x1B19 JUMP JUMPDEST PUSH1 0x40 MLOAD PUSH2 0x67B SWAP2 SWAP1 PUSH2 0x6DE3 JUMP JUMPDEST PUSH1 0x40 MLOAD DUP1 SWAP2 SUB SWAP1 RETURN JUMPDEST CALLVALUE DUP1 ISZERO PUSH2 0x690 JUMPI PUSH1 0x0 DUP1 REVERT JUMPDEST POP PUSH2 0x6AB PUSH1 0x4 DUP1 CALLDATASIZE SUB PUSH2 0x6A6 SWAP2 SWAP1 DUP2 ADD SWAP1 PUSH2 0x5B30 JUMP JUMPDEST PUSH2 0x1B22 JUMP JUMPDEST PUSH1 0x40 MLOAD PUSH2 0x6B8 SWAP2 SWAP1 PUSH2 0x6ABA JUMP JUMPDEST PUSH1 0x40 MLOAD DUP1 SWAP2 SUB SWAP1 RETURN JUMPDEST CALLVALUE DUP1 ISZERO PUSH2 0x6CD JUMPI PUSH1 0x0 DUP1 REVERT JUMPDEST POP PUSH2 0x6E8 PUSH1 0x4 DUP1 CALLDATASIZE SUB PUSH2 0x6E3 SWAP2 SWAP1 DUP2 ADD SWAP1 PUSH2 0x5C2E JUMP JUMPDEST PUSH2 0x1CDF JUMP JUMPDEST STOP JUMPDEST CALLVALUE DUP1 ISZERO PUSH2 0x6F6 JUMPI PUSH1 0x0 DUP1 REVERT JUMPDEST POP PUSH2 0x711 PUSH1 0x4 DUP1 CALLDATASIZE SUB PUSH2 0x70C SWAP2 SWAP1 DUP2 ADD SWAP1 PUSH2 0x5901 JUMP JUMPDEST PUSH2 0x1D44 JUMP JUMPDEST STOP JUMPDEST CALLVALUE DUP1 ISZERO PUSH2 0x71F JUMPI PUSH1 0x0 DUP1 REVERT JUMPDEST POP PUSH2 0x728 PUSH2 0x1E3C JUMP JUMPDEST PUSH1 0x40 MLOAD PUSH2 0x735 SWAP2 SWAP1 PUSH2 0x6DE3 JUMP JUMPDEST PUSH1 0x40 MLOAD DUP1 SWAP2 SUB SWAP1 RETURN JUMPDEST CALLVALUE DUP1 ISZERO PUSH2 0x74A JUMPI PUSH1 0x0 DUP1 REVERT JUMPDEST POP PUSH2 0x765 PUSH1 0x4 DUP1 CALLDATASIZE SUB PUSH2 0x760 SWAP2 SWAP1 DUP2 ADD SWAP1 PUSH2 0x5685 JUMP JUMPDEST PUSH2 0x1EE6 JUMP JUMPDEST PUSH1 0x40 MLOAD PUSH2 0x772 SWAP2 SWAP1 PUSH2 0x6DE3 JUMP JUMPDEST PUSH1 0x40 MLOAD DUP1 SWAP2 SUB SWAP1 RETURN JUMPDEST CALLVALUE DUP1 ISZERO PUSH2 0x787 JUMPI PUSH1 0x0 DUP1 REVERT JUMPDEST POP PUSH2 0x790 PUSH2 0x1FA4 JUMP JUMPDEST STOP JUMPDEST CALLVALUE DUP1 ISZERO PUSH2 0x79E JUMPI PUSH1 0x0 DUP1 REVERT JUMPDEST POP PUSH2 0x7B9 PUSH1 0x4 DUP1 CALLDATASIZE SUB PUSH2 0x7B4 SWAP2 SWAP1 DUP2 ADD SWAP1 PUSH2 0x5685 JUMP JUMPDEST PUSH2 0x20AC JUMP JUMPDEST STOP JUMPDEST CALLVALUE DUP1 ISZERO PUSH2 0x7C7 JUMPI PUSH1 0x0 DUP1 REVERT JUMPDEST POP PUSH2 0x7D0 PUSH2 0x2137 JUMP JUMPDEST PUSH1 0x40 MLOAD PUSH2 0x7DD SWAP2 SWAP1 PUSH2 0x6B26 JUMP JUMPDEST PUSH1 0x40 MLOAD DUP1 SWAP2 SUB SWAP1 RETURN JUMPDEST CALLVALUE DUP1 ISZERO PUSH2 0x7F2 JUMPI PUSH1 0x0 DUP1 REVERT JUMPDEST POP PUSH2 0x7FB PUSH2 0xDF8 JUMP JUMPDEST PUSH1 0x40 MLOAD PUSH2 0x808 SWAP2 SWAP1 PUSH2 0x693A JUMP JUMPDEST PUSH1 0x40 MLOAD DUP1 SWAP2 SUB SWAP1 RETURN JUMPDEST CALLVALUE DUP1 ISZERO PUSH2 0x81D JUMPI PUSH1 0x0 DUP1 REVERT JUMPDEST POP PUSH2 0x826 PUSH2 0x215D JUMP JUMPDEST PUSH1 0x40 MLOAD PUSH2 0x833 SWAP2 SWAP1 PUSH2 0x6DE3 JUMP JUMPDEST PUSH1 0x40 MLOAD DUP1 SWAP2 SUB SWAP1 RETURN JUMPDEST CALLVALUE DUP1 ISZERO PUSH2 0x848 JUMPI PUSH1 0x0 DUP1 REVERT JUMPDEST POP PUSH2 0x863 PUSH1 0x4 DUP1 CALLDATASIZE SUB PUSH2 0x85E SWAP2 SWAP1 DUP2 ADD SWAP1 PUSH2 0x5685 JUMP JUMPDEST PUSH2 0x2163 JUMP JUMPDEST PUSH1 0x40 MLOAD PUSH2 0x874 SWAP6 SWAP5 SWAP4 SWAP3 SWAP2 SWAP1 PUSH2 0x6F18 JUMP JUMPDEST PUSH1 0x40 MLOAD DUP1 SWAP2 SUB SWAP1 RETURN JUMPDEST CALLVALUE DUP1 ISZERO PUSH2 0x889 JUMPI PUSH1 0x0 DUP1 REVERT JUMPDEST POP PUSH2 0x8A4 PUSH1 0x4 DUP1 CALLDATASIZE SUB PUSH2 0x89F SWAP2 SWAP1 DUP2 ADD SWAP1 PUSH2 0x5D6E JUMP JUMPDEST PUSH2 0x21B3 JUMP JUMPDEST PUSH1 0x40 MLOAD PUSH2 0x8B1 SWAP2 SWAP1 PUSH2 0x6DE3 JUMP JUMPDEST PUSH1 0x40 MLOAD DUP1 SWAP2 SUB SWAP1 RETURN JUMPDEST CALLVALUE DUP1 ISZERO PUSH2 0x8C6 JUMPI PUSH1 0x0 DUP1 REVERT JUMPDEST POP PUSH2 0x8E1 PUSH1 0x4 DUP1 CALLDATASIZE SUB PUSH2 0x8DC SWAP2 SWAP1 DUP2 ADD SWAP1 PUSH2 0x5CA9 JUMP JUMPDEST PUSH2 0x221D JUMP JUMPDEST PUSH1 0x40 MLOAD PUSH2 0x8EE SWAP2 SWAP1 PUSH2 0x6AD5 JUMP JUMPDEST PUSH1 0x40 MLOAD DUP1 SWAP2 SUB SWAP1 RETURN JUMPDEST CALLVALUE DUP1 ISZERO PUSH2 0x903 JUMPI PUSH1 0x0 DUP1 REVERT JUMPDEST POP PUSH2 0x91E PUSH1 0x4 DUP1 CALLDATASIZE SUB PUSH2 0x919 SWAP2 SWAP1 DUP2 ADD SWAP1 PUSH2 0x5D6E JUMP JUMPDEST PUSH2 0x22E9 JUMP JUMPDEST PUSH1 0x40 MLOAD PUSH2 0x92B SWAP2 SWAP1 PUSH2 0x6ABA JUMP JUMPDEST PUSH1 0x40 MLOAD DUP1 SWAP2 SUB SWAP1 RETURN JUMPDEST CALLVALUE DUP1 ISZERO PUSH2 0x940 JUMPI PUSH1 0x0 DUP1 REVERT JUMPDEST POP PUSH2 0x95B PUSH1 0x4 DUP1 CALLDATASIZE SUB PUSH2 0x956 SWAP2 SWAP1 DUP2 ADD SWAP1 PUSH2 0x57B2 JUMP JUMPDEST PUSH2 0x255B JUMP JUMPDEST PUSH1 0x40 MLOAD PUSH2 0x969 SWAP3 SWAP2 SWAP1 PUSH2 0x6E27 JUMP JUMPDEST PUSH1 0x40 MLOAD DUP1 SWAP2 SUB SWAP1 RETURN JUMPDEST CALLVALUE DUP1 ISZERO PUSH2 0x97E JUMPI PUSH1 0x0 DUP1 REVERT JUMPDEST POP PUSH2 0x999 PUSH1 0x4 DUP1 CALLDATASIZE SUB PUSH2 0x994 SWAP2 SWAP1 DUP2 ADD SWAP1 PUSH2 0x5685 JUMP JUMPDEST PUSH2 0x25CF JUMP JUMPDEST STOP JUMPDEST CALLVALUE DUP1 ISZERO PUSH2 0x9A7 JUMPI PUSH1 0x0 DUP1 REVERT JUMPDEST POP PUSH2 0x9C2 PUSH1 0x4 DUP1 CALLDATASIZE SUB PUSH2 0x9BD SWAP2 SWAP1 DUP2 ADD SWAP1 PUSH2 0x5685 JUMP JUMPDEST PUSH2 0x2795 JUMP JUMPDEST STOP JUMPDEST CALLVALUE DUP1 ISZERO PUSH2 0x9D0 JUMPI PUSH1 0x0 DUP1 REVERT JUMPDEST POP PUSH2 0x9EB PUSH1 0x4 DUP1 CALLDATASIZE SUB PUSH2 0x9E6 SWAP2 SWAP1 DUP2 ADD SWAP1 PUSH2 0x59ED JUMP JUMPDEST PUSH2 0x2977 JUMP JUMPDEST STOP JUMPDEST CALLVALUE DUP1 ISZERO PUSH2 0x9F9 JUMPI PUSH1 0x0 DUP1 REVERT JUMPDEST POP PUSH2 0xA02 PUSH2 0x2AD5 JUMP JUMPDEST PUSH1 0x40 MLOAD PUSH2 0xA0F SWAP2 SWAP1 PUSH2 0x693A JUMP JUMPDEST PUSH1 0x40 MLOAD DUP1 SWAP2 SUB SWAP1 RETURN JUMPDEST CALLVALUE DUP1 ISZERO PUSH2 0xA24 JUMPI PUSH1 0x0 DUP1 REVERT JUMPDEST POP PUSH2 0xA2D PUSH2 0x2AFF JUMP JUMPDEST PUSH1 0x40 MLOAD PUSH2 0xA3A SWAP2 SWAP1 PUSH2 0x6ABA JUMP JUMPDEST PUSH1 0x40 MLOAD DUP1 SWAP2 SUB SWAP1 RETURN JUMPDEST CALLVALUE DUP1 ISZERO PUSH2 0xA4F JUMPI PUSH1 0x0 DUP1 REVERT JUMPDEST POP PUSH2 0xA6A PUSH1 0x4 DUP1 CALLDATASIZE SUB PUSH2 0xA65 SWAP2 SWAP1 DUP2 ADD SWAP1 PUSH2 0x5685 JUMP JUMPDEST PUSH2 0x2B5E JUMP JUMPDEST PUSH1 0x40 MLOAD PUSH2 0xA77 SWAP2 SWAP1 PUSH2 0x6DE3 JUMP JUMPDEST PUSH1 0x40 MLOAD DUP1 SWAP2 SUB SWAP1 RETURN JUMPDEST CALLVALUE DUP1 ISZERO PUSH2 0xA8C JUMPI PUSH1 0x0 DUP1 REVERT JUMPDEST POP PUSH2 0xAA7 PUSH1 0x4 DUP1 CALLDATASIZE SUB PUSH2 0xAA2 SWAP2 SWAP1 DUP2 ADD SWAP1 PUSH2 0x5C2E JUMP JUMPDEST PUSH2 0x2C84 JUMP JUMPDEST STOP JUMPDEST CALLVALUE DUP1 ISZERO PUSH2 0xAB5 JUMPI PUSH1 0x0 DUP1 REVERT JUMPDEST POP PUSH2 0xAD0 PUSH1 0x4 DUP1 CALLDATASIZE SUB PUSH2 0xACB SWAP2 SWAP1 DUP2 ADD SWAP1 PUSH2 0x5685 JUMP JUMPDEST PUSH2 0x2CE8 JUMP JUMPDEST STOP JUMPDEST CALLVALUE DUP1 ISZERO PUSH2 0xADE JUMPI PUSH1 0x0 DUP1 REVERT JUMPDEST POP PUSH2 0xAE7 PUSH2 0x2F49 JUMP JUMPDEST PUSH1 0x40 MLOAD PUSH2 0xAF4 SWAP2 SWAP1 PUSH2 0x6B41 JUMP JUMPDEST PUSH1 0x40 MLOAD DUP1 SWAP2 SUB SWAP1 RETURN JUMPDEST CALLVALUE DUP1 ISZERO PUSH2 0xB09 JUMPI PUSH1 0x0 DUP1 REVERT JUMPDEST POP PUSH2 0xB24 PUSH1 0x4 DUP1 CALLDATASIZE SUB PUSH2 0xB1F SWAP2 SWAP1 DUP2 ADD SWAP1 PUSH2 0x5A29 JUMP JUMPDEST PUSH2 0x2FEB JUMP JUMPDEST STOP JUMPDEST CALLVALUE DUP1 ISZERO PUSH2 0xB32 JUMPI PUSH1 0x0 DUP1 REVERT JUMPDEST POP PUSH2 0xB4D PUSH1 0x4 DUP1 CALLDATASIZE SUB PUSH2 0xB48 SWAP2 SWAP1 DUP2 ADD SWAP1 PUSH2 0x5B97 JUMP JUMPDEST PUSH2 0x3062 JUMP JUMPDEST STOP JUMPDEST CALLVALUE DUP1 ISZERO PUSH2 0xB5B JUMPI PUSH1 0x0 DUP1 REVERT JUMPDEST POP PUSH2 0xB76 PUSH1 0x4 DUP1 CALLDATASIZE SUB PUSH2 0xB71 SWAP2 SWAP1 DUP2 ADD SWAP1 PUSH2 0x59ED JUMP JUMPDEST PUSH2 0x30D1 JUMP JUMPDEST PUSH1 0x40 MLOAD PUSH2 0xB83 SWAP2 SWAP1 PUSH2 0x6ABA JUMP JUMPDEST PUSH1 0x40 MLOAD DUP1 SWAP2 SUB SWAP1 RETURN JUMPDEST CALLVALUE DUP1 ISZERO PUSH2 0xB98 JUMPI PUSH1 0x0 DUP1 REVERT JUMPDEST POP PUSH2 0xBA1 PUSH2 0x31DF JUMP JUMPDEST PUSH1 0x40 MLOAD PUSH2 0xBAE SWAP2 SWAP1 PUSH2 0x6B41 JUMP JUMPDEST PUSH1 0x40 MLOAD DUP1 SWAP2 SUB SWAP1 RETURN JUMPDEST CALLVALUE DUP1 ISZERO PUSH2 0xBC3 JUMPI PUSH1 0x0 DUP1 REVERT JUMPDEST POP PUSH2 0xBDE PUSH1 0x4 DUP1 CALLDATASIZE SUB PUSH2 0xBD9 SWAP2 SWAP1 DUP2 ADD SWAP1 PUSH2 0x5DC0 JUMP JUMPDEST PUSH2 0x321C JUMP JUMPDEST STOP JUMPDEST CALLVALUE DUP1 ISZERO PUSH2 0xBEC JUMPI PUSH1 0x0 DUP1 REVERT JUMPDEST POP PUSH2 0xC07 PUSH1 0x4 DUP1 CALLDATASIZE SUB PUSH2 0xC02 SWAP2 SWAP1 DUP2 ADD SWAP1 PUSH2 0x5685 JUMP JUMPDEST PUSH2 0x323E JUMP JUMPDEST PUSH1 0x40 MLOAD PUSH2 0xC15 SWAP3 SWAP2 SWAP1 PUSH2 0x6A8A JUMP JUMPDEST PUSH1 0x40 MLOAD DUP1 SWAP2 SUB SWAP1 RETURN JUMPDEST CALLVALUE DUP1 ISZERO PUSH2 0xC2A JUMPI PUSH1 0x0 DUP1 REVERT JUMPDEST POP PUSH2 0xC45 PUSH1 0x4 DUP1 CALLDATASIZE SUB PUSH2 0xC40 SWAP2 SWAP1 DUP2 ADD SWAP1 PUSH2 0x5685 JUMP JUMPDEST PUSH2 0x33EF JUMP JUMPDEST PUSH1 0x40 MLOAD PUSH2 0xC52 SWAP2 SWAP1 PUSH2 0x6DE3 JUMP JUMPDEST PUSH1 0x40 MLOAD DUP1 SWAP2 SUB SWAP1 RETURN JUMPDEST CALLVALUE DUP1 ISZERO PUSH2 0xC67 JUMPI PUSH1 0x0 DUP1 REVERT JUMPDEST POP PUSH2 0xC70 PUSH2 0x3401 JUMP JUMPDEST PUSH1 0x40 MLOAD PUSH2 0xC7D SWAP2 SWAP1 PUSH2 0x6B0B JUMP JUMPDEST PUSH1 0x40 MLOAD DUP1 SWAP2 SUB SWAP1 RETURN JUMPDEST CALLVALUE DUP1 ISZERO PUSH2 0xC92 JUMPI PUSH1 0x0 DUP1 REVERT JUMPDEST POP PUSH2 0xCAD PUSH1 0x4 DUP1 CALLDATASIZE SUB PUSH2 0xCA8 SWAP2 SWAP1 DUP2 ADD SWAP1 PUSH2 0x5776 JUMP JUMPDEST PUSH2 0x3427 JUMP JUMPDEST PUSH1 0x40 MLOAD PUSH2 0xCBA SWAP2 SWAP1 PUSH2 0x6ABA JUMP JUMPDEST PUSH1 0x40 MLOAD DUP1 SWAP2 SUB SWAP1 RETURN JUMPDEST CALLVALUE DUP1 ISZERO PUSH2 0xCCF JUMPI PUSH1 0x0 DUP1 REVERT JUMPDEST POP PUSH2 0xCEA PUSH1 0x4 DUP1 CALLDATASIZE SUB PUSH2 0xCE5 SWAP2 SWAP1 DUP2 ADD SWAP1 PUSH2 0x5776 JUMP JUMPDEST PUSH2 0x35D8 JUMP JUMPDEST PUSH1 0x40 MLOAD PUSH2 0xCF7 SWAP2 SWAP1 PUSH2 0x6DE3 JUMP JUMPDEST PUSH1 0x40 MLOAD DUP1 SWAP2 SUB SWAP1 RETURN JUMPDEST CALLVALUE DUP1 ISZERO PUSH2 0xD0C JUMPI PUSH1 0x0 DUP1 REVERT JUMPDEST POP PUSH2 0xD27 PUSH1 0x4 DUP1 CALLDATASIZE SUB PUSH2 0xD22 SWAP2 SWAP1 DUP2 ADD SWAP1 PUSH2 0x5CEE JUMP JUMPDEST PUSH2 0x365F JUMP JUMPDEST STOP JUMPDEST CALLVALUE DUP1 ISZERO PUSH2 0xD35 JUMPI PUSH1 0x0 DUP1 REVERT JUMPDEST POP PUSH2 0xD50 PUSH1 0x4 DUP1 CALLDATASIZE SUB PUSH2 0xD4B SWAP2 SWAP1 DUP2 ADD SWAP1 PUSH2 0x5685 JUMP JUMPDEST PUSH2 0x372B JUMP JUMPDEST STOP JUMPDEST CALLVALUE DUP1 ISZERO PUSH2 0xD5E JUMPI PUSH1 0x0 DUP1 REVERT JUMPDEST POP PUSH2 0xD79 PUSH1 0x4 DUP1 CALLDATASIZE SUB PUSH2 0xD74 SWAP2 SWAP1 DUP2 ADD SWAP1 PUSH2 0x5685 JUMP JUMPDEST PUSH2 0x377E JUMP JUMPDEST STOP JUMPDEST CALLVALUE DUP1 ISZERO PUSH2 0xD87 JUMPI PUSH1 0x0 DUP1 REVERT JUMPDEST POP PUSH2 0xD90 PUSH2 0x39DF JUMP JUMPDEST PUSH1 0x40 MLOAD PUSH2 0xD9D SWAP2 SWAP1 PUSH2 0x6AF0 JUMP JUMPDEST PUSH1 0x40 MLOAD DUP1 SWAP2 SUB SWAP1 RETURN JUMPDEST CALLVALUE DUP1 ISZERO PUSH2 0xDB2 JUMPI PUSH1 0x0 DUP1 REVERT JUMPDEST POP PUSH2 0xDCD PUSH1 0x4 DUP1 CALLDATASIZE SUB PUSH2 0xDC8 SWAP2 SWAP1 DUP2 ADD SWAP1 PUSH2 0x5A95 JUMP JUMPDEST PUSH2 0x3A05 JUMP JUMPDEST STOP JUMPDEST CALLVALUE DUP1 ISZERO PUSH2 0xDDB JUMPI PUSH1 0x0 DUP1 REVERT JUMPDEST POP PUSH2 0xDF6 PUSH1 0x4 DUP1 CALLDATASIZE SUB PUSH2 0xDF1 SWAP2 SWAP1 DUP2 ADD SWAP1 PUSH2 0x5E6B JUMP JUMPDEST PUSH2 0x3AF9 JUMP JUMPDEST STOP JUMPDEST PUSH1 0x0 PUSH1 0xF PUSH1 0x0 SWAP1 SLOAD SWAP1 PUSH2 0x100 EXP SWAP1 DIV PUSH20 0xFFFFFFFFFFFFFFFFFFFFFFFFFFFFFFFFFFFFFFFF AND SWAP1 POP SWAP1 JUMP JUMPDEST PUSH1 0x60 PUSH1 0x5 DUP1 SLOAD DUP1 PUSH1 0x20 MUL PUSH1 0x20 ADD PUSH1 0x40 MLOAD SWAP1 DUP2 ADD PUSH1 0x40 MSTORE DUP1 SWAP3 SWAP2 SWAP1 DUP2 DUP2 MSTORE PUSH1 0x20 ADD DUP3 DUP1 SLOAD DUP1 ISZERO PUSH2 0xEA6 JUMPI PUSH1 0x20 MUL DUP3 ADD SWAP2 SWAP1 PUSH1 0x0 MSTORE PUSH1 0x20 PUSH1 0x0 KECCAK256 SWAP1 JUMPDEST DUP2 PUSH1 0x0 SWAP1 SLOAD SWAP1 PUSH2 0x100 EXP SWAP1 DIV PUSH20 0xFFFFFFFFFFFFFFFFFFFFFFFFFFFFFFFFFFFFFFFF AND PUSH20 0xFFFFFFFFFFFFFFFFFFFFFFFFFFFFFFFFFFFFFFFF AND DUP2 MSTORE PUSH1 0x20 ADD SWAP1 PUSH1 0x1 ADD SWAP1 DUP1 DUP4 GT PUSH2 0xE5C JUMPI JUMPDEST POP POP POP POP POP SWAP1 POP SWAP1 JUMP JUMPDEST PUSH1 0x60 PUSH1 0x3 DUP1 SLOAD PUSH1 0x1 DUP2 PUSH1 0x1 AND ISZERO PUSH2 0x100 MUL SUB AND PUSH1 0x2 SWAP1 DIV DUP1 PUSH1 0x1F ADD PUSH1 0x20 DUP1 SWAP2 DIV MUL PUSH1 0x20 ADD PUSH1 0x40 MLOAD SWAP1 DUP2 ADD PUSH1 0x40 MSTORE DUP1 SWAP3 SWAP2 SWAP1 DUP2 DUP2 MSTORE PUSH1 0x20 ADD DUP3 DUP1 SLOAD PUSH1 0x1 DUP2 PUSH1 0x1 AND ISZERO PUSH2 0x100 MUL SUB AND PUSH1 0x2 SWAP1 DIV DUP1 ISZERO PUSH2 0xF48 JUMPI DUP1 PUSH1 0x1F LT PUSH2 0xF1D JUMPI PUSH2 0x100 DUP1 DUP4 SLOAD DIV MUL DUP4 MSTORE SWAP2 PUSH1 0x20 ADD SWAP2 PUSH2 0xF48 JUMP JUMPDEST DUP3 ADD SWAP2 SWAP1 PUSH1 0x0 MSTORE PUSH1 0x20 PUSH1 0x0 KECCAK256 SWAP1 JUMPDEST DUP2 SLOAD DUP2 MSTORE SWAP1 PUSH1 0x1 ADD SWAP1 PUSH1 0x20 ADD DUP1 DUP4 GT PUSH2 0xF2B JUMPI DUP3 SWAP1 SUB PUSH1 0x1F AND DUP3 ADD SWAP2 JUMPDEST POP POP POP POP POP SWAP1 POP SWAP1 JUMP JUMPDEST PUSH1 0x0 DUP1 PUSH2 0xF5D PUSH2 0x3B6C JUMP JUMPDEST SWAP1 POP PUSH2 0xF6A DUP2 DUP6 DUP6 PUSH2 0x3BD9 JUMP JUMPDEST PUSH1 0x1 SWAP2 POP POP SWAP3 SWAP2 POP POP JUMP JUMPDEST PUSH1 0x0 PUSH1 0xB PUSH1 0x0 SWAP1 SLOAD SWAP1 PUSH2 0x100 EXP SWAP1 DIV PUSH20 0xFFFFFFFFFFFFFFFFFFFFFFFFFFFFFFFFFFFFFFFF AND PUSH20 0xFFFFFFFFFFFFFFFFFFFFFFFFFFFFFFFFFFFFFFFF AND PUSH4 0x9EC6B6B PUSH1 0x40 MLOAD DUP2 PUSH4 0xFFFFFFFF AND PUSH1 0xE0 SHL DUP2 MSTORE PUSH1 0x4 ADD PUSH1 0x20 PUSH1 0x40 MLOAD DUP1 DUP4 SUB DUP2 DUP7 DUP1 EXTCODESIZE ISZERO DUP1 ISZERO PUSH2 0xFDF JUMPI PUSH1 0x0 DUP1 REVERT JUMPDEST POP GAS STATICCALL ISZERO DUP1 ISZERO PUSH2 0xFF3 JUMPI RETURNDATASIZE PUSH1 0x0 DUP1 RETURNDATACOPY RETURNDATASIZE PUSH1 0x0 REVERT JUMPDEST POP POP POP POP PUSH1 0x40 MLOAD RETURNDATASIZE PUSH1 0x1F NOT PUSH1 0x1F DUP3 ADD AND DUP3 ADD DUP1 PUSH1 0x40 MSTORE POP PUSH2 0x1017 SWAP2 SWAP1 DUP2 ADD SWAP1 PUSH2 0x5D97 JUMP JUMPDEST SWAP1 POP SWAP1 JUMP JUMPDEST PUSH1 0x0 PUSH1 0x2 SLOAD SWAP1 POP SWAP1 JUMP JUMPDEST PUSH1 0x0 PUSH1 0xC PUSH1 0x0 PUSH2 0x1034 PUSH2 0x3B6C JUMP JUMPDEST PUSH20 0xFFFFFFFFFFFFFFFFFFFFFFFFFFFFFFFFFFFFFFFF AND PUSH20 0xFFFFFFFFFFFFFFFFFFFFFFFFFFFFFFFFFFFFFFFF AND DUP2 MSTORE PUSH1 0x20 ADD SWAP1 DUP2 MSTORE PUSH1 0x20 ADD PUSH1 0x0 KECCAK256 SWAP1 POP PUSH1 0x0 DUP2 PUSH1 0x2 ADD DUP2 PUSH2 0x1081 SWAP2 SWAP1 PUSH2 0x5121 JUMP JUMPDEST POP PUSH1 0x0 DUP2 PUSH1 0x3 ADD DUP2 SWAP1 SSTORE POP POP JUMP JUMPDEST PUSH1 0x0 PUSH2 0x10A1 PUSH2 0x109C PUSH2 0x3B6C JUMP JUMPDEST PUSH2 0x25CF JUMP JUMPDEST PUSH1 0x0 PUSH2 0x10C5 PUSH2 0x10B6 PUSH2 0x10B1 PUSH2 0x3B6C JUMP JUMPDEST PUSH2 0x3D34 JUMP JUMPDEST DUP5 PUSH2 0x3D46 SWAP1 SWAP2 SWAP1 PUSH4 0xFFFFFFFF AND JUMP JUMPDEST SWAP1 POP PUSH2 0x1100 PUSH2 0x10D2 PUSH2 0x3B6C JUMP JUMPDEST PUSH2 0x10DA PUSH2 0x3B6C JUMP JUMPDEST DUP4 PUSH1 0x40 MLOAD DUP1 PUSH1 0x20 ADD PUSH1 0x40 MSTORE DUP1 PUSH1 0x0 DUP2 MSTORE POP PUSH1 0x40 MLOAD DUP1 PUSH1 0x20 ADD PUSH1 0x40 MSTORE DUP1 PUSH1 0x0 DUP2 MSTORE POP PUSH2 0x3D5F JUMP JUMPDEST PUSH1 0x0 PUSH2 0x11CE PUSH1 0xB PUSH1 0x0 SWAP1 SLOAD SWAP1 PUSH2 0x100 EXP SWAP1 DIV PUSH20 0xFFFFFFFFFFFFFFFFFFFFFFFFFFFFFFFFFFFFFFFF AND PUSH20 0xFFFFFFFFFFFFFFFFFFFFFFFFFFFFFFFFFFFFFFFF AND PUSH4 0x7FF9B596 PUSH1 0x40 MLOAD DUP2 PUSH4 0xFFFFFFFF AND PUSH1 0xE0 SHL DUP2 MSTORE PUSH1 0x4 ADD PUSH1 0x20 PUSH1 0x40 MLOAD DUP1 DUP4 SUB DUP2 DUP7 DUP1 EXTCODESIZE ISZERO DUP1 ISZERO PUSH2 0x116D JUMPI PUSH1 0x0 DUP1 REVERT JUMPDEST POP GAS STATICCALL ISZERO DUP1 ISZERO PUSH2 0x1181 JUMPI RETURNDATASIZE PUSH1 0x0 DUP1 RETURNDATACOPY RETURNDATASIZE PUSH1 0x0 REVERT JUMPDEST POP POP POP POP PUSH1 0x40 MLOAD RETURNDATASIZE PUSH1 0x1F NOT PUSH1 0x1F DUP3 ADD AND DUP3 ADD DUP1 PUSH1 0x40 MSTORE POP PUSH2 0x11A5 SWAP2 SWAP1 DUP2 ADD SWAP1 PUSH2 0x5D97 JUMP JUMPDEST PUSH2 0x11C0 PUSH8 0xDE0B6B3A7640000 DUP6 PUSH2 0x3F7E SWAP1 SWAP2 SWAP1 PUSH4 0xFFFFFFFF AND JUMP JUMPDEST PUSH2 0x3FEE SWAP1 SWAP2 SWAP1 PUSH4 0xFFFFFFFF AND JUMP JUMPDEST SWAP1 POP PUSH1 0x1 DUP3 SUB PUSH1 0xB PUSH1 0x0 SWAP1 SLOAD SWAP1 PUSH2 0x100 EXP SWAP1 DIV PUSH20 0xFFFFFFFFFFFFFFFFFFFFFFFFFFFFFFFFFFFFFFFF AND PUSH20 0xFFFFFFFFFFFFFFFFFFFFFFFFFFFFFFFFFFFFFFFF AND PUSH4 0x9DC29FAC DUP8 DUP5 PUSH1 0x40 MLOAD DUP4 PUSH4 0xFFFFFFFF AND PUSH1 0xE0 SHL DUP2 MSTORE PUSH1 0x4 ADD PUSH2 0x1231 SWAP3 SWAP2 SWAP1 PUSH2 0x6A3F JUMP JUMPDEST PUSH1 0x20 PUSH1 0x40 MLOAD DUP1 DUP4 SUB DUP2 PUSH1 0x0 DUP8 DUP1 EXTCODESIZE ISZERO DUP1 ISZERO PUSH2 0x124B JUMPI PUSH1 0x0 DUP1 REVERT JUMPDEST POP GAS CALL ISZERO DUP1 ISZERO PUSH2 0x125F JUMPI RETURNDATASIZE PUSH1 0x0 DUP1 RETURNDATACOPY RETURNDATASIZE PUSH1 0x0 REVERT JUMPDEST POP POP POP POP PUSH1 0x40 MLOAD RETURNDATASIZE PUSH1 0x1F NOT PUSH1 0x1F DUP3 ADD AND DUP3 ADD DUP1 PUSH1 0x40 MSTORE POP PUSH2 0x1283 SWAP2 SWAP1 DUP2 ADD SWAP1 PUSH2 0x5D97 JUMP JUMPDEST LT ISZERO PUSH2 0x12C4 JUMPI PUSH1 0x40 MLOAD PUSH32 0x8C379A000000000000000000000000000000000000000000000000000000000 DUP2 MSTORE PUSH1 0x4 ADD PUSH2 0x12BB SWAP1 PUSH2 0x6D43 JUMP JUMPDEST PUSH1 0x40 MLOAD DUP1 SWAP2 SUB SWAP1 REVERT JUMPDEST PUSH2 0x12CC PUSH2 0x3B6C JUMP JUMPDEST PUSH20 0xFFFFFFFFFFFFFFFFFFFFFFFFFFFFFFFFFFFFFFFF AND DUP6 PUSH20 0xFFFFFFFFFFFFFFFFFFFFFFFFFFFFFFFFFFFFFFFF AND PUSH32 0x98E2EF558343683D81148487F9E3ADC59AB8B7F4038427844DFA588F409F3DDC DUP5 PUSH1 0x40 MLOAD PUSH2 0x1328 SWAP2 SWAP1 PUSH2 0x6DE3 JUMP JUMPDEST PUSH1 0x40 MLOAD DUP1 SWAP2 SUB SWAP1 LOG3 DUP2 SWAP3 POP POP POP SWAP3 SWAP2 POP POP JUMP JUMPDEST PUSH2 0x1344 DUP2 PUSH2 0x25CF JUMP JUMPDEST PUSH1 0x0 PUSH1 0xC PUSH1 0x0 DUP4 PUSH20 0xFFFFFFFFFFFFFFFFFFFFFFFFFFFFFFFFFFFFFFFF AND PUSH20 0xFFFFFFFFFFFFFFFFFFFFFFFFFFFFFFFFFFFFFFFF AND DUP2 MSTORE PUSH1 0x20 ADD SWAP1 DUP2 MSTORE PUSH1 0x20 ADD PUSH1 0x0 KECCAK256 SWAP1 POP DUP2 PUSH20 0xFFFFFFFFFFFFFFFFFFFFFFFFFFFFFFFFFFFFFFFF AND PUSH32 0x85438FA7C52FD8FC942F2DDEE2033AA0EFD3B75027316B7F1ECBE7738333807E DUP3 PUSH1 0x1 ADD SLOAD PUSH1 0x40 MLOAD PUSH2 0x13D1 SWAP2 SWAP1 PUSH2 0x6DE3 JUMP JUMPDEST PUSH1 0x40 MLOAD DUP1 SWAP2 SUB SWAP1 LOG2 PUSH2 0x13E7 DUP3 DUP3 PUSH1 0x1 ADD SLOAD PUSH2 0x4038 JUMP JUMPDEST POP POP POP JUMP JUMPDEST PUSH1 0x0 DUP1 PUSH20 0xFFFFFFFFFFFFFFFFFFFFFFFFFFFFFFFFFFFFFFFF AND DUP4 PUSH20 0xFFFFFFFFFFFFFFFFFFFFFFFFFFFFFFFFFFFFFFFF AND EQ ISZERO PUSH2 0x145D JUMPI PUSH1 0x40 MLOAD PUSH32 0x8C379A000000000000000000000000000000000000000000000000000000000 DUP2 MSTORE PUSH1 0x4 ADD PUSH2 0x1454 SWAP1 PUSH2 0x6D23 JUMP JUMPDEST PUSH1 0x40 MLOAD DUP1 SWAP2 SUB SWAP1 REVERT JUMPDEST PUSH1 0x0 PUSH20 0xFFFFFFFFFFFFFFFFFFFFFFFFFFFFFFFFFFFFFFFF AND DUP5 PUSH20 0xFFFFFFFFFFFFFFFFFFFFFFFFFFFFFFFFFFFFFFFF AND EQ ISZERO PUSH2 0x14CD JUMPI PUSH1 0x40 MLOAD PUSH32 0x8C379A000000000000000000000000000000000000000000000000000000000 DUP2 MSTORE PUSH1 0x4 ADD PUSH2 0x14C4 SWAP1 PUSH2 0x6D83 JUMP JUMPDEST PUSH1 0x40 MLOAD DUP1 SWAP2 SUB SWAP1 REVERT JUMPDEST PUSH1 0x0 PUSH2 0x14D7 PUSH2 0x3B6C JUMP JUMPDEST SWAP1 POP PUSH2 0x1505 DUP2 DUP7 DUP7 DUP7 PUSH1 0x40 MLOAD DUP1 PUSH1 0x20 ADD PUSH1 0x40 MSTORE DUP1 PUSH1 0x0 DUP2 MSTORE POP PUSH1 0x40 MLOAD DUP1 PUSH1 0x20 ADD PUSH1 0x40 MSTORE DUP1 PUSH1 0x0 DUP2 MSTORE POP PUSH2 0x4259 JUMP JUMPDEST PUSH2 0x1531 DUP2 DUP7 DUP7 DUP7 PUSH1 0x40 MLOAD DUP1 PUSH1 0x20 ADD PUSH1 0x40 MSTORE DUP1 PUSH1 0x0 DUP2 MSTORE POP PUSH1 0x40 MLOAD DUP1 PUSH1 0x20 ADD PUSH1 0x40 MSTORE DUP1 PUSH1 0x0 DUP2 MSTORE POP PUSH2 0x43DF JUMP JUMPDEST PUSH2 0x15E4 DUP6 DUP3 PUSH2 0x15DF DUP7 PUSH1 0x40 MLOAD DUP1 PUSH1 0x60 ADD PUSH1 0x40 MSTORE DUP1 PUSH1 0x29 DUP2 MSTORE PUSH1 0x20 ADD PUSH2 0x738E PUSH1 0x29 SWAP2 CODECOPY PUSH1 0x9 PUSH1 0x0 DUP13 PUSH20 0xFFFFFFFFFFFFFFFFFFFFFFFFFFFFFFFFFFFFFFFF AND PUSH20 0xFFFFFFFFFFFFFFFFFFFFFFFFFFFFFFFFFFFFFFFF AND DUP2 MSTORE PUSH1 0x20 ADD SWAP1 DUP2 MSTORE PUSH1 0x20 ADD PUSH1 0x0 KECCAK256 PUSH1 0x0 DUP9 PUSH20 0xFFFFFFFFFFFFFFFFFFFFFFFFFFFFFFFFFFFFFFFF AND PUSH20 0xFFFFFFFFFFFFFFFFFFFFFFFFFFFFFFFFFFFFFFFF AND DUP2 MSTORE PUSH1 0x20 ADD SWAP1 DUP2 MSTORE PUSH1 0x20 ADD PUSH1 0x0 KECCAK256 SLOAD PUSH2 0x4489 SWAP1 SWAP3 SWAP2 SWAP1 PUSH4 0xFFFFFFFF AND JUMP JUMPDEST PUSH2 0x3BD9 JUMP JUMPDEST PUSH2 0x1612 DUP2 DUP7 DUP7 DUP7 PUSH1 0x40 MLOAD DUP1 PUSH1 0x20 ADD PUSH1 0x40 MSTORE DUP1 PUSH1 0x0 DUP2 MSTORE POP PUSH1 0x40 MLOAD DUP1 PUSH1 0x20 ADD PUSH1 0x40 MSTORE DUP1 PUSH1 0x0 DUP2 MSTORE POP PUSH1 0x0 PUSH2 0x44E4 JUMP JUMPDEST PUSH1 0x1 SWAP2 POP POP SWAP4 SWAP3 POP POP POP JUMP JUMPDEST PUSH1 0x0 PUSH1 0xC PUSH1 0x0 DUP4 PUSH20 0xFFFFFFFFFFFFFFFFFFFFFFFFFFFFFFFFFFFFFFFF AND PUSH20 0xFFFFFFFFFFFFFFFFFFFFFFFFFFFFFFFFFFFFFFFF AND DUP2 MSTORE PUSH1 0x20 ADD SWAP1 DUP2 MSTORE PUSH1 0x20 ADD PUSH1 0x0 KECCAK256 PUSH1 0x1 ADD SLOAD SWAP1 POP SWAP2 SWAP1 POP JUMP JUMPDEST PUSH1 0x0 PUSH1 0x12 SWAP1 POP SWAP1 JUMP JUMPDEST DUP1 PUSH1 0xD PUSH1 0x0 PUSH2 0x1680 PUSH2 0x3B6C JUMP JUMPDEST PUSH20 0xFFFFFFFFFFFFFFFFFFFFFFFFFFFFFFFFFFFFFFFF AND PUSH20 0xFFFFFFFFFFFFFFFFFFFFFFFFFFFFFFFFFFFFFFFF AND DUP2 MSTORE PUSH1 0x20 ADD SWAP1 DUP2 MSTORE PUSH1 0x20 ADD PUSH1 0x0 KECCAK256 PUSH1 0x0 DUP5 PUSH20 0xFFFFFFFFFFFFFFFFFFFFFFFFFFFFFFFFFFFFFFFF AND PUSH20 0xFFFFFFFFFFFFFFFFFFFFFFFFFFFFFFFFFFFFFFFF AND DUP2 MSTORE PUSH1 0x20 ADD SWAP1 DUP2 MSTORE PUSH1 0x20 ADD PUSH1 0x0 KECCAK256 PUSH1 0x0 PUSH2 0x100 EXP DUP2 SLOAD DUP2 PUSH1 0xFF MUL NOT AND SWAP1 DUP4 ISZERO ISZERO MUL OR SWAP1 SSTORE POP POP POP JUMP JUMPDEST PUSH2 0x171A PUSH2 0x2AFF JUMP JUMPDEST PUSH2 0x1759 JUMPI PUSH1 0x40 MLOAD PUSH32 0x8C379A000000000000000000000000000000000000000000000000000000000 DUP2 MSTORE PUSH1 0x4 ADD PUSH2 0x1750 SWAP1 PUSH2 0x6CE3 JUMP JUMPDEST PUSH1 0x40 MLOAD DUP1 SWAP2 SUB SWAP1 REVERT JUMPDEST PUSH2 0x17F2 PUSH2 0x1764 PUSH2 0xDF8 JUMP JUMPDEST PUSH20 0xFFFFFFFFFFFFFFFFFFFFFFFFFFFFFFFFFFFFFFFF AND PUSH4 0x70A08231 ADDRESS PUSH1 0x40 MLOAD DUP3 PUSH4 0xFFFFFFFF AND PUSH1 0xE0 SHL DUP2 MSTORE PUSH1 0x4 ADD PUSH2 0x179C SWAP2 SWAP1 PUSH2 0x6955 JUMP JUMPDEST PUSH1 0x20 PUSH1 0x40 MLOAD DUP1 DUP4 SUB DUP2 DUP7 DUP1 EXTCODESIZE ISZERO DUP1 ISZERO PUSH2 0x17B4 JUMPI PUSH1 0x0 DUP1 REVERT JUMPDEST POP GAS STATICCALL ISZERO DUP1 ISZERO PUSH2 0x17C8 JUMPI RETURNDATASIZE PUSH1 0x0 DUP1 RETURNDATACOPY RETURNDATASIZE PUSH1 0x0 REVERT JUMPDEST POP POP POP POP PUSH1 0x40 MLOAD RETURNDATASIZE PUSH1 0x1F NOT PUSH1 0x1F DUP3 ADD AND DUP3 ADD DUP1 PUSH1 0x40 MSTORE POP PUSH2 0x17EC SWAP2 SWAP1 DUP2 ADD SWAP1 PUSH2 0x5D97 JUMP JUMPDEST CALLER PUSH2 0x46D5 JUMP JUMPDEST POP JUMP JUMPDEST PUSH2 0x17FE DUP3 PUSH2 0x25CF JUMP JUMPDEST PUSH1 0xA PUSH1 0x0 SWAP1 SLOAD SWAP1 PUSH2 0x100 EXP SWAP1 DIV PUSH20 0xFFFFFFFFFFFFFFFFFFFFFFFFFFFFFFFFFFFFFFFF AND PUSH20 0xFFFFFFFFFFFFFFFFFFFFFFFFFFFFFFFFFFFFFFFF AND PUSH4 0x23B872DD PUSH2 0x1844 PUSH2 0x3B6C JUMP JUMPDEST ADDRESS DUP5 PUSH1 0x40 MLOAD DUP5 PUSH4 0xFFFFFFFF AND PUSH1 0xE0 SHL DUP2 MSTORE PUSH1 0x4 ADD PUSH2 0x1864 SWAP4 SWAP3 SWAP2 SWAP1 PUSH2 0x69DF JUMP JUMPDEST PUSH1 0x20 PUSH1 0x40 MLOAD DUP1 DUP4 SUB DUP2 PUSH1 0x0 DUP8 DUP1 EXTCODESIZE ISZERO DUP1 ISZERO PUSH2 0x187E JUMPI PUSH1 0x0 DUP1 REVERT JUMPDEST POP GAS CALL ISZERO DUP1 ISZERO PUSH2 0x1892 JUMPI RETURNDATASIZE PUSH1 0x0 DUP1 RETURNDATACOPY RETURNDATASIZE PUSH1 0x0 REVERT JUMPDEST POP POP POP POP PUSH1 0x40 MLOAD RETURNDATASIZE PUSH1 0x1F NOT PUSH1 0x1F DUP3 ADD AND DUP3 ADD DUP1 PUSH1 0x40 MSTORE POP PUSH2 0x18B6 SWAP2 SWAP1 DUP2 ADD SWAP1 PUSH2 0x5C57 JUMP JUMPDEST PUSH2 0x18F5 JUMPI PUSH1 0x40 MLOAD PUSH32 0x8C379A000000000000000000000000000000000000000000000000000000000 DUP2 MSTORE PUSH1 0x4 ADD PUSH2 0x18EC SWAP1 PUSH2 0x6BA3 JUMP JUMPDEST PUSH1 0x40 MLOAD DUP1 SWAP2 SUB SWAP1 REVERT JUMPDEST PUSH1 0xA PUSH1 0x0 SWAP1 SLOAD SWAP1 PUSH2 0x100 EXP SWAP1 DIV PUSH20 0xFFFFFFFFFFFFFFFFFFFFFFFFFFFFFFFFFFFFFFFF AND PUSH20 0xFFFFFFFFFFFFFFFFFFFFFFFFFFFFFFFFFFFFFFFF AND PUSH4 0x95EA7B3 PUSH1 0xB PUSH1 0x0 SWAP1 SLOAD SWAP1 PUSH2 0x100 EXP SWAP1 DIV PUSH20 0xFFFFFFFFFFFFFFFFFFFFFFFFFFFFFFFFFFFFFFFF AND DUP4 PUSH1 0x40 MLOAD DUP4 PUSH4 0xFFFFFFFF AND PUSH1 0xE0 SHL DUP2 MSTORE PUSH1 0x4 ADD PUSH2 0x1974 SWAP3 SWAP2 SWAP1 PUSH2 0x6A3F JUMP JUMPDEST PUSH1 0x20 PUSH1 0x40 MLOAD DUP1 DUP4 SUB DUP2 PUSH1 0x0 DUP8 DUP1 EXTCODESIZE ISZERO DUP1 ISZERO PUSH2 0x198E JUMPI PUSH1 0x0 DUP1 REVERT JUMPDEST POP GAS CALL ISZERO DUP1 ISZERO PUSH2 0x19A2 JUMPI RETURNDATASIZE PUSH1 0x0 DUP1 RETURNDATACOPY RETURNDATASIZE PUSH1 0x0 REVERT JUMPDEST POP POP POP POP PUSH1 0x40 MLOAD RETURNDATASIZE PUSH1 0x1F NOT PUSH1 0x1F DUP3 ADD AND DUP3 ADD DUP1 PUSH1 0x40 MSTORE POP PUSH2 0x19C6 SWAP2 SWAP1 DUP2 ADD SWAP1 PUSH2 0x5C57 JUMP JUMPDEST POP PUSH1 0xB PUSH1 0x0 SWAP1 SLOAD SWAP1 PUSH2 0x100 EXP SWAP1 DIV PUSH20 0xFFFFFFFFFFFFFFFFFFFFFFFFFFFFFFFFFFFFFFFF AND PUSH20 0xFFFFFFFFFFFFFFFFFFFFFFFFFFFFFFFFFFFFFFFF AND PUSH4 0x40C10F19 ADDRESS DUP4 PUSH1 0x40 MLOAD DUP4 PUSH4 0xFFFFFFFF AND PUSH1 0xE0 SHL DUP2 MSTORE PUSH1 0x4 ADD PUSH2 0x1A24 SWAP3 SWAP2 SWAP1 PUSH2 0x6A3F JUMP JUMPDEST PUSH1 0x20 PUSH1 0x40 MLOAD DUP1 DUP4 SUB DUP2 PUSH1 0x0 DUP8 DUP1 EXTCODESIZE ISZERO DUP1 ISZERO PUSH2 0x1A3E JUMPI PUSH1 0x0 DUP1 REVERT JUMPDEST POP GAS CALL ISZERO DUP1 ISZERO PUSH2 0x1A52 JUMPI RETURNDATASIZE PUSH1 0x0 DUP1 RETURNDATACOPY RETURNDATASIZE PUSH1 0x0 REVERT JUMPDEST POP POP POP POP PUSH1 0x40 MLOAD RETURNDATASIZE PUSH1 0x1F NOT PUSH1 0x1F DUP3 ADD AND DUP3 ADD DUP1 PUSH1 0x40 MSTORE POP PUSH2 0x1A76 SWAP2 SWAP1 DUP2 ADD SWAP1 PUSH2 0x5D97 JUMP JUMPDEST POP PUSH2 0x1AA9 PUSH2 0x1A82 PUSH2 0x3B6C JUMP JUMPDEST DUP4 DUP4 PUSH1 0x40 MLOAD DUP1 PUSH1 0x20 ADD PUSH1 0x40 MSTORE DUP1 PUSH1 0x0 DUP2 MSTORE POP PUSH1 0x40 MLOAD DUP1 PUSH1 0x20 ADD PUSH1 0x40 MSTORE DUP1 PUSH1 0x0 DUP2 MSTORE POP PUSH2 0x4767 JUMP JUMPDEST PUSH2 0x1AB1 PUSH2 0x3B6C JUMP JUMPDEST PUSH20 0xFFFFFFFFFFFFFFFFFFFFFFFFFFFFFFFFFFFFFFFF AND DUP3 PUSH20 0xFFFFFFFFFFFFFFFFFFFFFFFFFFFFFFFFFFFFFFFF AND PUSH32 0x790ACD49F79FD738BF072D1F334B7DEFC021D1A0DFDC5799F5087A37E61930B5 DUP4 PUSH1 0x40 MLOAD PUSH2 0x1B0D SWAP2 SWAP1 PUSH2 0x6DE3 JUMP JUMPDEST PUSH1 0x40 MLOAD DUP1 SWAP2 SUB SWAP1 LOG3 POP POP JUMP JUMPDEST PUSH1 0x0 PUSH1 0x1 SWAP1 POP SWAP1 JUMP JUMPDEST PUSH1 0x0 DUP1 PUSH1 0xC PUSH1 0x0 PUSH2 0x1B31 PUSH2 0x3B6C JUMP JUMPDEST PUSH20 0xFFFFFFFFFFFFFFFFFFFFFFFFFFFFFFFFFFFFFFFF AND PUSH20 0xFFFFFFFFFFFFFFFFFFFFFFFFFFFFFFFFFFFFFFFF AND DUP2 MSTORE PUSH1 0x20 ADD SWAP1 DUP2 MSTORE PUSH1 0x20 ADD PUSH1 0x0 KECCAK256 SWAP1 POP DUP1 PUSH1 0x2 ADD PUSH1 0x40 MLOAD DUP1 PUSH1 0x60 ADD PUSH1 0x40 MSTORE DUP1 DUP8 PUSH20 0xFFFFFFFFFFFFFFFFFFFFFFFFFFFFFFFFFFFFFFFF AND DUP2 MSTORE PUSH1 0x20 ADD DUP7 DUP2 MSTORE PUSH1 0x20 ADD DUP6 DUP2 MSTORE POP SWAP1 DUP1 PUSH1 0x1 DUP2 SLOAD ADD DUP1 DUP3 SSTORE DUP1 SWAP2 POP POP SWAP1 PUSH1 0x1 DUP3 SUB SWAP1 PUSH1 0x0 MSTORE PUSH1 0x20 PUSH1 0x0 KECCAK256 SWAP1 PUSH1 0x3 MUL ADD PUSH1 0x0 SWAP1 SWAP2 SWAP3 SWAP1 SWAP2 SWAP1 SWAP2 POP PUSH1 0x0 DUP3 ADD MLOAD DUP2 PUSH1 0x0 ADD PUSH1 0x0 PUSH2 0x100 EXP DUP2 SLOAD DUP2 PUSH20 0xFFFFFFFFFFFFFFFFFFFFFFFFFFFFFFFFFFFFFFFF MUL NOT AND SWAP1 DUP4 PUSH20 0xFFFFFFFFFFFFFFFFFFFFFFFFFFFFFFFFFFFFFFFF AND MUL OR SWAP1 SSTORE POP PUSH1 0x20 DUP3 ADD MLOAD DUP2 PUSH1 0x1 ADD SSTORE PUSH1 0x40 DUP3 ADD MLOAD DUP2 PUSH1 0x2 ADD SWAP1 DUP1 MLOAD SWAP1 PUSH1 0x20 ADD SWAP1 PUSH2 0x1C3A SWAP3 SWAP2 SWAP1 PUSH2 0x5153 JUMP JUMPDEST POP POP POP POP PUSH2 0x1C55 DUP5 DUP3 PUSH1 0x3 ADD SLOAD PUSH2 0x496E SWAP1 SWAP2 SWAP1 PUSH4 0xFFFFFFFF AND JUMP JUMPDEST DUP2 PUSH1 0x3 ADD DUP2 SWAP1 SSTORE POP DUP5 PUSH20 0xFFFFFFFFFFFFFFFFFFFFFFFFFFFFFFFFFFFFFFFF AND PUSH2 0x1C7C PUSH2 0x3B6C JUMP JUMPDEST PUSH20 0xFFFFFFFFFFFFFFFFFFFFFFFFFFFFFFFFFFFFFFFF AND PUSH32 0x37CACDDB5CBFF122A21AD5F5643384A5929ED0A67F74BE15A1BD13F17245C421 DUP7 DUP7 PUSH1 0x1 DUP7 PUSH1 0x2 ADD DUP1 SLOAD SWAP1 POP SUB PUSH1 0x40 MLOAD PUSH2 0x1CCF SWAP4 SWAP3 SWAP2 SWAP1 PUSH2 0x6E9C JUMP JUMPDEST PUSH1 0x40 MLOAD DUP1 SWAP2 SUB SWAP1 LOG3 POP SWAP4 SWAP3 POP POP POP JUMP JUMPDEST DUP1 ISZERO PUSH1 0xC PUSH1 0x0 PUSH2 0x1CED PUSH2 0x3B6C JUMP JUMPDEST PUSH20 0xFFFFFFFFFFFFFFFFFFFFFFFFFFFFFFFFFFFFFFFF AND PUSH20 0xFFFFFFFFFFFFFFFFFFFFFFFFFFFFFFFFFFFFFFFF AND DUP2 MSTORE PUSH1 0x20 ADD SWAP1 DUP2 MSTORE PUSH1 0x20 ADD PUSH1 0x0 KECCAK256 PUSH1 0x4 ADD PUSH1 0x1 PUSH2 0x100 EXP DUP2 SLOAD DUP2 PUSH1 0xFF MUL NOT AND SWAP1 DUP4 ISZERO ISZERO MUL OR SWAP1 SSTORE POP POP JUMP JUMPDEST PUSH2 0x1D55 PUSH2 0x1D4F PUSH2 0x3B6C JUMP JUMPDEST DUP9 PUSH2 0x3427 JUMP JUMPDEST PUSH2 0x1D94 JUMPI PUSH1 0x40 MLOAD PUSH32 0x8C379A000000000000000000000000000000000000000000000000000000000 DUP2 MSTORE PUSH1 0x4 ADD PUSH2 0x1D8B SWAP1 PUSH2 0x6D63 JUMP JUMPDEST PUSH1 0x40 MLOAD DUP1 SWAP2 SUB SWAP1 REVERT JUMPDEST PUSH2 0x1E33 PUSH2 0x1D9F PUSH2 0x3B6C JUMP JUMPDEST DUP9 DUP9 DUP9 DUP9 DUP9 DUP1 DUP1 PUSH1 0x1F ADD PUSH1 0x20 DUP1 SWAP2 DIV MUL PUSH1 0x20 ADD PUSH1 0x40 MLOAD SWAP1 DUP2 ADD PUSH1 0x40 MSTORE DUP1 SWAP4 SWAP3 SWAP2 SWAP1 DUP2 DUP2 MSTORE PUSH1 0x20 ADD DUP4 DUP4 DUP1 DUP3 DUP5 CALLDATACOPY PUSH1 0x0 DUP2 DUP5 ADD MSTORE PUSH1 0x1F NOT PUSH1 0x1F DUP3 ADD AND SWAP1 POP DUP1 DUP4 ADD SWAP3 POP POP POP POP POP POP POP DUP8 DUP8 DUP1 DUP1 PUSH1 0x1F ADD PUSH1 0x20 DUP1 SWAP2 DIV MUL PUSH1 0x20 ADD PUSH1 0x40 MLOAD SWAP1 DUP2 ADD PUSH1 0x40 MSTORE DUP1 SWAP4 SWAP3 SWAP2 SWAP1 DUP2 DUP2 MSTORE PUSH1 0x20 ADD DUP4 DUP4 DUP1 DUP3 DUP5 CALLDATACOPY PUSH1 0x0 DUP2 DUP5 ADD MSTORE PUSH1 0x1F NOT PUSH1 0x1F DUP3 ADD AND SWAP1 POP DUP1 DUP4 ADD SWAP3 POP POP POP POP POP POP POP PUSH1 0x1 PUSH2 0x49C3 JUMP JUMPDEST POP POP POP POP POP POP POP JUMP JUMPDEST PUSH1 0x0 PUSH1 0x10 PUSH1 0x0 SWAP1 SLOAD SWAP1 PUSH2 0x100 EXP SWAP1 DIV PUSH20 0xFFFFFFFFFFFFFFFFFFFFFFFFFFFFFFFFFFFFFFFF AND PUSH20 0xFFFFFFFFFFFFFFFFFFFFFFFFFFFFFFFFFFFFFFFF AND PUSH4 0x57DE26A4 PUSH1 0x40 MLOAD DUP2 PUSH4 0xFFFFFFFF AND PUSH1 0xE0 SHL DUP2 MSTORE PUSH1 0x4 ADD PUSH1 0x20 PUSH1 0x40 MLOAD DUP1 DUP4 SUB DUP2 DUP7 DUP1 EXTCODESIZE ISZERO DUP1 ISZERO PUSH2 0x1EA6 JUMPI PUSH1 0x0 DUP1 REVERT JUMPDEST POP GAS STATICCALL ISZERO DUP1 ISZERO PUSH2 0x1EBA JUMPI RETURNDATASIZE PUSH1 0x0 DUP1 RETURNDATACOPY RETURNDATASIZE PUSH1 0x0 REVERT JUMPDEST POP POP POP POP PUSH1 0x40 MLOAD RETURNDATASIZE PUSH1 0x1F NOT PUSH1 0x1F DUP3 ADD AND DUP3 ADD DUP1 PUSH1 0x40 MSTORE POP PUSH2 0x1EDE SWAP2 SWAP1 DUP2 ADD SWAP1 PUSH2 0x5C80 JUMP JUMPDEST PUSH1 0x0 SHR SWAP1 POP SWAP1 JUMP JUMPDEST PUSH1 0x0 DUP1 PUSH1 0xC PUSH1 0x0 DUP5 PUSH20 0xFFFFFFFFFFFFFFFFFFFFFFFFFFFFFFFFFFFFFFFF AND PUSH20 0xFFFFFFFFFFFFFFFFFFFFFFFFFFFFFFFFFFFFFFFF AND DUP2 MSTORE PUSH1 0x20 ADD SWAP1 DUP2 MSTORE PUSH1 0x20 ADD PUSH1 0x0 KECCAK256 SWAP1 POP PUSH1 0x0 PUSH2 0x1F35 DUP5 PUSH2 0x3D34 JUMP JUMPDEST SWAP1 POP DUP1 DUP3 PUSH1 0x1 ADD SLOAD LT PUSH2 0x1F4D JUMPI PUSH1 0x0 SWAP3 POP POP POP PUSH2 0x1F9F JUMP JUMPDEST PUSH1 0xC PUSH1 0x0 DUP6 PUSH20 0xFFFFFFFFFFFFFFFFFFFFFFFFFFFFFFFFFFFFFFFF AND PUSH20 0xFFFFFFFFFFFFFFFFFFFFFFFFFFFFFFFFFFFFFFFF AND DUP2 MSTORE PUSH1 0x20 ADD SWAP1 DUP2 MSTORE PUSH1 0x20 ADD PUSH1 0x0 KECCAK256 PUSH1 0x1 ADD SLOAD PUSH2 0x1F99 DUP6 PUSH2 0x3D34 JUMP JUMPDEST SUB SWAP3 POP POP POP JUMPDEST SWAP2 SWAP1 POP JUMP JUMPDEST PUSH2 0x1FAC PUSH2 0x2AFF JUMP JUMPDEST PUSH2 0x1FEB JUMPI PUSH1 0x40 MLOAD PUSH32 0x8C379A000000000000000000000000000000000000000000000000000000000 DUP2 MSTORE PUSH1 0x4 ADD PUSH2 0x1FE2 SWAP1 PUSH2 0x6CE3 JUMP JUMPDEST PUSH1 0x40 MLOAD DUP1 SWAP2 SUB SWAP1 REVERT JUMPDEST PUSH1 0x0 PUSH20 0xFFFFFFFFFFFFFFFFFFFFFFFFFFFFFFFFFFFFFFFF AND PUSH1 0xE PUSH1 0x0 SWAP1 SLOAD SWAP1 PUSH2 0x100 EXP SWAP1 DIV PUSH20 0xFFFFFFFFFFFFFFFFFFFFFFFFFFFFFFFFFFFFFFFF AND PUSH20 0xFFFFFFFFFFFFFFFFFFFFFFFFFFFFFFFFFFFFFFFF AND PUSH32 0x8BE0079C531659141344CD1FD0A4F28419497F9722A3DAAFE3B4186F6B6457E0 PUSH1 0x40 MLOAD PUSH1 0x40 MLOAD DUP1 SWAP2 SUB SWAP1 LOG3 PUSH1 0x0 PUSH1 0xE PUSH1 0x0 PUSH2 0x100 EXP DUP2 SLOAD DUP2 PUSH20 0xFFFFFFFFFFFFFFFFFFFFFFFFFFFFFFFFFFFFFFFF MUL NOT AND SWAP1 DUP4 PUSH20 0xFFFFFFFFFFFFFFFFFFFFFFFFFFFFFFFFFFFFFFFF AND MUL OR SWAP1 SSTORE POP JUMP JUMPDEST PUSH2 0x20B4 PUSH2 0x2AFF JUMP JUMPDEST PUSH2 0x20F3 JUMPI PUSH1 0x40 MLOAD PUSH32 0x8C379A000000000000000000000000000000000000000000000000000000000 DUP2 MSTORE PUSH1 0x4 ADD PUSH2 0x20EA SWAP1 PUSH2 0x6CE3 JUMP JUMPDEST PUSH1 0x40 MLOAD DUP1 SWAP2 SUB SWAP1 REVERT JUMPDEST DUP1 PUSH1 0x10 PUSH1 0x0 PUSH2 0x100 EXP DUP2 SLOAD DUP2 PUSH20 0xFFFFFFFFFFFFFFFFFFFFFFFFFFFFFFFFFFFFFFFF MUL NOT AND SWAP1 DUP4 PUSH20 0xFFFFFFFFFFFFFFFFFFFFFFFFFFFFFFFFFFFFFFFF AND MUL OR SWAP1 SSTORE POP POP JUMP JUMPDEST PUSH1 0x10 PUSH1 0x0 SWAP1 SLOAD SWAP1 PUSH2 0x100 EXP SWAP1 DIV PUSH20 0xFFFFFFFFFFFFFFFFFFFFFFFFFFFFFFFFFFFFFFFF AND DUP2 JUMP JUMPDEST PUSH2 0x3E8 DUP2 JUMP JUMPDEST PUSH1 0xC PUSH1 0x20 MSTORE DUP1 PUSH1 0x0 MSTORE PUSH1 0x40 PUSH1 0x0 KECCAK256 PUSH1 0x0 SWAP2 POP SWAP1 POP DUP1 PUSH1 0x0 ADD SLOAD SWAP1 DUP1 PUSH1 0x1 ADD SLOAD SWAP1 DUP1 PUSH1 0x3 ADD SLOAD SWAP1 DUP1 PUSH1 0x4 ADD PUSH1 0x0 SWAP1 SLOAD SWAP1 PUSH2 0x100 EXP SWAP1 DIV PUSH1 0xFF AND SWAP1 DUP1 PUSH1 0x4 ADD PUSH1 0x1 SWAP1 SLOAD SWAP1 PUSH2 0x100 EXP SWAP1 DIV PUSH1 0xFF AND SWAP1 POP DUP6 JUMP JUMPDEST PUSH1 0x0 DUP1 PUSH2 0x21BE PUSH2 0x1E3C JUMP JUMPDEST SWAP1 POP PUSH2 0x2215 PUSH2 0x3E8 PUSH2 0x2207 PUSH1 0x11 SLOAD PUSH2 0x21F9 PUSH8 0xDE0B6B3A7640000 PUSH2 0x21EB DUP8 DUP11 PUSH2 0x3F7E SWAP1 SWAP2 SWAP1 PUSH4 0xFFFFFFFF AND JUMP JUMPDEST PUSH2 0x3FEE SWAP1 SWAP2 SWAP1 PUSH4 0xFFFFFFFF AND JUMP JUMPDEST PUSH2 0x3F7E SWAP1 SWAP2 SWAP1 PUSH4 0xFFFFFFFF AND JUMP JUMPDEST PUSH2 0x3FEE SWAP1 SWAP2 SWAP1 PUSH4 0xFFFFFFFF AND JUMP JUMPDEST SWAP2 POP POP SWAP2 SWAP1 POP JUMP JUMPDEST PUSH1 0x0 PUSH2 0x2227 PUSH2 0xDF8 JUMP JUMPDEST PUSH20 0xFFFFFFFFFFFFFFFFFFFFFFFFFFFFFFFFFFFFFFFF AND CALLER PUSH20 0xFFFFFFFFFFFFFFFFFFFFFFFFFFFFFFFFFFFFFFFF AND EQ PUSH2 0x2294 JUMPI PUSH1 0x40 MLOAD PUSH32 0x8C379A000000000000000000000000000000000000000000000000000000000 DUP2 MSTORE PUSH1 0x4 ADD PUSH2 0x228B SWAP1 PUSH2 0x6B63 JUMP JUMPDEST PUSH1 0x40 MLOAD DUP1 SWAP2 SUB SWAP1 REVERT JUMPDEST PUSH2 0x22E1 DUP4 DUP4 DUP1 DUP1 PUSH1 0x1F ADD PUSH1 0x20 DUP1 SWAP2 DIV MUL PUSH1 0x20 ADD PUSH1 0x40 MLOAD SWAP1 DUP2 ADD PUSH1 0x40 MSTORE DUP1 SWAP4 SWAP3 SWAP2 SWAP1 DUP2 DUP2 MSTORE PUSH1 0x20 ADD DUP4 DUP4 DUP1 DUP3 DUP5 CALLDATACOPY PUSH1 0x0 DUP2 DUP5 ADD MSTORE PUSH1 0x1F NOT PUSH1 0x1F DUP3 ADD AND SWAP1 POP DUP1 DUP4 ADD SWAP3 POP POP POP POP POP POP POP PUSH2 0x4AD7 JUMP JUMPDEST SWAP1 POP SWAP3 SWAP2 POP POP JUMP JUMPDEST PUSH1 0x0 DUP1 PUSH1 0xC PUSH1 0x0 PUSH2 0x22F8 PUSH2 0x3B6C JUMP JUMPDEST PUSH20 0xFFFFFFFFFFFFFFFFFFFFFFFFFFFFFFFFFFFFFFFF AND PUSH20 0xFFFFFFFFFFFFFFFFFFFFFFFFFFFFFFFFFFFFFFFF AND DUP2 MSTORE PUSH1 0x20 ADD SWAP1 DUP2 MSTORE PUSH1 0x20 ADD PUSH1 0x0 KECCAK256 SWAP1 POP PUSH1 0x0 DUP2 PUSH1 0x2 ADD DUP5 DUP2 SLOAD DUP2 LT PUSH2 0x2345 JUMPI INVALID JUMPDEST SWAP1 PUSH1 0x0 MSTORE PUSH1 0x20 PUSH1 0x0 KECCAK256 SWAP1 PUSH1 0x3 MUL ADD SWAP1 POP DUP1 PUSH1 0x0 ADD PUSH1 0x0 SWAP1 SLOAD SWAP1 PUSH2 0x100 EXP SWAP1 DIV PUSH20 0xFFFFFFFFFFFFFFFFFFFFFFFFFFFFFFFFFFFFFFFF AND PUSH20 0xFFFFFFFFFFFFFFFFFFFFFFFFFFFFFFFFFFFFFFFF AND PUSH2 0x2398 PUSH2 0x3B6C JUMP JUMPDEST PUSH20 0xFFFFFFFFFFFFFFFFFFFFFFFFFFFFFFFFFFFFFFFF AND PUSH32 0x9B691786D8E66EF436AF4D05F895EE1C9F3B4AA32A9A6854438F82B08C223045 DUP4 PUSH1 0x1 ADD SLOAD DUP5 PUSH1 0x2 ADD DUP9 PUSH1 0x40 MLOAD PUSH2 0x23E8 SWAP4 SWAP3 SWAP2 SWAP1 PUSH2 0x6EDA JUMP JUMPDEST PUSH1 0x40 MLOAD DUP1 SWAP2 SUB SWAP1 LOG3 PUSH2 0x2427 DUP3 PUSH1 0x2 ADD DUP6 DUP2 SLOAD DUP2 LT PUSH2 0x2402 JUMPI INVALID JUMPDEST SWAP1 PUSH1 0x0 MSTORE PUSH1 0x20 PUSH1 0x0 KECCAK256 SWAP1 PUSH1 0x3 MUL ADD PUSH1 0x1 ADD SLOAD DUP4 PUSH1 0x3 ADD SLOAD PUSH2 0x4B3B SWAP1 SWAP2 SWAP1 PUSH4 0xFFFFFFFF AND JUMP JUMPDEST DUP3 PUSH1 0x3 ADD DUP2 SWAP1 SSTORE POP PUSH1 0x1 DUP3 PUSH1 0x2 ADD DUP1 SLOAD SWAP1 POP SUB DUP5 EQ PUSH2 0x2521 JUMPI DUP2 PUSH1 0x2 ADD PUSH1 0x1 DUP4 PUSH1 0x2 ADD DUP1 SLOAD SWAP1 POP SUB DUP2 SLOAD DUP2 LT PUSH2 0x2459 JUMPI INVALID JUMPDEST SWAP1 PUSH1 0x0 MSTORE PUSH1 0x20 PUSH1 0x0 KECCAK256 SWAP1 PUSH1 0x3 MUL ADD DUP3 PUSH1 0x2 ADD DUP6 DUP2 SLOAD DUP2 LT PUSH2 0x2476 JUMPI INVALID JUMPDEST SWAP1 PUSH1 0x0 MSTORE PUSH1 0x20 PUSH1 0x0 KECCAK256 SWAP1 PUSH1 0x3 MUL ADD PUSH1 0x0 DUP3 ADD PUSH1 0x0 SWAP1 SLOAD SWAP1 PUSH2 0x100 EXP SWAP1 DIV PUSH20 0xFFFFFFFFFFFFFFFFFFFFFFFFFFFFFFFFFFFFFFFF AND DUP2 PUSH1 0x0 ADD PUSH1 0x0 PUSH2 0x100 EXP DUP2 SLOAD DUP2 PUSH20 0xFFFFFFFFFFFFFFFFFFFFFFFFFFFFFFFFFFFFFFFF MUL NOT AND SWAP1 DUP4 PUSH20 0xFFFFFFFFFFFFFFFFFFFFFFFFFFFFFFFFFFFFFFFF AND MUL OR SWAP1 SSTORE POP PUSH1 0x1 DUP3 ADD SLOAD DUP2 PUSH1 0x1 ADD SSTORE PUSH1 0x2 DUP3 ADD DUP2 PUSH1 0x2 ADD SWAP1 DUP1 SLOAD PUSH1 0x1 DUP2 PUSH1 0x1 AND ISZERO PUSH2 0x100 MUL SUB AND PUSH1 0x2 SWAP1 DIV PUSH2 0x251C SWAP3 SWAP2 SWAP1 PUSH2 0x51D3 JUMP JUMPDEST POP SWAP1 POP POP JUMPDEST DUP2 PUSH1 0x2 ADD DUP1 SLOAD DUP1 SWAP2 SWAP1 PUSH1 0x1 SWAP1 SUB PUSH2 0x2538 SWAP2 SWAP1 PUSH2 0x5121 JUMP JUMPDEST POP PUSH1 0x0 DUP3 PUSH1 0x2 ADD DUP1 SLOAD SWAP1 POP EQ ISZERO PUSH2 0x2554 JUMPI PUSH1 0x0 DUP3 PUSH1 0x1 ADD DUP2 SWAP1 SSTORE POP JUMPDEST POP POP SWAP2 SWAP1 POP JUMP JUMPDEST PUSH1 0x0 PUSH1 0x60 PUSH1 0x0 PUSH2 0x256A DUP5 PUSH2 0x21B3 JUMP JUMPDEST SWAP1 POP DUP1 PUSH2 0x2576 DUP15 PUSH2 0x3D34 JUMP JUMPDEST LT ISZERO PUSH2 0x25A4 JUMPI PUSH1 0x1 DUP1 SWAP1 POP PUSH1 0x40 MLOAD DUP1 PUSH1 0x60 ADD PUSH1 0x40 MSTORE DUP1 PUSH1 0x2F DUP2 MSTORE PUSH1 0x20 ADD PUSH2 0x735F PUSH1 0x2F SWAP2 CODECOPY SWAP3 POP SWAP3 POP POP PUSH2 0x25BF JUMP JUMPDEST PUSH1 0x0 DUP1 SWAP1 POP PUSH1 0x40 MLOAD DUP1 PUSH1 0x20 ADD PUSH1 0x40 MSTORE DUP1 PUSH1 0x0 DUP2 MSTORE POP SWAP3 POP SWAP3 POP POP JUMPDEST SWAP12 POP SWAP12 SWAP10 POP POP POP POP POP POP POP POP POP POP JUMP JUMPDEST PUSH1 0x0 PUSH1 0xC PUSH1 0x0 DUP4 PUSH20 0xFFFFFFFFFFFFFFFFFFFFFFFFFFFFFFFFFFFFFFFF AND PUSH20 0xFFFFFFFFFFFFFFFFFFFFFFFFFFFFFFFFFFFFFFFF AND DUP2 MSTORE PUSH1 0x20 ADD SWAP1 DUP2 MSTORE PUSH1 0x20 ADD PUSH1 0x0 KECCAK256 SWAP1 POP PUSH1 0x0 PUSH1 0xB PUSH1 0x0 SWAP1 SLOAD SWAP1 PUSH2 0x100 EXP SWAP1 DIV PUSH20 0xFFFFFFFFFFFFFFFFFFFFFFFFFFFFFFFFFFFFFFFF AND PUSH20 0xFFFFFFFFFFFFFFFFFFFFFFFFFFFFFFFFFFFFFFFF AND PUSH4 0x7FF9B596 PUSH1 0x40 MLOAD DUP2 PUSH4 0xFFFFFFFF AND PUSH1 0xE0 SHL DUP2 MSTORE PUSH1 0x4 ADD PUSH1 0x20 PUSH1 0x40 MLOAD DUP1 DUP4 SUB DUP2 DUP7 DUP1 EXTCODESIZE ISZERO DUP1 ISZERO PUSH2 0x267C JUMPI PUSH1 0x0 DUP1 REVERT JUMPDEST POP GAS STATICCALL ISZERO DUP1 ISZERO PUSH2 0x2690 JUMPI RETURNDATASIZE PUSH1 0x0 DUP1 RETURNDATACOPY RETURNDATASIZE PUSH1 0x0 REVERT JUMPDEST POP POP POP POP PUSH1 0x40 MLOAD RETURNDATASIZE PUSH1 0x1F NOT PUSH1 0x1F DUP3 ADD AND DUP3 ADD DUP1 PUSH1 0x40 MSTORE POP PUSH2 0x26B4 SWAP2 SWAP1 DUP2 ADD SWAP1 PUSH2 0x5D97 JUMP JUMPDEST SWAP1 POP PUSH1 0x0 PUSH2 0x26C1 DUP5 PUSH2 0x2B5E JUMP JUMPDEST SWAP1 POP DUP3 PUSH1 0x4 ADD PUSH1 0x1 SWAP1 SLOAD SWAP1 PUSH2 0x100 EXP SWAP1 DIV PUSH1 0xFF AND DUP1 PUSH2 0x26E8 JUMPI POP PUSH1 0x0 DUP4 PUSH1 0x2 ADD DUP1 SLOAD SWAP1 POP EQ ISZERO JUMPDEST ISZERO PUSH2 0x270D JUMPI PUSH2 0x2704 DUP2 DUP5 PUSH1 0x1 ADD SLOAD PUSH2 0x496E SWAP1 SWAP2 SWAP1 PUSH4 0xFFFFFFFF AND JUMP JUMPDEST DUP4 PUSH1 0x1 ADD DUP2 SWAP1 SSTORE POP JUMPDEST PUSH2 0x2738 ADDRESS DUP6 DUP4 PUSH1 0x40 MLOAD DUP1 PUSH1 0x20 ADD PUSH1 0x40 MSTORE DUP1 PUSH1 0x0 DUP2 MSTORE POP PUSH1 0x40 MLOAD DUP1 PUSH1 0x20 ADD PUSH1 0x40 MSTORE DUP1 PUSH1 0x0 DUP2 MSTORE POP PUSH2 0x4767 JUMP JUMPDEST DUP2 DUP4 PUSH1 0x0 ADD DUP2 SWAP1 SSTORE POP DUP4 PUSH20 0xFFFFFFFFFFFFFFFFFFFFFFFFFFFFFFFFFFFFFFFF AND PUSH32 0xF9984C8173C4B4FF9CC454F76ED19C053F4490CCB224FD9DDFFEB4EF4BEA3530 DUP3 PUSH1 0x40 MLOAD PUSH2 0x2787 SWAP2 SWAP1 PUSH2 0x6DE3 JUMP JUMPDEST PUSH1 0x40 MLOAD DUP1 SWAP2 SUB SWAP1 LOG2 POP POP POP POP JUMP JUMPDEST PUSH1 0xB PUSH1 0x0 SWAP1 SLOAD SWAP1 PUSH2 0x100 EXP SWAP1 DIV PUSH20 0xFFFFFFFFFFFFFFFFFFFFFFFFFFFFFFFFFFFFFFFF AND PUSH20 0xFFFFFFFFFFFFFFFFFFFFFFFFFFFFFFFFFFFFFFFF AND DUP2 PUSH20 0xFFFFFFFFFFFFFFFFFFFFFFFFFFFFFFFFFFFFFFFF AND EQ ISZERO PUSH2 0x2826 JUMPI PUSH1 0x40 MLOAD PUSH32 0x8C379A000000000000000000000000000000000000000000000000000000000 DUP2 MSTORE PUSH1 0x4 ADD PUSH2 0x281D SWAP1 PUSH2 0x6BC3 JUMP JUMPDEST PUSH1 0x40 MLOAD DUP1 SWAP2 SUB SWAP1 REVERT JUMPDEST PUSH2 0x282F ADDRESS PUSH2 0x25CF JUMP JUMPDEST PUSH1 0x0 PUSH1 0xA PUSH1 0x0 SWAP1 SLOAD SWAP1 PUSH2 0x100 EXP SWAP1 DIV PUSH20 0xFFFFFFFFFFFFFFFFFFFFFFFFFFFFFFFFFFFFFFFF AND SWAP1 POP DUP1 PUSH20 0xFFFFFFFFFFFFFFFFFFFFFFFFFFFFFFFFFFFFFFFF AND PUSH4 0xA9059CBB PUSH2 0x287A PUSH2 0x2AD5 JUMP JUMPDEST DUP4 PUSH20 0xFFFFFFFFFFFFFFFFFFFFFFFFFFFFFFFFFFFFFFFF AND PUSH4 0x70A08231 ADDRESS PUSH1 0x40 MLOAD DUP3 PUSH4 0xFFFFFFFF AND PUSH1 0xE0 SHL DUP2 MSTORE PUSH1 0x4 ADD PUSH2 0x28B3 SWAP2 SWAP1 PUSH2 0x6955 JUMP JUMPDEST PUSH1 0x20 PUSH1 0x40 MLOAD DUP1 DUP4 SUB DUP2 DUP7 DUP1 EXTCODESIZE ISZERO DUP1 ISZERO PUSH2 0x28CB JUMPI PUSH1 0x0 DUP1 REVERT JUMPDEST POP GAS STATICCALL ISZERO DUP1 ISZERO PUSH2 0x28DF JUMPI RETURNDATASIZE PUSH1 0x0 DUP1 RETURNDATACOPY RETURNDATASIZE PUSH1 0x0 REVERT JUMPDEST POP POP POP POP PUSH1 0x40 MLOAD RETURNDATASIZE PUSH1 0x1F NOT PUSH1 0x1F DUP3 ADD AND DUP3 ADD DUP1 PUSH1 0x40 MSTORE POP PUSH2 0x2903 SWAP2 SWAP1 DUP2 ADD SWAP1 PUSH2 0x5D97 JUMP JUMPDEST PUSH1 0x40 MLOAD DUP4 PUSH4 0xFFFFFFFF AND PUSH1 0xE0 SHL DUP2 MSTORE PUSH1 0x4 ADD PUSH2 0x2920 SWAP3 SWAP2 SWAP1 PUSH2 0x6A3F JUMP JUMPDEST PUSH1 0x20 PUSH1 0x40 MLOAD DUP1 DUP4 SUB DUP2 PUSH1 0x0 DUP8 DUP1 EXTCODESIZE ISZERO DUP1 ISZERO PUSH2 0x293A JUMPI PUSH1 0x0 DUP1 REVERT JUMPDEST POP GAS CALL ISZERO DUP1 ISZERO PUSH2 0x294E JUMPI RETURNDATASIZE PUSH1 0x0 DUP1 RETURNDATACOPY RETURNDATASIZE PUSH1 0x0 REVERT JUMPDEST POP POP POP POP PUSH1 0x40 MLOAD RETURNDATASIZE PUSH1 0x1F NOT PUSH1 0x1F DUP3 ADD AND DUP3 ADD DUP1 PUSH1 0x40 MSTORE POP PUSH2 0x2972 SWAP2 SWAP1 DUP2 ADD SWAP1 PUSH2 0x5C57 JUMP JUMPDEST POP POP POP JUMP JUMPDEST DUP2 PUSH20 0xFFFFFFFFFFFFFFFFFFFFFFFFFFFFFFFFFFFFFFFF AND PUSH2 0x2996 PUSH2 0x3B6C JUMP JUMPDEST PUSH20 0xFFFFFFFFFFFFFFFFFFFFFFFFFFFFFFFFFFFFFFFF AND EQ DUP1 PUSH2 0x2A45 JUMPI POP PUSH1 0xD PUSH1 0x0 DUP4 PUSH20 0xFFFFFFFFFFFFFFFFFFFFFFFFFFFFFFFFFFFFFFFF AND PUSH20 0xFFFFFFFFFFFFFFFFFFFFFFFFFFFFFFFFFFFFFFFF AND DUP2 MSTORE PUSH1 0x20 ADD SWAP1 DUP2 MSTORE PUSH1 0x20 ADD PUSH1 0x0 KECCAK256 PUSH1 0x0 PUSH2 0x29FC PUSH2 0x3B6C JUMP JUMPDEST PUSH20 0xFFFFFFFFFFFFFFFFFFFFFFFFFFFFFFFFFFFFFFFF AND PUSH20 0xFFFFFFFFFFFFFFFFFFFFFFFFFFFFFFFFFFFFFFFF AND DUP2 MSTORE PUSH1 0x20 ADD SWAP1 DUP2 MSTORE PUSH1 0x20 ADD PUSH1 0x0 KECCAK256 PUSH1 0x0 SWAP1 SLOAD SWAP1 PUSH2 0x100 EXP SWAP1 DIV PUSH1 0xFF AND JUMPDEST PUSH2 0x2A84 JUMPI PUSH1 0x40 MLOAD PUSH32 0x8C379A000000000000000000000000000000000000000000000000000000000 DUP2 MSTORE PUSH1 0x4 ADD PUSH2 0x2A7B SWAP1 PUSH2 0x6C43 JUMP JUMPDEST PUSH1 0x40 MLOAD DUP1 SWAP2 SUB SWAP1 REVERT JUMPDEST PUSH1 0x0 PUSH1 0xC PUSH1 0x0 DUP5 PUSH20 0xFFFFFFFFFFFFFFFFFFFFFFFFFFFFFFFFFFFFFFFF AND PUSH20 0xFFFFFFFFFFFFFFFFFFFFFFFFFFFFFFFFFFFFFFFF AND DUP2 MSTORE PUSH1 0x20 ADD SWAP1 DUP2 MSTORE PUSH1 0x20 ADD PUSH1 0x0 KECCAK256 SWAP1 POP DUP2 DUP2 PUSH1 0x1 ADD DUP2 SWAP1 SSTORE POP POP POP POP JUMP JUMPDEST PUSH1 0x0 PUSH1 0xE PUSH1 0x0 SWAP1 SLOAD SWAP1 PUSH2 0x100 EXP SWAP1 DIV PUSH20 0xFFFFFFFFFFFFFFFFFFFFFFFFFFFFFFFFFFFFFFFF AND SWAP1 POP SWAP1 JUMP JUMPDEST PUSH1 0x0 PUSH1 0xE PUSH1 0x0 SWAP1 SLOAD SWAP1 PUSH2 0x100 EXP SWAP1 DIV PUSH20 0xFFFFFFFFFFFFFFFFFFFFFFFFFFFFFFFFFFFFFFFF AND PUSH20 0xFFFFFFFFFFFFFFFFFFFFFFFFFFFFFFFFFFFFFFFF AND PUSH2 0x2B42 PUSH2 0x3B6C JUMP JUMPDEST PUSH20 0xFFFFFFFFFFFFFFFFFFFFFFFFFFFFFFFFFFFFFFFF AND EQ SWAP1 POP SWAP1 JUMP JUMPDEST PUSH1 0x0 DUP1 PUSH1 0xC PUSH1 0x0 DUP5 PUSH20 0xFFFFFFFFFFFFFFFFFFFFFFFFFFFFFFFFFFFFFFFF AND PUSH20 0xFFFFFFFFFFFFFFFFFFFFFFFFFFFFFFFFFFFFFFFF AND DUP2 MSTORE PUSH1 0x20 ADD SWAP1 DUP2 MSTORE PUSH1 0x20 ADD PUSH1 0x0 KECCAK256 SWAP1 POP PUSH2 0x2C7C PUSH8 0xDE0B6B3A7640000 PUSH2 0x2C6E DUP4 PUSH1 0x0 ADD SLOAD PUSH1 0xB PUSH1 0x0 SWAP1 SLOAD SWAP1 PUSH2 0x100 EXP SWAP1 DIV PUSH20 0xFFFFFFFFFFFFFFFFFFFFFFFFFFFFFFFFFFFFFFFF AND PUSH20 0xFFFFFFFFFFFFFFFFFFFFFFFFFFFFFFFFFFFFFFFF AND PUSH4 0x7FF9B596 PUSH1 0x40 MLOAD DUP2 PUSH4 0xFFFFFFFF AND PUSH1 0xE0 SHL DUP2 MSTORE PUSH1 0x4 ADD PUSH1 0x20 PUSH1 0x40 MLOAD DUP1 DUP4 SUB DUP2 DUP7 DUP1 EXTCODESIZE ISZERO DUP1 ISZERO PUSH2 0x2C1E JUMPI PUSH1 0x0 DUP1 REVERT JUMPDEST POP GAS STATICCALL ISZERO DUP1 ISZERO PUSH2 0x2C32 JUMPI RETURNDATASIZE PUSH1 0x0 DUP1 RETURNDATACOPY RETURNDATASIZE PUSH1 0x0 REVERT JUMPDEST POP POP POP POP PUSH1 0x40 MLOAD RETURNDATASIZE PUSH1 0x1F NOT PUSH1 0x1F DUP3 ADD AND DUP3 ADD DUP1 PUSH1 0x40 MSTORE POP PUSH2 0x2C56 SWAP2 SWAP1 DUP2 ADD SWAP1 PUSH2 0x5D97 JUMP JUMPDEST SUB PUSH2 0x2C60 DUP8 PUSH2 0x3D34 JUMP JUMPDEST PUSH2 0x3F7E SWAP1 SWAP2 SWAP1 PUSH4 0xFFFFFFFF AND JUMP JUMPDEST PUSH2 0x3FEE SWAP1 SWAP2 SWAP1 PUSH4 0xFFFFFFFF AND JUMP JUMPDEST SWAP2 POP POP SWAP2 SWAP1 POP JUMP JUMPDEST DUP1 PUSH1 0xC PUSH1 0x0 PUSH2 0x2C91 PUSH2 0x3B6C JUMP JUMPDEST PUSH20 0xFFFFFFFFFFFFFFFFFFFFFFFFFFFFFFFFFFFFFFFF AND PUSH20 0xFFFFFFFFFFFFFFFFFFFFFFFFFFFFFFFFFFFFFFFF AND DUP2 MSTORE PUSH1 0x20 ADD SWAP1 DUP2 MSTORE PUSH1 0x20 ADD PUSH1 0x0 KECCAK256 PUSH1 0x4 ADD PUSH1 0x0 PUSH2 0x100 EXP DUP2 SLOAD DUP2 PUSH1 0xFF MUL NOT AND SWAP1 DUP4 ISZERO ISZERO MUL OR SWAP1 SSTORE POP POP JUMP JUMPDEST DUP1 PUSH20 0xFFFFFFFFFFFFFFFFFFFFFFFFFFFFFFFFFFFFFFFF AND PUSH2 0x2D07 PUSH2 0x3B6C JUMP JUMPDEST PUSH20 0xFFFFFFFFFFFFFFFFFFFFFFFFFFFFFFFFFFFFFFFF AND EQ ISZERO PUSH2 0x2D5E JUMPI PUSH1 0x40 MLOAD PUSH32 0x8C379A000000000000000000000000000000000000000000000000000000000 DUP2 MSTORE PUSH1 0x4 ADD PUSH2 0x2D55 SWAP1 PUSH2 0x6C63 JUMP JUMPDEST PUSH1 0x40 MLOAD DUP1 SWAP2 SUB SWAP1 REVERT JUMPDEST PUSH1 0x6 PUSH1 0x0 DUP3 PUSH20 0xFFFFFFFFFFFFFFFFFFFFFFFFFFFFFFFFFFFFFFFF AND PUSH20 0xFFFFFFFFFFFFFFFFFFFFFFFFFFFFFFFFFFFFFFFF AND DUP2 MSTORE PUSH1 0x20 ADD SWAP1 DUP2 MSTORE PUSH1 0x20 ADD PUSH1 0x0 KECCAK256 PUSH1 0x0 SWAP1 SLOAD SWAP1 PUSH2 0x100 EXP SWAP1 DIV PUSH1 0xFF AND ISZERO PUSH2 0x2E48 JUMPI PUSH1 0x8 PUSH1 0x0 PUSH2 0x2DBC PUSH2 0x3B6C JUMP JUMPDEST PUSH20 0xFFFFFFFFFFFFFFFFFFFFFFFFFFFFFFFFFFFFFFFF AND PUSH20 0xFFFFFFFFFFFFFFFFFFFFFFFFFFFFFFFFFFFFFFFF AND DUP2 MSTORE PUSH1 0x20 ADD SWAP1 DUP2 MSTORE PUSH1 0x20 ADD PUSH1 0x0 KECCAK256 PUSH1 0x0 DUP3 PUSH20 0xFFFFFFFFFFFFFFFFFFFFFFFFFFFFFFFFFFFFFFFF AND PUSH20 0xFFFFFFFFFFFFFFFFFFFFFFFFFFFFFFFFFFFFFFFF AND DUP2 MSTORE PUSH1 0x20 ADD SWAP1 DUP2 MSTORE PUSH1 0x20 ADD PUSH1 0x0 KECCAK256 PUSH1 0x0 PUSH2 0x100 EXP DUP2 SLOAD SWAP1 PUSH1 0xFF MUL NOT AND SWAP1 SSTORE PUSH2 0x2EE5 JUMP JUMPDEST PUSH1 0x1 PUSH1 0x7 PUSH1 0x0 PUSH2 0x2E56 PUSH2 0x3B6C JUMP JUMPDEST PUSH20 0xFFFFFFFFFFFFFFFFFFFFFFFFFFFFFFFFFFFFFFFF AND PUSH20 0xFFFFFFFFFFFFFFFFFFFFFFFFFFFFFFFFFFFFFFFF AND DUP2 MSTORE PUSH1 0x20 ADD SWAP1 DUP2 MSTORE PUSH1 0x20 ADD PUSH1 0x0 KECCAK256 PUSH1 0x0 DUP4 PUSH20 0xFFFFFFFFFFFFFFFFFFFFFFFFFFFFFFFFFFFFFFFF AND PUSH20 0xFFFFFFFFFFFFFFFFFFFFFFFFFFFFFFFFFFFFFFFF AND DUP2 MSTORE PUSH1 0x20 ADD SWAP1 DUP2 MSTORE PUSH1 0x20 ADD PUSH1 0x0 KECCAK256 PUSH1 0x0 PUSH2 0x100 EXP DUP2 SLOAD DUP2 PUSH1 0xFF MUL NOT AND SWAP1 DUP4 ISZERO ISZERO MUL OR SWAP1 SSTORE POP JUMPDEST PUSH2 0x2EED PUSH2 0x3B6C JUMP JUMPDEST PUSH20 0xFFFFFFFFFFFFFFFFFFFFFFFFFFFFFFFFFFFFFFFF AND DUP2 PUSH20 0xFFFFFFFFFFFFFFFFFFFFFFFFFFFFFFFFFFFFFFFF AND PUSH32 0xF4CAEB2D6CA8932A215A353D0703C326EC2D81FC68170F320EB2AB49E9DF61F9 PUSH1 0x40 MLOAD PUSH1 0x40 MLOAD DUP1 SWAP2 SUB SWAP1 LOG3 POP JUMP JUMPDEST PUSH1 0x60 PUSH1 0x4 DUP1 SLOAD PUSH1 0x1 DUP2 PUSH1 0x1 AND ISZERO PUSH2 0x100 MUL SUB AND PUSH1 0x2 SWAP1 DIV DUP1 PUSH1 0x1F ADD PUSH1 0x20 DUP1 SWAP2 DIV MUL PUSH1 0x20 ADD PUSH1 0x40 MLOAD SWAP1 DUP2 ADD PUSH1 0x40 MSTORE DUP1 SWAP3 SWAP2 SWAP1 DUP2 DUP2 MSTORE PUSH1 0x20 ADD DUP3 DUP1 SLOAD PUSH1 0x1 DUP2 PUSH1 0x1 AND ISZERO PUSH2 0x100 MUL SUB AND PUSH1 0x2 SWAP1 DIV DUP1 ISZERO PUSH2 0x2FE1 JUMPI DUP1 PUSH1 0x1F LT PUSH2 0x2FB6 JUMPI PUSH2 0x100 DUP1 DUP4 SLOAD DIV MUL DUP4 MSTORE SWAP2 PUSH1 0x20 ADD SWAP2 PUSH2 0x2FE1 JUMP JUMPDEST DUP3 ADD SWAP2 SWAP1 PUSH1 0x0 MSTORE PUSH1 0x20 PUSH1 0x0 KECCAK256 SWAP1 JUMPDEST DUP2 SLOAD DUP2 MSTORE SWAP1 PUSH1 0x1 ADD SWAP1 PUSH1 0x20 ADD DUP1 DUP4 GT PUSH2 0x2FC4 JUMPI DUP3 SWAP1 SUB PUSH1 0x1F AND DUP3 ADD SWAP2 JUMPDEST POP POP POP POP POP SWAP1 POP SWAP1 JUMP JUMPDEST PUSH2 0x305C PUSH2 0x2FF6 PUSH2 0x3B6C JUMP JUMPDEST PUSH2 0x2FFE PUSH2 0x3B6C JUMP JUMPDEST DUP7 DUP7 DUP7 DUP7 DUP1 DUP1 PUSH1 0x1F ADD PUSH1 0x20 DUP1 SWAP2 DIV MUL PUSH1 0x20 ADD PUSH1 0x40 MLOAD SWAP1 DUP2 ADD PUSH1 0x40 MSTORE DUP1 SWAP4 SWAP3 SWAP2 SWAP1 DUP2 DUP2 MSTORE PUSH1 0x20 ADD DUP4 DUP4 DUP1 DUP3 DUP5 CALLDATACOPY PUSH1 0x0 DUP2 DUP5 ADD MSTORE PUSH1 0x1F NOT PUSH1 0x1F DUP3 ADD AND SWAP1 POP DUP1 DUP4 ADD SWAP3 POP POP POP POP POP POP POP PUSH1 0x40 MLOAD DUP1 PUSH1 0x20 ADD PUSH1 0x40 MSTORE DUP1 PUSH1 0x0 DUP2 MSTORE POP PUSH1 0x1 PUSH2 0x49C3 JUMP JUMPDEST POP POP POP POP JUMP JUMPDEST PUSH2 0x306A PUSH2 0x1026 JUMP JUMPDEST PUSH1 0x0 DUP1 SWAP1 POP JUMPDEST DUP4 MLOAD DUP2 LT ISZERO PUSH2 0x30CB JUMPI PUSH2 0x30BD DUP5 DUP3 DUP2 MLOAD DUP2 LT PUSH2 0x3088 JUMPI INVALID JUMPDEST PUSH1 0x20 MUL PUSH1 0x20 ADD ADD MLOAD DUP5 DUP4 DUP2 MLOAD DUP2 LT PUSH2 0x309C JUMPI INVALID JUMPDEST PUSH1 0x20 MUL PUSH1 0x20 ADD ADD MLOAD DUP5 DUP5 DUP2 MLOAD DUP2 LT PUSH2 0x30B0 JUMPI INVALID JUMPDEST PUSH1 0x20 MUL PUSH1 0x20 ADD ADD MLOAD PUSH2 0x1B22 JUMP JUMPDEST POP DUP1 DUP1 PUSH1 0x1 ADD SWAP2 POP POP PUSH2 0x3070 JUMP JUMPDEST POP POP POP POP JUMP JUMPDEST PUSH1 0x0 DUP1 PUSH20 0xFFFFFFFFFFFFFFFFFFFFFFFFFFFFFFFFFFFFFFFF AND DUP4 PUSH20 0xFFFFFFFFFFFFFFFFFFFFFFFFFFFFFFFFFFFFFFFF AND EQ ISZERO PUSH2 0x3142 JUMPI PUSH1 0x40 MLOAD PUSH32 0x8C379A000000000000000000000000000000000000000000000000000000000 DUP2 MSTORE PUSH1 0x4 ADD PUSH2 0x3139 SWAP1 PUSH2 0x6D23 JUMP JUMPDEST PUSH1 0x40 MLOAD DUP1 SWAP2 SUB SWAP1 REVERT JUMPDEST PUSH1 0x0 PUSH2 0x314C PUSH2 0x3B6C JUMP JUMPDEST SWAP1 POP PUSH2 0x317A DUP2 DUP3 DUP7 DUP7 PUSH1 0x40 MLOAD DUP1 PUSH1 0x20 ADD PUSH1 0x40 MSTORE DUP1 PUSH1 0x0 DUP2 MSTORE POP PUSH1 0x40 MLOAD DUP1 PUSH1 0x20 ADD PUSH1 0x40 MSTORE DUP1 PUSH1 0x0 DUP2 MSTORE POP PUSH2 0x4259 JUMP JUMPDEST PUSH2 0x31A6 DUP2 DUP3 DUP7 DUP7 PUSH1 0x40 MLOAD DUP1 PUSH1 0x20 ADD PUSH1 0x40 MSTORE DUP1 PUSH1 0x0 DUP2 MSTORE POP PUSH1 0x40 MLOAD DUP1 PUSH1 0x20 ADD PUSH1 0x40 MSTORE DUP1 PUSH1 0x0 DUP2 MSTORE POP PUSH2 0x43DF JUMP JUMPDEST PUSH2 0x31D4 DUP2 DUP3 DUP7 DUP7 PUSH1 0x40 MLOAD DUP1 PUSH1 0x20 ADD PUSH1 0x40 MSTORE DUP1 PUSH1 0x0 DUP2 MSTORE POP PUSH1 0x40 MLOAD DUP1 PUSH1 0x20 ADD PUSH1 0x40 MSTORE DUP1 PUSH1 0x0 DUP2 MSTORE POP PUSH1 0x0 PUSH2 0x44E4 JUMP JUMPDEST PUSH1 0x1 SWAP2 POP POP SWAP3 SWAP2 POP POP JUMP JUMPDEST PUSH1 0x60 PUSH1 0x40 MLOAD DUP1 PUSH1 0x40 ADD PUSH1 0x40 MSTORE DUP1 PUSH1 0x5 DUP2 MSTORE PUSH1 0x20 ADD PUSH32 0x312E302E30000000000000000000000000000000000000000000000000000000 DUP2 MSTORE POP SWAP1 POP SWAP1 JUMP JUMPDEST PUSH2 0x322D PUSH2 0x3227 PUSH2 0x3B6C JUMP JUMPDEST DUP6 PUSH2 0x17F5 JUMP JUMPDEST PUSH2 0x3238 DUP4 DUP4 DUP4 PUSH2 0x3062 JUMP JUMPDEST POP POP POP POP JUMP JUMPDEST PUSH1 0x60 PUSH1 0x0 DUP1 PUSH1 0xC PUSH1 0x0 DUP6 PUSH20 0xFFFFFFFFFFFFFFFFFFFFFFFFFFFFFFFFFFFFFFFF AND PUSH20 0xFFFFFFFFFFFFFFFFFFFFFFFFFFFFFFFFFFFFFFFF AND DUP2 MSTORE PUSH1 0x20 ADD SWAP1 DUP2 MSTORE PUSH1 0x20 ADD PUSH1 0x0 KECCAK256 SWAP1 POP DUP1 PUSH1 0x2 ADD DUP1 SLOAD DUP1 PUSH1 0x20 MUL PUSH1 0x20 ADD PUSH1 0x40 MLOAD SWAP1 DUP2 ADD PUSH1 0x40 MSTORE DUP1 SWAP3 SWAP2 SWAP1 DUP2 DUP2 MSTORE PUSH1 0x20 ADD PUSH1 0x0 SWAP1 JUMPDEST DUP3 DUP3 LT ISZERO PUSH2 0x33DC JUMPI DUP4 DUP3 SWAP1 PUSH1 0x0 MSTORE PUSH1 0x20 PUSH1 0x0 KECCAK256 SWAP1 PUSH1 0x3 MUL ADD PUSH1 0x40 MLOAD DUP1 PUSH1 0x60 ADD PUSH1 0x40 MSTORE SWAP1 DUP2 PUSH1 0x0 DUP3 ADD PUSH1 0x0 SWAP1 SLOAD SWAP1 PUSH2 0x100 EXP SWAP1 DIV PUSH20 0xFFFFFFFFFFFFFFFFFFFFFFFFFFFFFFFFFFFFFFFF AND PUSH20 0xFFFFFFFFFFFFFFFFFFFFFFFFFFFFFFFFFFFFFFFF AND PUSH20 0xFFFFFFFFFFFFFFFFFFFFFFFFFFFFFFFFFFFFFFFF AND DUP2 MSTORE PUSH1 0x20 ADD PUSH1 0x1 DUP3 ADD SLOAD DUP2 MSTORE PUSH1 0x20 ADD PUSH1 0x2 DUP3 ADD DUP1 SLOAD PUSH1 0x1 DUP2 PUSH1 0x1 AND ISZERO PUSH2 0x100 MUL SUB AND PUSH1 0x2 SWAP1 DIV DUP1 PUSH1 0x1F ADD PUSH1 0x20 DUP1 SWAP2 DIV MUL PUSH1 0x20 ADD PUSH1 0x40 MLOAD SWAP1 DUP2 ADD PUSH1 0x40 MSTORE DUP1 SWAP3 SWAP2 SWAP1 DUP2 DUP2 MSTORE PUSH1 0x20 ADD DUP3 DUP1 SLOAD PUSH1 0x1 DUP2 PUSH1 0x1 AND ISZERO PUSH2 0x100 MUL SUB AND PUSH1 0x2 SWAP1 DIV DUP1 ISZERO PUSH2 0x33C4 JUMPI DUP1 PUSH1 0x1F LT PUSH2 0x3399 JUMPI PUSH2 0x100 DUP1 DUP4 SLOAD DIV MUL DUP4 MSTORE SWAP2 PUSH1 0x20 ADD SWAP2 PUSH2 0x33C4 JUMP JUMPDEST DUP3 ADD SWAP2 SWAP1 PUSH1 0x0 MSTORE PUSH1 0x20 PUSH1 0x0 KECCAK256 SWAP1 JUMPDEST DUP2 SLOAD DUP2 MSTORE SWAP1 PUSH1 0x1 ADD SWAP1 PUSH1 0x20 ADD DUP1 DUP4 GT PUSH2 0x33A7 JUMPI DUP3 SWAP1 SUB PUSH1 0x1F AND DUP3 ADD SWAP2 JUMPDEST POP POP POP POP POP DUP2 MSTORE POP POP DUP2 MSTORE PUSH1 0x20 ADD SWAP1 PUSH1 0x1 ADD SWAP1 PUSH2 0x32A8 JUMP JUMPDEST POP POP POP POP SWAP3 POP DUP1 PUSH1 0x3 ADD SLOAD SWAP2 POP POP SWAP2 POP SWAP2 JUMP JUMPDEST PUSH1 0x0 PUSH2 0x33FA DUP3 PUSH2 0x3D34 JUMP JUMPDEST SWAP1 POP SWAP2 SWAP1 POP JUMP JUMPDEST PUSH1 0xB PUSH1 0x0 SWAP1 SLOAD SWAP1 PUSH2 0x100 EXP SWAP1 DIV PUSH20 0xFFFFFFFFFFFFFFFFFFFFFFFFFFFFFFFFFFFFFFFF AND DUP2 JUMP JUMPDEST PUSH1 0x0 DUP2 PUSH20 0xFFFFFFFFFFFFFFFFFFFFFFFFFFFFFFFFFFFFFFFF AND DUP4 PUSH20 0xFFFFFFFFFFFFFFFFFFFFFFFFFFFFFFFFFFFFFFFF AND EQ DUP1 PUSH2 0x353F JUMPI POP PUSH1 0x6 PUSH1 0x0 DUP5 PUSH20 0xFFFFFFFFFFFFFFFFFFFFFFFFFFFFFFFFFFFFFFFF AND PUSH20 0xFFFFFFFFFFFFFFFFFFFFFFFFFFFFFFFFFFFFFFFF AND DUP2 MSTORE PUSH1 0x20 ADD SWAP1 DUP2 MSTORE PUSH1 0x20 ADD PUSH1 0x0 KECCAK256 PUSH1 0x0 SWAP1 SLOAD SWAP1 PUSH2 0x100 EXP SWAP1 DIV PUSH1 0xFF AND DUP1 ISZERO PUSH2 0x353E JUMPI POP PUSH1 0x8 PUSH1 0x0 DUP4 PUSH20 0xFFFFFFFFFFFFFFFFFFFFFFFFFFFFFFFFFFFFFFFF AND PUSH20 0xFFFFFFFFFFFFFFFFFFFFFFFFFFFFFFFFFFFFFFFF AND DUP2 MSTORE PUSH1 0x20 ADD SWAP1 DUP2 MSTORE PUSH1 0x20 ADD PUSH1 0x0 KECCAK256 PUSH1 0x0 DUP5 PUSH20 0xFFFFFFFFFFFFFFFFFFFFFFFFFFFFFFFFFFFFFFFF AND PUSH20 0xFFFFFFFFFFFFFFFFFFFFFFFFFFFFFFFFFFFFFFFF AND DUP2 MSTORE PUSH1 0x20 ADD SWAP1 DUP2 MSTORE PUSH1 0x20 ADD PUSH1 0x0 KECCAK256 PUSH1 0x0 SWAP1 SLOAD SWAP1 PUSH2 0x100 EXP SWAP1 DIV PUSH1 0xFF AND ISZERO JUMPDEST JUMPDEST DUP1 PUSH2 0x35D0 JUMPI POP PUSH1 0x7 PUSH1 0x0 DUP4 PUSH20 0xFFFFFFFFFFFFFFFFFFFFFFFFFFFFFFFFFFFFFFFF AND PUSH20 0xFFFFFFFFFFFFFFFFFFFFFFFFFFFFFFFFFFFFFFFF AND DUP2 MSTORE PUSH1 0x20 ADD SWAP1 DUP2 MSTORE PUSH1 0x20 ADD PUSH1 0x0 KECCAK256 PUSH1 0x0 DUP5 PUSH20 0xFFFFFFFFFFFFFFFFFFFFFFFFFFFFFFFFFFFFFFFF AND PUSH20 0xFFFFFFFFFFFFFFFFFFFFFFFFFFFFFFFFFFFFFFFF AND DUP2 MSTORE PUSH1 0x20 ADD SWAP1 DUP2 MSTORE PUSH1 0x20 ADD PUSH1 0x0 KECCAK256 PUSH1 0x0 SWAP1 SLOAD SWAP1 PUSH2 0x100 EXP SWAP1 DIV PUSH1 0xFF AND JUMPDEST SWAP1 POP SWAP3 SWAP2 POP POP JUMP JUMPDEST PUSH1 0x0 PUSH1 0x9 PUSH1 0x0 DUP5 PUSH20 0xFFFFFFFFFFFFFFFFFFFFFFFFFFFFFFFFFFFFFFFF AND PUSH20 0xFFFFFFFFFFFFFFFFFFFFFFFFFFFFFFFFFFFFFFFF AND DUP2 MSTORE PUSH1 0x20 ADD SWAP1 DUP2 MSTORE PUSH1 0x20 ADD PUSH1 0x0 KECCAK256 PUSH1 0x0 DUP4 PUSH20 0xFFFFFFFFFFFFFFFFFFFFFFFFFFFFFFFFFFFFFFFF AND PUSH20 0xFFFFFFFFFFFFFFFFFFFFFFFFFFFFFFFFFFFFFFFF AND DUP2 MSTORE PUSH1 0x20 ADD SWAP1 DUP2 MSTORE PUSH1 0x20 ADD PUSH1 0x0 KECCAK256 SLOAD SWAP1 POP SWAP3 SWAP2 POP POP JUMP JUMPDEST PUSH2 0x3667 PUSH2 0xDF8 JUMP JUMPDEST PUSH20 0xFFFFFFFFFFFFFFFFFFFFFFFFFFFFFFFFFFFFFFFF AND CALLER PUSH20 0xFFFFFFFFFFFFFFFFFFFFFFFFFFFFFFFFFFFFFFFF AND EQ PUSH2 0x36D4 JUMPI PUSH1 0x40 MLOAD PUSH32 0x8C379A000000000000000000000000000000000000000000000000000000000 DUP2 MSTORE PUSH1 0x4 ADD PUSH2 0x36CB SWAP1 PUSH2 0x6B63 JUMP JUMPDEST PUSH1 0x40 MLOAD DUP1 SWAP2 SUB SWAP1 REVERT JUMPDEST PUSH2 0x3724 DUP6 DUP6 DUP1 DUP1 PUSH1 0x1F ADD PUSH1 0x20 DUP1 SWAP2 DIV MUL PUSH1 0x20 ADD PUSH1 0x40 MLOAD SWAP1 DUP2 ADD PUSH1 0x40 MSTORE DUP1 SWAP4 SWAP3 SWAP2 SWAP1 DUP2 DUP2 MSTORE PUSH1 0x20 ADD DUP4 DUP4 DUP1 DUP3 DUP5 CALLDATACOPY PUSH1 0x0 DUP2 DUP5 ADD MSTORE PUSH1 0x1F NOT PUSH1 0x1F DUP3 ADD AND SWAP1 POP DUP1 DUP4 ADD SWAP3 POP POP POP POP POP POP POP DUP5 DUP5 DUP5 PUSH2 0x4B85 JUMP JUMPDEST POP POP POP POP POP JUMP JUMPDEST PUSH2 0x3733 PUSH2 0x2AFF JUMP JUMPDEST PUSH2 0x3772 JUMPI PUSH1 0x40 MLOAD PUSH32 0x8C379A000000000000000000000000000000000000000000000000000000000 DUP2 MSTORE PUSH1 0x4 ADD PUSH2 0x3769 SWAP1 PUSH2 0x6CE3 JUMP JUMPDEST PUSH1 0x40 MLOAD DUP1 SWAP2 SUB SWAP1 REVERT JUMPDEST PUSH2 0x377B DUP2 PUSH2 0x4C36 JUMP JUMPDEST POP JUMP JUMPDEST PUSH2 0x3786 PUSH2 0x3B6C JUMP JUMPDEST PUSH20 0xFFFFFFFFFFFFFFFFFFFFFFFFFFFFFFFFFFFFFFFF AND DUP2 PUSH20 0xFFFFFFFFFFFFFFFFFFFFFFFFFFFFFFFFFFFFFFFF AND EQ ISZERO PUSH2 0x37F4 JUMPI PUSH1 0x40 MLOAD PUSH32 0x8C379A000000000000000000000000000000000000000000000000000000000 DUP2 MSTORE PUSH1 0x4 ADD PUSH2 0x37EB SWAP1 PUSH2 0x6C83 JUMP JUMPDEST PUSH1 0x40 MLOAD DUP1 SWAP2 SUB SWAP1 REVERT JUMPDEST PUSH1 0x6 PUSH1 0x0 DUP3 PUSH20 0xFFFFFFFFFFFFFFFFFFFFFFFFFFFFFFFFFFFFFFFF AND PUSH20 0xFFFFFFFFFFFFFFFFFFFFFFFFFFFFFFFFFFFFFFFF AND DUP2 MSTORE PUSH1 0x20 ADD SWAP1 DUP2 MSTORE PUSH1 0x20 ADD PUSH1 0x0 KECCAK256 PUSH1 0x0 SWAP1 SLOAD SWAP1 PUSH2 0x100 EXP SWAP1 DIV PUSH1 0xFF AND ISZERO PUSH2 0x38E7 JUMPI PUSH1 0x1 PUSH1 0x8 PUSH1 0x0 PUSH2 0x3854 PUSH2 0x3B6C JUMP JUMPDEST PUSH20 0xFFFFFFFFFFFFFFFFFFFFFFFFFFFFFFFFFFFFFFFF AND PUSH20 0xFFFFFFFFFFFFFFFFFFFFFFFFFFFFFFFFFFFFFFFF AND DUP2 MSTORE PUSH1 0x20 ADD SWAP1 DUP2 MSTORE PUSH1 0x20 ADD PUSH1 0x0 KECCAK256 PUSH1 0x0 DUP4 PUSH20 0xFFFFFFFFFFFFFFFFFFFFFFFFFFFFFFFFFFFFFFFF AND PUSH20 0xFFFFFFFFFFFFFFFFFFFFFFFFFFFFFFFFFFFFFFFF AND DUP2 MSTORE PUSH1 0x20 ADD SWAP1 DUP2 MSTORE PUSH1 0x20 ADD PUSH1 0x0 KECCAK256 PUSH1 0x0 PUSH2 0x100 EXP DUP2 SLOAD DUP2 PUSH1 0xFF MUL NOT AND SWAP1 DUP4 ISZERO ISZERO MUL OR SWAP1 SSTORE POP PUSH2 0x397B JUMP JUMPDEST PUSH1 0x7 PUSH1 0x0 PUSH2 0x38F3 PUSH2 0x3B6C JUMP JUMPDEST PUSH20 0xFFFFFFFFFFFFFFFFFFFFFFFFFFFFFFFFFFFFFFFF AND PUSH20 0xFFFFFFFFFFFFFFFFFFFFFFFFFFFFFFFFFFFFFFFF AND DUP2 MSTORE PUSH1 0x20 ADD SWAP1 DUP2 MSTORE PUSH1 0x20 ADD PUSH1 0x0 KECCAK256 PUSH1 0x0 DUP3 PUSH20 0xFFFFFFFFFFFFFFFFFFFFFFFFFFFFFFFFFFFFFFFF AND PUSH20 0xFFFFFFFFFFFFFFFFFFFFFFFFFFFFFFFFFFFFFFFF AND DUP2 MSTORE PUSH1 0x20 ADD SWAP1 DUP2 MSTORE PUSH1 0x20 ADD PUSH1 0x0 KECCAK256 PUSH1 0x0 PUSH2 0x100 EXP DUP2 SLOAD SWAP1 PUSH1 0xFF MUL NOT AND SWAP1 SSTORE JUMPDEST PUSH2 0x3983 PUSH2 0x3B6C JUMP JUMPDEST PUSH20 0xFFFFFFFFFFFFFFFFFFFFFFFFFFFFFFFFFFFFFFFF AND DUP2 PUSH20 0xFFFFFFFFFFFFFFFFFFFFFFFFFFFFFFFFFFFFFFFF AND PUSH32 0x50546E66E5F44D728365DC3908C63BC5CFEEAB470722C1677E3073A6AC294AA1 PUSH1 0x40 MLOAD PUSH1 0x40 MLOAD DUP1 SWAP2 SUB SWAP1 LOG3 POP JUMP JUMPDEST PUSH1 0xA PUSH1 0x0 SWAP1 SLOAD SWAP1 PUSH2 0x100 EXP SWAP1 DIV PUSH20 0xFFFFFFFFFFFFFFFFFFFFFFFFFFFFFFFFFFFFFFFF AND DUP2 JUMP JUMPDEST PUSH2 0x3A16 PUSH2 0x3A10 PUSH2 0x3B6C JUMP JUMPDEST DUP8 PUSH2 0x3427 JUMP JUMPDEST PUSH2 0x3A55 JUMPI PUSH1 0x40 MLOAD PUSH32 0x8C379A000000000000000000000000000000000000000000000000000000000 DUP2 MSTORE PUSH1 0x4 ADD PUSH2 0x3A4C SWAP1 PUSH2 0x6D63 JUMP JUMPDEST PUSH1 0x40 MLOAD DUP1 SWAP2 SUB SWAP1 REVERT JUMPDEST PUSH2 0x3AF1 PUSH2 0x3A60 PUSH2 0x3B6C JUMP JUMPDEST DUP8 DUP8 DUP8 DUP8 DUP1 DUP1 PUSH1 0x1F ADD PUSH1 0x20 DUP1 SWAP2 DIV MUL PUSH1 0x20 ADD PUSH1 0x40 MLOAD SWAP1 DUP2 ADD PUSH1 0x40 MSTORE DUP1 SWAP4 SWAP3 SWAP2 SWAP1 DUP2 DUP2 MSTORE PUSH1 0x20 ADD DUP4 DUP4 DUP1 DUP3 DUP5 CALLDATACOPY PUSH1 0x0 DUP2 DUP5 ADD MSTORE PUSH1 0x1F NOT PUSH1 0x1F DUP3 ADD AND SWAP1 POP DUP1 DUP4 ADD SWAP3 POP POP POP POP POP POP POP DUP7 DUP7 DUP1 DUP1 PUSH1 0x1F ADD PUSH1 0x20 DUP1 SWAP2 DIV MUL PUSH1 0x20 ADD PUSH1 0x40 MLOAD SWAP1 DUP2 ADD PUSH1 0x40 MSTORE DUP1 SWAP4 SWAP3 SWAP2 SWAP1 DUP2 DUP2 MSTORE PUSH1 0x20 ADD DUP4 DUP4 DUP1 DUP3 DUP5 CALLDATACOPY PUSH1 0x0 DUP2 DUP5 ADD MSTORE PUSH1 0x1F NOT PUSH1 0x1F DUP3 ADD AND SWAP1 POP DUP1 DUP4 ADD SWAP3 POP POP POP POP POP POP POP PUSH2 0x3D5F JUMP JUMPDEST POP POP POP POP POP POP JUMP JUMPDEST PUSH2 0x3B67 PUSH2 0x3B04 PUSH2 0x3B6C JUMP JUMPDEST PUSH2 0x3B0C PUSH2 0x3B6C JUMP JUMPDEST DUP6 DUP6 DUP6 DUP1 DUP1 PUSH1 0x1F ADD PUSH1 0x20 DUP1 SWAP2 DIV MUL PUSH1 0x20 ADD PUSH1 0x40 MLOAD SWAP1 DUP2 ADD PUSH1 0x40 MSTORE DUP1 SWAP4 SWAP3 SWAP2 SWAP1 DUP2 DUP2 MSTORE PUSH1 0x20 ADD DUP4 DUP4 DUP1 DUP3 DUP5 CALLDATACOPY PUSH1 0x0 DUP2 DUP5 ADD MSTORE PUSH1 0x1F NOT PUSH1 0x1F DUP3 ADD AND SWAP1 POP DUP1 DUP4 ADD SWAP3 POP POP POP POP POP POP POP PUSH1 0x40 MLOAD DUP1 PUSH1 0x20 ADD PUSH1 0x40 MSTORE DUP1 PUSH1 0x0 DUP2 MSTORE POP PUSH2 0x3D5F JUMP JUMPDEST POP POP POP JUMP JUMPDEST PUSH1 0x0 PUSH1 0xF PUSH1 0x0 SWAP1 SLOAD SWAP1 PUSH2 0x100 EXP SWAP1 DIV PUSH20 0xFFFFFFFFFFFFFFFFFFFFFFFFFFFFFFFFFFFFFFFF AND PUSH20 0xFFFFFFFFFFFFFFFFFFFFFFFFFFFFFFFFFFFFFFFF AND CALLER PUSH20 0xFFFFFFFFFFFFFFFFFFFFFFFFFFFFFFFFFFFFFFFF AND EQ PUSH2 0x3BCB JUMPI CALLER SWAP1 POP PUSH2 0x3BD6 JUMP JUMPDEST PUSH2 0x3BD3 PUSH2 0x4D66 JUMP JUMPDEST SWAP1 POP JUMPDEST SWAP1 JUMP JUMPDEST PUSH1 0x0 PUSH20 0xFFFFFFFFFFFFFFFFFFFFFFFFFFFFFFFFFFFFFFFF AND DUP3 PUSH20 0xFFFFFFFFFFFFFFFFFFFFFFFFFFFFFFFFFFFFFFFF AND EQ ISZERO PUSH2 0x3C49 JUMPI PUSH1 0x40 MLOAD PUSH32 0x8C379A000000000000000000000000000000000000000000000000000000000 DUP2 MSTORE PUSH1 0x4 ADD PUSH2 0x3C40 SWAP1 PUSH2 0x6DC3 JUMP JUMPDEST PUSH1 0x40 MLOAD DUP1 SWAP2 SUB SWAP1 REVERT JUMPDEST DUP1 PUSH1 0x9 PUSH1 0x0 DUP6 PUSH20 0xFFFFFFFFFFFFFFFFFFFFFFFFFFFFFFFFFFFFFFFF AND PUSH20 0xFFFFFFFFFFFFFFFFFFFFFFFFFFFFFFFFFFFFFFFF AND DUP2 MSTORE PUSH1 0x20 ADD SWAP1 DUP2 MSTORE PUSH1 0x20 ADD PUSH1 0x0 KECCAK256 PUSH1 0x0 DUP5 PUSH20 0xFFFFFFFFFFFFFFFFFFFFFFFFFFFFFFFFFFFFFFFF AND PUSH20 0xFFFFFFFFFFFFFFFFFFFFFFFFFFFFFFFFFFFFFFFF AND DUP2 MSTORE PUSH1 0x20 ADD SWAP1 DUP2 MSTORE PUSH1 0x20 ADD PUSH1 0x0 KECCAK256 DUP2 SWAP1 SSTORE POP DUP2 PUSH20 0xFFFFFFFFFFFFFFFFFFFFFFFFFFFFFFFFFFFFFFFF AND DUP4 PUSH20 0xFFFFFFFFFFFFFFFFFFFFFFFFFFFFFFFFFFFFFFFF AND PUSH32 0x8C5BE1E5EBEC7D5BD14F71427D1E84F3DD0314C0F7B2291E5B200AC8C7C3B925 DUP4 PUSH1 0x40 MLOAD PUSH2 0x3D27 SWAP2 SWAP1 PUSH2 0x6DE3 JUMP JUMPDEST PUSH1 0x40 MLOAD DUP1 SWAP2 SUB SWAP1 LOG3 POP POP POP JUMP JUMPDEST PUSH1 0x0 PUSH2 0x3D3F DUP3 PUSH2 0x4DDE JUMP JUMPDEST SWAP1 POP SWAP2 SWAP1 POP JUMP JUMPDEST PUSH1 0x0 DUP2 DUP4 LT PUSH2 0x3D55 JUMPI DUP2 PUSH2 0x3D57 JUMP JUMPDEST DUP3 JUMPDEST SWAP1 POP SWAP3 SWAP2 POP POP JUMP JUMPDEST PUSH1 0x0 PUSH20 0xFFFFFFFFFFFFFFFFFFFFFFFFFFFFFFFFFFFFFFFF AND DUP5 PUSH20 0xFFFFFFFFFFFFFFFFFFFFFFFFFFFFFFFFFFFFFFFF AND EQ ISZERO PUSH2 0x3DCF JUMPI PUSH1 0x40 MLOAD PUSH32 0x8C379A000000000000000000000000000000000000000000000000000000000 DUP2 MSTORE PUSH1 0x4 ADD PUSH2 0x3DC6 SWAP1 PUSH2 0x6C23 JUMP JUMPDEST PUSH1 0x40 MLOAD DUP1 SWAP2 SUB SWAP1 REVERT JUMPDEST PUSH2 0x3DDE DUP6 DUP6 PUSH1 0x0 DUP7 DUP7 DUP7 PUSH2 0x4259 JUMP JUMPDEST PUSH2 0x3E4A DUP4 PUSH1 0x40 MLOAD DUP1 PUSH1 0x60 ADD PUSH1 0x40 MSTORE DUP1 PUSH1 0x23 DUP2 MSTORE PUSH1 0x20 ADD PUSH2 0x73B7 PUSH1 0x23 SWAP2 CODECOPY PUSH1 0x1 PUSH1 0x0 DUP9 PUSH20 0xFFFFFFFFFFFFFFFFFFFFFFFFFFFFFFFFFFFFFFFF AND PUSH20 0xFFFFFFFFFFFFFFFFFFFFFFFFFFFFFFFFFFFFFFFF AND DUP2 MSTORE PUSH1 0x20 ADD SWAP1 DUP2 MSTORE PUSH1 0x20 ADD PUSH1 0x0 KECCAK256 SLOAD PUSH2 0x4489 SWAP1 SWAP3 SWAP2 SWAP1 PUSH4 0xFFFFFFFF AND JUMP JUMPDEST PUSH1 0x1 PUSH1 0x0 DUP7 PUSH20 0xFFFFFFFFFFFFFFFFFFFFFFFFFFFFFFFFFFFFFFFF AND PUSH20 0xFFFFFFFFFFFFFFFFFFFFFFFFFFFFFFFFFFFFFFFF AND DUP2 MSTORE PUSH1 0x20 ADD SWAP1 DUP2 MSTORE PUSH1 0x20 ADD PUSH1 0x0 KECCAK256 DUP2 SWAP1 SSTORE POP PUSH2 0x3EA2 DUP4 PUSH1 0x2 SLOAD PUSH2 0x4B3B SWAP1 SWAP2 SWAP1 PUSH4 0xFFFFFFFF AND JUMP JUMPDEST PUSH1 0x2 DUP2 SWAP1 SSTORE POP DUP4 PUSH20 0xFFFFFFFFFFFFFFFFFFFFFFFFFFFFFFFFFFFFFFFF AND DUP6 PUSH20 0xFFFFFFFFFFFFFFFFFFFFFFFFFFFFFFFFFFFFFFFF AND PUSH32 0xA78A9BE3A7B862D26933AD85FB11D80EF66B8F972D7CBBA06621D583943A4098 DUP6 DUP6 DUP6 PUSH1 0x40 MLOAD PUSH2 0x3F09 SWAP4 SWAP3 SWAP2 SWAP1 PUSH2 0x6E57 JUMP JUMPDEST PUSH1 0x40 MLOAD DUP1 SWAP2 SUB SWAP1 LOG3 PUSH1 0x0 PUSH20 0xFFFFFFFFFFFFFFFFFFFFFFFFFFFFFFFFFFFFFFFF AND DUP5 PUSH20 0xFFFFFFFFFFFFFFFFFFFFFFFFFFFFFFFFFFFFFFFF AND PUSH32 0xDDF252AD1BE2C89B69C2B068FC378DAA952BA7F163C4A11628F55A4DF523B3EF DUP6 PUSH1 0x40 MLOAD PUSH2 0x3F6F SWAP2 SWAP1 PUSH2 0x6DE3 JUMP JUMPDEST PUSH1 0x40 MLOAD DUP1 SWAP2 SUB SWAP1 LOG3 POP POP POP POP POP JUMP JUMPDEST PUSH1 0x0 DUP1 DUP4 EQ ISZERO PUSH2 0x3F91 JUMPI PUSH1 0x0 SWAP1 POP PUSH2 0x3FE8 JUMP JUMPDEST PUSH1 0x0 DUP3 DUP5 MUL SWAP1 POP DUP3 DUP5 DUP3 DUP2 PUSH2 0x3FA2 JUMPI INVALID JUMPDEST DIV EQ PUSH2 0x3FE3 JUMPI PUSH1 0x40 MLOAD PUSH32 0x8C379A000000000000000000000000000000000000000000000000000000000 DUP2 MSTORE PUSH1 0x4 ADD PUSH2 0x3FDA SWAP1 PUSH2 0x6CC3 JUMP JUMPDEST PUSH1 0x40 MLOAD DUP1 SWAP2 SUB SWAP1 REVERT JUMPDEST DUP1 SWAP2 POP POP JUMPDEST SWAP3 SWAP2 POP POP JUMP JUMPDEST PUSH1 0x0 PUSH2 0x4030 DUP4 DUP4 PUSH1 0x40 MLOAD DUP1 PUSH1 0x40 ADD PUSH1 0x40 MSTORE DUP1 PUSH1 0x1A DUP2 MSTORE PUSH1 0x20 ADD PUSH32 0x536166654D6174683A206469766973696F6E206279207A65726F000000000000 DUP2 MSTORE POP PUSH2 0x4E27 JUMP JUMPDEST SWAP1 POP SWAP3 SWAP2 POP POP JUMP JUMPDEST PUSH1 0x0 DUP1 PUSH1 0xC PUSH1 0x0 DUP6 PUSH20 0xFFFFFFFFFFFFFFFFFFFFFFFFFFFFFFFFFFFFFFFF AND PUSH20 0xFFFFFFFFFFFFFFFFFFFFFFFFFFFFFFFFFFFFFFFF AND DUP2 MSTORE PUSH1 0x20 ADD SWAP1 DUP2 MSTORE PUSH1 0x20 ADD PUSH1 0x0 KECCAK256 SWAP1 POP PUSH2 0x4093 DUP4 DUP3 PUSH1 0x1 ADD SLOAD PUSH2 0x4B3B SWAP1 SWAP2 SWAP1 PUSH4 0xFFFFFFFF AND JUMP JUMPDEST DUP2 PUSH1 0x1 ADD DUP2 SWAP1 SSTORE POP PUSH1 0x0 DUP2 PUSH1 0x2 ADD DUP1 SLOAD SWAP1 POP EQ ISZERO PUSH2 0x40B5 JUMPI PUSH1 0x1 SWAP2 POP POP PUSH2 0x4253 JUMP JUMPDEST PUSH1 0x0 DUP1 SWAP1 POP JUMPDEST DUP2 PUSH1 0x2 ADD DUP1 SLOAD SWAP1 POP DUP2 LT ISZERO PUSH2 0x424C JUMPI PUSH2 0x40D2 PUSH2 0x525A JUMP JUMPDEST DUP3 PUSH1 0x2 ADD DUP3 DUP2 SLOAD DUP2 LT PUSH2 0x40E1 JUMPI INVALID JUMPDEST SWAP1 PUSH1 0x0 MSTORE PUSH1 0x20 PUSH1 0x0 KECCAK256 SWAP1 PUSH1 0x3 MUL ADD PUSH1 0x40 MLOAD DUP1 PUSH1 0x60 ADD PUSH1 0x40 MSTORE SWAP1 DUP2 PUSH1 0x0 DUP3 ADD PUSH1 0x0 SWAP1 SLOAD SWAP1 PUSH2 0x100 EXP SWAP1 DIV PUSH20 0xFFFFFFFFFFFFFFFFFFFFFFFFFFFFFFFFFFFFFFFF AND PUSH20 0xFFFFFFFFFFFFFFFFFFFFFFFFFFFFFFFFFFFFFFFF AND PUSH20 0xFFFFFFFFFFFFFFFFFFFFFFFFFFFFFFFFFFFFFFFF AND DUP2 MSTORE PUSH1 0x20 ADD PUSH1 0x1 DUP3 ADD SLOAD DUP2 MSTORE PUSH1 0x20 ADD PUSH1 0x2 DUP3 ADD DUP1 SLOAD PUSH1 0x1 DUP2 PUSH1 0x1 AND ISZERO PUSH2 0x100 MUL SUB AND PUSH1 0x2 SWAP1 DIV DUP1 PUSH1 0x1F ADD PUSH1 0x20 DUP1 SWAP2 DIV MUL PUSH1 0x20 ADD PUSH1 0x40 MLOAD SWAP1 DUP2 ADD PUSH1 0x40 MSTORE DUP1 SWAP3 SWAP2 SWAP1 DUP2 DUP2 MSTORE PUSH1 0x20 ADD DUP3 DUP1 SLOAD PUSH1 0x1 DUP2 PUSH1 0x1 AND ISZERO PUSH2 0x100 MUL SUB AND PUSH1 0x2 SWAP1 DIV DUP1 ISZERO PUSH2 0x41F3 JUMPI DUP1 PUSH1 0x1F LT PUSH2 0x41C8 JUMPI PUSH2 0x100 DUP1 DUP4 SLOAD DIV MUL DUP4 MSTORE SWAP2 PUSH1 0x20 ADD SWAP2 PUSH2 0x41F3 JUMP JUMPDEST DUP3 ADD SWAP2 SWAP1 PUSH1 0x0 MSTORE PUSH1 0x20 PUSH1 0x0 KECCAK256 SWAP1 JUMPDEST DUP2 SLOAD DUP2 MSTORE SWAP1 PUSH1 0x1 ADD SWAP1 PUSH1 0x20 ADD DUP1 DUP4 GT PUSH2 0x41D6 JUMPI DUP3 SWAP1 SUB PUSH1 0x1F AND DUP3 ADD SWAP2 JUMPDEST POP POP POP POP POP DUP2 MSTORE POP POP SWAP1 POP PUSH1 0x0 DUP4 PUSH1 0x3 ADD SLOAD DUP3 PUSH1 0x20 ADD MLOAD DUP8 MUL DUP2 PUSH2 0x4213 JUMPI INVALID JUMPDEST DIV SWAP1 POP PUSH2 0x423D ADDRESS DUP9 DUP5 PUSH1 0x0 ADD MLOAD DUP5 DUP7 PUSH1 0x40 ADD MLOAD PUSH1 0x40 MLOAD DUP1 PUSH1 0x20 ADD PUSH1 0x40 MSTORE DUP1 PUSH1 0x0 DUP2 MSTORE POP PUSH1 0x0 PUSH2 0x49C3 JUMP JUMPDEST POP POP DUP1 DUP1 PUSH1 0x1 ADD SWAP2 POP POP PUSH2 0x40BB JUMP JUMPDEST POP PUSH1 0x1 SWAP2 POP POP JUMPDEST SWAP3 SWAP2 POP POP JUMP JUMPDEST PUSH1 0x0 DUP1 PUSH1 0x0 SWAP1 SLOAD SWAP1 PUSH2 0x100 EXP SWAP1 DIV PUSH20 0xFFFFFFFFFFFFFFFFFFFFFFFFFFFFFFFFFFFFFFFF AND PUSH20 0xFFFFFFFFFFFFFFFFFFFFFFFFFFFFFFFFFFFFFFFF AND PUSH4 0xAABBB8CA DUP8 PUSH32 0x29DDB589B1FB5FC7CF394961C1ADF5F8C6454761ADF795E67FE149F658ABE895 PUSH1 0x0 SHL PUSH1 0x40 MLOAD DUP4 PUSH4 0xFFFFFFFF AND PUSH1 0xE0 SHL DUP2 MSTORE PUSH1 0x4 ADD PUSH2 0x42DA SWAP3 SWAP2 SWAP1 PUSH2 0x6A16 JUMP JUMPDEST PUSH1 0x20 PUSH1 0x40 MLOAD DUP1 DUP4 SUB DUP2 DUP7 DUP1 EXTCODESIZE ISZERO DUP1 ISZERO PUSH2 0x42F2 JUMPI PUSH1 0x0 DUP1 REVERT JUMPDEST POP GAS STATICCALL ISZERO DUP1 ISZERO PUSH2 0x4306 JUMPI RETURNDATASIZE PUSH1 0x0 DUP1 RETURNDATACOPY RETURNDATASIZE PUSH1 0x0 REVERT JUMPDEST POP POP POP POP PUSH1 0x40 MLOAD RETURNDATASIZE PUSH1 0x1F NOT PUSH1 0x1F DUP3 ADD AND DUP3 ADD DUP1 PUSH1 0x40 MSTORE POP PUSH2 0x432A SWAP2 SWAP1 DUP2 ADD SWAP1 PUSH2 0x56AE JUMP JUMPDEST SWAP1 POP PUSH1 0x0 PUSH20 0xFFFFFFFFFFFFFFFFFFFFFFFFFFFFFFFFFFFFFFFF AND DUP2 PUSH20 0xFFFFFFFFFFFFFFFFFFFFFFFFFFFFFFFFFFFFFFFF AND EQ PUSH2 0x43D6 JUMPI DUP1 PUSH20 0xFFFFFFFFFFFFFFFFFFFFFFFFFFFFFFFFFFFFFFFF AND PUSH4 0x75AB9782 DUP9 DUP9 DUP9 DUP9 DUP9 DUP9 PUSH1 0x40 MLOAD DUP8 PUSH4 0xFFFFFFFF AND PUSH1 0xE0 SHL DUP2 MSTORE PUSH1 0x4 ADD PUSH2 0x43A3 SWAP7 SWAP6 SWAP5 SWAP4 SWAP3 SWAP2 SWAP1 PUSH2 0x6970 JUMP JUMPDEST PUSH1 0x0 PUSH1 0x40 MLOAD DUP1 DUP4 SUB DUP2 PUSH1 0x0 DUP8 DUP1 EXTCODESIZE ISZERO DUP1 ISZERO PUSH2 0x43BD JUMPI PUSH1 0x0 DUP1 REVERT JUMPDEST POP GAS CALL ISZERO DUP1 ISZERO PUSH2 0x43D1 JUMPI RETURNDATASIZE PUSH1 0x0 DUP1 RETURNDATACOPY RETURNDATASIZE PUSH1 0x0 REVERT JUMPDEST POP POP POP POP JUMPDEST POP POP POP POP POP POP POP JUMP JUMPDEST PUSH2 0x43E8 DUP6 PUSH2 0x25CF JUMP JUMPDEST PUSH2 0x43F1 DUP5 PUSH2 0x25CF JUMP JUMPDEST PUSH1 0x0 PUSH1 0xC PUSH1 0x0 DUP7 PUSH20 0xFFFFFFFFFFFFFFFFFFFFFFFFFFFFFFFFFFFFFFFF AND PUSH20 0xFFFFFFFFFFFFFFFFFFFFFFFFFFFFFFFFFFFFFFFF AND DUP2 MSTORE PUSH1 0x20 ADD SWAP1 DUP2 MSTORE PUSH1 0x20 ADD PUSH1 0x0 KECCAK256 SWAP1 POP PUSH1 0x1 ISZERO ISZERO DUP2 PUSH1 0x4 ADD PUSH1 0x0 SWAP1 SLOAD SWAP1 PUSH2 0x100 EXP SWAP1 DIV PUSH1 0xFF AND ISZERO ISZERO EQ ISZERO PUSH2 0x4472 JUMPI PUSH2 0x4469 DUP5 DUP3 PUSH1 0x1 ADD SLOAD PUSH2 0x496E SWAP1 SWAP2 SWAP1 PUSH4 0xFFFFFFFF AND JUMP JUMPDEST DUP2 PUSH1 0x1 ADD DUP2 SWAP1 SSTORE POP JUMPDEST PUSH2 0x4480 DUP8 DUP8 DUP8 DUP8 DUP8 DUP8 PUSH2 0x4E88 JUMP JUMPDEST POP POP POP POP POP POP POP JUMP JUMPDEST PUSH1 0x0 DUP4 DUP4 GT ISZERO DUP3 SWAP1 PUSH2 0x44D1 JUMPI PUSH1 0x40 MLOAD PUSH32 0x8C379A000000000000000000000000000000000000000000000000000000000 DUP2 MSTORE PUSH1 0x4 ADD PUSH2 0x44C8 SWAP2 SWAP1 PUSH2 0x6B41 JUMP JUMPDEST PUSH1 0x40 MLOAD DUP1 SWAP2 SUB SWAP1 REVERT JUMPDEST POP PUSH1 0x0 DUP4 DUP6 SUB SWAP1 POP DUP1 SWAP2 POP POP SWAP4 SWAP3 POP POP POP JUMP JUMPDEST PUSH1 0x0 DUP1 PUSH1 0x0 SWAP1 SLOAD SWAP1 PUSH2 0x100 EXP SWAP1 DIV PUSH20 0xFFFFFFFFFFFFFFFFFFFFFFFFFFFFFFFFFFFFFFFF AND PUSH20 0xFFFFFFFFFFFFFFFFFFFFFFFFFFFFFFFFFFFFFFFF AND PUSH4 0xAABBB8CA DUP8 PUSH32 0xB281FC8C12954D22544DB45DE3159A39272895B169A852B314F9CC762E44C53B PUSH1 0x0 SHL PUSH1 0x40 MLOAD DUP4 PUSH4 0xFFFFFFFF AND PUSH1 0xE0 SHL DUP2 MSTORE PUSH1 0x4 ADD PUSH2 0x4565 SWAP3 SWAP2 SWAP1 PUSH2 0x6A16 JUMP JUMPDEST PUSH1 0x20 PUSH1 0x40 MLOAD DUP1 DUP4 SUB DUP2 DUP7 DUP1 EXTCODESIZE ISZERO DUP1 ISZERO PUSH2 0x457D JUMPI PUSH1 0x0 DUP1 REVERT JUMPDEST POP GAS STATICCALL ISZERO DUP1 ISZERO PUSH2 0x4591 JUMPI RETURNDATASIZE PUSH1 0x0 DUP1 RETURNDATACOPY RETURNDATASIZE PUSH1 0x0 REVERT JUMPDEST POP POP POP POP PUSH1 0x40 MLOAD RETURNDATASIZE PUSH1 0x1F NOT PUSH1 0x1F DUP3 ADD AND DUP3 ADD DUP1 PUSH1 0x40 MSTORE POP PUSH2 0x45B5 SWAP2 SWAP1 DUP2 ADD SWAP1 PUSH2 0x56AE JUMP JUMPDEST SWAP1 POP PUSH1 0x0 PUSH20 0xFFFFFFFFFFFFFFFFFFFFFFFFFFFFFFFFFFFFFFFF AND DUP2 PUSH20 0xFFFFFFFFFFFFFFFFFFFFFFFFFFFFFFFFFFFFFFFF AND EQ PUSH2 0x4664 JUMPI DUP1 PUSH20 0xFFFFFFFFFFFFFFFFFFFFFFFFFFFFFFFFFFFFFFFF AND PUSH3 0x23DE29 DUP10 DUP10 DUP10 DUP10 DUP10 DUP10 PUSH1 0x40 MLOAD DUP8 PUSH4 0xFFFFFFFF AND PUSH1 0xE0 SHL DUP2 MSTORE PUSH1 0x4 ADD PUSH2 0x462D SWAP7 SWAP6 SWAP5 SWAP4 SWAP3 SWAP2 SWAP1 PUSH2 0x6970 JUMP JUMPDEST PUSH1 0x0 PUSH1 0x40 MLOAD DUP1 DUP4 SUB DUP2 PUSH1 0x0 DUP8 DUP1 EXTCODESIZE ISZERO DUP1 ISZERO PUSH2 0x4647 JUMPI PUSH1 0x0 DUP1 REVERT JUMPDEST POP GAS CALL ISZERO DUP1 ISZERO PUSH2 0x465B JUMPI RETURNDATASIZE PUSH1 0x0 DUP1 RETURNDATACOPY RETURNDATASIZE PUSH1 0x0 REVERT JUMPDEST POP POP POP POP PUSH2 0x46CB JUMP JUMPDEST DUP2 ISZERO PUSH2 0x46CA JUMPI PUSH2 0x4689 DUP7 PUSH20 0xFFFFFFFFFFFFFFFFFFFFFFFFFFFFFFFFFFFFFFFF AND PUSH2 0x50B9 JUMP JUMPDEST ISZERO PUSH2 0x46C9 JUMPI PUSH1 0x40 MLOAD PUSH32 0x8C379A000000000000000000000000000000000000000000000000000000000 DUP2 MSTORE PUSH1 0x4 ADD PUSH2 0x46C0 SWAP1 PUSH2 0x6D03 JUMP JUMPDEST PUSH1 0x40 MLOAD DUP1 SWAP2 SUB SWAP1 REVERT JUMPDEST JUMPDEST JUMPDEST POP POP POP POP POP POP POP POP JUMP JUMPDEST PUSH1 0xF PUSH1 0x0 SWAP1 SLOAD SWAP1 PUSH2 0x100 EXP SWAP1 DIV PUSH20 0xFFFFFFFFFFFFFFFFFFFFFFFFFFFFFFFFFFFFFFFF AND PUSH20 0xFFFFFFFFFFFFFFFFFFFFFFFFFFFFFFFFFFFFFFFF AND PUSH3 0xF714CE DUP4 DUP4 PUSH1 0x40 MLOAD DUP4 PUSH4 0xFFFFFFFF AND PUSH1 0xE0 SHL DUP2 MSTORE PUSH1 0x4 ADD PUSH2 0x4731 SWAP3 SWAP2 SWAP1 PUSH2 0x6DFE JUMP JUMPDEST PUSH1 0x0 PUSH1 0x40 MLOAD DUP1 DUP4 SUB DUP2 PUSH1 0x0 DUP8 DUP1 EXTCODESIZE ISZERO DUP1 ISZERO PUSH2 0x474B JUMPI PUSH1 0x0 DUP1 REVERT JUMPDEST POP GAS CALL ISZERO DUP1 ISZERO PUSH2 0x475F JUMPI RETURNDATASIZE PUSH1 0x0 DUP1 RETURNDATACOPY RETURNDATASIZE PUSH1 0x0 REVERT JUMPDEST POP POP POP POP POP POP JUMP JUMPDEST PUSH1 0x0 PUSH20 0xFFFFFFFFFFFFFFFFFFFFFFFFFFFFFFFFFFFFFFFF AND DUP5 PUSH20 0xFFFFFFFFFFFFFFFFFFFFFFFFFFFFFFFFFFFFFFFF AND EQ ISZERO PUSH2 0x47D7 JUMPI PUSH1 0x40 MLOAD PUSH32 0x8C379A000000000000000000000000000000000000000000000000000000000 DUP2 MSTORE PUSH1 0x4 ADD PUSH2 0x47CE SWAP1 PUSH2 0x6CA3 JUMP JUMPDEST PUSH1 0x40 MLOAD DUP1 SWAP2 SUB SWAP1 REVERT JUMPDEST PUSH2 0x47EC DUP4 PUSH1 0x2 SLOAD PUSH2 0x496E SWAP1 SWAP2 SWAP1 PUSH4 0xFFFFFFFF AND JUMP JUMPDEST PUSH1 0x2 DUP2 SWAP1 SSTORE POP PUSH2 0x4844 DUP4 PUSH1 0x1 PUSH1 0x0 DUP8 PUSH20 0xFFFFFFFFFFFFFFFFFFFFFFFFFFFFFFFFFFFFFFFF AND PUSH20 0xFFFFFFFFFFFFFFFFFFFFFFFFFFFFFFFFFFFFFFFF AND DUP2 MSTORE PUSH1 0x20 ADD SWAP1 DUP2 MSTORE PUSH1 0x20 ADD PUSH1 0x0 KECCAK256 SLOAD PUSH2 0x496E SWAP1 SWAP2 SWAP1 PUSH4 0xFFFFFFFF AND JUMP JUMPDEST PUSH1 0x1 PUSH1 0x0 DUP7 PUSH20 0xFFFFFFFFFFFFFFFFFFFFFFFFFFFFFFFFFFFFFFFF AND PUSH20 0xFFFFFFFFFFFFFFFFFFFFFFFFFFFFFFFFFFFFFFFF AND DUP2 MSTORE PUSH1 0x20 ADD SWAP1 DUP2 MSTORE PUSH1 0x20 ADD PUSH1 0x0 KECCAK256 DUP2 SWAP1 SSTORE POP PUSH2 0x4898 DUP6 PUSH1 0x0 DUP7 DUP7 DUP7 DUP7 PUSH1 0x1 PUSH2 0x44E4 JUMP JUMPDEST DUP4 PUSH20 0xFFFFFFFFFFFFFFFFFFFFFFFFFFFFFFFFFFFFFFFF AND DUP6 PUSH20 0xFFFFFFFFFFFFFFFFFFFFFFFFFFFFFFFFFFFFFFFF AND PUSH32 0x2FE5BE0146F74C5BCE36C0B80911AF6C7D86FF27E89D5CFA61FC681327954E5D DUP6 DUP6 DUP6 PUSH1 0x40 MLOAD PUSH2 0x48F9 SWAP4 SWAP3 SWAP2 SWAP1 PUSH2 0x6E57 JUMP JUMPDEST PUSH1 0x40 MLOAD DUP1 SWAP2 SUB SWAP1 LOG3 DUP4 PUSH20 0xFFFFFFFFFFFFFFFFFFFFFFFFFFFFFFFFFFFFFFFF AND PUSH1 0x0 PUSH20 0xFFFFFFFFFFFFFFFFFFFFFFFFFFFFFFFFFFFFFFFF AND PUSH32 0xDDF252AD1BE2C89B69C2B068FC378DAA952BA7F163C4A11628F55A4DF523B3EF DUP6 PUSH1 0x40 MLOAD PUSH2 0x495F SWAP2 SWAP1 PUSH2 0x6DE3 JUMP JUMPDEST PUSH1 0x40 MLOAD DUP1 SWAP2 SUB SWAP1 LOG3 POP POP POP POP POP JUMP JUMPDEST PUSH1 0x0 DUP1 DUP3 DUP5 ADD SWAP1 POP DUP4 DUP2 LT ISZERO PUSH2 0x49B9 JUMPI PUSH1 0x40 MLOAD PUSH32 0x8C379A000000000000000000000000000000000000000000000000000000000 DUP2 MSTORE PUSH1 0x4 ADD PUSH2 0x49B0 SWAP1 PUSH2 0x6C03 JUMP JUMPDEST PUSH1 0x40 MLOAD DUP1 SWAP2 SUB SWAP1 REVERT JUMPDEST DUP1 SWAP2 POP POP SWAP3 SWAP2 POP POP JUMP JUMPDEST PUSH1 0x0 PUSH20 0xFFFFFFFFFFFFFFFFFFFFFFFFFFFFFFFFFFFFFFFF AND DUP7 PUSH20 0xFFFFFFFFFFFFFFFFFFFFFFFFFFFFFFFFFFFFFFFF AND EQ ISZERO PUSH2 0x4A33 JUMPI PUSH1 0x40 MLOAD PUSH32 0x8C379A000000000000000000000000000000000000000000000000000000000 DUP2 MSTORE PUSH1 0x4 ADD PUSH2 0x4A2A SWAP1 PUSH2 0x6B83 JUMP JUMPDEST PUSH1 0x40 MLOAD DUP1 SWAP2 SUB SWAP1 REVERT JUMPDEST PUSH1 0x0 PUSH20 0xFFFFFFFFFFFFFFFFFFFFFFFFFFFFFFFFFFFFFFFF AND DUP6 PUSH20 0xFFFFFFFFFFFFFFFFFFFFFFFFFFFFFFFFFFFFFFFF AND EQ ISZERO PUSH2 0x4AA3 JUMPI PUSH1 0x40 MLOAD PUSH32 0x8C379A000000000000000000000000000000000000000000000000000000000 DUP2 MSTORE PUSH1 0x4 ADD PUSH2 0x4A9A SWAP1 PUSH2 0x6DA3 JUMP JUMPDEST PUSH1 0x40 MLOAD DUP1 SWAP2 SUB SWAP1 REVERT JUMPDEST PUSH2 0x4AB1 DUP8 DUP8 DUP8 DUP8 DUP8 DUP8 PUSH2 0x4259 JUMP JUMPDEST PUSH2 0x4ABF DUP8 DUP8 DUP8 DUP8 DUP8 DUP8 PUSH2 0x43DF JUMP JUMPDEST PUSH2 0x4ACE DUP8 DUP8 DUP8 DUP8 DUP8 DUP8 DUP8 PUSH2 0x44E4 JUMP JUMPDEST POP POP POP POP POP POP POP JUMP JUMPDEST PUSH1 0x0 DUP1 PUSH1 0x0 DUP4 DUP1 PUSH1 0x20 ADD SWAP1 MLOAD PUSH2 0x4AF0 SWAP2 SWAP1 DUP2 ADD SWAP1 PUSH2 0x56D7 JUMP JUMPDEST SWAP2 POP SWAP2 POP PUSH1 0x0 PUSH2 0x4AFF DUP3 PUSH2 0x21B3 JUMP JUMPDEST SWAP1 POP PUSH2 0x4B2D ADDRESS DUP5 ADDRESS DUP5 PUSH1 0x40 MLOAD DUP1 PUSH1 0x20 ADD PUSH1 0x40 MSTORE DUP1 PUSH1 0x0 DUP2 MSTORE POP PUSH1 0x40 MLOAD DUP1 PUSH1 0x20 ADD PUSH1 0x40 MSTORE DUP1 PUSH1 0x0 DUP2 MSTORE POP PUSH2 0x43DF JUMP JUMPDEST PUSH1 0x0 DUP1 SHL SWAP4 POP POP POP POP SWAP2 SWAP1 POP JUMP JUMPDEST PUSH1 0x0 PUSH2 0x4B7D DUP4 DUP4 PUSH1 0x40 MLOAD DUP1 PUSH1 0x40 ADD PUSH1 0x40 MSTORE DUP1 PUSH1 0x1E DUP2 MSTORE PUSH1 0x20 ADD PUSH32 0x536166654D6174683A207375627472616374696F6E206F766572666C6F770000 DUP2 MSTORE POP PUSH2 0x4489 JUMP JUMPDEST SWAP1 POP SWAP3 SWAP2 POP POP JUMP JUMPDEST PUSH1 0x0 DUP1 PUSH1 0x0 DUP1 DUP8 DUP1 PUSH1 0x20 ADD SWAP1 MLOAD PUSH2 0x4B9F SWAP2 SWAP1 DUP2 ADD SWAP1 PUSH2 0x5713 JUMP JUMPDEST SWAP4 POP SWAP4 POP SWAP4 POP SWAP4 POP PUSH1 0x0 PUSH2 0x4BCB PUSH2 0x4BC4 PUSH2 0x2710 PUSH3 0x186A0 PUSH2 0x4B3B SWAP1 SWAP2 SWAP1 PUSH4 0xFFFFFFFF AND JUMP JUMPDEST DUP4 DUP6 PUSH2 0x5104 JUMP JUMPDEST SWAP1 POP PUSH1 0x0 PUSH2 0x4BE2 DUP3 DUP10 PUSH2 0x4B3B SWAP1 SWAP2 SWAP1 PUSH4 0xFFFFFFFF AND JUMP JUMPDEST SWAP1 POP PUSH2 0x4C2A ADDRESS ADDRESS DUP9 PUSH2 0x4C05 PUSH2 0x4C00 DUP7 DUP12 PUSH2 0x4B3B SWAP1 SWAP2 SWAP1 PUSH4 0xFFFFFFFF AND JUMP JUMPDEST PUSH2 0x21B3 JUMP JUMPDEST PUSH1 0x40 MLOAD DUP1 PUSH1 0x20 ADD PUSH1 0x40 MSTORE DUP1 PUSH1 0x0 DUP2 MSTORE POP PUSH1 0x40 MLOAD DUP1 PUSH1 0x20 ADD PUSH1 0x40 MSTORE DUP1 PUSH1 0x0 DUP2 MSTORE POP PUSH2 0x43DF JUMP JUMPDEST POP POP POP POP POP POP POP POP POP POP JUMP JUMPDEST PUSH1 0x0 PUSH20 0xFFFFFFFFFFFFFFFFFFFFFFFFFFFFFFFFFFFFFFFF AND DUP2 PUSH20 0xFFFFFFFFFFFFFFFFFFFFFFFFFFFFFFFFFFFFFFFF AND EQ ISZERO PUSH2 0x4CA6 JUMPI PUSH1 0x40 MLOAD PUSH32 0x8C379A000000000000000000000000000000000000000000000000000000000 DUP2 MSTORE PUSH1 0x4 ADD PUSH2 0x4C9D SWAP1 PUSH2 0x6BE3 JUMP JUMPDEST PUSH1 0x40 MLOAD DUP1 SWAP2 SUB SWAP1 REVERT JUMPDEST DUP1 PUSH20 0xFFFFFFFFFFFFFFFFFFFFFFFFFFFFFFFFFFFFFFFF AND PUSH1 0xE PUSH1 0x0 SWAP1 SLOAD SWAP1 PUSH2 0x100 EXP SWAP1 DIV PUSH20 0xFFFFFFFFFFFFFFFFFFFFFFFFFFFFFFFFFFFFFFFF AND PUSH20 0xFFFFFFFFFFFFFFFFFFFFFFFFFFFFFFFFFFFFFFFF AND PUSH32 0x8BE0079C531659141344CD1FD0A4F28419497F9722A3DAAFE3B4186F6B6457E0 PUSH1 0x40 MLOAD PUSH1 0x40 MLOAD DUP1 SWAP2 SUB SWAP1 LOG3 DUP1 PUSH1 0xE PUSH1 0x0 PUSH2 0x100 EXP DUP2 SLOAD DUP2 PUSH20 0xFFFFFFFFFFFFFFFFFFFFFFFFFFFFFFFFFFFFFFFF MUL NOT AND SWAP1 DUP4 PUSH20 0xFFFFFFFFFFFFFFFFFFFFFFFFFFFFFFFFFFFFFFFF AND MUL OR SWAP1 SSTORE POP POP JUMP JUMPDEST PUSH1 0x0 PUSH1 0x60 PUSH1 0x0 CALLDATASIZE DUP1 DUP1 PUSH1 0x1F ADD PUSH1 0x20 DUP1 SWAP2 DIV MUL PUSH1 0x20 ADD PUSH1 0x40 MLOAD SWAP1 DUP2 ADD PUSH1 0x40 MSTORE DUP1 SWAP4 SWAP3 SWAP2 SWAP1 DUP2 DUP2 MSTORE PUSH1 0x20 ADD DUP4 DUP4 DUP1 DUP3 DUP5 CALLDATACOPY PUSH1 0x0 DUP2 DUP5 ADD MSTORE PUSH1 0x1F NOT PUSH1 0x1F DUP3 ADD AND SWAP1 POP DUP1 DUP4 ADD SWAP3 POP POP POP POP POP POP POP SWAP1 POP PUSH1 0x0 DUP1 CALLDATASIZE SWAP1 POP SWAP1 POP PUSH20 0xFFFFFFFFFFFFFFFFFFFFFFFFFFFFFFFFFFFFFFFF DUP2 DUP4 ADD MLOAD AND SWAP3 POP DUP3 SWAP3 POP POP POP SWAP1 JUMP JUMPDEST PUSH1 0x0 PUSH1 0x1 PUSH1 0x0 DUP4 PUSH20 0xFFFFFFFFFFFFFFFFFFFFFFFFFFFFFFFFFFFFFFFF AND PUSH20 0xFFFFFFFFFFFFFFFFFFFFFFFFFFFFFFFFFFFFFFFF AND DUP2 MSTORE PUSH1 0x20 ADD SWAP1 DUP2 MSTORE PUSH1 0x20 ADD PUSH1 0x0 KECCAK256 SLOAD SWAP1 POP SWAP2 SWAP1 POP JUMP JUMPDEST PUSH1 0x0 DUP1 DUP4 GT DUP3 SWAP1 PUSH2 0x4E6E JUMPI PUSH1 0x40 MLOAD PUSH32 0x8C379A000000000000000000000000000000000000000000000000000000000 DUP2 MSTORE PUSH1 0x4 ADD PUSH2 0x4E65 SWAP2 SWAP1 PUSH2 0x6B41 JUMP JUMPDEST PUSH1 0x40 MLOAD DUP1 SWAP2 SUB SWAP1 REVERT JUMPDEST POP PUSH1 0x0 DUP4 DUP6 DUP2 PUSH2 0x4E7A JUMPI INVALID JUMPDEST DIV SWAP1 POP DUP1 SWAP2 POP POP SWAP4 SWAP3 POP POP POP JUMP JUMPDEST PUSH2 0x4EF4 DUP4 PUSH1 0x40 MLOAD DUP1 PUSH1 0x60 ADD PUSH1 0x40 MSTORE DUP1 PUSH1 0x27 DUP2 MSTORE PUSH1 0x20 ADD PUSH2 0x7338 PUSH1 0x27 SWAP2 CODECOPY PUSH1 0x1 PUSH1 0x0 DUP10 PUSH20 0xFFFFFFFFFFFFFFFFFFFFFFFFFFFFFFFFFFFFFFFF AND PUSH20 0xFFFFFFFFFFFFFFFFFFFFFFFFFFFFFFFFFFFFFFFF AND DUP2 MSTORE PUSH1 0x20 ADD SWAP1 DUP2 MSTORE PUSH1 0x20 ADD PUSH1 0x0 KECCAK256 SLOAD PUSH2 0x4489 SWAP1 SWAP3 SWAP2 SWAP1 PUSH4 0xFFFFFFFF AND JUMP JUMPDEST PUSH1 0x1 PUSH1 0x0 DUP8 PUSH20 0xFFFFFFFFFFFFFFFFFFFFFFFFFFFFFFFFFFFFFFFF AND PUSH20 0xFFFFFFFFFFFFFFFFFFFFFFFFFFFFFFFFFFFFFFFF AND DUP2 MSTORE PUSH1 0x20 ADD SWAP1 DUP2 MSTORE PUSH1 0x20 ADD PUSH1 0x0 KECCAK256 DUP2 SWAP1 SSTORE POP PUSH2 0x4F89 DUP4 PUSH1 0x1 PUSH1 0x0 DUP8 PUSH20 0xFFFFFFFFFFFFFFFFFFFFFFFFFFFFFFFFFFFFFFFF AND PUSH20 0xFFFFFFFFFFFFFFFFFFFFFFFFFFFFFFFFFFFFFFFF AND DUP2 MSTORE PUSH1 0x20 ADD SWAP1 DUP2 MSTORE PUSH1 0x20 ADD PUSH1 0x0 KECCAK256 SLOAD PUSH2 0x496E SWAP1 SWAP2 SWAP1 PUSH4 0xFFFFFFFF AND JUMP JUMPDEST PUSH1 0x1 PUSH1 0x0 DUP7 PUSH20 0xFFFFFFFFFFFFFFFFFFFFFFFFFFFFFFFFFFFFFFFF AND PUSH20 0xFFFFFFFFFFFFFFFFFFFFFFFFFFFFFFFFFFFFFFFF AND DUP2 MSTORE PUSH1 0x20 ADD SWAP1 DUP2 MSTORE PUSH1 0x20 ADD PUSH1 0x0 KECCAK256 DUP2 SWAP1 SSTORE POP DUP4 PUSH20 0xFFFFFFFFFFFFFFFFFFFFFFFFFFFFFFFFFFFFFFFF AND DUP6 PUSH20 0xFFFFFFFFFFFFFFFFFFFFFFFFFFFFFFFFFFFFFFFF AND DUP8 PUSH20 0xFFFFFFFFFFFFFFFFFFFFFFFFFFFFFFFFFFFFFFFF AND PUSH32 0x6B541DDAA720DB2B10A4D0CDAC39B8D360425FC073085FAC19BC82614677987 DUP7 DUP7 DUP7 PUSH1 0x40 MLOAD PUSH2 0x5044 SWAP4 SWAP3 SWAP2 SWAP1 PUSH2 0x6E57 JUMP JUMPDEST PUSH1 0x40 MLOAD DUP1 SWAP2 SUB SWAP1 LOG4 DUP4 PUSH20 0xFFFFFFFFFFFFFFFFFFFFFFFFFFFFFFFFFFFFFFFF AND DUP6 PUSH20 0xFFFFFFFFFFFFFFFFFFFFFFFFFFFFFFFFFFFFFFFF AND PUSH32 0xDDF252AD1BE2C89B69C2B068FC378DAA952BA7F163C4A11628F55A4DF523B3EF DUP6 PUSH1 0x40 MLOAD PUSH2 0x50A9 SWAP2 SWAP1 PUSH2 0x6DE3 JUMP JUMPDEST PUSH1 0x40 MLOAD DUP1 SWAP2 SUB SWAP1 LOG3 POP POP POP POP POP POP JUMP JUMPDEST PUSH1 0x0 DUP1 PUSH1 0x0 PUSH32 0xC5D2460186F7233C927E7DB2DCC703C0E500B653CA82273B7BFAD8045D85A470 PUSH1 0x0 SHL SWAP1 POP DUP4 EXTCODEHASH SWAP2 POP PUSH1 0x0 DUP1 SHL DUP3 EQ ISZERO DUP1 ISZERO PUSH2 0x50FB JUMPI POP DUP1 DUP3 EQ ISZERO JUMPDEST SWAP3 POP POP POP SWAP2 SWAP1 POP JUMP JUMPDEST PUSH1 0x0 PUSH1 0x64 DUP3 PUSH1 0x64 ADD DUP5 DUP7 MUL MUL DUP2 PUSH2 0x5117 JUMPI INVALID JUMPDEST DIV SWAP1 POP SWAP4 SWAP3 POP POP POP JUMP JUMPDEST DUP2 SLOAD DUP2 DUP4 SSTORE DUP2 DUP2 GT ISZERO PUSH2 0x514E JUMPI PUSH1 0x3 MUL DUP2 PUSH1 0x3 MUL DUP4 PUSH1 0x0 MSTORE PUSH1 0x20 PUSH1 0x0 KECCAK256 SWAP2 DUP3 ADD SWAP2 ADD PUSH2 0x514D SWAP2 SWAP1 PUSH2 0x5291 JUMP JUMPDEST JUMPDEST POP POP POP JUMP JUMPDEST DUP3 DUP1 SLOAD PUSH1 0x1 DUP2 PUSH1 0x1 AND ISZERO PUSH2 0x100 MUL SUB AND PUSH1 0x2 SWAP1 DIV SWAP1 PUSH1 0x0 MSTORE PUSH1 0x20 PUSH1 0x0 KECCAK256 SWAP1 PUSH1 0x1F ADD PUSH1 0x20 SWAP1 DIV DUP2 ADD SWAP3 DUP3 PUSH1 0x1F LT PUSH2 0x5194 JUMPI DUP1 MLOAD PUSH1 0xFF NOT AND DUP4 DUP1 ADD OR DUP6 SSTORE PUSH2 0x51C2 JUMP JUMPDEST DUP3 DUP1 ADD PUSH1 0x1 ADD DUP6 SSTORE DUP3 ISZERO PUSH2 0x51C2 JUMPI SWAP2 DUP3 ADD JUMPDEST DUP3 DUP2 GT ISZERO PUSH2 0x51C1 JUMPI DUP3 MLOAD DUP3 SSTORE SWAP2 PUSH1 0x20 ADD SWAP2 SWAP1 PUSH1 0x1 ADD SWAP1 PUSH2 0x51A6 JUMP JUMPDEST JUMPDEST POP SWAP1 POP PUSH2 0x51CF SWAP2 SWAP1 PUSH2 0x52EF JUMP JUMPDEST POP SWAP1 JUMP JUMPDEST DUP3 DUP1 SLOAD PUSH1 0x1 DUP2 PUSH1 0x1 AND ISZERO PUSH2 0x100 MUL SUB AND PUSH1 0x2 SWAP1 DIV SWAP1 PUSH1 0x0 MSTORE PUSH1 0x20 PUSH1 0x0 KECCAK256 SWAP1 PUSH1 0x1F ADD PUSH1 0x20 SWAP1 DIV DUP2 ADD SWAP3 DUP3 PUSH1 0x1F LT PUSH2 0x520C JUMPI DUP1 SLOAD DUP6 SSTORE PUSH2 0x5249 JUMP JUMPDEST DUP3 DUP1 ADD PUSH1 0x1 ADD DUP6 SSTORE DUP3 ISZERO PUSH2 0x5249 JUMPI PUSH1 0x0 MSTORE PUSH1 0x20 PUSH1 0x0 KECCAK256 SWAP2 PUSH1 0x1F ADD PUSH1 0x20 SWAP1 DIV DUP3 ADD JUMPDEST DUP3 DUP2 GT ISZERO PUSH2 0x5248 JUMPI DUP3 SLOAD DUP3 SSTORE SWAP2 PUSH1 0x1 ADD SWAP2 SWAP1 PUSH1 0x1 ADD SWAP1 PUSH2 0x522D JUMP JUMPDEST JUMPDEST POP SWAP1 POP PUSH2 0x5256 SWAP2 SWAP1 PUSH2 0x52EF JUMP JUMPDEST POP SWAP1 JUMP JUMPDEST PUSH1 0x40 MLOAD DUP1 PUSH1 0x60 ADD PUSH1 0x40 MSTORE DUP1 PUSH1 0x0 PUSH20 0xFFFFFFFFFFFFFFFFFFFFFFFFFFFFFFFFFFFFFFFF AND DUP2 MSTORE PUSH1 0x20 ADD PUSH1 0x0 DUP2 MSTORE PUSH1 0x20 ADD PUSH1 0x60 DUP2 MSTORE POP SWAP1 JUMP JUMPDEST PUSH2 0x52EC SWAP2 SWAP1 JUMPDEST DUP1 DUP3 GT ISZERO PUSH2 0x52E8 JUMPI PUSH1 0x0 DUP1 DUP3 ADD PUSH1 0x0 PUSH2 0x100 EXP DUP2 SLOAD SWAP1 PUSH20 0xFFFFFFFFFFFFFFFFFFFFFFFFFFFFFFFFFFFFFFFF MUL NOT AND SWAP1 SSTORE PUSH1 0x1 DUP3 ADD PUSH1 0x0 SWAP1 SSTORE PUSH1 0x2 DUP3 ADD PUSH1 0x0 PUSH2 0x52DF SWAP2 SWAP1 PUSH2 0x5314 JUMP JUMPDEST POP PUSH1 0x3 ADD PUSH2 0x5297 JUMP JUMPDEST POP SWAP1 JUMP JUMPDEST SWAP1 JUMP JUMPDEST PUSH2 0x5311 SWAP2 SWAP1 JUMPDEST DUP1 DUP3 GT ISZERO PUSH2 0x530D JUMPI PUSH1 0x0 DUP2 PUSH1 0x0 SWAP1 SSTORE POP PUSH1 0x1 ADD PUSH2 0x52F5 JUMP JUMPDEST POP SWAP1 JUMP JUMPDEST SWAP1 JUMP JUMPDEST POP DUP1 SLOAD PUSH1 0x1 DUP2 PUSH1 0x1 AND ISZERO PUSH2 0x100 MUL SUB AND PUSH1 0x2 SWAP1 DIV PUSH1 0x0 DUP3 SSTORE DUP1 PUSH1 0x1F LT PUSH2 0x533A JUMPI POP PUSH2 0x5359 JUMP JUMPDEST PUSH1 0x1F ADD PUSH1 0x20 SWAP1 DIV SWAP1 PUSH1 0x0 MSTORE PUSH1 0x20 PUSH1 0x0 KECCAK256 SWAP1 DUP2 ADD SWAP1 PUSH2 0x5358 SWAP2 SWAP1 PUSH2 0x52EF JUMP JUMPDEST JUMPDEST POP JUMP JUMPDEST PUSH1 0x0 DUP2 CALLDATALOAD SWAP1 POP PUSH2 0x536B DUP2 PUSH2 0x72C4 JUMP JUMPDEST SWAP3 SWAP2 POP POP JUMP JUMPDEST PUSH1 0x0 DUP2 MLOAD SWAP1 POP PUSH2 0x5380 DUP2 PUSH2 0x72C4 JUMP JUMPDEST SWAP3 SWAP2 POP POP JUMP JUMPDEST PUSH1 0x0 DUP2 MLOAD SWAP1 POP PUSH2 0x5395 DUP2 PUSH2 0x72DB JUMP JUMPDEST SWAP3 SWAP2 POP POP JUMP JUMPDEST PUSH1 0x0 DUP3 PUSH1 0x1F DUP4 ADD SLT PUSH2 0x53AC JUMPI PUSH1 0x0 DUP1 REVERT JUMPDEST DUP2 CALLDATALOAD PUSH2 0x53BF PUSH2 0x53BA DUP3 PUSH2 0x6FB3 JUMP JUMPDEST PUSH2 0x6F86 JUMP JUMPDEST SWAP2 POP DUP2 DUP2 DUP4 MSTORE PUSH1 0x20 DUP5 ADD SWAP4 POP PUSH1 0x20 DUP2 ADD SWAP1 POP DUP4 DUP6 PUSH1 0x20 DUP5 MUL DUP3 ADD GT ISZERO PUSH2 0x53E4 JUMPI PUSH1 0x0 DUP1 REVERT JUMPDEST PUSH1 0x0 JUMPDEST DUP4 DUP2 LT ISZERO PUSH2 0x5414 JUMPI DUP2 PUSH2 0x53FA DUP9 DUP3 PUSH2 0x535C JUMP JUMPDEST DUP5 MSTORE PUSH1 0x20 DUP5 ADD SWAP4 POP PUSH1 0x20 DUP4 ADD SWAP3 POP POP PUSH1 0x1 DUP2 ADD SWAP1 POP PUSH2 0x53E7 JUMP JUMPDEST POP POP POP POP SWAP3 SWAP2 POP POP JUMP JUMPDEST PUSH1 0x0 DUP3 PUSH1 0x1F DUP4 ADD SLT PUSH2 0x542F JUMPI PUSH1 0x0 DUP1 REVERT JUMPDEST DUP2 CALLDATALOAD PUSH2 0x5442 PUSH2 0x543D DUP3 PUSH2 0x6FDB JUMP JUMPDEST PUSH2 0x6F86 JUMP JUMPDEST SWAP2 POP DUP2 DUP2 DUP4 MSTORE PUSH1 0x20 DUP5 ADD SWAP4 POP PUSH1 0x20 DUP2 ADD SWAP1 POP DUP4 PUSH1 0x0 JUMPDEST DUP4 DUP2 LT ISZERO PUSH2 0x5488 JUMPI DUP2 CALLDATALOAD DUP7 ADD PUSH2 0x546E DUP9 DUP3 PUSH2 0x55B3 JUMP JUMPDEST DUP5 MSTORE PUSH1 0x20 DUP5 ADD SWAP4 POP PUSH1 0x20 DUP4 ADD SWAP3 POP POP PUSH1 0x1 DUP2 ADD SWAP1 POP PUSH2 0x5458 JUMP JUMPDEST POP POP POP POP SWAP3 SWAP2 POP POP JUMP JUMPDEST PUSH1 0x0 DUP3 PUSH1 0x1F DUP4 ADD SLT PUSH2 0x54A3 JUMPI PUSH1 0x0 DUP1 REVERT JUMPDEST DUP2 CALLDATALOAD PUSH2 0x54B6 PUSH2 0x54B1 DUP3 PUSH2 0x7003 JUMP JUMPDEST PUSH2 0x6F86 JUMP JUMPDEST SWAP2 POP DUP2 DUP2 DUP4 MSTORE PUSH1 0x20 DUP5 ADD SWAP4 POP PUSH1 0x20 DUP2 ADD SWAP1 POP DUP4 DUP6 PUSH1 0x20 DUP5 MUL DUP3 ADD GT ISZERO PUSH2 0x54DB JUMPI PUSH1 0x0 DUP1 REVERT JUMPDEST PUSH1 0x0 JUMPDEST DUP4 DUP2 LT ISZERO PUSH2 0x550B JUMPI DUP2 PUSH2 0x54F1 DUP9 DUP3 PUSH2 0x565B JUMP JUMPDEST DUP5 MSTORE PUSH1 0x20 DUP5 ADD SWAP4 POP PUSH1 0x20 DUP4 ADD SWAP3 POP POP PUSH1 0x1 DUP2 ADD SWAP1 POP PUSH2 0x54DE JUMP JUMPDEST POP POP POP POP SWAP3 SWAP2 POP POP JUMP JUMPDEST PUSH1 0x0 DUP2 CALLDATALOAD SWAP1 POP PUSH2 0x5524 DUP2 PUSH2 0x72F2 JUMP JUMPDEST SWAP3 SWAP2 POP POP JUMP JUMPDEST PUSH1 0x0 DUP2 MLOAD SWAP1 POP PUSH2 0x5539 DUP2 PUSH2 0x72F2 JUMP JUMPDEST SWAP3 SWAP2 POP POP JUMP JUMPDEST PUSH1 0x0 DUP2 CALLDATALOAD SWAP1 POP PUSH2 0x554E DUP2 PUSH2 0x7309 JUMP JUMPDEST SWAP3 SWAP2 POP POP JUMP JUMPDEST PUSH1 0x0 DUP2 MLOAD SWAP1 POP PUSH2 0x5563 DUP2 PUSH2 0x7309 JUMP JUMPDEST SWAP3 SWAP2 POP POP JUMP JUMPDEST PUSH1 0x0 DUP1 DUP4 PUSH1 0x1F DUP5 ADD SLT PUSH2 0x557B JUMPI PUSH1 0x0 DUP1 REVERT JUMPDEST DUP3 CALLDATALOAD SWAP1 POP PUSH8 0xFFFFFFFFFFFFFFFF DUP2 GT ISZERO PUSH2 0x5594 JUMPI PUSH1 0x0 DUP1 REVERT JUMPDEST PUSH1 0x20 DUP4 ADD SWAP2 POP DUP4 PUSH1 0x1 DUP3 MUL DUP4 ADD GT ISZERO PUSH2 0x55AC JUMPI PUSH1 0x0 DUP1 REVERT JUMPDEST SWAP3 POP SWAP3 SWAP1 POP JUMP JUMPDEST PUSH1 0x0 DUP3 PUSH1 0x1F DUP4 ADD SLT PUSH2 0x55C4 JUMPI PUSH1 0x0 DUP1 REVERT JUMPDEST DUP2 CALLDATALOAD PUSH2 0x55D7 PUSH2 0x55D2 DUP3 PUSH2 0x702B JUMP JUMPDEST PUSH2 0x6F86 JUMP JUMPDEST SWAP2 POP DUP1 DUP3 MSTORE PUSH1 0x20 DUP4 ADD PUSH1 0x20 DUP4 ADD DUP6 DUP4 DUP4 ADD GT ISZERO PUSH2 0x55F3 JUMPI PUSH1 0x0 DUP1 REVERT JUMPDEST PUSH2 0x55FE DUP4 DUP3 DUP5 PUSH2 0x7271 JUMP JUMPDEST POP POP POP SWAP3 SWAP2 POP POP JUMP JUMPDEST PUSH1 0x0 DUP3 PUSH1 0x1F DUP4 ADD SLT PUSH2 0x5618 JUMPI PUSH1 0x0 DUP1 REVERT JUMPDEST DUP2 CALLDATALOAD PUSH2 0x562B PUSH2 0x5626 DUP3 PUSH2 0x7057 JUMP JUMPDEST PUSH2 0x6F86 JUMP JUMPDEST SWAP2 POP DUP1 DUP3 MSTORE PUSH1 0x20 DUP4 ADD PUSH1 0x20 DUP4 ADD DUP6 DUP4 DUP4 ADD GT ISZERO PUSH2 0x5647 JUMPI PUSH1 0x0 DUP1 REVERT JUMPDEST PUSH2 0x5652 DUP4 DUP3 DUP5 PUSH2 0x7271 JUMP JUMPDEST POP POP POP SWAP3 SWAP2 POP POP JUMP JUMPDEST PUSH1 0x0 DUP2 CALLDATALOAD SWAP1 POP PUSH2 0x566A DUP2 PUSH2 0x7320 JUMP JUMPDEST SWAP3 SWAP2 POP POP JUMP JUMPDEST PUSH1 0x0 DUP2 MLOAD SWAP1 POP PUSH2 0x567F DUP2 PUSH2 0x7320 JUMP JUMPDEST SWAP3 SWAP2 POP POP JUMP JUMPDEST PUSH1 0x0 PUSH1 0x20 DUP3 DUP5 SUB SLT ISZERO PUSH2 0x5697 JUMPI PUSH1 0x0 DUP1 REVERT JUMPDEST PUSH1 0x0 PUSH2 0x56A5 DUP5 DUP3 DUP6 ADD PUSH2 0x535C JUMP JUMPDEST SWAP2 POP POP SWAP3 SWAP2 POP POP JUMP JUMPDEST PUSH1 0x0 PUSH1 0x20 DUP3 DUP5 SUB SLT ISZERO PUSH2 0x56C0 JUMPI PUSH1 0x0 DUP1 REVERT JUMPDEST PUSH1 0x0 PUSH2 0x56CE DUP5 DUP3 DUP6 ADD PUSH2 0x5371 JUMP JUMPDEST SWAP2 POP POP SWAP3 SWAP2 POP POP JUMP JUMPDEST PUSH1 0x0 DUP1 PUSH1 0x40 DUP4 DUP6 SUB SLT ISZERO PUSH2 0x56EA JUMPI PUSH1 0x0 DUP1 REVERT JUMPDEST PUSH1 0x0 PUSH2 0x56F8 DUP6 DUP3 DUP7 ADD PUSH2 0x5386 JUMP JUMPDEST SWAP3 POP POP PUSH1 0x20 PUSH2 0x5709 DUP6 DUP3 DUP7 ADD PUSH2 0x5670 JUMP JUMPDEST SWAP2 POP POP SWAP3 POP SWAP3 SWAP1 POP JUMP JUMPDEST PUSH1 0x0 DUP1 PUSH1 0x0 DUP1 PUSH1 0x80 DUP6 DUP8 SUB SLT ISZERO PUSH2 0x5729 JUMPI PUSH1 0x0 DUP1 REVERT JUMPDEST PUSH1 0x0 PUSH2 0x5737 DUP8 DUP3 DUP9 ADD PUSH2 0x5386 JUMP JUMPDEST SWAP5 POP POP PUSH1 0x20 PUSH2 0x5748 DUP8 DUP3 DUP9 ADD PUSH2 0x5670 JUMP JUMPDEST SWAP4 POP POP PUSH1 0x40 PUSH2 0x5759 DUP8 DUP3 DUP9 ADD PUSH2 0x5670 JUMP JUMPDEST SWAP3 POP POP PUSH1 0x60 PUSH2 0x576A DUP8 DUP3 DUP9 ADD PUSH2 0x5670 JUMP JUMPDEST SWAP2 POP POP SWAP3 SWAP6 SWAP2 SWAP5 POP SWAP3 POP JUMP JUMPDEST PUSH1 0x0 DUP1 PUSH1 0x40 DUP4 DUP6 SUB SLT ISZERO PUSH2 0x5789 JUMPI PUSH1 0x0 DUP1 REVERT JUMPDEST PUSH1 0x0 PUSH2 0x5797 DUP6 DUP3 DUP7 ADD PUSH2 0x535C JUMP JUMPDEST SWAP3 POP POP PUSH1 0x20 PUSH2 0x57A8 DUP6 DUP3 DUP7 ADD PUSH2 0x535C JUMP JUMPDEST SWAP2 POP POP SWAP3 POP SWAP3 SWAP1 POP JUMP JUMPDEST PUSH1 0x0 DUP1 PUSH1 0x0 DUP1 PUSH1 0x0 DUP1 PUSH1 0x0 DUP1 PUSH1 0x0 DUP1 PUSH1 0x0 PUSH2 0x120 DUP13 DUP15 SUB SLT ISZERO PUSH2 0x57D4 JUMPI PUSH1 0x0 DUP1 REVERT JUMPDEST PUSH1 0x0 PUSH2 0x57E2 DUP15 DUP3 DUP16 ADD PUSH2 0x535C JUMP JUMPDEST SWAP12 POP POP PUSH1 0x20 PUSH2 0x57F3 DUP15 DUP3 DUP16 ADD PUSH2 0x535C JUMP JUMPDEST SWAP11 POP POP PUSH1 0x40 DUP13 ADD CALLDATALOAD PUSH8 0xFFFFFFFFFFFFFFFF DUP2 GT ISZERO PUSH2 0x5810 JUMPI PUSH1 0x0 DUP1 REVERT JUMPDEST PUSH2 0x581C DUP15 DUP3 DUP16 ADD PUSH2 0x5569 JUMP JUMPDEST SWAP10 POP SWAP10 POP POP PUSH1 0x60 PUSH2 0x582F DUP15 DUP3 DUP16 ADD PUSH2 0x565B JUMP JUMPDEST SWAP8 POP POP PUSH1 0x80 PUSH2 0x5840 DUP15 DUP3 DUP16 ADD PUSH2 0x565B JUMP JUMPDEST SWAP7 POP POP PUSH1 0xA0 PUSH2 0x5851 DUP15 DUP3 DUP16 ADD PUSH2 0x565B JUMP JUMPDEST SWAP6 POP POP PUSH1 0xC0 PUSH2 0x5862 DUP15 DUP3 DUP16 ADD PUSH2 0x565B JUMP JUMPDEST SWAP5 POP POP PUSH1 0xE0 DUP13 ADD CALLDATALOAD PUSH8 0xFFFFFFFFFFFFFFFF DUP2 GT ISZERO PUSH2 0x587F JUMPI PUSH1 0x0 DUP1 REVERT JUMPDEST PUSH2 0x588B DUP15 DUP3 DUP16 ADD PUSH2 0x5569 JUMP JUMPDEST SWAP4 POP SWAP4 POP POP PUSH2 0x100 PUSH2 0x589F DUP15 DUP3 DUP16 ADD PUSH2 0x565B JUMP JUMPDEST SWAP2 POP POP SWAP3 SWAP6 SWAP9 SWAP12 POP SWAP3 SWAP6 SWAP9 SWAP12 SWAP1 SWAP4 SWAP7 SWAP10 POP JUMP JUMPDEST PUSH1 0x0 DUP1 PUSH1 0x0 PUSH1 0x60 DUP5 DUP7 SUB SLT ISZERO PUSH2 0x58C7 JUMPI PUSH1 0x0 DUP1 REVERT JUMPDEST PUSH1 0x0 PUSH2 0x58D5 DUP7 DUP3 DUP8 ADD PUSH2 0x535C JUMP JUMPDEST SWAP4 POP POP PUSH1 0x20 PUSH2 0x58E6 DUP7 DUP3 DUP8 ADD PUSH2 0x535C JUMP JUMPDEST SWAP3 POP POP PUSH1 0x40 PUSH2 0x58F7 DUP7 DUP3 DUP8 ADD PUSH2 0x565B JUMP JUMPDEST SWAP2 POP POP SWAP3 POP SWAP3 POP SWAP3 JUMP JUMPDEST PUSH1 0x0 DUP1 PUSH1 0x0 DUP1 PUSH1 0x0 DUP1 PUSH1 0x0 PUSH1 0xA0 DUP9 DUP11 SUB SLT ISZERO PUSH2 0x591C JUMPI PUSH1 0x0 DUP1 REVERT JUMPDEST PUSH1 0x0 PUSH2 0x592A DUP11 DUP3 DUP12 ADD PUSH2 0x535C JUMP JUMPDEST SWAP8 POP POP PUSH1 0x20 PUSH2 0x593B DUP11 DUP3 DUP12 ADD PUSH2 0x535C JUMP JUMPDEST SWAP7 POP POP PUSH1 0x40 PUSH2 0x594C DUP11 DUP3 DUP12 ADD PUSH2 0x565B JUMP JUMPDEST SWAP6 POP POP PUSH1 0x60 DUP9 ADD CALLDATALOAD PUSH8 0xFFFFFFFFFFFFFFFF DUP2 GT ISZERO PUSH2 0x5969 JUMPI PUSH1 0x0 DUP1 REVERT JUMPDEST PUSH2 0x5975 DUP11 DUP3 DUP12 ADD PUSH2 0x5569 JUMP JUMPDEST SWAP5 POP SWAP5 POP POP PUSH1 0x80 DUP9 ADD CALLDATALOAD PUSH8 0xFFFFFFFFFFFFFFFF DUP2 GT ISZERO PUSH2 0x5994 JUMPI PUSH1 0x0 DUP1 REVERT JUMPDEST PUSH2 0x59A0 DUP11 DUP3 DUP12 ADD PUSH2 0x5569 JUMP JUMPDEST SWAP3 POP SWAP3 POP POP SWAP3 SWAP6 SWAP9 SWAP2 SWAP5 SWAP8 POP SWAP3 SWAP6 POP JUMP JUMPDEST PUSH1 0x0 DUP1 PUSH1 0x40 DUP4 DUP6 SUB SLT ISZERO PUSH2 0x59C4 JUMPI PUSH1 0x0 DUP1 REVERT JUMPDEST PUSH1 0x0 PUSH2 0x59D2 DUP6 DUP3 DUP7 ADD PUSH2 0x535C JUMP JUMPDEST SWAP3 POP POP PUSH1 0x20 PUSH2 0x59E3 DUP6 DUP3 DUP7 ADD PUSH2 0x5515 JUMP JUMPDEST SWAP2 POP POP SWAP3 POP SWAP3 SWAP1 POP JUMP JUMPDEST PUSH1 0x0 DUP1 PUSH1 0x40 DUP4 DUP6 SUB SLT ISZERO PUSH2 0x5A00 JUMPI PUSH1 0x0 DUP1 REVERT JUMPDEST PUSH1 0x0 PUSH2 0x5A0E DUP6 DUP3 DUP7 ADD PUSH2 0x535C JUMP JUMPDEST SWAP3 POP POP PUSH1 0x20 PUSH2 0x5A1F DUP6 DUP3 DUP7 ADD PUSH2 0x565B JUMP JUMPDEST SWAP2 POP POP SWAP3 POP SWAP3 SWAP1 POP JUMP JUMPDEST PUSH1 0x0 DUP1 PUSH1 0x0 DUP1 PUSH1 0x60 DUP6 DUP8 SUB SLT ISZERO PUSH2 0x5A3F JUMPI PUSH1 0x0 DUP1 REVERT JUMPDEST PUSH1 0x0 PUSH2 0x5A4D DUP8 DUP3 DUP9 ADD PUSH2 0x535C JUMP JUMPDEST SWAP5 POP POP PUSH1 0x20 PUSH2 0x5A5E DUP8 DUP3 DUP9 ADD PUSH2 0x565B JUMP JUMPDEST SWAP4 POP POP PUSH1 0x40 DUP6 ADD CALLDATALOAD PUSH8 0xFFFFFFFFFFFFFFFF DUP2 GT ISZERO PUSH2 0x5A7B JUMPI PUSH1 0x0 DUP1 REVERT JUMPDEST PUSH2 0x5A87 DUP8 DUP3 DUP9 ADD PUSH2 0x5569 JUMP JUMPDEST SWAP3 POP SWAP3 POP POP SWAP3 SWAP6 SWAP2 SWAP5 POP SWAP3 POP JUMP JUMPDEST PUSH1 0x0 DUP1 PUSH1 0x0 DUP1 PUSH1 0x0 DUP1 PUSH1 0x80 DUP8 DUP10 SUB SLT ISZERO PUSH2 0x5AAE JUMPI PUSH1 0x0 DUP1 REVERT JUMPDEST PUSH1 0x0 PUSH2 0x5ABC DUP10 DUP3 DUP11 ADD PUSH2 0x535C JUMP JUMPDEST SWAP7 POP POP PUSH1 0x20 PUSH2 0x5ACD DUP10 DUP3 DUP11 ADD PUSH2 0x565B JUMP JUMPDEST SWAP6 POP POP PUSH1 0x40 DUP8 ADD CALLDATALOAD PUSH8 0xFFFFFFFFFFFFFFFF DUP2 GT ISZERO PUSH2 0x5AEA JUMPI PUSH1 0x0 DUP1 REVERT JUMPDEST PUSH2 0x5AF6 DUP10 DUP3 DUP11 ADD PUSH2 0x5569 JUMP JUMPDEST SWAP5 POP SWAP5 POP POP PUSH1 0x60 DUP8 ADD CALLDATALOAD PUSH8 0xFFFFFFFFFFFFFFFF DUP2 GT ISZERO PUSH2 0x5B15 JUMPI PUSH1 0x0 DUP1 REVERT JUMPDEST PUSH2 0x5B21 DUP10 DUP3 DUP11 ADD PUSH2 0x5569 JUMP JUMPDEST SWAP3 POP SWAP3 POP POP SWAP3 SWAP6 POP SWAP3 SWAP6 POP SWAP3 SWAP6 JUMP JUMPDEST PUSH1 0x0 DUP1 PUSH1 0x0 PUSH1 0x60 DUP5 DUP7 SUB SLT ISZERO PUSH2 0x5B45 JUMPI PUSH1 0x0 DUP1 REVERT JUMPDEST PUSH1 0x0 PUSH2 0x5B53 DUP7 DUP3 DUP8 ADD PUSH2 0x535C JUMP JUMPDEST SWAP4 POP POP PUSH1 0x20 PUSH2 0x5B64 DUP7 DUP3 DUP8 ADD PUSH2 0x565B JUMP JUMPDEST SWAP3 POP POP PUSH1 0x40 DUP5 ADD CALLDATALOAD PUSH8 0xFFFFFFFFFFFFFFFF DUP2 GT ISZERO PUSH2 0x5B81 JUMPI PUSH1 0x0 DUP1 REVERT JUMPDEST PUSH2 0x5B8D DUP7 DUP3 DUP8 ADD PUSH2 0x5607 JUMP JUMPDEST SWAP2 POP POP SWAP3 POP SWAP3 POP SWAP3 JUMP JUMPDEST PUSH1 0x0 DUP1 PUSH1 0x0 PUSH1 0x60 DUP5 DUP7 SUB SLT ISZERO PUSH2 0x5BAC JUMPI PUSH1 0x0 DUP1 REVERT JUMPDEST PUSH1 0x0 DUP5 ADD CALLDATALOAD PUSH8 0xFFFFFFFFFFFFFFFF DUP2 GT ISZERO PUSH2 0x5BC6 JUMPI PUSH1 0x0 DUP1 REVERT JUMPDEST PUSH2 0x5BD2 DUP7 DUP3 DUP8 ADD PUSH2 0x539B JUMP JUMPDEST SWAP4 POP POP PUSH1 0x20 DUP5 ADD CALLDATALOAD PUSH8 0xFFFFFFFFFFFFFFFF DUP2 GT ISZERO PUSH2 0x5BEF JUMPI PUSH1 0x0 DUP1 REVERT JUMPDEST PUSH2 0x5BFB DUP7 DUP3 DUP8 ADD PUSH2 0x5492 JUMP JUMPDEST SWAP3 POP POP PUSH1 0x40 DUP5 ADD CALLDATALOAD PUSH8 0xFFFFFFFFFFFFFFFF DUP2 GT ISZERO PUSH2 0x5C18 JUMPI PUSH1 0x0 DUP1 REVERT JUMPDEST PUSH2 0x5C24 DUP7 DUP3 DUP8 ADD PUSH2 0x541E JUMP JUMPDEST SWAP2 POP POP SWAP3 POP SWAP3 POP SWAP3 JUMP JUMPDEST PUSH1 0x0 PUSH1 0x20 DUP3 DUP5 SUB SLT ISZERO PUSH2 0x5C40 JUMPI PUSH1 0x0 DUP1 REVERT JUMPDEST PUSH1 0x0 PUSH2 0x5C4E DUP5 DUP3 DUP6 ADD PUSH2 0x5515 JUMP JUMPDEST SWAP2 POP POP SWAP3 SWAP2 POP POP JUMP JUMPDEST PUSH1 0x0 PUSH1 0x20 DUP3 DUP5 SUB SLT ISZERO PUSH2 0x5C69 JUMPI PUSH1 0x0 DUP1 REVERT JUMPDEST PUSH1 0x0 PUSH2 0x5C77 DUP5 DUP3 DUP6 ADD PUSH2 0x552A JUMP JUMPDEST SWAP2 POP POP SWAP3 SWAP2 POP POP JUMP JUMPDEST PUSH1 0x0 PUSH1 0x20 DUP3 DUP5 SUB SLT ISZERO PUSH2 0x5C92 JUMPI PUSH1 0x0 DUP1 REVERT JUMPDEST PUSH1 0x0 PUSH2 0x5CA0 DUP5 DUP3 DUP6 ADD PUSH2 0x5554 JUMP JUMPDEST SWAP2 POP POP SWAP3 SWAP2 POP POP JUMP JUMPDEST PUSH1 0x0 DUP1 PUSH1 0x20 DUP4 DUP6 SUB SLT ISZERO PUSH2 0x5CBC JUMPI PUSH1 0x0 DUP1 REVERT JUMPDEST PUSH1 0x0 DUP4 ADD CALLDATALOAD PUSH8 0xFFFFFFFFFFFFFFFF DUP2 GT ISZERO PUSH2 0x5CD6 JUMPI PUSH1 0x0 DUP1 REVERT JUMPDEST PUSH2 0x5CE2 DUP6 DUP3 DUP7 ADD PUSH2 0x5569 JUMP JUMPDEST SWAP3 POP SWAP3 POP POP SWAP3 POP SWAP3 SWAP1 POP JUMP JUMPDEST PUSH1 0x0 DUP1 PUSH1 0x0 DUP1 PUSH1 0x0 PUSH1 0x80 DUP7 DUP9 SUB SLT ISZERO PUSH2 0x5D06 JUMPI PUSH1 0x0 DUP1 REVERT JUMPDEST PUSH1 0x0 DUP7 ADD CALLDATALOAD PUSH8 0xFFFFFFFFFFFFFFFF DUP2 GT ISZERO PUSH2 0x5D20 JUMPI PUSH1 0x0 DUP1 REVERT JUMPDEST PUSH2 0x5D2C DUP9 DUP3 DUP10 ADD PUSH2 0x5569 JUMP JUMPDEST SWAP6 POP SWAP6 POP POP PUSH1 0x20 PUSH2 0x5D3F DUP9 DUP3 DUP10 ADD PUSH2 0x5515 JUMP JUMPDEST SWAP4 POP POP PUSH1 0x40 PUSH2 0x5D50 DUP9 DUP3 DUP10 ADD PUSH2 0x565B JUMP JUMPDEST SWAP3 POP POP PUSH1 0x60 PUSH2 0x5D61 DUP9 DUP3 DUP10 ADD PUSH2 0x553F JUMP JUMPDEST SWAP2 POP POP SWAP3 SWAP6 POP SWAP3 SWAP6 SWAP1 SWAP4 POP JUMP JUMPDEST PUSH1 0x0 PUSH1 0x20 DUP3 DUP5 SUB SLT ISZERO PUSH2 0x5D80 JUMPI PUSH1 0x0 DUP1 REVERT JUMPDEST PUSH1 0x0 PUSH2 0x5D8E DUP5 DUP3 DUP6 ADD PUSH2 0x565B JUMP JUMPDEST SWAP2 POP POP SWAP3 SWAP2 POP POP JUMP JUMPDEST PUSH1 0x0 PUSH1 0x20 DUP3 DUP5 SUB SLT ISZERO PUSH2 0x5DA9 JUMPI PUSH1 0x0 DUP1 REVERT JUMPDEST PUSH1 0x0 PUSH2 0x5DB7 DUP5 DUP3 DUP6 ADD PUSH2 0x5670 JUMP JUMPDEST SWAP2 POP POP SWAP3 SWAP2 POP POP JUMP JUMPDEST PUSH1 0x0 DUP1 PUSH1 0x0 DUP1 PUSH1 0x80 DUP6 DUP8 SUB SLT ISZERO PUSH2 0x5DD6 JUMPI PUSH1 0x0 DUP1 REVERT JUMPDEST PUSH1 0x0 PUSH2 0x5DE4 DUP8 DUP3 DUP9 ADD PUSH2 0x565B JUMP JUMPDEST SWAP5 POP POP PUSH1 0x20 DUP6 ADD CALLDATALOAD PUSH8 0xFFFFFFFFFFFFFFFF DUP2 GT ISZERO PUSH2 0x5E01 JUMPI PUSH1 0x0 DUP1 REVERT JUMPDEST PUSH2 0x5E0D DUP8 DUP3 DUP9 ADD PUSH2 0x539B JUMP JUMPDEST SWAP4 POP POP PUSH1 0x40 DUP6 ADD CALLDATALOAD PUSH8 0xFFFFFFFFFFFFFFFF DUP2 GT ISZERO PUSH2 0x5E2A JUMPI PUSH1 0x0 DUP1 REVERT JUMPDEST PUSH2 0x5E36 DUP8 DUP3 DUP9 ADD PUSH2 0x5492 JUMP JUMPDEST SWAP3 POP POP PUSH1 0x60 DUP6 ADD CALLDATALOAD PUSH8 0xFFFFFFFFFFFFFFFF DUP2 GT ISZERO PUSH2 0x5E53 JUMPI PUSH1 0x0 DUP1 REVERT JUMPDEST PUSH2 0x5E5F DUP8 DUP3 DUP9 ADD PUSH2 0x541E JUMP JUMPDEST SWAP2 POP POP SWAP3 SWAP6 SWAP2 SWAP5 POP SWAP3 POP JUMP JUMPDEST PUSH1 0x0 DUP1 PUSH1 0x0 PUSH1 0x40 DUP5 DUP7 SUB SLT ISZERO PUSH2 0x5E80 JUMPI PUSH1 0x0 DUP1 REVERT JUMPDEST PUSH1 0x0 PUSH2 0x5E8E DUP7 DUP3 DUP8 ADD PUSH2 0x565B JUMP JUMPDEST SWAP4 POP POP PUSH1 0x20 DUP5 ADD CALLDATALOAD PUSH8 0xFFFFFFFFFFFFFFFF DUP2 GT ISZERO PUSH2 0x5EAB JUMPI PUSH1 0x0 DUP1 REVERT JUMPDEST PUSH2 0x5EB7 DUP7 DUP3 DUP8 ADD PUSH2 0x5569 JUMP JUMPDEST SWAP3 POP SWAP3 POP POP SWAP3 POP SWAP3 POP SWAP3 JUMP JUMPDEST PUSH1 0x0 PUSH2 0x5ECF DUP4 DUP4 PUSH2 0x5F0D JUMP JUMPDEST PUSH1 0x20 DUP4 ADD SWAP1 POP SWAP3 SWAP2 POP POP JUMP JUMPDEST PUSH1 0x0 PUSH2 0x5EE7 DUP4 DUP4 PUSH2 0x68BD JUMP JUMPDEST SWAP1 POP SWAP3 SWAP2 POP POP JUMP JUMPDEST PUSH2 0x5EF8 DUP2 PUSH2 0x71CF JUMP JUMPDEST DUP3 MSTORE POP POP JUMP JUMPDEST PUSH2 0x5F07 DUP2 PUSH2 0x7170 JUMP JUMPDEST DUP3 MSTORE POP POP JUMP JUMPDEST PUSH2 0x5F16 DUP2 PUSH2 0x715E JUMP JUMPDEST DUP3 MSTORE POP POP JUMP JUMPDEST PUSH2 0x5F25 DUP2 PUSH2 0x715E JUMP JUMPDEST DUP3 MSTORE POP POP JUMP JUMPDEST PUSH1 0x0 PUSH2 0x5F36 DUP3 PUSH2 0x70B8 JUMP JUMPDEST PUSH2 0x5F40 DUP2 DUP6 PUSH2 0x7109 JUMP JUMPDEST SWAP4 POP PUSH2 0x5F4B DUP4 PUSH2 0x7083 JUMP JUMPDEST DUP1 PUSH1 0x0 JUMPDEST DUP4 DUP2 LT ISZERO PUSH2 0x5F7C JUMPI DUP2 MLOAD PUSH2 0x5F63 DUP9 DUP3 PUSH2 0x5EC3 JUMP JUMPDEST SWAP8 POP PUSH2 0x5F6E DUP4 PUSH2 0x70EF JUMP JUMPDEST SWAP3 POP POP PUSH1 0x1 DUP2 ADD SWAP1 POP PUSH2 0x5F4F JUMP JUMPDEST POP DUP6 SWAP4 POP POP POP POP SWAP3 SWAP2 POP POP JUMP JUMPDEST PUSH1 0x0 PUSH2 0x5F94 DUP3 PUSH2 0x70C3 JUMP JUMPDEST PUSH2 0x5F9E DUP2 DUP6 PUSH2 0x711A JUMP JUMPDEST SWAP4 POP DUP4 PUSH1 0x20 DUP3 MUL DUP6 ADD PUSH2 0x5FB0 DUP6 PUSH2 0x7093 JUMP JUMPDEST DUP1 PUSH1 0x0 JUMPDEST DUP6 DUP2 LT ISZERO PUSH2 0x5FEC JUMPI DUP5 DUP5 SUB DUP10 MSTORE DUP2 MLOAD PUSH2 0x5FCD DUP6 DUP3 PUSH2 0x5EDB JUMP JUMPDEST SWAP5 POP PUSH2 0x5FD8 DUP4 PUSH2 0x70FC JUMP JUMPDEST SWAP3 POP PUSH1 0x20 DUP11 ADD SWAP10 POP POP PUSH1 0x1 DUP2 ADD SWAP1 POP PUSH2 0x5FB4 JUMP JUMPDEST POP DUP3 SWAP8 POP DUP8 SWAP6 POP POP POP POP POP POP SWAP3 SWAP2 POP POP JUMP JUMPDEST PUSH2 0x6007 DUP2 PUSH2 0x7182 JUMP JUMPDEST DUP3 MSTORE POP POP JUMP JUMPDEST PUSH2 0x6016 DUP2 PUSH2 0x718E JUMP JUMPDEST DUP3 MSTORE POP POP JUMP JUMPDEST PUSH1 0x0 PUSH2 0x6027 DUP3 PUSH2 0x70D9 JUMP JUMPDEST PUSH2 0x6031 DUP2 DUP6 PUSH2 0x713C JUMP JUMPDEST SWAP4 POP PUSH2 0x6041 DUP2 DUP6 PUSH1 0x20 DUP7 ADD PUSH2 0x7280 JUMP JUMPDEST PUSH2 0x604A DUP2 PUSH2 0x72B3 JUMP JUMPDEST DUP5 ADD SWAP2 POP POP SWAP3 SWAP2 POP POP JUMP JUMPDEST PUSH1 0x0 PUSH2 0x6060 DUP3 PUSH2 0x70CE JUMP JUMPDEST PUSH2 0x606A DUP2 DUP6 PUSH2 0x712B JUMP JUMPDEST SWAP4 POP PUSH2 0x607A DUP2 DUP6 PUSH1 0x20 DUP7 ADD PUSH2 0x7280 JUMP JUMPDEST PUSH2 0x6083 DUP2 PUSH2 0x72B3 JUMP JUMPDEST DUP5 ADD SWAP2 POP POP SWAP3 SWAP2 POP POP JUMP JUMPDEST PUSH1 0x0 DUP2 SLOAD PUSH1 0x1 DUP2 AND PUSH1 0x0 DUP2 EQ PUSH2 0x60AB JUMPI PUSH1 0x1 DUP2 EQ PUSH2 0x60D1 JUMPI PUSH2 0x6115 JUMP JUMPDEST PUSH1 0x7F PUSH1 0x2 DUP4 DIV AND PUSH2 0x60BC DUP2 DUP8 PUSH2 0x713C JUMP JUMPDEST SWAP6 POP PUSH1 0xFF NOT DUP4 AND DUP7 MSTORE PUSH1 0x20 DUP7 ADD SWAP4 POP POP PUSH2 0x6115 JUMP JUMPDEST PUSH1 0x2 DUP3 DIV PUSH2 0x60DF DUP2 DUP8 PUSH2 0x713C JUMP JUMPDEST SWAP6 POP PUSH2 0x60EA DUP6 PUSH2 0x70A3 JUMP JUMPDEST PUSH1 0x0 JUMPDEST DUP3 DUP2 LT ISZERO PUSH2 0x610C JUMPI DUP2 SLOAD DUP2 DUP10 ADD MSTORE PUSH1 0x1 DUP3 ADD SWAP2 POP PUSH1 0x20 DUP2 ADD SWAP1 POP PUSH2 0x60ED JUMP JUMPDEST DUP1 DUP9 ADD SWAP6 POP POP POP POP JUMPDEST POP POP SWAP3 SWAP2 POP POP JUMP JUMPDEST PUSH2 0x6126 DUP2 PUSH2 0x71E1 JUMP JUMPDEST DUP3 MSTORE POP POP JUMP JUMPDEST PUSH2 0x6135 DUP2 PUSH2 0x7205 JUMP JUMPDEST DUP3 MSTORE POP POP JUMP JUMPDEST PUSH2 0x6144 DUP2 PUSH2 0x7229 JUMP JUMPDEST DUP3 MSTORE POP POP JUMP JUMPDEST PUSH1 0x0 PUSH2 0x6155 DUP3 PUSH2 0x70E4 JUMP JUMPDEST PUSH2 0x615F DUP2 DUP6 PUSH2 0x714D JUMP JUMPDEST SWAP4 POP PUSH2 0x616F DUP2 DUP6 PUSH1 0x20 DUP7 ADD PUSH2 0x7280 JUMP JUMPDEST PUSH2 0x6178 DUP2 PUSH2 0x72B3 JUMP JUMPDEST DUP5 ADD SWAP2 POP POP SWAP3 SWAP2 POP POP JUMP JUMPDEST PUSH1 0x0 PUSH2 0x6190 PUSH1 0x26 DUP4 PUSH2 0x714D JUMP JUMPDEST SWAP2 POP PUSH32 0x47534E426F756E636572426173653A2063616C6C6572206973206E6F74205265 PUSH1 0x0 DUP4 ADD MSTORE PUSH32 0x6C61794875620000000000000000000000000000000000000000000000000000 PUSH1 0x20 DUP4 ADD MSTORE PUSH1 0x40 DUP3 ADD SWAP1 POP SWAP2 SWAP1 POP JUMP JUMPDEST PUSH1 0x0 PUSH2 0x61F6 PUSH1 0x22 DUP4 PUSH2 0x714D JUMP JUMPDEST SWAP2 POP PUSH32 0x4552433737373A2073656E642066726F6D20746865207A65726F206164647265 PUSH1 0x0 DUP4 ADD MSTORE PUSH32 0x7373000000000000000000000000000000000000000000000000000000000000 PUSH1 0x20 DUP4 ADD MSTORE PUSH1 0x40 DUP3 ADD SWAP1 POP SWAP2 SWAP1 POP JUMP JUMPDEST PUSH1 0x0 PUSH2 0x625C PUSH1 0x1A DUP4 PUSH2 0x714D JUMP JUMPDEST SWAP2 POP PUSH32 0x444441492E6D696E743A205452414E534645525F4641494C4544000000000000 PUSH1 0x0 DUP4 ADD MSTORE PUSH1 0x20 DUP3 ADD SWAP1 POP SWAP2 SWAP1 POP JUMP JUMPDEST PUSH1 0x0 PUSH2 0x629C PUSH1 0x40 DUP4 PUSH2 0x714D JUMP JUMPDEST SWAP2 POP PUSH32 0x4444414947534E426F756E6365722E7769746864726177546F6B656E3A204341 PUSH1 0x0 DUP4 ADD MSTORE PUSH32 0x4E4E4F545F57495448445241575F4D4F4E45595F4D41524B45545F544F4B454E PUSH1 0x20 DUP4 ADD MSTORE PUSH1 0x40 DUP3 ADD SWAP1 POP SWAP2 SWAP1 POP JUMP JUMPDEST PUSH1 0x0 PUSH2 0x6302 PUSH1 0x26 DUP4 PUSH2 0x714D JUMP JUMPDEST SWAP2 POP PUSH32 0x4F776E61626C653A206E6577206F776E657220697320746865207A65726F2061 PUSH1 0x0 DUP4 ADD MSTORE PUSH32 0x6464726573730000000000000000000000000000000000000000000000000000 PUSH1 0x20 DUP4 ADD MSTORE PUSH1 0x40 DUP3 ADD SWAP1 POP SWAP2 SWAP1 POP JUMP JUMPDEST PUSH1 0x0 PUSH2 0x6368 PUSH1 0x1B DUP4 PUSH2 0x714D JUMP JUMPDEST SWAP2 POP PUSH32 0x536166654D6174683A206164646974696F6E206F766572666C6F770000000000 PUSH1 0x0 DUP4 ADD MSTORE PUSH1 0x20 DUP3 ADD SWAP1 POP SWAP2 SWAP1 POP JUMP JUMPDEST PUSH1 0x0 PUSH2 0x63A8 PUSH1 0x22 DUP4 PUSH2 0x714D JUMP JUMPDEST SWAP2 POP PUSH32 0x4552433737373A206275726E2066726F6D20746865207A65726F206164647265 PUSH1 0x0 DUP4 ADD MSTORE PUSH32 0x7373000000000000000000000000000000000000000000000000000000000000 PUSH1 0x20 DUP4 ADD MSTORE PUSH1 0x40 DUP3 ADD SWAP1 POP SWAP2 SWAP1 POP JUMP JUMPDEST PUSH1 0x0 PUSH2 0x640E PUSH1 0x1D DUP4 PUSH2 0x714D JUMP JUMPDEST SWAP2 POP PUSH32 0x444441492E70757368546F537461636B3A204E4F545F414C4C4F574544000000 PUSH1 0x0 DUP4 ADD MSTORE PUSH1 0x20 DUP3 ADD SWAP1 POP SWAP2 SWAP1 POP JUMP JUMPDEST PUSH1 0x0 PUSH2 0x644E PUSH1 0x24 DUP4 PUSH2 0x714D JUMP JUMPDEST SWAP2 POP PUSH32 0x4552433737373A20617574686F72697A696E672073656C66206173206F706572 PUSH1 0x0 DUP4 ADD MSTORE PUSH32 0x61746F7200000000000000000000000000000000000000000000000000000000 PUSH1 0x20 DUP4 ADD MSTORE PUSH1 0x40 DUP3 ADD SWAP1 POP SWAP2 SWAP1 POP JUMP JUMPDEST PUSH1 0x0 PUSH2 0x64B4 PUSH1 0x21 DUP4 PUSH2 0x714D JUMP JUMPDEST SWAP2 POP PUSH32 0x4552433737373A207265766F6B696E672073656C66206173206F70657261746F PUSH1 0x0 DUP4 ADD MSTORE PUSH32 0x7200000000000000000000000000000000000000000000000000000000000000 PUSH1 0x20 DUP4 ADD MSTORE PUSH1 0x40 DUP3 ADD SWAP1 POP SWAP2 SWAP1 POP JUMP JUMPDEST PUSH1 0x0 PUSH2 0x651A PUSH1 0x20 DUP4 PUSH2 0x714D JUMP JUMPDEST SWAP2 POP PUSH32 0x4552433737373A206D696E7420746F20746865207A65726F2061646472657373 PUSH1 0x0 DUP4 ADD MSTORE PUSH1 0x20 DUP3 ADD SWAP1 POP SWAP2 SWAP1 POP JUMP JUMPDEST PUSH1 0x0 PUSH2 0x655A PUSH1 0x21 DUP4 PUSH2 0x714D JUMP JUMPDEST SWAP2 POP PUSH32 0x536166654D6174683A206D756C7469706C69636174696F6E206F766572666C6F PUSH1 0x0 DUP4 ADD MSTORE PUSH32 0x7700000000000000000000000000000000000000000000000000000000000000 PUSH1 0x20 DUP4 ADD MSTORE PUSH1 0x40 DUP3 ADD SWAP1 POP SWAP2 SWAP1 POP JUMP JUMPDEST PUSH1 0x0 PUSH2 0x65C0 PUSH1 0x20 DUP4 PUSH2 0x714D JUMP JUMPDEST SWAP2 POP PUSH32 0x4F776E61626C653A2063616C6C6572206973206E6F7420746865206F776E6572 PUSH1 0x0 DUP4 ADD MSTORE PUSH1 0x20 DUP3 ADD SWAP1 POP SWAP2 SWAP1 POP JUMP JUMPDEST PUSH1 0x0 PUSH2 0x6600 PUSH1 0x4D DUP4 PUSH2 0x714D JUMP JUMPDEST SWAP2 POP PUSH32 0x4552433737373A20746F6B656E20726563697069656E7420636F6E7472616374 PUSH1 0x0 DUP4 ADD MSTORE PUSH32 0x20686173206E6F20696D706C656D656E74657220666F7220455243373737546F PUSH1 0x20 DUP4 ADD MSTORE PUSH32 0x6B656E73526563697069656E7400000000000000000000000000000000000000 PUSH1 0x40 DUP4 ADD MSTORE PUSH1 0x60 DUP3 ADD SWAP1 POP SWAP2 SWAP1 POP JUMP JUMPDEST PUSH1 0x0 PUSH2 0x668C PUSH1 0x24 DUP4 PUSH2 0x714D JUMP JUMPDEST SWAP2 POP PUSH32 0x4552433737373A207472616E7366657220746F20746865207A65726F20616464 PUSH1 0x0 DUP4 ADD MSTORE PUSH32 0x7265737300000000000000000000000000000000000000000000000000000000 PUSH1 0x20 DUP4 ADD MSTORE PUSH1 0x40 DUP3 ADD SWAP1 POP SWAP2 SWAP1 POP JUMP JUMPDEST PUSH1 0x0 PUSH2 0x66F2 PUSH1 0x24 DUP4 PUSH2 0x714D JUMP JUMPDEST SWAP2 POP PUSH32 0x444441492E72656465656D3A204D4F4E45595F4D41524B45545F4E4F545F4C49 PUSH1 0x0 DUP4 ADD MSTORE PUSH32 0x5155494400000000000000000000000000000000000000000000000000000000 PUSH1 0x20 DUP4 ADD MSTORE PUSH1 0x40 DUP3 ADD SWAP1 POP SWAP2 SWAP1 POP JUMP JUMPDEST PUSH1 0x0 PUSH2 0x6758 PUSH1 0x2C DUP4 PUSH2 0x714D JUMP JUMPDEST SWAP2 POP PUSH32 0x4552433737373A2063616C6C6572206973206E6F7420616E206F70657261746F PUSH1 0x0 DUP4 ADD MSTORE PUSH32 0x7220666F7220686F6C6465720000000000000000000000000000000000000000 PUSH1 0x20 DUP4 ADD MSTORE PUSH1 0x40 DUP3 ADD SWAP1 POP SWAP2 SWAP1 POP JUMP JUMPDEST PUSH1 0x0 PUSH2 0x67BE PUSH1 0x26 DUP4 PUSH2 0x714D JUMP JUMPDEST SWAP2 POP PUSH32 0x4552433737373A207472616E736665722066726F6D20746865207A65726F2061 PUSH1 0x0 DUP4 ADD MSTORE PUSH32 0x6464726573730000000000000000000000000000000000000000000000000000 PUSH1 0x20 DUP4 ADD MSTORE PUSH1 0x40 DUP3 ADD SWAP1 POP SWAP2 SWAP1 POP JUMP JUMPDEST PUSH1 0x0 PUSH2 0x6824 PUSH1 0x20 DUP4 PUSH2 0x714D JUMP JUMPDEST SWAP2 POP PUSH32 0x4552433737373A2073656E6420746F20746865207A65726F2061646472657373 PUSH1 0x0 DUP4 ADD MSTORE PUSH1 0x20 DUP3 ADD SWAP1 POP SWAP2 SWAP1 POP JUMP JUMPDEST PUSH1 0x0 PUSH2 0x6864 PUSH1 0x23 DUP4 PUSH2 0x714D JUMP JUMPDEST SWAP2 POP PUSH32 0x4552433737373A20617070726F766520746F20746865207A65726F2061646472 PUSH1 0x0 DUP4 ADD MSTORE PUSH32 0x6573730000000000000000000000000000000000000000000000000000000000 PUSH1 0x20 DUP4 ADD MSTORE PUSH1 0x40 DUP3 ADD SWAP1 POP SWAP2 SWAP1 POP JUMP JUMPDEST PUSH1 0x0 PUSH1 0x60 DUP4 ADD PUSH1 0x0 DUP4 ADD MLOAD PUSH2 0x68D5 PUSH1 0x0 DUP7 ADD DUP3 PUSH2 0x5F0D JUMP JUMPDEST POP PUSH1 0x20 DUP4 ADD MLOAD PUSH2 0x68E8 PUSH1 0x20 DUP7 ADD DUP3 PUSH2 0x690D JUMP JUMPDEST POP PUSH1 0x40 DUP4 ADD MLOAD DUP5 DUP3 SUB PUSH1 0x40 DUP7 ADD MSTORE PUSH2 0x6900 DUP3 DUP3 PUSH2 0x6055 JUMP JUMPDEST SWAP2 POP POP DUP1 SWAP2 POP POP SWAP3 SWAP2 POP POP JUMP JUMPDEST PUSH2 0x6916 DUP2 PUSH2 0x71B8 JUMP JUMPDEST DUP3 MSTORE POP POP JUMP JUMPDEST PUSH2 0x6925 DUP2 PUSH2 0x71B8 JUMP JUMPDEST DUP3 MSTORE POP POP JUMP JUMPDEST PUSH2 0x6934 DUP2 PUSH2 0x71C2 JUMP JUMPDEST DUP3 MSTORE POP POP JUMP JUMPDEST PUSH1 0x0 PUSH1 0x20 DUP3 ADD SWAP1 POP PUSH2 0x694F PUSH1 0x0 DUP4 ADD DUP5 PUSH2 0x5F1C JUMP JUMPDEST SWAP3 SWAP2 POP POP JUMP JUMPDEST PUSH1 0x0 PUSH1 0x20 DUP3 ADD SWAP1 POP PUSH2 0x696A PUSH1 0x0 DUP4 ADD DUP5 PUSH2 0x5EEF JUMP JUMPDEST SWAP3 SWAP2 POP POP JUMP JUMPDEST PUSH1 0x0 PUSH1 0xC0 DUP3 ADD SWAP1 POP PUSH2 0x6985 PUSH1 0x0 DUP4 ADD DUP10 PUSH2 0x5F1C JUMP JUMPDEST PUSH2 0x6992 PUSH1 0x20 DUP4 ADD DUP9 PUSH2 0x5F1C JUMP JUMPDEST PUSH2 0x699F PUSH1 0x40 DUP4 ADD DUP8 PUSH2 0x5F1C JUMP JUMPDEST PUSH2 0x69AC PUSH1 0x60 DUP4 ADD DUP7 PUSH2 0x691C JUMP JUMPDEST DUP2 DUP2 SUB PUSH1 0x80 DUP4 ADD MSTORE PUSH2 0x69BE DUP2 DUP6 PUSH2 0x601C JUMP JUMPDEST SWAP1 POP DUP2 DUP2 SUB PUSH1 0xA0 DUP4 ADD MSTORE PUSH2 0x69D2 DUP2 DUP5 PUSH2 0x601C JUMP JUMPDEST SWAP1 POP SWAP8 SWAP7 POP POP POP POP POP POP POP JUMP JUMPDEST PUSH1 0x0 PUSH1 0x60 DUP3 ADD SWAP1 POP PUSH2 0x69F4 PUSH1 0x0 DUP4 ADD DUP7 PUSH2 0x5F1C JUMP JUMPDEST PUSH2 0x6A01 PUSH1 0x20 DUP4 ADD DUP6 PUSH2 0x5F1C JUMP JUMPDEST PUSH2 0x6A0E PUSH1 0x40 DUP4 ADD DUP5 PUSH2 0x691C JUMP JUMPDEST SWAP5 SWAP4 POP POP POP POP JUMP JUMPDEST PUSH1 0x0 PUSH1 0x40 DUP3 ADD SWAP1 POP PUSH2 0x6A2B PUSH1 0x0 DUP4 ADD DUP6 PUSH2 0x5F1C JUMP JUMPDEST PUSH2 0x6A38 PUSH1 0x20 DUP4 ADD DUP5 PUSH2 0x600D JUMP JUMPDEST SWAP4 SWAP3 POP POP POP JUMP JUMPDEST PUSH1 0x0 PUSH1 0x40 DUP3 ADD SWAP1 POP PUSH2 0x6A54 PUSH1 0x0 DUP4 ADD DUP6 PUSH2 0x5F1C JUMP JUMPDEST PUSH2 0x6A61 PUSH1 0x20 DUP4 ADD DUP5 PUSH2 0x691C JUMP JUMPDEST SWAP4 SWAP3 POP POP POP JUMP JUMPDEST PUSH1 0x0 PUSH1 0x20 DUP3 ADD SWAP1 POP DUP2 DUP2 SUB PUSH1 0x0 DUP4 ADD MSTORE PUSH2 0x6A82 DUP2 DUP5 PUSH2 0x5F2B JUMP JUMPDEST SWAP1 POP SWAP3 SWAP2 POP POP JUMP JUMPDEST PUSH1 0x0 PUSH1 0x40 DUP3 ADD SWAP1 POP DUP2 DUP2 SUB PUSH1 0x0 DUP4 ADD MSTORE PUSH2 0x6AA4 DUP2 DUP6 PUSH2 0x5F89 JUMP JUMPDEST SWAP1 POP PUSH2 0x6AB3 PUSH1 0x20 DUP4 ADD DUP5 PUSH2 0x691C JUMP JUMPDEST SWAP4 SWAP3 POP POP POP JUMP JUMPDEST PUSH1 0x0 PUSH1 0x20 DUP3 ADD SWAP1 POP PUSH2 0x6ACF PUSH1 0x0 DUP4 ADD DUP5 PUSH2 0x5FFE JUMP JUMPDEST SWAP3 SWAP2 POP POP JUMP JUMPDEST PUSH1 0x0 PUSH1 0x20 DUP3 ADD SWAP1 POP PUSH2 0x6AEA PUSH1 0x0 DUP4 ADD DUP5 PUSH2 0x600D JUMP JUMPDEST SWAP3 SWAP2 POP POP JUMP JUMPDEST PUSH1 0x0 PUSH1 0x20 DUP3 ADD SWAP1 POP PUSH2 0x6B05 PUSH1 0x0 DUP4 ADD DUP5 PUSH2 0x611D JUMP JUMPDEST SWAP3 SWAP2 POP POP JUMP JUMPDEST PUSH1 0x0 PUSH1 0x20 DUP3 ADD SWAP1 POP PUSH2 0x6B20 PUSH1 0x0 DUP4 ADD DUP5 PUSH2 0x612C JUMP JUMPDEST SWAP3 SWAP2 POP POP JUMP JUMPDEST PUSH1 0x0 PUSH1 0x20 DUP3 ADD SWAP1 POP PUSH2 0x6B3B PUSH1 0x0 DUP4 ADD DUP5 PUSH2 0x613B JUMP JUMPDEST SWAP3 SWAP2 POP POP JUMP JUMPDEST PUSH1 0x0 PUSH1 0x20 DUP3 ADD SWAP1 POP DUP2 DUP2 SUB PUSH1 0x0 DUP4 ADD MSTORE PUSH2 0x6B5B DUP2 DUP5 PUSH2 0x614A JUMP JUMPDEST SWAP1 POP SWAP3 SWAP2 POP POP JUMP JUMPDEST PUSH1 0x0 PUSH1 0x20 DUP3 ADD SWAP1 POP DUP2 DUP2 SUB PUSH1 0x0 DUP4 ADD MSTORE PUSH2 0x6B7C DUP2 PUSH2 0x6183 JUMP JUMPDEST SWAP1 POP SWAP2 SWAP1 POP JUMP JUMPDEST PUSH1 0x0 PUSH1 0x20 DUP3 ADD SWAP1 POP DUP2 DUP2 SUB PUSH1 0x0 DUP4 ADD MSTORE PUSH2 0x6B9C DUP2 PUSH2 0x61E9 JUMP JUMPDEST SWAP1 POP SWAP2 SWAP1 POP JUMP JUMPDEST PUSH1 0x0 PUSH1 0x20 DUP3 ADD SWAP1 POP DUP2 DUP2 SUB PUSH1 0x0 DUP4 ADD MSTORE PUSH2 0x6BBC DUP2 PUSH2 0x624F JUMP JUMPDEST SWAP1 POP SWAP2 SWAP1 POP JUMP JUMPDEST PUSH1 0x0 PUSH1 0x20 DUP3 ADD SWAP1 POP DUP2 DUP2 SUB PUSH1 0x0 DUP4 ADD MSTORE PUSH2 0x6BDC DUP2 PUSH2 0x628F JUMP JUMPDEST SWAP1 POP SWAP2 SWAP1 POP JUMP JUMPDEST PUSH1 0x0 PUSH1 0x20 DUP3 ADD SWAP1 POP DUP2 DUP2 SUB PUSH1 0x0 DUP4 ADD MSTORE PUSH2 0x6BFC DUP2 PUSH2 0x62F5 JUMP JUMPDEST SWAP1 POP SWAP2 SWAP1 POP JUMP JUMPDEST PUSH1 0x0 PUSH1 0x20 DUP3 ADD SWAP1 POP DUP2 DUP2 SUB PUSH1 0x0 DUP4 ADD MSTORE PUSH2 0x6C1C DUP2 PUSH2 0x635B JUMP JUMPDEST SWAP1 POP SWAP2 SWAP1 POP JUMP JUMPDEST PUSH1 0x0 PUSH1 0x20 DUP3 ADD SWAP1 POP DUP2 DUP2 SUB PUSH1 0x0 DUP4 ADD MSTORE PUSH2 0x6C3C DUP2 PUSH2 0x639B JUMP JUMPDEST SWAP1 POP SWAP2 SWAP1 POP JUMP JUMPDEST PUSH1 0x0 PUSH1 0x20 DUP3 ADD SWAP1 POP DUP2 DUP2 SUB PUSH1 0x0 DUP4 ADD MSTORE PUSH2 0x6C5C DUP2 PUSH2 0x6401 JUMP JUMPDEST SWAP1 POP SWAP2 SWAP1 POP JUMP JUMPDEST PUSH1 0x0 PUSH1 0x20 DUP3 ADD SWAP1 POP DUP2 DUP2 SUB PUSH1 0x0 DUP4 ADD MSTORE PUSH2 0x6C7C DUP2 PUSH2 0x6441 JUMP JUMPDEST SWAP1 POP SWAP2 SWAP1 POP JUMP JUMPDEST PUSH1 0x0 PUSH1 0x20 DUP3 ADD SWAP1 POP DUP2 DUP2 SUB PUSH1 0x0 DUP4 ADD MSTORE PUSH2 0x6C9C DUP2 PUSH2 0x64A7 JUMP JUMPDEST SWAP1 POP SWAP2 SWAP1 POP JUMP JUMPDEST PUSH1 0x0 PUSH1 0x20 DUP3 ADD SWAP1 POP DUP2 DUP2 SUB PUSH1 0x0 DUP4 ADD MSTORE PUSH2 0x6CBC DUP2 PUSH2 0x650D JUMP JUMPDEST SWAP1 POP SWAP2 SWAP1 POP JUMP JUMPDEST PUSH1 0x0 PUSH1 0x20 DUP3 ADD SWAP1 POP DUP2 DUP2 SUB PUSH1 0x0 DUP4 ADD MSTORE PUSH2 0x6CDC DUP2 PUSH2 0x654D JUMP JUMPDEST SWAP1 POP SWAP2 SWAP1 POP JUMP JUMPDEST PUSH1 0x0 PUSH1 0x20 DUP3 ADD SWAP1 POP DUP2 DUP2 SUB PUSH1 0x0 DUP4 ADD MSTORE PUSH2 0x6CFC DUP2 PUSH2 0x65B3 JUMP JUMPDEST SWAP1 POP SWAP2 SWAP1 POP JUMP JUMPDEST PUSH1 0x0 PUSH1 0x20 DUP3 ADD SWAP1 POP DUP2 DUP2 SUB PUSH1 0x0 DUP4 ADD MSTORE PUSH2 0x6D1C DUP2 PUSH2 0x65F3 JUMP JUMPDEST SWAP1 POP SWAP2 SWAP1 POP JUMP JUMPDEST PUSH1 0x0 PUSH1 0x20 DUP3 ADD SWAP1 POP DUP2 DUP2 SUB PUSH1 0x0 DUP4 ADD MSTORE PUSH2 0x6D3C DUP2 PUSH2 0x667F JUMP JUMPDEST SWAP1 POP SWAP2 SWAP1 POP JUMP JUMPDEST PUSH1 0x0 PUSH1 0x20 DUP3 ADD SWAP1 POP DUP2 DUP2 SUB PUSH1 0x0 DUP4 ADD MSTORE PUSH2 0x6D5C DUP2 PUSH2 0x66E5 JUMP JUMPDEST SWAP1 POP SWAP2 SWAP1 POP JUMP JUMPDEST PUSH1 0x0 PUSH1 0x20 DUP3 ADD SWAP1 POP DUP2 DUP2 SUB PUSH1 0x0 DUP4 ADD MSTORE PUSH2 0x6D7C DUP2 PUSH2 0x674B JUMP JUMPDEST SWAP1 POP SWAP2 SWAP1 POP JUMP JUMPDEST PUSH1 0x0 PUSH1 0x20 DUP3 ADD SWAP1 POP DUP2 DUP2 SUB PUSH1 0x0 DUP4 ADD MSTORE PUSH2 0x6D9C DUP2 PUSH2 0x67B1 JUMP JUMPDEST SWAP1 POP SWAP2 SWAP1 POP JUMP JUMPDEST PUSH1 0x0 PUSH1 0x20 DUP3 ADD SWAP1 POP DUP2 DUP2 SUB PUSH1 0x0 DUP4 ADD MSTORE PUSH2 0x6DBC DUP2 PUSH2 0x6817 JUMP JUMPDEST SWAP1 POP SWAP2 SWAP1 POP JUMP JUMPDEST PUSH1 0x0 PUSH1 0x20 DUP3 ADD SWAP1 POP DUP2 DUP2 SUB PUSH1 0x0 DUP4 ADD MSTORE PUSH2 0x6DDC DUP2 PUSH2 0x6857 JUMP JUMPDEST SWAP1 POP SWAP2 SWAP1 POP JUMP JUMPDEST PUSH1 0x0 PUSH1 0x20 DUP3 ADD SWAP1 POP PUSH2 0x6DF8 PUSH1 0x0 DUP4 ADD DUP5 PUSH2 0x691C JUMP JUMPDEST SWAP3 SWAP2 POP POP JUMP JUMPDEST PUSH1 0x0 PUSH1 0x40 DUP3 ADD SWAP1 POP PUSH2 0x6E13 PUSH1 0x0 DUP4 ADD DUP6 PUSH2 0x691C JUMP JUMPDEST PUSH2 0x6E20 PUSH1 0x20 DUP4 ADD DUP5 PUSH2 0x5EFE JUMP JUMPDEST SWAP4 SWAP3 POP POP POP JUMP JUMPDEST PUSH1 0x0 PUSH1 0x40 DUP3 ADD SWAP1 POP PUSH2 0x6E3C PUSH1 0x0 DUP4 ADD DUP6 PUSH2 0x691C JUMP JUMPDEST DUP2 DUP2 SUB PUSH1 0x20 DUP4 ADD MSTORE PUSH2 0x6E4E DUP2 DUP5 PUSH2 0x601C JUMP JUMPDEST SWAP1 POP SWAP4 SWAP3 POP POP POP JUMP JUMPDEST PUSH1 0x0 PUSH1 0x60 DUP3 ADD SWAP1 POP PUSH2 0x6E6C PUSH1 0x0 DUP4 ADD DUP7 PUSH2 0x691C JUMP JUMPDEST DUP2 DUP2 SUB PUSH1 0x20 DUP4 ADD MSTORE PUSH2 0x6E7E DUP2 DUP6 PUSH2 0x601C JUMP JUMPDEST SWAP1 POP DUP2 DUP2 SUB PUSH1 0x40 DUP4 ADD MSTORE PUSH2 0x6E92 DUP2 DUP5 PUSH2 0x601C JUMP JUMPDEST SWAP1 POP SWAP5 SWAP4 POP POP POP POP JUMP JUMPDEST PUSH1 0x0 PUSH1 0x60 DUP3 ADD SWAP1 POP PUSH2 0x6EB1 PUSH1 0x0 DUP4 ADD DUP7 PUSH2 0x691C JUMP JUMPDEST DUP2 DUP2 SUB PUSH1 0x20 DUP4 ADD MSTORE PUSH2 0x6EC3 DUP2 DUP6 PUSH2 0x601C JUMP JUMPDEST SWAP1 POP PUSH2 0x6ED2 PUSH1 0x40 DUP4 ADD DUP5 PUSH2 0x691C JUMP JUMPDEST SWAP5 SWAP4 POP POP POP POP JUMP JUMPDEST PUSH1 0x0 PUSH1 0x60 DUP3 ADD SWAP1 POP PUSH2 0x6EEF PUSH1 0x0 DUP4 ADD DUP7 PUSH2 0x691C JUMP JUMPDEST DUP2 DUP2 SUB PUSH1 0x20 DUP4 ADD MSTORE PUSH2 0x6F01 DUP2 DUP6 PUSH2 0x608E JUMP JUMPDEST SWAP1 POP PUSH2 0x6F10 PUSH1 0x40 DUP4 ADD DUP5 PUSH2 0x691C JUMP JUMPDEST SWAP5 SWAP4 POP POP POP POP JUMP JUMPDEST PUSH1 0x0 PUSH1 0xA0 DUP3 ADD SWAP1 POP PUSH2 0x6F2D PUSH1 0x0 DUP4 ADD DUP9 PUSH2 0x691C JUMP JUMPDEST PUSH2 0x6F3A PUSH1 0x20 DUP4 ADD DUP8 PUSH2 0x691C JUMP JUMPDEST PUSH2 0x6F47 PUSH1 0x40 DUP4 ADD DUP7 PUSH2 0x691C JUMP JUMPDEST PUSH2 0x6F54 PUSH1 0x60 DUP4 ADD DUP6 PUSH2 0x5FFE JUMP JUMPDEST PUSH2 0x6F61 PUSH1 0x80 DUP4 ADD DUP5 PUSH2 0x5FFE JUMP JUMPDEST SWAP7 SWAP6 POP POP POP POP POP POP JUMP JUMPDEST PUSH1 0x0 PUSH1 0x20 DUP3 ADD SWAP1 POP PUSH2 0x6F80 PUSH1 0x0 DUP4 ADD DUP5 PUSH2 0x692B JUMP JUMPDEST SWAP3 SWAP2 POP POP JUMP JUMPDEST PUSH1 0x0 PUSH1 0x40 MLOAD SWAP1 POP DUP2 DUP2 ADD DUP2 DUP2 LT PUSH8 0xFFFFFFFFFFFFFFFF DUP3 GT OR ISZERO PUSH2 0x6FA9 JUMPI PUSH1 0x0 DUP1 REVERT JUMPDEST DUP1 PUSH1 0x40 MSTORE POP SWAP2 SWAP1 POP JUMP JUMPDEST PUSH1 0x0 PUSH8 0xFFFFFFFFFFFFFFFF DUP3 GT ISZERO PUSH2 0x6FCA JUMPI PUSH1 0x0 DUP1 REVERT JUMPDEST PUSH1 0x20 DUP3 MUL SWAP1 POP PUSH1 0x20 DUP2 ADD SWAP1 POP SWAP2 SWAP1 POP JUMP JUMPDEST PUSH1 0x0 PUSH8 0xFFFFFFFFFFFFFFFF DUP3 GT ISZERO PUSH2 0x6FF2 JUMPI PUSH1 0x0 DUP1 REVERT JUMPDEST PUSH1 0x20 DUP3 MUL SWAP1 POP PUSH1 0x20 DUP2 ADD SWAP1 POP SWAP2 SWAP1 POP JUMP JUMPDEST PUSH1 0x0 PUSH8 0xFFFFFFFFFFFFFFFF DUP3 GT ISZERO PUSH2 0x701A JUMPI PUSH1 0x0 DUP1 REVERT JUMPDEST PUSH1 0x20 DUP3 MUL SWAP1 POP PUSH1 0x20 DUP2 ADD SWAP1 POP SWAP2 SWAP1 POP JUMP JUMPDEST PUSH1 0x0 PUSH8 0xFFFFFFFFFFFFFFFF DUP3 GT ISZERO PUSH2 0x7042 JUMPI PUSH1 0x0 DUP1 REVERT JUMPDEST PUSH1 0x1F NOT PUSH1 0x1F DUP4 ADD AND SWAP1 POP PUSH1 0x20 DUP2 ADD SWAP1 POP SWAP2 SWAP1 POP JUMP JUMPDEST PUSH1 0x0 PUSH8 0xFFFFFFFFFFFFFFFF DUP3 GT ISZERO PUSH2 0x706E JUMPI PUSH1 0x0 DUP1 REVERT JUMPDEST PUSH1 0x1F NOT PUSH1 0x1F DUP4 ADD AND SWAP1 POP PUSH1 0x20 DUP2 ADD SWAP1 POP SWAP2 SWAP1 POP JUMP JUMPDEST PUSH1 0x0 DUP2 SWAP1 POP PUSH1 0x20 DUP3 ADD SWAP1 POP SWAP2 SWAP1 POP JUMP JUMPDEST PUSH1 0x0 DUP2 SWAP1 POP PUSH1 0x20 DUP3 ADD SWAP1 POP SWAP2 SWAP1 POP JUMP JUMPDEST PUSH1 0x0 DUP2 SWAP1 POP DUP2 PUSH1 0x0 MSTORE PUSH1 0x20 PUSH1 0x0 KECCAK256 SWAP1 POP SWAP2 SWAP1 POP JUMP JUMPDEST PUSH1 0x0 DUP2 MLOAD SWAP1 POP SWAP2 SWAP1 POP JUMP JUMPDEST PUSH1 0x0 DUP2 MLOAD SWAP1 POP SWAP2 SWAP1 POP JUMP JUMPDEST PUSH1 0x0 DUP2 MLOAD SWAP1 POP SWAP2 SWAP1 POP JUMP JUMPDEST PUSH1 0x0 DUP2 MLOAD SWAP1 POP SWAP2 SWAP1 POP JUMP JUMPDEST PUSH1 0x0 DUP2 MLOAD SWAP1 POP SWAP2 SWAP1 POP JUMP JUMPDEST PUSH1 0x0 PUSH1 0x20 DUP3 ADD SWAP1 POP SWAP2 SWAP1 POP JUMP JUMPDEST PUSH1 0x0 PUSH1 0x20 DUP3 ADD SWAP1 POP SWAP2 SWAP1 POP JUMP JUMPDEST PUSH1 0x0 DUP3 DUP3 MSTORE PUSH1 0x20 DUP3 ADD SWAP1 POP SWAP3 SWAP2 POP POP JUMP JUMPDEST PUSH1 0x0 DUP3 DUP3 MSTORE PUSH1 0x20 DUP3 ADD SWAP1 POP SWAP3 SWAP2 POP POP JUMP JUMPDEST PUSH1 0x0 DUP3 DUP3 MSTORE PUSH1 0x20 DUP3 ADD SWAP1 POP SWAP3 SWAP2 POP POP JUMP JUMPDEST PUSH1 0x0 DUP3 DUP3 MSTORE PUSH1 0x20 DUP3 ADD SWAP1 POP SWAP3 SWAP2 POP POP JUMP JUMPDEST PUSH1 0x0 DUP3 DUP3 MSTORE PUSH1 0x20 DUP3 ADD SWAP1 POP SWAP3 SWAP2 POP POP JUMP JUMPDEST PUSH1 0x0 PUSH2 0x7169 DUP3 PUSH2 0x7198 JUMP JUMPDEST SWAP1 POP SWAP2 SWAP1 POP JUMP JUMPDEST PUSH1 0x0 PUSH2 0x717B DUP3 PUSH2 0x7198 JUMP JUMPDEST SWAP1 POP SWAP2 SWAP1 POP JUMP JUMPDEST PUSH1 0x0 DUP2 ISZERO ISZERO SWAP1 POP SWAP2 SWAP1 POP JUMP JUMPDEST PUSH1 0x0 DUP2 SWAP1 POP SWAP2 SWAP1 POP JUMP JUMPDEST PUSH1 0x0 PUSH20 0xFFFFFFFFFFFFFFFFFFFFFFFFFFFFFFFFFFFFFFFF DUP3 AND SWAP1 POP SWAP2 SWAP1 POP JUMP JUMPDEST PUSH1 0x0 DUP2 SWAP1 POP SWAP2 SWAP1 POP JUMP JUMPDEST PUSH1 0x0 PUSH1 0xFF DUP3 AND SWAP1 POP SWAP2 SWAP1 POP JUMP JUMPDEST PUSH1 0x0 PUSH2 0x71DA DUP3 PUSH2 0x724D JUMP JUMPDEST SWAP1 POP SWAP2 SWAP1 POP JUMP JUMPDEST PUSH1 0x0 PUSH2 0x71EC DUP3 PUSH2 0x71F3 JUMP JUMPDEST SWAP1 POP SWAP2 SWAP1 POP JUMP JUMPDEST PUSH1 0x0 PUSH2 0x71FE DUP3 PUSH2 0x7198 JUMP JUMPDEST SWAP1 POP SWAP2 SWAP1 POP JUMP JUMPDEST PUSH1 0x0 PUSH2 0x7210 DUP3 PUSH2 0x7217 JUMP JUMPDEST SWAP1 POP SWAP2 SWAP1 POP JUMP JUMPDEST PUSH1 0x0 PUSH2 0x7222 DUP3 PUSH2 0x7198 JUMP JUMPDEST SWAP1 POP SWAP2 SWAP1 POP JUMP JUMPDEST PUSH1 0x0 PUSH2 0x7234 DUP3 PUSH2 0x723B JUMP JUMPDEST SWAP1 POP SWAP2 SWAP1 POP JUMP JUMPDEST PUSH1 0x0 PUSH2 0x7246 DUP3 PUSH2 0x7198 JUMP JUMPDEST SWAP1 POP SWAP2 SWAP1 POP JUMP JUMPDEST PUSH1 0x0 PUSH2 0x7258 DUP3 PUSH2 0x725F JUMP JUMPDEST SWAP1 POP SWAP2 SWAP1 POP JUMP JUMPDEST PUSH1 0x0 PUSH2 0x726A DUP3 PUSH2 0x7198 JUMP JUMPDEST SWAP1 POP SWAP2 SWAP1 POP JUMP JUMPDEST DUP3 DUP2 DUP4 CALLDATACOPY PUSH1 0x0 DUP4 DUP4 ADD MSTORE POP POP POP JUMP JUMPDEST PUSH1 0x0 JUMPDEST DUP4 DUP2 LT ISZERO PUSH2 0x729E JUMPI DUP1 DUP3 ADD MLOAD DUP2 DUP5 ADD MSTORE PUSH1 0x20 DUP2 ADD SWAP1 POP PUSH2 0x7283 JUMP JUMPDEST DUP4 DUP2 GT ISZERO PUSH2 0x72AD JUMPI PUSH1 0x0 DUP5 DUP5 ADD MSTORE JUMPDEST POP POP POP POP JUMP JUMPDEST PUSH1 0x0 PUSH1 0x1F NOT PUSH1 0x1F DUP4 ADD AND SWAP1 POP SWAP2 SWAP1 POP JUMP JUMPDEST PUSH2 0x72CD DUP2 PUSH2 0x715E JUMP JUMPDEST DUP2 EQ PUSH2 0x72D8 JUMPI PUSH1 0x0 DUP1 REVERT JUMPDEST POP JUMP JUMPDEST PUSH2 0x72E4 DUP2 PUSH2 0x7170 JUMP JUMPDEST DUP2 EQ PUSH2 0x72EF JUMPI PUSH1 0x0 DUP1 REVERT JUMPDEST POP JUMP JUMPDEST PUSH2 0x72FB DUP2 PUSH2 0x7182 JUMP JUMPDEST DUP2 EQ PUSH2 0x7306 JUMPI PUSH1 0x0 DUP1 REVERT JUMPDEST POP JUMP JUMPDEST PUSH2 0x7312 DUP2 PUSH2 0x718E JUMP JUMPDEST DUP2 EQ PUSH2 0x731D JUMPI PUSH1 0x0 DUP1 REVERT JUMPDEST POP JUMP JUMPDEST PUSH2 0x7329 DUP2 PUSH2 0x71B8 JUMP JUMPDEST DUP2 EQ PUSH2 0x7334 JUMPI PUSH1 0x0 DUP1 REVERT JUMPDEST POP JUMP INVALID GASLIMIT MSTORE NUMBER CALLDATACOPY CALLDATACOPY CALLDATACOPY GASPRICE KECCAK256 PUSH21 0x72616E7366657220616D6F756E7420657863656564 PUSH20 0x2062616C616E6365444441492E61636365707452 PUSH6 0x6C6179656443 PUSH2 0x6C6C GASPRICE KECCAK256 0x4e 0x4f SLOAD 0x5f GASLIMIT 0x4e 0x4f SSTORE SELFBALANCE 0x48 0x5f DIFFICULTY DIFFICULTY COINBASE 0x49 0x5f TIMESTAMP COINBASE 0x4c COINBASE 0x4e NUMBER GASLIMIT GASLIMIT MSTORE NUMBER CALLDATACOPY CALLDATACOPY CALLDATACOPY GASPRICE KECCAK256 PUSH21 0x72616E7366657220616D6F756E7420657863656564 PUSH20 0x20616C6C6F77616E63654552433737373A206275 PUSH19 0x6E20616D6F756E742065786365656473206261 PUSH13 0x616E6365A365627A7A72315820 0xb9 DUP5 REVERT OR 0xb9 GASLIMIT PUSH5 0x7F9F14053F 0xfc 0x29 0x26 PUSH31 0xA052631D4D8713C0CC16132085196DB56C6578706572696D656E74616CF564 PUSH20 0x6F6C634300050C00400000000000000000000000 "
			}
		}
	},
	"sourceTreeHashHex": "0x2f8b7eb5d416e1357eb45274ecba40b97f6e79c0e07c194c2f46c82b0fed0fc7",
	"compiler": {
		"name": "solc",
		"version": "soljson-v0.5.12+commit.7709ece9.js",
		"settings": {
			"optimizer": {
				"enabled": false
			},
			"outputSelection": {
				"*": {
					"*": [
						"abi",
						"evm.bytecode.object"
					]
				}
			},
			"remappings": [
				"openzeppelin-solidity=/Users/mickdegraaf/DDAI/node_modules/openzeppelin-solidity"
			]
		}
	}
}