{
	"schemaVersion": "2.0.0",
	"contractName": "DDAI",
	"compilerOutput": {
		"abi": [
			{
				"inputs": [
					{
						"internalType": "address",
						"name": "_moneyMarket",
						"type": "address"
					},
					{
						"internalType": "address",
						"name": "_token",
						"type": "address"
					},
					{
						"internalType": "string",
						"name": "_name",
						"type": "string"
					},
					{
						"internalType": "string",
						"name": "_symbol",
						"type": "string"
					},
					{
						"internalType": "address[]",
						"name": "_operators",
						"type": "address[]"
					}
				],
				"payable": false,
				"stateMutability": "nonpayable",
				"type": "constructor"
			},
			{
				"anonymous": false,
				"inputs": [
					{
						"indexed": true,
						"internalType": "address",
						"name": "owner",
						"type": "address"
					},
					{
						"indexed": true,
						"internalType": "address",
						"name": "spender",
						"type": "address"
					},
					{
						"indexed": false,
						"internalType": "uint256",
						"name": "value",
						"type": "uint256"
					}
				],
				"name": "Approval",
				"type": "event"
			},
			{
				"anonymous": false,
				"inputs": [
					{
						"indexed": true,
						"internalType": "address",
						"name": "operator",
						"type": "address"
					},
					{
						"indexed": true,
						"internalType": "address",
						"name": "tokenHolder",
						"type": "address"
					}
				],
				"name": "AuthorizedOperator",
				"type": "event"
			},
			{
				"anonymous": false,
				"inputs": [
					{
						"indexed": true,
						"internalType": "address",
						"name": "operator",
						"type": "address"
					},
					{
						"indexed": true,
						"internalType": "address",
						"name": "from",
						"type": "address"
					},
					{
						"indexed": false,
						"internalType": "uint256",
						"name": "amount",
						"type": "uint256"
					},
					{
						"indexed": false,
						"internalType": "bytes",
						"name": "data",
						"type": "bytes"
					},
					{
						"indexed": false,
						"internalType": "bytes",
						"name": "operatorData",
						"type": "bytes"
					}
				],
				"name": "Burned",
				"type": "event"
			},
			{
				"anonymous": false,
				"inputs": [
					{
						"indexed": true,
						"internalType": "address",
						"name": "_receiver",
						"type": "address"
					},
					{
						"indexed": false,
						"internalType": "uint256",
						"name": "_amount",
						"type": "uint256"
					},
					{
						"indexed": true,
						"internalType": "address",
						"name": "_operator",
						"type": "address"
					}
				],
				"name": "DDAIMinted",
				"type": "event"
			},
			{
				"anonymous": false,
				"inputs": [
					{
						"indexed": true,
						"internalType": "address",
						"name": "_receiver",
						"type": "address"
					},
					{
						"indexed": false,
						"internalType": "uint256",
						"name": "_amount",
						"type": "uint256"
					},
					{
						"indexed": true,
						"internalType": "address",
						"name": "_operator",
						"type": "address"
					}
				],
				"name": "DDAIRedeemed",
				"type": "event"
			},
			{
				"anonymous": false,
				"inputs": [
					{
						"indexed": true,
						"internalType": "address",
						"name": "_receiver",
						"type": "address"
					},
					{
						"indexed": false,
						"internalType": "uint256",
						"name": "_interestEarned",
						"type": "uint256"
					}
				],
				"name": "InterestClaimed",
				"type": "event"
			},
			{
				"anonymous": false,
				"inputs": [
					{
						"indexed": true,
						"internalType": "address",
						"name": "operator",
						"type": "address"
					},
					{
						"indexed": true,
						"internalType": "address",
						"name": "to",
						"type": "address"
					},
					{
						"indexed": false,
						"internalType": "uint256",
						"name": "amount",
						"type": "uint256"
					},
					{
						"indexed": false,
						"internalType": "bytes",
						"name": "data",
						"type": "bytes"
					},
					{
						"indexed": false,
						"internalType": "bytes",
						"name": "operatorData",
						"type": "bytes"
					}
				],
				"name": "Minted",
				"type": "event"
			},
			{
				"anonymous": false,
				"inputs": [
					{
						"indexed": true,
						"internalType": "address",
						"name": "_account",
						"type": "address"
					},
					{
						"indexed": true,
						"internalType": "address",
						"name": "_receiver",
						"type": "address"
					},
					{
						"indexed": false,
						"internalType": "uint256",
						"name": "_ratio",
						"type": "uint256"
					},
					{
						"indexed": false,
						"internalType": "bytes",
						"name": "_data",
						"type": "bytes"
					},
					{
						"indexed": false,
						"internalType": "uint256",
						"name": "_index",
						"type": "uint256"
					}
				],
				"name": "RecipeAdded",
				"type": "event"
			},
			{
				"anonymous": false,
				"inputs": [
					{
						"indexed": true,
						"internalType": "address",
						"name": "_account",
						"type": "address"
					},
					{
						"indexed": true,
						"internalType": "address",
						"name": "_receiver",
						"type": "address"
					},
					{
						"indexed": false,
						"internalType": "uint256",
						"name": "_ratio",
						"type": "uint256"
					},
					{
						"indexed": false,
						"internalType": "bytes",
						"name": "_data",
						"type": "bytes"
					},
					{
						"indexed": false,
						"internalType": "uint256",
						"name": "_index",
						"type": "uint256"
					}
				],
				"name": "RecipeRemoved",
				"type": "event"
			},
			{
				"anonymous": false,
				"inputs": [
					{
						"indexed": true,
						"internalType": "address",
						"name": "operator",
						"type": "address"
					},
					{
						"indexed": true,
						"internalType": "address",
						"name": "tokenHolder",
						"type": "address"
					}
				],
				"name": "RevokedOperator",
				"type": "event"
			},
			{
				"anonymous": false,
				"inputs": [
					{
						"indexed": true,
						"internalType": "address",
						"name": "operator",
						"type": "address"
					},
					{
						"indexed": true,
						"internalType": "address",
						"name": "from",
						"type": "address"
					},
					{
						"indexed": true,
						"internalType": "address",
						"name": "to",
						"type": "address"
					},
					{
						"indexed": false,
						"internalType": "uint256",
						"name": "amount",
						"type": "uint256"
					},
					{
						"indexed": false,
						"internalType": "bytes",
						"name": "data",
						"type": "bytes"
					},
					{
						"indexed": false,
						"internalType": "bytes",
						"name": "operatorData",
						"type": "bytes"
					}
				],
				"name": "Sent",
				"type": "event"
			},
			{
				"anonymous": false,
				"inputs": [
					{
						"indexed": true,
						"internalType": "address",
						"name": "_receiver",
						"type": "address"
					},
					{
						"indexed": false,
						"internalType": "uint256",
						"name": "_amount",
						"type": "uint256"
					}
				],
				"name": "StackDistributed",
				"type": "event"
			},
			{
				"anonymous": false,
				"inputs": [
					{
						"indexed": true,
						"internalType": "address",
						"name": "from",
						"type": "address"
					},
					{
						"indexed": true,
						"internalType": "address",
						"name": "to",
						"type": "address"
					},
					{
						"indexed": false,
						"internalType": "uint256",
						"name": "value",
						"type": "uint256"
					}
				],
				"name": "Transfer",
				"type": "event"
			},
			{
				"constant": true,
				"inputs": [
					{
						"internalType": "address",
						"name": "",
						"type": "address"
					}
				],
				"name": "accountDataOf",
				"outputs": [
					{
						"internalType": "uint256",
						"name": "lastTokenPrice",
						"type": "uint256"
					},
					{
						"internalType": "uint256",
						"name": "stack",
						"type": "uint256"
					},
					{
						"internalType": "uint256",
						"name": "totalRatio",
						"type": "uint256"
					},
					{
						"internalType": "bool",
						"name": "receiveToStack",
						"type": "bool"
					},
					{
						"internalType": "bool",
						"name": "notStackInterest",
						"type": "bool"
					}
				],
				"payable": false,
				"stateMutability": "view",
				"type": "function"
			},
			{
				"constant": false,
				"inputs": [
					{
						"internalType": "address",
						"name": "_receiver",
						"type": "address"
					},
					{
						"internalType": "uint256",
						"name": "_ratio",
						"type": "uint256"
					},
					{
						"internalType": "bytes",
						"name": "_data",
						"type": "bytes"
					}
				],
				"name": "addRecipe",
				"outputs": [
					{
						"internalType": "bool",
						"name": "",
						"type": "bool"
					}
				],
				"payable": false,
				"stateMutability": "nonpayable",
				"type": "function"
			},
			{
				"constant": true,
				"inputs": [
					{
						"internalType": "address",
						"name": "holder",
						"type": "address"
					},
					{
						"internalType": "address",
						"name": "spender",
						"type": "address"
					}
				],
				"name": "allowance",
				"outputs": [
					{
						"internalType": "uint256",
						"name": "",
						"type": "uint256"
					}
				],
				"payable": false,
				"stateMutability": "view",
				"type": "function"
			},
			{
				"constant": false,
				"inputs": [
					{
						"internalType": "address",
						"name": "spender",
						"type": "address"
					},
					{
						"internalType": "uint256",
						"name": "value",
						"type": "uint256"
					}
				],
				"name": "approve",
				"outputs": [
					{
						"internalType": "bool",
						"name": "",
						"type": "bool"
					}
				],
				"payable": false,
				"stateMutability": "nonpayable",
				"type": "function"
			},
			{
				"constant": false,
				"inputs": [
					{
						"internalType": "address",
						"name": "operator",
						"type": "address"
					}
				],
				"name": "authorizeOperator",
				"outputs": [],
				"payable": false,
				"stateMutability": "nonpayable",
				"type": "function"
			},
			{
				"constant": true,
				"inputs": [
					{
						"internalType": "address",
						"name": "_account",
						"type": "address"
					}
				],
				"name": "balanceOf",
				"outputs": [
					{
						"internalType": "uint256",
						"name": "",
						"type": "uint256"
					}
				],
				"payable": false,
				"stateMutability": "view",
				"type": "function"
			},
			{
				"constant": false,
				"inputs": [
					{
						"internalType": "uint256",
						"name": "amount",
						"type": "uint256"
					},
					{
						"internalType": "bytes",
						"name": "data",
						"type": "bytes"
					}
				],
				"name": "burn",
				"outputs": [],
				"payable": false,
				"stateMutability": "nonpayable",
				"type": "function"
			},
			{
				"constant": false,
				"inputs": [
					{
						"internalType": "address",
						"name": "_receiver",
						"type": "address"
					}
				],
				"name": "claimInterest",
				"outputs": [],
				"payable": false,
				"stateMutability": "nonpayable",
				"type": "function"
			},
			{
				"constant": false,
				"inputs": [],
				"name": "clearRecipes",
				"outputs": [],
				"payable": false,
				"stateMutability": "nonpayable",
				"type": "function"
			},
			{
				"constant": true,
				"inputs": [],
				"name": "decimals",
				"outputs": [
					{
						"internalType": "uint8",
						"name": "",
						"type": "uint8"
					}
				],
				"payable": false,
				"stateMutability": "pure",
				"type": "function"
			},
			{
				"constant": true,
				"inputs": [],
				"name": "defaultOperators",
				"outputs": [
					{
						"internalType": "address[]",
						"name": "",
						"type": "address[]"
					}
				],
				"payable": false,
				"stateMutability": "view",
				"type": "function"
			},
			{
				"constant": false,
				"inputs": [
					{
						"internalType": "address",
						"name": "_account",
						"type": "address"
					}
				],
				"name": "distributeStack",
				"outputs": [],
				"payable": false,
				"stateMutability": "nonpayable",
				"type": "function"
			},
			{
				"constant": true,
				"inputs": [
					{
						"internalType": "address",
						"name": "_account",
						"type": "address"
					}
				],
				"name": "getOutStandingInterest",
				"outputs": [
					{
						"internalType": "uint256",
						"name": "",
						"type": "uint256"
					}
				],
				"payable": false,
				"stateMutability": "view",
				"type": "function"
			},
			{
				"constant": true,
				"inputs": [
					{
						"internalType": "address",
						"name": "_account",
						"type": "address"
					}
				],
				"name": "getRecipesOf",
				"outputs": [
					{
						"components": [
							{
								"internalType": "address",
								"name": "receiver",
								"type": "address"
							},
							{
								"internalType": "uint256",
								"name": "ratio",
								"type": "uint256"
							},
							{
								"internalType": "bytes",
								"name": "data",
								"type": "bytes"
							}
						],
						"internalType": "struct DDAI.Recipe[]",
						"name": "recipes",
						"type": "tuple[]"
					},
					{
						"internalType": "uint256",
						"name": "totalRatio",
						"type": "uint256"
					}
				],
				"payable": false,
				"stateMutability": "view",
				"type": "function"
			},
			{
				"constant": true,
				"inputs": [
					{
						"internalType": "address",
						"name": "_account",
						"type": "address"
					}
				],
				"name": "getStack",
				"outputs": [
					{
						"internalType": "uint256",
						"name": "",
						"type": "uint256"
					}
				],
				"payable": false,
				"stateMutability": "view",
				"type": "function"
			},
			{
				"constant": true,
				"inputs": [
					{
						"internalType": "address",
						"name": "_account",
						"type": "address"
					}
				],
				"name": "getTotalBalance",
				"outputs": [
					{
						"internalType": "uint256",
						"name": "",
						"type": "uint256"
					}
				],
				"payable": false,
				"stateMutability": "view",
				"type": "function"
			},
			{
				"constant": true,
				"inputs": [],
				"name": "granularity",
				"outputs": [
					{
						"internalType": "uint256",
						"name": "",
						"type": "uint256"
					}
				],
				"payable": false,
				"stateMutability": "view",
				"type": "function"
			},
			{
				"constant": true,
				"inputs": [
					{
						"internalType": "address",
						"name": "operator",
						"type": "address"
					},
					{
						"internalType": "address",
						"name": "tokenHolder",
						"type": "address"
					}
				],
				"name": "isOperatorFor",
				"outputs": [
					{
						"internalType": "bool",
						"name": "",
						"type": "bool"
					}
				],
				"payable": false,
				"stateMutability": "view",
				"type": "function"
			},
			{
				"constant": false,
				"inputs": [
					{
						"internalType": "address",
						"name": "_receiver",
						"type": "address"
					},
					{
						"internalType": "uint256",
						"name": "_amount",
						"type": "uint256"
					}
				],
				"name": "mint",
				"outputs": [],
				"payable": false,
				"stateMutability": "nonpayable",
				"type": "function"
			},
			{
				"constant": false,
				"inputs": [
					{
						"internalType": "address",
						"name": "_receiver",
						"type": "address"
					},
					{
						"internalType": "uint256",
						"name": "_amount",
						"type": "uint256"
					}
				],
				"name": "mintAndDistribute",
				"outputs": [],
				"payable": false,
				"stateMutability": "nonpayable",
				"type": "function"
			},
			{
				"constant": false,
				"inputs": [
					{
						"internalType": "uint256",
						"name": "_amount",
						"type": "uint256"
					},
					{
						"internalType": "address[]",
						"name": "_receivers",
						"type": "address[]"
					},
					{
						"internalType": "uint256[]",
						"name": "_ratios",
						"type": "uint256[]"
					},
					{
						"internalType": "bytes[]",
						"name": "_data",
						"type": "bytes[]"
					}
				],
				"name": "mintAndSetRecipes",
				"outputs": [],
				"payable": false,
				"stateMutability": "nonpayable",
				"type": "function"
			},
			{
				"constant": true,
				"inputs": [],
				"name": "moneyMarket",
				"outputs": [
					{
						"internalType": "contract IMoneyMarket",
						"name": "",
						"type": "address"
					}
				],
				"payable": false,
				"stateMutability": "view",
				"type": "function"
			},
			{
				"constant": true,
				"inputs": [],
				"name": "name",
				"outputs": [
					{
						"internalType": "string",
						"name": "",
						"type": "string"
					}
				],
				"payable": false,
				"stateMutability": "view",
				"type": "function"
			},
			{
				"constant": false,
				"inputs": [
					{
						"internalType": "address",
						"name": "account",
						"type": "address"
					},
					{
						"internalType": "uint256",
						"name": "amount",
						"type": "uint256"
					},
					{
						"internalType": "bytes",
						"name": "data",
						"type": "bytes"
					},
					{
						"internalType": "bytes",
						"name": "operatorData",
						"type": "bytes"
					}
				],
				"name": "operatorBurn",
				"outputs": [],
				"payable": false,
				"stateMutability": "nonpayable",
				"type": "function"
			},
			{
				"constant": false,
				"inputs": [
					{
						"internalType": "address",
						"name": "sender",
						"type": "address"
					},
					{
						"internalType": "address",
						"name": "recipient",
						"type": "address"
					},
					{
						"internalType": "uint256",
						"name": "amount",
						"type": "uint256"
					},
					{
						"internalType": "bytes",
						"name": "data",
						"type": "bytes"
					},
					{
						"internalType": "bytes",
						"name": "operatorData",
						"type": "bytes"
					}
				],
				"name": "operatorSend",
				"outputs": [],
				"payable": false,
				"stateMutability": "nonpayable",
				"type": "function"
			},
			{
				"constant": false,
				"inputs": [
					{
						"internalType": "address",
						"name": "_receiver",
						"type": "address"
					},
					{
						"internalType": "uint256",
						"name": "_amount",
						"type": "uint256"
					}
				],
				"name": "redeem",
				"outputs": [
					{
						"internalType": "uint256",
						"name": "",
						"type": "uint256"
					}
				],
				"payable": false,
				"stateMutability": "nonpayable",
				"type": "function"
			},
			{
				"constant": false,
				"inputs": [
					{
						"internalType": "uint256",
						"name": "_index",
						"type": "uint256"
					}
				],
				"name": "removeRecipe",
				"outputs": [
					{
						"internalType": "bool",
						"name": "",
						"type": "bool"
					}
				],
				"payable": false,
				"stateMutability": "nonpayable",
				"type": "function"
			},
			{
				"constant": false,
				"inputs": [
					{
						"internalType": "address",
						"name": "operator",
						"type": "address"
					}
				],
				"name": "revokeOperator",
				"outputs": [],
				"payable": false,
				"stateMutability": "nonpayable",
				"type": "function"
			},
			{
				"constant": false,
				"inputs": [
					{
						"internalType": "address",
						"name": "recipient",
						"type": "address"
					},
					{
						"internalType": "uint256",
						"name": "amount",
						"type": "uint256"
					},
					{
						"internalType": "bytes",
						"name": "data",
						"type": "bytes"
					}
				],
				"name": "send",
				"outputs": [],
				"payable": false,
				"stateMutability": "nonpayable",
				"type": "function"
			},
			{
				"constant": false,
				"inputs": [
					{
						"internalType": "address",
						"name": "_account",
						"type": "address"
					},
					{
						"internalType": "uint256",
						"name": "_amount",
						"type": "uint256"
					}
				],
				"name": "setAndDistributeStack",
				"outputs": [],
				"payable": false,
				"stateMutability": "nonpayable",
				"type": "function"
			},
			{
				"constant": false,
				"inputs": [
					{
						"internalType": "bool",
						"name": "_value",
						"type": "bool"
					}
				],
				"name": "setReceiveToStack",
				"outputs": [],
				"payable": false,
				"stateMutability": "nonpayable",
				"type": "function"
			},
			{
				"constant": false,
				"inputs": [
					{
						"internalType": "address[]",
						"name": "_receivers",
						"type": "address[]"
					},
					{
						"internalType": "uint256[]",
						"name": "_ratios",
						"type": "uint256[]"
					},
					{
						"internalType": "bytes[]",
						"name": "_data",
						"type": "bytes[]"
					}
				],
				"name": "setRecipes",
				"outputs": [],
				"payable": false,
				"stateMutability": "nonpayable",
				"type": "function"
			},
			{
				"constant": false,
				"inputs": [
					{
						"internalType": "address",
						"name": "_account",
						"type": "address"
					},
					{
						"internalType": "uint256",
						"name": "_amount",
						"type": "uint256"
					}
				],
				"name": "setStack",
				"outputs": [],
				"payable": false,
				"stateMutability": "nonpayable",
				"type": "function"
			},
			{
				"constant": false,
				"inputs": [
					{
						"internalType": "address",
						"name": "_account",
						"type": "address"
					},
					{
						"internalType": "bool",
						"name": "_allowed",
						"type": "bool"
					}
				],
				"name": "setStackApproved",
				"outputs": [],
				"payable": false,
				"stateMutability": "nonpayable",
				"type": "function"
			},
			{
				"constant": false,
				"inputs": [
					{
						"internalType": "bool",
						"name": "_value",
						"type": "bool"
					}
				],
				"name": "setStackInterest",
				"outputs": [],
				"payable": false,
				"stateMutability": "nonpayable",
				"type": "function"
			},
			{
				"constant": true,
				"inputs": [],
				"name": "supplyInterestRate",
				"outputs": [
					{
						"internalType": "uint256",
						"name": "",
						"type": "uint256"
					}
				],
				"payable": false,
				"stateMutability": "view",
				"type": "function"
			},
			{
				"constant": true,
				"inputs": [],
				"name": "symbol",
				"outputs": [
					{
						"internalType": "string",
						"name": "",
						"type": "string"
					}
				],
				"payable": false,
				"stateMutability": "view",
				"type": "function"
			},
			{
				"constant": true,
				"inputs": [],
				"name": "token",
				"outputs": [
					{
						"internalType": "contract IERC20",
						"name": "",
						"type": "address"
					}
				],
				"payable": false,
				"stateMutability": "view",
				"type": "function"
			},
			{
				"constant": true,
				"inputs": [],
				"name": "totalSupply",
				"outputs": [
					{
						"internalType": "uint256",
						"name": "",
						"type": "uint256"
					}
				],
				"payable": false,
				"stateMutability": "view",
				"type": "function"
			},
			{
				"constant": false,
				"inputs": [
					{
						"internalType": "address",
						"name": "recipient",
						"type": "address"
					},
					{
						"internalType": "uint256",
						"name": "amount",
						"type": "uint256"
					}
				],
				"name": "transfer",
				"outputs": [
					{
						"internalType": "bool",
						"name": "",
						"type": "bool"
					}
				],
				"payable": false,
				"stateMutability": "nonpayable",
				"type": "function"
			},
			{
				"constant": false,
				"inputs": [
					{
						"internalType": "address",
						"name": "holder",
						"type": "address"
					},
					{
						"internalType": "address",
						"name": "recipient",
						"type": "address"
					},
					{
						"internalType": "uint256",
						"name": "amount",
						"type": "uint256"
					}
				],
				"name": "transferFrom",
				"outputs": [
					{
						"internalType": "bool",
						"name": "",
						"type": "bool"
					}
				],
				"payable": false,
				"stateMutability": "nonpayable",
				"type": "function"
			}
		],
		"evm": {
			"bytecode": {
				"linkReferences": {},
				"object": "0x6080604052731820a4b7618bde71dce8cdc73aab6c95905fad246000806101000a81548173ffffffffffffffffffffffffffffffffffffffff021916908373ffffffffffffffffffffffffffffffffffffffff1602179055503480156200006557600080fd5b506040516200648d3803806200648d83398181016040526200008b9190810190620005f2565b8282828260039080519060200190620000a69291906200036e565b508160049080519060200190620000bf9291906200036e565b508060059080519060200190620000d8929190620003f5565b5060008090505b6005805490508110156200018b57600160066000600584815481106200010157fe5b9060005260206000200160009054906101000a900473ffffffffffffffffffffffffffffffffffffffff1673ffffffffffffffffffffffffffffffffffffffff1673ffffffffffffffffffffffffffffffffffffffff16815260200190815260200160002060006101000a81548160ff0219169083151502179055508080600101915050620000df565b506000809054906101000a900473ffffffffffffffffffffffffffffffffffffffff1673ffffffffffffffffffffffffffffffffffffffff166329965a1d30604051620001d89062000765565b6040518091039020306040518463ffffffff1660e01b8152600401620002019392919062000793565b600060405180830381600087803b1580156200021c57600080fd5b505af115801562000231573d6000803e3d6000fd5b505050506000809054906101000a900473ffffffffffffffffffffffffffffffffffffffff1673ffffffffffffffffffffffffffffffffffffffff166329965a1d3060405162000281906200077c565b6040518091039020306040518463ffffffff1660e01b8152600401620002aa9392919062000793565b600060405180830381600087803b158015620002c557600080fd5b505af1158015620002da573d6000803e3d6000fd5b5050505050505083600a60006101000a81548173ffffffffffffffffffffffffffffffffffffffff021916908373ffffffffffffffffffffffffffffffffffffffff16021790555084600b60006101000a81548173ffffffffffffffffffffffffffffffffffffffff021916908373ffffffffffffffffffffffffffffffffffffffff1602179055505050505050620008ed565b828054600181600116156101000203166002900490600052602060002090601f016020900481019282601f10620003b157805160ff1916838001178555620003e2565b82800160010185558215620003e2579182015b82811115620003e1578251825591602001919060010190620003c4565b5b509050620003f1919062000484565b5090565b82805482825590600052602060002090810192821562000471579160200282015b82811115620004705782518260006101000a81548173ffffffffffffffffffffffffffffffffffffffff021916908373ffffffffffffffffffffffffffffffffffffffff1602179055509160200191906001019062000416565b5b509050620004809190620004ac565b5090565b620004a991905b80821115620004a55760008160009055506001016200048b565b5090565b90565b620004ef91905b80821115620004eb57600081816101000a81549073ffffffffffffffffffffffffffffffffffffffff021916905550600101620004b3565b5090565b90565b6000815190506200050381620008d3565b92915050565b600082601f8301126200051b57600080fd5b8151620005326200052c82620007fe565b620007d0565b915081818352602084019350602081019050838560208402820111156200055857600080fd5b60005b838110156200058c5781620005718882620004f2565b8452602084019350602083019250506001810190506200055b565b5050505092915050565b600082601f830112620005a857600080fd5b8151620005bf620005b98262000827565b620007d0565b91508082526020830160208301858383011115620005dc57600080fd5b620005e98382846200089d565b50505092915050565b600080600080600060a086880312156200060b57600080fd5b60006200061b88828901620004f2565b95505060206200062e88828901620004f2565b945050604086015167ffffffffffffffff8111156200064c57600080fd5b6200065a8882890162000596565b935050606086015167ffffffffffffffff8111156200067857600080fd5b620006868882890162000596565b925050608086015167ffffffffffffffff811115620006a457600080fd5b620006b28882890162000509565b9150509295509295909350565b620006ca816200085f565b82525050565b620006db8162000873565b82525050565b6000620006f0600b8362000854565b91507f455243373737546f6b656e0000000000000000000000000000000000000000006000830152600b82019050919050565b600062000732600a8362000854565b91507f4552433230546f6b656e000000000000000000000000000000000000000000006000830152600a82019050919050565b60006200077282620006e1565b9150819050919050565b6000620007898262000723565b9150819050919050565b6000606082019050620007aa6000830186620006bf565b620007b96020830185620006d0565b620007c86040830184620006bf565b949350505050565b6000604051905081810181811067ffffffffffffffff82111715620007f457600080fd5b8060405250919050565b600067ffffffffffffffff8211156200081657600080fd5b602082029050602081019050919050565b600067ffffffffffffffff8211156200083f57600080fd5b601f19601f8301169050602081019050919050565b600081905092915050565b60006200086c826200087d565b9050919050565b6000819050919050565b600073ffffffffffffffffffffffffffffffffffffffff82169050919050565b60005b83811015620008bd578082015181840152602081019050620008a0565b83811115620008cd576000848401525b50505050565b620008de816200085f565b8114620008ea57600080fd5b50565b615b9080620008fd6000396000f3fe608060405234801561001057600080fd5b50600436106102535760003560e01c80637a26b41411610146578063a9059cbb116100c3578063d95b637111610087578063d95b63711461071f578063dd62ed3e1461074f578063fad8b32a1461077f578063fc0c546a1461079b578063fc673c4f146107b9578063fe9d9303146107d557610253565b8063a9059cbb14610654578063c35450ec14610684578063d240a008146106a0578063d3d38193146106d1578063d6d75f511461070157610253565b8063925067f41161010a578063925067f4146105c6578063959b8c3f146105e257806395d89b41146105fe5780639bd9bbc61461061c5780639e7295491461063857610253565b80637a26b414146104fa5780638314b4e31461052e57806388d742c21461055e5780638cc872281461057a578063920c06071461059657610253565b8063313ce567116101d45780635b38539e116101985780635b38539e146104465780635ffd9f291461047657806361e390cb1461049257806362ad1b83146104ae57806370a08231146104ca57610253565b8063313ce567146103b657806332ae230a146103d457806337e63d07146103f057806340c10f191461040c578063556f0dc71461042857610253565b80631ab113b91161021b5780631ab113b9146103005780631e9a69501461030a57806321edf2661461033a57806323b872dd146103565780632f8035b41461038657610253565b806306e485381461025857806306fdde0314610276578063095ea7b31461029457806309ec6b6b146102c457806318160ddd146102e2575b600080fd5b6102606107f1565b60405161026d91906153b4565b60405180910390f35b61027e61087f565b60405161028b9190615457565b60405180910390f35b6102ae60048036036102a991908101906145fc565b610921565b6040516102bb9190615406565b60405180910390f35b6102cc610944565b6040516102d99190615679565b60405180910390f35b6102ea6109eb565b6040516102f79190615679565b60405180910390f35b6103086109f5565b005b610324600480360361031f91908101906145fc565b610a5e565b6040516103319190615679565b60405180910390f35b610354600480360361034f9190810190614433565b610d0a565b005b610370600480360361036b91908101906144c1565b610dbb565b60405161037d9190615406565b60405180910390f35b6103a0600480360361039b9190810190614433565b610fed565b6040516103ad9190615679565b60405180910390f35b6103be611039565b6040516103cb91906157a8565b60405180910390f35b6103ee60048036036103e991908101906145fc565b611042565b005b61040a600480360361040591908101906145c0565b611059565b005b610426600480360361042191908101906145fc565b6110f8565b005b61043061141c565b60405161043d9190615679565b60405180910390f35b610460600480360361045b919081019061473f565b611425565b60405161046d9190615406565b60405180910390f35b610490600480360361048b919081019061483d565b6115e2565b005b6104ac60048036036104a791908101906145fc565b611647565b005b6104c860048036036104c39190810190614510565b6116b3565b005b6104e460048036036104df9190810190614433565b6117ab565b6040516104f19190615679565b60405180910390f35b610514600480360361050f9190810190614433565b611869565b604051610525959493929190615755565b60405180910390f35b6105486004803603610543919081019061488f565b6118b9565b6040516105559190615406565b60405180910390f35b61057860048036036105739190810190614433565b611b2b565b005b610594600480360361058f91908101906145fc565b611d1a565b005b6105b060048036036105ab9190810190614433565b611e78565b6040516105bd9190615679565b60405180910390f35b6105e060048036036105db919081019061483d565b611f9e565b005b6105fc60048036036105f79190810190614433565b612002565b005b610606612263565b6040516106139190615457565b60405180910390f35b61063660048036036106319190810190614638565b612305565b005b610652600480360361064d91908101906147a6565b61237c565b005b61066e600480360361066991908101906145fc565b6123eb565b60405161067b9190615406565b60405180910390f35b61069e600480360361069991908101906148e1565b6124f9565b005b6106ba60048036036106b59190810190614433565b61251b565b6040516106c89291906153d6565b60405180910390f35b6106eb60048036036106e69190810190614433565b6126cc565b6040516106f89190615679565b60405180910390f35b6107096126de565b604051610716919061543c565b60405180910390f35b61073960048036036107349190810190614485565b612704565b6040516107469190615406565b60405180910390f35b61076960048036036107649190810190614485565b6128b5565b6040516107769190615679565b60405180910390f35b61079960048036036107949190810190614433565b61293c565b005b6107a3612b9d565b6040516107b09190615421565b60405180910390f35b6107d360048036036107ce91908101906146a4565b612bc3565b005b6107ef60048036036107ea919081019061498c565b612cb7565b005b6060600580548060200260200160405190810160405280929190818152602001828054801561087557602002820191906000526020600020905b8160009054906101000a900473ffffffffffffffffffffffffffffffffffffffff1673ffffffffffffffffffffffffffffffffffffffff168152602001906001019080831161082b575b5050505050905090565b606060038054600181600116156101000203166002900480601f0160208091040260200160405190810160405280929190818152602001828054600181600116156101000203166002900480156109175780601f106108ec57610100808354040283529160200191610917565b820191906000526020600020905b8154815290600101906020018083116108fa57829003601f168201915b5050505050905090565b60008061092c612d2a565b9050610939818585612d32565b600191505092915050565b6000600b60009054906101000a900473ffffffffffffffffffffffffffffffffffffffff1673ffffffffffffffffffffffffffffffffffffffff166309ec6b6b6040518163ffffffff1660e01b815260040160206040518083038186803b1580156109ae57600080fd5b505afa1580156109c2573d6000803e3d6000fd5b505050506040513d601f19601f820116820180604052506109e691908101906148b8565b905090565b6000600254905090565b6000600c6000610a03612d2a565b73ffffffffffffffffffffffffffffffffffffffff1673ffffffffffffffffffffffffffffffffffffffff168152602001908152602001600020905060008160020181610a509190613f0e565b506000816003018190555050565b6000610a70610a6b612d2a565b611b2b565b6000610a94610a85610a80612d2a565b612e8d565b84612e9f90919063ffffffff16565b9050610acf610aa1612d2a565b610aa9612d2a565b836040518060200160405280600081525060405180602001604052806000815250612eb8565b6000610b9d600b60009054906101000a900473ffffffffffffffffffffffffffffffffffffffff1673ffffffffffffffffffffffffffffffffffffffff16637ff9b5966040518163ffffffff1660e01b815260040160206040518083038186803b158015610b3c57600080fd5b505afa158015610b50573d6000803e3d6000fd5b505050506040513d601f19601f82011682018060405250610b7491908101906148b8565b610b8f670de0b6b3a7640000856130d790919063ffffffff16565b61314790919063ffffffff16565b905060018203600b60009054906101000a900473ffffffffffffffffffffffffffffffffffffffff1673ffffffffffffffffffffffffffffffffffffffff16639dc29fac87846040518363ffffffff1660e01b8152600401610c0092919061538b565b602060405180830381600087803b158015610c1a57600080fd5b505af1158015610c2e573d6000803e3d6000fd5b505050506040513d601f19601f82011682018060405250610c5291908101906148b8565b1015610c93576040517f08c379a0000000000000000000000000000000000000000000000000000000008152600401610c8a906155d9565b60405180910390fd5b610c9b612d2a565b73ffffffffffffffffffffffffffffffffffffffff168573ffffffffffffffffffffffffffffffffffffffff167f98e2ef558343683d81148487f9e3adc59ab8b7f4038427844dfa588f409f3ddc84604051610cf79190615679565b60405180910390a3819250505092915050565b610d1381611b2b565b6000600c60008373ffffffffffffffffffffffffffffffffffffffff1673ffffffffffffffffffffffffffffffffffffffff16815260200190815260200160002090508173ffffffffffffffffffffffffffffffffffffffff167f85438fa7c52fd8fc942f2ddee2033aa0efd3b75027316b7f1ecbe7738333807e8260010154604051610da09190615679565b60405180910390a2610db6828260010154613191565b505050565b60008073ffffffffffffffffffffffffffffffffffffffff168373ffffffffffffffffffffffffffffffffffffffff161415610e2c576040517f08c379a0000000000000000000000000000000000000000000000000000000008152600401610e23906155b9565b60405180910390fd5b600073ffffffffffffffffffffffffffffffffffffffff168473ffffffffffffffffffffffffffffffffffffffff161415610e9c576040517f08c379a0000000000000000000000000000000000000000000000000000000008152600401610e9390615619565b60405180910390fd5b6000610ea6612d2a565b9050610ed48186868660405180602001604052806000815250604051806020016040528060008152506133b2565b610f00818686866040518060200160405280600081525060405180602001604052806000815250613538565b610fb38582610fae86604051806060016040528060298152602001615b0260299139600960008c73ffffffffffffffffffffffffffffffffffffffff1673ffffffffffffffffffffffffffffffffffffffff16815260200190815260200160002060008873ffffffffffffffffffffffffffffffffffffffff1673ffffffffffffffffffffffffffffffffffffffff168152602001908152602001600020546135e29092919063ffffffff16565b612d32565b610fe1818686866040518060200160405280600081525060405180602001604052806000815250600061363d565b60019150509392505050565b6000600c60008373ffffffffffffffffffffffffffffffffffffffff1673ffffffffffffffffffffffffffffffffffffffff168152602001908152602001600020600101549050919050565b60006012905090565b61104c8282611d1a565b61105582610d0a565b5050565b80600d6000611066612d2a565b73ffffffffffffffffffffffffffffffffffffffff1673ffffffffffffffffffffffffffffffffffffffff16815260200190815260200160002060008473ffffffffffffffffffffffffffffffffffffffff1673ffffffffffffffffffffffffffffffffffffffff16815260200190815260200160002060006101000a81548160ff0219169083151502179055505050565b61110182611b2b565b600a60009054906101000a900473ffffffffffffffffffffffffffffffffffffffff1673ffffffffffffffffffffffffffffffffffffffff166323b872dd611147612d2a565b30846040518463ffffffff1660e01b81526004016111679392919061532b565b602060405180830381600087803b15801561118157600080fd5b505af1158015611195573d6000803e3d6000fd5b505050506040513d601f19601f820116820180604052506111b99190810190614866565b6111f8576040517f08c379a00000000000000000000000000000000000000000000000000000000081526004016111ef90615499565b60405180910390fd5b600a60009054906101000a900473ffffffffffffffffffffffffffffffffffffffff1673ffffffffffffffffffffffffffffffffffffffff1663095ea7b3600b60009054906101000a900473ffffffffffffffffffffffffffffffffffffffff16836040518363ffffffff1660e01b815260040161127792919061538b565b602060405180830381600087803b15801561129157600080fd5b505af11580156112a5573d6000803e3d6000fd5b505050506040513d601f19601f820116820180604052506112c99190810190614866565b50600b60009054906101000a900473ffffffffffffffffffffffffffffffffffffffff1673ffffffffffffffffffffffffffffffffffffffff166340c10f1930836040518363ffffffff1660e01b815260040161132792919061538b565b602060405180830381600087803b15801561134157600080fd5b505af1158015611355573d6000803e3d6000fd5b505050506040513d601f19601f8201168201806040525061137991908101906148b8565b506113ac611385612d2a565b8383604051806020016040528060008152506040518060200160405280600081525061382e565b6113b4612d2a565b73ffffffffffffffffffffffffffffffffffffffff168273ffffffffffffffffffffffffffffffffffffffff167f790acd49f79fd738bf072d1f334b7defc021d1a0dfdc5799f5087a37e61930b5836040516114109190615679565b60405180910390a35050565b60006001905090565b600080600c6000611434612d2a565b73ffffffffffffffffffffffffffffffffffffffff1673ffffffffffffffffffffffffffffffffffffffff16815260200190815260200160002090508060020160405180606001604052808773ffffffffffffffffffffffffffffffffffffffff168152602001868152602001858152509080600181540180825580915050906001820390600052602060002090600302016000909192909190915060008201518160000160006101000a81548173ffffffffffffffffffffffffffffffffffffffff021916908373ffffffffffffffffffffffffffffffffffffffff16021790555060208201518160010155604082015181600201908051906020019061153d929190613f40565b50505050611558848260030154613a3590919063ffffffff16565b81600301819055508473ffffffffffffffffffffffffffffffffffffffff1661157f612d2a565b73ffffffffffffffffffffffffffffffffffffffff167f37cacddb5cbff122a21ad5f5643384a5929ed0a67f74be15a1bd13f17245c421868660018660020180549050036040516115d2939291906156d9565b60405180910390a3509392505050565b8015600c60006115f0612d2a565b73ffffffffffffffffffffffffffffffffffffffff1673ffffffffffffffffffffffffffffffffffffffff16815260200190815260200160002060040160016101000a81548160ff02191690831515021790555050565b61165182826110f8565b6116af826116aa83600c60008773ffffffffffffffffffffffffffffffffffffffff1673ffffffffffffffffffffffffffffffffffffffff16815260200190815260200160002060010154613a3590919063ffffffff16565b611042565b5050565b6116c46116be612d2a565b88612704565b611703576040517f08c379a00000000000000000000000000000000000000000000000000000000081526004016116fa906155f9565b60405180910390fd5b6117a261170e612d2a565b88888888888080601f016020809104026020016040519081016040528093929190818152602001838380828437600081840152601f19601f8201169050808301925050505050505087878080601f016020809104026020016040519081016040528093929190818152602001838380828437600081840152601f19601f820116905080830192505050505050506001613a8a565b50505050505050565b600080600c60008473ffffffffffffffffffffffffffffffffffffffff1673ffffffffffffffffffffffffffffffffffffffff168152602001908152602001600020905060006117fa84612e8d565b90508082600101541061181257600092505050611864565b600c60008573ffffffffffffffffffffffffffffffffffffffff1673ffffffffffffffffffffffffffffffffffffffff1681526020019081526020016000206001015461185e85612e8d565b03925050505b919050565b600c6020528060005260406000206000915090508060000154908060010154908060030154908060040160009054906101000a900460ff16908060040160019054906101000a900460ff16905085565b600080600c60006118c8612d2a565b73ffffffffffffffffffffffffffffffffffffffff1673ffffffffffffffffffffffffffffffffffffffff1681526020019081526020016000209050600081600201848154811061191557fe5b906000526020600020906003020190508060000160009054906101000a900473ffffffffffffffffffffffffffffffffffffffff1673ffffffffffffffffffffffffffffffffffffffff16611968612d2a565b73ffffffffffffffffffffffffffffffffffffffff167f9b691786d8e66ef436af4d05f895ee1c9f3b4aa32a9a6854438f82b08c223045836001015484600201886040516119b893929190615717565b60405180910390a36119f78260020185815481106119d257fe5b9060005260206000209060030201600101548360030154613b9e90919063ffffffff16565b826003018190555060018260020180549050038414611af15781600201600183600201805490500381548110611a2957fe5b9060005260206000209060030201826002018581548110611a4657fe5b90600052602060002090600302016000820160009054906101000a900473ffffffffffffffffffffffffffffffffffffffff168160000160006101000a81548173ffffffffffffffffffffffffffffffffffffffff021916908373ffffffffffffffffffffffffffffffffffffffff1602179055506001820154816001015560028201816002019080546001816001161561010002031660029004611aec929190613fc0565b509050505b81600201805480919060019003611b089190613f0e565b50600082600201805490501415611b2457600082600101819055505b5050919050565b6000600c60008373ffffffffffffffffffffffffffffffffffffffff1673ffffffffffffffffffffffffffffffffffffffff16815260200190815260200160002090506000600b60009054906101000a900473ffffffffffffffffffffffffffffffffffffffff1673ffffffffffffffffffffffffffffffffffffffff16637ff9b5966040518163ffffffff1660e01b815260040160206040518083038186803b158015611bd857600080fd5b505afa158015611bec573d6000803e3d6000fd5b505050506040513d601f19601f82011682018060405250611c1091908101906148b8565b9050600082600001541415611c29578082600001819055505b6000611c3484611e78565b90506000811415611c4757505050611d17565b8260040160019054906101000a900460ff1680611c6c57506000836002018054905014155b15611c9157611c88818460010154613a3590919063ffffffff16565b83600101819055505b818360000181905550611cc5308583604051806020016040528060008152506040518060200160405280600081525061382e565b8373ffffffffffffffffffffffffffffffffffffffff167ff9984c8173c4b4ff9cc454f76ed19c053f4490ccb224fd9ddffeb4ef4bea353082604051611d0b9190615679565b60405180910390a25050505b50565b8173ffffffffffffffffffffffffffffffffffffffff16611d39612d2a565b73ffffffffffffffffffffffffffffffffffffffff161480611de85750600d60008373ffffffffffffffffffffffffffffffffffffffff1673ffffffffffffffffffffffffffffffffffffffff1681526020019081526020016000206000611d9f612d2a565b73ffffffffffffffffffffffffffffffffffffffff1673ffffffffffffffffffffffffffffffffffffffff16815260200190815260200160002060009054906101000a900460ff165b611e27576040517f08c379a0000000000000000000000000000000000000000000000000000000008152600401611e1e906154f9565b60405180910390fd5b6000600c60008473ffffffffffffffffffffffffffffffffffffffff1673ffffffffffffffffffffffffffffffffffffffff1681526020019081526020016000209050818160010181905550505050565b600080600c60008473ffffffffffffffffffffffffffffffffffffffff1673ffffffffffffffffffffffffffffffffffffffff1681526020019081526020016000209050611f96670de0b6b3a7640000611f888360000154600b60009054906101000a900473ffffffffffffffffffffffffffffffffffffffff1673ffffffffffffffffffffffffffffffffffffffff16637ff9b5966040518163ffffffff1660e01b815260040160206040518083038186803b158015611f3857600080fd5b505afa158015611f4c573d6000803e3d6000fd5b505050506040513d601f19601f82011682018060405250611f7091908101906148b8565b03611f7a87612e8d565b6130d790919063ffffffff16565b61314790919063ffffffff16565b915050919050565b80600c6000611fab612d2a565b73ffffffffffffffffffffffffffffffffffffffff1673ffffffffffffffffffffffffffffffffffffffff16815260200190815260200160002060040160006101000a81548160ff02191690831515021790555050565b8073ffffffffffffffffffffffffffffffffffffffff16612021612d2a565b73ffffffffffffffffffffffffffffffffffffffff161415612078576040517f08c379a000000000000000000000000000000000000000000000000000000000815260040161206f90615519565b60405180910390fd5b600660008273ffffffffffffffffffffffffffffffffffffffff1673ffffffffffffffffffffffffffffffffffffffff16815260200190815260200160002060009054906101000a900460ff161561216257600860006120d6612d2a565b73ffffffffffffffffffffffffffffffffffffffff1673ffffffffffffffffffffffffffffffffffffffff16815260200190815260200160002060008273ffffffffffffffffffffffffffffffffffffffff1673ffffffffffffffffffffffffffffffffffffffff16815260200190815260200160002060006101000a81549060ff02191690556121ff565b600160076000612170612d2a565b73ffffffffffffffffffffffffffffffffffffffff1673ffffffffffffffffffffffffffffffffffffffff16815260200190815260200160002060008373ffffffffffffffffffffffffffffffffffffffff1673ffffffffffffffffffffffffffffffffffffffff16815260200190815260200160002060006101000a81548160ff0219169083151502179055505b612207612d2a565b73ffffffffffffffffffffffffffffffffffffffff168173ffffffffffffffffffffffffffffffffffffffff167ff4caeb2d6ca8932a215a353d0703c326ec2d81fc68170f320eb2ab49e9df61f960405160405180910390a350565b606060048054600181600116156101000203166002900480601f0160208091040260200160405190810160405280929190818152602001828054600181600116156101000203166002900480156122fb5780601f106122d0576101008083540402835291602001916122fb565b820191906000526020600020905b8154815290600101906020018083116122de57829003601f168201915b5050505050905090565b612376612310612d2a565b612318612d2a565b868686868080601f016020809104026020016040519081016040528093929190818152602001838380828437600081840152601f19601f82011690508083019250505050505050604051806020016040528060008152506001613a8a565b50505050565b6123846109f5565b60008090505b83518110156123e5576123d78482815181106123a257fe5b60200260200101518483815181106123b657fe5b60200260200101518484815181106123ca57fe5b6020026020010151611425565b50808060010191505061238a565b50505050565b60008073ffffffffffffffffffffffffffffffffffffffff168373ffffffffffffffffffffffffffffffffffffffff16141561245c576040517f08c379a0000000000000000000000000000000000000000000000000000000008152600401612453906155b9565b60405180910390fd5b6000612466612d2a565b90506124948182868660405180602001604052806000815250604051806020016040528060008152506133b2565b6124c0818286866040518060200160405280600081525060405180602001604052806000815250613538565b6124ee818286866040518060200160405280600081525060405180602001604052806000815250600061363d565b600191505092915050565b61250a612504612d2a565b856110f8565b61251583838361237c565b50505050565b6060600080600c60008573ffffffffffffffffffffffffffffffffffffffff1673ffffffffffffffffffffffffffffffffffffffff168152602001908152602001600020905080600201805480602002602001604051908101604052809291908181526020016000905b828210156126b957838290600052602060002090600302016040518060600160405290816000820160009054906101000a900473ffffffffffffffffffffffffffffffffffffffff1673ffffffffffffffffffffffffffffffffffffffff1673ffffffffffffffffffffffffffffffffffffffff16815260200160018201548152602001600282018054600181600116156101000203166002900480601f0160208091040260200160405190810160405280929190818152602001828054600181600116156101000203166002900480156126a15780601f10612676576101008083540402835291602001916126a1565b820191906000526020600020905b81548152906001019060200180831161268457829003601f168201915b50505050508152505081526020019060010190612585565b5050505092508060030154915050915091565b60006126d782612e8d565b9050919050565b600b60009054906101000a900473ffffffffffffffffffffffffffffffffffffffff1681565b60008173ffffffffffffffffffffffffffffffffffffffff168373ffffffffffffffffffffffffffffffffffffffff16148061281c5750600660008473ffffffffffffffffffffffffffffffffffffffff1673ffffffffffffffffffffffffffffffffffffffff16815260200190815260200160002060009054906101000a900460ff16801561281b5750600860008373ffffffffffffffffffffffffffffffffffffffff1673ffffffffffffffffffffffffffffffffffffffff16815260200190815260200160002060008473ffffffffffffffffffffffffffffffffffffffff1673ffffffffffffffffffffffffffffffffffffffff16815260200190815260200160002060009054906101000a900460ff16155b5b806128ad5750600760008373ffffffffffffffffffffffffffffffffffffffff1673ffffffffffffffffffffffffffffffffffffffff16815260200190815260200160002060008473ffffffffffffffffffffffffffffffffffffffff1673ffffffffffffffffffffffffffffffffffffffff16815260200190815260200160002060009054906101000a900460ff165b905092915050565b6000600960008473ffffffffffffffffffffffffffffffffffffffff1673ffffffffffffffffffffffffffffffffffffffff16815260200190815260200160002060008373ffffffffffffffffffffffffffffffffffffffff1673ffffffffffffffffffffffffffffffffffffffff16815260200190815260200160002054905092915050565b612944612d2a565b73ffffffffffffffffffffffffffffffffffffffff168173ffffffffffffffffffffffffffffffffffffffff1614156129b2576040517f08c379a00000000000000000000000000000000000000000000000000000000081526004016129a990615539565b60405180910390fd5b600660008273ffffffffffffffffffffffffffffffffffffffff1673ffffffffffffffffffffffffffffffffffffffff16815260200190815260200160002060009054906101000a900460ff1615612aa557600160086000612a12612d2a565b73ffffffffffffffffffffffffffffffffffffffff1673ffffffffffffffffffffffffffffffffffffffff16815260200190815260200160002060008373ffffffffffffffffffffffffffffffffffffffff1673ffffffffffffffffffffffffffffffffffffffff16815260200190815260200160002060006101000a81548160ff021916908315150217905550612b39565b60076000612ab1612d2a565b73ffffffffffffffffffffffffffffffffffffffff1673ffffffffffffffffffffffffffffffffffffffff16815260200190815260200160002060008273ffffffffffffffffffffffffffffffffffffffff1673ffffffffffffffffffffffffffffffffffffffff16815260200190815260200160002060006101000a81549060ff02191690555b612b41612d2a565b73ffffffffffffffffffffffffffffffffffffffff168173ffffffffffffffffffffffffffffffffffffffff167f50546e66e5f44d728365dc3908c63bc5cfeeab470722c1677e3073a6ac294aa160405160405180910390a350565b600a60009054906101000a900473ffffffffffffffffffffffffffffffffffffffff1681565b612bd4612bce612d2a565b87612704565b612c13576040517f08c379a0000000000000000000000000000000000000000000000000000000008152600401612c0a906155f9565b60405180910390fd5b612caf612c1e612d2a565b878787878080601f016020809104026020016040519081016040528093929190818152602001838380828437600081840152601f19601f8201169050808301925050505050505086868080601f016020809104026020016040519081016040528093929190818152602001838380828437600081840152601f19601f82011690508083019250505050505050612eb8565b505050505050565b612d25612cc2612d2a565b612cca612d2a565b8585858080601f016020809104026020016040519081016040528093929190818152602001838380828437600081840152601f19601f8201169050808301925050505050505060405180602001604052806000815250612eb8565b505050565b600033905090565b600073ffffffffffffffffffffffffffffffffffffffff168273ffffffffffffffffffffffffffffffffffffffff161415612da2576040517f08c379a0000000000000000000000000000000000000000000000000000000008152600401612d9990615659565b60405180910390fd5b80600960008573ffffffffffffffffffffffffffffffffffffffff1673ffffffffffffffffffffffffffffffffffffffff16815260200190815260200160002060008473ffffffffffffffffffffffffffffffffffffffff1673ffffffffffffffffffffffffffffffffffffffff168152602001908152602001600020819055508173ffffffffffffffffffffffffffffffffffffffff168373ffffffffffffffffffffffffffffffffffffffff167f8c5be1e5ebec7d5bd14f71427d1e84f3dd0314c0f7b2291e5b200ac8c7c3b92583604051612e809190615679565b60405180910390a3505050565b6000612e9882613be8565b9050919050565b6000818310612eae5781612eb0565b825b905092915050565b600073ffffffffffffffffffffffffffffffffffffffff168473ffffffffffffffffffffffffffffffffffffffff161415612f28576040517f08c379a0000000000000000000000000000000000000000000000000000000008152600401612f1f906154d9565b60405180910390fd5b612f37858560008686866133b2565b612fa383604051806060016040528060238152602001615b2b60239139600160008873ffffffffffffffffffffffffffffffffffffffff1673ffffffffffffffffffffffffffffffffffffffff168152602001908152602001600020546135e29092919063ffffffff16565b600160008673ffffffffffffffffffffffffffffffffffffffff1673ffffffffffffffffffffffffffffffffffffffff16815260200190815260200160002081905550612ffb83600254613b9e90919063ffffffff16565b6002819055508373ffffffffffffffffffffffffffffffffffffffff168573ffffffffffffffffffffffffffffffffffffffff167fa78a9be3a7b862d26933ad85fb11d80ef66b8f972d7cbba06621d583943a409885858560405161306293929190615694565b60405180910390a3600073ffffffffffffffffffffffffffffffffffffffff168473ffffffffffffffffffffffffffffffffffffffff167fddf252ad1be2c89b69c2b068fc378daa952ba7f163c4a11628f55a4df523b3ef856040516130c89190615679565b60405180910390a35050505050565b6000808314156130ea5760009050613141565b60008284029050828482816130fb57fe5b041461313c576040517f08c379a000000000000000000000000000000000000000000000000000000000815260040161313390615579565b60405180910390fd5b809150505b92915050565b600061318983836040518060400160405280601a81526020017f536166654d6174683a206469766973696f6e206279207a65726f000000000000815250613c31565b905092915050565b600080600c60008573ffffffffffffffffffffffffffffffffffffffff1673ffffffffffffffffffffffffffffffffffffffff16815260200190815260200160002090506131ec838260010154613b9e90919063ffffffff16565b816001018190555060008160020180549050141561320e5760019150506133ac565b60008090505b81600201805490508110156133a55761322b614047565b82600201828154811061323a57fe5b90600052602060002090600302016040518060600160405290816000820160009054906101000a900473ffffffffffffffffffffffffffffffffffffffff1673ffffffffffffffffffffffffffffffffffffffff1673ffffffffffffffffffffffffffffffffffffffff16815260200160018201548152602001600282018054600181600116156101000203166002900480601f01602080910402602001604051908101604052809291908181526020018280546001816001161561010002031660029004801561334c5780601f106133215761010080835404028352916020019161334c565b820191906000526020600020905b81548152906001019060200180831161332f57829003601f168201915b505050505081525050905060008360030154826020015187028161336c57fe5b04905061339630888460000151848660400151604051806020016040528060008152506000613a8a565b50508080600101915050613214565b5060019150505b92915050565b60008060009054906101000a900473ffffffffffffffffffffffffffffffffffffffff1673ffffffffffffffffffffffffffffffffffffffff1663aabbb8ca877f29ddb589b1fb5fc7cf394961c1adf5f8c6454761adf795e67fe149f658abe89560001b6040518363ffffffff1660e01b8152600401613433929190615362565b60206040518083038186803b15801561344b57600080fd5b505afa15801561345f573d6000803e3d6000fd5b505050506040513d601f19601f82011682018060405250613483919081019061445c565b9050600073ffffffffffffffffffffffffffffffffffffffff168173ffffffffffffffffffffffffffffffffffffffff161461352f578073ffffffffffffffffffffffffffffffffffffffff166375ab97828888888888886040518763ffffffff1660e01b81526004016134fc969594939291906152bc565b600060405180830381600087803b15801561351657600080fd5b505af115801561352a573d6000803e3d6000fd5b505050505b50505050505050565b61354185611b2b565b61354a84611b2b565b6000600c60008673ffffffffffffffffffffffffffffffffffffffff1673ffffffffffffffffffffffffffffffffffffffff1681526020019081526020016000209050600115158160040160009054906101000a900460ff16151514156135cb576135c2848260010154613a3590919063ffffffff16565b81600101819055505b6135d9878787878787613c92565b50505050505050565b600083831115829061362a576040517f08c379a00000000000000000000000000000000000000000000000000000000081526004016136219190615457565b60405180910390fd5b5060008385039050809150509392505050565b60008060009054906101000a900473ffffffffffffffffffffffffffffffffffffffff1673ffffffffffffffffffffffffffffffffffffffff1663aabbb8ca877fb281fc8c12954d22544db45de3159a39272895b169a852b314f9cc762e44c53b60001b6040518363ffffffff1660e01b81526004016136be929190615362565b60206040518083038186803b1580156136d657600080fd5b505afa1580156136ea573d6000803e3d6000fd5b505050506040513d601f19601f8201168201806040525061370e919081019061445c565b9050600073ffffffffffffffffffffffffffffffffffffffff168173ffffffffffffffffffffffffffffffffffffffff16146137bd578073ffffffffffffffffffffffffffffffffffffffff166223de298989898989896040518763ffffffff1660e01b8152600401613786969594939291906152bc565b600060405180830381600087803b1580156137a057600080fd5b505af11580156137b4573d6000803e3d6000fd5b50505050613824565b8115613823576137e28673ffffffffffffffffffffffffffffffffffffffff16613ec3565b15613822576040517f08c379a000000000000000000000000000000000000000000000000000000000815260040161381990615599565b60405180910390fd5b5b5b5050505050505050565b600073ffffffffffffffffffffffffffffffffffffffff168473ffffffffffffffffffffffffffffffffffffffff16141561389e576040517f08c379a000000000000000000000000000000000000000000000000000000000815260040161389590615559565b60405180910390fd5b6138b383600254613a3590919063ffffffff16565b60028190555061390b83600160008773ffffffffffffffffffffffffffffffffffffffff1673ffffffffffffffffffffffffffffffffffffffff16815260200190815260200160002054613a3590919063ffffffff16565b600160008673ffffffffffffffffffffffffffffffffffffffff1673ffffffffffffffffffffffffffffffffffffffff1681526020019081526020016000208190555061395f85600086868686600161363d565b8373ffffffffffffffffffffffffffffffffffffffff168573ffffffffffffffffffffffffffffffffffffffff167f2fe5be0146f74c5bce36c0b80911af6c7d86ff27e89d5cfa61fc681327954e5d8585856040516139c093929190615694565b60405180910390a38373ffffffffffffffffffffffffffffffffffffffff16600073ffffffffffffffffffffffffffffffffffffffff167fddf252ad1be2c89b69c2b068fc378daa952ba7f163c4a11628f55a4df523b3ef85604051613a269190615679565b60405180910390a35050505050565b600080828401905083811015613a80576040517f08c379a0000000000000000000000000000000000000000000000000000000008152600401613a77906154b9565b60405180910390fd5b8091505092915050565b600073ffffffffffffffffffffffffffffffffffffffff168673ffffffffffffffffffffffffffffffffffffffff161415613afa576040517f08c379a0000000000000000000000000000000000000000000000000000000008152600401613af190615479565b60405180910390fd5b600073ffffffffffffffffffffffffffffffffffffffff168573ffffffffffffffffffffffffffffffffffffffff161415613b6a576040517f08c379a0000000000000000000000000000000000000000000000000000000008152600401613b6190615639565b60405180910390fd5b613b788787878787876133b2565b613b86878787878787613538565b613b958787878787878761363d565b50505050505050565b6000613be083836040518060400160405280601e81526020017f536166654d6174683a207375627472616374696f6e206f766572666c6f7700008152506135e2565b905092915050565b6000600160008373ffffffffffffffffffffffffffffffffffffffff1673ffffffffffffffffffffffffffffffffffffffff168152602001908152602001600020549050919050565b60008083118290613c78576040517f08c379a0000000000000000000000000000000000000000000000000000000008152600401613c6f9190615457565b60405180910390fd5b506000838581613c8457fe5b049050809150509392505050565b613cfe83604051806060016040528060278152602001615adb60279139600160008973ffffffffffffffffffffffffffffffffffffffff1673ffffffffffffffffffffffffffffffffffffffff168152602001908152602001600020546135e29092919063ffffffff16565b600160008773ffffffffffffffffffffffffffffffffffffffff1673ffffffffffffffffffffffffffffffffffffffff16815260200190815260200160002081905550613d9383600160008773ffffffffffffffffffffffffffffffffffffffff1673ffffffffffffffffffffffffffffffffffffffff16815260200190815260200160002054613a3590919063ffffffff16565b600160008673ffffffffffffffffffffffffffffffffffffffff1673ffffffffffffffffffffffffffffffffffffffff168152602001908152602001600020819055508373ffffffffffffffffffffffffffffffffffffffff168573ffffffffffffffffffffffffffffffffffffffff168773ffffffffffffffffffffffffffffffffffffffff167f06b541ddaa720db2b10a4d0cdac39b8d360425fc073085fac19bc82614677987868686604051613e4e93929190615694565b60405180910390a48373ffffffffffffffffffffffffffffffffffffffff168573ffffffffffffffffffffffffffffffffffffffff167fddf252ad1be2c89b69c2b068fc378daa952ba7f163c4a11628f55a4df523b3ef85604051613eb39190615679565b60405180910390a3505050505050565b60008060007fc5d2460186f7233c927e7db2dcc703c0e500b653ca82273b7bfad8045d85a47060001b9050833f91506000801b8214158015613f055750808214155b92505050919050565b815481835581811115613f3b57600302816003028360005260206000209182019101613f3a919061407e565b5b505050565b828054600181600116156101000203166002900490600052602060002090601f016020900481019282601f10613f8157805160ff1916838001178555613faf565b82800160010185558215613faf579182015b82811115613fae578251825591602001919060010190613f93565b5b509050613fbc91906140dc565b5090565b828054600181600116156101000203166002900490600052602060002090601f016020900481019282601f10613ff95780548555614036565b8280016001018555821561403657600052602060002091601f016020900482015b8281111561403557825482559160010191906001019061401a565b5b50905061404391906140dc565b5090565b6040518060600160405280600073ffffffffffffffffffffffffffffffffffffffff16815260200160008152602001606081525090565b6140d991905b808211156140d557600080820160006101000a81549073ffffffffffffffffffffffffffffffffffffffff021916905560018201600090556002820160006140cc9190614101565b50600301614084565b5090565b90565b6140fe91905b808211156140fa5760008160009055506001016140e2565b5090565b90565b50805460018160011615610100020316600290046000825580601f106141275750614146565b601f01602090049060005260206000209081019061414591906140dc565b5b50565b60008135905061415881615a95565b92915050565b60008151905061416d81615a95565b92915050565b600082601f83011261418457600080fd5b8135614197614192826157f0565b6157c3565b915081818352602084019350602081019050838560208402820111156141bc57600080fd5b60005b838110156141ec57816141d28882614149565b8452602084019350602083019250506001810190506141bf565b5050505092915050565b600082601f83011261420757600080fd5b813561421a61421582615818565b6157c3565b9150818183526020840193506020810190508360005b8381101561426057813586016142468882614361565b845260208401935060208301925050600181019050614230565b5050505092915050565b600082601f83011261427b57600080fd5b813561428e61428982615840565b6157c3565b915081818352602084019350602081019050838560208402820111156142b357600080fd5b60005b838110156142e357816142c98882614409565b8452602084019350602083019250506001810190506142b6565b5050505092915050565b6000813590506142fc81615aac565b92915050565b60008151905061431181615aac565b92915050565b60008083601f84011261432957600080fd5b8235905067ffffffffffffffff81111561434257600080fd5b60208301915083600182028301111561435a57600080fd5b9250929050565b600082601f83011261437257600080fd5b813561438561438082615868565b6157c3565b915080825260208301602083018583830111156143a157600080fd5b6143ac838284615a42565b50505092915050565b600082601f8301126143c657600080fd5b81356143d96143d482615894565b6157c3565b915080825260208301602083018583830111156143f557600080fd5b614400838284615a42565b50505092915050565b60008135905061441881615ac3565b92915050565b60008151905061442d81615ac3565b92915050565b60006020828403121561444557600080fd5b600061445384828501614149565b91505092915050565b60006020828403121561446e57600080fd5b600061447c8482850161415e565b91505092915050565b6000806040838503121561449857600080fd5b60006144a685828601614149565b92505060206144b785828601614149565b9150509250929050565b6000806000606084860312156144d657600080fd5b60006144e486828701614149565b93505060206144f586828701614149565b925050604061450686828701614409565b9150509250925092565b600080600080600080600060a0888a03121561452b57600080fd5b60006145398a828b01614149565b975050602061454a8a828b01614149565b965050604061455b8a828b01614409565b955050606088013567ffffffffffffffff81111561457857600080fd5b6145848a828b01614317565b9450945050608088013567ffffffffffffffff8111156145a357600080fd5b6145af8a828b01614317565b925092505092959891949750929550565b600080604083850312156145d357600080fd5b60006145e185828601614149565b92505060206145f2858286016142ed565b9150509250929050565b6000806040838503121561460f57600080fd5b600061461d85828601614149565b925050602061462e85828601614409565b9150509250929050565b6000806000806060858703121561464e57600080fd5b600061465c87828801614149565b945050602061466d87828801614409565b935050604085013567ffffffffffffffff81111561468a57600080fd5b61469687828801614317565b925092505092959194509250565b600080600080600080608087890312156146bd57600080fd5b60006146cb89828a01614149565b96505060206146dc89828a01614409565b955050604087013567ffffffffffffffff8111156146f957600080fd5b61470589828a01614317565b9450945050606087013567ffffffffffffffff81111561472457600080fd5b61473089828a01614317565b92509250509295509295509295565b60008060006060848603121561475457600080fd5b600061476286828701614149565b935050602061477386828701614409565b925050604084013567ffffffffffffffff81111561479057600080fd5b61479c868287016143b5565b9150509250925092565b6000806000606084860312156147bb57600080fd5b600084013567ffffffffffffffff8111156147d557600080fd5b6147e186828701614173565b935050602084013567ffffffffffffffff8111156147fe57600080fd5b61480a8682870161426a565b925050604084013567ffffffffffffffff81111561482757600080fd5b614833868287016141f6565b9150509250925092565b60006020828403121561484f57600080fd5b600061485d848285016142ed565b91505092915050565b60006020828403121561487857600080fd5b600061488684828501614302565b91505092915050565b6000602082840312156148a157600080fd5b60006148af84828501614409565b91505092915050565b6000602082840312156148ca57600080fd5b60006148d88482850161441e565b91505092915050565b600080600080608085870312156148f757600080fd5b600061490587828801614409565b945050602085013567ffffffffffffffff81111561492257600080fd5b61492e87828801614173565b935050604085013567ffffffffffffffff81111561494b57600080fd5b6149578782880161426a565b925050606085013567ffffffffffffffff81111561497457600080fd5b614980878288016141f6565b91505092959194509250565b6000806000604084860312156149a157600080fd5b60006149af86828701614409565b935050602084013567ffffffffffffffff8111156149cc57600080fd5b6149d886828701614317565b92509250509250925092565b60006149f08383614a10565b60208301905092915050565b6000614a08838361523f565b905092915050565b614a198161599b565b82525050565b614a288161599b565b82525050565b6000614a39826158f5565b614a438185615946565b9350614a4e836158c0565b8060005b83811015614a7f578151614a6688826149e4565b9750614a718361592c565b925050600181019050614a52565b5085935050505092915050565b6000614a9782615900565b614aa18185615957565b935083602082028501614ab3856158d0565b8060005b85811015614aef5784840389528151614ad085826149fc565b9450614adb83615939565b925060208a01995050600181019050614ab7565b50829750879550505050505092915050565b614b0a816159ad565b82525050565b614b19816159b9565b82525050565b6000614b2a82615916565b614b348185615979565b9350614b44818560208601615a51565b614b4d81615a84565b840191505092915050565b6000614b638261590b565b614b6d8185615968565b9350614b7d818560208601615a51565b614b8681615a84565b840191505092915050565b600081546001811660008114614bae5760018114614bd457614c18565b607f6002830416614bbf8187615979565b955060ff198316865260208601935050614c18565b60028204614be28187615979565b9550614bed856158e0565b60005b82811015614c0f57815481890152600182019150602081019050614bf0565b80880195505050505b505092915050565b614c29816159fa565b82525050565b614c3881615a1e565b82525050565b6000614c4982615921565b614c53818561598a565b9350614c63818560208601615a51565b614c6c81615a84565b840191505092915050565b6000614c8460228361598a565b91507f4552433737373a2073656e642066726f6d20746865207a65726f20616464726560008301527f73730000000000000000000000000000000000000000000000000000000000006020830152604082019050919050565b6000614cea601a8361598a565b91507f444441492e6d696e743a205452414e534645525f4641494c45440000000000006000830152602082019050919050565b6000614d2a601b8361598a565b91507f536166654d6174683a206164646974696f6e206f766572666c6f7700000000006000830152602082019050919050565b6000614d6a60228361598a565b91507f4552433737373a206275726e2066726f6d20746865207a65726f20616464726560008301527f73730000000000000000000000000000000000000000000000000000000000006020830152604082019050919050565b6000614dd0601d8361598a565b91507f444441492e70757368546f537461636b3a204e4f545f414c4c4f5745440000006000830152602082019050919050565b6000614e1060248361598a565b91507f4552433737373a20617574686f72697a696e672073656c66206173206f70657260008301527f61746f72000000000000000000000000000000000000000000000000000000006020830152604082019050919050565b6000614e7660218361598a565b91507f4552433737373a207265766f6b696e672073656c66206173206f70657261746f60008301527f72000000000000000000000000000000000000000000000000000000000000006020830152604082019050919050565b6000614edc60208361598a565b91507f4552433737373a206d696e7420746f20746865207a65726f20616464726573736000830152602082019050919050565b6000614f1c60218361598a565b91507f536166654d6174683a206d756c7469706c69636174696f6e206f766572666c6f60008301527f77000000000000000000000000000000000000000000000000000000000000006020830152604082019050919050565b6000614f82604d8361598a565b91507f4552433737373a20746f6b656e20726563697069656e7420636f6e747261637460008301527f20686173206e6f20696d706c656d656e74657220666f7220455243373737546f60208301527f6b656e73526563697069656e74000000000000000000000000000000000000006040830152606082019050919050565b600061500e60248361598a565b91507f4552433737373a207472616e7366657220746f20746865207a65726f2061646460008301527f72657373000000000000000000000000000000000000000000000000000000006020830152604082019050919050565b600061507460248361598a565b91507f444441492e72656465656d3a204d4f4e45595f4d41524b45545f4e4f545f4c4960008301527f51554944000000000000000000000000000000000000000000000000000000006020830152604082019050919050565b60006150da602c8361598a565b91507f4552433737373a2063616c6c6572206973206e6f7420616e206f70657261746f60008301527f7220666f7220686f6c64657200000000000000000000000000000000000000006020830152604082019050919050565b600061514060268361598a565b91507f4552433737373a207472616e736665722066726f6d20746865207a65726f206160008301527f64647265737300000000000000000000000000000000000000000000000000006020830152604082019050919050565b60006151a660208361598a565b91507f4552433737373a2073656e6420746f20746865207a65726f20616464726573736000830152602082019050919050565b60006151e660238361598a565b91507f4552433737373a20617070726f766520746f20746865207a65726f206164647260008301527f65737300000000000000000000000000000000000000000000000000000000006020830152604082019050919050565b60006060830160008301516152576000860182614a10565b50602083015161526a602086018261528f565b50604083015184820360408601526152828282614b58565b9150508091505092915050565b615298816159e3565b82525050565b6152a7816159e3565b82525050565b6152b6816159ed565b82525050565b600060c0820190506152d16000830189614a1f565b6152de6020830188614a1f565b6152eb6040830187614a1f565b6152f8606083018661529e565b818103608083015261530a8185614b1f565b905081810360a083015261531e8184614b1f565b9050979650505050505050565b60006060820190506153406000830186614a1f565b61534d6020830185614a1f565b61535a604083018461529e565b949350505050565b60006040820190506153776000830185614a1f565b6153846020830184614b10565b9392505050565b60006040820190506153a06000830185614a1f565b6153ad602083018461529e565b9392505050565b600060208201905081810360008301526153ce8184614a2e565b905092915050565b600060408201905081810360008301526153f08185614a8c565b90506153ff602083018461529e565b9392505050565b600060208201905061541b6000830184614b01565b92915050565b60006020820190506154366000830184614c20565b92915050565b60006020820190506154516000830184614c2f565b92915050565b600060208201905081810360008301526154718184614c3e565b905092915050565b6000602082019050818103600083015261549281614c77565b9050919050565b600060208201905081810360008301526154b281614cdd565b9050919050565b600060208201905081810360008301526154d281614d1d565b9050919050565b600060208201905081810360008301526154f281614d5d565b9050919050565b6000602082019050818103600083015261551281614dc3565b9050919050565b6000602082019050818103600083015261553281614e03565b9050919050565b6000602082019050818103600083015261555281614e69565b9050919050565b6000602082019050818103600083015261557281614ecf565b9050919050565b6000602082019050818103600083015261559281614f0f565b9050919050565b600060208201905081810360008301526155b281614f75565b9050919050565b600060208201905081810360008301526155d281615001565b9050919050565b600060208201905081810360008301526155f281615067565b9050919050565b60006020820190508181036000830152615612816150cd565b9050919050565b6000602082019050818103600083015261563281615133565b9050919050565b6000602082019050818103600083015261565281615199565b9050919050565b60006020820190508181036000830152615672816151d9565b9050919050565b600060208201905061568e600083018461529e565b92915050565b60006060820190506156a9600083018661529e565b81810360208301526156bb8185614b1f565b905081810360408301526156cf8184614b1f565b9050949350505050565b60006060820190506156ee600083018661529e565b81810360208301526157008185614b1f565b905061570f604083018461529e565b949350505050565b600060608201905061572c600083018661529e565b818103602083015261573e8185614b91565b905061574d604083018461529e565b949350505050565b600060a08201905061576a600083018861529e565b615777602083018761529e565b615784604083018661529e565b6157916060830185614b01565b61579e6080830184614b01565b9695505050505050565b60006020820190506157bd60008301846152ad565b92915050565b6000604051905081810181811067ffffffffffffffff821117156157e657600080fd5b8060405250919050565b600067ffffffffffffffff82111561580757600080fd5b602082029050602081019050919050565b600067ffffffffffffffff82111561582f57600080fd5b602082029050602081019050919050565b600067ffffffffffffffff82111561585757600080fd5b602082029050602081019050919050565b600067ffffffffffffffff82111561587f57600080fd5b601f19601f8301169050602081019050919050565b600067ffffffffffffffff8211156158ab57600080fd5b601f19601f8301169050602081019050919050565b6000819050602082019050919050565b6000819050602082019050919050565b60008190508160005260206000209050919050565b600081519050919050565b600081519050919050565b600081519050919050565b600081519050919050565b600081519050919050565b6000602082019050919050565b6000602082019050919050565b600082825260208201905092915050565b600082825260208201905092915050565b600082825260208201905092915050565b600082825260208201905092915050565b600082825260208201905092915050565b60006159a6826159c3565b9050919050565b60008115159050919050565b6000819050919050565b600073ffffffffffffffffffffffffffffffffffffffff82169050919050565b6000819050919050565b600060ff82169050919050565b6000615a0582615a0c565b9050919050565b6000615a17826159c3565b9050919050565b6000615a2982615a30565b9050919050565b6000615a3b826159c3565b9050919050565b82818337600083830152505050565b60005b83811015615a6f578082015181840152602081019050615a54565b83811115615a7e576000848401525b50505050565b6000601f19601f8301169050919050565b615a9e8161599b565b8114615aa957600080fd5b50565b615ab5816159ad565b8114615ac057600080fd5b50565b615acc816159e3565b8114615ad757600080fd5b5056fe4552433737373a207472616e7366657220616d6f756e7420657863656564732062616c616e63654552433737373a207472616e7366657220616d6f756e74206578636565647320616c6c6f77616e63654552433737373a206275726e20616d6f756e7420657863656564732062616c616e6365a365627a7a7231582001590700efc4891c172942e34e068922ca0bccdf99fb8369049529d29905c4376c6578706572696d656e74616cf564736f6c634300050c0040",
				"opcodes": "PUSH1 0x80 PUSH1 0x40 MSTORE PUSH20 0x1820A4B7618BDE71DCE8CDC73AAB6C95905FAD24 PUSH1 0x0 DUP1 PUSH2 0x100 EXP DUP2 SLOAD DUP2 PUSH20 0xFFFFFFFFFFFFFFFFFFFFFFFFFFFFFFFFFFFFFFFF MUL NOT AND SWAP1 DUP4 PUSH20 0xFFFFFFFFFFFFFFFFFFFFFFFFFFFFFFFFFFFFFFFF AND MUL OR SWAP1 SSTORE POP CALLVALUE DUP1 ISZERO PUSH3 0x65 JUMPI PUSH1 0x0 DUP1 REVERT JUMPDEST POP PUSH1 0x40 MLOAD PUSH3 0x648D CODESIZE SUB DUP1 PUSH3 0x648D DUP4 CODECOPY DUP2 DUP2 ADD PUSH1 0x40 MSTORE PUSH3 0x8B SWAP2 SWAP1 DUP2 ADD SWAP1 PUSH3 0x5F2 JUMP JUMPDEST DUP3 DUP3 DUP3 DUP3 PUSH1 0x3 SWAP1 DUP1 MLOAD SWAP1 PUSH1 0x20 ADD SWAP1 PUSH3 0xA6 SWAP3 SWAP2 SWAP1 PUSH3 0x36E JUMP JUMPDEST POP DUP2 PUSH1 0x4 SWAP1 DUP1 MLOAD SWAP1 PUSH1 0x20 ADD SWAP1 PUSH3 0xBF SWAP3 SWAP2 SWAP1 PUSH3 0x36E JUMP JUMPDEST POP DUP1 PUSH1 0x5 SWAP1 DUP1 MLOAD SWAP1 PUSH1 0x20 ADD SWAP1 PUSH3 0xD8 SWAP3 SWAP2 SWAP1 PUSH3 0x3F5 JUMP JUMPDEST POP PUSH1 0x0 DUP1 SWAP1 POP JUMPDEST PUSH1 0x5 DUP1 SLOAD SWAP1 POP DUP2 LT ISZERO PUSH3 0x18B JUMPI PUSH1 0x1 PUSH1 0x6 PUSH1 0x0 PUSH1 0x5 DUP5 DUP2 SLOAD DUP2 LT PUSH3 0x101 JUMPI INVALID JUMPDEST SWAP1 PUSH1 0x0 MSTORE PUSH1 0x20 PUSH1 0x0 KECCAK256 ADD PUSH1 0x0 SWAP1 SLOAD SWAP1 PUSH2 0x100 EXP SWAP1 DIV PUSH20 0xFFFFFFFFFFFFFFFFFFFFFFFFFFFFFFFFFFFFFFFF AND PUSH20 0xFFFFFFFFFFFFFFFFFFFFFFFFFFFFFFFFFFFFFFFF AND PUSH20 0xFFFFFFFFFFFFFFFFFFFFFFFFFFFFFFFFFFFFFFFF AND DUP2 MSTORE PUSH1 0x20 ADD SWAP1 DUP2 MSTORE PUSH1 0x20 ADD PUSH1 0x0 KECCAK256 PUSH1 0x0 PUSH2 0x100 EXP DUP2 SLOAD DUP2 PUSH1 0xFF MUL NOT AND SWAP1 DUP4 ISZERO ISZERO MUL OR SWAP1 SSTORE POP DUP1 DUP1 PUSH1 0x1 ADD SWAP2 POP POP PUSH3 0xDF JUMP JUMPDEST POP PUSH1 0x0 DUP1 SWAP1 SLOAD SWAP1 PUSH2 0x100 EXP SWAP1 DIV PUSH20 0xFFFFFFFFFFFFFFFFFFFFFFFFFFFFFFFFFFFFFFFF AND PUSH20 0xFFFFFFFFFFFFFFFFFFFFFFFFFFFFFFFFFFFFFFFF AND PUSH4 0x29965A1D ADDRESS PUSH1 0x40 MLOAD PUSH3 0x1D8 SWAP1 PUSH3 0x765 JUMP JUMPDEST PUSH1 0x40 MLOAD DUP1 SWAP2 SUB SWAP1 KECCAK256 ADDRESS PUSH1 0x40 MLOAD DUP5 PUSH4 0xFFFFFFFF AND PUSH1 0xE0 SHL DUP2 MSTORE PUSH1 0x4 ADD PUSH3 0x201 SWAP4 SWAP3 SWAP2 SWAP1 PUSH3 0x793 JUMP JUMPDEST PUSH1 0x0 PUSH1 0x40 MLOAD DUP1 DUP4 SUB DUP2 PUSH1 0x0 DUP8 DUP1 EXTCODESIZE ISZERO DUP1 ISZERO PUSH3 0x21C JUMPI PUSH1 0x0 DUP1 REVERT JUMPDEST POP GAS CALL ISZERO DUP1 ISZERO PUSH3 0x231 JUMPI RETURNDATASIZE PUSH1 0x0 DUP1 RETURNDATACOPY RETURNDATASIZE PUSH1 0x0 REVERT JUMPDEST POP POP POP POP PUSH1 0x0 DUP1 SWAP1 SLOAD SWAP1 PUSH2 0x100 EXP SWAP1 DIV PUSH20 0xFFFFFFFFFFFFFFFFFFFFFFFFFFFFFFFFFFFFFFFF AND PUSH20 0xFFFFFFFFFFFFFFFFFFFFFFFFFFFFFFFFFFFFFFFF AND PUSH4 0x29965A1D ADDRESS PUSH1 0x40 MLOAD PUSH3 0x281 SWAP1 PUSH3 0x77C JUMP JUMPDEST PUSH1 0x40 MLOAD DUP1 SWAP2 SUB SWAP1 KECCAK256 ADDRESS PUSH1 0x40 MLOAD DUP5 PUSH4 0xFFFFFFFF AND PUSH1 0xE0 SHL DUP2 MSTORE PUSH1 0x4 ADD PUSH3 0x2AA SWAP4 SWAP3 SWAP2 SWAP1 PUSH3 0x793 JUMP JUMPDEST PUSH1 0x0 PUSH1 0x40 MLOAD DUP1 DUP4 SUB DUP2 PUSH1 0x0 DUP8 DUP1 EXTCODESIZE ISZERO DUP1 ISZERO PUSH3 0x2C5 JUMPI PUSH1 0x0 DUP1 REVERT JUMPDEST POP GAS CALL ISZERO DUP1 ISZERO PUSH3 0x2DA JUMPI RETURNDATASIZE PUSH1 0x0 DUP1 RETURNDATACOPY RETURNDATASIZE PUSH1 0x0 REVERT JUMPDEST POP POP POP POP POP POP POP DUP4 PUSH1 0xA PUSH1 0x0 PUSH2 0x100 EXP DUP2 SLOAD DUP2 PUSH20 0xFFFFFFFFFFFFFFFFFFFFFFFFFFFFFFFFFFFFFFFF MUL NOT AND SWAP1 DUP4 PUSH20 0xFFFFFFFFFFFFFFFFFFFFFFFFFFFFFFFFFFFFFFFF AND MUL OR SWAP1 SSTORE POP DUP5 PUSH1 0xB PUSH1 0x0 PUSH2 0x100 EXP DUP2 SLOAD DUP2 PUSH20 0xFFFFFFFFFFFFFFFFFFFFFFFFFFFFFFFFFFFFFFFF MUL NOT AND SWAP1 DUP4 PUSH20 0xFFFFFFFFFFFFFFFFFFFFFFFFFFFFFFFFFFFFFFFF AND MUL OR SWAP1 SSTORE POP POP POP POP POP POP PUSH3 0x8ED JUMP JUMPDEST DUP3 DUP1 SLOAD PUSH1 0x1 DUP2 PUSH1 0x1 AND ISZERO PUSH2 0x100 MUL SUB AND PUSH1 0x2 SWAP1 DIV SWAP1 PUSH1 0x0 MSTORE PUSH1 0x20 PUSH1 0x0 KECCAK256 SWAP1 PUSH1 0x1F ADD PUSH1 0x20 SWAP1 DIV DUP2 ADD SWAP3 DUP3 PUSH1 0x1F LT PUSH3 0x3B1 JUMPI DUP1 MLOAD PUSH1 0xFF NOT AND DUP4 DUP1 ADD OR DUP6 SSTORE PUSH3 0x3E2 JUMP JUMPDEST DUP3 DUP1 ADD PUSH1 0x1 ADD DUP6 SSTORE DUP3 ISZERO PUSH3 0x3E2 JUMPI SWAP2 DUP3 ADD JUMPDEST DUP3 DUP2 GT ISZERO PUSH3 0x3E1 JUMPI DUP3 MLOAD DUP3 SSTORE SWAP2 PUSH1 0x20 ADD SWAP2 SWAP1 PUSH1 0x1 ADD SWAP1 PUSH3 0x3C4 JUMP JUMPDEST JUMPDEST POP SWAP1 POP PUSH3 0x3F1 SWAP2 SWAP1 PUSH3 0x484 JUMP JUMPDEST POP SWAP1 JUMP JUMPDEST DUP3 DUP1 SLOAD DUP3 DUP3 SSTORE SWAP1 PUSH1 0x0 MSTORE PUSH1 0x20 PUSH1 0x0 KECCAK256 SWAP1 DUP2 ADD SWAP3 DUP3 ISZERO PUSH3 0x471 JUMPI SWAP2 PUSH1 0x20 MUL DUP3 ADD JUMPDEST DUP3 DUP2 GT ISZERO PUSH3 0x470 JUMPI DUP3 MLOAD DUP3 PUSH1 0x0 PUSH2 0x100 EXP DUP2 SLOAD DUP2 PUSH20 0xFFFFFFFFFFFFFFFFFFFFFFFFFFFFFFFFFFFFFFFF MUL NOT AND SWAP1 DUP4 PUSH20 0xFFFFFFFFFFFFFFFFFFFFFFFFFFFFFFFFFFFFFFFF AND MUL OR SWAP1 SSTORE POP SWAP2 PUSH1 0x20 ADD SWAP2 SWAP1 PUSH1 0x1 ADD SWAP1 PUSH3 0x416 JUMP JUMPDEST JUMPDEST POP SWAP1 POP PUSH3 0x480 SWAP2 SWAP1 PUSH3 0x4AC JUMP JUMPDEST POP SWAP1 JUMP JUMPDEST PUSH3 0x4A9 SWAP2 SWAP1 JUMPDEST DUP1 DUP3 GT ISZERO PUSH3 0x4A5 JUMPI PUSH1 0x0 DUP2 PUSH1 0x0 SWAP1 SSTORE POP PUSH1 0x1 ADD PUSH3 0x48B JUMP JUMPDEST POP SWAP1 JUMP JUMPDEST SWAP1 JUMP JUMPDEST PUSH3 0x4EF SWAP2 SWAP1 JUMPDEST DUP1 DUP3 GT ISZERO PUSH3 0x4EB JUMPI PUSH1 0x0 DUP2 DUP2 PUSH2 0x100 EXP DUP2 SLOAD SWAP1 PUSH20 0xFFFFFFFFFFFFFFFFFFFFFFFFFFFFFFFFFFFFFFFF MUL NOT AND SWAP1 SSTORE POP PUSH1 0x1 ADD PUSH3 0x4B3 JUMP JUMPDEST POP SWAP1 JUMP JUMPDEST SWAP1 JUMP JUMPDEST PUSH1 0x0 DUP2 MLOAD SWAP1 POP PUSH3 0x503 DUP2 PUSH3 0x8D3 JUMP JUMPDEST SWAP3 SWAP2 POP POP JUMP JUMPDEST PUSH1 0x0 DUP3 PUSH1 0x1F DUP4 ADD SLT PUSH3 0x51B JUMPI PUSH1 0x0 DUP1 REVERT JUMPDEST DUP2 MLOAD PUSH3 0x532 PUSH3 0x52C DUP3 PUSH3 0x7FE JUMP JUMPDEST PUSH3 0x7D0 JUMP JUMPDEST SWAP2 POP DUP2 DUP2 DUP4 MSTORE PUSH1 0x20 DUP5 ADD SWAP4 POP PUSH1 0x20 DUP2 ADD SWAP1 POP DUP4 DUP6 PUSH1 0x20 DUP5 MUL DUP3 ADD GT ISZERO PUSH3 0x558 JUMPI PUSH1 0x0 DUP1 REVERT JUMPDEST PUSH1 0x0 JUMPDEST DUP4 DUP2 LT ISZERO PUSH3 0x58C JUMPI DUP2 PUSH3 0x571 DUP9 DUP3 PUSH3 0x4F2 JUMP JUMPDEST DUP5 MSTORE PUSH1 0x20 DUP5 ADD SWAP4 POP PUSH1 0x20 DUP4 ADD SWAP3 POP POP PUSH1 0x1 DUP2 ADD SWAP1 POP PUSH3 0x55B JUMP JUMPDEST POP POP POP POP SWAP3 SWAP2 POP POP JUMP JUMPDEST PUSH1 0x0 DUP3 PUSH1 0x1F DUP4 ADD SLT PUSH3 0x5A8 JUMPI PUSH1 0x0 DUP1 REVERT JUMPDEST DUP2 MLOAD PUSH3 0x5BF PUSH3 0x5B9 DUP3 PUSH3 0x827 JUMP JUMPDEST PUSH3 0x7D0 JUMP JUMPDEST SWAP2 POP DUP1 DUP3 MSTORE PUSH1 0x20 DUP4 ADD PUSH1 0x20 DUP4 ADD DUP6 DUP4 DUP4 ADD GT ISZERO PUSH3 0x5DC JUMPI PUSH1 0x0 DUP1 REVERT JUMPDEST PUSH3 0x5E9 DUP4 DUP3 DUP5 PUSH3 0x89D JUMP JUMPDEST POP POP POP SWAP3 SWAP2 POP POP JUMP JUMPDEST PUSH1 0x0 DUP1 PUSH1 0x0 DUP1 PUSH1 0x0 PUSH1 0xA0 DUP7 DUP9 SUB SLT ISZERO PUSH3 0x60B JUMPI PUSH1 0x0 DUP1 REVERT JUMPDEST PUSH1 0x0 PUSH3 0x61B DUP9 DUP3 DUP10 ADD PUSH3 0x4F2 JUMP JUMPDEST SWAP6 POP POP PUSH1 0x20 PUSH3 0x62E DUP9 DUP3 DUP10 ADD PUSH3 0x4F2 JUMP JUMPDEST SWAP5 POP POP PUSH1 0x40 DUP7 ADD MLOAD PUSH8 0xFFFFFFFFFFFFFFFF DUP2 GT ISZERO PUSH3 0x64C JUMPI PUSH1 0x0 DUP1 REVERT JUMPDEST PUSH3 0x65A DUP9 DUP3 DUP10 ADD PUSH3 0x596 JUMP JUMPDEST SWAP4 POP POP PUSH1 0x60 DUP7 ADD MLOAD PUSH8 0xFFFFFFFFFFFFFFFF DUP2 GT ISZERO PUSH3 0x678 JUMPI PUSH1 0x0 DUP1 REVERT JUMPDEST PUSH3 0x686 DUP9 DUP3 DUP10 ADD PUSH3 0x596 JUMP JUMPDEST SWAP3 POP POP PUSH1 0x80 DUP7 ADD MLOAD PUSH8 0xFFFFFFFFFFFFFFFF DUP2 GT ISZERO PUSH3 0x6A4 JUMPI PUSH1 0x0 DUP1 REVERT JUMPDEST PUSH3 0x6B2 DUP9 DUP3 DUP10 ADD PUSH3 0x509 JUMP JUMPDEST SWAP2 POP POP SWAP3 SWAP6 POP SWAP3 SWAP6 SWAP1 SWAP4 POP JUMP JUMPDEST PUSH3 0x6CA DUP2 PUSH3 0x85F JUMP JUMPDEST DUP3 MSTORE POP POP JUMP JUMPDEST PUSH3 0x6DB DUP2 PUSH3 0x873 JUMP JUMPDEST DUP3 MSTORE POP POP JUMP JUMPDEST PUSH1 0x0 PUSH3 0x6F0 PUSH1 0xB DUP4 PUSH3 0x854 JUMP JUMPDEST SWAP2 POP PUSH32 0x455243373737546F6B656E000000000000000000000000000000000000000000 PUSH1 0x0 DUP4 ADD MSTORE PUSH1 0xB DUP3 ADD SWAP1 POP SWAP2 SWAP1 POP JUMP JUMPDEST PUSH1 0x0 PUSH3 0x732 PUSH1 0xA DUP4 PUSH3 0x854 JUMP JUMPDEST SWAP2 POP PUSH32 0x4552433230546F6B656E00000000000000000000000000000000000000000000 PUSH1 0x0 DUP4 ADD MSTORE PUSH1 0xA DUP3 ADD SWAP1 POP SWAP2 SWAP1 POP JUMP JUMPDEST PUSH1 0x0 PUSH3 0x772 DUP3 PUSH3 0x6E1 JUMP JUMPDEST SWAP2 POP DUP2 SWAP1 POP SWAP2 SWAP1 POP JUMP JUMPDEST PUSH1 0x0 PUSH3 0x789 DUP3 PUSH3 0x723 JUMP JUMPDEST SWAP2 POP DUP2 SWAP1 POP SWAP2 SWAP1 POP JUMP JUMPDEST PUSH1 0x0 PUSH1 0x60 DUP3 ADD SWAP1 POP PUSH3 0x7AA PUSH1 0x0 DUP4 ADD DUP7 PUSH3 0x6BF JUMP JUMPDEST PUSH3 0x7B9 PUSH1 0x20 DUP4 ADD DUP6 PUSH3 0x6D0 JUMP JUMPDEST PUSH3 0x7C8 PUSH1 0x40 DUP4 ADD DUP5 PUSH3 0x6BF JUMP JUMPDEST SWAP5 SWAP4 POP POP POP POP JUMP JUMPDEST PUSH1 0x0 PUSH1 0x40 MLOAD SWAP1 POP DUP2 DUP2 ADD DUP2 DUP2 LT PUSH8 0xFFFFFFFFFFFFFFFF DUP3 GT OR ISZERO PUSH3 0x7F4 JUMPI PUSH1 0x0 DUP1 REVERT JUMPDEST DUP1 PUSH1 0x40 MSTORE POP SWAP2 SWAP1 POP JUMP JUMPDEST PUSH1 0x0 PUSH8 0xFFFFFFFFFFFFFFFF DUP3 GT ISZERO PUSH3 0x816 JUMPI PUSH1 0x0 DUP1 REVERT JUMPDEST PUSH1 0x20 DUP3 MUL SWAP1 POP PUSH1 0x20 DUP2 ADD SWAP1 POP SWAP2 SWAP1 POP JUMP JUMPDEST PUSH1 0x0 PUSH8 0xFFFFFFFFFFFFFFFF DUP3 GT ISZERO PUSH3 0x83F JUMPI PUSH1 0x0 DUP1 REVERT JUMPDEST PUSH1 0x1F NOT PUSH1 0x1F DUP4 ADD AND SWAP1 POP PUSH1 0x20 DUP2 ADD SWAP1 POP SWAP2 SWAP1 POP JUMP JUMPDEST PUSH1 0x0 DUP2 SWAP1 POP SWAP3 SWAP2 POP POP JUMP JUMPDEST PUSH1 0x0 PUSH3 0x86C DUP3 PUSH3 0x87D JUMP JUMPDEST SWAP1 POP SWAP2 SWAP1 POP JUMP JUMPDEST PUSH1 0x0 DUP2 SWAP1 POP SWAP2 SWAP1 POP JUMP JUMPDEST PUSH1 0x0 PUSH20 0xFFFFFFFFFFFFFFFFFFFFFFFFFFFFFFFFFFFFFFFF DUP3 AND SWAP1 POP SWAP2 SWAP1 POP JUMP JUMPDEST PUSH1 0x0 JUMPDEST DUP4 DUP2 LT ISZERO PUSH3 0x8BD JUMPI DUP1 DUP3 ADD MLOAD DUP2 DUP5 ADD MSTORE PUSH1 0x20 DUP2 ADD SWAP1 POP PUSH3 0x8A0 JUMP JUMPDEST DUP4 DUP2 GT ISZERO PUSH3 0x8CD JUMPI PUSH1 0x0 DUP5 DUP5 ADD MSTORE JUMPDEST POP POP POP POP JUMP JUMPDEST PUSH3 0x8DE DUP2 PUSH3 0x85F JUMP JUMPDEST DUP2 EQ PUSH3 0x8EA JUMPI PUSH1 0x0 DUP1 REVERT JUMPDEST POP JUMP JUMPDEST PUSH2 0x5B90 DUP1 PUSH3 0x8FD PUSH1 0x0 CODECOPY PUSH1 0x0 RETURN INVALID PUSH1 0x80 PUSH1 0x40 MSTORE CALLVALUE DUP1 ISZERO PUSH2 0x10 JUMPI PUSH1 0x0 DUP1 REVERT JUMPDEST POP PUSH1 0x4 CALLDATASIZE LT PUSH2 0x253 JUMPI PUSH1 0x0 CALLDATALOAD PUSH1 0xE0 SHR DUP1 PUSH4 0x7A26B414 GT PUSH2 0x146 JUMPI DUP1 PUSH4 0xA9059CBB GT PUSH2 0xC3 JUMPI DUP1 PUSH4 0xD95B6371 GT PUSH2 0x87 JUMPI DUP1 PUSH4 0xD95B6371 EQ PUSH2 0x71F JUMPI DUP1 PUSH4 0xDD62ED3E EQ PUSH2 0x74F JUMPI DUP1 PUSH4 0xFAD8B32A EQ PUSH2 0x77F JUMPI DUP1 PUSH4 0xFC0C546A EQ PUSH2 0x79B JUMPI DUP1 PUSH4 0xFC673C4F EQ PUSH2 0x7B9 JUMPI DUP1 PUSH4 0xFE9D9303 EQ PUSH2 0x7D5 JUMPI PUSH2 0x253 JUMP JUMPDEST DUP1 PUSH4 0xA9059CBB EQ PUSH2 0x654 JUMPI DUP1 PUSH4 0xC35450EC EQ PUSH2 0x684 JUMPI DUP1 PUSH4 0xD240A008 EQ PUSH2 0x6A0 JUMPI DUP1 PUSH4 0xD3D38193 EQ PUSH2 0x6D1 JUMPI DUP1 PUSH4 0xD6D75F51 EQ PUSH2 0x701 JUMPI PUSH2 0x253 JUMP JUMPDEST DUP1 PUSH4 0x925067F4 GT PUSH2 0x10A JUMPI DUP1 PUSH4 0x925067F4 EQ PUSH2 0x5C6 JUMPI DUP1 PUSH4 0x959B8C3F EQ PUSH2 0x5E2 JUMPI DUP1 PUSH4 0x95D89B41 EQ PUSH2 0x5FE JUMPI DUP1 PUSH4 0x9BD9BBC6 EQ PUSH2 0x61C JUMPI DUP1 PUSH4 0x9E729549 EQ PUSH2 0x638 JUMPI PUSH2 0x253 JUMP JUMPDEST DUP1 PUSH4 0x7A26B414 EQ PUSH2 0x4FA JUMPI DUP1 PUSH4 0x8314B4E3 EQ PUSH2 0x52E JUMPI DUP1 PUSH4 0x88D742C2 EQ PUSH2 0x55E JUMPI DUP1 PUSH4 0x8CC87228 EQ PUSH2 0x57A JUMPI DUP1 PUSH4 0x920C0607 EQ PUSH2 0x596 JUMPI PUSH2 0x253 JUMP JUMPDEST DUP1 PUSH4 0x313CE567 GT PUSH2 0x1D4 JUMPI DUP1 PUSH4 0x5B38539E GT PUSH2 0x198 JUMPI DUP1 PUSH4 0x5B38539E EQ PUSH2 0x446 JUMPI DUP1 PUSH4 0x5FFD9F29 EQ PUSH2 0x476 JUMPI DUP1 PUSH4 0x61E390CB EQ PUSH2 0x492 JUMPI DUP1 PUSH4 0x62AD1B83 EQ PUSH2 0x4AE JUMPI DUP1 PUSH4 0x70A08231 EQ PUSH2 0x4CA JUMPI PUSH2 0x253 JUMP JUMPDEST DUP1 PUSH4 0x313CE567 EQ PUSH2 0x3B6 JUMPI DUP1 PUSH4 0x32AE230A EQ PUSH2 0x3D4 JUMPI DUP1 PUSH4 0x37E63D07 EQ PUSH2 0x3F0 JUMPI DUP1 PUSH4 0x40C10F19 EQ PUSH2 0x40C JUMPI DUP1 PUSH4 0x556F0DC7 EQ PUSH2 0x428 JUMPI PUSH2 0x253 JUMP JUMPDEST DUP1 PUSH4 0x1AB113B9 GT PUSH2 0x21B JUMPI DUP1 PUSH4 0x1AB113B9 EQ PUSH2 0x300 JUMPI DUP1 PUSH4 0x1E9A6950 EQ PUSH2 0x30A JUMPI DUP1 PUSH4 0x21EDF266 EQ PUSH2 0x33A JUMPI DUP1 PUSH4 0x23B872DD EQ PUSH2 0x356 JUMPI DUP1 PUSH4 0x2F8035B4 EQ PUSH2 0x386 JUMPI PUSH2 0x253 JUMP JUMPDEST DUP1 PUSH4 0x6E48538 EQ PUSH2 0x258 JUMPI DUP1 PUSH4 0x6FDDE03 EQ PUSH2 0x276 JUMPI DUP1 PUSH4 0x95EA7B3 EQ PUSH2 0x294 JUMPI DUP1 PUSH4 0x9EC6B6B EQ PUSH2 0x2C4 JUMPI DUP1 PUSH4 0x18160DDD EQ PUSH2 0x2E2 JUMPI JUMPDEST PUSH1 0x0 DUP1 REVERT JUMPDEST PUSH2 0x260 PUSH2 0x7F1 JUMP JUMPDEST PUSH1 0x40 MLOAD PUSH2 0x26D SWAP2 SWAP1 PUSH2 0x53B4 JUMP JUMPDEST PUSH1 0x40 MLOAD DUP1 SWAP2 SUB SWAP1 RETURN JUMPDEST PUSH2 0x27E PUSH2 0x87F JUMP JUMPDEST PUSH1 0x40 MLOAD PUSH2 0x28B SWAP2 SWAP1 PUSH2 0x5457 JUMP JUMPDEST PUSH1 0x40 MLOAD DUP1 SWAP2 SUB SWAP1 RETURN JUMPDEST PUSH2 0x2AE PUSH1 0x4 DUP1 CALLDATASIZE SUB PUSH2 0x2A9 SWAP2 SWAP1 DUP2 ADD SWAP1 PUSH2 0x45FC JUMP JUMPDEST PUSH2 0x921 JUMP JUMPDEST PUSH1 0x40 MLOAD PUSH2 0x2BB SWAP2 SWAP1 PUSH2 0x5406 JUMP JUMPDEST PUSH1 0x40 MLOAD DUP1 SWAP2 SUB SWAP1 RETURN JUMPDEST PUSH2 0x2CC PUSH2 0x944 JUMP JUMPDEST PUSH1 0x40 MLOAD PUSH2 0x2D9 SWAP2 SWAP1 PUSH2 0x5679 JUMP JUMPDEST PUSH1 0x40 MLOAD DUP1 SWAP2 SUB SWAP1 RETURN JUMPDEST PUSH2 0x2EA PUSH2 0x9EB JUMP JUMPDEST PUSH1 0x40 MLOAD PUSH2 0x2F7 SWAP2 SWAP1 PUSH2 0x5679 JUMP JUMPDEST PUSH1 0x40 MLOAD DUP1 SWAP2 SUB SWAP1 RETURN JUMPDEST PUSH2 0x308 PUSH2 0x9F5 JUMP JUMPDEST STOP JUMPDEST PUSH2 0x324 PUSH1 0x4 DUP1 CALLDATASIZE SUB PUSH2 0x31F SWAP2 SWAP1 DUP2 ADD SWAP1 PUSH2 0x45FC JUMP JUMPDEST PUSH2 0xA5E JUMP JUMPDEST PUSH1 0x40 MLOAD PUSH2 0x331 SWAP2 SWAP1 PUSH2 0x5679 JUMP JUMPDEST PUSH1 0x40 MLOAD DUP1 SWAP2 SUB SWAP1 RETURN JUMPDEST PUSH2 0x354 PUSH1 0x4 DUP1 CALLDATASIZE SUB PUSH2 0x34F SWAP2 SWAP1 DUP2 ADD SWAP1 PUSH2 0x4433 JUMP JUMPDEST PUSH2 0xD0A JUMP JUMPDEST STOP JUMPDEST PUSH2 0x370 PUSH1 0x4 DUP1 CALLDATASIZE SUB PUSH2 0x36B SWAP2 SWAP1 DUP2 ADD SWAP1 PUSH2 0x44C1 JUMP JUMPDEST PUSH2 0xDBB JUMP JUMPDEST PUSH1 0x40 MLOAD PUSH2 0x37D SWAP2 SWAP1 PUSH2 0x5406 JUMP JUMPDEST PUSH1 0x40 MLOAD DUP1 SWAP2 SUB SWAP1 RETURN JUMPDEST PUSH2 0x3A0 PUSH1 0x4 DUP1 CALLDATASIZE SUB PUSH2 0x39B SWAP2 SWAP1 DUP2 ADD SWAP1 PUSH2 0x4433 JUMP JUMPDEST PUSH2 0xFED JUMP JUMPDEST PUSH1 0x40 MLOAD PUSH2 0x3AD SWAP2 SWAP1 PUSH2 0x5679 JUMP JUMPDEST PUSH1 0x40 MLOAD DUP1 SWAP2 SUB SWAP1 RETURN JUMPDEST PUSH2 0x3BE PUSH2 0x1039 JUMP JUMPDEST PUSH1 0x40 MLOAD PUSH2 0x3CB SWAP2 SWAP1 PUSH2 0x57A8 JUMP JUMPDEST PUSH1 0x40 MLOAD DUP1 SWAP2 SUB SWAP1 RETURN JUMPDEST PUSH2 0x3EE PUSH1 0x4 DUP1 CALLDATASIZE SUB PUSH2 0x3E9 SWAP2 SWAP1 DUP2 ADD SWAP1 PUSH2 0x45FC JUMP JUMPDEST PUSH2 0x1042 JUMP JUMPDEST STOP JUMPDEST PUSH2 0x40A PUSH1 0x4 DUP1 CALLDATASIZE SUB PUSH2 0x405 SWAP2 SWAP1 DUP2 ADD SWAP1 PUSH2 0x45C0 JUMP JUMPDEST PUSH2 0x1059 JUMP JUMPDEST STOP JUMPDEST PUSH2 0x426 PUSH1 0x4 DUP1 CALLDATASIZE SUB PUSH2 0x421 SWAP2 SWAP1 DUP2 ADD SWAP1 PUSH2 0x45FC JUMP JUMPDEST PUSH2 0x10F8 JUMP JUMPDEST STOP JUMPDEST PUSH2 0x430 PUSH2 0x141C JUMP JUMPDEST PUSH1 0x40 MLOAD PUSH2 0x43D SWAP2 SWAP1 PUSH2 0x5679 JUMP JUMPDEST PUSH1 0x40 MLOAD DUP1 SWAP2 SUB SWAP1 RETURN JUMPDEST PUSH2 0x460 PUSH1 0x4 DUP1 CALLDATASIZE SUB PUSH2 0x45B SWAP2 SWAP1 DUP2 ADD SWAP1 PUSH2 0x473F JUMP JUMPDEST PUSH2 0x1425 JUMP JUMPDEST PUSH1 0x40 MLOAD PUSH2 0x46D SWAP2 SWAP1 PUSH2 0x5406 JUMP JUMPDEST PUSH1 0x40 MLOAD DUP1 SWAP2 SUB SWAP1 RETURN JUMPDEST PUSH2 0x490 PUSH1 0x4 DUP1 CALLDATASIZE SUB PUSH2 0x48B SWAP2 SWAP1 DUP2 ADD SWAP1 PUSH2 0x483D JUMP JUMPDEST PUSH2 0x15E2 JUMP JUMPDEST STOP JUMPDEST PUSH2 0x4AC PUSH1 0x4 DUP1 CALLDATASIZE SUB PUSH2 0x4A7 SWAP2 SWAP1 DUP2 ADD SWAP1 PUSH2 0x45FC JUMP JUMPDEST PUSH2 0x1647 JUMP JUMPDEST STOP JUMPDEST PUSH2 0x4C8 PUSH1 0x4 DUP1 CALLDATASIZE SUB PUSH2 0x4C3 SWAP2 SWAP1 DUP2 ADD SWAP1 PUSH2 0x4510 JUMP JUMPDEST PUSH2 0x16B3 JUMP JUMPDEST STOP JUMPDEST PUSH2 0x4E4 PUSH1 0x4 DUP1 CALLDATASIZE SUB PUSH2 0x4DF SWAP2 SWAP1 DUP2 ADD SWAP1 PUSH2 0x4433 JUMP JUMPDEST PUSH2 0x17AB JUMP JUMPDEST PUSH1 0x40 MLOAD PUSH2 0x4F1 SWAP2 SWAP1 PUSH2 0x5679 JUMP JUMPDEST PUSH1 0x40 MLOAD DUP1 SWAP2 SUB SWAP1 RETURN JUMPDEST PUSH2 0x514 PUSH1 0x4 DUP1 CALLDATASIZE SUB PUSH2 0x50F SWAP2 SWAP1 DUP2 ADD SWAP1 PUSH2 0x4433 JUMP JUMPDEST PUSH2 0x1869 JUMP JUMPDEST PUSH1 0x40 MLOAD PUSH2 0x525 SWAP6 SWAP5 SWAP4 SWAP3 SWAP2 SWAP1 PUSH2 0x5755 JUMP JUMPDEST PUSH1 0x40 MLOAD DUP1 SWAP2 SUB SWAP1 RETURN JUMPDEST PUSH2 0x548 PUSH1 0x4 DUP1 CALLDATASIZE SUB PUSH2 0x543 SWAP2 SWAP1 DUP2 ADD SWAP1 PUSH2 0x488F JUMP JUMPDEST PUSH2 0x18B9 JUMP JUMPDEST PUSH1 0x40 MLOAD PUSH2 0x555 SWAP2 SWAP1 PUSH2 0x5406 JUMP JUMPDEST PUSH1 0x40 MLOAD DUP1 SWAP2 SUB SWAP1 RETURN JUMPDEST PUSH2 0x578 PUSH1 0x4 DUP1 CALLDATASIZE SUB PUSH2 0x573 SWAP2 SWAP1 DUP2 ADD SWAP1 PUSH2 0x4433 JUMP JUMPDEST PUSH2 0x1B2B JUMP JUMPDEST STOP JUMPDEST PUSH2 0x594 PUSH1 0x4 DUP1 CALLDATASIZE SUB PUSH2 0x58F SWAP2 SWAP1 DUP2 ADD SWAP1 PUSH2 0x45FC JUMP JUMPDEST PUSH2 0x1D1A JUMP JUMPDEST STOP JUMPDEST PUSH2 0x5B0 PUSH1 0x4 DUP1 CALLDATASIZE SUB PUSH2 0x5AB SWAP2 SWAP1 DUP2 ADD SWAP1 PUSH2 0x4433 JUMP JUMPDEST PUSH2 0x1E78 JUMP JUMPDEST PUSH1 0x40 MLOAD PUSH2 0x5BD SWAP2 SWAP1 PUSH2 0x5679 JUMP JUMPDEST PUSH1 0x40 MLOAD DUP1 SWAP2 SUB SWAP1 RETURN JUMPDEST PUSH2 0x5E0 PUSH1 0x4 DUP1 CALLDATASIZE SUB PUSH2 0x5DB SWAP2 SWAP1 DUP2 ADD SWAP1 PUSH2 0x483D JUMP JUMPDEST PUSH2 0x1F9E JUMP JUMPDEST STOP JUMPDEST PUSH2 0x5FC PUSH1 0x4 DUP1 CALLDATASIZE SUB PUSH2 0x5F7 SWAP2 SWAP1 DUP2 ADD SWAP1 PUSH2 0x4433 JUMP JUMPDEST PUSH2 0x2002 JUMP JUMPDEST STOP JUMPDEST PUSH2 0x606 PUSH2 0x2263 JUMP JUMPDEST PUSH1 0x40 MLOAD PUSH2 0x613 SWAP2 SWAP1 PUSH2 0x5457 JUMP JUMPDEST PUSH1 0x40 MLOAD DUP1 SWAP2 SUB SWAP1 RETURN JUMPDEST PUSH2 0x636 PUSH1 0x4 DUP1 CALLDATASIZE SUB PUSH2 0x631 SWAP2 SWAP1 DUP2 ADD SWAP1 PUSH2 0x4638 JUMP JUMPDEST PUSH2 0x2305 JUMP JUMPDEST STOP JUMPDEST PUSH2 0x652 PUSH1 0x4 DUP1 CALLDATASIZE SUB PUSH2 0x64D SWAP2 SWAP1 DUP2 ADD SWAP1 PUSH2 0x47A6 JUMP JUMPDEST PUSH2 0x237C JUMP JUMPDEST STOP JUMPDEST PUSH2 0x66E PUSH1 0x4 DUP1 CALLDATASIZE SUB PUSH2 0x669 SWAP2 SWAP1 DUP2 ADD SWAP1 PUSH2 0x45FC JUMP JUMPDEST PUSH2 0x23EB JUMP JUMPDEST PUSH1 0x40 MLOAD PUSH2 0x67B SWAP2 SWAP1 PUSH2 0x5406 JUMP JUMPDEST PUSH1 0x40 MLOAD DUP1 SWAP2 SUB SWAP1 RETURN JUMPDEST PUSH2 0x69E PUSH1 0x4 DUP1 CALLDATASIZE SUB PUSH2 0x699 SWAP2 SWAP1 DUP2 ADD SWAP1 PUSH2 0x48E1 JUMP JUMPDEST PUSH2 0x24F9 JUMP JUMPDEST STOP JUMPDEST PUSH2 0x6BA PUSH1 0x4 DUP1 CALLDATASIZE SUB PUSH2 0x6B5 SWAP2 SWAP1 DUP2 ADD SWAP1 PUSH2 0x4433 JUMP JUMPDEST PUSH2 0x251B JUMP JUMPDEST PUSH1 0x40 MLOAD PUSH2 0x6C8 SWAP3 SWAP2 SWAP1 PUSH2 0x53D6 JUMP JUMPDEST PUSH1 0x40 MLOAD DUP1 SWAP2 SUB SWAP1 RETURN JUMPDEST PUSH2 0x6EB PUSH1 0x4 DUP1 CALLDATASIZE SUB PUSH2 0x6E6 SWAP2 SWAP1 DUP2 ADD SWAP1 PUSH2 0x4433 JUMP JUMPDEST PUSH2 0x26CC JUMP JUMPDEST PUSH1 0x40 MLOAD PUSH2 0x6F8 SWAP2 SWAP1 PUSH2 0x5679 JUMP JUMPDEST PUSH1 0x40 MLOAD DUP1 SWAP2 SUB SWAP1 RETURN JUMPDEST PUSH2 0x709 PUSH2 0x26DE JUMP JUMPDEST PUSH1 0x40 MLOAD PUSH2 0x716 SWAP2 SWAP1 PUSH2 0x543C JUMP JUMPDEST PUSH1 0x40 MLOAD DUP1 SWAP2 SUB SWAP1 RETURN JUMPDEST PUSH2 0x739 PUSH1 0x4 DUP1 CALLDATASIZE SUB PUSH2 0x734 SWAP2 SWAP1 DUP2 ADD SWAP1 PUSH2 0x4485 JUMP JUMPDEST PUSH2 0x2704 JUMP JUMPDEST PUSH1 0x40 MLOAD PUSH2 0x746 SWAP2 SWAP1 PUSH2 0x5406 JUMP JUMPDEST PUSH1 0x40 MLOAD DUP1 SWAP2 SUB SWAP1 RETURN JUMPDEST PUSH2 0x769 PUSH1 0x4 DUP1 CALLDATASIZE SUB PUSH2 0x764 SWAP2 SWAP1 DUP2 ADD SWAP1 PUSH2 0x4485 JUMP JUMPDEST PUSH2 0x28B5 JUMP JUMPDEST PUSH1 0x40 MLOAD PUSH2 0x776 SWAP2 SWAP1 PUSH2 0x5679 JUMP JUMPDEST PUSH1 0x40 MLOAD DUP1 SWAP2 SUB SWAP1 RETURN JUMPDEST PUSH2 0x799 PUSH1 0x4 DUP1 CALLDATASIZE SUB PUSH2 0x794 SWAP2 SWAP1 DUP2 ADD SWAP1 PUSH2 0x4433 JUMP JUMPDEST PUSH2 0x293C JUMP JUMPDEST STOP JUMPDEST PUSH2 0x7A3 PUSH2 0x2B9D JUMP JUMPDEST PUSH1 0x40 MLOAD PUSH2 0x7B0 SWAP2 SWAP1 PUSH2 0x5421 JUMP JUMPDEST PUSH1 0x40 MLOAD DUP1 SWAP2 SUB SWAP1 RETURN JUMPDEST PUSH2 0x7D3 PUSH1 0x4 DUP1 CALLDATASIZE SUB PUSH2 0x7CE SWAP2 SWAP1 DUP2 ADD SWAP1 PUSH2 0x46A4 JUMP JUMPDEST PUSH2 0x2BC3 JUMP JUMPDEST STOP JUMPDEST PUSH2 0x7EF PUSH1 0x4 DUP1 CALLDATASIZE SUB PUSH2 0x7EA SWAP2 SWAP1 DUP2 ADD SWAP1 PUSH2 0x498C JUMP JUMPDEST PUSH2 0x2CB7 JUMP JUMPDEST STOP JUMPDEST PUSH1 0x60 PUSH1 0x5 DUP1 SLOAD DUP1 PUSH1 0x20 MUL PUSH1 0x20 ADD PUSH1 0x40 MLOAD SWAP1 DUP2 ADD PUSH1 0x40 MSTORE DUP1 SWAP3 SWAP2 SWAP1 DUP2 DUP2 MSTORE PUSH1 0x20 ADD DUP3 DUP1 SLOAD DUP1 ISZERO PUSH2 0x875 JUMPI PUSH1 0x20 MUL DUP3 ADD SWAP2 SWAP1 PUSH1 0x0 MSTORE PUSH1 0x20 PUSH1 0x0 KECCAK256 SWAP1 JUMPDEST DUP2 PUSH1 0x0 SWAP1 SLOAD SWAP1 PUSH2 0x100 EXP SWAP1 DIV PUSH20 0xFFFFFFFFFFFFFFFFFFFFFFFFFFFFFFFFFFFFFFFF AND PUSH20 0xFFFFFFFFFFFFFFFFFFFFFFFFFFFFFFFFFFFFFFFF AND DUP2 MSTORE PUSH1 0x20 ADD SWAP1 PUSH1 0x1 ADD SWAP1 DUP1 DUP4 GT PUSH2 0x82B JUMPI JUMPDEST POP POP POP POP POP SWAP1 POP SWAP1 JUMP JUMPDEST PUSH1 0x60 PUSH1 0x3 DUP1 SLOAD PUSH1 0x1 DUP2 PUSH1 0x1 AND ISZERO PUSH2 0x100 MUL SUB AND PUSH1 0x2 SWAP1 DIV DUP1 PUSH1 0x1F ADD PUSH1 0x20 DUP1 SWAP2 DIV MUL PUSH1 0x20 ADD PUSH1 0x40 MLOAD SWAP1 DUP2 ADD PUSH1 0x40 MSTORE DUP1 SWAP3 SWAP2 SWAP1 DUP2 DUP2 MSTORE PUSH1 0x20 ADD DUP3 DUP1 SLOAD PUSH1 0x1 DUP2 PUSH1 0x1 AND ISZERO PUSH2 0x100 MUL SUB AND PUSH1 0x2 SWAP1 DIV DUP1 ISZERO PUSH2 0x917 JUMPI DUP1 PUSH1 0x1F LT PUSH2 0x8EC JUMPI PUSH2 0x100 DUP1 DUP4 SLOAD DIV MUL DUP4 MSTORE SWAP2 PUSH1 0x20 ADD SWAP2 PUSH2 0x917 JUMP JUMPDEST DUP3 ADD SWAP2 SWAP1 PUSH1 0x0 MSTORE PUSH1 0x20 PUSH1 0x0 KECCAK256 SWAP1 JUMPDEST DUP2 SLOAD DUP2 MSTORE SWAP1 PUSH1 0x1 ADD SWAP1 PUSH1 0x20 ADD DUP1 DUP4 GT PUSH2 0x8FA JUMPI DUP3 SWAP1 SUB PUSH1 0x1F AND DUP3 ADD SWAP2 JUMPDEST POP POP POP POP POP SWAP1 POP SWAP1 JUMP JUMPDEST PUSH1 0x0 DUP1 PUSH2 0x92C PUSH2 0x2D2A JUMP JUMPDEST SWAP1 POP PUSH2 0x939 DUP2 DUP6 DUP6 PUSH2 0x2D32 JUMP JUMPDEST PUSH1 0x1 SWAP2 POP POP SWAP3 SWAP2 POP POP JUMP JUMPDEST PUSH1 0x0 PUSH1 0xB PUSH1 0x0 SWAP1 SLOAD SWAP1 PUSH2 0x100 EXP SWAP1 DIV PUSH20 0xFFFFFFFFFFFFFFFFFFFFFFFFFFFFFFFFFFFFFFFF AND PUSH20 0xFFFFFFFFFFFFFFFFFFFFFFFFFFFFFFFFFFFFFFFF AND PUSH4 0x9EC6B6B PUSH1 0x40 MLOAD DUP2 PUSH4 0xFFFFFFFF AND PUSH1 0xE0 SHL DUP2 MSTORE PUSH1 0x4 ADD PUSH1 0x20 PUSH1 0x40 MLOAD DUP1 DUP4 SUB DUP2 DUP7 DUP1 EXTCODESIZE ISZERO DUP1 ISZERO PUSH2 0x9AE JUMPI PUSH1 0x0 DUP1 REVERT JUMPDEST POP GAS STATICCALL ISZERO DUP1 ISZERO PUSH2 0x9C2 JUMPI RETURNDATASIZE PUSH1 0x0 DUP1 RETURNDATACOPY RETURNDATASIZE PUSH1 0x0 REVERT JUMPDEST POP POP POP POP PUSH1 0x40 MLOAD RETURNDATASIZE PUSH1 0x1F NOT PUSH1 0x1F DUP3 ADD AND DUP3 ADD DUP1 PUSH1 0x40 MSTORE POP PUSH2 0x9E6 SWAP2 SWAP1 DUP2 ADD SWAP1 PUSH2 0x48B8 JUMP JUMPDEST SWAP1 POP SWAP1 JUMP JUMPDEST PUSH1 0x0 PUSH1 0x2 SLOAD SWAP1 POP SWAP1 JUMP JUMPDEST PUSH1 0x0 PUSH1 0xC PUSH1 0x0 PUSH2 0xA03 PUSH2 0x2D2A JUMP JUMPDEST PUSH20 0xFFFFFFFFFFFFFFFFFFFFFFFFFFFFFFFFFFFFFFFF AND PUSH20 0xFFFFFFFFFFFFFFFFFFFFFFFFFFFFFFFFFFFFFFFF AND DUP2 MSTORE PUSH1 0x20 ADD SWAP1 DUP2 MSTORE PUSH1 0x20 ADD PUSH1 0x0 KECCAK256 SWAP1 POP PUSH1 0x0 DUP2 PUSH1 0x2 ADD DUP2 PUSH2 0xA50 SWAP2 SWAP1 PUSH2 0x3F0E JUMP JUMPDEST POP PUSH1 0x0 DUP2 PUSH1 0x3 ADD DUP2 SWAP1 SSTORE POP POP JUMP JUMPDEST PUSH1 0x0 PUSH2 0xA70 PUSH2 0xA6B PUSH2 0x2D2A JUMP JUMPDEST PUSH2 0x1B2B JUMP JUMPDEST PUSH1 0x0 PUSH2 0xA94 PUSH2 0xA85 PUSH2 0xA80 PUSH2 0x2D2A JUMP JUMPDEST PUSH2 0x2E8D JUMP JUMPDEST DUP5 PUSH2 0x2E9F SWAP1 SWAP2 SWAP1 PUSH4 0xFFFFFFFF AND JUMP JUMPDEST SWAP1 POP PUSH2 0xACF PUSH2 0xAA1 PUSH2 0x2D2A JUMP JUMPDEST PUSH2 0xAA9 PUSH2 0x2D2A JUMP JUMPDEST DUP4 PUSH1 0x40 MLOAD DUP1 PUSH1 0x20 ADD PUSH1 0x40 MSTORE DUP1 PUSH1 0x0 DUP2 MSTORE POP PUSH1 0x40 MLOAD DUP1 PUSH1 0x20 ADD PUSH1 0x40 MSTORE DUP1 PUSH1 0x0 DUP2 MSTORE POP PUSH2 0x2EB8 JUMP JUMPDEST PUSH1 0x0 PUSH2 0xB9D PUSH1 0xB PUSH1 0x0 SWAP1 SLOAD SWAP1 PUSH2 0x100 EXP SWAP1 DIV PUSH20 0xFFFFFFFFFFFFFFFFFFFFFFFFFFFFFFFFFFFFFFFF AND PUSH20 0xFFFFFFFFFFFFFFFFFFFFFFFFFFFFFFFFFFFFFFFF AND PUSH4 0x7FF9B596 PUSH1 0x40 MLOAD DUP2 PUSH4 0xFFFFFFFF AND PUSH1 0xE0 SHL DUP2 MSTORE PUSH1 0x4 ADD PUSH1 0x20 PUSH1 0x40 MLOAD DUP1 DUP4 SUB DUP2 DUP7 DUP1 EXTCODESIZE ISZERO DUP1 ISZERO PUSH2 0xB3C JUMPI PUSH1 0x0 DUP1 REVERT JUMPDEST POP GAS STATICCALL ISZERO DUP1 ISZERO PUSH2 0xB50 JUMPI RETURNDATASIZE PUSH1 0x0 DUP1 RETURNDATACOPY RETURNDATASIZE PUSH1 0x0 REVERT JUMPDEST POP POP POP POP PUSH1 0x40 MLOAD RETURNDATASIZE PUSH1 0x1F NOT PUSH1 0x1F DUP3 ADD AND DUP3 ADD DUP1 PUSH1 0x40 MSTORE POP PUSH2 0xB74 SWAP2 SWAP1 DUP2 ADD SWAP1 PUSH2 0x48B8 JUMP JUMPDEST PUSH2 0xB8F PUSH8 0xDE0B6B3A7640000 DUP6 PUSH2 0x30D7 SWAP1 SWAP2 SWAP1 PUSH4 0xFFFFFFFF AND JUMP JUMPDEST PUSH2 0x3147 SWAP1 SWAP2 SWAP1 PUSH4 0xFFFFFFFF AND JUMP JUMPDEST SWAP1 POP PUSH1 0x1 DUP3 SUB PUSH1 0xB PUSH1 0x0 SWAP1 SLOAD SWAP1 PUSH2 0x100 EXP SWAP1 DIV PUSH20 0xFFFFFFFFFFFFFFFFFFFFFFFFFFFFFFFFFFFFFFFF AND PUSH20 0xFFFFFFFFFFFFFFFFFFFFFFFFFFFFFFFFFFFFFFFF AND PUSH4 0x9DC29FAC DUP8 DUP5 PUSH1 0x40 MLOAD DUP4 PUSH4 0xFFFFFFFF AND PUSH1 0xE0 SHL DUP2 MSTORE PUSH1 0x4 ADD PUSH2 0xC00 SWAP3 SWAP2 SWAP1 PUSH2 0x538B JUMP JUMPDEST PUSH1 0x20 PUSH1 0x40 MLOAD DUP1 DUP4 SUB DUP2 PUSH1 0x0 DUP8 DUP1 EXTCODESIZE ISZERO DUP1 ISZERO PUSH2 0xC1A JUMPI PUSH1 0x0 DUP1 REVERT JUMPDEST POP GAS CALL ISZERO DUP1 ISZERO PUSH2 0xC2E JUMPI RETURNDATASIZE PUSH1 0x0 DUP1 RETURNDATACOPY RETURNDATASIZE PUSH1 0x0 REVERT JUMPDEST POP POP POP POP PUSH1 0x40 MLOAD RETURNDATASIZE PUSH1 0x1F NOT PUSH1 0x1F DUP3 ADD AND DUP3 ADD DUP1 PUSH1 0x40 MSTORE POP PUSH2 0xC52 SWAP2 SWAP1 DUP2 ADD SWAP1 PUSH2 0x48B8 JUMP JUMPDEST LT ISZERO PUSH2 0xC93 JUMPI PUSH1 0x40 MLOAD PUSH32 0x8C379A000000000000000000000000000000000000000000000000000000000 DUP2 MSTORE PUSH1 0x4 ADD PUSH2 0xC8A SWAP1 PUSH2 0x55D9 JUMP JUMPDEST PUSH1 0x40 MLOAD DUP1 SWAP2 SUB SWAP1 REVERT JUMPDEST PUSH2 0xC9B PUSH2 0x2D2A JUMP JUMPDEST PUSH20 0xFFFFFFFFFFFFFFFFFFFFFFFFFFFFFFFFFFFFFFFF AND DUP6 PUSH20 0xFFFFFFFFFFFFFFFFFFFFFFFFFFFFFFFFFFFFFFFF AND PUSH32 0x98E2EF558343683D81148487F9E3ADC59AB8B7F4038427844DFA588F409F3DDC DUP5 PUSH1 0x40 MLOAD PUSH2 0xCF7 SWAP2 SWAP1 PUSH2 0x5679 JUMP JUMPDEST PUSH1 0x40 MLOAD DUP1 SWAP2 SUB SWAP1 LOG3 DUP2 SWAP3 POP POP POP SWAP3 SWAP2 POP POP JUMP JUMPDEST PUSH2 0xD13 DUP2 PUSH2 0x1B2B JUMP JUMPDEST PUSH1 0x0 PUSH1 0xC PUSH1 0x0 DUP4 PUSH20 0xFFFFFFFFFFFFFFFFFFFFFFFFFFFFFFFFFFFFFFFF AND PUSH20 0xFFFFFFFFFFFFFFFFFFFFFFFFFFFFFFFFFFFFFFFF AND DUP2 MSTORE PUSH1 0x20 ADD SWAP1 DUP2 MSTORE PUSH1 0x20 ADD PUSH1 0x0 KECCAK256 SWAP1 POP DUP2 PUSH20 0xFFFFFFFFFFFFFFFFFFFFFFFFFFFFFFFFFFFFFFFF AND PUSH32 0x85438FA7C52FD8FC942F2DDEE2033AA0EFD3B75027316B7F1ECBE7738333807E DUP3 PUSH1 0x1 ADD SLOAD PUSH1 0x40 MLOAD PUSH2 0xDA0 SWAP2 SWAP1 PUSH2 0x5679 JUMP JUMPDEST PUSH1 0x40 MLOAD DUP1 SWAP2 SUB SWAP1 LOG2 PUSH2 0xDB6 DUP3 DUP3 PUSH1 0x1 ADD SLOAD PUSH2 0x3191 JUMP JUMPDEST POP POP POP JUMP JUMPDEST PUSH1 0x0 DUP1 PUSH20 0xFFFFFFFFFFFFFFFFFFFFFFFFFFFFFFFFFFFFFFFF AND DUP4 PUSH20 0xFFFFFFFFFFFFFFFFFFFFFFFFFFFFFFFFFFFFFFFF AND EQ ISZERO PUSH2 0xE2C JUMPI PUSH1 0x40 MLOAD PUSH32 0x8C379A000000000000000000000000000000000000000000000000000000000 DUP2 MSTORE PUSH1 0x4 ADD PUSH2 0xE23 SWAP1 PUSH2 0x55B9 JUMP JUMPDEST PUSH1 0x40 MLOAD DUP1 SWAP2 SUB SWAP1 REVERT JUMPDEST PUSH1 0x0 PUSH20 0xFFFFFFFFFFFFFFFFFFFFFFFFFFFFFFFFFFFFFFFF AND DUP5 PUSH20 0xFFFFFFFFFFFFFFFFFFFFFFFFFFFFFFFFFFFFFFFF AND EQ ISZERO PUSH2 0xE9C JUMPI PUSH1 0x40 MLOAD PUSH32 0x8C379A000000000000000000000000000000000000000000000000000000000 DUP2 MSTORE PUSH1 0x4 ADD PUSH2 0xE93 SWAP1 PUSH2 0x5619 JUMP JUMPDEST PUSH1 0x40 MLOAD DUP1 SWAP2 SUB SWAP1 REVERT JUMPDEST PUSH1 0x0 PUSH2 0xEA6 PUSH2 0x2D2A JUMP JUMPDEST SWAP1 POP PUSH2 0xED4 DUP2 DUP7 DUP7 DUP7 PUSH1 0x40 MLOAD DUP1 PUSH1 0x20 ADD PUSH1 0x40 MSTORE DUP1 PUSH1 0x0 DUP2 MSTORE POP PUSH1 0x40 MLOAD DUP1 PUSH1 0x20 ADD PUSH1 0x40 MSTORE DUP1 PUSH1 0x0 DUP2 MSTORE POP PUSH2 0x33B2 JUMP JUMPDEST PUSH2 0xF00 DUP2 DUP7 DUP7 DUP7 PUSH1 0x40 MLOAD DUP1 PUSH1 0x20 ADD PUSH1 0x40 MSTORE DUP1 PUSH1 0x0 DUP2 MSTORE POP PUSH1 0x40 MLOAD DUP1 PUSH1 0x20 ADD PUSH1 0x40 MSTORE DUP1 PUSH1 0x0 DUP2 MSTORE POP PUSH2 0x3538 JUMP JUMPDEST PUSH2 0xFB3 DUP6 DUP3 PUSH2 0xFAE DUP7 PUSH1 0x40 MLOAD DUP1 PUSH1 0x60 ADD PUSH1 0x40 MSTORE DUP1 PUSH1 0x29 DUP2 MSTORE PUSH1 0x20 ADD PUSH2 0x5B02 PUSH1 0x29 SWAP2 CODECOPY PUSH1 0x9 PUSH1 0x0 DUP13 PUSH20 0xFFFFFFFFFFFFFFFFFFFFFFFFFFFFFFFFFFFFFFFF AND PUSH20 0xFFFFFFFFFFFFFFFFFFFFFFFFFFFFFFFFFFFFFFFF AND DUP2 MSTORE PUSH1 0x20 ADD SWAP1 DUP2 MSTORE PUSH1 0x20 ADD PUSH1 0x0 KECCAK256 PUSH1 0x0 DUP9 PUSH20 0xFFFFFFFFFFFFFFFFFFFFFFFFFFFFFFFFFFFFFFFF AND PUSH20 0xFFFFFFFFFFFFFFFFFFFFFFFFFFFFFFFFFFFFFFFF AND DUP2 MSTORE PUSH1 0x20 ADD SWAP1 DUP2 MSTORE PUSH1 0x20 ADD PUSH1 0x0 KECCAK256 SLOAD PUSH2 0x35E2 SWAP1 SWAP3 SWAP2 SWAP1 PUSH4 0xFFFFFFFF AND JUMP JUMPDEST PUSH2 0x2D32 JUMP JUMPDEST PUSH2 0xFE1 DUP2 DUP7 DUP7 DUP7 PUSH1 0x40 MLOAD DUP1 PUSH1 0x20 ADD PUSH1 0x40 MSTORE DUP1 PUSH1 0x0 DUP2 MSTORE POP PUSH1 0x40 MLOAD DUP1 PUSH1 0x20 ADD PUSH1 0x40 MSTORE DUP1 PUSH1 0x0 DUP2 MSTORE POP PUSH1 0x0 PUSH2 0x363D JUMP JUMPDEST PUSH1 0x1 SWAP2 POP POP SWAP4 SWAP3 POP POP POP JUMP JUMPDEST PUSH1 0x0 PUSH1 0xC PUSH1 0x0 DUP4 PUSH20 0xFFFFFFFFFFFFFFFFFFFFFFFFFFFFFFFFFFFFFFFF AND PUSH20 0xFFFFFFFFFFFFFFFFFFFFFFFFFFFFFFFFFFFFFFFF AND DUP2 MSTORE PUSH1 0x20 ADD SWAP1 DUP2 MSTORE PUSH1 0x20 ADD PUSH1 0x0 KECCAK256 PUSH1 0x1 ADD SLOAD SWAP1 POP SWAP2 SWAP1 POP JUMP JUMPDEST PUSH1 0x0 PUSH1 0x12 SWAP1 POP SWAP1 JUMP JUMPDEST PUSH2 0x104C DUP3 DUP3 PUSH2 0x1D1A JUMP JUMPDEST PUSH2 0x1055 DUP3 PUSH2 0xD0A JUMP JUMPDEST POP POP JUMP JUMPDEST DUP1 PUSH1 0xD PUSH1 0x0 PUSH2 0x1066 PUSH2 0x2D2A JUMP JUMPDEST PUSH20 0xFFFFFFFFFFFFFFFFFFFFFFFFFFFFFFFFFFFFFFFF AND PUSH20 0xFFFFFFFFFFFFFFFFFFFFFFFFFFFFFFFFFFFFFFFF AND DUP2 MSTORE PUSH1 0x20 ADD SWAP1 DUP2 MSTORE PUSH1 0x20 ADD PUSH1 0x0 KECCAK256 PUSH1 0x0 DUP5 PUSH20 0xFFFFFFFFFFFFFFFFFFFFFFFFFFFFFFFFFFFFFFFF AND PUSH20 0xFFFFFFFFFFFFFFFFFFFFFFFFFFFFFFFFFFFFFFFF AND DUP2 MSTORE PUSH1 0x20 ADD SWAP1 DUP2 MSTORE PUSH1 0x20 ADD PUSH1 0x0 KECCAK256 PUSH1 0x0 PUSH2 0x100 EXP DUP2 SLOAD DUP2 PUSH1 0xFF MUL NOT AND SWAP1 DUP4 ISZERO ISZERO MUL OR SWAP1 SSTORE POP POP POP JUMP JUMPDEST PUSH2 0x1101 DUP3 PUSH2 0x1B2B JUMP JUMPDEST PUSH1 0xA PUSH1 0x0 SWAP1 SLOAD SWAP1 PUSH2 0x100 EXP SWAP1 DIV PUSH20 0xFFFFFFFFFFFFFFFFFFFFFFFFFFFFFFFFFFFFFFFF AND PUSH20 0xFFFFFFFFFFFFFFFFFFFFFFFFFFFFFFFFFFFFFFFF AND PUSH4 0x23B872DD PUSH2 0x1147 PUSH2 0x2D2A JUMP JUMPDEST ADDRESS DUP5 PUSH1 0x40 MLOAD DUP5 PUSH4 0xFFFFFFFF AND PUSH1 0xE0 SHL DUP2 MSTORE PUSH1 0x4 ADD PUSH2 0x1167 SWAP4 SWAP3 SWAP2 SWAP1 PUSH2 0x532B JUMP JUMPDEST PUSH1 0x20 PUSH1 0x40 MLOAD DUP1 DUP4 SUB DUP2 PUSH1 0x0 DUP8 DUP1 EXTCODESIZE ISZERO DUP1 ISZERO PUSH2 0x1181 JUMPI PUSH1 0x0 DUP1 REVERT JUMPDEST POP GAS CALL ISZERO DUP1 ISZERO PUSH2 0x1195 JUMPI RETURNDATASIZE PUSH1 0x0 DUP1 RETURNDATACOPY RETURNDATASIZE PUSH1 0x0 REVERT JUMPDEST POP POP POP POP PUSH1 0x40 MLOAD RETURNDATASIZE PUSH1 0x1F NOT PUSH1 0x1F DUP3 ADD AND DUP3 ADD DUP1 PUSH1 0x40 MSTORE POP PUSH2 0x11B9 SWAP2 SWAP1 DUP2 ADD SWAP1 PUSH2 0x4866 JUMP JUMPDEST PUSH2 0x11F8 JUMPI PUSH1 0x40 MLOAD PUSH32 0x8C379A000000000000000000000000000000000000000000000000000000000 DUP2 MSTORE PUSH1 0x4 ADD PUSH2 0x11EF SWAP1 PUSH2 0x5499 JUMP JUMPDEST PUSH1 0x40 MLOAD DUP1 SWAP2 SUB SWAP1 REVERT JUMPDEST PUSH1 0xA PUSH1 0x0 SWAP1 SLOAD SWAP1 PUSH2 0x100 EXP SWAP1 DIV PUSH20 0xFFFFFFFFFFFFFFFFFFFFFFFFFFFFFFFFFFFFFFFF AND PUSH20 0xFFFFFFFFFFFFFFFFFFFFFFFFFFFFFFFFFFFFFFFF AND PUSH4 0x95EA7B3 PUSH1 0xB PUSH1 0x0 SWAP1 SLOAD SWAP1 PUSH2 0x100 EXP SWAP1 DIV PUSH20 0xFFFFFFFFFFFFFFFFFFFFFFFFFFFFFFFFFFFFFFFF AND DUP4 PUSH1 0x40 MLOAD DUP4 PUSH4 0xFFFFFFFF AND PUSH1 0xE0 SHL DUP2 MSTORE PUSH1 0x4 ADD PUSH2 0x1277 SWAP3 SWAP2 SWAP1 PUSH2 0x538B JUMP JUMPDEST PUSH1 0x20 PUSH1 0x40 MLOAD DUP1 DUP4 SUB DUP2 PUSH1 0x0 DUP8 DUP1 EXTCODESIZE ISZERO DUP1 ISZERO PUSH2 0x1291 JUMPI PUSH1 0x0 DUP1 REVERT JUMPDEST POP GAS CALL ISZERO DUP1 ISZERO PUSH2 0x12A5 JUMPI RETURNDATASIZE PUSH1 0x0 DUP1 RETURNDATACOPY RETURNDATASIZE PUSH1 0x0 REVERT JUMPDEST POP POP POP POP PUSH1 0x40 MLOAD RETURNDATASIZE PUSH1 0x1F NOT PUSH1 0x1F DUP3 ADD AND DUP3 ADD DUP1 PUSH1 0x40 MSTORE POP PUSH2 0x12C9 SWAP2 SWAP1 DUP2 ADD SWAP1 PUSH2 0x4866 JUMP JUMPDEST POP PUSH1 0xB PUSH1 0x0 SWAP1 SLOAD SWAP1 PUSH2 0x100 EXP SWAP1 DIV PUSH20 0xFFFFFFFFFFFFFFFFFFFFFFFFFFFFFFFFFFFFFFFF AND PUSH20 0xFFFFFFFFFFFFFFFFFFFFFFFFFFFFFFFFFFFFFFFF AND PUSH4 0x40C10F19 ADDRESS DUP4 PUSH1 0x40 MLOAD DUP4 PUSH4 0xFFFFFFFF AND PUSH1 0xE0 SHL DUP2 MSTORE PUSH1 0x4 ADD PUSH2 0x1327 SWAP3 SWAP2 SWAP1 PUSH2 0x538B JUMP JUMPDEST PUSH1 0x20 PUSH1 0x40 MLOAD DUP1 DUP4 SUB DUP2 PUSH1 0x0 DUP8 DUP1 EXTCODESIZE ISZERO DUP1 ISZERO PUSH2 0x1341 JUMPI PUSH1 0x0 DUP1 REVERT JUMPDEST POP GAS CALL ISZERO DUP1 ISZERO PUSH2 0x1355 JUMPI RETURNDATASIZE PUSH1 0x0 DUP1 RETURNDATACOPY RETURNDATASIZE PUSH1 0x0 REVERT JUMPDEST POP POP POP POP PUSH1 0x40 MLOAD RETURNDATASIZE PUSH1 0x1F NOT PUSH1 0x1F DUP3 ADD AND DUP3 ADD DUP1 PUSH1 0x40 MSTORE POP PUSH2 0x1379 SWAP2 SWAP1 DUP2 ADD SWAP1 PUSH2 0x48B8 JUMP JUMPDEST POP PUSH2 0x13AC PUSH2 0x1385 PUSH2 0x2D2A JUMP JUMPDEST DUP4 DUP4 PUSH1 0x40 MLOAD DUP1 PUSH1 0x20 ADD PUSH1 0x40 MSTORE DUP1 PUSH1 0x0 DUP2 MSTORE POP PUSH1 0x40 MLOAD DUP1 PUSH1 0x20 ADD PUSH1 0x40 MSTORE DUP1 PUSH1 0x0 DUP2 MSTORE POP PUSH2 0x382E JUMP JUMPDEST PUSH2 0x13B4 PUSH2 0x2D2A JUMP JUMPDEST PUSH20 0xFFFFFFFFFFFFFFFFFFFFFFFFFFFFFFFFFFFFFFFF AND DUP3 PUSH20 0xFFFFFFFFFFFFFFFFFFFFFFFFFFFFFFFFFFFFFFFF AND PUSH32 0x790ACD49F79FD738BF072D1F334B7DEFC021D1A0DFDC5799F5087A37E61930B5 DUP4 PUSH1 0x40 MLOAD PUSH2 0x1410 SWAP2 SWAP1 PUSH2 0x5679 JUMP JUMPDEST PUSH1 0x40 MLOAD DUP1 SWAP2 SUB SWAP1 LOG3 POP POP JUMP JUMPDEST PUSH1 0x0 PUSH1 0x1 SWAP1 POP SWAP1 JUMP JUMPDEST PUSH1 0x0 DUP1 PUSH1 0xC PUSH1 0x0 PUSH2 0x1434 PUSH2 0x2D2A JUMP JUMPDEST PUSH20 0xFFFFFFFFFFFFFFFFFFFFFFFFFFFFFFFFFFFFFFFF AND PUSH20 0xFFFFFFFFFFFFFFFFFFFFFFFFFFFFFFFFFFFFFFFF AND DUP2 MSTORE PUSH1 0x20 ADD SWAP1 DUP2 MSTORE PUSH1 0x20 ADD PUSH1 0x0 KECCAK256 SWAP1 POP DUP1 PUSH1 0x2 ADD PUSH1 0x40 MLOAD DUP1 PUSH1 0x60 ADD PUSH1 0x40 MSTORE DUP1 DUP8 PUSH20 0xFFFFFFFFFFFFFFFFFFFFFFFFFFFFFFFFFFFFFFFF AND DUP2 MSTORE PUSH1 0x20 ADD DUP7 DUP2 MSTORE PUSH1 0x20 ADD DUP6 DUP2 MSTORE POP SWAP1 DUP1 PUSH1 0x1 DUP2 SLOAD ADD DUP1 DUP3 SSTORE DUP1 SWAP2 POP POP SWAP1 PUSH1 0x1 DUP3 SUB SWAP1 PUSH1 0x0 MSTORE PUSH1 0x20 PUSH1 0x0 KECCAK256 SWAP1 PUSH1 0x3 MUL ADD PUSH1 0x0 SWAP1 SWAP2 SWAP3 SWAP1 SWAP2 SWAP1 SWAP2 POP PUSH1 0x0 DUP3 ADD MLOAD DUP2 PUSH1 0x0 ADD PUSH1 0x0 PUSH2 0x100 EXP DUP2 SLOAD DUP2 PUSH20 0xFFFFFFFFFFFFFFFFFFFFFFFFFFFFFFFFFFFFFFFF MUL NOT AND SWAP1 DUP4 PUSH20 0xFFFFFFFFFFFFFFFFFFFFFFFFFFFFFFFFFFFFFFFF AND MUL OR SWAP1 SSTORE POP PUSH1 0x20 DUP3 ADD MLOAD DUP2 PUSH1 0x1 ADD SSTORE PUSH1 0x40 DUP3 ADD MLOAD DUP2 PUSH1 0x2 ADD SWAP1 DUP1 MLOAD SWAP1 PUSH1 0x20 ADD SWAP1 PUSH2 0x153D SWAP3 SWAP2 SWAP1 PUSH2 0x3F40 JUMP JUMPDEST POP POP POP POP PUSH2 0x1558 DUP5 DUP3 PUSH1 0x3 ADD SLOAD PUSH2 0x3A35 SWAP1 SWAP2 SWAP1 PUSH4 0xFFFFFFFF AND JUMP JUMPDEST DUP2 PUSH1 0x3 ADD DUP2 SWAP1 SSTORE POP DUP5 PUSH20 0xFFFFFFFFFFFFFFFFFFFFFFFFFFFFFFFFFFFFFFFF AND PUSH2 0x157F PUSH2 0x2D2A JUMP JUMPDEST PUSH20 0xFFFFFFFFFFFFFFFFFFFFFFFFFFFFFFFFFFFFFFFF AND PUSH32 0x37CACDDB5CBFF122A21AD5F5643384A5929ED0A67F74BE15A1BD13F17245C421 DUP7 DUP7 PUSH1 0x1 DUP7 PUSH1 0x2 ADD DUP1 SLOAD SWAP1 POP SUB PUSH1 0x40 MLOAD PUSH2 0x15D2 SWAP4 SWAP3 SWAP2 SWAP1 PUSH2 0x56D9 JUMP JUMPDEST PUSH1 0x40 MLOAD DUP1 SWAP2 SUB SWAP1 LOG3 POP SWAP4 SWAP3 POP POP POP JUMP JUMPDEST DUP1 ISZERO PUSH1 0xC PUSH1 0x0 PUSH2 0x15F0 PUSH2 0x2D2A JUMP JUMPDEST PUSH20 0xFFFFFFFFFFFFFFFFFFFFFFFFFFFFFFFFFFFFFFFF AND PUSH20 0xFFFFFFFFFFFFFFFFFFFFFFFFFFFFFFFFFFFFFFFF AND DUP2 MSTORE PUSH1 0x20 ADD SWAP1 DUP2 MSTORE PUSH1 0x20 ADD PUSH1 0x0 KECCAK256 PUSH1 0x4 ADD PUSH1 0x1 PUSH2 0x100 EXP DUP2 SLOAD DUP2 PUSH1 0xFF MUL NOT AND SWAP1 DUP4 ISZERO ISZERO MUL OR SWAP1 SSTORE POP POP JUMP JUMPDEST PUSH2 0x1651 DUP3 DUP3 PUSH2 0x10F8 JUMP JUMPDEST PUSH2 0x16AF DUP3 PUSH2 0x16AA DUP4 PUSH1 0xC PUSH1 0x0 DUP8 PUSH20 0xFFFFFFFFFFFFFFFFFFFFFFFFFFFFFFFFFFFFFFFF AND PUSH20 0xFFFFFFFFFFFFFFFFFFFFFFFFFFFFFFFFFFFFFFFF AND DUP2 MSTORE PUSH1 0x20 ADD SWAP1 DUP2 MSTORE PUSH1 0x20 ADD PUSH1 0x0 KECCAK256 PUSH1 0x1 ADD SLOAD PUSH2 0x3A35 SWAP1 SWAP2 SWAP1 PUSH4 0xFFFFFFFF AND JUMP JUMPDEST PUSH2 0x1042 JUMP JUMPDEST POP POP JUMP JUMPDEST PUSH2 0x16C4 PUSH2 0x16BE PUSH2 0x2D2A JUMP JUMPDEST DUP9 PUSH2 0x2704 JUMP JUMPDEST PUSH2 0x1703 JUMPI PUSH1 0x40 MLOAD PUSH32 0x8C379A000000000000000000000000000000000000000000000000000000000 DUP2 MSTORE PUSH1 0x4 ADD PUSH2 0x16FA SWAP1 PUSH2 0x55F9 JUMP JUMPDEST PUSH1 0x40 MLOAD DUP1 SWAP2 SUB SWAP1 REVERT JUMPDEST PUSH2 0x17A2 PUSH2 0x170E PUSH2 0x2D2A JUMP JUMPDEST DUP9 DUP9 DUP9 DUP9 DUP9 DUP1 DUP1 PUSH1 0x1F ADD PUSH1 0x20 DUP1 SWAP2 DIV MUL PUSH1 0x20 ADD PUSH1 0x40 MLOAD SWAP1 DUP2 ADD PUSH1 0x40 MSTORE DUP1 SWAP4 SWAP3 SWAP2 SWAP1 DUP2 DUP2 MSTORE PUSH1 0x20 ADD DUP4 DUP4 DUP1 DUP3 DUP5 CALLDATACOPY PUSH1 0x0 DUP2 DUP5 ADD MSTORE PUSH1 0x1F NOT PUSH1 0x1F DUP3 ADD AND SWAP1 POP DUP1 DUP4 ADD SWAP3 POP POP POP POP POP POP POP DUP8 DUP8 DUP1 DUP1 PUSH1 0x1F ADD PUSH1 0x20 DUP1 SWAP2 DIV MUL PUSH1 0x20 ADD PUSH1 0x40 MLOAD SWAP1 DUP2 ADD PUSH1 0x40 MSTORE DUP1 SWAP4 SWAP3 SWAP2 SWAP1 DUP2 DUP2 MSTORE PUSH1 0x20 ADD DUP4 DUP4 DUP1 DUP3 DUP5 CALLDATACOPY PUSH1 0x0 DUP2 DUP5 ADD MSTORE PUSH1 0x1F NOT PUSH1 0x1F DUP3 ADD AND SWAP1 POP DUP1 DUP4 ADD SWAP3 POP POP POP POP POP POP POP PUSH1 0x1 PUSH2 0x3A8A JUMP JUMPDEST POP POP POP POP POP POP POP JUMP JUMPDEST PUSH1 0x0 DUP1 PUSH1 0xC PUSH1 0x0 DUP5 PUSH20 0xFFFFFFFFFFFFFFFFFFFFFFFFFFFFFFFFFFFFFFFF AND PUSH20 0xFFFFFFFFFFFFFFFFFFFFFFFFFFFFFFFFFFFFFFFF AND DUP2 MSTORE PUSH1 0x20 ADD SWAP1 DUP2 MSTORE PUSH1 0x20 ADD PUSH1 0x0 KECCAK256 SWAP1 POP PUSH1 0x0 PUSH2 0x17FA DUP5 PUSH2 0x2E8D JUMP JUMPDEST SWAP1 POP DUP1 DUP3 PUSH1 0x1 ADD SLOAD LT PUSH2 0x1812 JUMPI PUSH1 0x0 SWAP3 POP POP POP PUSH2 0x1864 JUMP JUMPDEST PUSH1 0xC PUSH1 0x0 DUP6 PUSH20 0xFFFFFFFFFFFFFFFFFFFFFFFFFFFFFFFFFFFFFFFF AND PUSH20 0xFFFFFFFFFFFFFFFFFFFFFFFFFFFFFFFFFFFFFFFF AND DUP2 MSTORE PUSH1 0x20 ADD SWAP1 DUP2 MSTORE PUSH1 0x20 ADD PUSH1 0x0 KECCAK256 PUSH1 0x1 ADD SLOAD PUSH2 0x185E DUP6 PUSH2 0x2E8D JUMP JUMPDEST SUB SWAP3 POP POP POP JUMPDEST SWAP2 SWAP1 POP JUMP JUMPDEST PUSH1 0xC PUSH1 0x20 MSTORE DUP1 PUSH1 0x0 MSTORE PUSH1 0x40 PUSH1 0x0 KECCAK256 PUSH1 0x0 SWAP2 POP SWAP1 POP DUP1 PUSH1 0x0 ADD SLOAD SWAP1 DUP1 PUSH1 0x1 ADD SLOAD SWAP1 DUP1 PUSH1 0x3 ADD SLOAD SWAP1 DUP1 PUSH1 0x4 ADD PUSH1 0x0 SWAP1 SLOAD SWAP1 PUSH2 0x100 EXP SWAP1 DIV PUSH1 0xFF AND SWAP1 DUP1 PUSH1 0x4 ADD PUSH1 0x1 SWAP1 SLOAD SWAP1 PUSH2 0x100 EXP SWAP1 DIV PUSH1 0xFF AND SWAP1 POP DUP6 JUMP JUMPDEST PUSH1 0x0 DUP1 PUSH1 0xC PUSH1 0x0 PUSH2 0x18C8 PUSH2 0x2D2A JUMP JUMPDEST PUSH20 0xFFFFFFFFFFFFFFFFFFFFFFFFFFFFFFFFFFFFFFFF AND PUSH20 0xFFFFFFFFFFFFFFFFFFFFFFFFFFFFFFFFFFFFFFFF AND DUP2 MSTORE PUSH1 0x20 ADD SWAP1 DUP2 MSTORE PUSH1 0x20 ADD PUSH1 0x0 KECCAK256 SWAP1 POP PUSH1 0x0 DUP2 PUSH1 0x2 ADD DUP5 DUP2 SLOAD DUP2 LT PUSH2 0x1915 JUMPI INVALID JUMPDEST SWAP1 PUSH1 0x0 MSTORE PUSH1 0x20 PUSH1 0x0 KECCAK256 SWAP1 PUSH1 0x3 MUL ADD SWAP1 POP DUP1 PUSH1 0x0 ADD PUSH1 0x0 SWAP1 SLOAD SWAP1 PUSH2 0x100 EXP SWAP1 DIV PUSH20 0xFFFFFFFFFFFFFFFFFFFFFFFFFFFFFFFFFFFFFFFF AND PUSH20 0xFFFFFFFFFFFFFFFFFFFFFFFFFFFFFFFFFFFFFFFF AND PUSH2 0x1968 PUSH2 0x2D2A JUMP JUMPDEST PUSH20 0xFFFFFFFFFFFFFFFFFFFFFFFFFFFFFFFFFFFFFFFF AND PUSH32 0x9B691786D8E66EF436AF4D05F895EE1C9F3B4AA32A9A6854438F82B08C223045 DUP4 PUSH1 0x1 ADD SLOAD DUP5 PUSH1 0x2 ADD DUP9 PUSH1 0x40 MLOAD PUSH2 0x19B8 SWAP4 SWAP3 SWAP2 SWAP1 PUSH2 0x5717 JUMP JUMPDEST PUSH1 0x40 MLOAD DUP1 SWAP2 SUB SWAP1 LOG3 PUSH2 0x19F7 DUP3 PUSH1 0x2 ADD DUP6 DUP2 SLOAD DUP2 LT PUSH2 0x19D2 JUMPI INVALID JUMPDEST SWAP1 PUSH1 0x0 MSTORE PUSH1 0x20 PUSH1 0x0 KECCAK256 SWAP1 PUSH1 0x3 MUL ADD PUSH1 0x1 ADD SLOAD DUP4 PUSH1 0x3 ADD SLOAD PUSH2 0x3B9E SWAP1 SWAP2 SWAP1 PUSH4 0xFFFFFFFF AND JUMP JUMPDEST DUP3 PUSH1 0x3 ADD DUP2 SWAP1 SSTORE POP PUSH1 0x1 DUP3 PUSH1 0x2 ADD DUP1 SLOAD SWAP1 POP SUB DUP5 EQ PUSH2 0x1AF1 JUMPI DUP2 PUSH1 0x2 ADD PUSH1 0x1 DUP4 PUSH1 0x2 ADD DUP1 SLOAD SWAP1 POP SUB DUP2 SLOAD DUP2 LT PUSH2 0x1A29 JUMPI INVALID JUMPDEST SWAP1 PUSH1 0x0 MSTORE PUSH1 0x20 PUSH1 0x0 KECCAK256 SWAP1 PUSH1 0x3 MUL ADD DUP3 PUSH1 0x2 ADD DUP6 DUP2 SLOAD DUP2 LT PUSH2 0x1A46 JUMPI INVALID JUMPDEST SWAP1 PUSH1 0x0 MSTORE PUSH1 0x20 PUSH1 0x0 KECCAK256 SWAP1 PUSH1 0x3 MUL ADD PUSH1 0x0 DUP3 ADD PUSH1 0x0 SWAP1 SLOAD SWAP1 PUSH2 0x100 EXP SWAP1 DIV PUSH20 0xFFFFFFFFFFFFFFFFFFFFFFFFFFFFFFFFFFFFFFFF AND DUP2 PUSH1 0x0 ADD PUSH1 0x0 PUSH2 0x100 EXP DUP2 SLOAD DUP2 PUSH20 0xFFFFFFFFFFFFFFFFFFFFFFFFFFFFFFFFFFFFFFFF MUL NOT AND SWAP1 DUP4 PUSH20 0xFFFFFFFFFFFFFFFFFFFFFFFFFFFFFFFFFFFFFFFF AND MUL OR SWAP1 SSTORE POP PUSH1 0x1 DUP3 ADD SLOAD DUP2 PUSH1 0x1 ADD SSTORE PUSH1 0x2 DUP3 ADD DUP2 PUSH1 0x2 ADD SWAP1 DUP1 SLOAD PUSH1 0x1 DUP2 PUSH1 0x1 AND ISZERO PUSH2 0x100 MUL SUB AND PUSH1 0x2 SWAP1 DIV PUSH2 0x1AEC SWAP3 SWAP2 SWAP1 PUSH2 0x3FC0 JUMP JUMPDEST POP SWAP1 POP POP JUMPDEST DUP2 PUSH1 0x2 ADD DUP1 SLOAD DUP1 SWAP2 SWAP1 PUSH1 0x1 SWAP1 SUB PUSH2 0x1B08 SWAP2 SWAP1 PUSH2 0x3F0E JUMP JUMPDEST POP PUSH1 0x0 DUP3 PUSH1 0x2 ADD DUP1 SLOAD SWAP1 POP EQ ISZERO PUSH2 0x1B24 JUMPI PUSH1 0x0 DUP3 PUSH1 0x1 ADD DUP2 SWAP1 SSTORE POP JUMPDEST POP POP SWAP2 SWAP1 POP JUMP JUMPDEST PUSH1 0x0 PUSH1 0xC PUSH1 0x0 DUP4 PUSH20 0xFFFFFFFFFFFFFFFFFFFFFFFFFFFFFFFFFFFFFFFF AND PUSH20 0xFFFFFFFFFFFFFFFFFFFFFFFFFFFFFFFFFFFFFFFF AND DUP2 MSTORE PUSH1 0x20 ADD SWAP1 DUP2 MSTORE PUSH1 0x20 ADD PUSH1 0x0 KECCAK256 SWAP1 POP PUSH1 0x0 PUSH1 0xB PUSH1 0x0 SWAP1 SLOAD SWAP1 PUSH2 0x100 EXP SWAP1 DIV PUSH20 0xFFFFFFFFFFFFFFFFFFFFFFFFFFFFFFFFFFFFFFFF AND PUSH20 0xFFFFFFFFFFFFFFFFFFFFFFFFFFFFFFFFFFFFFFFF AND PUSH4 0x7FF9B596 PUSH1 0x40 MLOAD DUP2 PUSH4 0xFFFFFFFF AND PUSH1 0xE0 SHL DUP2 MSTORE PUSH1 0x4 ADD PUSH1 0x20 PUSH1 0x40 MLOAD DUP1 DUP4 SUB DUP2 DUP7 DUP1 EXTCODESIZE ISZERO DUP1 ISZERO PUSH2 0x1BD8 JUMPI PUSH1 0x0 DUP1 REVERT JUMPDEST POP GAS STATICCALL ISZERO DUP1 ISZERO PUSH2 0x1BEC JUMPI RETURNDATASIZE PUSH1 0x0 DUP1 RETURNDATACOPY RETURNDATASIZE PUSH1 0x0 REVERT JUMPDEST POP POP POP POP PUSH1 0x40 MLOAD RETURNDATASIZE PUSH1 0x1F NOT PUSH1 0x1F DUP3 ADD AND DUP3 ADD DUP1 PUSH1 0x40 MSTORE POP PUSH2 0x1C10 SWAP2 SWAP1 DUP2 ADD SWAP1 PUSH2 0x48B8 JUMP JUMPDEST SWAP1 POP PUSH1 0x0 DUP3 PUSH1 0x0 ADD SLOAD EQ ISZERO PUSH2 0x1C29 JUMPI DUP1 DUP3 PUSH1 0x0 ADD DUP2 SWAP1 SSTORE POP JUMPDEST PUSH1 0x0 PUSH2 0x1C34 DUP5 PUSH2 0x1E78 JUMP JUMPDEST SWAP1 POP PUSH1 0x0 DUP2 EQ ISZERO PUSH2 0x1C47 JUMPI POP POP POP PUSH2 0x1D17 JUMP JUMPDEST DUP3 PUSH1 0x4 ADD PUSH1 0x1 SWAP1 SLOAD SWAP1 PUSH2 0x100 EXP SWAP1 DIV PUSH1 0xFF AND DUP1 PUSH2 0x1C6C JUMPI POP PUSH1 0x0 DUP4 PUSH1 0x2 ADD DUP1 SLOAD SWAP1 POP EQ ISZERO JUMPDEST ISZERO PUSH2 0x1C91 JUMPI PUSH2 0x1C88 DUP2 DUP5 PUSH1 0x1 ADD SLOAD PUSH2 0x3A35 SWAP1 SWAP2 SWAP1 PUSH4 0xFFFFFFFF AND JUMP JUMPDEST DUP4 PUSH1 0x1 ADD DUP2 SWAP1 SSTORE POP JUMPDEST DUP2 DUP4 PUSH1 0x0 ADD DUP2 SWAP1 SSTORE POP PUSH2 0x1CC5 ADDRESS DUP6 DUP4 PUSH1 0x40 MLOAD DUP1 PUSH1 0x20 ADD PUSH1 0x40 MSTORE DUP1 PUSH1 0x0 DUP2 MSTORE POP PUSH1 0x40 MLOAD DUP1 PUSH1 0x20 ADD PUSH1 0x40 MSTORE DUP1 PUSH1 0x0 DUP2 MSTORE POP PUSH2 0x382E JUMP JUMPDEST DUP4 PUSH20 0xFFFFFFFFFFFFFFFFFFFFFFFFFFFFFFFFFFFFFFFF AND PUSH32 0xF9984C8173C4B4FF9CC454F76ED19C053F4490CCB224FD9DDFFEB4EF4BEA3530 DUP3 PUSH1 0x40 MLOAD PUSH2 0x1D0B SWAP2 SWAP1 PUSH2 0x5679 JUMP JUMPDEST PUSH1 0x40 MLOAD DUP1 SWAP2 SUB SWAP1 LOG2 POP POP POP JUMPDEST POP JUMP JUMPDEST DUP2 PUSH20 0xFFFFFFFFFFFFFFFFFFFFFFFFFFFFFFFFFFFFFFFF AND PUSH2 0x1D39 PUSH2 0x2D2A JUMP JUMPDEST PUSH20 0xFFFFFFFFFFFFFFFFFFFFFFFFFFFFFFFFFFFFFFFF AND EQ DUP1 PUSH2 0x1DE8 JUMPI POP PUSH1 0xD PUSH1 0x0 DUP4 PUSH20 0xFFFFFFFFFFFFFFFFFFFFFFFFFFFFFFFFFFFFFFFF AND PUSH20 0xFFFFFFFFFFFFFFFFFFFFFFFFFFFFFFFFFFFFFFFF AND DUP2 MSTORE PUSH1 0x20 ADD SWAP1 DUP2 MSTORE PUSH1 0x20 ADD PUSH1 0x0 KECCAK256 PUSH1 0x0 PUSH2 0x1D9F PUSH2 0x2D2A JUMP JUMPDEST PUSH20 0xFFFFFFFFFFFFFFFFFFFFFFFFFFFFFFFFFFFFFFFF AND PUSH20 0xFFFFFFFFFFFFFFFFFFFFFFFFFFFFFFFFFFFFFFFF AND DUP2 MSTORE PUSH1 0x20 ADD SWAP1 DUP2 MSTORE PUSH1 0x20 ADD PUSH1 0x0 KECCAK256 PUSH1 0x0 SWAP1 SLOAD SWAP1 PUSH2 0x100 EXP SWAP1 DIV PUSH1 0xFF AND JUMPDEST PUSH2 0x1E27 JUMPI PUSH1 0x40 MLOAD PUSH32 0x8C379A000000000000000000000000000000000000000000000000000000000 DUP2 MSTORE PUSH1 0x4 ADD PUSH2 0x1E1E SWAP1 PUSH2 0x54F9 JUMP JUMPDEST PUSH1 0x40 MLOAD DUP1 SWAP2 SUB SWAP1 REVERT JUMPDEST PUSH1 0x0 PUSH1 0xC PUSH1 0x0 DUP5 PUSH20 0xFFFFFFFFFFFFFFFFFFFFFFFFFFFFFFFFFFFFFFFF AND PUSH20 0xFFFFFFFFFFFFFFFFFFFFFFFFFFFFFFFFFFFFFFFF AND DUP2 MSTORE PUSH1 0x20 ADD SWAP1 DUP2 MSTORE PUSH1 0x20 ADD PUSH1 0x0 KECCAK256 SWAP1 POP DUP2 DUP2 PUSH1 0x1 ADD DUP2 SWAP1 SSTORE POP POP POP POP JUMP JUMPDEST PUSH1 0x0 DUP1 PUSH1 0xC PUSH1 0x0 DUP5 PUSH20 0xFFFFFFFFFFFFFFFFFFFFFFFFFFFFFFFFFFFFFFFF AND PUSH20 0xFFFFFFFFFFFFFFFFFFFFFFFFFFFFFFFFFFFFFFFF AND DUP2 MSTORE PUSH1 0x20 ADD SWAP1 DUP2 MSTORE PUSH1 0x20 ADD PUSH1 0x0 KECCAK256 SWAP1 POP PUSH2 0x1F96 PUSH8 0xDE0B6B3A7640000 PUSH2 0x1F88 DUP4 PUSH1 0x0 ADD SLOAD PUSH1 0xB PUSH1 0x0 SWAP1 SLOAD SWAP1 PUSH2 0x100 EXP SWAP1 DIV PUSH20 0xFFFFFFFFFFFFFFFFFFFFFFFFFFFFFFFFFFFFFFFF AND PUSH20 0xFFFFFFFFFFFFFFFFFFFFFFFFFFFFFFFFFFFFFFFF AND PUSH4 0x7FF9B596 PUSH1 0x40 MLOAD DUP2 PUSH4 0xFFFFFFFF AND PUSH1 0xE0 SHL DUP2 MSTORE PUSH1 0x4 ADD PUSH1 0x20 PUSH1 0x40 MLOAD DUP1 DUP4 SUB DUP2 DUP7 DUP1 EXTCODESIZE ISZERO DUP1 ISZERO PUSH2 0x1F38 JUMPI PUSH1 0x0 DUP1 REVERT JUMPDEST POP GAS STATICCALL ISZERO DUP1 ISZERO PUSH2 0x1F4C JUMPI RETURNDATASIZE PUSH1 0x0 DUP1 RETURNDATACOPY RETURNDATASIZE PUSH1 0x0 REVERT JUMPDEST POP POP POP POP PUSH1 0x40 MLOAD RETURNDATASIZE PUSH1 0x1F NOT PUSH1 0x1F DUP3 ADD AND DUP3 ADD DUP1 PUSH1 0x40 MSTORE POP PUSH2 0x1F70 SWAP2 SWAP1 DUP2 ADD SWAP1 PUSH2 0x48B8 JUMP JUMPDEST SUB PUSH2 0x1F7A DUP8 PUSH2 0x2E8D JUMP JUMPDEST PUSH2 0x30D7 SWAP1 SWAP2 SWAP1 PUSH4 0xFFFFFFFF AND JUMP JUMPDEST PUSH2 0x3147 SWAP1 SWAP2 SWAP1 PUSH4 0xFFFFFFFF AND JUMP JUMPDEST SWAP2 POP POP SWAP2 SWAP1 POP JUMP JUMPDEST DUP1 PUSH1 0xC PUSH1 0x0 PUSH2 0x1FAB PUSH2 0x2D2A JUMP JUMPDEST PUSH20 0xFFFFFFFFFFFFFFFFFFFFFFFFFFFFFFFFFFFFFFFF AND PUSH20 0xFFFFFFFFFFFFFFFFFFFFFFFFFFFFFFFFFFFFFFFF AND DUP2 MSTORE PUSH1 0x20 ADD SWAP1 DUP2 MSTORE PUSH1 0x20 ADD PUSH1 0x0 KECCAK256 PUSH1 0x4 ADD PUSH1 0x0 PUSH2 0x100 EXP DUP2 SLOAD DUP2 PUSH1 0xFF MUL NOT AND SWAP1 DUP4 ISZERO ISZERO MUL OR SWAP1 SSTORE POP POP JUMP JUMPDEST DUP1 PUSH20 0xFFFFFFFFFFFFFFFFFFFFFFFFFFFFFFFFFFFFFFFF AND PUSH2 0x2021 PUSH2 0x2D2A JUMP JUMPDEST PUSH20 0xFFFFFFFFFFFFFFFFFFFFFFFFFFFFFFFFFFFFFFFF AND EQ ISZERO PUSH2 0x2078 JUMPI PUSH1 0x40 MLOAD PUSH32 0x8C379A000000000000000000000000000000000000000000000000000000000 DUP2 MSTORE PUSH1 0x4 ADD PUSH2 0x206F SWAP1 PUSH2 0x5519 JUMP JUMPDEST PUSH1 0x40 MLOAD DUP1 SWAP2 SUB SWAP1 REVERT JUMPDEST PUSH1 0x6 PUSH1 0x0 DUP3 PUSH20 0xFFFFFFFFFFFFFFFFFFFFFFFFFFFFFFFFFFFFFFFF AND PUSH20 0xFFFFFFFFFFFFFFFFFFFFFFFFFFFFFFFFFFFFFFFF AND DUP2 MSTORE PUSH1 0x20 ADD SWAP1 DUP2 MSTORE PUSH1 0x20 ADD PUSH1 0x0 KECCAK256 PUSH1 0x0 SWAP1 SLOAD SWAP1 PUSH2 0x100 EXP SWAP1 DIV PUSH1 0xFF AND ISZERO PUSH2 0x2162 JUMPI PUSH1 0x8 PUSH1 0x0 PUSH2 0x20D6 PUSH2 0x2D2A JUMP JUMPDEST PUSH20 0xFFFFFFFFFFFFFFFFFFFFFFFFFFFFFFFFFFFFFFFF AND PUSH20 0xFFFFFFFFFFFFFFFFFFFFFFFFFFFFFFFFFFFFFFFF AND DUP2 MSTORE PUSH1 0x20 ADD SWAP1 DUP2 MSTORE PUSH1 0x20 ADD PUSH1 0x0 KECCAK256 PUSH1 0x0 DUP3 PUSH20 0xFFFFFFFFFFFFFFFFFFFFFFFFFFFFFFFFFFFFFFFF AND PUSH20 0xFFFFFFFFFFFFFFFFFFFFFFFFFFFFFFFFFFFFFFFF AND DUP2 MSTORE PUSH1 0x20 ADD SWAP1 DUP2 MSTORE PUSH1 0x20 ADD PUSH1 0x0 KECCAK256 PUSH1 0x0 PUSH2 0x100 EXP DUP2 SLOAD SWAP1 PUSH1 0xFF MUL NOT AND SWAP1 SSTORE PUSH2 0x21FF JUMP JUMPDEST PUSH1 0x1 PUSH1 0x7 PUSH1 0x0 PUSH2 0x2170 PUSH2 0x2D2A JUMP JUMPDEST PUSH20 0xFFFFFFFFFFFFFFFFFFFFFFFFFFFFFFFFFFFFFFFF AND PUSH20 0xFFFFFFFFFFFFFFFFFFFFFFFFFFFFFFFFFFFFFFFF AND DUP2 MSTORE PUSH1 0x20 ADD SWAP1 DUP2 MSTORE PUSH1 0x20 ADD PUSH1 0x0 KECCAK256 PUSH1 0x0 DUP4 PUSH20 0xFFFFFFFFFFFFFFFFFFFFFFFFFFFFFFFFFFFFFFFF AND PUSH20 0xFFFFFFFFFFFFFFFFFFFFFFFFFFFFFFFFFFFFFFFF AND DUP2 MSTORE PUSH1 0x20 ADD SWAP1 DUP2 MSTORE PUSH1 0x20 ADD PUSH1 0x0 KECCAK256 PUSH1 0x0 PUSH2 0x100 EXP DUP2 SLOAD DUP2 PUSH1 0xFF MUL NOT AND SWAP1 DUP4 ISZERO ISZERO MUL OR SWAP1 SSTORE POP JUMPDEST PUSH2 0x2207 PUSH2 0x2D2A JUMP JUMPDEST PUSH20 0xFFFFFFFFFFFFFFFFFFFFFFFFFFFFFFFFFFFFFFFF AND DUP2 PUSH20 0xFFFFFFFFFFFFFFFFFFFFFFFFFFFFFFFFFFFFFFFF AND PUSH32 0xF4CAEB2D6CA8932A215A353D0703C326EC2D81FC68170F320EB2AB49E9DF61F9 PUSH1 0x40 MLOAD PUSH1 0x40 MLOAD DUP1 SWAP2 SUB SWAP1 LOG3 POP JUMP JUMPDEST PUSH1 0x60 PUSH1 0x4 DUP1 SLOAD PUSH1 0x1 DUP2 PUSH1 0x1 AND ISZERO PUSH2 0x100 MUL SUB AND PUSH1 0x2 SWAP1 DIV DUP1 PUSH1 0x1F ADD PUSH1 0x20 DUP1 SWAP2 DIV MUL PUSH1 0x20 ADD PUSH1 0x40 MLOAD SWAP1 DUP2 ADD PUSH1 0x40 MSTORE DUP1 SWAP3 SWAP2 SWAP1 DUP2 DUP2 MSTORE PUSH1 0x20 ADD DUP3 DUP1 SLOAD PUSH1 0x1 DUP2 PUSH1 0x1 AND ISZERO PUSH2 0x100 MUL SUB AND PUSH1 0x2 SWAP1 DIV DUP1 ISZERO PUSH2 0x22FB JUMPI DUP1 PUSH1 0x1F LT PUSH2 0x22D0 JUMPI PUSH2 0x100 DUP1 DUP4 SLOAD DIV MUL DUP4 MSTORE SWAP2 PUSH1 0x20 ADD SWAP2 PUSH2 0x22FB JUMP JUMPDEST DUP3 ADD SWAP2 SWAP1 PUSH1 0x0 MSTORE PUSH1 0x20 PUSH1 0x0 KECCAK256 SWAP1 JUMPDEST DUP2 SLOAD DUP2 MSTORE SWAP1 PUSH1 0x1 ADD SWAP1 PUSH1 0x20 ADD DUP1 DUP4 GT PUSH2 0x22DE JUMPI DUP3 SWAP1 SUB PUSH1 0x1F AND DUP3 ADD SWAP2 JUMPDEST POP POP POP POP POP SWAP1 POP SWAP1 JUMP JUMPDEST PUSH2 0x2376 PUSH2 0x2310 PUSH2 0x2D2A JUMP JUMPDEST PUSH2 0x2318 PUSH2 0x2D2A JUMP JUMPDEST DUP7 DUP7 DUP7 DUP7 DUP1 DUP1 PUSH1 0x1F ADD PUSH1 0x20 DUP1 SWAP2 DIV MUL PUSH1 0x20 ADD PUSH1 0x40 MLOAD SWAP1 DUP2 ADD PUSH1 0x40 MSTORE DUP1 SWAP4 SWAP3 SWAP2 SWAP1 DUP2 DUP2 MSTORE PUSH1 0x20 ADD DUP4 DUP4 DUP1 DUP3 DUP5 CALLDATACOPY PUSH1 0x0 DUP2 DUP5 ADD MSTORE PUSH1 0x1F NOT PUSH1 0x1F DUP3 ADD AND SWAP1 POP DUP1 DUP4 ADD SWAP3 POP POP POP POP POP POP POP PUSH1 0x40 MLOAD DUP1 PUSH1 0x20 ADD PUSH1 0x40 MSTORE DUP1 PUSH1 0x0 DUP2 MSTORE POP PUSH1 0x1 PUSH2 0x3A8A JUMP JUMPDEST POP POP POP POP JUMP JUMPDEST PUSH2 0x2384 PUSH2 0x9F5 JUMP JUMPDEST PUSH1 0x0 DUP1 SWAP1 POP JUMPDEST DUP4 MLOAD DUP2 LT ISZERO PUSH2 0x23E5 JUMPI PUSH2 0x23D7 DUP5 DUP3 DUP2 MLOAD DUP2 LT PUSH2 0x23A2 JUMPI INVALID JUMPDEST PUSH1 0x20 MUL PUSH1 0x20 ADD ADD MLOAD DUP5 DUP4 DUP2 MLOAD DUP2 LT PUSH2 0x23B6 JUMPI INVALID JUMPDEST PUSH1 0x20 MUL PUSH1 0x20 ADD ADD MLOAD DUP5 DUP5 DUP2 MLOAD DUP2 LT PUSH2 0x23CA JUMPI INVALID JUMPDEST PUSH1 0x20 MUL PUSH1 0x20 ADD ADD MLOAD PUSH2 0x1425 JUMP JUMPDEST POP DUP1 DUP1 PUSH1 0x1 ADD SWAP2 POP POP PUSH2 0x238A JUMP JUMPDEST POP POP POP POP JUMP JUMPDEST PUSH1 0x0 DUP1 PUSH20 0xFFFFFFFFFFFFFFFFFFFFFFFFFFFFFFFFFFFFFFFF AND DUP4 PUSH20 0xFFFFFFFFFFFFFFFFFFFFFFFFFFFFFFFFFFFFFFFF AND EQ ISZERO PUSH2 0x245C JUMPI PUSH1 0x40 MLOAD PUSH32 0x8C379A000000000000000000000000000000000000000000000000000000000 DUP2 MSTORE PUSH1 0x4 ADD PUSH2 0x2453 SWAP1 PUSH2 0x55B9 JUMP JUMPDEST PUSH1 0x40 MLOAD DUP1 SWAP2 SUB SWAP1 REVERT JUMPDEST PUSH1 0x0 PUSH2 0x2466 PUSH2 0x2D2A JUMP JUMPDEST SWAP1 POP PUSH2 0x2494 DUP2 DUP3 DUP7 DUP7 PUSH1 0x40 MLOAD DUP1 PUSH1 0x20 ADD PUSH1 0x40 MSTORE DUP1 PUSH1 0x0 DUP2 MSTORE POP PUSH1 0x40 MLOAD DUP1 PUSH1 0x20 ADD PUSH1 0x40 MSTORE DUP1 PUSH1 0x0 DUP2 MSTORE POP PUSH2 0x33B2 JUMP JUMPDEST PUSH2 0x24C0 DUP2 DUP3 DUP7 DUP7 PUSH1 0x40 MLOAD DUP1 PUSH1 0x20 ADD PUSH1 0x40 MSTORE DUP1 PUSH1 0x0 DUP2 MSTORE POP PUSH1 0x40 MLOAD DUP1 PUSH1 0x20 ADD PUSH1 0x40 MSTORE DUP1 PUSH1 0x0 DUP2 MSTORE POP PUSH2 0x3538 JUMP JUMPDEST PUSH2 0x24EE DUP2 DUP3 DUP7 DUP7 PUSH1 0x40 MLOAD DUP1 PUSH1 0x20 ADD PUSH1 0x40 MSTORE DUP1 PUSH1 0x0 DUP2 MSTORE POP PUSH1 0x40 MLOAD DUP1 PUSH1 0x20 ADD PUSH1 0x40 MSTORE DUP1 PUSH1 0x0 DUP2 MSTORE POP PUSH1 0x0 PUSH2 0x363D JUMP JUMPDEST PUSH1 0x1 SWAP2 POP POP SWAP3 SWAP2 POP POP JUMP JUMPDEST PUSH2 0x250A PUSH2 0x2504 PUSH2 0x2D2A JUMP JUMPDEST DUP6 PUSH2 0x10F8 JUMP JUMPDEST PUSH2 0x2515 DUP4 DUP4 DUP4 PUSH2 0x237C JUMP JUMPDEST POP POP POP POP JUMP JUMPDEST PUSH1 0x60 PUSH1 0x0 DUP1 PUSH1 0xC PUSH1 0x0 DUP6 PUSH20 0xFFFFFFFFFFFFFFFFFFFFFFFFFFFFFFFFFFFFFFFF AND PUSH20 0xFFFFFFFFFFFFFFFFFFFFFFFFFFFFFFFFFFFFFFFF AND DUP2 MSTORE PUSH1 0x20 ADD SWAP1 DUP2 MSTORE PUSH1 0x20 ADD PUSH1 0x0 KECCAK256 SWAP1 POP DUP1 PUSH1 0x2 ADD DUP1 SLOAD DUP1 PUSH1 0x20 MUL PUSH1 0x20 ADD PUSH1 0x40 MLOAD SWAP1 DUP2 ADD PUSH1 0x40 MSTORE DUP1 SWAP3 SWAP2 SWAP1 DUP2 DUP2 MSTORE PUSH1 0x20 ADD PUSH1 0x0 SWAP1 JUMPDEST DUP3 DUP3 LT ISZERO PUSH2 0x26B9 JUMPI DUP4 DUP3 SWAP1 PUSH1 0x0 MSTORE PUSH1 0x20 PUSH1 0x0 KECCAK256 SWAP1 PUSH1 0x3 MUL ADD PUSH1 0x40 MLOAD DUP1 PUSH1 0x60 ADD PUSH1 0x40 MSTORE SWAP1 DUP2 PUSH1 0x0 DUP3 ADD PUSH1 0x0 SWAP1 SLOAD SWAP1 PUSH2 0x100 EXP SWAP1 DIV PUSH20 0xFFFFFFFFFFFFFFFFFFFFFFFFFFFFFFFFFFFFFFFF AND PUSH20 0xFFFFFFFFFFFFFFFFFFFFFFFFFFFFFFFFFFFFFFFF AND PUSH20 0xFFFFFFFFFFFFFFFFFFFFFFFFFFFFFFFFFFFFFFFF AND DUP2 MSTORE PUSH1 0x20 ADD PUSH1 0x1 DUP3 ADD SLOAD DUP2 MSTORE PUSH1 0x20 ADD PUSH1 0x2 DUP3 ADD DUP1 SLOAD PUSH1 0x1 DUP2 PUSH1 0x1 AND ISZERO PUSH2 0x100 MUL SUB AND PUSH1 0x2 SWAP1 DIV DUP1 PUSH1 0x1F ADD PUSH1 0x20 DUP1 SWAP2 DIV MUL PUSH1 0x20 ADD PUSH1 0x40 MLOAD SWAP1 DUP2 ADD PUSH1 0x40 MSTORE DUP1 SWAP3 SWAP2 SWAP1 DUP2 DUP2 MSTORE PUSH1 0x20 ADD DUP3 DUP1 SLOAD PUSH1 0x1 DUP2 PUSH1 0x1 AND ISZERO PUSH2 0x100 MUL SUB AND PUSH1 0x2 SWAP1 DIV DUP1 ISZERO PUSH2 0x26A1 JUMPI DUP1 PUSH1 0x1F LT PUSH2 0x2676 JUMPI PUSH2 0x100 DUP1 DUP4 SLOAD DIV MUL DUP4 MSTORE SWAP2 PUSH1 0x20 ADD SWAP2 PUSH2 0x26A1 JUMP JUMPDEST DUP3 ADD SWAP2 SWAP1 PUSH1 0x0 MSTORE PUSH1 0x20 PUSH1 0x0 KECCAK256 SWAP1 JUMPDEST DUP2 SLOAD DUP2 MSTORE SWAP1 PUSH1 0x1 ADD SWAP1 PUSH1 0x20 ADD DUP1 DUP4 GT PUSH2 0x2684 JUMPI DUP3 SWAP1 SUB PUSH1 0x1F AND DUP3 ADD SWAP2 JUMPDEST POP POP POP POP POP DUP2 MSTORE POP POP DUP2 MSTORE PUSH1 0x20 ADD SWAP1 PUSH1 0x1 ADD SWAP1 PUSH2 0x2585 JUMP JUMPDEST POP POP POP POP SWAP3 POP DUP1 PUSH1 0x3 ADD SLOAD SWAP2 POP POP SWAP2 POP SWAP2 JUMP JUMPDEST PUSH1 0x0 PUSH2 0x26D7 DUP3 PUSH2 0x2E8D JUMP JUMPDEST SWAP1 POP SWAP2 SWAP1 POP JUMP JUMPDEST PUSH1 0xB PUSH1 0x0 SWAP1 SLOAD SWAP1 PUSH2 0x100 EXP SWAP1 DIV PUSH20 0xFFFFFFFFFFFFFFFFFFFFFFFFFFFFFFFFFFFFFFFF AND DUP2 JUMP JUMPDEST PUSH1 0x0 DUP2 PUSH20 0xFFFFFFFFFFFFFFFFFFFFFFFFFFFFFFFFFFFFFFFF AND DUP4 PUSH20 0xFFFFFFFFFFFFFFFFFFFFFFFFFFFFFFFFFFFFFFFF AND EQ DUP1 PUSH2 0x281C JUMPI POP PUSH1 0x6 PUSH1 0x0 DUP5 PUSH20 0xFFFFFFFFFFFFFFFFFFFFFFFFFFFFFFFFFFFFFFFF AND PUSH20 0xFFFFFFFFFFFFFFFFFFFFFFFFFFFFFFFFFFFFFFFF AND DUP2 MSTORE PUSH1 0x20 ADD SWAP1 DUP2 MSTORE PUSH1 0x20 ADD PUSH1 0x0 KECCAK256 PUSH1 0x0 SWAP1 SLOAD SWAP1 PUSH2 0x100 EXP SWAP1 DIV PUSH1 0xFF AND DUP1 ISZERO PUSH2 0x281B JUMPI POP PUSH1 0x8 PUSH1 0x0 DUP4 PUSH20 0xFFFFFFFFFFFFFFFFFFFFFFFFFFFFFFFFFFFFFFFF AND PUSH20 0xFFFFFFFFFFFFFFFFFFFFFFFFFFFFFFFFFFFFFFFF AND DUP2 MSTORE PUSH1 0x20 ADD SWAP1 DUP2 MSTORE PUSH1 0x20 ADD PUSH1 0x0 KECCAK256 PUSH1 0x0 DUP5 PUSH20 0xFFFFFFFFFFFFFFFFFFFFFFFFFFFFFFFFFFFFFFFF AND PUSH20 0xFFFFFFFFFFFFFFFFFFFFFFFFFFFFFFFFFFFFFFFF AND DUP2 MSTORE PUSH1 0x20 ADD SWAP1 DUP2 MSTORE PUSH1 0x20 ADD PUSH1 0x0 KECCAK256 PUSH1 0x0 SWAP1 SLOAD SWAP1 PUSH2 0x100 EXP SWAP1 DIV PUSH1 0xFF AND ISZERO JUMPDEST JUMPDEST DUP1 PUSH2 0x28AD JUMPI POP PUSH1 0x7 PUSH1 0x0 DUP4 PUSH20 0xFFFFFFFFFFFFFFFFFFFFFFFFFFFFFFFFFFFFFFFF AND PUSH20 0xFFFFFFFFFFFFFFFFFFFFFFFFFFFFFFFFFFFFFFFF AND DUP2 MSTORE PUSH1 0x20 ADD SWAP1 DUP2 MSTORE PUSH1 0x20 ADD PUSH1 0x0 KECCAK256 PUSH1 0x0 DUP5 PUSH20 0xFFFFFFFFFFFFFFFFFFFFFFFFFFFFFFFFFFFFFFFF AND PUSH20 0xFFFFFFFFFFFFFFFFFFFFFFFFFFFFFFFFFFFFFFFF AND DUP2 MSTORE PUSH1 0x20 ADD SWAP1 DUP2 MSTORE PUSH1 0x20 ADD PUSH1 0x0 KECCAK256 PUSH1 0x0 SWAP1 SLOAD SWAP1 PUSH2 0x100 EXP SWAP1 DIV PUSH1 0xFF AND JUMPDEST SWAP1 POP SWAP3 SWAP2 POP POP JUMP JUMPDEST PUSH1 0x0 PUSH1 0x9 PUSH1 0x0 DUP5 PUSH20 0xFFFFFFFFFFFFFFFFFFFFFFFFFFFFFFFFFFFFFFFF AND PUSH20 0xFFFFFFFFFFFFFFFFFFFFFFFFFFFFFFFFFFFFFFFF AND DUP2 MSTORE PUSH1 0x20 ADD SWAP1 DUP2 MSTORE PUSH1 0x20 ADD PUSH1 0x0 KECCAK256 PUSH1 0x0 DUP4 PUSH20 0xFFFFFFFFFFFFFFFFFFFFFFFFFFFFFFFFFFFFFFFF AND PUSH20 0xFFFFFFFFFFFFFFFFFFFFFFFFFFFFFFFFFFFFFFFF AND DUP2 MSTORE PUSH1 0x20 ADD SWAP1 DUP2 MSTORE PUSH1 0x20 ADD PUSH1 0x0 KECCAK256 SLOAD SWAP1 POP SWAP3 SWAP2 POP POP JUMP JUMPDEST PUSH2 0x2944 PUSH2 0x2D2A JUMP JUMPDEST PUSH20 0xFFFFFFFFFFFFFFFFFFFFFFFFFFFFFFFFFFFFFFFF AND DUP2 PUSH20 0xFFFFFFFFFFFFFFFFFFFFFFFFFFFFFFFFFFFFFFFF AND EQ ISZERO PUSH2 0x29B2 JUMPI PUSH1 0x40 MLOAD PUSH32 0x8C379A000000000000000000000000000000000000000000000000000000000 DUP2 MSTORE PUSH1 0x4 ADD PUSH2 0x29A9 SWAP1 PUSH2 0x5539 JUMP JUMPDEST PUSH1 0x40 MLOAD DUP1 SWAP2 SUB SWAP1 REVERT JUMPDEST PUSH1 0x6 PUSH1 0x0 DUP3 PUSH20 0xFFFFFFFFFFFFFFFFFFFFFFFFFFFFFFFFFFFFFFFF AND PUSH20 0xFFFFFFFFFFFFFFFFFFFFFFFFFFFFFFFFFFFFFFFF AND DUP2 MSTORE PUSH1 0x20 ADD SWAP1 DUP2 MSTORE PUSH1 0x20 ADD PUSH1 0x0 KECCAK256 PUSH1 0x0 SWAP1 SLOAD SWAP1 PUSH2 0x100 EXP SWAP1 DIV PUSH1 0xFF AND ISZERO PUSH2 0x2AA5 JUMPI PUSH1 0x1 PUSH1 0x8 PUSH1 0x0 PUSH2 0x2A12 PUSH2 0x2D2A JUMP JUMPDEST PUSH20 0xFFFFFFFFFFFFFFFFFFFFFFFFFFFFFFFFFFFFFFFF AND PUSH20 0xFFFFFFFFFFFFFFFFFFFFFFFFFFFFFFFFFFFFFFFF AND DUP2 MSTORE PUSH1 0x20 ADD SWAP1 DUP2 MSTORE PUSH1 0x20 ADD PUSH1 0x0 KECCAK256 PUSH1 0x0 DUP4 PUSH20 0xFFFFFFFFFFFFFFFFFFFFFFFFFFFFFFFFFFFFFFFF AND PUSH20 0xFFFFFFFFFFFFFFFFFFFFFFFFFFFFFFFFFFFFFFFF AND DUP2 MSTORE PUSH1 0x20 ADD SWAP1 DUP2 MSTORE PUSH1 0x20 ADD PUSH1 0x0 KECCAK256 PUSH1 0x0 PUSH2 0x100 EXP DUP2 SLOAD DUP2 PUSH1 0xFF MUL NOT AND SWAP1 DUP4 ISZERO ISZERO MUL OR SWAP1 SSTORE POP PUSH2 0x2B39 JUMP JUMPDEST PUSH1 0x7 PUSH1 0x0 PUSH2 0x2AB1 PUSH2 0x2D2A JUMP JUMPDEST PUSH20 0xFFFFFFFFFFFFFFFFFFFFFFFFFFFFFFFFFFFFFFFF AND PUSH20 0xFFFFFFFFFFFFFFFFFFFFFFFFFFFFFFFFFFFFFFFF AND DUP2 MSTORE PUSH1 0x20 ADD SWAP1 DUP2 MSTORE PUSH1 0x20 ADD PUSH1 0x0 KECCAK256 PUSH1 0x0 DUP3 PUSH20 0xFFFFFFFFFFFFFFFFFFFFFFFFFFFFFFFFFFFFFFFF AND PUSH20 0xFFFFFFFFFFFFFFFFFFFFFFFFFFFFFFFFFFFFFFFF AND DUP2 MSTORE PUSH1 0x20 ADD SWAP1 DUP2 MSTORE PUSH1 0x20 ADD PUSH1 0x0 KECCAK256 PUSH1 0x0 PUSH2 0x100 EXP DUP2 SLOAD SWAP1 PUSH1 0xFF MUL NOT AND SWAP1 SSTORE JUMPDEST PUSH2 0x2B41 PUSH2 0x2D2A JUMP JUMPDEST PUSH20 0xFFFFFFFFFFFFFFFFFFFFFFFFFFFFFFFFFFFFFFFF AND DUP2 PUSH20 0xFFFFFFFFFFFFFFFFFFFFFFFFFFFFFFFFFFFFFFFF AND PUSH32 0x50546E66E5F44D728365DC3908C63BC5CFEEAB470722C1677E3073A6AC294AA1 PUSH1 0x40 MLOAD PUSH1 0x40 MLOAD DUP1 SWAP2 SUB SWAP1 LOG3 POP JUMP JUMPDEST PUSH1 0xA PUSH1 0x0 SWAP1 SLOAD SWAP1 PUSH2 0x100 EXP SWAP1 DIV PUSH20 0xFFFFFFFFFFFFFFFFFFFFFFFFFFFFFFFFFFFFFFFF AND DUP2 JUMP JUMPDEST PUSH2 0x2BD4 PUSH2 0x2BCE PUSH2 0x2D2A JUMP JUMPDEST DUP8 PUSH2 0x2704 JUMP JUMPDEST PUSH2 0x2C13 JUMPI PUSH1 0x40 MLOAD PUSH32 0x8C379A000000000000000000000000000000000000000000000000000000000 DUP2 MSTORE PUSH1 0x4 ADD PUSH2 0x2C0A SWAP1 PUSH2 0x55F9 JUMP JUMPDEST PUSH1 0x40 MLOAD DUP1 SWAP2 SUB SWAP1 REVERT JUMPDEST PUSH2 0x2CAF PUSH2 0x2C1E PUSH2 0x2D2A JUMP JUMPDEST DUP8 DUP8 DUP8 DUP8 DUP1 DUP1 PUSH1 0x1F ADD PUSH1 0x20 DUP1 SWAP2 DIV MUL PUSH1 0x20 ADD PUSH1 0x40 MLOAD SWAP1 DUP2 ADD PUSH1 0x40 MSTORE DUP1 SWAP4 SWAP3 SWAP2 SWAP1 DUP2 DUP2 MSTORE PUSH1 0x20 ADD DUP4 DUP4 DUP1 DUP3 DUP5 CALLDATACOPY PUSH1 0x0 DUP2 DUP5 ADD MSTORE PUSH1 0x1F NOT PUSH1 0x1F DUP3 ADD AND SWAP1 POP DUP1 DUP4 ADD SWAP3 POP POP POP POP POP POP POP DUP7 DUP7 DUP1 DUP1 PUSH1 0x1F ADD PUSH1 0x20 DUP1 SWAP2 DIV MUL PUSH1 0x20 ADD PUSH1 0x40 MLOAD SWAP1 DUP2 ADD PUSH1 0x40 MSTORE DUP1 SWAP4 SWAP3 SWAP2 SWAP1 DUP2 DUP2 MSTORE PUSH1 0x20 ADD DUP4 DUP4 DUP1 DUP3 DUP5 CALLDATACOPY PUSH1 0x0 DUP2 DUP5 ADD MSTORE PUSH1 0x1F NOT PUSH1 0x1F DUP3 ADD AND SWAP1 POP DUP1 DUP4 ADD SWAP3 POP POP POP POP POP POP POP PUSH2 0x2EB8 JUMP JUMPDEST POP POP POP POP POP POP JUMP JUMPDEST PUSH2 0x2D25 PUSH2 0x2CC2 PUSH2 0x2D2A JUMP JUMPDEST PUSH2 0x2CCA PUSH2 0x2D2A JUMP JUMPDEST DUP6 DUP6 DUP6 DUP1 DUP1 PUSH1 0x1F ADD PUSH1 0x20 DUP1 SWAP2 DIV MUL PUSH1 0x20 ADD PUSH1 0x40 MLOAD SWAP1 DUP2 ADD PUSH1 0x40 MSTORE DUP1 SWAP4 SWAP3 SWAP2 SWAP1 DUP2 DUP2 MSTORE PUSH1 0x20 ADD DUP4 DUP4 DUP1 DUP3 DUP5 CALLDATACOPY PUSH1 0x0 DUP2 DUP5 ADD MSTORE PUSH1 0x1F NOT PUSH1 0x1F DUP3 ADD AND SWAP1 POP DUP1 DUP4 ADD SWAP3 POP POP POP POP POP POP POP PUSH1 0x40 MLOAD DUP1 PUSH1 0x20 ADD PUSH1 0x40 MSTORE DUP1 PUSH1 0x0 DUP2 MSTORE POP PUSH2 0x2EB8 JUMP JUMPDEST POP POP POP JUMP JUMPDEST PUSH1 0x0 CALLER SWAP1 POP SWAP1 JUMP JUMPDEST PUSH1 0x0 PUSH20 0xFFFFFFFFFFFFFFFFFFFFFFFFFFFFFFFFFFFFFFFF AND DUP3 PUSH20 0xFFFFFFFFFFFFFFFFFFFFFFFFFFFFFFFFFFFFFFFF AND EQ ISZERO PUSH2 0x2DA2 JUMPI PUSH1 0x40 MLOAD PUSH32 0x8C379A000000000000000000000000000000000000000000000000000000000 DUP2 MSTORE PUSH1 0x4 ADD PUSH2 0x2D99 SWAP1 PUSH2 0x5659 JUMP JUMPDEST PUSH1 0x40 MLOAD DUP1 SWAP2 SUB SWAP1 REVERT JUMPDEST DUP1 PUSH1 0x9 PUSH1 0x0 DUP6 PUSH20 0xFFFFFFFFFFFFFFFFFFFFFFFFFFFFFFFFFFFFFFFF AND PUSH20 0xFFFFFFFFFFFFFFFFFFFFFFFFFFFFFFFFFFFFFFFF AND DUP2 MSTORE PUSH1 0x20 ADD SWAP1 DUP2 MSTORE PUSH1 0x20 ADD PUSH1 0x0 KECCAK256 PUSH1 0x0 DUP5 PUSH20 0xFFFFFFFFFFFFFFFFFFFFFFFFFFFFFFFFFFFFFFFF AND PUSH20 0xFFFFFFFFFFFFFFFFFFFFFFFFFFFFFFFFFFFFFFFF AND DUP2 MSTORE PUSH1 0x20 ADD SWAP1 DUP2 MSTORE PUSH1 0x20 ADD PUSH1 0x0 KECCAK256 DUP2 SWAP1 SSTORE POP DUP2 PUSH20 0xFFFFFFFFFFFFFFFFFFFFFFFFFFFFFFFFFFFFFFFF AND DUP4 PUSH20 0xFFFFFFFFFFFFFFFFFFFFFFFFFFFFFFFFFFFFFFFF AND PUSH32 0x8C5BE1E5EBEC7D5BD14F71427D1E84F3DD0314C0F7B2291E5B200AC8C7C3B925 DUP4 PUSH1 0x40 MLOAD PUSH2 0x2E80 SWAP2 SWAP1 PUSH2 0x5679 JUMP JUMPDEST PUSH1 0x40 MLOAD DUP1 SWAP2 SUB SWAP1 LOG3 POP POP POP JUMP JUMPDEST PUSH1 0x0 PUSH2 0x2E98 DUP3 PUSH2 0x3BE8 JUMP JUMPDEST SWAP1 POP SWAP2 SWAP1 POP JUMP JUMPDEST PUSH1 0x0 DUP2 DUP4 LT PUSH2 0x2EAE JUMPI DUP2 PUSH2 0x2EB0 JUMP JUMPDEST DUP3 JUMPDEST SWAP1 POP SWAP3 SWAP2 POP POP JUMP JUMPDEST PUSH1 0x0 PUSH20 0xFFFFFFFFFFFFFFFFFFFFFFFFFFFFFFFFFFFFFFFF AND DUP5 PUSH20 0xFFFFFFFFFFFFFFFFFFFFFFFFFFFFFFFFFFFFFFFF AND EQ ISZERO PUSH2 0x2F28 JUMPI PUSH1 0x40 MLOAD PUSH32 0x8C379A000000000000000000000000000000000000000000000000000000000 DUP2 MSTORE PUSH1 0x4 ADD PUSH2 0x2F1F SWAP1 PUSH2 0x54D9 JUMP JUMPDEST PUSH1 0x40 MLOAD DUP1 SWAP2 SUB SWAP1 REVERT JUMPDEST PUSH2 0x2F37 DUP6 DUP6 PUSH1 0x0 DUP7 DUP7 DUP7 PUSH2 0x33B2 JUMP JUMPDEST PUSH2 0x2FA3 DUP4 PUSH1 0x40 MLOAD DUP1 PUSH1 0x60 ADD PUSH1 0x40 MSTORE DUP1 PUSH1 0x23 DUP2 MSTORE PUSH1 0x20 ADD PUSH2 0x5B2B PUSH1 0x23 SWAP2 CODECOPY PUSH1 0x1 PUSH1 0x0 DUP9 PUSH20 0xFFFFFFFFFFFFFFFFFFFFFFFFFFFFFFFFFFFFFFFF AND PUSH20 0xFFFFFFFFFFFFFFFFFFFFFFFFFFFFFFFFFFFFFFFF AND DUP2 MSTORE PUSH1 0x20 ADD SWAP1 DUP2 MSTORE PUSH1 0x20 ADD PUSH1 0x0 KECCAK256 SLOAD PUSH2 0x35E2 SWAP1 SWAP3 SWAP2 SWAP1 PUSH4 0xFFFFFFFF AND JUMP JUMPDEST PUSH1 0x1 PUSH1 0x0 DUP7 PUSH20 0xFFFFFFFFFFFFFFFFFFFFFFFFFFFFFFFFFFFFFFFF AND PUSH20 0xFFFFFFFFFFFFFFFFFFFFFFFFFFFFFFFFFFFFFFFF AND DUP2 MSTORE PUSH1 0x20 ADD SWAP1 DUP2 MSTORE PUSH1 0x20 ADD PUSH1 0x0 KECCAK256 DUP2 SWAP1 SSTORE POP PUSH2 0x2FFB DUP4 PUSH1 0x2 SLOAD PUSH2 0x3B9E SWAP1 SWAP2 SWAP1 PUSH4 0xFFFFFFFF AND JUMP JUMPDEST PUSH1 0x2 DUP2 SWAP1 SSTORE POP DUP4 PUSH20 0xFFFFFFFFFFFFFFFFFFFFFFFFFFFFFFFFFFFFFFFF AND DUP6 PUSH20 0xFFFFFFFFFFFFFFFFFFFFFFFFFFFFFFFFFFFFFFFF AND PUSH32 0xA78A9BE3A7B862D26933AD85FB11D80EF66B8F972D7CBBA06621D583943A4098 DUP6 DUP6 DUP6 PUSH1 0x40 MLOAD PUSH2 0x3062 SWAP4 SWAP3 SWAP2 SWAP1 PUSH2 0x5694 JUMP JUMPDEST PUSH1 0x40 MLOAD DUP1 SWAP2 SUB SWAP1 LOG3 PUSH1 0x0 PUSH20 0xFFFFFFFFFFFFFFFFFFFFFFFFFFFFFFFFFFFFFFFF AND DUP5 PUSH20 0xFFFFFFFFFFFFFFFFFFFFFFFFFFFFFFFFFFFFFFFF AND PUSH32 0xDDF252AD1BE2C89B69C2B068FC378DAA952BA7F163C4A11628F55A4DF523B3EF DUP6 PUSH1 0x40 MLOAD PUSH2 0x30C8 SWAP2 SWAP1 PUSH2 0x5679 JUMP JUMPDEST PUSH1 0x40 MLOAD DUP1 SWAP2 SUB SWAP1 LOG3 POP POP POP POP POP JUMP JUMPDEST PUSH1 0x0 DUP1 DUP4 EQ ISZERO PUSH2 0x30EA JUMPI PUSH1 0x0 SWAP1 POP PUSH2 0x3141 JUMP JUMPDEST PUSH1 0x0 DUP3 DUP5 MUL SWAP1 POP DUP3 DUP5 DUP3 DUP2 PUSH2 0x30FB JUMPI INVALID JUMPDEST DIV EQ PUSH2 0x313C JUMPI PUSH1 0x40 MLOAD PUSH32 0x8C379A000000000000000000000000000000000000000000000000000000000 DUP2 MSTORE PUSH1 0x4 ADD PUSH2 0x3133 SWAP1 PUSH2 0x5579 JUMP JUMPDEST PUSH1 0x40 MLOAD DUP1 SWAP2 SUB SWAP1 REVERT JUMPDEST DUP1 SWAP2 POP POP JUMPDEST SWAP3 SWAP2 POP POP JUMP JUMPDEST PUSH1 0x0 PUSH2 0x3189 DUP4 DUP4 PUSH1 0x40 MLOAD DUP1 PUSH1 0x40 ADD PUSH1 0x40 MSTORE DUP1 PUSH1 0x1A DUP2 MSTORE PUSH1 0x20 ADD PUSH32 0x536166654D6174683A206469766973696F6E206279207A65726F000000000000 DUP2 MSTORE POP PUSH2 0x3C31 JUMP JUMPDEST SWAP1 POP SWAP3 SWAP2 POP POP JUMP JUMPDEST PUSH1 0x0 DUP1 PUSH1 0xC PUSH1 0x0 DUP6 PUSH20 0xFFFFFFFFFFFFFFFFFFFFFFFFFFFFFFFFFFFFFFFF AND PUSH20 0xFFFFFFFFFFFFFFFFFFFFFFFFFFFFFFFFFFFFFFFF AND DUP2 MSTORE PUSH1 0x20 ADD SWAP1 DUP2 MSTORE PUSH1 0x20 ADD PUSH1 0x0 KECCAK256 SWAP1 POP PUSH2 0x31EC DUP4 DUP3 PUSH1 0x1 ADD SLOAD PUSH2 0x3B9E SWAP1 SWAP2 SWAP1 PUSH4 0xFFFFFFFF AND JUMP JUMPDEST DUP2 PUSH1 0x1 ADD DUP2 SWAP1 SSTORE POP PUSH1 0x0 DUP2 PUSH1 0x2 ADD DUP1 SLOAD SWAP1 POP EQ ISZERO PUSH2 0x320E JUMPI PUSH1 0x1 SWAP2 POP POP PUSH2 0x33AC JUMP JUMPDEST PUSH1 0x0 DUP1 SWAP1 POP JUMPDEST DUP2 PUSH1 0x2 ADD DUP1 SLOAD SWAP1 POP DUP2 LT ISZERO PUSH2 0x33A5 JUMPI PUSH2 0x322B PUSH2 0x4047 JUMP JUMPDEST DUP3 PUSH1 0x2 ADD DUP3 DUP2 SLOAD DUP2 LT PUSH2 0x323A JUMPI INVALID JUMPDEST SWAP1 PUSH1 0x0 MSTORE PUSH1 0x20 PUSH1 0x0 KECCAK256 SWAP1 PUSH1 0x3 MUL ADD PUSH1 0x40 MLOAD DUP1 PUSH1 0x60 ADD PUSH1 0x40 MSTORE SWAP1 DUP2 PUSH1 0x0 DUP3 ADD PUSH1 0x0 SWAP1 SLOAD SWAP1 PUSH2 0x100 EXP SWAP1 DIV PUSH20 0xFFFFFFFFFFFFFFFFFFFFFFFFFFFFFFFFFFFFFFFF AND PUSH20 0xFFFFFFFFFFFFFFFFFFFFFFFFFFFFFFFFFFFFFFFF AND PUSH20 0xFFFFFFFFFFFFFFFFFFFFFFFFFFFFFFFFFFFFFFFF AND DUP2 MSTORE PUSH1 0x20 ADD PUSH1 0x1 DUP3 ADD SLOAD DUP2 MSTORE PUSH1 0x20 ADD PUSH1 0x2 DUP3 ADD DUP1 SLOAD PUSH1 0x1 DUP2 PUSH1 0x1 AND ISZERO PUSH2 0x100 MUL SUB AND PUSH1 0x2 SWAP1 DIV DUP1 PUSH1 0x1F ADD PUSH1 0x20 DUP1 SWAP2 DIV MUL PUSH1 0x20 ADD PUSH1 0x40 MLOAD SWAP1 DUP2 ADD PUSH1 0x40 MSTORE DUP1 SWAP3 SWAP2 SWAP1 DUP2 DUP2 MSTORE PUSH1 0x20 ADD DUP3 DUP1 SLOAD PUSH1 0x1 DUP2 PUSH1 0x1 AND ISZERO PUSH2 0x100 MUL SUB AND PUSH1 0x2 SWAP1 DIV DUP1 ISZERO PUSH2 0x334C JUMPI DUP1 PUSH1 0x1F LT PUSH2 0x3321 JUMPI PUSH2 0x100 DUP1 DUP4 SLOAD DIV MUL DUP4 MSTORE SWAP2 PUSH1 0x20 ADD SWAP2 PUSH2 0x334C JUMP JUMPDEST DUP3 ADD SWAP2 SWAP1 PUSH1 0x0 MSTORE PUSH1 0x20 PUSH1 0x0 KECCAK256 SWAP1 JUMPDEST DUP2 SLOAD DUP2 MSTORE SWAP1 PUSH1 0x1 ADD SWAP1 PUSH1 0x20 ADD DUP1 DUP4 GT PUSH2 0x332F JUMPI DUP3 SWAP1 SUB PUSH1 0x1F AND DUP3 ADD SWAP2 JUMPDEST POP POP POP POP POP DUP2 MSTORE POP POP SWAP1 POP PUSH1 0x0 DUP4 PUSH1 0x3 ADD SLOAD DUP3 PUSH1 0x20 ADD MLOAD DUP8 MUL DUP2 PUSH2 0x336C JUMPI INVALID JUMPDEST DIV SWAP1 POP PUSH2 0x3396 ADDRESS DUP9 DUP5 PUSH1 0x0 ADD MLOAD DUP5 DUP7 PUSH1 0x40 ADD MLOAD PUSH1 0x40 MLOAD DUP1 PUSH1 0x20 ADD PUSH1 0x40 MSTORE DUP1 PUSH1 0x0 DUP2 MSTORE POP PUSH1 0x0 PUSH2 0x3A8A JUMP JUMPDEST POP POP DUP1 DUP1 PUSH1 0x1 ADD SWAP2 POP POP PUSH2 0x3214 JUMP JUMPDEST POP PUSH1 0x1 SWAP2 POP POP JUMPDEST SWAP3 SWAP2 POP POP JUMP JUMPDEST PUSH1 0x0 DUP1 PUSH1 0x0 SWAP1 SLOAD SWAP1 PUSH2 0x100 EXP SWAP1 DIV PUSH20 0xFFFFFFFFFFFFFFFFFFFFFFFFFFFFFFFFFFFFFFFF AND PUSH20 0xFFFFFFFFFFFFFFFFFFFFFFFFFFFFFFFFFFFFFFFF AND PUSH4 0xAABBB8CA DUP8 PUSH32 0x29DDB589B1FB5FC7CF394961C1ADF5F8C6454761ADF795E67FE149F658ABE895 PUSH1 0x0 SHL PUSH1 0x40 MLOAD DUP4 PUSH4 0xFFFFFFFF AND PUSH1 0xE0 SHL DUP2 MSTORE PUSH1 0x4 ADD PUSH2 0x3433 SWAP3 SWAP2 SWAP1 PUSH2 0x5362 JUMP JUMPDEST PUSH1 0x20 PUSH1 0x40 MLOAD DUP1 DUP4 SUB DUP2 DUP7 DUP1 EXTCODESIZE ISZERO DUP1 ISZERO PUSH2 0x344B JUMPI PUSH1 0x0 DUP1 REVERT JUMPDEST POP GAS STATICCALL ISZERO DUP1 ISZERO PUSH2 0x345F JUMPI RETURNDATASIZE PUSH1 0x0 DUP1 RETURNDATACOPY RETURNDATASIZE PUSH1 0x0 REVERT JUMPDEST POP POP POP POP PUSH1 0x40 MLOAD RETURNDATASIZE PUSH1 0x1F NOT PUSH1 0x1F DUP3 ADD AND DUP3 ADD DUP1 PUSH1 0x40 MSTORE POP PUSH2 0x3483 SWAP2 SWAP1 DUP2 ADD SWAP1 PUSH2 0x445C JUMP JUMPDEST SWAP1 POP PUSH1 0x0 PUSH20 0xFFFFFFFFFFFFFFFFFFFFFFFFFFFFFFFFFFFFFFFF AND DUP2 PUSH20 0xFFFFFFFFFFFFFFFFFFFFFFFFFFFFFFFFFFFFFFFF AND EQ PUSH2 0x352F JUMPI DUP1 PUSH20 0xFFFFFFFFFFFFFFFFFFFFFFFFFFFFFFFFFFFFFFFF AND PUSH4 0x75AB9782 DUP9 DUP9 DUP9 DUP9 DUP9 DUP9 PUSH1 0x40 MLOAD DUP8 PUSH4 0xFFFFFFFF AND PUSH1 0xE0 SHL DUP2 MSTORE PUSH1 0x4 ADD PUSH2 0x34FC SWAP7 SWAP6 SWAP5 SWAP4 SWAP3 SWAP2 SWAP1 PUSH2 0x52BC JUMP JUMPDEST PUSH1 0x0 PUSH1 0x40 MLOAD DUP1 DUP4 SUB DUP2 PUSH1 0x0 DUP8 DUP1 EXTCODESIZE ISZERO DUP1 ISZERO PUSH2 0x3516 JUMPI PUSH1 0x0 DUP1 REVERT JUMPDEST POP GAS CALL ISZERO DUP1 ISZERO PUSH2 0x352A JUMPI RETURNDATASIZE PUSH1 0x0 DUP1 RETURNDATACOPY RETURNDATASIZE PUSH1 0x0 REVERT JUMPDEST POP POP POP POP JUMPDEST POP POP POP POP POP POP POP JUMP JUMPDEST PUSH2 0x3541 DUP6 PUSH2 0x1B2B JUMP JUMPDEST PUSH2 0x354A DUP5 PUSH2 0x1B2B JUMP JUMPDEST PUSH1 0x0 PUSH1 0xC PUSH1 0x0 DUP7 PUSH20 0xFFFFFFFFFFFFFFFFFFFFFFFFFFFFFFFFFFFFFFFF AND PUSH20 0xFFFFFFFFFFFFFFFFFFFFFFFFFFFFFFFFFFFFFFFF AND DUP2 MSTORE PUSH1 0x20 ADD SWAP1 DUP2 MSTORE PUSH1 0x20 ADD PUSH1 0x0 KECCAK256 SWAP1 POP PUSH1 0x1 ISZERO ISZERO DUP2 PUSH1 0x4 ADD PUSH1 0x0 SWAP1 SLOAD SWAP1 PUSH2 0x100 EXP SWAP1 DIV PUSH1 0xFF AND ISZERO ISZERO EQ ISZERO PUSH2 0x35CB JUMPI PUSH2 0x35C2 DUP5 DUP3 PUSH1 0x1 ADD SLOAD PUSH2 0x3A35 SWAP1 SWAP2 SWAP1 PUSH4 0xFFFFFFFF AND JUMP JUMPDEST DUP2 PUSH1 0x1 ADD DUP2 SWAP1 SSTORE POP JUMPDEST PUSH2 0x35D9 DUP8 DUP8 DUP8 DUP8 DUP8 DUP8 PUSH2 0x3C92 JUMP JUMPDEST POP POP POP POP POP POP POP JUMP JUMPDEST PUSH1 0x0 DUP4 DUP4 GT ISZERO DUP3 SWAP1 PUSH2 0x362A JUMPI PUSH1 0x40 MLOAD PUSH32 0x8C379A000000000000000000000000000000000000000000000000000000000 DUP2 MSTORE PUSH1 0x4 ADD PUSH2 0x3621 SWAP2 SWAP1 PUSH2 0x5457 JUMP JUMPDEST PUSH1 0x40 MLOAD DUP1 SWAP2 SUB SWAP1 REVERT JUMPDEST POP PUSH1 0x0 DUP4 DUP6 SUB SWAP1 POP DUP1 SWAP2 POP POP SWAP4 SWAP3 POP POP POP JUMP JUMPDEST PUSH1 0x0 DUP1 PUSH1 0x0 SWAP1 SLOAD SWAP1 PUSH2 0x100 EXP SWAP1 DIV PUSH20 0xFFFFFFFFFFFFFFFFFFFFFFFFFFFFFFFFFFFFFFFF AND PUSH20 0xFFFFFFFFFFFFFFFFFFFFFFFFFFFFFFFFFFFFFFFF AND PUSH4 0xAABBB8CA DUP8 PUSH32 0xB281FC8C12954D22544DB45DE3159A39272895B169A852B314F9CC762E44C53B PUSH1 0x0 SHL PUSH1 0x40 MLOAD DUP4 PUSH4 0xFFFFFFFF AND PUSH1 0xE0 SHL DUP2 MSTORE PUSH1 0x4 ADD PUSH2 0x36BE SWAP3 SWAP2 SWAP1 PUSH2 0x5362 JUMP JUMPDEST PUSH1 0x20 PUSH1 0x40 MLOAD DUP1 DUP4 SUB DUP2 DUP7 DUP1 EXTCODESIZE ISZERO DUP1 ISZERO PUSH2 0x36D6 JUMPI PUSH1 0x0 DUP1 REVERT JUMPDEST POP GAS STATICCALL ISZERO DUP1 ISZERO PUSH2 0x36EA JUMPI RETURNDATASIZE PUSH1 0x0 DUP1 RETURNDATACOPY RETURNDATASIZE PUSH1 0x0 REVERT JUMPDEST POP POP POP POP PUSH1 0x40 MLOAD RETURNDATASIZE PUSH1 0x1F NOT PUSH1 0x1F DUP3 ADD AND DUP3 ADD DUP1 PUSH1 0x40 MSTORE POP PUSH2 0x370E SWAP2 SWAP1 DUP2 ADD SWAP1 PUSH2 0x445C JUMP JUMPDEST SWAP1 POP PUSH1 0x0 PUSH20 0xFFFFFFFFFFFFFFFFFFFFFFFFFFFFFFFFFFFFFFFF AND DUP2 PUSH20 0xFFFFFFFFFFFFFFFFFFFFFFFFFFFFFFFFFFFFFFFF AND EQ PUSH2 0x37BD JUMPI DUP1 PUSH20 0xFFFFFFFFFFFFFFFFFFFFFFFFFFFFFFFFFFFFFFFF AND PUSH3 0x23DE29 DUP10 DUP10 DUP10 DUP10 DUP10 DUP10 PUSH1 0x40 MLOAD DUP8 PUSH4 0xFFFFFFFF AND PUSH1 0xE0 SHL DUP2 MSTORE PUSH1 0x4 ADD PUSH2 0x3786 SWAP7 SWAP6 SWAP5 SWAP4 SWAP3 SWAP2 SWAP1 PUSH2 0x52BC JUMP JUMPDEST PUSH1 0x0 PUSH1 0x40 MLOAD DUP1 DUP4 SUB DUP2 PUSH1 0x0 DUP8 DUP1 EXTCODESIZE ISZERO DUP1 ISZERO PUSH2 0x37A0 JUMPI PUSH1 0x0 DUP1 REVERT JUMPDEST POP GAS CALL ISZERO DUP1 ISZERO PUSH2 0x37B4 JUMPI RETURNDATASIZE PUSH1 0x0 DUP1 RETURNDATACOPY RETURNDATASIZE PUSH1 0x0 REVERT JUMPDEST POP POP POP POP PUSH2 0x3824 JUMP JUMPDEST DUP2 ISZERO PUSH2 0x3823 JUMPI PUSH2 0x37E2 DUP7 PUSH20 0xFFFFFFFFFFFFFFFFFFFFFFFFFFFFFFFFFFFFFFFF AND PUSH2 0x3EC3 JUMP JUMPDEST ISZERO PUSH2 0x3822 JUMPI PUSH1 0x40 MLOAD PUSH32 0x8C379A000000000000000000000000000000000000000000000000000000000 DUP2 MSTORE PUSH1 0x4 ADD PUSH2 0x3819 SWAP1 PUSH2 0x5599 JUMP JUMPDEST PUSH1 0x40 MLOAD DUP1 SWAP2 SUB SWAP1 REVERT JUMPDEST JUMPDEST JUMPDEST POP POP POP POP POP POP POP POP JUMP JUMPDEST PUSH1 0x0 PUSH20 0xFFFFFFFFFFFFFFFFFFFFFFFFFFFFFFFFFFFFFFFF AND DUP5 PUSH20 0xFFFFFFFFFFFFFFFFFFFFFFFFFFFFFFFFFFFFFFFF AND EQ ISZERO PUSH2 0x389E JUMPI PUSH1 0x40 MLOAD PUSH32 0x8C379A000000000000000000000000000000000000000000000000000000000 DUP2 MSTORE PUSH1 0x4 ADD PUSH2 0x3895 SWAP1 PUSH2 0x5559 JUMP JUMPDEST PUSH1 0x40 MLOAD DUP1 SWAP2 SUB SWAP1 REVERT JUMPDEST PUSH2 0x38B3 DUP4 PUSH1 0x2 SLOAD PUSH2 0x3A35 SWAP1 SWAP2 SWAP1 PUSH4 0xFFFFFFFF AND JUMP JUMPDEST PUSH1 0x2 DUP2 SWAP1 SSTORE POP PUSH2 0x390B DUP4 PUSH1 0x1 PUSH1 0x0 DUP8 PUSH20 0xFFFFFFFFFFFFFFFFFFFFFFFFFFFFFFFFFFFFFFFF AND PUSH20 0xFFFFFFFFFFFFFFFFFFFFFFFFFFFFFFFFFFFFFFFF AND DUP2 MSTORE PUSH1 0x20 ADD SWAP1 DUP2 MSTORE PUSH1 0x20 ADD PUSH1 0x0 KECCAK256 SLOAD PUSH2 0x3A35 SWAP1 SWAP2 SWAP1 PUSH4 0xFFFFFFFF AND JUMP JUMPDEST PUSH1 0x1 PUSH1 0x0 DUP7 PUSH20 0xFFFFFFFFFFFFFFFFFFFFFFFFFFFFFFFFFFFFFFFF AND PUSH20 0xFFFFFFFFFFFFFFFFFFFFFFFFFFFFFFFFFFFFFFFF AND DUP2 MSTORE PUSH1 0x20 ADD SWAP1 DUP2 MSTORE PUSH1 0x20 ADD PUSH1 0x0 KECCAK256 DUP2 SWAP1 SSTORE POP PUSH2 0x395F DUP6 PUSH1 0x0 DUP7 DUP7 DUP7 DUP7 PUSH1 0x1 PUSH2 0x363D JUMP JUMPDEST DUP4 PUSH20 0xFFFFFFFFFFFFFFFFFFFFFFFFFFFFFFFFFFFFFFFF AND DUP6 PUSH20 0xFFFFFFFFFFFFFFFFFFFFFFFFFFFFFFFFFFFFFFFF AND PUSH32 0x2FE5BE0146F74C5BCE36C0B80911AF6C7D86FF27E89D5CFA61FC681327954E5D DUP6 DUP6 DUP6 PUSH1 0x40 MLOAD PUSH2 0x39C0 SWAP4 SWAP3 SWAP2 SWAP1 PUSH2 0x5694 JUMP JUMPDEST PUSH1 0x40 MLOAD DUP1 SWAP2 SUB SWAP1 LOG3 DUP4 PUSH20 0xFFFFFFFFFFFFFFFFFFFFFFFFFFFFFFFFFFFFFFFF AND PUSH1 0x0 PUSH20 0xFFFFFFFFFFFFFFFFFFFFFFFFFFFFFFFFFFFFFFFF AND PUSH32 0xDDF252AD1BE2C89B69C2B068FC378DAA952BA7F163C4A11628F55A4DF523B3EF DUP6 PUSH1 0x40 MLOAD PUSH2 0x3A26 SWAP2 SWAP1 PUSH2 0x5679 JUMP JUMPDEST PUSH1 0x40 MLOAD DUP1 SWAP2 SUB SWAP1 LOG3 POP POP POP POP POP JUMP JUMPDEST PUSH1 0x0 DUP1 DUP3 DUP5 ADD SWAP1 POP DUP4 DUP2 LT ISZERO PUSH2 0x3A80 JUMPI PUSH1 0x40 MLOAD PUSH32 0x8C379A000000000000000000000000000000000000000000000000000000000 DUP2 MSTORE PUSH1 0x4 ADD PUSH2 0x3A77 SWAP1 PUSH2 0x54B9 JUMP JUMPDEST PUSH1 0x40 MLOAD DUP1 SWAP2 SUB SWAP1 REVERT JUMPDEST DUP1 SWAP2 POP POP SWAP3 SWAP2 POP POP JUMP JUMPDEST PUSH1 0x0 PUSH20 0xFFFFFFFFFFFFFFFFFFFFFFFFFFFFFFFFFFFFFFFF AND DUP7 PUSH20 0xFFFFFFFFFFFFFFFFFFFFFFFFFFFFFFFFFFFFFFFF AND EQ ISZERO PUSH2 0x3AFA JUMPI PUSH1 0x40 MLOAD PUSH32 0x8C379A000000000000000000000000000000000000000000000000000000000 DUP2 MSTORE PUSH1 0x4 ADD PUSH2 0x3AF1 SWAP1 PUSH2 0x5479 JUMP JUMPDEST PUSH1 0x40 MLOAD DUP1 SWAP2 SUB SWAP1 REVERT JUMPDEST PUSH1 0x0 PUSH20 0xFFFFFFFFFFFFFFFFFFFFFFFFFFFFFFFFFFFFFFFF AND DUP6 PUSH20 0xFFFFFFFFFFFFFFFFFFFFFFFFFFFFFFFFFFFFFFFF AND EQ ISZERO PUSH2 0x3B6A JUMPI PUSH1 0x40 MLOAD PUSH32 0x8C379A000000000000000000000000000000000000000000000000000000000 DUP2 MSTORE PUSH1 0x4 ADD PUSH2 0x3B61 SWAP1 PUSH2 0x5639 JUMP JUMPDEST PUSH1 0x40 MLOAD DUP1 SWAP2 SUB SWAP1 REVERT JUMPDEST PUSH2 0x3B78 DUP8 DUP8 DUP8 DUP8 DUP8 DUP8 PUSH2 0x33B2 JUMP JUMPDEST PUSH2 0x3B86 DUP8 DUP8 DUP8 DUP8 DUP8 DUP8 PUSH2 0x3538 JUMP JUMPDEST PUSH2 0x3B95 DUP8 DUP8 DUP8 DUP8 DUP8 DUP8 DUP8 PUSH2 0x363D JUMP JUMPDEST POP POP POP POP POP POP POP JUMP JUMPDEST PUSH1 0x0 PUSH2 0x3BE0 DUP4 DUP4 PUSH1 0x40 MLOAD DUP1 PUSH1 0x40 ADD PUSH1 0x40 MSTORE DUP1 PUSH1 0x1E DUP2 MSTORE PUSH1 0x20 ADD PUSH32 0x536166654D6174683A207375627472616374696F6E206F766572666C6F770000 DUP2 MSTORE POP PUSH2 0x35E2 JUMP JUMPDEST SWAP1 POP SWAP3 SWAP2 POP POP JUMP JUMPDEST PUSH1 0x0 PUSH1 0x1 PUSH1 0x0 DUP4 PUSH20 0xFFFFFFFFFFFFFFFFFFFFFFFFFFFFFFFFFFFFFFFF AND PUSH20 0xFFFFFFFFFFFFFFFFFFFFFFFFFFFFFFFFFFFFFFFF AND DUP2 MSTORE PUSH1 0x20 ADD SWAP1 DUP2 MSTORE PUSH1 0x20 ADD PUSH1 0x0 KECCAK256 SLOAD SWAP1 POP SWAP2 SWAP1 POP JUMP JUMPDEST PUSH1 0x0 DUP1 DUP4 GT DUP3 SWAP1 PUSH2 0x3C78 JUMPI PUSH1 0x40 MLOAD PUSH32 0x8C379A000000000000000000000000000000000000000000000000000000000 DUP2 MSTORE PUSH1 0x4 ADD PUSH2 0x3C6F SWAP2 SWAP1 PUSH2 0x5457 JUMP JUMPDEST PUSH1 0x40 MLOAD DUP1 SWAP2 SUB SWAP1 REVERT JUMPDEST POP PUSH1 0x0 DUP4 DUP6 DUP2 PUSH2 0x3C84 JUMPI INVALID JUMPDEST DIV SWAP1 POP DUP1 SWAP2 POP POP SWAP4 SWAP3 POP POP POP JUMP JUMPDEST PUSH2 0x3CFE DUP4 PUSH1 0x40 MLOAD DUP1 PUSH1 0x60 ADD PUSH1 0x40 MSTORE DUP1 PUSH1 0x27 DUP2 MSTORE PUSH1 0x20 ADD PUSH2 0x5ADB PUSH1 0x27 SWAP2 CODECOPY PUSH1 0x1 PUSH1 0x0 DUP10 PUSH20 0xFFFFFFFFFFFFFFFFFFFFFFFFFFFFFFFFFFFFFFFF AND PUSH20 0xFFFFFFFFFFFFFFFFFFFFFFFFFFFFFFFFFFFFFFFF AND DUP2 MSTORE PUSH1 0x20 ADD SWAP1 DUP2 MSTORE PUSH1 0x20 ADD PUSH1 0x0 KECCAK256 SLOAD PUSH2 0x35E2 SWAP1 SWAP3 SWAP2 SWAP1 PUSH4 0xFFFFFFFF AND JUMP JUMPDEST PUSH1 0x1 PUSH1 0x0 DUP8 PUSH20 0xFFFFFFFFFFFFFFFFFFFFFFFFFFFFFFFFFFFFFFFF AND PUSH20 0xFFFFFFFFFFFFFFFFFFFFFFFFFFFFFFFFFFFFFFFF AND DUP2 MSTORE PUSH1 0x20 ADD SWAP1 DUP2 MSTORE PUSH1 0x20 ADD PUSH1 0x0 KECCAK256 DUP2 SWAP1 SSTORE POP PUSH2 0x3D93 DUP4 PUSH1 0x1 PUSH1 0x0 DUP8 PUSH20 0xFFFFFFFFFFFFFFFFFFFFFFFFFFFFFFFFFFFFFFFF AND PUSH20 0xFFFFFFFFFFFFFFFFFFFFFFFFFFFFFFFFFFFFFFFF AND DUP2 MSTORE PUSH1 0x20 ADD SWAP1 DUP2 MSTORE PUSH1 0x20 ADD PUSH1 0x0 KECCAK256 SLOAD PUSH2 0x3A35 SWAP1 SWAP2 SWAP1 PUSH4 0xFFFFFFFF AND JUMP JUMPDEST PUSH1 0x1 PUSH1 0x0 DUP7 PUSH20 0xFFFFFFFFFFFFFFFFFFFFFFFFFFFFFFFFFFFFFFFF AND PUSH20 0xFFFFFFFFFFFFFFFFFFFFFFFFFFFFFFFFFFFFFFFF AND DUP2 MSTORE PUSH1 0x20 ADD SWAP1 DUP2 MSTORE PUSH1 0x20 ADD PUSH1 0x0 KECCAK256 DUP2 SWAP1 SSTORE POP DUP4 PUSH20 0xFFFFFFFFFFFFFFFFFFFFFFFFFFFFFFFFFFFFFFFF AND DUP6 PUSH20 0xFFFFFFFFFFFFFFFFFFFFFFFFFFFFFFFFFFFFFFFF AND DUP8 PUSH20 0xFFFFFFFFFFFFFFFFFFFFFFFFFFFFFFFFFFFFFFFF AND PUSH32 0x6B541DDAA720DB2B10A4D0CDAC39B8D360425FC073085FAC19BC82614677987 DUP7 DUP7 DUP7 PUSH1 0x40 MLOAD PUSH2 0x3E4E SWAP4 SWAP3 SWAP2 SWAP1 PUSH2 0x5694 JUMP JUMPDEST PUSH1 0x40 MLOAD DUP1 SWAP2 SUB SWAP1 LOG4 DUP4 PUSH20 0xFFFFFFFFFFFFFFFFFFFFFFFFFFFFFFFFFFFFFFFF AND DUP6 PUSH20 0xFFFFFFFFFFFFFFFFFFFFFFFFFFFFFFFFFFFFFFFF AND PUSH32 0xDDF252AD1BE2C89B69C2B068FC378DAA952BA7F163C4A11628F55A4DF523B3EF DUP6 PUSH1 0x40 MLOAD PUSH2 0x3EB3 SWAP2 SWAP1 PUSH2 0x5679 JUMP JUMPDEST PUSH1 0x40 MLOAD DUP1 SWAP2 SUB SWAP1 LOG3 POP POP POP POP POP POP JUMP JUMPDEST PUSH1 0x0 DUP1 PUSH1 0x0 PUSH32 0xC5D2460186F7233C927E7DB2DCC703C0E500B653CA82273B7BFAD8045D85A470 PUSH1 0x0 SHL SWAP1 POP DUP4 EXTCODEHASH SWAP2 POP PUSH1 0x0 DUP1 SHL DUP3 EQ ISZERO DUP1 ISZERO PUSH2 0x3F05 JUMPI POP DUP1 DUP3 EQ ISZERO JUMPDEST SWAP3 POP POP POP SWAP2 SWAP1 POP JUMP JUMPDEST DUP2 SLOAD DUP2 DUP4 SSTORE DUP2 DUP2 GT ISZERO PUSH2 0x3F3B JUMPI PUSH1 0x3 MUL DUP2 PUSH1 0x3 MUL DUP4 PUSH1 0x0 MSTORE PUSH1 0x20 PUSH1 0x0 KECCAK256 SWAP2 DUP3 ADD SWAP2 ADD PUSH2 0x3F3A SWAP2 SWAP1 PUSH2 0x407E JUMP JUMPDEST JUMPDEST POP POP POP JUMP JUMPDEST DUP3 DUP1 SLOAD PUSH1 0x1 DUP2 PUSH1 0x1 AND ISZERO PUSH2 0x100 MUL SUB AND PUSH1 0x2 SWAP1 DIV SWAP1 PUSH1 0x0 MSTORE PUSH1 0x20 PUSH1 0x0 KECCAK256 SWAP1 PUSH1 0x1F ADD PUSH1 0x20 SWAP1 DIV DUP2 ADD SWAP3 DUP3 PUSH1 0x1F LT PUSH2 0x3F81 JUMPI DUP1 MLOAD PUSH1 0xFF NOT AND DUP4 DUP1 ADD OR DUP6 SSTORE PUSH2 0x3FAF JUMP JUMPDEST DUP3 DUP1 ADD PUSH1 0x1 ADD DUP6 SSTORE DUP3 ISZERO PUSH2 0x3FAF JUMPI SWAP2 DUP3 ADD JUMPDEST DUP3 DUP2 GT ISZERO PUSH2 0x3FAE JUMPI DUP3 MLOAD DUP3 SSTORE SWAP2 PUSH1 0x20 ADD SWAP2 SWAP1 PUSH1 0x1 ADD SWAP1 PUSH2 0x3F93 JUMP JUMPDEST JUMPDEST POP SWAP1 POP PUSH2 0x3FBC SWAP2 SWAP1 PUSH2 0x40DC JUMP JUMPDEST POP SWAP1 JUMP JUMPDEST DUP3 DUP1 SLOAD PUSH1 0x1 DUP2 PUSH1 0x1 AND ISZERO PUSH2 0x100 MUL SUB AND PUSH1 0x2 SWAP1 DIV SWAP1 PUSH1 0x0 MSTORE PUSH1 0x20 PUSH1 0x0 KECCAK256 SWAP1 PUSH1 0x1F ADD PUSH1 0x20 SWAP1 DIV DUP2 ADD SWAP3 DUP3 PUSH1 0x1F LT PUSH2 0x3FF9 JUMPI DUP1 SLOAD DUP6 SSTORE PUSH2 0x4036 JUMP JUMPDEST DUP3 DUP1 ADD PUSH1 0x1 ADD DUP6 SSTORE DUP3 ISZERO PUSH2 0x4036 JUMPI PUSH1 0x0 MSTORE PUSH1 0x20 PUSH1 0x0 KECCAK256 SWAP2 PUSH1 0x1F ADD PUSH1 0x20 SWAP1 DIV DUP3 ADD JUMPDEST DUP3 DUP2 GT ISZERO PUSH2 0x4035 JUMPI DUP3 SLOAD DUP3 SSTORE SWAP2 PUSH1 0x1 ADD SWAP2 SWAP1 PUSH1 0x1 ADD SWAP1 PUSH2 0x401A JUMP JUMPDEST JUMPDEST POP SWAP1 POP PUSH2 0x4043 SWAP2 SWAP1 PUSH2 0x40DC JUMP JUMPDEST POP SWAP1 JUMP JUMPDEST PUSH1 0x40 MLOAD DUP1 PUSH1 0x60 ADD PUSH1 0x40 MSTORE DUP1 PUSH1 0x0 PUSH20 0xFFFFFFFFFFFFFFFFFFFFFFFFFFFFFFFFFFFFFFFF AND DUP2 MSTORE PUSH1 0x20 ADD PUSH1 0x0 DUP2 MSTORE PUSH1 0x20 ADD PUSH1 0x60 DUP2 MSTORE POP SWAP1 JUMP JUMPDEST PUSH2 0x40D9 SWAP2 SWAP1 JUMPDEST DUP1 DUP3 GT ISZERO PUSH2 0x40D5 JUMPI PUSH1 0x0 DUP1 DUP3 ADD PUSH1 0x0 PUSH2 0x100 EXP DUP2 SLOAD SWAP1 PUSH20 0xFFFFFFFFFFFFFFFFFFFFFFFFFFFFFFFFFFFFFFFF MUL NOT AND SWAP1 SSTORE PUSH1 0x1 DUP3 ADD PUSH1 0x0 SWAP1 SSTORE PUSH1 0x2 DUP3 ADD PUSH1 0x0 PUSH2 0x40CC SWAP2 SWAP1 PUSH2 0x4101 JUMP JUMPDEST POP PUSH1 0x3 ADD PUSH2 0x4084 JUMP JUMPDEST POP SWAP1 JUMP JUMPDEST SWAP1 JUMP JUMPDEST PUSH2 0x40FE SWAP2 SWAP1 JUMPDEST DUP1 DUP3 GT ISZERO PUSH2 0x40FA JUMPI PUSH1 0x0 DUP2 PUSH1 0x0 SWAP1 SSTORE POP PUSH1 0x1 ADD PUSH2 0x40E2 JUMP JUMPDEST POP SWAP1 JUMP JUMPDEST SWAP1 JUMP JUMPDEST POP DUP1 SLOAD PUSH1 0x1 DUP2 PUSH1 0x1 AND ISZERO PUSH2 0x100 MUL SUB AND PUSH1 0x2 SWAP1 DIV PUSH1 0x0 DUP3 SSTORE DUP1 PUSH1 0x1F LT PUSH2 0x4127 JUMPI POP PUSH2 0x4146 JUMP JUMPDEST PUSH1 0x1F ADD PUSH1 0x20 SWAP1 DIV SWAP1 PUSH1 0x0 MSTORE PUSH1 0x20 PUSH1 0x0 KECCAK256 SWAP1 DUP2 ADD SWAP1 PUSH2 0x4145 SWAP2 SWAP1 PUSH2 0x40DC JUMP JUMPDEST JUMPDEST POP JUMP JUMPDEST PUSH1 0x0 DUP2 CALLDATALOAD SWAP1 POP PUSH2 0x4158 DUP2 PUSH2 0x5A95 JUMP JUMPDEST SWAP3 SWAP2 POP POP JUMP JUMPDEST PUSH1 0x0 DUP2 MLOAD SWAP1 POP PUSH2 0x416D DUP2 PUSH2 0x5A95 JUMP JUMPDEST SWAP3 SWAP2 POP POP JUMP JUMPDEST PUSH1 0x0 DUP3 PUSH1 0x1F DUP4 ADD SLT PUSH2 0x4184 JUMPI PUSH1 0x0 DUP1 REVERT JUMPDEST DUP2 CALLDATALOAD PUSH2 0x4197 PUSH2 0x4192 DUP3 PUSH2 0x57F0 JUMP JUMPDEST PUSH2 0x57C3 JUMP JUMPDEST SWAP2 POP DUP2 DUP2 DUP4 MSTORE PUSH1 0x20 DUP5 ADD SWAP4 POP PUSH1 0x20 DUP2 ADD SWAP1 POP DUP4 DUP6 PUSH1 0x20 DUP5 MUL DUP3 ADD GT ISZERO PUSH2 0x41BC JUMPI PUSH1 0x0 DUP1 REVERT JUMPDEST PUSH1 0x0 JUMPDEST DUP4 DUP2 LT ISZERO PUSH2 0x41EC JUMPI DUP2 PUSH2 0x41D2 DUP9 DUP3 PUSH2 0x4149 JUMP JUMPDEST DUP5 MSTORE PUSH1 0x20 DUP5 ADD SWAP4 POP PUSH1 0x20 DUP4 ADD SWAP3 POP POP PUSH1 0x1 DUP2 ADD SWAP1 POP PUSH2 0x41BF JUMP JUMPDEST POP POP POP POP SWAP3 SWAP2 POP POP JUMP JUMPDEST PUSH1 0x0 DUP3 PUSH1 0x1F DUP4 ADD SLT PUSH2 0x4207 JUMPI PUSH1 0x0 DUP1 REVERT JUMPDEST DUP2 CALLDATALOAD PUSH2 0x421A PUSH2 0x4215 DUP3 PUSH2 0x5818 JUMP JUMPDEST PUSH2 0x57C3 JUMP JUMPDEST SWAP2 POP DUP2 DUP2 DUP4 MSTORE PUSH1 0x20 DUP5 ADD SWAP4 POP PUSH1 0x20 DUP2 ADD SWAP1 POP DUP4 PUSH1 0x0 JUMPDEST DUP4 DUP2 LT ISZERO PUSH2 0x4260 JUMPI DUP2 CALLDATALOAD DUP7 ADD PUSH2 0x4246 DUP9 DUP3 PUSH2 0x4361 JUMP JUMPDEST DUP5 MSTORE PUSH1 0x20 DUP5 ADD SWAP4 POP PUSH1 0x20 DUP4 ADD SWAP3 POP POP PUSH1 0x1 DUP2 ADD SWAP1 POP PUSH2 0x4230 JUMP JUMPDEST POP POP POP POP SWAP3 SWAP2 POP POP JUMP JUMPDEST PUSH1 0x0 DUP3 PUSH1 0x1F DUP4 ADD SLT PUSH2 0x427B JUMPI PUSH1 0x0 DUP1 REVERT JUMPDEST DUP2 CALLDATALOAD PUSH2 0x428E PUSH2 0x4289 DUP3 PUSH2 0x5840 JUMP JUMPDEST PUSH2 0x57C3 JUMP JUMPDEST SWAP2 POP DUP2 DUP2 DUP4 MSTORE PUSH1 0x20 DUP5 ADD SWAP4 POP PUSH1 0x20 DUP2 ADD SWAP1 POP DUP4 DUP6 PUSH1 0x20 DUP5 MUL DUP3 ADD GT ISZERO PUSH2 0x42B3 JUMPI PUSH1 0x0 DUP1 REVERT JUMPDEST PUSH1 0x0 JUMPDEST DUP4 DUP2 LT ISZERO PUSH2 0x42E3 JUMPI DUP2 PUSH2 0x42C9 DUP9 DUP3 PUSH2 0x4409 JUMP JUMPDEST DUP5 MSTORE PUSH1 0x20 DUP5 ADD SWAP4 POP PUSH1 0x20 DUP4 ADD SWAP3 POP POP PUSH1 0x1 DUP2 ADD SWAP1 POP PUSH2 0x42B6 JUMP JUMPDEST POP POP POP POP SWAP3 SWAP2 POP POP JUMP JUMPDEST PUSH1 0x0 DUP2 CALLDATALOAD SWAP1 POP PUSH2 0x42FC DUP2 PUSH2 0x5AAC JUMP JUMPDEST SWAP3 SWAP2 POP POP JUMP JUMPDEST PUSH1 0x0 DUP2 MLOAD SWAP1 POP PUSH2 0x4311 DUP2 PUSH2 0x5AAC JUMP JUMPDEST SWAP3 SWAP2 POP POP JUMP JUMPDEST PUSH1 0x0 DUP1 DUP4 PUSH1 0x1F DUP5 ADD SLT PUSH2 0x4329 JUMPI PUSH1 0x0 DUP1 REVERT JUMPDEST DUP3 CALLDATALOAD SWAP1 POP PUSH8 0xFFFFFFFFFFFFFFFF DUP2 GT ISZERO PUSH2 0x4342 JUMPI PUSH1 0x0 DUP1 REVERT JUMPDEST PUSH1 0x20 DUP4 ADD SWAP2 POP DUP4 PUSH1 0x1 DUP3 MUL DUP4 ADD GT ISZERO PUSH2 0x435A JUMPI PUSH1 0x0 DUP1 REVERT JUMPDEST SWAP3 POP SWAP3 SWAP1 POP JUMP JUMPDEST PUSH1 0x0 DUP3 PUSH1 0x1F DUP4 ADD SLT PUSH2 0x4372 JUMPI PUSH1 0x0 DUP1 REVERT JUMPDEST DUP2 CALLDATALOAD PUSH2 0x4385 PUSH2 0x4380 DUP3 PUSH2 0x5868 JUMP JUMPDEST PUSH2 0x57C3 JUMP JUMPDEST SWAP2 POP DUP1 DUP3 MSTORE PUSH1 0x20 DUP4 ADD PUSH1 0x20 DUP4 ADD DUP6 DUP4 DUP4 ADD GT ISZERO PUSH2 0x43A1 JUMPI PUSH1 0x0 DUP1 REVERT JUMPDEST PUSH2 0x43AC DUP4 DUP3 DUP5 PUSH2 0x5A42 JUMP JUMPDEST POP POP POP SWAP3 SWAP2 POP POP JUMP JUMPDEST PUSH1 0x0 DUP3 PUSH1 0x1F DUP4 ADD SLT PUSH2 0x43C6 JUMPI PUSH1 0x0 DUP1 REVERT JUMPDEST DUP2 CALLDATALOAD PUSH2 0x43D9 PUSH2 0x43D4 DUP3 PUSH2 0x5894 JUMP JUMPDEST PUSH2 0x57C3 JUMP JUMPDEST SWAP2 POP DUP1 DUP3 MSTORE PUSH1 0x20 DUP4 ADD PUSH1 0x20 DUP4 ADD DUP6 DUP4 DUP4 ADD GT ISZERO PUSH2 0x43F5 JUMPI PUSH1 0x0 DUP1 REVERT JUMPDEST PUSH2 0x4400 DUP4 DUP3 DUP5 PUSH2 0x5A42 JUMP JUMPDEST POP POP POP SWAP3 SWAP2 POP POP JUMP JUMPDEST PUSH1 0x0 DUP2 CALLDATALOAD SWAP1 POP PUSH2 0x4418 DUP2 PUSH2 0x5AC3 JUMP JUMPDEST SWAP3 SWAP2 POP POP JUMP JUMPDEST PUSH1 0x0 DUP2 MLOAD SWAP1 POP PUSH2 0x442D DUP2 PUSH2 0x5AC3 JUMP JUMPDEST SWAP3 SWAP2 POP POP JUMP JUMPDEST PUSH1 0x0 PUSH1 0x20 DUP3 DUP5 SUB SLT ISZERO PUSH2 0x4445 JUMPI PUSH1 0x0 DUP1 REVERT JUMPDEST PUSH1 0x0 PUSH2 0x4453 DUP5 DUP3 DUP6 ADD PUSH2 0x4149 JUMP JUMPDEST SWAP2 POP POP SWAP3 SWAP2 POP POP JUMP JUMPDEST PUSH1 0x0 PUSH1 0x20 DUP3 DUP5 SUB SLT ISZERO PUSH2 0x446E JUMPI PUSH1 0x0 DUP1 REVERT JUMPDEST PUSH1 0x0 PUSH2 0x447C DUP5 DUP3 DUP6 ADD PUSH2 0x415E JUMP JUMPDEST SWAP2 POP POP SWAP3 SWAP2 POP POP JUMP JUMPDEST PUSH1 0x0 DUP1 PUSH1 0x40 DUP4 DUP6 SUB SLT ISZERO PUSH2 0x4498 JUMPI PUSH1 0x0 DUP1 REVERT JUMPDEST PUSH1 0x0 PUSH2 0x44A6 DUP6 DUP3 DUP7 ADD PUSH2 0x4149 JUMP JUMPDEST SWAP3 POP POP PUSH1 0x20 PUSH2 0x44B7 DUP6 DUP3 DUP7 ADD PUSH2 0x4149 JUMP JUMPDEST SWAP2 POP POP SWAP3 POP SWAP3 SWAP1 POP JUMP JUMPDEST PUSH1 0x0 DUP1 PUSH1 0x0 PUSH1 0x60 DUP5 DUP7 SUB SLT ISZERO PUSH2 0x44D6 JUMPI PUSH1 0x0 DUP1 REVERT JUMPDEST PUSH1 0x0 PUSH2 0x44E4 DUP7 DUP3 DUP8 ADD PUSH2 0x4149 JUMP JUMPDEST SWAP4 POP POP PUSH1 0x20 PUSH2 0x44F5 DUP7 DUP3 DUP8 ADD PUSH2 0x4149 JUMP JUMPDEST SWAP3 POP POP PUSH1 0x40 PUSH2 0x4506 DUP7 DUP3 DUP8 ADD PUSH2 0x4409 JUMP JUMPDEST SWAP2 POP POP SWAP3 POP SWAP3 POP SWAP3 JUMP JUMPDEST PUSH1 0x0 DUP1 PUSH1 0x0 DUP1 PUSH1 0x0 DUP1 PUSH1 0x0 PUSH1 0xA0 DUP9 DUP11 SUB SLT ISZERO PUSH2 0x452B JUMPI PUSH1 0x0 DUP1 REVERT JUMPDEST PUSH1 0x0 PUSH2 0x4539 DUP11 DUP3 DUP12 ADD PUSH2 0x4149 JUMP JUMPDEST SWAP8 POP POP PUSH1 0x20 PUSH2 0x454A DUP11 DUP3 DUP12 ADD PUSH2 0x4149 JUMP JUMPDEST SWAP7 POP POP PUSH1 0x40 PUSH2 0x455B DUP11 DUP3 DUP12 ADD PUSH2 0x4409 JUMP JUMPDEST SWAP6 POP POP PUSH1 0x60 DUP9 ADD CALLDATALOAD PUSH8 0xFFFFFFFFFFFFFFFF DUP2 GT ISZERO PUSH2 0x4578 JUMPI PUSH1 0x0 DUP1 REVERT JUMPDEST PUSH2 0x4584 DUP11 DUP3 DUP12 ADD PUSH2 0x4317 JUMP JUMPDEST SWAP5 POP SWAP5 POP POP PUSH1 0x80 DUP9 ADD CALLDATALOAD PUSH8 0xFFFFFFFFFFFFFFFF DUP2 GT ISZERO PUSH2 0x45A3 JUMPI PUSH1 0x0 DUP1 REVERT JUMPDEST PUSH2 0x45AF DUP11 DUP3 DUP12 ADD PUSH2 0x4317 JUMP JUMPDEST SWAP3 POP SWAP3 POP POP SWAP3 SWAP6 SWAP9 SWAP2 SWAP5 SWAP8 POP SWAP3 SWAP6 POP JUMP JUMPDEST PUSH1 0x0 DUP1 PUSH1 0x40 DUP4 DUP6 SUB SLT ISZERO PUSH2 0x45D3 JUMPI PUSH1 0x0 DUP1 REVERT JUMPDEST PUSH1 0x0 PUSH2 0x45E1 DUP6 DUP3 DUP7 ADD PUSH2 0x4149 JUMP JUMPDEST SWAP3 POP POP PUSH1 0x20 PUSH2 0x45F2 DUP6 DUP3 DUP7 ADD PUSH2 0x42ED JUMP JUMPDEST SWAP2 POP POP SWAP3 POP SWAP3 SWAP1 POP JUMP JUMPDEST PUSH1 0x0 DUP1 PUSH1 0x40 DUP4 DUP6 SUB SLT ISZERO PUSH2 0x460F JUMPI PUSH1 0x0 DUP1 REVERT JUMPDEST PUSH1 0x0 PUSH2 0x461D DUP6 DUP3 DUP7 ADD PUSH2 0x4149 JUMP JUMPDEST SWAP3 POP POP PUSH1 0x20 PUSH2 0x462E DUP6 DUP3 DUP7 ADD PUSH2 0x4409 JUMP JUMPDEST SWAP2 POP POP SWAP3 POP SWAP3 SWAP1 POP JUMP JUMPDEST PUSH1 0x0 DUP1 PUSH1 0x0 DUP1 PUSH1 0x60 DUP6 DUP8 SUB SLT ISZERO PUSH2 0x464E JUMPI PUSH1 0x0 DUP1 REVERT JUMPDEST PUSH1 0x0 PUSH2 0x465C DUP8 DUP3 DUP9 ADD PUSH2 0x4149 JUMP JUMPDEST SWAP5 POP POP PUSH1 0x20 PUSH2 0x466D DUP8 DUP3 DUP9 ADD PUSH2 0x4409 JUMP JUMPDEST SWAP4 POP POP PUSH1 0x40 DUP6 ADD CALLDATALOAD PUSH8 0xFFFFFFFFFFFFFFFF DUP2 GT ISZERO PUSH2 0x468A JUMPI PUSH1 0x0 DUP1 REVERT JUMPDEST PUSH2 0x4696 DUP8 DUP3 DUP9 ADD PUSH2 0x4317 JUMP JUMPDEST SWAP3 POP SWAP3 POP POP SWAP3 SWAP6 SWAP2 SWAP5 POP SWAP3 POP JUMP JUMPDEST PUSH1 0x0 DUP1 PUSH1 0x0 DUP1 PUSH1 0x0 DUP1 PUSH1 0x80 DUP8 DUP10 SUB SLT ISZERO PUSH2 0x46BD JUMPI PUSH1 0x0 DUP1 REVERT JUMPDEST PUSH1 0x0 PUSH2 0x46CB DUP10 DUP3 DUP11 ADD PUSH2 0x4149 JUMP JUMPDEST SWAP7 POP POP PUSH1 0x20 PUSH2 0x46DC DUP10 DUP3 DUP11 ADD PUSH2 0x4409 JUMP JUMPDEST SWAP6 POP POP PUSH1 0x40 DUP8 ADD CALLDATALOAD PUSH8 0xFFFFFFFFFFFFFFFF DUP2 GT ISZERO PUSH2 0x46F9 JUMPI PUSH1 0x0 DUP1 REVERT JUMPDEST PUSH2 0x4705 DUP10 DUP3 DUP11 ADD PUSH2 0x4317 JUMP JUMPDEST SWAP5 POP SWAP5 POP POP PUSH1 0x60 DUP8 ADD CALLDATALOAD PUSH8 0xFFFFFFFFFFFFFFFF DUP2 GT ISZERO PUSH2 0x4724 JUMPI PUSH1 0x0 DUP1 REVERT JUMPDEST PUSH2 0x4730 DUP10 DUP3 DUP11 ADD PUSH2 0x4317 JUMP JUMPDEST SWAP3 POP SWAP3 POP POP SWAP3 SWAP6 POP SWAP3 SWAP6 POP SWAP3 SWAP6 JUMP JUMPDEST PUSH1 0x0 DUP1 PUSH1 0x0 PUSH1 0x60 DUP5 DUP7 SUB SLT ISZERO PUSH2 0x4754 JUMPI PUSH1 0x0 DUP1 REVERT JUMPDEST PUSH1 0x0 PUSH2 0x4762 DUP7 DUP3 DUP8 ADD PUSH2 0x4149 JUMP JUMPDEST SWAP4 POP POP PUSH1 0x20 PUSH2 0x4773 DUP7 DUP3 DUP8 ADD PUSH2 0x4409 JUMP JUMPDEST SWAP3 POP POP PUSH1 0x40 DUP5 ADD CALLDATALOAD PUSH8 0xFFFFFFFFFFFFFFFF DUP2 GT ISZERO PUSH2 0x4790 JUMPI PUSH1 0x0 DUP1 REVERT JUMPDEST PUSH2 0x479C DUP7 DUP3 DUP8 ADD PUSH2 0x43B5 JUMP JUMPDEST SWAP2 POP POP SWAP3 POP SWAP3 POP SWAP3 JUMP JUMPDEST PUSH1 0x0 DUP1 PUSH1 0x0 PUSH1 0x60 DUP5 DUP7 SUB SLT ISZERO PUSH2 0x47BB JUMPI PUSH1 0x0 DUP1 REVERT JUMPDEST PUSH1 0x0 DUP5 ADD CALLDATALOAD PUSH8 0xFFFFFFFFFFFFFFFF DUP2 GT ISZERO PUSH2 0x47D5 JUMPI PUSH1 0x0 DUP1 REVERT JUMPDEST PUSH2 0x47E1 DUP7 DUP3 DUP8 ADD PUSH2 0x4173 JUMP JUMPDEST SWAP4 POP POP PUSH1 0x20 DUP5 ADD CALLDATALOAD PUSH8 0xFFFFFFFFFFFFFFFF DUP2 GT ISZERO PUSH2 0x47FE JUMPI PUSH1 0x0 DUP1 REVERT JUMPDEST PUSH2 0x480A DUP7 DUP3 DUP8 ADD PUSH2 0x426A JUMP JUMPDEST SWAP3 POP POP PUSH1 0x40 DUP5 ADD CALLDATALOAD PUSH8 0xFFFFFFFFFFFFFFFF DUP2 GT ISZERO PUSH2 0x4827 JUMPI PUSH1 0x0 DUP1 REVERT JUMPDEST PUSH2 0x4833 DUP7 DUP3 DUP8 ADD PUSH2 0x41F6 JUMP JUMPDEST SWAP2 POP POP SWAP3 POP SWAP3 POP SWAP3 JUMP JUMPDEST PUSH1 0x0 PUSH1 0x20 DUP3 DUP5 SUB SLT ISZERO PUSH2 0x484F JUMPI PUSH1 0x0 DUP1 REVERT JUMPDEST PUSH1 0x0 PUSH2 0x485D DUP5 DUP3 DUP6 ADD PUSH2 0x42ED JUMP JUMPDEST SWAP2 POP POP SWAP3 SWAP2 POP POP JUMP JUMPDEST PUSH1 0x0 PUSH1 0x20 DUP3 DUP5 SUB SLT ISZERO PUSH2 0x4878 JUMPI PUSH1 0x0 DUP1 REVERT JUMPDEST PUSH1 0x0 PUSH2 0x4886 DUP5 DUP3 DUP6 ADD PUSH2 0x4302 JUMP JUMPDEST SWAP2 POP POP SWAP3 SWAP2 POP POP JUMP JUMPDEST PUSH1 0x0 PUSH1 0x20 DUP3 DUP5 SUB SLT ISZERO PUSH2 0x48A1 JUMPI PUSH1 0x0 DUP1 REVERT JUMPDEST PUSH1 0x0 PUSH2 0x48AF DUP5 DUP3 DUP6 ADD PUSH2 0x4409 JUMP JUMPDEST SWAP2 POP POP SWAP3 SWAP2 POP POP JUMP JUMPDEST PUSH1 0x0 PUSH1 0x20 DUP3 DUP5 SUB SLT ISZERO PUSH2 0x48CA JUMPI PUSH1 0x0 DUP1 REVERT JUMPDEST PUSH1 0x0 PUSH2 0x48D8 DUP5 DUP3 DUP6 ADD PUSH2 0x441E JUMP JUMPDEST SWAP2 POP POP SWAP3 SWAP2 POP POP JUMP JUMPDEST PUSH1 0x0 DUP1 PUSH1 0x0 DUP1 PUSH1 0x80 DUP6 DUP8 SUB SLT ISZERO PUSH2 0x48F7 JUMPI PUSH1 0x0 DUP1 REVERT JUMPDEST PUSH1 0x0 PUSH2 0x4905 DUP8 DUP3 DUP9 ADD PUSH2 0x4409 JUMP JUMPDEST SWAP5 POP POP PUSH1 0x20 DUP6 ADD CALLDATALOAD PUSH8 0xFFFFFFFFFFFFFFFF DUP2 GT ISZERO PUSH2 0x4922 JUMPI PUSH1 0x0 DUP1 REVERT JUMPDEST PUSH2 0x492E DUP8 DUP3 DUP9 ADD PUSH2 0x4173 JUMP JUMPDEST SWAP4 POP POP PUSH1 0x40 DUP6 ADD CALLDATALOAD PUSH8 0xFFFFFFFFFFFFFFFF DUP2 GT ISZERO PUSH2 0x494B JUMPI PUSH1 0x0 DUP1 REVERT JUMPDEST PUSH2 0x4957 DUP8 DUP3 DUP9 ADD PUSH2 0x426A JUMP JUMPDEST SWAP3 POP POP PUSH1 0x60 DUP6 ADD CALLDATALOAD PUSH8 0xFFFFFFFFFFFFFFFF DUP2 GT ISZERO PUSH2 0x4974 JUMPI PUSH1 0x0 DUP1 REVERT JUMPDEST PUSH2 0x4980 DUP8 DUP3 DUP9 ADD PUSH2 0x41F6 JUMP JUMPDEST SWAP2 POP POP SWAP3 SWAP6 SWAP2 SWAP5 POP SWAP3 POP JUMP JUMPDEST PUSH1 0x0 DUP1 PUSH1 0x0 PUSH1 0x40 DUP5 DUP7 SUB SLT ISZERO PUSH2 0x49A1 JUMPI PUSH1 0x0 DUP1 REVERT JUMPDEST PUSH1 0x0 PUSH2 0x49AF DUP7 DUP3 DUP8 ADD PUSH2 0x4409 JUMP JUMPDEST SWAP4 POP POP PUSH1 0x20 DUP5 ADD CALLDATALOAD PUSH8 0xFFFFFFFFFFFFFFFF DUP2 GT ISZERO PUSH2 0x49CC JUMPI PUSH1 0x0 DUP1 REVERT JUMPDEST PUSH2 0x49D8 DUP7 DUP3 DUP8 ADD PUSH2 0x4317 JUMP JUMPDEST SWAP3 POP SWAP3 POP POP SWAP3 POP SWAP3 POP SWAP3 JUMP JUMPDEST PUSH1 0x0 PUSH2 0x49F0 DUP4 DUP4 PUSH2 0x4A10 JUMP JUMPDEST PUSH1 0x20 DUP4 ADD SWAP1 POP SWAP3 SWAP2 POP POP JUMP JUMPDEST PUSH1 0x0 PUSH2 0x4A08 DUP4 DUP4 PUSH2 0x523F JUMP JUMPDEST SWAP1 POP SWAP3 SWAP2 POP POP JUMP JUMPDEST PUSH2 0x4A19 DUP2 PUSH2 0x599B JUMP JUMPDEST DUP3 MSTORE POP POP JUMP JUMPDEST PUSH2 0x4A28 DUP2 PUSH2 0x599B JUMP JUMPDEST DUP3 MSTORE POP POP JUMP JUMPDEST PUSH1 0x0 PUSH2 0x4A39 DUP3 PUSH2 0x58F5 JUMP JUMPDEST PUSH2 0x4A43 DUP2 DUP6 PUSH2 0x5946 JUMP JUMPDEST SWAP4 POP PUSH2 0x4A4E DUP4 PUSH2 0x58C0 JUMP JUMPDEST DUP1 PUSH1 0x0 JUMPDEST DUP4 DUP2 LT ISZERO PUSH2 0x4A7F JUMPI DUP2 MLOAD PUSH2 0x4A66 DUP9 DUP3 PUSH2 0x49E4 JUMP JUMPDEST SWAP8 POP PUSH2 0x4A71 DUP4 PUSH2 0x592C JUMP JUMPDEST SWAP3 POP POP PUSH1 0x1 DUP2 ADD SWAP1 POP PUSH2 0x4A52 JUMP JUMPDEST POP DUP6 SWAP4 POP POP POP POP SWAP3 SWAP2 POP POP JUMP JUMPDEST PUSH1 0x0 PUSH2 0x4A97 DUP3 PUSH2 0x5900 JUMP JUMPDEST PUSH2 0x4AA1 DUP2 DUP6 PUSH2 0x5957 JUMP JUMPDEST SWAP4 POP DUP4 PUSH1 0x20 DUP3 MUL DUP6 ADD PUSH2 0x4AB3 DUP6 PUSH2 0x58D0 JUMP JUMPDEST DUP1 PUSH1 0x0 JUMPDEST DUP6 DUP2 LT ISZERO PUSH2 0x4AEF JUMPI DUP5 DUP5 SUB DUP10 MSTORE DUP2 MLOAD PUSH2 0x4AD0 DUP6 DUP3 PUSH2 0x49FC JUMP JUMPDEST SWAP5 POP PUSH2 0x4ADB DUP4 PUSH2 0x5939 JUMP JUMPDEST SWAP3 POP PUSH1 0x20 DUP11 ADD SWAP10 POP POP PUSH1 0x1 DUP2 ADD SWAP1 POP PUSH2 0x4AB7 JUMP JUMPDEST POP DUP3 SWAP8 POP DUP8 SWAP6 POP POP POP POP POP POP SWAP3 SWAP2 POP POP JUMP JUMPDEST PUSH2 0x4B0A DUP2 PUSH2 0x59AD JUMP JUMPDEST DUP3 MSTORE POP POP JUMP JUMPDEST PUSH2 0x4B19 DUP2 PUSH2 0x59B9 JUMP JUMPDEST DUP3 MSTORE POP POP JUMP JUMPDEST PUSH1 0x0 PUSH2 0x4B2A DUP3 PUSH2 0x5916 JUMP JUMPDEST PUSH2 0x4B34 DUP2 DUP6 PUSH2 0x5979 JUMP JUMPDEST SWAP4 POP PUSH2 0x4B44 DUP2 DUP6 PUSH1 0x20 DUP7 ADD PUSH2 0x5A51 JUMP JUMPDEST PUSH2 0x4B4D DUP2 PUSH2 0x5A84 JUMP JUMPDEST DUP5 ADD SWAP2 POP POP SWAP3 SWAP2 POP POP JUMP JUMPDEST PUSH1 0x0 PUSH2 0x4B63 DUP3 PUSH2 0x590B JUMP JUMPDEST PUSH2 0x4B6D DUP2 DUP6 PUSH2 0x5968 JUMP JUMPDEST SWAP4 POP PUSH2 0x4B7D DUP2 DUP6 PUSH1 0x20 DUP7 ADD PUSH2 0x5A51 JUMP JUMPDEST PUSH2 0x4B86 DUP2 PUSH2 0x5A84 JUMP JUMPDEST DUP5 ADD SWAP2 POP POP SWAP3 SWAP2 POP POP JUMP JUMPDEST PUSH1 0x0 DUP2 SLOAD PUSH1 0x1 DUP2 AND PUSH1 0x0 DUP2 EQ PUSH2 0x4BAE JUMPI PUSH1 0x1 DUP2 EQ PUSH2 0x4BD4 JUMPI PUSH2 0x4C18 JUMP JUMPDEST PUSH1 0x7F PUSH1 0x2 DUP4 DIV AND PUSH2 0x4BBF DUP2 DUP8 PUSH2 0x5979 JUMP JUMPDEST SWAP6 POP PUSH1 0xFF NOT DUP4 AND DUP7 MSTORE PUSH1 0x20 DUP7 ADD SWAP4 POP POP PUSH2 0x4C18 JUMP JUMPDEST PUSH1 0x2 DUP3 DIV PUSH2 0x4BE2 DUP2 DUP8 PUSH2 0x5979 JUMP JUMPDEST SWAP6 POP PUSH2 0x4BED DUP6 PUSH2 0x58E0 JUMP JUMPDEST PUSH1 0x0 JUMPDEST DUP3 DUP2 LT ISZERO PUSH2 0x4C0F JUMPI DUP2 SLOAD DUP2 DUP10 ADD MSTORE PUSH1 0x1 DUP3 ADD SWAP2 POP PUSH1 0x20 DUP2 ADD SWAP1 POP PUSH2 0x4BF0 JUMP JUMPDEST DUP1 DUP9 ADD SWAP6 POP POP POP POP JUMPDEST POP POP SWAP3 SWAP2 POP POP JUMP JUMPDEST PUSH2 0x4C29 DUP2 PUSH2 0x59FA JUMP JUMPDEST DUP3 MSTORE POP POP JUMP JUMPDEST PUSH2 0x4C38 DUP2 PUSH2 0x5A1E JUMP JUMPDEST DUP3 MSTORE POP POP JUMP JUMPDEST PUSH1 0x0 PUSH2 0x4C49 DUP3 PUSH2 0x5921 JUMP JUMPDEST PUSH2 0x4C53 DUP2 DUP6 PUSH2 0x598A JUMP JUMPDEST SWAP4 POP PUSH2 0x4C63 DUP2 DUP6 PUSH1 0x20 DUP7 ADD PUSH2 0x5A51 JUMP JUMPDEST PUSH2 0x4C6C DUP2 PUSH2 0x5A84 JUMP JUMPDEST DUP5 ADD SWAP2 POP POP SWAP3 SWAP2 POP POP JUMP JUMPDEST PUSH1 0x0 PUSH2 0x4C84 PUSH1 0x22 DUP4 PUSH2 0x598A JUMP JUMPDEST SWAP2 POP PUSH32 0x4552433737373A2073656E642066726F6D20746865207A65726F206164647265 PUSH1 0x0 DUP4 ADD MSTORE PUSH32 0x7373000000000000000000000000000000000000000000000000000000000000 PUSH1 0x20 DUP4 ADD MSTORE PUSH1 0x40 DUP3 ADD SWAP1 POP SWAP2 SWAP1 POP JUMP JUMPDEST PUSH1 0x0 PUSH2 0x4CEA PUSH1 0x1A DUP4 PUSH2 0x598A JUMP JUMPDEST SWAP2 POP PUSH32 0x444441492E6D696E743A205452414E534645525F4641494C4544000000000000 PUSH1 0x0 DUP4 ADD MSTORE PUSH1 0x20 DUP3 ADD SWAP1 POP SWAP2 SWAP1 POP JUMP JUMPDEST PUSH1 0x0 PUSH2 0x4D2A PUSH1 0x1B DUP4 PUSH2 0x598A JUMP JUMPDEST SWAP2 POP PUSH32 0x536166654D6174683A206164646974696F6E206F766572666C6F770000000000 PUSH1 0x0 DUP4 ADD MSTORE PUSH1 0x20 DUP3 ADD SWAP1 POP SWAP2 SWAP1 POP JUMP JUMPDEST PUSH1 0x0 PUSH2 0x4D6A PUSH1 0x22 DUP4 PUSH2 0x598A JUMP JUMPDEST SWAP2 POP PUSH32 0x4552433737373A206275726E2066726F6D20746865207A65726F206164647265 PUSH1 0x0 DUP4 ADD MSTORE PUSH32 0x7373000000000000000000000000000000000000000000000000000000000000 PUSH1 0x20 DUP4 ADD MSTORE PUSH1 0x40 DUP3 ADD SWAP1 POP SWAP2 SWAP1 POP JUMP JUMPDEST PUSH1 0x0 PUSH2 0x4DD0 PUSH1 0x1D DUP4 PUSH2 0x598A JUMP JUMPDEST SWAP2 POP PUSH32 0x444441492E70757368546F537461636B3A204E4F545F414C4C4F574544000000 PUSH1 0x0 DUP4 ADD MSTORE PUSH1 0x20 DUP3 ADD SWAP1 POP SWAP2 SWAP1 POP JUMP JUMPDEST PUSH1 0x0 PUSH2 0x4E10 PUSH1 0x24 DUP4 PUSH2 0x598A JUMP JUMPDEST SWAP2 POP PUSH32 0x4552433737373A20617574686F72697A696E672073656C66206173206F706572 PUSH1 0x0 DUP4 ADD MSTORE PUSH32 0x61746F7200000000000000000000000000000000000000000000000000000000 PUSH1 0x20 DUP4 ADD MSTORE PUSH1 0x40 DUP3 ADD SWAP1 POP SWAP2 SWAP1 POP JUMP JUMPDEST PUSH1 0x0 PUSH2 0x4E76 PUSH1 0x21 DUP4 PUSH2 0x598A JUMP JUMPDEST SWAP2 POP PUSH32 0x4552433737373A207265766F6B696E672073656C66206173206F70657261746F PUSH1 0x0 DUP4 ADD MSTORE PUSH32 0x7200000000000000000000000000000000000000000000000000000000000000 PUSH1 0x20 DUP4 ADD MSTORE PUSH1 0x40 DUP3 ADD SWAP1 POP SWAP2 SWAP1 POP JUMP JUMPDEST PUSH1 0x0 PUSH2 0x4EDC PUSH1 0x20 DUP4 PUSH2 0x598A JUMP JUMPDEST SWAP2 POP PUSH32 0x4552433737373A206D696E7420746F20746865207A65726F2061646472657373 PUSH1 0x0 DUP4 ADD MSTORE PUSH1 0x20 DUP3 ADD SWAP1 POP SWAP2 SWAP1 POP JUMP JUMPDEST PUSH1 0x0 PUSH2 0x4F1C PUSH1 0x21 DUP4 PUSH2 0x598A JUMP JUMPDEST SWAP2 POP PUSH32 0x536166654D6174683A206D756C7469706C69636174696F6E206F766572666C6F PUSH1 0x0 DUP4 ADD MSTORE PUSH32 0x7700000000000000000000000000000000000000000000000000000000000000 PUSH1 0x20 DUP4 ADD MSTORE PUSH1 0x40 DUP3 ADD SWAP1 POP SWAP2 SWAP1 POP JUMP JUMPDEST PUSH1 0x0 PUSH2 0x4F82 PUSH1 0x4D DUP4 PUSH2 0x598A JUMP JUMPDEST SWAP2 POP PUSH32 0x4552433737373A20746F6B656E20726563697069656E7420636F6E7472616374 PUSH1 0x0 DUP4 ADD MSTORE PUSH32 0x20686173206E6F20696D706C656D656E74657220666F7220455243373737546F PUSH1 0x20 DUP4 ADD MSTORE PUSH32 0x6B656E73526563697069656E7400000000000000000000000000000000000000 PUSH1 0x40 DUP4 ADD MSTORE PUSH1 0x60 DUP3 ADD SWAP1 POP SWAP2 SWAP1 POP JUMP JUMPDEST PUSH1 0x0 PUSH2 0x500E PUSH1 0x24 DUP4 PUSH2 0x598A JUMP JUMPDEST SWAP2 POP PUSH32 0x4552433737373A207472616E7366657220746F20746865207A65726F20616464 PUSH1 0x0 DUP4 ADD MSTORE PUSH32 0x7265737300000000000000000000000000000000000000000000000000000000 PUSH1 0x20 DUP4 ADD MSTORE PUSH1 0x40 DUP3 ADD SWAP1 POP SWAP2 SWAP1 POP JUMP JUMPDEST PUSH1 0x0 PUSH2 0x5074 PUSH1 0x24 DUP4 PUSH2 0x598A JUMP JUMPDEST SWAP2 POP PUSH32 0x444441492E72656465656D3A204D4F4E45595F4D41524B45545F4E4F545F4C49 PUSH1 0x0 DUP4 ADD MSTORE PUSH32 0x5155494400000000000000000000000000000000000000000000000000000000 PUSH1 0x20 DUP4 ADD MSTORE PUSH1 0x40 DUP3 ADD SWAP1 POP SWAP2 SWAP1 POP JUMP JUMPDEST PUSH1 0x0 PUSH2 0x50DA PUSH1 0x2C DUP4 PUSH2 0x598A JUMP JUMPDEST SWAP2 POP PUSH32 0x4552433737373A2063616C6C6572206973206E6F7420616E206F70657261746F PUSH1 0x0 DUP4 ADD MSTORE PUSH32 0x7220666F7220686F6C6465720000000000000000000000000000000000000000 PUSH1 0x20 DUP4 ADD MSTORE PUSH1 0x40 DUP3 ADD SWAP1 POP SWAP2 SWAP1 POP JUMP JUMPDEST PUSH1 0x0 PUSH2 0x5140 PUSH1 0x26 DUP4 PUSH2 0x598A JUMP JUMPDEST SWAP2 POP PUSH32 0x4552433737373A207472616E736665722066726F6D20746865207A65726F2061 PUSH1 0x0 DUP4 ADD MSTORE PUSH32 0x6464726573730000000000000000000000000000000000000000000000000000 PUSH1 0x20 DUP4 ADD MSTORE PUSH1 0x40 DUP3 ADD SWAP1 POP SWAP2 SWAP1 POP JUMP JUMPDEST PUSH1 0x0 PUSH2 0x51A6 PUSH1 0x20 DUP4 PUSH2 0x598A JUMP JUMPDEST SWAP2 POP PUSH32 0x4552433737373A2073656E6420746F20746865207A65726F2061646472657373 PUSH1 0x0 DUP4 ADD MSTORE PUSH1 0x20 DUP3 ADD SWAP1 POP SWAP2 SWAP1 POP JUMP JUMPDEST PUSH1 0x0 PUSH2 0x51E6 PUSH1 0x23 DUP4 PUSH2 0x598A JUMP JUMPDEST SWAP2 POP PUSH32 0x4552433737373A20617070726F766520746F20746865207A65726F2061646472 PUSH1 0x0 DUP4 ADD MSTORE PUSH32 0x6573730000000000000000000000000000000000000000000000000000000000 PUSH1 0x20 DUP4 ADD MSTORE PUSH1 0x40 DUP3 ADD SWAP1 POP SWAP2 SWAP1 POP JUMP JUMPDEST PUSH1 0x0 PUSH1 0x60 DUP4 ADD PUSH1 0x0 DUP4 ADD MLOAD PUSH2 0x5257 PUSH1 0x0 DUP7 ADD DUP3 PUSH2 0x4A10 JUMP JUMPDEST POP PUSH1 0x20 DUP4 ADD MLOAD PUSH2 0x526A PUSH1 0x20 DUP7 ADD DUP3 PUSH2 0x528F JUMP JUMPDEST POP PUSH1 0x40 DUP4 ADD MLOAD DUP5 DUP3 SUB PUSH1 0x40 DUP7 ADD MSTORE PUSH2 0x5282 DUP3 DUP3 PUSH2 0x4B58 JUMP JUMPDEST SWAP2 POP POP DUP1 SWAP2 POP POP SWAP3 SWAP2 POP POP JUMP JUMPDEST PUSH2 0x5298 DUP2 PUSH2 0x59E3 JUMP JUMPDEST DUP3 MSTORE POP POP JUMP JUMPDEST PUSH2 0x52A7 DUP2 PUSH2 0x59E3 JUMP JUMPDEST DUP3 MSTORE POP POP JUMP JUMPDEST PUSH2 0x52B6 DUP2 PUSH2 0x59ED JUMP JUMPDEST DUP3 MSTORE POP POP JUMP JUMPDEST PUSH1 0x0 PUSH1 0xC0 DUP3 ADD SWAP1 POP PUSH2 0x52D1 PUSH1 0x0 DUP4 ADD DUP10 PUSH2 0x4A1F JUMP JUMPDEST PUSH2 0x52DE PUSH1 0x20 DUP4 ADD DUP9 PUSH2 0x4A1F JUMP JUMPDEST PUSH2 0x52EB PUSH1 0x40 DUP4 ADD DUP8 PUSH2 0x4A1F JUMP JUMPDEST PUSH2 0x52F8 PUSH1 0x60 DUP4 ADD DUP7 PUSH2 0x529E JUMP JUMPDEST DUP2 DUP2 SUB PUSH1 0x80 DUP4 ADD MSTORE PUSH2 0x530A DUP2 DUP6 PUSH2 0x4B1F JUMP JUMPDEST SWAP1 POP DUP2 DUP2 SUB PUSH1 0xA0 DUP4 ADD MSTORE PUSH2 0x531E DUP2 DUP5 PUSH2 0x4B1F JUMP JUMPDEST SWAP1 POP SWAP8 SWAP7 POP POP POP POP POP POP POP JUMP JUMPDEST PUSH1 0x0 PUSH1 0x60 DUP3 ADD SWAP1 POP PUSH2 0x5340 PUSH1 0x0 DUP4 ADD DUP7 PUSH2 0x4A1F JUMP JUMPDEST PUSH2 0x534D PUSH1 0x20 DUP4 ADD DUP6 PUSH2 0x4A1F JUMP JUMPDEST PUSH2 0x535A PUSH1 0x40 DUP4 ADD DUP5 PUSH2 0x529E JUMP JUMPDEST SWAP5 SWAP4 POP POP POP POP JUMP JUMPDEST PUSH1 0x0 PUSH1 0x40 DUP3 ADD SWAP1 POP PUSH2 0x5377 PUSH1 0x0 DUP4 ADD DUP6 PUSH2 0x4A1F JUMP JUMPDEST PUSH2 0x5384 PUSH1 0x20 DUP4 ADD DUP5 PUSH2 0x4B10 JUMP JUMPDEST SWAP4 SWAP3 POP POP POP JUMP JUMPDEST PUSH1 0x0 PUSH1 0x40 DUP3 ADD SWAP1 POP PUSH2 0x53A0 PUSH1 0x0 DUP4 ADD DUP6 PUSH2 0x4A1F JUMP JUMPDEST PUSH2 0x53AD PUSH1 0x20 DUP4 ADD DUP5 PUSH2 0x529E JUMP JUMPDEST SWAP4 SWAP3 POP POP POP JUMP JUMPDEST PUSH1 0x0 PUSH1 0x20 DUP3 ADD SWAP1 POP DUP2 DUP2 SUB PUSH1 0x0 DUP4 ADD MSTORE PUSH2 0x53CE DUP2 DUP5 PUSH2 0x4A2E JUMP JUMPDEST SWAP1 POP SWAP3 SWAP2 POP POP JUMP JUMPDEST PUSH1 0x0 PUSH1 0x40 DUP3 ADD SWAP1 POP DUP2 DUP2 SUB PUSH1 0x0 DUP4 ADD MSTORE PUSH2 0x53F0 DUP2 DUP6 PUSH2 0x4A8C JUMP JUMPDEST SWAP1 POP PUSH2 0x53FF PUSH1 0x20 DUP4 ADD DUP5 PUSH2 0x529E JUMP JUMPDEST SWAP4 SWAP3 POP POP POP JUMP JUMPDEST PUSH1 0x0 PUSH1 0x20 DUP3 ADD SWAP1 POP PUSH2 0x541B PUSH1 0x0 DUP4 ADD DUP5 PUSH2 0x4B01 JUMP JUMPDEST SWAP3 SWAP2 POP POP JUMP JUMPDEST PUSH1 0x0 PUSH1 0x20 DUP3 ADD SWAP1 POP PUSH2 0x5436 PUSH1 0x0 DUP4 ADD DUP5 PUSH2 0x4C20 JUMP JUMPDEST SWAP3 SWAP2 POP POP JUMP JUMPDEST PUSH1 0x0 PUSH1 0x20 DUP3 ADD SWAP1 POP PUSH2 0x5451 PUSH1 0x0 DUP4 ADD DUP5 PUSH2 0x4C2F JUMP JUMPDEST SWAP3 SWAP2 POP POP JUMP JUMPDEST PUSH1 0x0 PUSH1 0x20 DUP3 ADD SWAP1 POP DUP2 DUP2 SUB PUSH1 0x0 DUP4 ADD MSTORE PUSH2 0x5471 DUP2 DUP5 PUSH2 0x4C3E JUMP JUMPDEST SWAP1 POP SWAP3 SWAP2 POP POP JUMP JUMPDEST PUSH1 0x0 PUSH1 0x20 DUP3 ADD SWAP1 POP DUP2 DUP2 SUB PUSH1 0x0 DUP4 ADD MSTORE PUSH2 0x5492 DUP2 PUSH2 0x4C77 JUMP JUMPDEST SWAP1 POP SWAP2 SWAP1 POP JUMP JUMPDEST PUSH1 0x0 PUSH1 0x20 DUP3 ADD SWAP1 POP DUP2 DUP2 SUB PUSH1 0x0 DUP4 ADD MSTORE PUSH2 0x54B2 DUP2 PUSH2 0x4CDD JUMP JUMPDEST SWAP1 POP SWAP2 SWAP1 POP JUMP JUMPDEST PUSH1 0x0 PUSH1 0x20 DUP3 ADD SWAP1 POP DUP2 DUP2 SUB PUSH1 0x0 DUP4 ADD MSTORE PUSH2 0x54D2 DUP2 PUSH2 0x4D1D JUMP JUMPDEST SWAP1 POP SWAP2 SWAP1 POP JUMP JUMPDEST PUSH1 0x0 PUSH1 0x20 DUP3 ADD SWAP1 POP DUP2 DUP2 SUB PUSH1 0x0 DUP4 ADD MSTORE PUSH2 0x54F2 DUP2 PUSH2 0x4D5D JUMP JUMPDEST SWAP1 POP SWAP2 SWAP1 POP JUMP JUMPDEST PUSH1 0x0 PUSH1 0x20 DUP3 ADD SWAP1 POP DUP2 DUP2 SUB PUSH1 0x0 DUP4 ADD MSTORE PUSH2 0x5512 DUP2 PUSH2 0x4DC3 JUMP JUMPDEST SWAP1 POP SWAP2 SWAP1 POP JUMP JUMPDEST PUSH1 0x0 PUSH1 0x20 DUP3 ADD SWAP1 POP DUP2 DUP2 SUB PUSH1 0x0 DUP4 ADD MSTORE PUSH2 0x5532 DUP2 PUSH2 0x4E03 JUMP JUMPDEST SWAP1 POP SWAP2 SWAP1 POP JUMP JUMPDEST PUSH1 0x0 PUSH1 0x20 DUP3 ADD SWAP1 POP DUP2 DUP2 SUB PUSH1 0x0 DUP4 ADD MSTORE PUSH2 0x5552 DUP2 PUSH2 0x4E69 JUMP JUMPDEST SWAP1 POP SWAP2 SWAP1 POP JUMP JUMPDEST PUSH1 0x0 PUSH1 0x20 DUP3 ADD SWAP1 POP DUP2 DUP2 SUB PUSH1 0x0 DUP4 ADD MSTORE PUSH2 0x5572 DUP2 PUSH2 0x4ECF JUMP JUMPDEST SWAP1 POP SWAP2 SWAP1 POP JUMP JUMPDEST PUSH1 0x0 PUSH1 0x20 DUP3 ADD SWAP1 POP DUP2 DUP2 SUB PUSH1 0x0 DUP4 ADD MSTORE PUSH2 0x5592 DUP2 PUSH2 0x4F0F JUMP JUMPDEST SWAP1 POP SWAP2 SWAP1 POP JUMP JUMPDEST PUSH1 0x0 PUSH1 0x20 DUP3 ADD SWAP1 POP DUP2 DUP2 SUB PUSH1 0x0 DUP4 ADD MSTORE PUSH2 0x55B2 DUP2 PUSH2 0x4F75 JUMP JUMPDEST SWAP1 POP SWAP2 SWAP1 POP JUMP JUMPDEST PUSH1 0x0 PUSH1 0x20 DUP3 ADD SWAP1 POP DUP2 DUP2 SUB PUSH1 0x0 DUP4 ADD MSTORE PUSH2 0x55D2 DUP2 PUSH2 0x5001 JUMP JUMPDEST SWAP1 POP SWAP2 SWAP1 POP JUMP JUMPDEST PUSH1 0x0 PUSH1 0x20 DUP3 ADD SWAP1 POP DUP2 DUP2 SUB PUSH1 0x0 DUP4 ADD MSTORE PUSH2 0x55F2 DUP2 PUSH2 0x5067 JUMP JUMPDEST SWAP1 POP SWAP2 SWAP1 POP JUMP JUMPDEST PUSH1 0x0 PUSH1 0x20 DUP3 ADD SWAP1 POP DUP2 DUP2 SUB PUSH1 0x0 DUP4 ADD MSTORE PUSH2 0x5612 DUP2 PUSH2 0x50CD JUMP JUMPDEST SWAP1 POP SWAP2 SWAP1 POP JUMP JUMPDEST PUSH1 0x0 PUSH1 0x20 DUP3 ADD SWAP1 POP DUP2 DUP2 SUB PUSH1 0x0 DUP4 ADD MSTORE PUSH2 0x5632 DUP2 PUSH2 0x5133 JUMP JUMPDEST SWAP1 POP SWAP2 SWAP1 POP JUMP JUMPDEST PUSH1 0x0 PUSH1 0x20 DUP3 ADD SWAP1 POP DUP2 DUP2 SUB PUSH1 0x0 DUP4 ADD MSTORE PUSH2 0x5652 DUP2 PUSH2 0x5199 JUMP JUMPDEST SWAP1 POP SWAP2 SWAP1 POP JUMP JUMPDEST PUSH1 0x0 PUSH1 0x20 DUP3 ADD SWAP1 POP DUP2 DUP2 SUB PUSH1 0x0 DUP4 ADD MSTORE PUSH2 0x5672 DUP2 PUSH2 0x51D9 JUMP JUMPDEST SWAP1 POP SWAP2 SWAP1 POP JUMP JUMPDEST PUSH1 0x0 PUSH1 0x20 DUP3 ADD SWAP1 POP PUSH2 0x568E PUSH1 0x0 DUP4 ADD DUP5 PUSH2 0x529E JUMP JUMPDEST SWAP3 SWAP2 POP POP JUMP JUMPDEST PUSH1 0x0 PUSH1 0x60 DUP3 ADD SWAP1 POP PUSH2 0x56A9 PUSH1 0x0 DUP4 ADD DUP7 PUSH2 0x529E JUMP JUMPDEST DUP2 DUP2 SUB PUSH1 0x20 DUP4 ADD MSTORE PUSH2 0x56BB DUP2 DUP6 PUSH2 0x4B1F JUMP JUMPDEST SWAP1 POP DUP2 DUP2 SUB PUSH1 0x40 DUP4 ADD MSTORE PUSH2 0x56CF DUP2 DUP5 PUSH2 0x4B1F JUMP JUMPDEST SWAP1 POP SWAP5 SWAP4 POP POP POP POP JUMP JUMPDEST PUSH1 0x0 PUSH1 0x60 DUP3 ADD SWAP1 POP PUSH2 0x56EE PUSH1 0x0 DUP4 ADD DUP7 PUSH2 0x529E JUMP JUMPDEST DUP2 DUP2 SUB PUSH1 0x20 DUP4 ADD MSTORE PUSH2 0x5700 DUP2 DUP6 PUSH2 0x4B1F JUMP JUMPDEST SWAP1 POP PUSH2 0x570F PUSH1 0x40 DUP4 ADD DUP5 PUSH2 0x529E JUMP JUMPDEST SWAP5 SWAP4 POP POP POP POP JUMP JUMPDEST PUSH1 0x0 PUSH1 0x60 DUP3 ADD SWAP1 POP PUSH2 0x572C PUSH1 0x0 DUP4 ADD DUP7 PUSH2 0x529E JUMP JUMPDEST DUP2 DUP2 SUB PUSH1 0x20 DUP4 ADD MSTORE PUSH2 0x573E DUP2 DUP6 PUSH2 0x4B91 JUMP JUMPDEST SWAP1 POP PUSH2 0x574D PUSH1 0x40 DUP4 ADD DUP5 PUSH2 0x529E JUMP JUMPDEST SWAP5 SWAP4 POP POP POP POP JUMP JUMPDEST PUSH1 0x0 PUSH1 0xA0 DUP3 ADD SWAP1 POP PUSH2 0x576A PUSH1 0x0 DUP4 ADD DUP9 PUSH2 0x529E JUMP JUMPDEST PUSH2 0x5777 PUSH1 0x20 DUP4 ADD DUP8 PUSH2 0x529E JUMP JUMPDEST PUSH2 0x5784 PUSH1 0x40 DUP4 ADD DUP7 PUSH2 0x529E JUMP JUMPDEST PUSH2 0x5791 PUSH1 0x60 DUP4 ADD DUP6 PUSH2 0x4B01 JUMP JUMPDEST PUSH2 0x579E PUSH1 0x80 DUP4 ADD DUP5 PUSH2 0x4B01 JUMP JUMPDEST SWAP7 SWAP6 POP POP POP POP POP POP JUMP JUMPDEST PUSH1 0x0 PUSH1 0x20 DUP3 ADD SWAP1 POP PUSH2 0x57BD PUSH1 0x0 DUP4 ADD DUP5 PUSH2 0x52AD JUMP JUMPDEST SWAP3 SWAP2 POP POP JUMP JUMPDEST PUSH1 0x0 PUSH1 0x40 MLOAD SWAP1 POP DUP2 DUP2 ADD DUP2 DUP2 LT PUSH8 0xFFFFFFFFFFFFFFFF DUP3 GT OR ISZERO PUSH2 0x57E6 JUMPI PUSH1 0x0 DUP1 REVERT JUMPDEST DUP1 PUSH1 0x40 MSTORE POP SWAP2 SWAP1 POP JUMP JUMPDEST PUSH1 0x0 PUSH8 0xFFFFFFFFFFFFFFFF DUP3 GT ISZERO PUSH2 0x5807 JUMPI PUSH1 0x0 DUP1 REVERT JUMPDEST PUSH1 0x20 DUP3 MUL SWAP1 POP PUSH1 0x20 DUP2 ADD SWAP1 POP SWAP2 SWAP1 POP JUMP JUMPDEST PUSH1 0x0 PUSH8 0xFFFFFFFFFFFFFFFF DUP3 GT ISZERO PUSH2 0x582F JUMPI PUSH1 0x0 DUP1 REVERT JUMPDEST PUSH1 0x20 DUP3 MUL SWAP1 POP PUSH1 0x20 DUP2 ADD SWAP1 POP SWAP2 SWAP1 POP JUMP JUMPDEST PUSH1 0x0 PUSH8 0xFFFFFFFFFFFFFFFF DUP3 GT ISZERO PUSH2 0x5857 JUMPI PUSH1 0x0 DUP1 REVERT JUMPDEST PUSH1 0x20 DUP3 MUL SWAP1 POP PUSH1 0x20 DUP2 ADD SWAP1 POP SWAP2 SWAP1 POP JUMP JUMPDEST PUSH1 0x0 PUSH8 0xFFFFFFFFFFFFFFFF DUP3 GT ISZERO PUSH2 0x587F JUMPI PUSH1 0x0 DUP1 REVERT JUMPDEST PUSH1 0x1F NOT PUSH1 0x1F DUP4 ADD AND SWAP1 POP PUSH1 0x20 DUP2 ADD SWAP1 POP SWAP2 SWAP1 POP JUMP JUMPDEST PUSH1 0x0 PUSH8 0xFFFFFFFFFFFFFFFF DUP3 GT ISZERO PUSH2 0x58AB JUMPI PUSH1 0x0 DUP1 REVERT JUMPDEST PUSH1 0x1F NOT PUSH1 0x1F DUP4 ADD AND SWAP1 POP PUSH1 0x20 DUP2 ADD SWAP1 POP SWAP2 SWAP1 POP JUMP JUMPDEST PUSH1 0x0 DUP2 SWAP1 POP PUSH1 0x20 DUP3 ADD SWAP1 POP SWAP2 SWAP1 POP JUMP JUMPDEST PUSH1 0x0 DUP2 SWAP1 POP PUSH1 0x20 DUP3 ADD SWAP1 POP SWAP2 SWAP1 POP JUMP JUMPDEST PUSH1 0x0 DUP2 SWAP1 POP DUP2 PUSH1 0x0 MSTORE PUSH1 0x20 PUSH1 0x0 KECCAK256 SWAP1 POP SWAP2 SWAP1 POP JUMP JUMPDEST PUSH1 0x0 DUP2 MLOAD SWAP1 POP SWAP2 SWAP1 POP JUMP JUMPDEST PUSH1 0x0 DUP2 MLOAD SWAP1 POP SWAP2 SWAP1 POP JUMP JUMPDEST PUSH1 0x0 DUP2 MLOAD SWAP1 POP SWAP2 SWAP1 POP JUMP JUMPDEST PUSH1 0x0 DUP2 MLOAD SWAP1 POP SWAP2 SWAP1 POP JUMP JUMPDEST PUSH1 0x0 DUP2 MLOAD SWAP1 POP SWAP2 SWAP1 POP JUMP JUMPDEST PUSH1 0x0 PUSH1 0x20 DUP3 ADD SWAP1 POP SWAP2 SWAP1 POP JUMP JUMPDEST PUSH1 0x0 PUSH1 0x20 DUP3 ADD SWAP1 POP SWAP2 SWAP1 POP JUMP JUMPDEST PUSH1 0x0 DUP3 DUP3 MSTORE PUSH1 0x20 DUP3 ADD SWAP1 POP SWAP3 SWAP2 POP POP JUMP JUMPDEST PUSH1 0x0 DUP3 DUP3 MSTORE PUSH1 0x20 DUP3 ADD SWAP1 POP SWAP3 SWAP2 POP POP JUMP JUMPDEST PUSH1 0x0 DUP3 DUP3 MSTORE PUSH1 0x20 DUP3 ADD SWAP1 POP SWAP3 SWAP2 POP POP JUMP JUMPDEST PUSH1 0x0 DUP3 DUP3 MSTORE PUSH1 0x20 DUP3 ADD SWAP1 POP SWAP3 SWAP2 POP POP JUMP JUMPDEST PUSH1 0x0 DUP3 DUP3 MSTORE PUSH1 0x20 DUP3 ADD SWAP1 POP SWAP3 SWAP2 POP POP JUMP JUMPDEST PUSH1 0x0 PUSH2 0x59A6 DUP3 PUSH2 0x59C3 JUMP JUMPDEST SWAP1 POP SWAP2 SWAP1 POP JUMP JUMPDEST PUSH1 0x0 DUP2 ISZERO ISZERO SWAP1 POP SWAP2 SWAP1 POP JUMP JUMPDEST PUSH1 0x0 DUP2 SWAP1 POP SWAP2 SWAP1 POP JUMP JUMPDEST PUSH1 0x0 PUSH20 0xFFFFFFFFFFFFFFFFFFFFFFFFFFFFFFFFFFFFFFFF DUP3 AND SWAP1 POP SWAP2 SWAP1 POP JUMP JUMPDEST PUSH1 0x0 DUP2 SWAP1 POP SWAP2 SWAP1 POP JUMP JUMPDEST PUSH1 0x0 PUSH1 0xFF DUP3 AND SWAP1 POP SWAP2 SWAP1 POP JUMP JUMPDEST PUSH1 0x0 PUSH2 0x5A05 DUP3 PUSH2 0x5A0C JUMP JUMPDEST SWAP1 POP SWAP2 SWAP1 POP JUMP JUMPDEST PUSH1 0x0 PUSH2 0x5A17 DUP3 PUSH2 0x59C3 JUMP JUMPDEST SWAP1 POP SWAP2 SWAP1 POP JUMP JUMPDEST PUSH1 0x0 PUSH2 0x5A29 DUP3 PUSH2 0x5A30 JUMP JUMPDEST SWAP1 POP SWAP2 SWAP1 POP JUMP JUMPDEST PUSH1 0x0 PUSH2 0x5A3B DUP3 PUSH2 0x59C3 JUMP JUMPDEST SWAP1 POP SWAP2 SWAP1 POP JUMP JUMPDEST DUP3 DUP2 DUP4 CALLDATACOPY PUSH1 0x0 DUP4 DUP4 ADD MSTORE POP POP POP JUMP JUMPDEST PUSH1 0x0 JUMPDEST DUP4 DUP2 LT ISZERO PUSH2 0x5A6F JUMPI DUP1 DUP3 ADD MLOAD DUP2 DUP5 ADD MSTORE PUSH1 0x20 DUP2 ADD SWAP1 POP PUSH2 0x5A54 JUMP JUMPDEST DUP4 DUP2 GT ISZERO PUSH2 0x5A7E JUMPI PUSH1 0x0 DUP5 DUP5 ADD MSTORE JUMPDEST POP POP POP POP JUMP JUMPDEST PUSH1 0x0 PUSH1 0x1F NOT PUSH1 0x1F DUP4 ADD AND SWAP1 POP SWAP2 SWAP1 POP JUMP JUMPDEST PUSH2 0x5A9E DUP2 PUSH2 0x599B JUMP JUMPDEST DUP2 EQ PUSH2 0x5AA9 JUMPI PUSH1 0x0 DUP1 REVERT JUMPDEST POP JUMP JUMPDEST PUSH2 0x5AB5 DUP2 PUSH2 0x59AD JUMP JUMPDEST DUP2 EQ PUSH2 0x5AC0 JUMPI PUSH1 0x0 DUP1 REVERT JUMPDEST POP JUMP JUMPDEST PUSH2 0x5ACC DUP2 PUSH2 0x59E3 JUMP JUMPDEST DUP2 EQ PUSH2 0x5AD7 JUMPI PUSH1 0x0 DUP1 REVERT JUMPDEST POP JUMP INVALID GASLIMIT MSTORE NUMBER CALLDATACOPY CALLDATACOPY CALLDATACOPY GASPRICE KECCAK256 PUSH21 0x72616E7366657220616D6F756E7420657863656564 PUSH20 0x2062616C616E63654552433737373A207472616E PUSH20 0x66657220616D6F756E7420657863656564732061 PUSH13 0x6C6F77616E6365455243373737 GASPRICE KECCAK256 PUSH3 0x75726E KECCAK256 PUSH2 0x6D6F PUSH22 0x6E7420657863656564732062616C616E6365A365627A PUSH27 0x7231582001590700EFC4891C172942E34E068922CA0BCCDF99FB83 PUSH10 0x49529D29905C4376C65 PUSH25 0x706572696D656E74616CF564736F6C634300050C0040000000 "
			}
		}
	},
	"sourceTreeHashHex": "0x6aff15b603d8a3bba72282bc5f34b22115484c63aa01f64a877a7788a0a6fbc1",
	"compiler": {
		"name": "solc",
		"version": "soljson-v0.5.12+commit.7709ece9.js",
		"settings": {
			"optimizer": {
				"enabled": false
			},
			"outputSelection": {
				"*": {
					"*": [
						"abi",
						"evm.bytecode.object",
						"evm.bytecode.sourceMap",
						"evm.deployedBytecode.object",
						"evm.deployedBytecode.sourceMap"
					]
				}
			},
			"remappings": [
				"openzeppelin-solidity=/Users/mickdegraaf/DDAI/node_modules/openzeppelin-solidity"
			]
		}
	}
}